:1000000000000220F93E0000213F0000233F0000D5
:10001000253F0000273F0000293F000000000000AE
:100020000000000000000000000000002B3F000066
:100030002D3F0000000000002F3F0000313F000076
:10004000333F00000D20000069490000CD10000082
:10005000C1100000333F0000333F0000333F000079
:10006000333F0000333F000069130000333F0000BE
:10007000333F0000333F0000333F0000333F0000B8
:10008000333F000081400000333F0000333F000059
:10009000333F0000333F0000333F0000333F000098
:1000A000333F0000333F0000333F0000333F000088
:1000B000333F0000333F000000000000000000005C
:1000C000333F0000333F0000333F0000333F000068
:1000D000333F0000333F0000333F0000333F000058
:1000E000333F00000000000000000000000000009E
:1000F00000000000333F000000000000333F00001C
:1001000000000000000000000000000000000000EF
:1001100000000000000000000000000000000000DF
:1001200000000000000000000000000000000000CF
:1001300000000000000000000000000000000000BF
:1001400000000000000000000000000000000000AF
:10015000000000000000000000000000000000009F
:10016000000000000000000000000000000000008F
:10017000000000000000000000000000000000007F
:10018000000000000000000000000000000000006F
:10019000000000000000000000000000000000005F
:1001A000000000000000000000000000000000004F
:1001B000000000000000000000000000000000003F
:1001C000000000000000000000000000000000002F
:1001D000000000000000000000000000000000001F
:1001E000000000000000000000000000000000000F
:1001F00000000000000000000000000000000000FF
:10020000044B05481B1A062B02D9044B03B11847AF
:10021000704700BF370100203401002000000000BB
:1002200005490648091A891001EBD171491002D01D
:10023000034B03B1184770473401002034010020FC
:100240000000000010B5064C237843B9FFF7D8FF33
:10025000044B13B10448AFF300800123237010BD99
:10026000340100200000000034A9000008B5084B4C
:100270001BB108490848AFF300800848036813B968
:10028000BDE80840CCE7064B002BF9D09847F7E7CC
:10029000000000003801002034A9000030010020D7
:1002A00000000000154B002B08BF134B9D46A3F523
:1002B000803A00218B460F461348144A121A05F063
:1002C000DEFB0F4B002B00D098470E4B002B00D0CD
:1002D00098470020002104000D000D48002802D09E
:1002E0000C48AFF3008005F089FB2000290004F0E2
:1002F0008BFC05F05DFB00BF000008000000022041
:10030000000000000000000034010020180400205C
:100310000000000000000000F0B5044687B0174858
:1003200001F032FF16490546204604F07FFB15B365
:1003300000272B78FEB2033B9E4207F1010717DA34
:100340002E442146684604F0AFFB3179684604F03C
:10035000F2FB014603A804F0A7FB03A9204604F022
:10036000ADFB03A804F020FB684604F01DFBE0E7AA
:10037000284604F05FFC204607B0F0BD9401002041
:10038000AAA500002DE9FF411E23002207460146D1
:1003900001A804F00FFC01A9384604F08FFB124CB1
:1003A00001A804F001FBBA68236803321A700A221C
:1003B0009A700C225A700E22DA700023DEB25D1C95
:1003C000BB68B34209D9D4F800803146384604F0FE
:1003D000D7FB46442B463071F0E72168034801F013
:1003E000E5FE04B0BDE8F081540100209401002036
:1003F00010B50D4C0D4801F07FFD21460C4802F070
:10040000E5F90C4801F026FF21460B4C0B4802F0A1
:1004100024FB0B49204604F009FB2046094A0A49FF
:10042000BDE8104005F084BAC4010020940100200A
:100430007C010020C00100206C010020640100202C
:10044000AAA5000000000020A949000030B52B4DEE
:100450002B4C85B028464FF4E13104F04DF9284685
:10046000052104F030F90021052003F013FF0021DD
:100470000B2003F00FFF234800F0ACFC204602F0F5
:1004800033FA204602F0FEF920461F4C02F060FAD3
:10049000204602F05BFB204602F0E3FA03F0CAFDBF
:1004A0001A4B18602C2004F0C3FB2C2200210446B8
:1004B00005F0E5FA164B1C60164C0721204601F0AA
:1004C0002FFD154901A804F0B1FA01A9204601F059
:1004D00021FD01A804F068FA204601F0C7FD0A21B9
:1004E000204601F049FE3221204601F029FD0B494A
:1004F000284603F073FF05B030BD00BFA403002001
:100500007C010020C401002064010020780100204B
:1005100054010020940100204299000047990000F6
:100520002DE9F04F99B0B64CB64902AF07F118006B
:1005300004F0CCF807F11801204604F0BFFA07F1E7
:10054000180004F031FAA3685E1C083323F0070397
:10055000ADEB030D02AD324600232946204604F0E0
:1005600011FB0021A955204604F0EFFA06460028A9
:1005700040F0C383A449284606F042FFA24905463D
:10058000304606F03DFFA0490446304606F038FFED
:100590009E497860284606F0CDF88046D0B9012102
:1005A000172003F077FE01211A2003F073FE414665
:1005B000032003F06FFE032003F078FD944980468A
:1005C000904803F0F2FEC8F57F710A2203318D488E
:1005D00003F068FF8F49284606F0ACF888B907F1A8
:1005E00018018D4802F0BCF98C49864803F0DDFE05
:1005F000B86904F0A3FC41EC100B0221814804F01F
:1006000003F88749284606F095F8B8B985497D482A
:1006100003F0CBFE052003F083FE0A220146794851
:1006200003F03EFF8049774803F0BFFE0B2003F044
:1006300077FE0A220146734803F034FF7B492846BF
:1006400006F078F850BBDFF828820121D8F80000C6
:1006500003F020FE204698F8009005F090F98246BD
:10066000786805F089F964A3D3E9002351EC100BF5
:1006700004F0B8FC04F078FF51460246484601F009
:1006800041FE786805F07BF903F0ECFC98F8000077
:1006900001F044FE66495B4803F0A0FE6549284628
:1006A00006F048F8002840F0168107F1180000F025
:1006B00087FD07F1180000F0FBFD5F49204606F0BA
:1006C00039F828B9012107F1180000F025FDFEE0F6
:1006D0005A49204606F02EF808B9594905E059490B
:1006E000204606F027F828B9574907F1180000F00E
:1006F00041FEECE05549204606F01CF808B9544983
:10070000F3E75449204606F015F808B95249ECE7DA
:100710005249204606F00EF808B95149E5E751491B
:10072000204606F007F820B907F1180000F01EFE79
:10073000CDE04D49204605F0FDFF804618BB3A4903
:10074000786806F05DFE38498346404606F058FE5C
:1007500035498146404606F053FE8246584605F02C
:100760000EF98046484605F00AF98146504605F0E4
:1007700006F90FFA89F283B20FFA88F107F118002F
:1007800000F0DCFCA3E03949204605F0D3FF002847
:1007900070D12549786806F033FE23498046002051
:1007A00006F02EFE20498146002006F029FE1E4953
:1007B0008246002006F024FE8346404605F0DFF81E
:1007C0008046484605F0DBF88146504605F0D7F8EC
:1007D0008246584605F0D3F8012300B201930090F9
:1007E0000FFA8AF30FFA89F20FFA88F107F118006D
:1007F00000F01CFF6BE000BFCDCCCCCCCCCCEC3FF0
:100800006C010020A40300205599000057990000B6
:100810005D990000609900007C010020659900004E
:100820006B9900006D9900007099000072990000AA
:10083000779900007A9900007E9900008599000060
:10084000369E00008B9900002C9E00008E990000BF
:10085000319E0000929900003D9900009899000097
:10086000389900009C990000A2990000AC99000002
:10087000040000201249204605F05CFF10BB8046B2
:100880007B6808EB880A9A444FF000090FFA88FB4E
:100890001AF80930312B07D101235A460FFA89F192
:1008A00007F1180000F04AFC09F10109B9F1050F40
:1008B000EED108F10108B8F1050FE1D107E000BF62
:1008C000B5990000214607F1180000F095FD07F1E9
:1008D000180000F087FCBE49284605F02BFF68B9D8
:1008E000204605F04CF80146BA4801F0E3FC786870
:1008F00005F045F80146B74801F0ECFCB64928463A
:1009000005F018FFF8B907F11801B44801F064FFC9
:10091000B349B44803F049FD0A22396AB14803F0EB
:100920009DFDB149AF4803F040FD0A22F969AD4889
:1009300003F094FDAC49AB4803F037FD0A22B969D6
:10094000A84803F0B9FDA949284605F0F3FE18BBF5
:1009500007F10C00FFF7E0FC7B6943B1A449A14813
:1009600003F023FD07F10C019E4803F02DFD214605
:100970009C4803F033FD214607F1180004F056F8B7
:1009800007F11800FFF7FEFC07F1180004F00CF85F
:1009900007F10C0004F008F89649284605F0CAFE55
:1009A000002840F08480DFF88C829348414602F0B2
:1009B00078F8D8F80000D8F804C0D8F808E0DFF8D4
:1009C00078828E498E4A8F4B98F800800860C2F872
:1009D00000C08B469146C3F800E09A468A498B4A8C
:1009E000B8F1000F20D10B6898421368B8BF0860B7
:1009F0009842C4BF854B1860854B1E68B445B8BF8C
:100A0000C3F800C0834B1E68B445C8BFC3F800C01C
:100A1000814B1E68B645B8BFC3F800E07F4B1E6827
:100A2000B645C8BFC3F800E040F2FF38CDF80080FB
:100A30007B4B1268096803F0ADFF764A7449CBF826
:100A40000000CDF80080764B12680968D9F80000E4
:100A500003F0A0FF714A7049C9F80000CDF800808A
:100A6000002312680968DAF8000003F093FF6D496B
:100A7000CAF800005B4803F098FC0A22DBF800107B
:100A8000584803F0EBFC5849564803F08EFC0A2204
:100A9000D9F80010534803F0E1FC5349514803F0E2
:100AA00084FC0A22DAF800104E4803F005FD5E4986
:100AB000284605F03FFE002840F08480DFF874816E
:100AC0004D48414601F0EDFFD8F80000D8F804C0C9
:100AD000D8F808E0DFF860814849494A494B98F85E
:100AE00000800860C2F800C08B469146C3F800E061
:100AF0009A464549454AB8F1000F20D10B68984203
:100B00001368B8BF08609842C4BF404B1860404BA0
:100B10001E68B445B8BFC3F800C03E4B1E68B4455C
:100B2000C8BFC3F800C03C4B1E68B645B8BFC3F889
:100B300000E03A4B1E68B645C8BFC3F800E040F27B
:100B4000FF38CDF80080364B1268096803F022FFA9
:100B5000304A2F49CBF80000CDF80080304B1268A6
:100B60000968D9F8000003F015FF2C4A2A49C9F892
:100B70000000CDF80080002312680968DAF8000050
:100B800003F008FF2949CAF80000164803F00DFCDD
:100B90000A22DBF80010134803F060FC12491148E8
:100BA00003F003FC0A22D9F800100E4803F056FCAB
:100BB0000D490C4803F0F9FB0A22DAF80010094845
:100BC00003F07AFC1A49284605F0B4FD36E000BF70
:100BD000BC990000C0010020C29900007C010020E7
:100BE000E0990000A403002070990000C79900005C
:100BF000CD990000D199000064010020B4010020CB
:100C0000B8010020BC01002058010020880100200C
:100C10005C0100208C010020600100209001002078
:100C200001FCFFFFD5990000DA990000DE99000071
:100C3000E3990000A8010020500100208046D8B9A7
:100C4000204604F09CFE414603F024FB2D492E482B
:100C500003F0ABFB21462C4803F0A7FB2B492A48A5
:100C600003F0A3FB204604F08AFE03F059FB0A229E
:100C70000146254803F016FC2549284605F05AFD93
:100C8000A8B92449204803F090FB21461E4803F0F0
:100C90008CFB1E491C4803F088FB204604F06FFEC5
:100CA00003F004FA0A220146174803F0CDFB1A4963
:100CB000284605F03FFD80B9204604F060FE012182
:100CC00003F0E8FA204604F05AFE8046786804F003
:100CD00056FE0146404603F007FB1049284605F042
:100CE00029FD50B9204604F04AFE0446786804F015
:100CF00046FE0146204603F07DFA5C37BD46BDE85E
:100D0000F08F00BFEF990000A4030020CF990000EE
:100D1000EA99000053990000F1990000F999000048
:100D20002DE9F84380460D46174601EB02090C46B3
:100D30004C45A4EB050609D0D8F8003014F8011B87
:100D40001B68404698470028F2D100E03E463046F6
:100D5000BDE8F8837047203003F089BC38B5437F85
:100D60000D462BB100F16804204603F08EFC08B15B
:100D7000002038BD2046294603F05CFC012038BD28
:100D8000203003F066BC203003F077BC2DE9F04141
:100D90001E464FF47A73002583600D4B4560044670
:100DA00040F8203B8846174603F039FC04F1680000
:100DB00003F035FC9DF8183063769DF81C30A3765F
:100DC000C4F810806761267665772046BDE8F0811B
:100DD0000C9A0000F0B5837E2D4C2E4D54F8232044
:100DE000437E54F8233012F0200F14BF2F464FF0EB
:100DF000A04702F01F0213F0200F03F01F0308BFEB
:100E00004FF0A04502F5E07203F5E073012140F2D6
:100E10000C66C17647F8226045F8236003694FF0FD
:100E2000CC72C3F824250622C3F80025827E54F82C
:100E30002220C3F80825427E54F82220C3F80C254E
:100E4000027E53B2D2B202F01F055C09A9406034A1
:100E5000114D002B45F8241006DA104B02F00F025A
:100E6000134440221A7606E003F1604303F5614320
:100E7000402283F80023037E01215AB203F01F03AE
:100E800001FA03F35209044941F82230F0BD00BFD2
:100E9000F0A400000003005000E100E0FCEC00E0E2
:100EA0002DE9F8430646894698461546B2B100F149
:100EB0002007384603F0C9FB34690122C4F888953D
:100EC0002262C4F83475C4F838552260D4F84C3125
:100ED0003BB9D4F82431002BF8D002E01046BDE82D
:100EE000F8830023C4F84C31D4F85C311BB9D4F832
:100EF0002431002BF8D00023C4F85C310122B8F172
:100F0000000F02D1D4F8243143B16261D4F8043126
:100F1000002BFBD00023C4F8043107E0E261D4F8D1
:100F20004831002BFBD00023C4F84831D4F82431D9
:100F300013B10023C4F82431D4F83C053066C0B2A4
:100F4000BDE8F8830123FFF7ABBF10B5044680F876
:100F5000B010683003F079FB0123637710BD2DE9F1
:100F6000F041002305694377012790F8B030C5F8B8
:100F7000883500F1680604462F623046C5F844659E
:100F8000884603F074FB2369C5F848059F60D3F8D1
:100F900050211AB9D3F82421002AF8D00022C3F82E
:100FA0005021304603F063FB236930B1D3F8602150
:100FB0001AB9D3F82421002AF8D00022C3F86021FE
:100FC0000122B8F1000F02D1D3F8241141B15A61C6
:100FD000D3F80421002AFBD00022C3F8042107E043
:100FE000DA61D3F84821002AFBD00022C3F8482157
:100FF000D3F8240170B10022C3F82421D3F8C4042B
:10100000C3F8C404022805D0042814BF0420032018
:10101000BDE8F081BDE8F0814369D3F8642170B583
:10102000044682B10022012500F12006C3F86421A4
:101030000577304603F009FB63694022C3F8346545
:10104000C3F838251D636369D3F86821D2B1002540
:10105000C3F8685104F168060123637725773046A9
:1010600003F0F3FAD4F8B43003B1984765776569B3
:101070003046C5F8446503F0FAFA6369C5F84805D7
:1010800001225A636369D3F804215AB10022C3F8DC
:101090000421227F32B1D3F83C05D4F8B830206661
:1010A00003B198476369D3F8242142B10022C3F801
:1010B0002421D3F8D024C3F8D02401225A6170BD72
:1010C0000148FFF7A9BF00BF800200200148FFF7D9
:1010D000A3BF00BFC401002007B5132314228DE86D
:1010E0000C004FF04022114604230848FFF74EFE43
:1010F000074A08481E211F238DE80A0003231146D2
:10110000FFF744FE03B05DF804FB00BF800200203F
:1011100000300040C401002000F11903C9B280F87A
:10112000241080F8251080F8261080F8271080F809
:10113000281005309842F2D170470000002910B500
:1011400038DB002A36DBB0F90C408C4232DDB0F9D6
:101150000E4094422EDD847E022C09D0032C10D048
:10116000012C13D10489013CA41A0A4621B20DE0D6
:101170000489013C611A4489013CA21A09B212B2E5
:1011800004E04489013C641A114622B202EB820257
:101190001144C9B2084A545C084A525C013AD2B2BE
:1011A0009100013C0A44E4B21044204403B10123FD
:1011B00080F8243010BD00BF2B0000200D0000205F
:1011C00010B505220446114600F0C2FA2046044B31
:1011D00040F8243B1922002104F051FC204610BDA8
:1011E000E49D0000704700002DE9F8431D4C1E4DA2
:1011F0002378DFF8789006460021E85C03F074F865
:101200004FF0000819F80800184F012108F10108F3
:1012100003F06AF8B8F1050FF4D123780133DBB29B
:10122000042B237082BF0F4B00221A704FF000086E
:10123000237803EB83033344434493F8243023B1EE
:10124000002117F8080003F04FF808F10108B8F181
:10125000050FEDD123780121E85CBDE8F84303F0E8
:1012600043B800BF400300200800002026000020F3
:101270000D4B002201210420C3F80425D960C3F8D6
:1012800010054FF47A70C3F80825C3F84005C3F879
:1012900044254FF48032C3F80423044A4FF480609D
:1012A00010601960704700BF00A0004000E100E03E
:1012B00070B51B4B1B4C18600546661D14F8010FDA
:1012C000012102F0E7FF0121207803F00DF8B4427C
:1012D000F4D1154C661D14F8010F012102F0DAFF5C
:1012E0000021207803F000F8A642F4D12B4605F146
:1012F0001901002283F8242083F8252083F8262072
:1013000083F8272083F8282005339942F2D1074B30
:10131000002228461A70FFF7ABFF012070BD00BF06
:101320003C0300202500002007000020400300208F
:1013300010B50B4CD4F8403183B1D4F80433DB033F
:101340000CD50023C4F84031064B1868FFF74CFF5A
:10135000D4F8403503F57A73C4F8403510BD00BFAA
:1013600000A000403C030020FFF7E2BF036800211B
:10137000DB6B184730B585B00D460446FFF7F6FF26
:101380000821052201238DE80E0020462B4600226D
:101390006FF0020100F04BFA05B030BD2DE9F843C3
:1013A00004460E461349174600F02BFC0023E37653
:1013B00005250123E382A3826FF00409A846304685
:1013C00005F0CAF900B2013809FB00F085420EDDD4
:1013D00025822046A4F81280FFF7C8FF3146204638
:1013E00002F0E3FF384602F03DFE013DE7E7BDE8CD
:1013F000F88300BFD49A000070B504460D4610492A
:1014000000F0FFFB00260123E676E382A382284654
:1014100005F0A2F9012806D9294620469622BDE802
:101420007040FFF7BBBF2046FFF7A0FF05232682D1
:10143000638229462046BDE8704002F0B6BF00BF77
:10144000D49A00002DE9F04F85B01F46BDF9383021
:10145000BDF83CA015469A1A002AB8BF5242009225
:101460007A1A002AB8BF524201920C46009A01999A
:101470008A42814605DD3A461F46134622462C46DF
:101480001546BC4205DD2A461D46134622463C460B
:1014900017465A1B002AC4EB0708B8BF52421FFA6E
:1014A00088F8039202260FFA88F292FBF6F64FF6BE
:1014B000FF729D42B8BF0122B6B20292BC421FDC4D
:1014C000019A009B9342D9F80030C8BF2246D3F856
:1014D00010B0C8BF29465346DCBF2A4621464846BD
:1014E000D847039BF61AB3B29EB2320405D5029ACE
:1014F00008EB030615442DB2B6B2013424B2DDE781
:1015000005B0BDE8F08F10B40468A468A4465DF887
:10151000044B604730B40468BDF808500295246B52
:10152000A44630BC604730B40468BDF8085002954A
:10153000646BA44630BC604770B40468BDF90C50BD
:10154000BDF8106004960395A46BA44670BC604778
:1015500070472DE9F3411C460368BDF82080DB6825
:1015600005461646013C34440F4624B298472B6882
:10157000CDF8048000941C6A28463B463246394622
:10158000A0472B685B6A284602B0BDE8F0411847C7
:101590002DE9F3411D460368BDF82080DB68044651
:1015A00017460E4698478DE8800122686B1E33442B
:1015B000156A20461BB23A463146A84723685B6A43
:1015C000204602B0BDE8F04118472DE9F3471E461A
:1015D0000368BDF92880DB68BDF82C900C460546F1
:1015E000174698472644B4422A680BDACDF8009093
:1015F000D2F818A0214643463A4628460134D0473F
:1016000024B2F0E7536A284602B0BDE8F047184715
:1016100013B5B0F90E200468019100920022B0F9D0
:101620000C30A46B1146A04702B010BD2DE9F74362
:101630009942904607460E461C46BDF92850BDF813
:101640002C9002680BD1A845C2BF4346A8461D4650
:101650006B1CCDF82890C8EB0303146B0CE0A84575
:1016600013D19942C4BF0B462646CDF82890C8BF77
:101670001C46631C546B9B1B1BB2424631463846CA
:10168000A44603B0BDE8F0436047D36898473B6881
:101690008DE8200238461D6A424623463146A84757
:1016A0003B685B6A384603B0BDE8F04318472DE954
:1016B000F3471E460368BDF82C80DB68BDF928900F
:1016C00004460D46174698472368CDF80080D3F8A6
:1016D0001CA03A46334629462046D0472368CDF819
:1016E000008009F1FF323A44D3F81CA02946334662
:1016F000204612B2D0472368CDF80080D3F818A056
:101700003A464B4629462046D0472368CDF800800C
:10171000711E294420469D693A464B4609B2A847A6
:1017200023685B6A204602B0BDE8F047184770475F
:1017300001F00301012981760389428904D003293C
:1017400002D08381C28170478281C38170470000CB
:1017500030B5018100240A4D42818181C2814FF65A
:10176000FF710122446005608476048244824276DF
:101770000276C1828182C2760477046230BD00BFE6
:10178000449E00002DE9F04F89B09A46BDF94C30D7
:101790000393BDF85030049303680292DB68019113
:1017A000BDF9489000260546984708230096344620
:1017B000079309F1070292FBF3FB009A029B03993E
:1017C0001344BDF9002091429BB229DD0AEB0602C9
:1017D0001BB24FF00008059206931FFA88F10BB276
:1017E0004B4518DA4A0703BF079A93FBF2F3059AB1
:1017F00064000CBFD45CE4B2230609D5019B069AB1
:1018000019442B681B6909B21F462846049BB84738
:1018100008F10108E1E7009B013300935E44CCE747
:101820002B685B6A284609B0BDE8F04F184770B4D2
:10183000BDF90C40BDF91050BDF814600596049533
:10184000039470BCFFF79EBF2DE9F04F91B0904616
:10185000026A03911E46BDF8683002930446BDF843
:101860006C909DF870709DF87450002A40F0B28022
:10187000B0F90C308B4240F33F81B0F90E30434554
:1018800040F33A81062313FB0713002B40F3348106
:1018900008EBC503002B40F32F81037F1BB9AF2E4C
:1018A00084BF0136F6B223682046DB6898470523DB
:1018B0000993002306933BB20C939DF9183090498D
:1018C000052212FB06324FF0000A8A5C0592BAB27A
:1018D0000792BDF80C2004920499079A03FB0212A8
:1018E00092B211FA83F308921BB208220A920B9368
:1018F000059BDA0711D5012F4FFA8AF207D1012D86
:1019000005D123684244D3F810B0029B13E002993A
:101910002368019102FB058217E0029B4B451DD015
:10192000012F4FFA8AF20BD1012D09D123684244CD
:10193000D3F810B04B4612B20B992046D8470DE0B1
:101940002368CDF8049002FB05820095D3F814B00B
:10195000BDF920100C9B12B22046D847059B5B08AE
:1019600005930A9B013B0AF1010A13F0FF035FFA9A
:101970008AFA0A93BCD1069B0133DBB20693099B1A
:10198000013B13F0FF03099397D1029B4B4500F0F5
:10199000AC80012F23680CD1012D0AD10499CDF818
:1019A000009005319D694246082309B22046A847A8
:1019B0009BE0079ACDF8049002EB8201049AED00B7
:1019C0000A44114600955D6942463B4609B22046ED
:1019D000A8478AE0137A516812680D92F61AF6B297
:1019E00001EBC60331F8362004929A780792DA7830
:1019F0000A92012F5A7908929E7901D8012D07D9B0
:101A00009DF920309BB2069373B29BB2059302E01E
:101A100000230593069323682046DB6898471FFA46
:101A200088F34FF00009099343FA86F3CB46CA4680
:101A30000F930A9B5FFA89F29A4256D2059B099945
:101A40004B4413FB05F30B440F999BB28A180C937C
:101A500000265B460E92079A96423FD25A1CD2B29B
:101A60005B070B9207D1049B04990D9A01339BB23B
:101A700012F801A004931AF0800F27D0012F11D182
:101A8000012D0FD19DF82020039B43FA82F123689A
:101A9000BDF93820D3F81080029B314409B22046AA
:101AA000C04713E0BDF81830029A019206FA83F19C
:101AB000039B009511FB07F119442368BDF9302001
:101AC000D3F8148009B23B462046C0474FEA4A0A81
:101AD00001365FFA8AFAF6B20B9BBCE7079B9B4480
:101AE0005FFA8BFB09F10109A3E723685B6A2046D3
:101AF00011B0BDE8F04F184711B0BDE8F08F00BF3E
:101B00008C9E0000F0B5026A85B004460B46002AA0
:101B10002FD10A2905D10282438A427E03EBC203F8
:101B200030E00D296AD0C17E457E007E69B1B4F9EE
:101B30001060062111FB0061B4F90C60B142C1BF15
:101B40002282628A02EBC50262820290E08A0190E0
:101B5000A08AB4F912200090B4F910100395204621
:101B6000FFF772FE237E228A03EB430302EB43035B
:101B700043E00A2908D100230382417E127B438A75
:101B800001FB0233638239E00D2937D0157AA9426F
:101B900034D3917A994231D351685D1BEDB201EB98
:101BA000C505A97821B3E87810B3E77E667E207E6C
:101BB0008FB195F905703944B4F9107000FB0171CB
:101BC000B4F90C70B94206DD00212182127B618AD2
:101BD00006FB021262820290E08A0190A08A0090C5
:101BE000B4F91220B4F9101003962046FFF72CFE2A
:101BF0002979227E238A01FB02332382012005B04A
:101C0000F0BD036A19B133B9438A063302E013B158
:101C1000438A063B438201627047000038B50025C5
:101C2000057329B90B4B0C4A0C48252103F086FE9D
:101C300001600B4951F82220027151F82330837161
:101C40009DF8103051F8233043710223C371856031
:101C500038BD00BFC9A300008CA30000D7A30000BB
:101C6000F0A4000007B5094B09490A484FF080422B
:101C70001A6000229A6002221A710F2300930E222A
:101C80000D23FFF7CBFF03B05DF804FB44030020F6
:101C90000030024050030020222870B548D80729A0
:101CA00046D8D41EA4B247F6FC75AC4240D8DC1E20
:101CB000AC423DD81F4D204E15F82000002456F8A8
:101CC0002450B5F1FF3F2ED11B4D6FEA434345F839
:101CD00024001A4D6FEA534325F81430184B53F87B
:101CE0002430C3F86005C3F86405C3F86805C3F879
:101CF0006C050120C3F8000505EB4404C3F80C157E
:101D0000C3F80405C3F808250022C3F81425C3F856
:101D10001025C3F82045C3F82405C3F82825C3F8C7
:101D20002C25986070BD8542CED00134042CC6D1DC
:101D300070BD00BFF0A40000440000206403002038
:101D400034A40000B1F5087F06D3B1F5166F0B4639
:101D500028BF4FF4166301E04FF408731B0940F2EB
:101D6000E2420721FFF798BF22282DE9F7430646F4
:101D70000F4614466CD83C4B023A9A4268D8F42C71
:101D80000ED8792C0ED83D2C0ED81E2C0ED80F2C28
:101D90000ED8072C0ED8042C34BF072506250AE0E0
:101DA000002508E0012506E0022504E0032502E005
:101DB000042500E00525284603F09EF89FED260B3C
:101DC00041EC110B00F02CFF07EE904AF8EEE77A99
:101DD000B7EE007AC7EE276A53EC102B16EE900A86
:101DE000CDE9002303F0AAF8DDE900238046894607
:101DF0001BA1D1E9000103F01FFA02460B460020A7
:101E00001A4903F019FA02460B464046494603F0C8
:101E100013FA03F0A9FB044603F06EF80022144BFA
:101E200003F0E0F880463846894603F075F802462C
:101E30000B464046494603F0D5F803F095FBA2B2A5
:101E400003462946304603B0BDE8F043FFF724BF00
:101E500003B0BDE8F08300BF0000000000000040B8
:101E60000000000080845E41A8B028000000F03F20
:101E70000000503F222810B534D81B4B1B4C13F8E0
:101E80002010002254F82230581C26D1174B184835
:101E900043F8221048F2800320F81230154B53F813
:101EA000223000EB4202C3F86015C3F86415C3F892
:101EB0006815C3F86C150021C3F80015C3F8141594
:101EC000C3F81015C3F820250122C3F82425C3F850
:101ED0002825C3F82C159A6010BD9942D6D001323E
:101EE000042ACFD110BD00BFF0A4000044000020A0
:101EF0006403002034A400000022427002614260AA
:101F00008260C260024A012101701060704700BF08
:101F10006C030020014802F057BA00BFA403002060
:101F200007299FBF044B5A56044B012094BFC3F8A6
:101F30000C25FE20704700BF83A400000010004065
:101F4000532926D8144B0222C3F88020134B0022B9
:101F5000C3F8102101221A611A46D2F810010F4B62
:101F60000028FAD00022C3F80815C3F80021012286
:101F70005A60D3F80011094A0029FAD00023C2F8A8
:101F80000C310120044B90600222C3F880211A60BA
:101F90007047FE20704700BF00E100E000100040E5
:101FA0000369DB0746BF41600120FF2070470369DA
:101FB000DB074CBF4068FF207047C26838B5044655
:101FC000FAB14378032B1ED8FFF7F1FF90622C2063
:101FD00002F02EFE2C220021054603F050FDE2689F
:101FE00000235362A3680BB9A26004E0596A09B1E7
:101FF0000B46FBE75A626378E560013363700120AA
:1020000038BDFE2038BDFD2038BD000038B5154B69
:10201000D3F8002122B10022C3F8002101229A60E6
:10202000D3F80C310F4DDBB10021C5F80C11D5F8F8
:1020300000340D4C012B0DD1D5F8481520684942CC
:10204000FFF7AEFF2068FFF7B8FF2368DB68C5F82D
:10205000043502E02068FFF7A3FF024B01229A60DB
:1020600038BD00BF001000406C030020F8B50369C4
:10207000DB0704466BD4C56845B92C2002F0D8FDB7
:102080002C220646294603F0FAFCE660E668002E9C
:102090005FD04FF080430022C3F8002101221A6074
:1020A000D3F80021002AFBD02B4B00220721C3F8D4
:1020B0000C25C3F808152949C3F81025C3F81C15C9
:1020C0002178C3F82415082501202549C3F82C25BB
:1020D0004FF6FF77C3F83005C3F81455C3F8181549
:1020E0000221C3F83415C3F83C751E4FC3F8387588
:1020F0001827C3F85475C3F80465C3F804531A4D80
:10210000C5F880112960D3F8001241F01001C3F81E
:102110000012C3F800215860D3F800210E4E002AA7
:10212000FAD00023C6F80C31236910491048012564
:102130002B43B560236102F038F9D6F850150C48EE
:102140000A2202F074F90B49094802F047F901200C
:10215000F8BDFD20F8BD00BF001000407469627535
:10216000200004022110010000E100E044A400006E
:10217000A40300204CA40000024B0170C3F82415F6
:1021800001207047001000400346806810B548B138
:102190000549426A0224C1F880409A605A78013A9F
:1021A0005A700C6010BD00BF00E100E010B50029BE
:1021B0004AD00B78232B47D8244B0222C3F8802027
:1021C000234B0022C3F8102101221A611A46D2F8CB
:1021D00010411F4B002CFAD00022C3F80415C3F89D
:1021E000002101221A60D3F80011194A0029FAD0FF
:1021F0000023C2F80C3101239360D2F80C11144B68
:102200000029FAD0C268C3F804250022C3F81021BF
:1022100001221A61D3F810110D4A0029FAD00023C7
:10222000C2F8003101235360D2F80011084B002995
:10223000FAD000220120C3F80C219860034B02223F
:10224000C3F880211A6010BDFE2010BD00E100E03F
:1022500000100040044A1378032B96BF591CFF233B
:1022600011700370704700BF70030020F8B51D4661
:102270000378032B04460F46164616D8012138462C
:1022800002F008F822780A4B13F8321067F30501C0
:10229000002EC9B2B8BF002641F04001002DA8BFF2
:1022A000002503F832106670A5702078F8BD00BFD5
:1022B0007403002040F6C4130022FFF7D7BF0000CC
:1022C0000278034B13F8320000F03F00FFF73ABDED
:1022D0007403002013B5B429A8BFB42104464FF4F9
:1022E000166308460093B4224FF40873002120EAD5
:1022F000E07002F04FFB0146204602B0BDE81040FE
:10230000FFF7DEBF10B514460A464FF40071FFF721
:102310002BFD2046BDE8104001F0A4BEFFF7AABD8A
:1023200008B5012300F072FBB0FA80F0400908BD47
:1023300013B502AC012304F8012D224600F046FB40
:10234000B0FA80F0400902B010BD10B50A460C4644
:102350000721FFF7E5FF20B1237803F00403237082
:10236000012010BD37B50D460DF107021F210446AF
:10237000FFF7D6FF68B19DF8072002F03F022A431D
:102380001F2120468DF80720FFF7D2FF003018BF2D
:10239000012003B030BD37B50D460DF107022021F5
:1023A0000446FFF7BDFF68B19DF8072022F0010247
:1023B0002A43202120468DF80720FFF7B9FF00307F
:1023C00018BF012003B030BD37B50D460DF107022F
:1023D00020210446FFF7A4FF68B19DF8072022F0F2
:1023E00002022A43202120468DF80720FFF7A0FF94
:1023F000003018BF012003B030BD37B50D460DF1D8
:10240000070220210446FFF78BFF68B19DF80720E3
:1024100022F004022A43202120468DF80720FFF7EE
:1024200087FF003018BF012003B030BD10B50A4649
:102430000C462021FFF774FF20B1237803F0080336
:102440002370012010BD37B50D460DF10702202184
:102450000446FFF765FF68B19DF8072002F00F0200
:102460002A43202120468DF80720FFF761FF003026
:1024700018BF012003B030BD10B50A460C46232119
:10248000FFF74EFF20B1237803F0080323700120EB
:1024900010BD37B50D460DF1070223210446FFF7A5
:1024A0003FFF68B19DF8072022F030022A43232124
:1024B00020468DF80720FFF73BFF003018BF0120B2
:1024C00003B030BD10B50A460C462321FFF728FFA4
:1024D00020B1237803F030032370012010BD37B5FD
:1024E0000D460DF1070223210446FFF719FF68B1DD
:1024F0009DF8072002F07F022A43232120468DF811
:102500000720FFF715FF003018BF012003B030BDD2
:1025100037B50D460DF107022E210446FFF700FFE7
:1025200068B19DF8072002F03F022A432E21204681
:102530008DF80720FFF7FCFE003018BF012003B024
:1025400030BD70B506464D1C28246A1E2146304613
:10255000FFF7E6FE78B1611C2A46C9B23046FFF7A4
:10256000DFFE38B10234E4B22E2C05F10205ECD1C5
:10257000012000E070BD70BD2DE9F04385B00D462F
:102580000DF106018046FFF777FF08B9002084E0CF
:102590000DF105014046FFF749FF0028F6D09DF8F0
:1025A0000540082C06D19DF80630002BEED12646BA
:1025B00002270BE0002CE9D19DF8063023B1082B4F
:1025C000E4D10426274601E0062601270DF1070184
:1025D0004046FFF777FF0028D8D09DF80740202C11
:1025E00006D0302C06D0A4F110035C425C4102E01E
:1025F000022400E0032402A94046FFF7A2FF0028BE
:10260000C4D0274BBDF9080004EB870403EBC402D8
:1026100053F83470546830414FEAE07900FB04F31A
:1026200007FB0933A0FB070110F5FA7019444FF4BA
:102630007A724FF0000341F1000102F0B5FF28600B
:10264000BDF90A00304100FB04F34FEAE07907FBD3
:102650000933A0FB070110F5FA7019444FF47A72A0
:102660004FF0000341F1000102F09EFF6860BDF9E8
:102670000C003041C317444307FB0344A0FB070190
:1026800010F5FA7021444FF47A724FF0000341F1D3
:10269000000102F089FFA860012005B0BDE8F083C9
:1026A00090A4000008B5012300F090FAB0FA80F081
:1026B000400908BD13B502AC012304F8012D2246E0
:1026C00000F064FAB0FA80F0400902B010BD37B5EE
:1026D0000D460DF1070260210446FFF7E3FF68B1E4
:1026E0009DF8072022F003022A43602120468DF83E
:1026F0000720FFF7DFFF003018BF012003B030BD17
:1027000037B50D460DF1070260210446FFF7CAFFF9
:1027100068B19DF8072022F00C022A436021204670
:102720008DF80720FFF7C6FF003018BF012003B067
:1027300030BD37B50D460DF1070262210446FFF7A3
:10274000B1FF68B19DF8072022F002022A436221FE
:1027500020468DF80720FFF7ADFF003018BF01209D
:1027600003B030BD37B50D460DF1070262210446B6
:10277000FFF798FF68B19DF8072022F010022A4366
:10278000622120468DF80720FFF794FF003018BF24
:10279000012003B030BD70B506464D1C68246A1E8A
:1027A00021463046FFF77EFF78B1611C2A46C9B248
:1027B0003046FFF777FF38B10234E4B26E2C05F1F2
:1027C0000205ECD1012000E070BD70BD3222027123
:1027D00000220160427170471FB50C4601A9FFF746
:1027E000CBFE38B1019B2360029B6360039BA36017
:1027F000002000E0012004B010BD0000F7EE007AD8
:10280000B4EEE70AF1EE10FA08B525D9F2EE047A33
:10281000B4EEE70AF1EE10FA20D9F3EE097AB4EE3D
:10282000E70AF1EE10FA1BD9DFED137AB4EEE70AEE
:10283000F1EE10FA16D9DFED117AB4EEE70AF1EEF7
:1028400010FA11D9DFED0E7AB4EEE70AF1EE10FAC4
:1028500094BF6021702108E0102106E0202104E0EF
:10286000302102E0402100E05021FFF7ECFDB0FAFA
:1028700080F0400908BD00BF000048420000C84287
:102880000000484310B54379012B044607D090ED72
:10289000020AFFF7B3FF012802D001236371002071
:1028A00010BDF0EE007AB4EEE70AF1EE10FA08B5CA
:1028B00010D9F1EE007AB4EEE70AF1EE10FA0BD976
:1028C000F2EE007AB4EEE70AF1EE10FA94BF20219E
:1028D000302102E0002100E01021FFF7DAFDB0FA1C
:1028E00080F0400908BD000010B580210446FFF7C4
:1028F000F6FD08B9012010BD00212046FFF708FEB3
:102900000028F7D000212046FFF79DFD0028F1D0D8
:10291000B0EE000A2046FFF7C4FF0128EAD00121EB
:102920002046FFF738FD0028E4D002212046FFF7BB
:102930004BFD0028DED004212046FFF75EFD002875
:10294000D8D00020014B6071A36010BD0000C842C8
:1029500008B5C021FFF706FDB0FA80F0400908BDB8
:1029600037B504460D460DF105012046FFF7EDFC95
:1029700008B9012026E09DF80530042BF3D10DF1B4
:1029800006020D212046FFF7CBFC0028F1D001AA5A
:102990000C212046FFF7C4FC0028EAD0BDF8062031
:1029A0009DF80430DFED086A03EB02231BB207EE4B
:1029B000903AF8EEE77AB3EE097AA7EEA67A00200D
:1029C00085ED007A03B030BD0000803BF8B50D46C0
:1029D000017904464908006816461F46FEF7B5FA15
:1029E0002068036829461B6898473546AB1B9F4201
:1029F00006DD206815F8011B03681B689847F5E79A
:102A000001212068FEF7ABFA0020F8BDF8B50F46AB
:102A1000017904464908006815461E46FEF795FAF6
:102A20002068036839461B68984700212068FEF734
:102A300096FA21792068F2B24908FEF783FA013D3F
:102A4000206803689B68984730B120680368DB689A
:102A5000984705F8010FF3E7F8BD3C2201600271C9
:102A6000704708B50021FFF732FEB0FA80F0400948
:102A700008BD37B500240D4669460094ADF8044002
:102A8000FFF789FE50B1BDF800302B80BDF8023051
:102A90006B80BDF80430AB80204600E0012003B01D
:102AA00030BD13B50C466946FFF7E3FF012826D079
:102AB000BDF9003007EE103AB8EEC77AF7EE086AB3
:102AC00027EE267ABDF90230BDEEC77A002084EDEC
:102AD000007A07EE103ABDF9043007EE903AB8EEEE
:102AE000C77AF8EEE77A27EE267A67EEA67ABDEE89
:102AF000C77AFDEEE77A84ED017AC4ED027A02B07E
:102B000010BD0000F2EE047AB4EEE70AF1EE10FA1E
:102B100008B510D9F3EE047AB4EEE70AF1EE10FA34
:102B20000BD9DFED097AB4EEE70AF1EE10FA94BFA3
:102B300008210C2102E0002100E00421FFF7E0FD64
:102B4000B0FA80F0400908BD0000484210B50221EB
:102B50000446FFF7BCFD08B9012010BD1021204636
:102B6000FFF700FE0028F7D09FED070A2046FFF789
:102B7000C9FF0128F0D000212046FFF7DAFDB0FAA6
:102B800080F0400910BD00BF0000C842F8B50D46F6
:102B9000017904464908006816461F46FEF7D5F934
:102BA0002068036829461B6898473546AB1B9F423F
:102BB00006DD206815F8011B03681B689847F5E7D8
:102BC00001212068FEF7CBF90020F8BDF8B50F46CB
:102BD000017904464908006815461E46FEF7B5F916
:102BE0002068036839461B68984700212068FEF773
:102BF000B6F921792068F2B24908FEF7A3F9013D40
:102C0000206803689B68984730B120680368DB68D8
:102C1000984705F8010FF3E7F8BD00000000000039
:102C20002DE9F0432DED068BB0EE40AAF0EE60AA40
:102C3000B0EE419AF0EE619AB54C8BB000F094F989
:102C400094F90030B0EE408AF0EE608A013306D08D
:102C5000B0EE490AF0EE690A00F0EEFF40B9B0EEBE
:102C6000480AF0EE680A0BB0BDEC068BBDE8F083B5
:102C7000B0EE4A0AF0EE6A0A00F0DEFF054648BBF5
:102C80000022002351EC190B02F014FC0028E6D0BE
:102C9000A04A94F9003008959FED9B0B01218DE827
:102CA00006005A1C8DED02AB8DED049B8DED060BDD
:102CB000D9D0022BD7D0684600F0ECFF002800F0F6
:102CC0009480089B1BB102F06DFE089B03609DED94
:102CD000060BC8E70026002751EC1A0B32463B468C
:102CE00002F0E8FBD8B132463B4651EC190B02F03A
:102CF000E1FB054600284FD0864A94F90030019246
:102D0000012100228DED02AB8DED049BCDE906671C
:102D100000910892002BCED09FED7B0BA3E7B0EE85
:102D2000480AF0EE680A00F07FFF0546002861D0EF
:102D30000026002751EC180B32463B4602F0BAFB46
:102D400000288CD0B0EE4A0AF0EE6A0A00F06CFF60
:102D5000002884D0B0EE490AF0EE690A00F064FF62
:102D600000283FF47CAF94F900306A4A01920421B4
:102D70000022022B8DED02AB8DED049BCDE90667A1
:102D8000009108926BD0684600F084FF002866D05E
:102D9000089B002B9BD096E7B0EE490AF0EE690A3B
:102DA00000F042FF00283FF45AAF32463B4651EC58
:102DB000190B02F089FB00283FF451AF554A2378E4
:102DC000089501218DED02AB8DED049B8DE8060089
:102DD000002B41D050490020022BCDE9060135D10E
:102DE00002F0E0FD21230360D2E702F0DBFD2123A6
:102DF000036066E7B0EE4A0AF0EE6A0A00F014FFDC
:102E0000002895D0B0EE490AF0EE690A00F00CFFF8
:102E100000288DD0B0EE480AF0EE680A00F00CFFF2
:102E200010BB3C4B2478089001228DED02AB8DED58
:102E3000049B8DE80C007CB132463B463046394657
:102E400002F0FAF9022CCDE90601C9D0684600F07B
:102E500021FF00289CD1C3E7CDE90667F6E702F021
:102E6000A1FD2223036093E72A4A94F900300895D4
:102E700003218DED02AB8DED049B8DE80600BBB9FF
:102E8000DFF8A0904FF0604832463B4651EC1A0BF9
:102E9000CDE9068902F018FBE0B9684600F0FAFEB9
:102EA00000287FF40EAF02F07DFD2223036008E7C7
:102EB000DFF874904FF0000832463B4651EC1A0B95
:102EC000CDE9068902F000FB80BB94F90030022BAB
:102ED000E3D1E8E70022114B51EC190B02F082F824
:102EE00006460F4647EC106B00F0DEFE304653EC12
:102EF000102B394602F0DEFA0028E6D1084B4FF0DD
:102F00006042CDE90623E0E7000000000000F03F4A
:102F1000540000207CA500000000F0FF0000E03F0E
:102F2000FFFFEFC7FFFFEF470000F07F00220C4BD1
:102F300051EC190B02F056F806460F4647EC106BA1
:102F400000F0B2FE304653EC102B394602F0B2FAD4
:102F50000028BAD1034B0022CDE90623B5E700BF14
:102F60000000E03F0000F0FF2DE9F04F51EC110BA5
:102F700021F0004858EA000493B03CD053EC102BE9
:102F80006D4E23F00044B44210EE10AA1D462BDC17
:102F9000894611EE10EA26D0B04525DC664EB045D4
:102FA00077D0002D16461F46CDE9000175DB4FF0A6
:102FB000000BBEF1000F2DD15F4B984500F08980CA
:102FC0005E4B98455ED0B9F1804F00F0DE835C4BDC
:102FD00099451FD1002D1DDB47EC106B13B0BDE8E8
:102FE000F04F00F049BD5AB104F1404404F580149B
:102FF00054EA0A0306D19FED4A0B13B0BDE8F08FE7
:10300000A045CBDD4F4813B0BDE8F04F00F044BE03
:103010004FF0000B47EC106B00F0FEFD51EC100B75
:10302000BAF1000F1ED0ED0F05F1FF3A5BEA0A037B
:1030300063D0454B984540F38D8003F10473984568
:1030400040F33884414B9C4262DDB9F1000F62DDF0
:1030500035A3D3E900231046194601F0C3FF41EC24
:10306000100BCAE724B1354B25F040429A42DAD121
:10307000B9F1000FC0F2CB83002DC0F2748341EC94
:10308000100BBAE7B9F1000FC0F27A8447EC106B6D
:10309000B3E7BEF1000F84D0A6E72D4B984529DC9D
:1030A000A3F15473984582DD4FEA2853A3F2FF330E
:1030B000142B40F37F84C3F134032EFA03F202FA97
:1030C00003F39E457FF473AF02F00102C2F1020BDD
:1030D0006FE704F1404303F5801353EA0A038AD0F3
:1030E0001A4B9C4240F38583B9F1000F13DB9DED31
:1030F000000B82E74FF0020B5BE732463B4610467F
:10310000194601F0BBFD02460B4602F095F8B6E702
:10311000B9F1000F9CDB9FED060B6EE7AFF300806B
:10312000000000000000F03F9C7500883CE4377E02
:1031300000000000000000000000F07F0000F03FF1
:103140000000E03F80A500000000E041FFFFEF3FEE
:10315000FFFF3F43B4F5801F4FF0000205DAD64B66
:1031600001F040FF6FF034020C462315D34EC4F338
:103170001304A3F2FF33134444F07F55B4421A46BC
:103180000D9345F4401540F34983CD4B9C4240F3E9
:103190002D849FEDB37B8DED087B8DED0E7B9FED38
:1031A000B27B13468DED067B01330D93A5F580159B
:1031B0004FF00008DDE906232946CDE90A0101F0B8
:1031C0005DFDDDE9062306460F46DDE90A0101F053
:1031D00057FD02460B460020BA4902F02DF803467F
:1031E0000C46CDE9103402460B463046394601F014
:1031F000F9FE6B1043F0005303F5002303EB0805C1
:103200000A4600230146CDE902120293DDE9028954
:103210000024CDE904122B4622464046494601F0DF
:10322000E1FE02460B463046394601F027FDDDE956
:10323000062306460F462046294601F01FFD02469A
:103240000B46DDE90A0101F019FD42464B4601F04B
:10325000C9FE02460B463046394601F00FFDDDE956
:10326000102301F0BFFEDDE90445CDE90601224649
:103270002B462046294601F0B5FE7DA3D3E9002365
:1032800004460D4601F0AEFE7BA3D3E9002301F016
:10329000F7FC22462B4601F0A5FE79A3D3E90023D3
:1032A00001F0EEFC22462B4601F09CFE76A3D3E90A
:1032B000002301F0E5FC22462B4601F093FE74A3A7
:1032C000D3E9002301F0DCFC22462B4601F08AFE04
:1032D00071A3D3E9002301F0D3FC224606460F4632
:1032E0002B462046294601F07DFE02460B4630461D
:1032F000394601F077FE424604460D464B46DDE96D
:10330000040101F0BDFCDDE9062301F06BFE22465D
:103310002B4601F0B5FC424606460F464B4640465A
:10332000494601F05FFE0022674BCDE90A0101F03A
:10333000A7FC32463B4601F0A3FC02980D4604462A
:1033400022462B464046494601F04CFE002280466C
:1033500089465D4B2046294601F090FCDDE90A23B1
:1033600001F08CFC02460B463046394601F086FCE3
:10337000DDE9042301F036FE224606460F462B46C1
:10338000DDE9060101F02EFE02460B4630463946C5
:1033900001F076FC06460F4602460B46404649467B
:1033A000CDE9048901F06CFC02983DA3D3E9002328
:1033B00004460D4601F016FEDDE9042380468946E9
:1033C0002046294601F05AFC02460B463046394653
:1033D00001F054FC34A3D3E9002301F003FE34A32D
:1033E000D3E9002306460F462046294601F0FAFDA0
:1033F00002460B463046394601F042FCDDE90E2319
:1034000001F03EFC06460D980F4601F085FD324660
:1034100004460D463B464046494601F031FCDDE995
:10342000082301F02DFC22462B4601F029FC0298CE
:1034300022462B46CDE9020101F020FCDDE90823FC
:1034400001F01CFC42464B4601F018FC02460B46BC
:103450003046394601F012FC8046894636E000BF0E
:103460000000000000000000000000000000F03F2D
:10347000EF4E454A287ECA3F65DBC9934A86CD3F59
:1034800001411DA96074D13F4D268F515555D53F3F
:10349000FFAB6FDBB66DDB3F033333333333E33FD7
:1034A000000000E009C7EE3FFD033ADC09C7EE3F2C
:1034B000F5015B14E02F3EBE000040438E980300F0
:1034C00079B60B000000F03F000008400BF1FF331D
:1034D00053EA0A0300F088819FEDD77B8DED067BD0
:1034E000DDE900AB53465C46CDE900340023009390
:1034F000DDE90045504622462B46594601F0BEFB09
:10350000DDE9022301F06EFD524606460F465B469A
:103510004046494601F066FD02460B4630463946B4
:1035200001F0AEFB2246804689462B46DDE90201CA
:10353000CDE9048901F056FD0B46024606460F46CA
:103540004046494601F09CFBD54B994204460D4646
:103550008A4640F3238101F13F4303F5E00303432F
:1035600040F01882B6A3D3E90023DDE9040101F09D
:1035700087FB3246804689463B462046294601F075
:103580007DFB02460B464046494601F0BBFF002842
:1035900040F00082A8464FEA28534FF48012A3F26D
:1035A000FE3342FA03F35344C3F30A52BD4DA2F271
:1035B000FF321541C3F3130B0020C2F1140423EAB8
:1035C00005014BF4801BBAF1000F02460B464BFA83
:1035D00004FB30463946B8BFCBF1000B01F04EFB7F
:1035E00002460B4606460F46DDE9040101F048FBA2
:1035F0004FEA0B5A002494A3D3E9002320460D463A
:1036000001F0F0FC3246804689463B46204629467A
:1036100001F034FB02460B46DDE9040101F02EFB0C
:103620008BA3D3E9002301F0DDFC8BA3D3E90023B6
:1036300006460F462046294601F0D4FC02460B46BA
:103640003046394601F01CFB06460F4602460B4643
:103650004046494601F014FB42464B4604460D469F
:1036600001F00CFB02460B463046394601F006FBE2
:103670002246804689462B462046294601F0B2FC68
:1036800077A3D3E9002306460F4601F0ABFC76A3EF
:10369000D3E9002301F0F2FA32463B4601F0A2FCE6
:1036A00073A3D3E9002301F0EBFA32463B4601F065
:1036B00099FC71A3D3E9002301F0E0FA32463B46BE
:1036C00001F090FC6EA3D3E9002301F0D9FA324651
:1036D0003B4601F087FC02460B462046294601F096
:1036E000CDFA06460F4602460B462046294601F013
:1036F00079FC0022CDE900014FF080433046394685
:1037000001F0BCFA02460B46DDE9000101F094FD30
:10371000424606460F464B462046294601F062FCCB
:1037200042464B4601F0ACFA02460B46304639465B
:1037300001F0A4FA22462B4601F0A0FA02460B46FD
:103740000020594901F09AFA8A44BAF5801F0246CE
:103750000B46C0F25B815146DDE9062301F042FCD5
:1037600041EC100B49E404F1404404F5801454EAA0
:103770000B0300F03781BBF1010F7FF480AC0246F0
:1037800001F1004343EC102B37E432463B46304610
:10379000394601F027FC41EC100B2EE4434B21F09D
:1037A0000048984540F31581414B0B4403430CD12D
:1037B00032463B4601F062FA02460B46DDE904015F
:1037C00001F08CFE00283FF4E6AE2FA3D3E90023DE
:1037D000DDE9060101F006FC2BA3D3E9002301F08B
:1037E00001FC41EC100B08E49FED297B8DED067B7D
:1037F00076E6B9F1000FBFF68EACDDE9003400EEDD
:10380000103A04F1004300EE903AFFF7F6BB02468F
:103810000B460020244901F00FFD2DE49FED1E7B97
:103820008DED087B8DED0E7B9FED037B4FF0000847
:103830008DED067BBEE400BF000000000000F03FFD
:10384000FE822B654715973C00000000432EE63FA3
:10385000EF39FAFE422EE63F396CA80C615C20BEBF
:10386000D0A4BE726937663EF16BD2C541BDBB3E86
:103870002CDE25AF6A56113F93BDBE166CC1663F64
:103880003E5555555555C53F59F3F8C21F6EA50114
:10389000000000000000F0BF000000000000000079
:1038A000FFFF8F40FFFF0F000000F03FFFCB904075
:1038B00000346F3F6C4B9C427FF72AAC6B4B9C42B1
:1038C0003FF7C3AB0022694B01F0D8F956A3D3E907
:1038D000002304460D4601F085FB55A3D3E90023E0
:1038E000804689462046294601F07CFB0022CDE92E
:1038F00002015F4B2046294601F074FB02460B464D
:103900004DA1D1E9000101F0B9F922462B4601F0A1
:1039100069FB02460B460020564901F0AFF92246EA
:103920002B4606460F462046294601F05BFB024621
:103930000B463046394601F055FB41A3D3E900233D
:1039400001F050FB02460B46DDE9020101F096F959
:1039500002460B4604460D464046494601F090F9A2
:1039600042464B460020CDE9020101F087F90246AC
:103970000B462046294601F081F980468946A5E597
:1039800032463B460020394901F056FC41EC100B11
:10399000FFF733BB2CA3D3E90023DDE9060101F0D7
:1039A00021FB29A3D3E9002301F01CFB41EC100B00
:1039B000FFF723BBBEF1000F7FF42AABC3F1140362
:1039C00048FA03F202FA03F3984527D0F346FFF7CB
:1039D000F7BA284B98453FF7DEADDDE900349A464B
:1039E0009B4607E602460B46FFF789BB9FED187B17
:1039F0008DED087B9FED187B8DED0E7B9FED187B89
:103A00004FF480288DED067BFFF7D4BB584643EC7E
:103A1000102B00F0DDF951EC100B9DE602F00102D5
:103A2000C2F1020BFFF7CCBA000000604715F73F68
:103A300044DF5DF80BAE543E555555555555D53FB1
:103A4000FE822B654715F73F9C7500883CE4377E66
:103A50000000004003B8E23F06D0CF43EBFD4C3EF0
:103A6000000000000000F83FFEFFEF3F0000F03FC5
:103A70000000D03F0000E03F2DE9F041654955ECE2
:103A8000104B0E462940B14200F09780002D2B4686
:103A900010EE102A74DD2F157FD0A7F2FF37C3F385
:103AA0001303F90743F4801365D403EBD2710026A6
:103AB0000B447F105200B64616204FF400110EEB57
:103AC00001049C424FEAD2754FEA420203DC1B1B01
:103AD00004EB010E0E44013805EB43034FEA51019C
:103AE000EDD1844620244FF0004109E020D003EBC3
:103AF000D275013C4FEA51012B444FEA420220D0DB
:103B00009E4501EB0C05F1DA002D05EB010C09DBFC
:103B1000F0469542CEEB030300D9013B521B08440B
:103B2000C646E4E7BCF1000FF2DB0EF10108F0E756
:103B300095421ED8002D05EB010C50DB9846002362
:103B4000ECE7134304D0421C4DD000F001031844AD
:103B500040087110F30701F17F5101F5001148BFD2
:103B600040F0004001EB0753024643EC102BBDE848
:103B7000F0817346BBE75B0003EBD273520094E71E
:103B800025F00041214328D0ADBB2F46D30A153F75
:103B90005205002BFAD0DD0228D4002100E00146B6
:103BA0005B00DC0201F10100F9D5C0F1200422FA2A
:103BB00004F423437F1A82406FE710EE102A2B464D
:103BC00010EE100A294601F00DFA22462B4601F0AC
:103BD00057F841EC100BBDE8F081BDE8F081BCF175
:103BE000000FABDBA1E701362046B2E720244FF0FF
:103BF000FF310020DBE710EE102A2B462046294635
:103C000001F03CF802460B4601F016FB41EC100BAC
:103C1000BDE8F0810000F07F53EC102B23F000434F
:103C200043EC102B704700BF10EE903A43F0004079
:103C300000F58010C00F704753EC102B33F000419B
:103C400010B408D01148A3F58014844208D8042089
:103C50005DF8044B70471AB902205DF8044B7047B9
:103C600003F1FF43094803F5E0038342EFD9B1F5BF
:103C7000801F01D20320EBE7054B994201D00020C1
:103C8000E6E7B2FA82F04009E2E700BFFFFFDF7F1C
:103C90000000F07F002070479FED010B704700BFD0
:103CA000000000000000F87FF0B553EC102BC3F3C8
:103CB0000A56A6F2FF30132883B019464FEAD37490
:103CC00010EE105A2FDC002849DB3F4E064103EA74
:103CD000060717432CD0760833401D430CD04FF411
:103CE0008023132821EA060643FA00F141EA06017F
:103CF0000CBF4FF000450025344800EBC4042A46B1
:103D0000D4E9004510462B46224600F0B9FFCDE924
:103D1000000122462B46DDE9000100F0AFFF41EC37
:103D2000100B03B0F0BD332806DDB0F5806F42D034
:103D300043EC102B03B0F0BDA6F213464FF0FF305A
:103D4000F0400242F4D040080242D5D04FF0804308
:103D500025EA000043FA06F646EA0005CCE723F020
:103D60000040104310EE107AE2D0C3F31300074373
:103D7000784207431548590C3F0B490407F40027C4
:103D800000EBC40047EA0103D0E90067194610467A
:103D90003B46324600F074FFCDE900013B46324617
:103DA000DDE9000100F06AFF21F0004343EAC4713D
:103DB00041EC100BBEE710EE100A194600F060FF50
:103DC00041EC100BB6E700BFFFFF0F0088A5000015
:103DD00053EC102B70B5C3F30A541946054614BBB7
:103DE00023F0004111432AD019460022384B394EA6
:103DF00010EE100A01F0F6F8B54202460B461FDB42
:103E0000C1F30A54363C2C4440F2FE7084421FDC5D
:103E1000002C2DDD21F0FF4121F4E00141EA0453A3
:103E200043EC102B70BD40F2FF708442EBD110EEDA
:103E3000100A194600F024FF41EC100B70BD70BD54
:103E40001FA3D3E9002301F0CDF841EC100B70BDA6
:103E500043EC112B9FED1C0B00F040F81AA3D3E9A3
:103E6000002351EC100B01F0BDF841EC100B70BDBC
:103E700014F1350F13DA4CF250318D4243EC112B13
:103E8000E8DC9FED0F0B00F029F80DA3D3E9002328
:103E900051EC100B01F0A6F841EC100B70BD21F0B5
:103EA000FF4121F4E001363441EA0453104619463B
:103EB0000022094B01F096F841EC100B70BD00BFD9
:103EC00059F3F8C21F6EA5019C7500883CE4377E4B
:103ED00000005043B03CFFFF0000903C53EC102B1F
:103EE00011EE900A23F0004100F0004041EA000387
:103EF00043EC102B704700BF0649074A074B9B1A3B
:103F000003DD043BC858D050FBDC00F013F8FCF78D
:103F1000C9F9000040A90000000000203401002081
:103F2000FEE7FEE7FEE7FEE7FEE7FEE7FEE7FEE769
:103F3000FEE7FEE73A4B1A680D2A1FD01B680D2BCF
:103F400026D0374B1B680D2B09D14FF08043D3F897
:103F50000024D20703D56FF00102C3F80024314AD0
:103F6000D2F8883043F47003C2F88830BFF34F8F23
:103F7000BFF36F8F2C4B2D4A1A6070474FF0804271
:103F80000021C2F80C11C2F81011C2F83815D5E79B
:103F90004FF08052264BD2F80414C3F82015D2F803
:103FA0000814C3F82415D2F80C14C3F82815D2F855
:103FB0001014C3F82C15D2F81414C3F83015D2F825
:103FC0001814C3F83415D2F81C14C3F84015D2F8ED
:103FD0002014C3F84415D2F82414C3F84815D2F8B5
:103FE0002814C3F84C15D2F82C14C3F85015D2F885
:103FF0003014C3F85415D2F83414C3F86015D2F84D
:104000003814C3F86415D2F83C14C3F86815D2F814
:104010004014C3F86C15D2F84424C3F8702590E717
:104020003001001000ED00E0580000200090D003A7
:1040300000C00040094B1968094B30B5D3F804059E
:104040000A060B0A02434FF47A71A2FB014501FBF9
:104050000355E00B40EA454030BD00BF940300200B
:104060000010014038B5044648B1FFF7E3FF0546AC
:1040700000F01AF8FFF7DEFF401B8442F8D838BD85
:10408000074B0022C3F8042182B0D3F80431054A5B
:104090000193019B13680133DBB2136002B07047D8
:1040A000001001409403002070470000222837B51B
:1040B00000F293804A4B53F82030052B19D007D8D3
:1040C000032B12D013D8022B40F08780012215E079
:1040D0001D2B10D003D81C2B7FD105220EE01E2BE8
:1040E0000BD01F2B79D1082208E0022206E0032220
:1040F00004E0042202E0062200E00722394B19689E
:10410000082908DD0A2909DD0D29B5BF0C240E2474
:104110000223032304E00824002301E00A240123EE
:104120003148C0F8F0350123C0F8003500200546BD
:10413000030103F1804303F5E04301300828C3F88D
:104140001455C3F81055F3D1284B1868284B1B6839
:1041500000021B0303F4805300F4E0601843224B79
:10416000C3F81805C3F81425C3F810250DF106028D
:10417000C3F82C260122C3F830261A60D3F80001B8
:10418000194A0028FAD00023C2F8003101235360F5
:10419000D2F80401144B0028FAD00022C3F80421FD
:1041A00001229A60D3F81421002AFBD00E4A002382
:1041B000C2F81431BDF906209A420B4AB8BFADF8D7
:1041C00006308C42C2F80035BDF9060006D08BBF20
:1041D000611A091BC840884000E0002003B030BDD0
:1041E000F0A4000074000020007000407000002067
:1041F000A0030020222830B541D8214B214C53F890
:104200002000002254F822305D1C33D11D4B1E4C7F
:1042100043F822001D4D1E4B246853F822306FEAEC
:1042200041416FEA514125F81210012101FA04F4CD
:10423000C3F86005013CC3F8640505EB4202C3F80E
:104240006805C3F86C050020C3F80015C3F80C0519
:10425000C3F80405C3F80845C3F81405C3F81005EE
:10426000C3F82025C3F82415C3F82815C3F82C0576
:10427000996030BD9842C9D00132042AC2D130BD04
:10428000F0A400005C0000206C00002098030020D7
:1042900098A50000222821D8114B124A53F820304B
:1042A00013F0200F08BF4FF0A04203F01F030329B3
:1042B00014D8DFE801F0020E060A03F5E0730021CE
:1042C0000AE003F5E0730C2106E003F5E073042136
:1042D00002E003F5E073032142F82310704700BFAA
:1042E000F0A4000000030050222813D80A4B53F812
:1042F00020200A4B12F0200F02F01F004FF00102A5
:1043000008BF4FF0A043824011B9C3F80C25704795
:10431000C3F80825704700BFF0A400000003005058
:10432000222811D8094B53F82000094B10F0200F18
:1043300008BF4FF0A04300F01F00D3F8103523FA58
:1043400000F000F00100704700207047F0A400006A
:10435000000300502DE9F04106460D4601EB02082E
:104360000C464445A4EB050707D0336814F8011B3D
:104370001B68304698470028F3D13846BDE8F081E5
:1043800070B505460C46084649B102F0E5F92B68C0
:104390000246214628465B68BDE87040184770BD5C
:1043A00003688A685B680968184708B5FFF7E8FF83
:1043B00008BD03681B68184708B50249FFF7E0FF0E
:1043C00008BD00BFA8A5000038B50546FFF7E8FF07
:1043D00004462846FFF7F0FF204438BD38B50546AF
:1043E000FFF7CEFF04462846FFF7E6FF204438BD1E
:1043F000F0B58BB000238DF82430012A98BF0A2233
:104400000DF12305B1FBF2F402FB1416F3B2092EF1
:1044100094BF30333733DBB22F46214605F80139DC
:10442000002CEFD13946FFF7ABFF0BB0F0BD10B455
:104430002AB903685DF8044B1B68C9B21847D2B2A9
:104440005DF8044BFFF7D4BF38B50546FFF7EFFF23
:1044500004462846FFF7B0FF204438BD2DE9F0415F
:1044600007460E4615462AB90368C9B21B68BDE85F
:10447000F04118470A2A02D1002901DA04E0D2B239
:10448000BDE8F041FFF7B4BF2D21FFF792FF2A46A8
:10449000044671423846FFF7ABFF2044BDE8F08187
:1044A000FFF7DCBF38B50546FFF7D8FF04462846BE
:1044B000FFF782FF204438BD38B50546FFF7CEFF31
:1044C00004462846FFF778FF204438BD2DE9F8431D
:1044D000804657EC106B0D46FFF7AEFB08B942491A
:1044E00010E047EC106BFFF7A7FB012801D13F4913
:1044F00008E04FF060423E4B3046394601F002F88A
:1045000028B13C494046FFF73BFFBDE8F8834FF038
:104510006042394B3046394600F0D6FF0028F0D1D2
:10452000002200233046394600F0CEFF40B12D2155
:104530004046FFF73EFF07F1004304461F4600E0F8
:1045400004462E494FF0000900205FFA89F39D428E
:1045500006D900222A4B00F06FFE09F10109F4E7A9
:1045600032463B4600F08CFB0F46064600F0FCFF4F
:104570000A22014681464046FFF73AFF04447DB3D4
:10458000484600F0B9FC02460B463046394600F07A
:1045900075FB06460F4640461A49FFF7F1FE0444F4
:1045A000174B00223046394600F01CFD0F460646E8
:1045B00000F0B2FF0A22014681464046FFF74EFF57
:1045C0000444484600F0A8FC02460B4630463946F3
:1045D00000F054FB013D15F0FF0506460F46DFD104
:1045E0002046BDE8F88300BFABA50000AFA50000E2
:1045F000FFFFEF41B3A50000FFFFEFC10000E03F68
:104600000000244081A4000038B5C9B20546FFF778
:104610005DFF04462846FFF7CFFE204438BD10B5A5
:1046200040220446002101F02AFA00232364636437
:10463000204610BD026C10B5531C446C03F03F03C0
:104640009C421CBF8154036410BD00230364436477
:104650007047436C026C93421FBFC25C013303F08E
:104660003F03436414BF10464FF0FF307047036CA4
:10467000406C181A48BF40307047436C026C93423C
:1046800014BFC05C4FF0FF307047036C406C0133C7
:1046900003F03F031B1A58425841704710B50446B7
:1046A000FFF7C8FCE06023682046DB6898470028D5
:1046B00008DAFFF7BFFCE368C01AA3689842F2D398
:1046C0004FF0FF3010BD81607047000038B50D46D7
:1046D0000749044600F0AAF92846FFF7DFFF002843
:1046E00004DBC1B2204600F019FAF5E7204638BDD8
:1046F000AAA500000120704703681322DB69184750
:1047000070470369C3F81C15D3F81C21002AFBD09D
:104710000022C3F81C2101207047000090F85C3093
:104720005AB2520910B4012120320F4C03F01F037A
:1047300001FA03F344F8223003695DF8044B0422C4
:10474000C3F8082300225960D960C3F800254FF050
:10475000FF32C3F80C251430C3F81425C3F808251C
:10476000C3F81025FFF771BF00E100E01430FFF738
:104770007EBF1430FFF781BF1430FFF76ABF00001F
:10478000026990F85E3030B5C2F80C3590F85D30B3
:10479000C2F8143590F86130012B01BF90F85F40EA
:1047A000C2F8104590F86040C2F8084518BF0023D1
:1047B000B1F5966FC2F86C352ED9B1F5166F2ED9BA
:1047C000B1F5965F2ED9B1F5165F2DD9B1F5615FC0
:1047D0002CD9B1F5964F2BD9B1F5E14F2AD9B1F5C6
:1047E000164F29D9B1F5614F29D9B1F5963F29D98D
:1047F000B1F5E13F28D9B1F5613F28D9344B994251
:1048000028D9B1F5E12F28D9B1F5612F8CBF4FF030
:1048100080534FF0706322E04FF49E231FE04FF46B
:104820001D231CE02B4B1AE02B4B18E02B4B16E002
:104830002B4B14E02B4B12E04FF41D030FE04FF411
:104840006B030CE0284B0AE04FF0EB7307E04FF0EE
:104850006C7304E04FF0806301E04FF0E863C2F84E
:10486000243500210423C2F80035C2F80811C2F82B
:104870001C11012111609160C2F8043390F85C2092
:1048800053B2D2B202F01F055C09A9406034174D43
:10489000002B45F8241006DA154B02F00F021344E2
:1048A00060221A7606E003F1604303F5614360225B
:1048B00083F8002390F85C3001215AB203F01F0303
:1048C00001FA03F35209094941F8223030BD00BF13
:1048D00090D0030000B013000050270000F03A0011
:1048E00000A04E0000C0750000903A0100E100E019
:1048F000FCEC00E02DE9F0411E464FF47A730025F0
:1049000083600E4B4560044640F8143B17468846CA
:10491000FFF785FE0A4AC4F8108052F8263084F862
:104920005D309DF8183084F85C7052F8233084F8BC
:104930005E3084F861502046BDE8F081C0A50000DB
:10494000F0A400000369D3F8082110B504464AB169
:10495000D3F818151430C9B2FFF76CFE2369002292
:10496000C3F8082110BD00000148FFF7EBBF00BFEE
:10497000A403002007B52223009302222123034928
:104980000348FFF7B7FF03B05DF804FB00200040C9
:10499000A403002010B5029C401AE41A6043521A86
:1049A00090FBF2F0184410BD10B50446006801F009
:1049B00053F8204610BD10B50446006808B101F058
:1049C0004BF800232360A360636010BD38B5044634
:1049D0000D460068013101F095FE10B184E8210018
:1049E000012038BD036810B5044613B143688B42FB
:1049F00007D22046FFF7EAFF20B1A3680BB922686F
:104A00001370012010BD70B50E46114604461546C0
:104A1000FFF7E8FF18B92046FFF7CDFF04E0A560D7
:104A20003146206801F090FE204670BD38B5002365
:104A300004460360436083600D4639B1084601F0C7
:104A40008BFE294602462046FFF7DDFF204638BD93
:104A500038B5054600680C4660B16A688B689A42B2
:104A600006D3096801F070FEA368AB6000230AE07A
:104A700000F0F2FF23682B6063686B60A368AB6093
:104A8000002323606360A36038BD884210B50B46E5
:104A9000044607D0096819B19A68FFF7B4FF01E02E
:104AA000FFF789FF204610BD10B5002304460360C0
:104AB00043608360FFF7E9FF204610BD884210B5D0
:104AC000044601D0FFF7C4FF204610BD38B50546A7
:104AD0000C4641B1084601F03FFE214602462846F9
:104AE000FFF791FF01E0FFF766FF284638BD70B57C
:104AF00004460E4609B9002070BD6AB18368D51816
:104B00002946FFF76FFF0028F5D02068A3683146DB
:104B1000184401F019FEA560012070BD07B50023FF
:104B20008DF80410012201A98DF80530FFF7DFFF91
:104B300003B05DF804FB10B50446FFF7EFFF10B9B2
:104B40002046FFF738FF204610BD826808B50B46A7
:104B500012B919B9012008BD11B90368187802E02B
:104B6000006801F0E7FDB0FA80F0400908BD8368F5
:104B70008B4203D9006810B1405C70470020704739
:104B8000FFF7F5BF70B50E469AB191B185689D42A9
:104B900002D800230B7070BD541EED1A0168AC42A0
:104BA00028BF2C4619442246304601F0F2FD00236E
:104BB000335570BD2DE9F0419A420E461C4610490E
:104BC00088BF13461546074684BF25461C46FFF797
:104BD0002DFFB1688D420FD28C4228BF0C4633683E
:104BE000002213F804801A55316838462944FFF72B
:104BF0006DFF336803F804803846BDE8F08100BFDC
:104C0000AAA50000FEE7704708B500F015F8FFF709
:104C1000FAFF0120FFF726FAFBF718FC034CFBF71D
:104C20007FFC002CFBD0AFF30080F8E70000000011
:104C300000F00ABF00F010BF0D4BE02283F81123F3
:104C40004FF40032C3F880211A604FF080430222F3
:104C50000121C3F81825996003F588330020C3F8B3
:104C60000805C3F80423C3F844231960704700BF44
:104C700000E100E081F0004102E000BF83F000436A
:104C800030B54FEA41044FEA430594EA050F08BFE7
:104C900090EA020F1FBF54EA000C55EA020C7FEAAB
:104CA000645C7FEA655C00F0E2804FEA5454D4EB28
:104CB0005555B8BF6D420CDD2C4480EA020281EAF2
:104CC000030382EA000083EA010180EA020281EA2A
:104CD0000303362D88BF30BD11F0004F4FEA01317C
:104CE0004FF4801C4CEA113102D0404261EB41018B
:104CF00013F0004F4FEA03334CEA133302D0524211
:104D000063EB430394EA050F00F0A780A4F10104CC
:104D1000D5F1200E0DDB02FA0EFC22FA05F2801806
:104D200041F1000103FA0EF2801843FA05F35941EC
:104D30000EE0A5F120050EF1200E012A03FA0EFC6B
:104D400028BF4CF0020C43FA05F3C01851EBE37195
:104D500001F0004507D54FF0000EDCF1000C7EEBB2
:104D600000006EEB0101B1F5801F1BD3B1F5001FF0
:104D70000CD349085FEA30004FEA3C0C04F101040F
:104D80004FEA445212F5800F80F09A80BCF1004F38
:104D900008BF5FEA500C50F1000041EB045141EABA
:104DA000050130BD5FEA4C0C404141EB010111F4BB
:104DB000801FA4F10104E9D191F0000F04BF014666
:104DC0000020B1FA81F308BF2033A3F10B03B3F144
:104DD00020020CDA0C3208DD02F1140CC2F10C02D4
:104DE00001FA0CF021FA02F10CE002F11402D8BF32
:104DF000C2F1200C01FA02F120FA0CFCDCBF41EAFE
:104E00000C019040E41AA2BF01EB0451294330BDCC
:104E10006FEA04041F3C1CDA0C340EDC04F11404A9
:104E2000C4F1200220FA04F001FA02F340EA030080
:104E300021FA04F345EA030130BDC4F10C04C4F1C6
:104E4000200220FA02F001FA04F340EA03002946A6
:104E500030BD21FA04F0294630BD94F0000F83F4F0
:104E6000801306BF81F480110134013D4EE77FEAD3
:104E7000645C18BF7FEA655C29D094EA050F08BF1F
:104E800090EA020F05D054EA000C04BF1946104600
:104E900030BD91EA030F1EBF0021002030BD5FEA44
:104EA000545C05D14000494128BF41F0004130BD6C
:104EB00014F580043CBF01F5801130BD01F00045C0
:104EC00045F0FE4141F470014FF0000030BD7FEA33
:104ED000645C1ABF194610467FEA655C1CBF0B462E
:104EE000024650EA013406BF52EA033591EA030F45
:104EF00041F4002130BD00BF90F0000F04BF00213D
:104F0000704730B54FF4806404F132044FF000056F
:104F10004FF0000150E700BF90F0000F04BF0021E8
:104F2000704730B54FF4806404F1320410F000454E
:104F300048BF40424FF000013EE700BF42004FEA49
:104F4000E2014FEA31014FEA02701FBF12F07F43C6
:104F500093F07F4F81F06051704792F0000F14BFC3
:104F600093F07F4F704730B54FF4607401F0004507
:104F700021F0004120E700BF50EA010208BF70475E
:104F800030B54FF000050AE050EA010208BF704753
:104F900030B511F0004502D5404261EB41014FF4BC
:104FA000806404F132045FEA915C3FF4DCAE4FF0C0
:104FB00003025FEADC0C18BF03325FEADC0C18BFA7
:104FC000033202EBDC02C2F1200300FA03FC20FAF8
:104FD00002F001FA03FE40EA0E0021FA02F1144445
:104FE000C1E600BF70B54FF0FF0C4CF4E06C1CEA5A
:104FF00011541DBF1CEA135594EA0C0F95EA0C0FCF
:1050000000F0DEF82C4481EA030621EA4C5123EA41
:105010004C5350EA013518BF52EA033541F4801170
:1050200043F4801338D0A0FB02CE4FF00005E1FB23
:1050300002E506F00042E0FB03E54FF00006E1FB6D
:1050400003569CF0000F18BF4EF0010EA4F1FF04B0
:10505000B6F5007F64F5407404D25FEA4E0E6D41F0
:1050600046EB060642EAC62141EA55514FEAC52001
:1050700040EA5E504FEACE2EB4F1FD0C88BFBCF57D
:10508000E06F1ED8BEF1004F08BF5FEA500E50F12E
:10509000000041EB045170BD06F0004646EA0101F4
:1050A00040EA020081EA0301B4EB5C04C2BFD4EB26
:1050B0000C0541EA045170BD41F480114FF0000E1F
:1050C000013C00F3AB8014F1360FDEBF002001F08D
:1050D000004170BDC4F10004203C35DA0C341BDC07
:1050E00004F11404C4F1200500FA05F320FA04F0D9
:1050F00001FA05F240EA020001F0004221F000410D
:1051000010EBD37021FA04F642EB06015EEA430E7F
:1051100008BF20EAD37070BDC4F10C04C4F12005AF
:1051200000FA04F320FA05F001FA04F240EA020062
:1051300001F0004110EBD37041F100015EEA430E33
:1051400008BF20EAD37070BDC4F1200500FA05F253
:105150004EEA020E20FA04F301FA05F243EA0203D2
:1051600021FA04F001F0004121FA04F220EA0200E1
:1051700000EBD3705EEA430E08BF20EAD37070BD27
:1051800094F0000F0FD101F00046400041EB010107
:1051900011F4801F08BF013CF7D041EA060195F0E9
:1051A000000F18BF704703F00046520043EB0303A3
:1051B00013F4801F08BF013DF7D043EA0603704790
:1051C00094EA0C0F0CEA135518BF95EA0C0F0CD09B
:1051D00050EA410618BF52EA4306D1D181EA0301E1
:1051E00001F000414FF0000070BD50EA410606BFDB
:1051F0001046194652EA430619D094EA0C0F02D120
:1052000050EA013613D195EA0C0F05D152EA033664
:105210001CBF104619460AD181EA030101F0004182
:1052200041F0FE4141F470014FF0000070BD41F0CB
:10523000FE4141F4780170BD70B54FF0FF0C4CF4A5
:10524000E06C1CEA11541DBF1CEA135594EA0C0FC4
:1052500095EA0C0F00F0A7F8A4EB050481EA030E11
:1052600052EA03354FEA013100F088804FEA0333F8
:105270004FF0805545EA131343EA12634FEA0222C6
:1052800045EA111545EA10654FEA00260EF0004187
:105290009D4208BF964244F1FD0404F5407402D2D9
:1052A0005B084FEA3202B61A65EB03055B084FEA6A
:1052B00032024FF480104FF4002CB6EB020E75EB67
:1052C000030E22BFB61A754640EA0C005B084FEA8F
:1052D0003202B6EB020E75EB030E22BFB61A75460C
:1052E00040EA5C005B084FEA3202B6EB020E75EB57
:1052F000030E22BFB61A754640EA9C005B084FEACF
:105300003202B6EB020E75EB030E22BFB61A7546DB
:1053100040EADC0055EA060E18D04FEA051545EACA
:1053200016754FEA06164FEAC30343EA52734FEA73
:10533000C2025FEA1C1CC0D111F4801F0BD141EAEC
:1053400000014FF000004FF0004CB6E711F4801F51
:1053500004BF01430020B4F1FD0C88BFBCF5E06F31
:105360003FF6AFAEB5EB030C04BFB6EB020C5FEA41
:10537000500C50F1000041EB045170BD0EF0004E96
:105380004EEA113114EB5C04C2BFD4EB0C0541EAC8
:10539000045170BD41F480114FF0000E013C90E6C5
:1053A00045EA060E8DE60CEA135594EA0C0F08BF89
:1053B00095EA0C0F3FF43BAF94EA0C0F0AD150EA88
:1053C00001347FF434AF95EA0C0F7FF425AF10461B
:1053D00019462CE795EA0C0F06D152EA03353FF443
:1053E000FDAE1046194622E750EA410618BF52EAC0
:1053F00043067FF4C5AE50EA41047FF40DAF52EA94
:1054000043057FF4EBAE12E74FF0FF3C06E000BF30
:105410004FF0010C02E000BF4FF0010C4DF804CD3D
:105420004FEA410C7FEA6C5C4FEA430C18BF7FEAFD
:105430006C5C1BD001B050EA410C0CBF52EA430C2B
:1054400091EA030F02BF90EA020F0020704710F1AB
:10545000000F91EA030F58BF994208BF90422CBF3A
:10546000D8176FEAE37040F0010070474FEA410C33
:105470007FEA6C5C02D150EA013C07D14FEA430C51
:105480007FEA6C5CD6D152EA033CD3D05DF8040BC2
:10549000704700BF8446104662468C4619466346F4
:1054A00000E000BF01B5FFF7B7FF002848BF10F1CB
:1054B000000F01BD4DF808EDFFF7F4FF0CBF012010
:1054C00000205DF808FB00BF4DF808EDFFF7EAFF8C
:1054D00034BF012000205DF808FB00BF4DF808ED47
:1054E000FFF7E0FF94BF012000205DF808FB00BF3C
:1054F0004DF808EDFFF7CEFF94BF012000205DF8C6
:1055000008FB00BF4DF808EDFFF7C4FF34BF0120D2
:1055100000205DF808FB00BF4FEA410212F50012BF
:1055200015D211D56FF47873B3EB625212D94FEAEA
:10553000C12343F0004343EA505311F0004F23FAD4
:1055400002F018BF404270474FF00000704750EA29
:10555000013005D111F0004008BF6FF000407047E6
:105560004FF00000704700BF4A0011D212F5001240
:1055700011D20DD56FF47873B3EB62520ED44FEAAB
:10558000C12343F0004343EA505323FA02F070472B
:105590004FF00000704750EA013002D14FF0FF3069
:1055A00070474FF0000070477BB972B90029BEBF49
:1055B00000204FF0004106E008BF00281CBF6FF03C
:1055C00000414FF0FF3000F0B1B9ADF1080C6DE9CA
:1055D00004CE002909DB002B1ADB00F035F8DDF8DA
:1055E00004E0DDE9022304B07047404261EB410171
:1055F000002B1BDB00F028F8DDF804E0DDE90223D6
:1056000004B0404261EB4101524263EB43037047F7
:10561000524263EB430300F017F8DDF804E0DDE9E4
:10562000022304B0404261EB41017047524263EBF8
:10563000430300F009F8DDF804E0DDE9022304B0DB
:10564000524263EB430370472DE9F0478C460E4608
:105650000446089D002B50D18A4217466CD9B2FAF5
:1056600082FEBEF1000F0BD0CEF1200420FA04F42C
:1056700001FA0EF644EA060C02FA0EF700FA0EF4EE
:105680004FEA1749220CBCFBF9F01FFA87F809FB17
:1056900010C642EA064600FB08F3B34209D9F619E0
:1056A00000F1FF3280F02281B34240F21F810238C4
:1056B0003E44F61AA2B2B6FBF9F309FB136642EABE
:1056C000064403FB08F8A04509D9E41903F1FF32A9
:1056D00080F00A81A04540F20781023B3C44C8EBC0
:1056E000040443EA00400021002D62D024FA0EF4A5
:1056F00000232C606B60BDE8F0878B4207D9002D3A
:1057000055D0002185E841000846BDE8F087B3FA8E
:1057100083F1002940F09080B34202D3824200F22C
:10572000F880841A66EB03060120B446002D40D0B1
:1057300085E81010BDE8F08712B90127B7FBF2F732
:10574000B7FA87FEBEF1000F35D1F31B4FEA1748B9
:105750001FFA87FC0121B3FBF8F0220C08FB10367E
:1057600042EA06460CFB00F3B34207D9F61900F1F2
:10577000FF3202D2B34200F2CE801046F61AA2B235
:10578000B6FBF8F308FB136642EA06440CFB03FC85
:10579000A44507D9E41903F1FF3202D2A44500F26F
:1057A000B5801346CCEB040443EA00409CE729464D
:1057B0002846BDE8F087CEF1200106FA0EF307FA7D
:1057C0000EF720FA01F94FEA1748CE4049EA0309DB
:1057D000B6FBF8FA4FEA194408FB1A661FFA87FC71
:1057E00044EA06430AFB0CF29A4200FA0EF40AD984
:1057F000DB190AF1FF3180F087809A4240F2848001
:10580000AAF1020A3B449B1A1FFA89F9B3FBF8F18B
:1058100008FB113349EA034301FB0CF69E4207D90A
:10582000DB1901F1FF326BD29E4269D902393B4448
:105830009B1B41EA0A418EE7C1F1200E22FA0EF4C9
:105840008B40234320FA0EF706FA01F44FEA134C7B
:1058500026FA0EF63C43B6FBFCF9270C0CFB196646
:105860001FFA83F847EA064609FB08F7B74202FA2F
:1058700001F200FA01FA08D9F61809F1FF3041D215
:10588000B7423FD9A9F102091E44F61BA0B2B6FBEC
:10589000FCF40CFB146640EA064704FB08F8B84524
:1058A00007D9FF1804F1FF3028D2B84526D9023CA9
:1058B0001F4444EA0940C8EB0707A0FB02894F4593
:1058C00044464E4614D329D065B3BAEB040367EBC4
:1058D000060707FA0EFECB40CF404EEA030385E8E9
:1058E00088000021BDE8F0871346F8E61046E0E6A0
:1058F000B8EB020469EB03060138E5E70446D8E794
:10590000114695E78146C0E78A467CE7023B3C4466
:1059100048E708460AE702383E442FE7C245E7D386
:105920003E46D1E72946BDE8F08700BF704700BF7B
:105930000B460146184600F027B800001FB51C466C
:10594000094B1B680546D86812B9084B1A4600E097
:10595000074B02928DE80A0022462B46054900F0CB
:105960003BF801F0FBFE00BFD8000020AAA5000014
:10597000E8A50000F5A50000002101F039BD0A22CC
:10598000002101F021BE000010B5054C13462CB1DA
:105990000A4601460220AFF3008010BD204610BD2C
:1059A00000000000014B1868704700BFD8000020BD
:1059B00008B5074B044613B10021AFF30080054B37
:1059C0001868836A03B19847204603F0A7FF00BF19
:1059D0000000000028A600000EB403B5014603AB8A
:1059E000054853F8042B0068019300F015F902B044
:1059F0005DF804EB03B07047D800002070B50E4B83
:105A00000E4CE41AA41000251E46A54204D056F8F8
:105A1000253098470135F8E703F082FF084C094B21
:105A2000E41AA41000251E46A54204D056F82530DD
:105A300098470135F8E770BD1801002018010020D3
:105A40002C01002018010020024B0146186800F0CC
:105A500065B800BFD8000020024B0146186800F06E
:105A600017B800BFD800002010B5431E0A44914269
:105A700004D011F8014B03F8014FF8E710BD0244C0
:105A80000346934202D003F8011BFAE77047000077
:105A900030B500293ED051F8042C0B1F1E49002AB6
:105AA000B8BF9B180A680C4612B95A600B6030BD2B
:105AB0009A420ED919685818824204BF1068526879
:105AC0005A6004BF09181960236030BD994203D899
:105AD0000A4651680029F9D1146815199D420AD166
