:100000000C9463000C948B000C948B000C948B006C
:100010000C948B000C948B000C948B000C94BA08FD
:100020000C948B000C948B000C948B000C94D70ACE
:100030000C948B000C948B000C948B000C948B0014
:100040000C946E090C948B000C943C090C941609CA
:100050000C948B000C948B000C948B000C948B00F4
:100060000C94B8090C948B000000000024002700B9
:100070002A000000000023002600290002000000E2
:100080000800020100000304070000000000000057
:100090000001020408102040800102040810200121
:1000A000020408102000000000250028002B000496
:1000B000040404040404040202020202020303030F
:1000C00003030300D80B11241FBECFEFD8E0DEBF1F
:1000D000CDBF11E0A0E0B1E0E0E0F3E302C00590A5
:1000E0000D92AA3DB107D9F723E0AAEDB1E001C016
:1000F0001D92A43DB207E1F710E0C3E6D0E004C0D2
:100100002197FE010E944A18C236D107C9F70E9402
:100110006E0C0C947E190C94000008950895AF9213
:10012000BF92CF92DF92EF92FF920F931F93CF93E4
:10013000DF936C017B018B01040F151FEB015E0146
:10014000AE18BF08C017D10759F06991D601ED91DB
:10015000FC910190F081E02DC6010995892B79F77A
:10016000C501DF91CF911F910F91FF90EF90DF902C
:10017000CF90BF90AF900895FC01538D448D252FF3
:1001800030E0842F90E0821B930B541710F0CF9631
:10019000089501970895FC01918D828D981761F063
:1001A000A28DAE0FBF2FB11D5D968C91928D9F5F7A
:1001B0009F73928F90E008958FEF9FEF0895FC0159
:1001C000918D828D981731F0828DE80FF11D858D0C
:1001D00090E008958FEF9FEF0895FC01918D228D9F
:1001E000892F90E0805C9F4F821B91098F73992724
:1001F000089583EE92E00E94ED0021E0892B09F43E
:1002000020E0822F089580E090E0892B29F00E9461
:10021000F90081110C9400000895FC01A48DA80F31
:10022000B92FB11DA35ABF4F2C91848D90E0019638
:100230008F739927848FA689B7892C93A089B18958
:100240008C91837080648C93938D848D981306C0F9
:100250000288F389E02D80818F7D80830895EF925D
:10026000FF920F931F93CF93DF93EC0181E0888F70
:100270009B8D8C8D98131AC0E889F989808185FF40
:1002800015C09FB7F894EE89FF896083E889F989E2
:1002900080818370806480839FBF81E090E0DF91E4
:1002A000CF911F910F91FF90EF900895F62E0B8D37
:1002B00010E00F5F1F4F0F731127E02E8C8D8E11F2
:1002C0000CC00FB607FCFACFE889F989808185FF59
:1002D000F5CFCE010E940D01F1CFEB8DEC0FFD2F7C
:1002E000F11DE35AFF4FF0829FB7F8940B8FEA8914
:1002F000FB8980818062CFCFCF93DF93EC01888D23
:100300008823B9F0AA89BB89E889F9898C9185FD90
:1003100003C0808186FD0DC00FB607FCF7CF8C911E
:1003200085FFF2CF808185FFEDCFCE010E940D01C8
:10033000E9CFDF91CF910895833081F028F48130A7
:1003400099F08230A9F008958730A9F08830C9F07B
:100350008430B1F4809180008F7D03C08091800053
:100360008F7780938000089584B58F7784BD08953A
:1003700084B58F7DFBCF8091B0008F778093B000E4
:1003800008958091B0008F7DF9CFCF93DF93282F10
:1003900030E0F901E358FF4F8491F901EF56FF4F28
:1003A000D491F901E155FF4FC491CC23A1F0811103
:1003B0000E949C01EC2FF0E0EE0FFF1FEE58FF4F64
:1003C000A591B491EC91ED2381E090E009F480E0F7
:1003D000DF91CF91089580E090E0FACF1F93CF9303
:1003E000DF93282F30E0F901E358FF4F8491F901A2
:1003F000EF56FF4FD491F901E155FF4FC491CC2343
:10040000A9F0162F81110E949C01EC2FF0E0EE0F55
:10041000FF1FEB55FF4FA591B4918FB7F894EC9166
:10042000111108C0D095DE23DC938FBFDF91CF91EF
:100430001F910895DE2BF8CF9091000189130BC016
:10044000ECE7F0E0E4919FEF90930001E13049F098
:1004500028F0E23061F060E00C94EE0110926E0042
:10046000FACF90916F009D7F90936F00F4CF9091A1
:1004700070009D7F9093700091E09093B0009091F8
:10048000B100987F94609093B1001092B300E3CFD5
:10049000CF93DF9390E0FC01EF56FF4F24918155FD
:1004A0009F4FFC0184918823D1F090E0880F991F21
:1004B000FC01E859FF4FA591B491FC01EB55FF4FAA
:1004C000C591D49161110EC09FB7F8948C91E22F21
:1004D000E0958E238C932881E223E8839FBFDF91F0
:1004E000CF9108958FB7F894EC91E22BEC938FBFE6
:1004F000F6CF3FB7F8948091920290919302A09129
:100500009402B091950226B5A89B05C02F3F19F023
:100510000196A11DB11D3FBFBA2FA92F982F882783
:10052000BC01CD01620F711D811D911D42E0660F5E
:10053000771F881F991F4A95D1F708958F929F9230
:10054000AF92BF92CF92DF92EF92FF926B017C014C
:100550000E9479024B015C01C114D104E104F10451
:10056000B9F00E947902681979098A099B09683EE5
:1005700073408105910580F321E0C21AD108E1089A
:10058000F10888EE880E83E0981EA11CB11CE4CF10
:10059000FF90EF90DF90CF90BF90AF909F908F90A3
:1005A000089508958F929F92AF92BF92CF92DF925B
:1005B000EF92FF92CF93DF93FC014A01AA24BB2460
:1005C000C32ED42EE52EFF24DC2DC22F8085982D3E
:1005D000882391F0C82FD0E0C89DD001C99DB00DEF
:1005E000D89DB00D11249B2F8C9D60011124DD2D11
:1005F000829F90011124C32FA68521853285838592
:10060000A81321C0AB01440F551F640F751F620F63
:10061000731FA385A60FB72FB11D9C93A485A60FAA
:10062000B72FB11DDC938585680F711DFB01C08359
:10063000DF91CF91FF90EF90DF90CF90BF90AF9080
:100640009F908F900895660F771F660F771F620F38
:10065000731FA60FB72FB11D1C92DBCFCF92DF9275
:10066000EF92FF920F931F93CF93DF93CDB7DEB737
:1006700029970FB6F894DEBF0FBECDBF8C01DC0109
:1006800019968D919C91892B09F473C00E9479026F
:10069000F801C784D088E188F2886C157D058E0545
:1006A0009F0520F46787708B818B928BF801C7843C
:1006B000D088E188F2886C197D098E099F096C3217
:1006C00071408105910510F3F894D80114968D912D
:1006D0009C9115979A8389831996ED91FC917F01DE
:1006E000BFEFEB1AFB0A80818987F80190810388AC
:1006F000F489E02DD80155968C91992309F448C0CE
:100700009081982B98879081809589238F838F8102
:100710008C8388E08B8358856F8149853B812C8150
:1007200089819A81D701508347FD252F3A952083EF
:10073000262F39F0441F00C000006083000000C075
:10074000F2CF38E04D9160830000019761F7D80146
:100750005496FC93EE93539749873B832C839A835B
:10076000898378940E947902F8016787708B818B66
:10077000928B29960FB6F894DEBF0FBECDBFDF91E6
:10078000CF911F910F91FF90EF90DF90CF90089540
:100790009081982B98879081809589238F838F8172
:1007A0008E8388E08D8358856F8149853D812E81B8
:1007B00089819A81D701508347FD252F00C000C051
:1007C000208300C000C000C000C000C060830000E3
:1007D000262F3A9541F0441F000000C000C000C021
:1007E00000C000C0E8CF38E04D9100C0608300C079
:1007F000019709F7D8015496FC93EE9353974987D4
:100800003D832E83ACCFCF93DF93EC018E819F810C
:1008100097FD07C061E00E94480260E08E810E945F
:10082000EE0181E08983DF91CF91089520911C0230
:10083000260F3327331F21323105ECF42091650256
:10084000FC0190E080E0243069F082E00895A091FE
:100850001C022191AC0144505E4FA40FB52FB11D75
:100860002C930196861798F380911C02680F609371
:100870001C0280E0089581E008951092650281E0F5
:100880008093640210923F0261E082E10E94EE01D7
:1008900061E083E10E94EE01E9EBF0E080818E7F70
:1008A000808380818D7F808388E48093B80085E495
:1008B0008093BC000895CF93DF9391E09093FB0168
:1008C0008823B9F0C091B800D091BA008091BC00E3
:1008D0008A7B8093BC0060E082E10E94EE0160E0D0
:1008E00083E10E94EE010E943D04D093BA00C093C0
:1008F000B800DF91CF9108950895E0919D02809115
:100900009C02E81730F4F0E0E552FE4F808190E061
:1009100008958FEF9FEF089590919D0280919C0222
:100920002FEF3FEF981748F4E92FF0E0E552FE4F24
:10093000208130E09F5F90939D02C90108958091CE
:100940009C0290919D02891B990B0895CF92DF9292
:10095000EF92FF920F931F93CF93DF937C01CB0114
:100960008A0120916B02222389F0EB016B01C40EF6
:10097000D51ECC15DD0569F06991D701ED91FC918B
:100980000190F081E02DC7010995F3CF642F0E94FB
:100990001604C801DF91CF911F910F91FF90EF9046
:1009A000DF90CF900895CF93DF931F92CDB7DEB73E
:1009B000698320916B022223F9F020919A02203260
:1009C00058F021E030E0FC013383228390E080E0A6
:1009D0000F90DF91CF91089580919B02E82FF0E076
:1009E000E459FD4F998190838F5F80939B028093A0
:1009F0009A0281E090E0ECCF61E0CE0101960E9486
:100A00001604F7CFCF92DF92EF92FF920F931F93CE
:100A1000CF93DF93FC01C48121E020936B02C0934C
:100A20008C0210929B0210929A028385682B80E8B8
:100A300093E00E94D304D0919A02D13208F092C080
:100A40000E9479026B017C0180916502811165C071
:100A500082E08093650281E0809364028FEF80934F
:100A6000630210926202D0936102ACE6B2E0E1E46C
:100A7000F2E080E0D81385C01092400280914002DD
:100A8000CC0FC82BC093400280913F02813009F007
:100A90007CC010923F020E9479026B017C01809120
:100AA00040028093BB008091670290916802A09100
:100AB0006902B0916A02892B8A2B8B2B99F00E94D4
:100AC00079020091670210916802209169023091C9
:100AD0006A026C197D098E099F09061717072807F6
:100AE0003907E0F18091BC0083FDD9CF85EC80937C
:100AF000BC000E9479026B017C018091650282300A
:100B000009F445C0809163028F3F61F180916302D7
:100B1000803241F18091630225C0809167029091FB
:100B20006802A0916902B0916A02892B8A2B8B2BF3
:100B300009F48ACF0E94790200916702109168023D
:100B40002091690230916A026C197D098E099F0912
:100B5000061717072807390708F076CF8091660235
:100B60000E945B0410929B0210929A0210926B02F8
:100B7000DF91CF911F910F91FF90EF90DF90CF9079
:100B800008959D9191938F5F75CF85EEB0CF809141
:100B9000670290916802A0916902B0916A02892B64
:100BA0008A2B8B2B09F4A9CF0E947902009167024E
:100BB000109168022091690230916A026C197D09D6
:100BC0008E099F09061717072807390708F095CFE0
:100BD000C5CF90E080E008950F931F93CF938C01D1
:100BE000C62F0E9402056C2F6460C8010E94020596
:100BF0006C2F6B7FC8010E94020583EC90E0019787
:100C0000F1F7CF911F910F9108950F931F93CF93F9
:100C1000DF938C01D62FC42F607F642B0E94EC05DC
:100C200080E1D89FB00111246C2BC801DF91CF91D6
:100C30001F910F910C94EC05CF93DF93823028F035
:100C40009091C70398609093C7038093CA0362E3AF
:100C500070E080E090E00E949E026091CD0382EC03
:100C600093E00E94020568EE73E080E090E00E944D
:100C70009E0260E382EC93E00E94EC05CBE4D6E4B4
:100C8000CE010197F1F760E382EC93E00E94EC055E
:100C90002197F1F760E382EC93E00E94EC0583E595
:100CA00092E00197F1F760E282EC93E00E94EC059C
:100CB0006091C703606240E082EC93E00E94050609
:100CC00084E08093C80340E06CE082EC93E00E94F3
:100CD000050640E061E082EC93E00E940506CBE36C
:100CE000DFE1CE010197F1F782E08093C90340E094
:100CF00066E082EC93E00E94050640E062E082EC50
:100D000093E00E9405062197F1F7DF91CF910895B6
:100D1000CF93DF93CDB7DEB728970FB6F894DEBF39
:100D20000FBECDBF98E0E8E0F1E0DE011196019042
:100D30000D929A95E1F79091CA03981708F48FEFF6
:100D400090E0880F991F21E030E02C0F3D1F820FAB
:100D5000931FFC016081606840E082EC93E028967C
:100D60000FB6F894DEBF0FBECDBFDF91CF910C94CC
:100D7000050641E00E94050681E090E008950F938A
:100D80001F93CF93DF93EC01162F072F198218863C
:100D90001F86188A198A1A8A81E08E878B871C869B
:100DA00092E09D87888384E290E09D838C830E94FB
:100DB00050189A878987009779F124E2FC011192F3
:100DC0002A95E9F78CE090E09B838A831E830F834A
:100DD0008981882341F061E0812F0E94480260E010
:100DE000812F0E94EE01812F902FFC01E155FF4FD2
:100DF000E491F0E0EE0FFF1FEB55FF4F259134918A
:100E00003C8B2B8BFC01EF56FF4FE491ED8BDF9178
:100E1000CF911F910F9108951D821C821B821A820F
:100E2000D5CFFB0101900020E9F73197AF01461BB8
:100E3000570BDC01ED91FC910280F381E02D0994C8
:100E40008F929F92AF92BF920F931F93CF93DF9396
:100E5000CDB7DEB7A1970FB6F894DEBF0FBECDBFFA
:100E600019A2423008F44AE08E010F5D1F4F842E14
:100E7000912CB12CA12CA50194010E94C315E62F41
:100E8000B901CA01EA3004F5E05DD801EE938D01A5
:100E9000232B242B252B79F790E080E0109729F065
:100EA000BD0183EE92E00E941107A1960FB6F8945F
:100EB000DEBF0FBECDBFDF91CF911F910F91BF90CD
:100EC000AF909F908F900895E95CDFCFCF92DF9233
:100ED000EF92FF92CF93DF9397FF1BC06B017C01D2
:100EE0006DE283EE92E00E942F01EC0166277727E6
:100EF000CB016C197D098E099F094AE00E942007E9
:100F00008C0F9D1FDF91CF91FF90EF90DF90CF90DE
:100F100008954AE0DF91CF91FF90EF90DF90CF905E
:100F20000C942007CF93DF93BC01990F880B990B8A
:100F30000E946607EC0160E471E083EE92E00E949B
:100F400011078C0F9D1FDF91CF9108954F925F92F3
:100F50006F927F928F929F92AF92BF92CF92DF92C9
:100F6000EF92FF920F931F93CF936B017C01742E2E
:100F7000AC019B010E94321863E471E0811126C02C
:100F800046015701E894B7F82FEF3FEF4FE75FE7CF
:100F9000C501B4010E94321881110CC02FEF3FEF40
:100FA0004FE75FE7C501B4010E94611667E471E095
:100FB000181664F02FEF3FEF4FE75FE4C701B6016B
:100FC0000E94C0171816ACF46BE471E083EE92E057
:100FD000CF911F910F91FF90EF90DF90CF90BF9036
:100FE000AF909F908F907F906F905F904F900C94F8
:100FF00011072FEF3FEF4FE75FECC701B6010E94EB
:10100000611687FDE1CF20E030E0A901C701B601FC
:101010000E94611610E000E087FF0AC06DE283EED7
:1010200092E00E942F018C01F7FAF094F7F8F09407
:10103000C0E060E070E080E09FE37C1641F020E0DB
:1010400030E040E251E40E946616CF5FF6CFA70180
:1010500096010E94F5152B013C010E94DF164B0101
:101060005C014AE00E9420077C01E00EF11ECC23C7
:10107000C1F1C501B4010E940E179B01AC01C3016F
:10108000B2010E94F4154B015C016EE283EE92E026
:101090000E942F01E80EF91EC15018F120E030E047
:1010A00040E251E4C501B4010E94C5172B013C0187
:1010B0000E94DF164B01B12CA12C4AE0C501B401FE
:1010C0000E942007E80EF91EC501B4010E940E1708
:1010D0009B01AC01C301B2010E94F4154B015C01FC
:1010E000DBCFC701CF911F910F91FF90EF90DF9061
:1010F000CF90BF90AF909F908F907F906F905F90B8
:101100004F90089585ED8093BC0080916702909187
:101110006802A0916902B0916A020796A11DB11DF3
:1011200023E0B695A795979587952A95D1F72091B5
:10113000BC0024FD03C0109265020895409167022F
:10114000509168026091690270916A02452B462BAA
:10115000472B69F30097A105B10541F025E32A95D6
:10116000F1F700000197A109B109E1CF8091660272
:101170000C945B041F920F920FB60F9211242F93C1
:101180003F934F935F936F937F938F939F93AF930F
:10119000BF93EF93FF938091D7029091D802A091D3
:1011A000D902B091DA02892B8A2B8B2BD1F1909145
:1011B000D202E091D302F091D4028081892780830A
:1011C0008091D7029091D802A091D902B091DA0211
:1011D000181619061A061B069CF48091D7029091E6
:1011E000D802A091D902B091DA020197A109B10900
:1011F0008093D7029093D802A093D902B093DA02D9
:10120000FF91EF91BF91AF919F918F917F916F91DE
:101210005F914F913F912F910F900FBE0F901F90B4
:101220001895809100010E941C02EACF1F920F9234
:101230000FB60F9211242F933F934F935F936F93A9
:101240007F938F939F93AF93BF93EF93FF9383EE1F
:1012500092E00E940D01FF91EF91BF91AF919F919C
:101260008F917F916F915F914F913F912F910F904F
:101270000FBE0F901F9018951F920F920FB60F92EE
:1012800011242F938F939F93EF93FF93E091F30299
:10129000F091F4028081E091F902F091FA0282FD6E
:1012A0001BC090818091FC028F5F8F732091FD02A3
:1012B000821741F0E091FC02F0E0ED51FD4F958F77
:1012C0008093FC02FF91EF919F918F912F910F904E
:1012D0000FBE0F901F9018958081F4CF1F920F9230
:1012E0000FB60F9211242F933F938F939F93AF9339
:1012F000BF9380918E0290918F02A0919002B09145
:10130000910230918D0223E0230F2D3758F501967D
:10131000A11DB11D20938D0280938E0290938F02A8
:10132000A0939002B09391028091920290919302C7
:10133000A0919402B09195020196A11DB11D8093D8
:10134000920290939302A0939402B0939502BF915E
:10135000AF919F918F913F912F910F900FBE0F9062
:101360001F90189526E8230F0296A11DB11DD2CF1C
:101370001F920F920FB60F9211242F933F934F930A
:101380005F936F937F938F939F93AF93BF93EF93ED
:10139000FF938091B900887F803609F44AC0F0F548
:1013A000883209F4A7C018F5803109F49BC0B8F45D
:1013B000882309F4F9C0883009F494C0FF91EF91B3
:1013C000BF91AF919F918F917F916F915F914F915D
:1013D0003F912F910F900FBE0F901F90189588315D
:1013E00009F488C0803251F78093630214C08034BE
:1013F00009F49DC040F48033B9F38833F9F6809343
:10140000630285ECB0C0803509F485C0883509F4E5
:1014100096C0883499F60E948208D0CF883909F4A2
:101420008CC038F5883729F050F4883611F08037B1
:1014300029F683E08093650210923E0257C08838F7
:1014400009F47BC0803919F0803809F0B7CF80915A
:101450003E02803208F071C0E0913E0281E08E0FC2
:1014600080933E028091BB00F0E0E25EFD4F8083FE
:101470003DC0803B39F0E0F4803A09F479C0883A05
:1014800009F09CCF84E08093650210921D021092B7
:101490001C02E0919802F0919902099580911C023A
:1014A00081110FC081E080931C021092FC0109C0E1
:1014B000803C09F4A6CF883C09F4A3CF883B09F00F
:1014C0007DCFE0911D0281E08E0F80931D02F0E040
:1014D000E450FE4F80818093BB0090911D0280916B
:1014E0001C0229C0809140028093BB0085EC809350
:1014F000BC0064CF9091620280916102981758F508
:10150000E091620281E08E0F80936202F0E0EF5B77
:10151000FD4F8081E9CFE091620281E08E0F8093E0
:1015200062028091BB00F0E0EF5BFD4F8083909101
:101530006202809161029817C8F285E8D8CFE091E5
:10154000620281E08E0F809362028091BB00F0E026
:10155000EF5BFD4F80838091640281115CCF81E05D
:1015600080933F0284EA8093BC001092650226CFEC
:1015700085EC8093BC001092650280913E0280321F
:1015800030F4E0913E02F0E0E25EFD4F10826091A7
:101590003E0270E0E0919602F09197028EE192E0B7
:1015A000099510923E020ACF1092630234CF1F9227
:1015B0000F920FB60F9211242F933F934F935F9387
:1015C0006F937F938F939F93AF93BF93CF93DF934B
:1015D000EF93FF938091DA01C091B003D0E087FFD1
:1015E00024C010928500109284008091DA018F5FF0
:1015F0008093DA018091DA01082E000C990B8C1788
:101600009D0724F48091DA018C30C4F1809184002C
:1016100090918500049680349C4908F47AC08091AA
:10162000840090918500049676C08091DA01082E9E
:10163000000C990B8C179D07C4F6E091DA018E2FF0
:10164000EE0F990BFC01EE0FFF1FE80FF91FE45797
:10165000FC4F808186FFC9CFE091DA018E2FEE0F1B
:10166000990BFC01EE0FFF1FE80FF91FE457FC4F29
:10167000808160E08F730E94EE01B7CF20918400DB
:1016800030918500E091DA018E2FEE0F990BFC016D
:10169000EE0FFF1FE80FF91FE457FC4F8181928185
:1016A000820F931F9093890080938800E091DA0164
:1016B0008E2FEE0F990BFC01EE0FFF1FE80FF91FA5
:1016C000E457FC4F808186FF11C0E091DA018E2F34
:1016D000EE0F990BFC01EE0FFF1FE80FF91FE45707
:1016E000FC4F808161E08F730E94EE01FF91EF91CA
:1016F000DF91CF91BF91AF919F918F917F916F912A
:101700005F914F913F912F910F900FBE0F901F90BF
:10171000189580E49CE990938900809388008FEF6E
:101720008093DA01E3CFCF92DF92EF92FF920F9393
:101730001F93E82FF92F05C0015011092109310924
:1017400061F1908196239417B9F305C001501109F6
:101750002109310911F1908196239413F7CFC12CFF
:10176000D12CE12CF12C0AC08FEFC81AD80AE80A54
:10177000F80A0C151D052E053F0579F0808186239A
:10178000841791F36C2D7D2D8E2D9F2D1F910F9120
:10179000FF90EF90DF90CF90089560E070E080E0E0
:1017A00090E01F910F91FF90EF90DF90CF90089500
:1017B0001092E6021092E50288EE93E0A0E0B0E01D
:1017C0008093E7029093E802A093E902B093EA02C3
:1017D00024E131E03093E4022093E30225EC30E091
:1017E0003093F0022093EF0224EC30E03093F202C9
:1017F0002093F10220EC30E03093F4022093F302C6
:1018000021EC30E03093F6022093F50222EC30E038
:101810003093F8022093F70226EC30E03093FA027E
:101820002093F9021092FC021092FD021092FE0227
:101830001092FF021092830310928203809384031C
:1018400090938503A0938603B093870386E291E08B
:1018500090938103809380031092C5031092C40378
:1018600088E391E09093C3038093C20387E280935F
:10187000C60380E18093CB0382E08093CC03109277
:10188000CD031092B9031092BE031092BF031092C1
:10189000C0031092C1031092BA031092BB031092BE
:1018A000BC031092BD038091B0038C3098F491E09A
:1018B000980F9093B0038093B10390E0FC01EE0F7A
:1018C000FF1FE80FF91FE457FC4F88EB9BE0928362
:1018D000818308958FEF8093B1030895CF93DF93B1
:1018E000CDB7DEB7C255D1090FB6F894DEBF0FBE33
:1018F000CDBF789484B5826084BD84B5816084BD99
:1019000085B5826085BD85B5816085BD80916E009D
:10191000816080936E0010928100809181008260CE
:10192000809381008091810081608093810080910B
:1019300080008160809380008091B10084608093FA
:10194000B1008091B00081608093B00080917A00F6
:10195000846080937A0080917A00826080937A001C
:1019600080917A00816080937A0080917A0080680B
:1019700080937A001092C100E091F302F091F4029A
:1019800082E08083E091EF02F091F0021082E0911A
:10199000F102F091F20280E180831092FB02E0916B
:1019A000F702F091F80286E08083E091F502F09171
:1019B000F602808180618083E091F502F091F60269
:1019C000808188608083E091F502F091F602808149
:1019D00080688083E091F502F091F60280818F7D2E
:1019E000808310929D0210929C0210929B02109292
:1019F0009A020E943D048DE890E0909399028093B2
:101A000098028EE890E0909397028093960210924D
:101A1000C7038091CC030E941C0682E00E941C0632
:101A200088E08093CD0360E082EC93E00E940205A1
:101A30008091010181111092010183EE92E00E94D8
:101A4000ED00892B11F40C94101560E170E080E03A
:101A500090E00E949E02EEE9F2E084E3DF011D9235
:101A60008A95E9F7F12C83EE92E00E94ED000F2DAC
:101A700010E002561D4F892B41F083EE92E00E9448
:101A8000CB00F8018083F394EECFD8011C9263E67B
:101A900071E08EE992E00E945D153C0163E671E021
:101AA00090E080E00E945D151C0163E671E090E02B
:101AB00080E00E945D152C0163E671E090E080E01B
:101AC0000E945D1529969FAF8EAF299765E671E05C
:101AD000C3010E947519892B09F0A5C08E010D5F05
:101AE0001F4F8EE2F80111928A95E9F768E671E0DE
:101AF000C2010E945D157C010E943F159A83898373
:101B00000E949207EF2871F068E671E090E080E0B3
:101B10000E945D157C010E943F15D8018D939D9315
:101B20008D01F0CFC1010E943F15BC01CE01C196CD
:101B30000E94BF06CE01C1960E940304C12CE12C75
:101B4000D12C90E080E0FC01EE0FFF1F21E030E09F
:101B50002C0F3D1FE20FF31F608171818C010E5F1E
:101B60001F4F161617060CF049C0615071098C0101
:101B70000F5F1F4FF801EE0FFF1FE20FF31F2081D1
:101B800031812115310579F40F5F1F4FF801EE0FF8
:101B9000FF1F81E090E08C0F9D1FE80FF91FD080A0
:101BA000C12CE12C18C02130310509F0A7C08C01EF
:101BB0000E5F1F4FF801EE0FFF1FA1E0B0E0AC0F6A
:101BC000BD1FEA0FFB1FE080F180C701880F991F3E
:101BD000D82EDE0CC12C8BA99CA96817790770F44C
:101BE0002E2D30E050E040E0542F432F322F22279B
:101BF0004D292C29CE01C1960E94D202C80101961E
:101C0000883191050CF49FCFCE01C1960E942E031E
:101C10008AAD9BAD0E94EC188FA998AD97FD03C0CB
:101C200060E00E9448026AE671E0C3010E947519F3
:101C3000892B09F0F8C068E671E0C2010E945D15C9
:101C40000E943F15082F68E671E090E080E00E9456
:101C50005D150E943F15882E68E671E090E080E0F7
:101C60000E945D150E943F15182FC1010E943F156B
:101C7000BC01CE0101960E94BF06CE0101960E94D2
:101C80000304912CB12CA12CBA2CA92C982C8824BB
:101C9000A02A812A2996EEACFFAC29976701BCE007
:101CA000CB0ED11C02E411E0F70181917F01813359
:101CB00009F495C0823309F47BC1833309F47BC1F5
:101CC000843309F47BC1853309F47BC1863309F47D
:101CD0007BC1873309F47BC1883309F47BC1893325
:101CE00009F47BC1813609F47BC1823609F47BC1DA
:101CF000833609F076C000E611E073C0223031056A
:101D000081F48C010E5F1F4FF801EE0FFF1F21E0E1
:101D100030E02C0F3D1FE20FF31FD080C12CED2CC3
:101D20005ACF2330310589F48C010E5F1F4FF80123
:101D3000EE0FFF1F81E090E08C0F9D1FE80FF91F51
:101D4000E080F180C12CD12C46CF2430310579F4CC
:101D50008C010E5F1F4FF801EE0FFF1FA1E0B0E0F6
:101D6000AC0FBD1FEA0FFB1FC080E12CECCF25306C
:101D7000310581F48C010E5F1F4FF801EE0FFF1F3C
:101D800021E030E02C0F3D1FE20FF31FE080F180D7
:101D9000CE2CD9CF2630310579F48C010E5F1F4F40
:101DA000F801EE0FFF1F81E090E08C0F9D1FE80F00
:101DB000F91FD080CD2CF5CE2730310509F00BCF9F
:101DC0008C010E5F1F4FF801EE0FFF1FA1E0B0E086
:101DD000AC0FBD1FEA0FFB1FD080CD2CA0CF0EE5AE
:101DE00011E0C8010E943F152B813C8182179307A7
:101DF00038F4A5019401BC01CE0101960E94D202E3
:101E0000CE14DF0409F050CFCE0101960E942E03BC
:101E10008A859B850E94EC188F81988597FD03C069
:101E200060E00E9448026DE671E0C3010E947519EE
:101E3000892B91F46FE671E0C1010E947519892B1D
:101E400009F0D4C040E061E082EC93E00E94050616
:101E50008BE39FE10197F1F765E771E0C3010E9411
:101E60007519892B09F05FC0C1010E943F15F82E3A
:101E7000C2010E943F158C0161E08F2D0E94480233
:101E800060E0802F0E94480260E08F2D0E94EE01EA
:101E90008FE090E00197F1F761E08F2D0E94EE0155
:101EA00083E290E00197F1F760E08F2D0E94EE0150
:101EB00060E0802F0E9448021127F801EF56FF4F83
:101EC0006491F801E155FF4FE491F0E0EE0FFF1F40
:101ED000EE58FF4F8591949100E412E42FE030E03A
:101EE000462F0E94930B611571058105910529F01C
:101EF0006F5F7F4F8F4F9F4F9F7095958795779519
:101F000067950E9410172DEC3CEC48EE51E40E94BE
:101F100066160E94D8160E94660760E471E083EEA0
:101F200092E00E9411076DE771E0C3010E947519EC
:101F30007C01892B09F0ECC0C1010E943F15182FCC
:101F40008091B903882309F0F8941092B403109299
:101F5000B5031092B6031092B7031092B80361E074
:101F6000812F0E94480260E0812F0E94EE0162E111
:101F700070E080E090E00E949E0260E0812F0E946D
:101F800048028BE990E00197F1F7F0E9CF2EDD24CC
:101F9000D394812F0E94C501892B09F049C0F1E03B
:101FA000CF1AD108B1F75EEFE52EFF24FA9494C062
:101FB00001E611E016CF0FE411E013CF01E511E0C7
:101FC00010CF0BE711E00DCF03E511E00ACF05E5D7
:101FD00011E007CF07E511E004CF09E511E001CFDB
:101FE0000BE511E0FECE0DE511E0FBCE211431042E
:101FF00029F0B10183EE92E00E94110760E471E0E4
:1020000083EE92E00E941107C2010E943F15892BC6
:1020100069F480E00E9488062114310409F41CCF81
:10202000B10182EC93E00E94110716CF81E0F2CF5C
:10203000E0E9CE2EDD24D394812F0E94C5010197C3
:1020400029F421E0C21AD108B9F7ADCF78E2D72E32
:1020500000E8C12C60E9A62EBB24B394812F0E9416
:10206000C501892B29F431E0A31AB108B9F79BCF38
:102070000E9479024B015C0180E991E02D969FAFAF
:102080008EAF2D97812F0E94C501019761F42D9687
:10209000AEADBFAD2D9711972D96BFAFAEAF2D97BB
:1020A000AB2B81F780CF0E947902681979098A09E0
:1020B0009B09693271058105910538F0EC2DF0E03E
:1020C000EC54FC4F8081802B8083069511F4C394DF
:1020D00000E8DA94D110BECF8091B903882309F0CB
:1020E0007894EF2809F42EC180E090ECA9E7B4ECD5
:1020F0008093BA039093BB03A093BC03B093BD033A
:102100008093BE039093BF03A093C003B093C10319
:1021100066E871E0C3010E947519892B11F5609181
:10212000BE037091BF038091C0039091C10342E050
:102130000E94A60768E671E083EE92E00E94110714
:102140006091BA037091BB038091BC039091BD0371
:1021500042E00E94A60760E471E083EE92E00E94F4
:10216000110760E971E0C3010E947519892B09F01C
:1021700040C2C1010E943F157C0129968EAD9FADE2
:1021800029970E943F15039763969FAF8EAF639781
:10219000092E000CAA0BBB0B2B968CAF9DAFAEAFDC
:1021A000BFAF2B97C2010E943F152D969FAF8EAFF8
:1021B0002D97809100018E1114C1ECE7F0E014918D
:1021C00017FD04C261E08E2D0E944802112319F010
:1021D000123009F066C32D96AEADBFAD2D974D01FF
:1021E000B12CA12C60E072E18AE790E0A5019D018D
:1021F0000E94911561962CAF3DAF4EAF5FAF6197D6
:1022000069017A01B1E0CB1AD108E108F108EFEFDA
:10221000CE16D104E104F10409F00CF4ACC160E481
:1022200072E48FE090E0A50194010E94911569018C
:102230007A01F1E0CF1AD108E108F108123009F073
:102240004DC182E02FEFC216D104E104F10409F080
:102250000CF471C060E970ED83E090E0A501940199
:102260000E94911569017A0181E0C81AD108E1083C
:10227000F10883E09FEFC916D104E104F10409F0ED
:102280000CF459C068E478EE81E090E0A501940177
:102290000E94911569017A01E1E0CE1AD108E108A6
:1022A000F10884E0FFEFCF16D104E104F10409F056
:1022B0000CF441C064E274EF80E090E0A501940169
:1022C0000E94911569017A01E1E0CE1AD108E10876
:1022D000F10885E0BFEFCB16D104E104F10459F118
:1022E00050F162E17AE780E090E0A50194010E945C
:1022F000911569017A0181E0C81AD108E108F10855
:1023000086E09FEFC916D104E104F104A1F098F032
:102310006196CCACDDACEEACFFAC61979AE0F59485
:10232000E794D794C7949A95D1F7A1E0CA1AD10837
:10233000E108F10887E09091B100987F892B8093A4
:10234000B10020C16091B50370E090E080E00E9490
:1023500010172DEC3CEC4CEC5DE30E94C5176B01B3
:102360007C016091B40370E090E080E00E9410175F
:102370009B01AC01C701B6010E94F5156093BA0339
:102380007093BB038093BC039093BD031091B6037D
:102390006091B70370E090E080E00E9410172DEC90
:1023A0003CEC4CEC5DE30E94C5176B017C01612F96
:1023B0006F7770E090E080E00E9410179B01AC0105
:1023C000C701B6010E94F51517FD09C06093BE0351
:1023D0007093BF038093C0039093C10399CE90582C
:1023E000F5CF8F3F09F0F2C0E0920001ECE7F0E09A
:1023F00014911F3F09F4EAC0113041F150F012303E
:1024000009F446C017FDE2C061E08E2D0E9448022B
:10241000DFCE14BC15BC84B5826084BD85B58160F7
:1024200085BDC7019927FC01E155FF4FE491F0E01C
:10243000EE0FFF1FEB55FF4F25913491FC01EF5636
:10244000FF4FE491E093D60210E0BCCE10928000E2
:10245000109281008091810088608093810080913A
:102460008100816080938100C7019927FC01E155BB
:10247000FF4FE491F0E0EE0FFF1FEB55FF4F25916A
:102480003491FC01EF56FF4FE491E093D5029ACED0
:102490001092B0001092B1008091B00082608093E1
:1024A000B0008091B10081608093B100C70199278D
:1024B000FC01E155FF4FE491F0E0EE0FFF1FEB55FB
:1024C000FF4F259134913093D4022093D302FC0125
:1024D000EF56FF4FE491E093D20274CEAFEFCA16ED
:1024E000D104E104F10409F00CF4D9C168E478EEF8
:1024F00081E090E0A50194010E94911569017A01A3
:10250000B1E0CB1AD108E108F10884E01111E2CE64
:1025100083E0AFEFCA16D104E104F10479F174F15C
:1025200062E17AE780E090E0A50194010E949115B4
:1025300069017A01F1E0CF1AD108E108F10884E0DD
:102540002FEFC216D104E104F104C1F0B8F0619696
:10255000CCACDDACEEACFFAC61978AE0F594E794CF
:10256000D794C7948A95D1F7B1E0CB1AD108E10886
:10257000F10885E003C081E01111DDCE95B5987FAB
:10258000892B85BD2B968CAD9DADAEADBFAD2B9788
:102590002FEF3FEFA901892B8A2B8B2B09F0C4C1A8
:1025A000113009F4D4C1123009F4E3C111110EC085
:1025B000C7BC2093DF023093E0024093E1025093C6
:1025C000E20280916E00826080936E002B966CAD6B
:1025D0007DAD8EAD9FAD2B970E949E02C1010E94E2
:1025E0003F150E941C0262E070E080E090E00E94D3
:1025F0009E0269E971E0C3010E947519892B09F0F7
:10260000DAC0C1010E943F15182F8091B1038C30B0
:1026100008F053C061E0812F0E9448028091B1030D
:10262000282F30E0F901EE0FFF1FE20FF31FE457F0
:10263000FC4F912F9F731081107C192B10831092E7
:10264000B2031092B3032CE0622F0E943718829FCE
:10265000B001112430E020E0AB01420F531FFA011A
:10266000EE0FFF1FE40FF51FE457FC4F908196FD1E
:1026700016C02F5F3F4F2C30310571F781110FC00D
:102680001092800082E08093810010928500109269
:102690008400B19A80916F00826080936F00E09116
:1026A000B1038E2F90E0FC01EE0FFF1FE80FF91F22
:1026B000E457FC4F8081806480831091B103C20194
:1026C0000E943F15DC01A03292E0B907DCF5809151
:1026D000B203E8E8CE2ED12CC81AD10887FDD394D6
:1026E000CC0CDD1CCC0CDD1C0D2C000CEE08FF0806
:1026F0008091B30328E532E0281B310987FD33952B
:10270000220F331F220F331F032E000C440B550BD7
:102710002C193D094E095F09A53BB10514F0A4EB46
:10272000B0E0B7FF02C0B0E0A0E00E94BB1524EB10
:1027300030E040E050E00E949115C20ED31EE41E2E
:10274000F51ED6011C3088F58091B20348E850E0B0
:10275000481B510987FD5395440F551F440F551FC2
:10276000A417B50784F08091B30348E552E0481BF5
:10277000510987FD5395440F551F440F551FA4174A
:10278000B5070CF4AD0142505109440F551F2FB746
:10279000F894812F90E0FC01EE0FFF1FE80FF91F66
:1027A000E457FC4F528341832FBF64E670E080E022
:1027B00090E00E949E0264EA71E0C3010E947519D4
:1027C000892B71F56FEA71E083EE92E00E941107A8
:1027D000C1010E943F15BC01990F880B990B0E9403
:1027E000660761EB71E083EE92E00E941107C10180
:1027F0000E943F158E3008F08E5087708064809361
:102800007C0080917A00806480937A0080917A00C5
:1028100086FDFCCF80917800909179000E9492070C
:1028200063EB71E0C3010E947519892BE1F46FEB32
:1028300071E083EE92E00E941107C1010E943F15F2
:10284000BC01990F880B990B0E94660761EB71E040
:1028500083EE92E00E941107C1010E943F150E9481
:10286000C5010E94920761EC71E0C3010E947519D5
:10287000892B09F0BBC0C2010E943F158C01C10128
:102880000E943F157C0161E00E944802011511057C
:1028900009F07FC060E08E2D0E94EE01A7C082E0AB
:1028A0006BCE2D968EAD9FAD2D974C01B12CA12CEA
:1028B00060E072E18AE790E0A50194010E94911521
:1028C00069017A0191E0C91AD108E108F10891E0A3
:1028D000C114D104A1E0EA06F10484F068E478EEC2
:1028E00081E090E0A50194010E94911569017A01AF
:1028F000B1E0CB1AD108E108F10893E0113009F0FA
:1029000041CE80918100887F892B809381002B9616
:102910008CAD9DADAEADBFAD2B972FEF3FEFA901B5
:10292000892B8A2B8B2B99F02D962EAD3FAD2D97B1
:10293000220F331F6396AEADBFAD63970E9443185D
:1029400028EE33E040E050E00E94C31529CED0923B
:102950008900C09288002093DB023093DC02409310
:10296000DD025093DE0280916F00826080936F00E1
:102970002DCEC092B3002093D7023093D80240935B
:10298000D9025093DA0280917000826080937000C7
:102990001DCE0F3F110511F461E07DCFF701FF2738
:1029A000E358FF4FE491E33009F44FC048F4E130BD
:1029B000C9F0E23009F444C0003811056CF76ACF61
:1029C000E73009F44CC0E83009F451C0E430A1F715
:1029D0008091800080628093800010938B00009330
:1029E0008A0004C084B5806884BD07BD6DEC71E0C9
:1029F000C3010E947519892B81F4C1010E943F1502
:102A000061E00E944802C2010E943F15182FC101D7
:102A10000E943F15612F0E94EE0181E08093010129
:102A200080E090E0892B11F40C94180D0E94F900BD
:102A3000882311F40C94180D0E9400000C94180DBA
:102A400084B5806284BD08BDD1CF8091800080684C
:102A5000809380001093890000938800C7CF8091F5
:102A6000B00080688093B0000093B300BFCF809126
:102A7000B00080628093B0000093B400B7CFFC0137
:102A800088279927E89421912032E9F3293010F022
:102A90002E30C8F32B3241F02D3239F4689404C043
:102AA0000E948915820F911D219120532A30C0F375
:102AB0001EF4909581959F4F08954EEC53E00E942F
:102AC00062150895FA01A191B081009719F4109749
:102AD000E1F0CD01DC01CD010D90002011F4C00129
:102AE00013C0FB012191222319F02015D9F7F3CF50
:102AF000FB012191201519F41E92119606C0222384
:102B0000C1F70D900020A1F7D001FA01A193B08385
:102B100008957AE0979F902D879F802D910D112425
:102B20000895052E97FB1EF400940E94A81557FDEA
:102B300007D00E94C31507FC03D04EF40C94A815CF
:102B400050954095309521953F4F4F4F5F4F0895D9
:102B500090958095709561957F4F8F4F9F4F089509
:102B60000E94E515A59F900DB49F900DA49F800D28
:102B7000911D11240895B7FF0C94B0150E94B01553
:102B8000821B930B0895A1E21A2EAA1BBB1BFD0109
:102B90000DC0AA1FBB1FEE1FFF1FA217B307E4073C
:102BA000F50720F0A21BB30BE40BF50B661F771F94
:102BB000881F991F1A9469F7609570958095909574
:102BC0009B01AC01BD01CF010895A29FB001B39F4D
:102BD000C001A39F700D811D1124911DB29F700D26
:102BE000811D1124911D08955058BB27AA270E94CA
:102BF0000C160C9486170E94781738F00E947F17E5
:102C000020F039F49F3F19F426F40C9475170EF454
:102C1000E095E7FB0C946F17E92F0E94971758F384
:102C2000BA17620773078407950720F079F4A6F5B1
:102C30000C94B9170EF4E0950B2EBA2FA02D0B01B2
:102C4000B90190010C01CA01A0011124FF27591BF1
:102C500099F0593F50F4503E68F11A16F040A22FF7
:102C6000232F342F4427585FF3CF46953795279568
:102C7000A795F0405395C9F77EF41F16BA0B620B67
:102C8000730B840BBAF09150A1F0FF0FBB1F661FAE
:102C9000771F881FC2F70EC0BA0F621F731F841FF1
:102CA00048F4879577956795B795F7959E3F08F017
:102CB000B0CF9395880F08F09927EE0F97958795D9
:102CC00008950E944B1708F481E008950E947A1637
:102CD0000C9486170E947F1758F00E94781740F0D6
:102CE00029F45F3F29F00C946F1751110C94BA1717
:102CF0000C9475170E94971768F39923B1F3552325
:102D000091F3951B550BBB27AA27621773078407FE
:102D100038F09F5F5F4F220F331F441FAA1FA9F394
:102D200035D00E2E3AF0E0E832D091505040E69582
:102D3000001CCAF72BD0FE2F29D0660F771F881FE3
:102D4000BB1F261737074807AB07B0E809F0BB0BD6
:102D5000802DBF01FF2793585F4F3AF09E3F5105EA
:102D600078F00C946F170C94BA175F3FE4F3983E19
:102D7000D4F3869577956795B795F7959F5FC9F7D3
:102D8000880F911D9695879597F90895E1E0660F54
:102D9000771F881FBB1F621773078407BA0720F0CD
:102DA000621B730B840BBA0BEE1F88F7E095089536
:102DB0000E94DF166894B1110C94BA1708950E940E
:102DC0009F1788F09F5798F0B92F9927B751B0F007
:102DD000E1F0660F771F881F991F1AF0BA95C9F79F
:102DE00014C0B13091F00E94B917B1E008950C946D
:102DF000B917672F782F8827B85F39F0B93FCCF320
:102E0000869577956795B395D9F73EF4909580951B
:102E1000709561957F4F8F4F9F4F0895E89409C03B
:102E200097FB3EF490958095709561957F4F8F4FFD
:102E30009F4F9923A9F0F92F96E9BB279395F69513
:102E4000879577956795B795F111F8CFFAF4BB0F91
:102E500011F460FF1BC06F5F7F4F8F4F9F4F16C0F5
:102E6000882311F096E911C0772321F09EE8872F7F
:102E7000762F05C0662371F096E8862F70E060E03B
:102E80002AF09A95660F771F881FDAF7880F9695B4
:102E9000879597F90895990F0008550FAA0BE0E858
:102EA000FEEF16161706E807F907C0F0121613060C
:102EB000E407F50798F0621B730B840B950B39F44C
:102EC0000A2661F0232B242B252B21F408950A26B2
:102ED00009F4A140A6958FEF811D811D089597F9F2
:102EE0009F6780E870E060E008959FEF80EC0895B0
:102EF00000240A94161617061806090608950024D9
:102F00000A9412161306140605060895092E039452
:102F1000000C11F4882352F0BB0F40F4BF2B11F4C6
:102F200060FF04C06F5F7F4F8F4F9F4F089557FD25
:102F30009058440F551F59F05F3F71F04795880F27
:102F400097FB991F61F09F3F79F0879508951216BE
:102F500013061406551FF2CF4695F1DF08C016166A
:102F600017061806991FF1CF86957105610508941B
:102F70000895E894BB2766277727CB0197F9089532
:102F80000E944B1708F48FEF08950E94D8170C94F5
:102F900086170E94781738F00E947F1720F095233B
:102FA00011F00C946F170C94751711240C94BA1728
:102FB0000E94971770F3959FC1F3950F50E0551F2E
:102FC000629FF001729FBB27F00DB11D639FAA277E
:102FD000F00DB11DAA1F649F6627B00DA11D661FCD
:102FE000829F2227B00DA11D621F739FB00DA11DEE
:102FF000621F839FA00D611D221F749F3327A00DA8
:10300000611D231F849F600D211D822F762F6A2F43
:1030100011249F5750409AF0F1F088234AF0EE0FA8
:10302000FF1FBB1F661F771F881F91505040A9F7D5
:103030009E3F510580F00C946F170C94BA175F3FB8
:10304000E4F3983ED4F3869577956795B795F79511
:10305000E7959F5FC1F7FE2B880F911D9695879589
:1030600097F908950E944B17880B990B0895991BA7
:1030700079E004C0991F961708F0961B881F7A956F
:10308000C9F7809508950E94E515B7FF0895821B42
:10309000930B0895EE0FFF1F0590F491E02D099416
:1030A0000F931F93CF93DF938230910510F482E04A
:1030B00090E0E091D203F091D30330E020E0B0E063
:1030C000A0E0309799F42115310509F44AC0281B76
:1030D000390B24303105D8F58A819B816115710542
:1030E00089F1FB0193838283FE0111C040815181EC
:1030F0000281138148175907E0F04817590799F4DE
:10310000109761F012960C93129713961C933296B7
:10311000CF01DF91CF911F910F9108950093D203BA
:103120001093D303F4CF2115310551F04217530703
:1031300038F0A901DB019A01BD01DF01F801C1CF1F
:10314000EF01F9CF9093D3038093D203CDCFFE014B
:10315000E20FF31F81939193225031093983288321
:10316000D7CF2091D0033091D103232B41F420916C
:103170000401309105013093D1032093D0032091B5
:103180000201309103012115310541F42DB73EB7FD
:103190004091060150910701241B350BE091D003AB
:1031A000F091D103E217F307A0F42E1B3F0B281771
:1031B000390778F0AC014E5F5F4F2417350748F0B0
:1031C0004E0F5F1F5093D1034093D003819391938F
:1031D0009FCFF0E0E0E09CCFCF93DF930097E9F042
:1031E000FC01329713821282A091D203B091D303D3
:1031F000ED0130E020E01097A1F420813181820FB1
:10320000931F2091D0033091D1032817390709F07B
:1032100061C0F093D103E093D003DF91CF91089583
:10322000EA01CE17DF07E8F54A815B819E0141156F
:103230005105B1F7E901FB83EA8349915991C40F24
:10324000D51FEC17FD0761F4808191810296840FF0
:10325000951FE90199838883828193819B838A8367
:10326000F0E0E0E012968D919C9113970097B9F5EC
:103270002D913C911197CD010296820F931F2091C1
:10328000D0033091D1032817390739F6309751F51B
:103290001092D3031092D203B093D103A093D00322
:1032A000BCCFD383C28340815181840F951FC8173F
:1032B000D90761F44E5F5F4F88819981480F591F8C
:1032C000518340838A819B819383828321153105B9
:1032D00009F0B0CFF093D303E093D2039ECFFD016A
:1032E000DC01C0CF13821282D7CFFB01DC018D91AC
:1032F000019080190110D9F3990B0895F894FFCF2C
:10330000FF010000D40380000000400014005400BE
:10331000000000002F018F00BC007C01ED00CB00FD
:10332000DF0000000000D304A604E9057C049F042C
:103330008C047D0400000000B9068F00E905D1026D
:103340000D0A006E616E00696E66006F766600326F
:1033500000330035003600370038003900313000C6
:1033600031310023007368002C007773006C006318
:103370006C6561720048432D5352303400646874A8
:103380003131536574006468743131526561640091
:10339000746F6E65506C617900736572766F5772E9
:1033A00069746500616E616C6F67526561640041AC
:1033B000003A006469676974616C52656164004435
:1033C00000616E616C6F675772697465006469674C
:0A33D0006974616C5772697465003E
:00000001FF
