:020000040000FA
:100000000C94EE000C9416010C9416010C94DE0D69
:100010000C94DE0D0C94DE0D0C9416010C94E00C87
:100020000C9416010C9416010C9416010C94710F8B
:100030000C9416010C9416010C9416010C941601E4
:100040000C94940D0C9416010C94620D0C943C0DC0
:100050000C9416010C9416010C9416010C941601C4
:100060000C94560E0C94160108000000BE92244910
:10007000123EABAAAA2ABECDCCCC4C3E00000080DA
:10008000BEABAAAAAA3E00000000BF000000803F4D
:100090000000000000084178D3BB4387D1133D190D
:1000A0000E3CC3BD4282AD2B3E68EC8276BED98F3A
:1000B000E1A93E4C80EFFFBE01C4FF7F3F0000007E
:1000C000000000000000240027002A005741524E83
:1000D000494E473A20436F6D6D756E69636174696F
:1000E0006F6E206661696C7572652C20697320746F
:1000F0006865204D4652433532322070726F70650C
:10010000726C7920636F6E6E65637465643F002066
:100110003D2028756E6B6E6F776E2900203D206341
:100120006F756E74657266656974206368697000C6
:10013000203D2076322E3000203D2076312E3000BA
:10014000203D2076302E3000203D2028636C6F6EDD
:100150006529004669726D77617265205665727314
:10016000696F6E3A2030780002000000080002013A
:10017000000003040700000000000000003A0044F3
:10018000003A0041002C006D66723A0048432C0092
:100190003A004E002C002C002C002C000000000027
:1001A00023002600290000000000250028002B0065
:1001B000040404040404040402020202020203030D
:1001C0000303030301020408102040800102040815
:1001D000102001020408102072103C1F11241FBEC1
:1001E000CFEFD8E0DEBFCDBF12E0A0E0B1E0E8E2A3
:1001F000FBE402C005900D92A632B107D9F726E0C4
:10020000A6E2B2E001C01D92A334B207E1F710E00C
:10021000CDEED0E004C02197FE010E942C23CC3EFD
:10022000D107C9F70E9455110C9487250C94000042
:100230008CBD9DBD0895AF92BF92CF92DF92EF9299
:10024000FF920F931F93CF93DF936C017B018B0180
:10025000040F151FEB015E01AE18BF08C017D107D0
:1002600059F06991D601ED91FC910190F081E02D5A
:10027000C6010995892B79F7C501DF91CF911F91AF
:100280000F91FF90EF90DF90CF90BF90AF900895C7
:10029000FC01538D448D252F30E0842F90E0821B8C
:1002A000930B541710F0CF96089501970895FC0111
:1002B000918D828D981761F0A28DAE0FBF2FB11D69
:1002C0005D968C91928D9F5F9F73928F90E00895C1
:1002D0008FEF9FEF0895FC01918D828D981731F07B
:1002E000828DE80FF11D858D90E008958FEF9FEFCF
:1002F0000895FC01918D228D892F90E0805C9F4FA5
:10030000821B91098F73992708958BE395E00E94D2
:10031000790121E0892B09F420E0822F089580E003
:1003200090E0892B29F00E94850181110C94000036
:100330000895FC01A48DA80FB92FB11DA35ABF4F7A
:100340002C91848D90E001968F739927848FA689D4
:10035000B7892C93A089B1898C91837080648C9328
:10036000938D848D981306C00288F389E02D8081D7
:100370008F7D80830895EF92FF920F931F93CF9309
:10038000DF93EC0181E0888F9B8D8C8D98131AC0D0
:10039000E889F989808185FF15C09FB7F894EE89B7
:1003A000FF896083E889F989808183708064808314
:1003B0009FBF81E090E0DF91CF911F910F91FF905F
:1003C000EF900895F62E0B8D10E00F5F1F4F0F7307
:1003D0001127E02E8C8D8E110CC00FB607FCFACFC2
:1003E000E889F989808185FFF5CFCE010E949901C6
:1003F000F1CFEB8DEC0FFD2FF11DE35AFF4FF08293
:100400009FB7F8940B8FEA89FB8980818062CFCFF8
:100410000F931F93CF93DF938C01D0E0C0E0F801DE
:10042000EC0FFD1F6491662341F08BE395E00E9481
:10043000BB01892B11F02196F2CFCE01DF91CF9134
:100440001F910F910895CF93DF93EC01888D88233E
:10045000B9F0AA89BB89E889F9898C9185FD03C027
:10046000808186FD0DC00FB607FCF7CF8C9185FF0C
:10047000F2CF808185FFEDCFCE010E949901E9CFB7
:10048000DF91CF910895833081F028F4813099F085
:100490008230A9F008958730A9F08830C9F08430FF
:1004A000B1F4809180008F7D03C0809180008F77B0
:1004B00080938000089584B58F7784BD089584B5B6
:1004C0008F7DFBCF8091B0008F778093B00008952F
:1004D0008091B0008F7DF9CFCF93DF93282F30E04C
:1004E000F901E759FE4F8491F901EC53FE4FD49185
:1004F000F901E055FE4FC491CC23A1F081110E9477
:100500004302EC2FF0E0EE0FFF1FE456FE4FA591E3
:10051000B491EC91ED2381E090E009F480E0DF916B
:10052000CF91089580E090E0FACF1F93CF93DF93AF
:10053000282F30E0F901E759FE4F8491F901EC537F
:10054000FE4FD491F901E055FE4FC491CC23A9F0A0
:10055000162F81110E944302EC2FF0E0EE0FFF1FD7
:10056000EA55FE4FA591B4918FB7F894EC91111113
:1005700008C0D095DE23DC938FBFDF91CF911F9110
:100580000895DE2BF8CF9091010189130BC0E8E6A6
:10059000F1E0E4919FEF90930101E13049F028F000
:1005A000E23061F060E00C94950210926E00FACF98
:1005B00090916F009D7F90936F00F4CF90917000A9
:1005C0009D7F9093700091E09093B0009091B10066
:1005D000987F94609093B1001092B300E3CFCF93D3
:1005E000DF9390E0FC01EC53FE4F249180559E4F29
:1005F000FC0184918823D1F090E0880F991FFC01C1
:10060000EE53FF4FA591B491FC01EA55FE4FC59101
:10061000D49161110EC09FB7F8948C91E22FE095B0
:100620008E238C932881E223E8839FBFDF91CF91B3
:1006300008958FB7F894EC91E22BEC938FBFF6CF2F
:100640008E3008F08E502091000190E4299F900197
:1006500011248770822B80937C0080917A008064C3
:1006600080937A0080917A0086FDFCCF809178009B
:100670009091790008953FB7F8948091D9029091B4
:10068000DA02A091DB02B091DC0226B5A89B05C07E
:100690002F3F19F00196A11DB11D3FBFBA2FA92F01
:1006A000982F8827BC01CD01620F711D811D911DFE
:1006B00042E0660F771F881F991F4A95D1F708956A
:1006C0008F929F92AF92BF92CF92DF92EF92FF9262
:1006D0006B017C010E943B034B015C01C114D104FE
:1006E000E104F104B9F00E943B03681979098A0911
:1006F0009B09683E73408105910580F321E0C21A91
:10070000D108E108F10888EE880E83E0981EA11C4C
:10071000B11CE4CFFF90EF90DF90CF90BF90AF90EF
:100720009F908F9008952091DF023091E00228176A
:10073000390771F49091DD028091DE02981741F043
:10074000E091DD02F0E0E856FD4F808190E00895F1
:100750008FEF9FEF08950895EF92FF920F931F93ED
:10076000CF93DF93DC015C96ED90FC905D97E114F4
:10077000F10479F481E090E013969C938E931297A4
:1007800090E080E0DF91CF911F910F91FF90EF906B
:1007900008955196ED91FC91529750968C915097F7
:1007A000982F90950FB75E962C915E97122F12702E
:1007B00021FD6095F8942081112319F1282B2083C5
:1007C000E7012197F1F728E0462F50E0308160FFE4
:1007D0001AC0382B3083E7012197F1F7BA017595DC
:1007E0006795215089F7112381F0808189238083C7
:1007F0000FBF5C968D919C910197F1F781E090E09D
:10080000C1CF2923DCCF3923E5CF9081892BEFCFCE
:100810002091DF023091E0022817390761F48091BE
:10082000DE022091DD0290E0805C9F4F821B9109E7
:100830008F739927089590E080E008952091DF025A
:100840003091E00228173907B9F49091DD028091C8
:10085000DE02981789F0E091DD02F0E0E856FD4FE6
:1008600080812091DD0230E02F5F3F4F2F733327CF
:100870002093DD0290E008958FEF9FEF0895BC0173
:100880006E5F7F4FDC01ED91FC910190F081E02DD6
:1008900040E0099591E0811190E0892F0895089535
:1008A0008EBD00000DB407FEFDCF8EB50895DF921A
:1008B000EF92FF920F931F93CF93DF937C01062F4C
:1008C000D42E152F80E590E00E94180160E0F7011A
:1008D00086850E94950282E10E945004CD2DD12F81
:1008E0000C0F1D2F111DC017D10721F089910E94F7
:1008F0005004F9CF61E0F7018685DF91CF911F9118
:100900000F91FF90EF90DF900C9495021F93CF937F
:10091000DF93EC01162F80E590E00E94180160E063
:100920008E850E949502812F80680E94500480E08D
:100930000E945004182F61E08E850E949502812F3D
:10094000DF91CF911F9108950F931F93CF93DF9362
:10095000EC01062F142F80E590E00E94180160E062
:100960008E850E949502802F0E945004812F0E9444
:10097000500461E08E85DF91CF911F910F910C940F
:100980009502CF92DF92EF92FF920F931F93CF9336
:10099000DF93EC016B01F42E890140E062E00E94DC
:1009A000A40444E06AE0CE010E94A40440E864E1AB
:1009B000CE010E94A404A6016F2DCE010E9457040F
:1009C00043E062E0CE010E94A4048FB7F894C09087
:1009D0003705D0903805E0903905F0903A058FBF83
:1009E00089E5C80ED11CE11CF11C6AE0CE010E9411
:1009F000860482FF1BC040E062E0CE010E94A40496
:100A000064E4CE010E948604F801808362E4CE0192
:100A10000E948604F801818380E0DF91CF911F91CD
:100A20000F91FF90EF90DF90CF9008952FB7F8943B
:100A30008091370590913805A0913905B0913A051C
:100A40002FBF8C159D05AE05BF0578F283E0E5CF7D
:100A50002F923F924F925F926F927F928F929F92CE
:100A6000AF92CF92DF92EF92FF920F931F93CF93AB
:100A7000DF9300D0CDB7DEB74C012B01D42E390166
:100A800080E0E114F10411F0F70180813C2C3294F4
:100A900090EF3922380E40E062E0C4010E94A404C5
:100AA0004FE768E0C4010E94A40440E864E1C40187
:100AB0000E94A404A2016D2DC4010E945704432D7D
:100AC0006AE1C4010E94A4044CE062E0C4010E94F7
:100AD000A4046AE1C4010E948604482F40686AE1C8
:100AE000C4010E94A4048FB7F89420903705309079
:100AF00038054090390550903A058FBFF4E22F0E2B
:100B0000311C411C511C68E0C4010E948604982FCE
:100B1000907309F0C0C080FF15C083E00F900F9064
:100B2000DF91CF911F910F91FF90EF90DF90CF90C9
:100B3000AF909F908F907F906F905F904F903F907D
:100B40002F9008952FB7F89480913705909138052C
:100B5000A0913905B0913A052FBF82159305A405E0
:100B6000B50588F2DACF6114710409F469C0011582
:100B7000110509F465C064E1C4010E948604382EA1
:100B8000F8018081831508F480C030823320E1F1C0
:100B900080E590E00E94180160E0F40186850E94E3
:100BA00095023A9482E90E945004CC20B1F08FEF74
:100BB00090E09C0102C0220F331FCA94E2F7690142
:100BC00082E90E9450049C2D9095F301208192238C
:100BD0008C21982B9083CC24C39423014C0C511C62
:100BE000C31440F482E90E945004F20181932F0162
:100BF000C394F6CF80E00E945004F201808361E04C
:100C0000F40186850E94950268E1C4010E94860471
:100C10008770E114F10411F0F701808323FC37C0E1
:100C200061147104B1F10115110599F1AA2089F13E
:100C3000F8014081413031F4843029F58FEF6ECFD7
:100C400080E0ECCF4230F8F081111DC042509E018F
:100C50002F5F3F4FB301C4010E94C10481115ECFD9
:100C6000F8019081690E711CF301329720819981FE
:100C7000291309C0F1E06F1A7108F30120819A81EC
:100C8000291709F44BCF87E049CF84E047CF82E0B2
:100C900045CF80E043CF6CE0C4010E948604282E3B
:100CA000837109F460CF81E039CF8F929F92AF9228
:100CB000CF92EF92FF920F931F93CF93DF9300D0C9
:100CC00000D01F92CDB7DEB74C0182E08D8340E0AB
:100CD00064E2C4010E94A40440E066E2C4010E94F0
:100CE000A40446E268E4C4010E94A40486E28B8363
:100CF0008D818230D8F16CE1C4010E948604482FB6
:100D00004F776CE1C4010E94A40487E08C83A12C7E
:100D1000C12CCE0104967C018E010B5F1F4F9E01FA
:100D20002F5F3F4F41E0BE016D5F7F4FC4010E94C6
:100D30002805982F811117C08D818230B9F48C81DC
:100D4000811114C081E00F900F900F900F900F90C1
:100D5000DF91CF911F910F91FF90EF90CF90AF90C7
:100D60009F908F90089581E0923069F380E0EBCFFF
:100D70002F923F924F925F926F927F928F929F92AB
:100D8000AF92BF92CF92DF92EF92FF920F931F9399
:100D9000CF93DF93CDB7DEB72D970FB6F894DEBFB4
:100DA0000FBECDBF16E0413508F04AC1342E3B01DD
:100DB0004C016CE10E948604482F4F776CE1C4011E
:100DC0000E94A40483E98983332029F081E0F301A0
:100DD0009081953008F480E022242394B12C9B2D3F
:100DE000990F990F990FD32CD91AD7FCD12C32E037
:100DF000882319F098E89B8333E021E09D2D9770BC
:100E000009F420E09D2D959595959595290FC9F0AC
:100E100094E0811193E0291708F4922FEB2DF0E074
:100E20003196E60DF71D232F4191A1E0B0E0AC0F04
:100E3000BD1FA20FB11D4C932F5F422F431B4917BB
:100E400098F3882311F0F8E0DF0E8FE18D150CF098
:100E500082C090E79A838B819C8189279D81892715
:100E60009E8189278F839E01285F3F4F47E0BE0107
:100E70006F5F7F4FC4010E94C104182F8111E0C031
:100E80001A86E3E0EB87DC86CE0107962C0199E019
:100E90009D87CA844C2D4295407F4C0D6AE1C40168
:100EA0000E94A404A12CCE010A967C018E01055F4C
:100EB0001F4F92014D85BE016F5F7F4FC4010E949D
:100EC0002805182F823009F065C06CE1C4010E942A
:100ED000860485FDB5C08F7109F480E2282F30E0CB
:100EE0004D2DDD0C550B421753070CF09DC0D82E2D
:100EF000E82FE595E595E595EF5F982F977081E0F0
:100F000009F480E0E80F81E090E08C0F9D1F8E0FC8
:100F1000911DFC01215031092770332781E090E0B9
:100F200002C0880F991F2A95E2F79C018081822BCD
:100F300080838BCF85E98983332031F081E0F30111
:100F40009081983008F04BCF80E049CF87E98983C2
:100F500026E0B22EF9CF9D2D97709A878D2D85951D
:100F6000859585958E5F282F2295207F290F2A83CE
:100F700021E0911101C020E0280F2D8744244394E3
:100F8000512C4C0E5D1E480E511CE9E0E81BEB870E
:100F9000DC867FCF811154C080E2D82E9C859032B0
:100FA0000CF457CF8B81883809F040C083E093E080
:100FB000EB2DF0E03196E60DF71D980FA1E0B0E0C3
:100FC000AC0FBD1FA80FB11D2C9121938F5F89130A
:100FD000F5CFBB84E3E0BE124DC08A8581114AC0C3
:100FE0009E012D5F3F4F41E0B201C4010E94C10448
:100FF000182F811125C09B81F201818198133CC07B
:101000009C818281981338C0808182FF12C0239412
:10101000F2E02F1609F48ECF83E0281609F496CF5C
:1010200091E0291609F4CECE15E00AC082E094E0E2
:10103000BFCFF3018387822D880F820D8F5F80835E
:10104000812F2D960FB6F894DEBF0FBECDBFDF9176
:10105000CF911F910F91FF90EF90DF90CF90BF90B5
:10106000AF909F908F907F906F905F904F903F9048
:101070002F90089511E0E4CF17E0E2CF8F929F9276
:10108000AF92BF92CF92DF92EF92FF92CF93DF9316
:10109000FC018281938168177907D8F54A01AA2457
:1010A000BB24C32ED42EE52EFF24DC2DC22F808539
:1010B000982D882391F0C82FD0E0C89DD001C99DFC
:1010C000B00DD89DB00D11249B2F8C9D6001112473
:1010D000DD2D829F90011124C32FA68521853285A5
:1010E0008385A81321C0AB01440F551F640F751FE2
:1010F000620F731FA385A60FB72FB11D9C93A48504
:10110000A60FB72FB11DDC938585680F711DFB01FC
:10111000C083DF91CF91FF90EF90DF90CF90BF9091
:10112000AF909F908F900895660F771F660F771F7F
:10113000620F731FA60FB72FB11D1C92DBCFCF928A
:10114000DF92EF92FF920F931F93CF93DF93CDB770
:10115000DEB729970FB6F894DEBF0FBECDBF8C0166
:10116000DC0119968D919C91892B09F473C00E9422
:101170003B03F801C784D088E188F2886C157D05AF
:101180008E059F0520F46787708B818B928BF80109
:10119000C784D088E188F2886C197D098E099F097F
:1011A0006C3271408105910510F3F894D8011496C2
:1011B0008D919C9115979A8389831996ED91FC9155
:1011C0007F01BFEFEB1AFB0A80818987F8019081CC
:1011D0000388F489E02DD80155968C91992309F460
:1011E00048C09081982B98879081809589238F8320
:1011F0008F818C8388E08B8358856F8149853B8103
:101200002C8189819A81D701508347FD252F3A95FA
:101210002083262F39F0441F00C0000060830000A7
:1012200000C0F2CF38E04D9160830000019761F774
:10123000D8015496FC93EE93539749873B832C83B4
:101240009A83898378940E943B03F8016787708BA7
:10125000818B928B29960FB6F894DEBF0FBECDBF5F
:10126000DF91CF911F910F91FF90EF90DF90CF9082
:1012700008959081982B98879081809589238F83FA
:101280008F818E8388E08D8358856F8149853D816C
:101290002E8189819A81D701508347FD252F00C077
:1012A00000C0208300C000C000C000C000C0608338
:1012B0000000262F3A9541F0441F000000C000C0F6
:1012C00000C000C000C0E8CF38E04D9100C060838E
:1012D00000C0019709F7D8015496FC93EE935397F9
:1012E00049873D832E83ACCFCF93DF93EC018E8172
:1012F0009F8197FD07C061E00E94EF0260E08E8150
:101300000E94950281E08983DF91CF910895209119
:101310004E02260F3327331F21323105ECF4209182
:101320007202FC0190E080E0243069F082E00895D0
:10133000A0914E022191AC01425D5D4FA40FB52FEB
:10134000B11D2C930196861798F380914E02680F79
:1013500060934E0280E0089581E008958FEF9FEF43
:1013600008958FEF9FEF08958091270290E0919567
:10137000819591090895CF93DF93CB01EA01642F02
:101380000E948709CE01DF91CF910895CF93DF931B
:101390001F92CDB7DEB7698361E0CE0101960E944E
:1013A000870981E090E00F90DF91CF91089590E060
:1013B00080E008954F925F926F927F928F929F92FA
:1013C000AF92BF92CF92DF92EF92FF920F931F9353
:1013D000CF93DF9300D0CDB7DEB78C0149832A834A
:1013E000660F771FF801EA5AFF4FE080F180EE0C9C
:1013F000FF1CF801CF01801B910B8E159F0514F483
:101400001192F8CF8981F801E60FF71F81838A8155
:101410008083680184E5C80ED11C60E0F6018081FC
:101420000E9495025801F2E5AF0EB11C480180E51B
:10143000880E911C1E141F040CF5E1E0EE1AF10851
:10144000F801EE0DFF1D6080F5015080F401408031
:1014500088E0782E662D661F6627661F842D0E9401
:101460009502660C61E0852D0E94950260E0852D55
:101470000E9495027A947110EDCFDCCF61E0F60105
:1014800080810F900F90DF91CF911F910F91FF906E
:10149000EF90DF90CF90BF90AF909F908F907F9014
:1014A0006F905F904F900C949502CF92DF92EF92E5
:1014B000FF921F93CF93DF937C016B01EB0183E0DD
:1014C000CC0FDD1F8A95E1F76096CE0DDF1D11E090
:1014D000199220E0412FB601C7010E94DA091F5F6F
:1014E0001930B1F7DF91CF911F91FF90EF90DF900E
:1014F000CF900895FC0101900020E9F73197AF01EA
:10150000481B590BBC018BE395E00C941B018F9297
:101510009F92AF92BF920F931F93CF93DF93CDB75C
:10152000DEB7A1970FB6F894DEBF0FBECDBF19A2EC
:10153000423008F44AE08E010F5D1F4F842E912C3B
:10154000B12CA12CA50194010E943721E62FB901ED
:10155000CA01EA30F4F4E05DD801EE938D01232B4B
:10156000242B252B79F790E080E0109719F0CD011E
:101570000E947A0AA1960FB6F894DEBF0FBECDBFC7
:10158000DF91CF911F910F91BF90AF909F908F905F
:101590000895E95CE1CFCF92DF92EF92FF92CF9373
:1015A000DF936B017C016DE28BE395E00E94BB0150
:1015B000EC0166277727CB016C197D098E099F09FD
:1015C0004AE00E94870A8C0F9D1FDF91CF91FF9008
:1015D000EF90DF90CF900895BC01990F880B990B85
:1015E00097FD0C94CB0A4AE00C94870ACF93DF93C3
:1015F000BC01990F880B990B97FF0CC00E94CB0A76
:10160000EC0187E391E00E947A0A8C0F9D1FDF9125
:10161000CF9108954AE00E94870AF2CF4F925F92DD
:101620006F927F928F929F92AF92BF92CF92DF92F2
:10163000EF92FF920F931F93CF936B017C01742E57
:10164000AC019B010E94D222882399F08AE391E0A9
:10165000CF911F910F91FF90EF90DF90CF90BF90AF
:10166000AF909F908F907F906F905F904F900C9471
:101670007A0A46015701E894B7F82FEF3FEF4FE79A
:101680005FE7C501B4010E94D22281110DC02FEF86
:101690003FEF4FE75FE7C501B4010E94AA1F18168C
:1016A0001CF48EE391E0D4CF2FEF3FEF4FE75FE4E0
:1016B000C701B6010E947D2218161CF482E491E055
:1016C000C7CF2FEF3FEF4FE75FECC701B6010E9496
:1016D000AA1F87FDF3CF20E030E0A901C701B601C2
:1016E0000E94AA1F10E000E087FF0AC06DE28BE3B2
:1016F00095E00E94BB018C01F7FAF094F7F8F094A2
:10170000C0E060E070E080E09FE37C1641F020E004
:1017100030E040E251E40E94D521CF5FF6CFA7012F
:1017200096010E9469212B013C010E944E224B012F
:101730005C014AE00E94870A7C01E00EF11ECC2386
:10174000C1F1C501B4010E94AF1F9B01AC01C301EF
:10175000B2010E9468214B015C016EE28BE395E0CF
:101760000E94BB01E80EF91EC15018F120E030E0E4
:1017700040E251E4C501B4010E9410202B013C015C
:101780000E944E224B01B12CA12C4AE0C501B401AC
:101790000E94870AE80EF91EC501B4010E94AF1F1E
:1017A0009B01AC01C301B2010E9468214B015C01A5
:1017B000DBCFC701CF911F910F91FF90EF90DF908A
:1017C000CF90BF90AF909F908F907F906F905F90E1
:1017D0004F900895CF93DF9342E00E940E0BEC01EF
:1017E00087E391E00E947A0A8C0F9D1FDF91CF91D1
:1017F0000895CF93DF93D0E0C0E0009719F00E94E6
:101800007A0AEC0187E391E00E947A0A8C0F9D1F0F
:10181000DF91CF910895CF93DF930E940802EC01EE
:1018200087E391E00E947A0A8C0F9D1FDF91CF9190
:1018300008950F931F93CF93DF93EC01162F072F7B
:10184000198218861F86188A198A1A8A81E08E875B
:101850008B871C8692E09D87888384E290E09D833D
:101860008C830E948C239A878987009779F124E2E0
:10187000FC0111922A95E9F78CE090E09B838A8322
:101880001E830F838981882341F061E0812F0E94AC
:10189000EF0260E0812F0E949502812F902FFC01C2
:1018A000E055FE4FE491F0E0EE0FFF1FEA55FE4FCA
:1018B000259134913C8B2B8BFC01EC53FE4FE49132
:1018C000ED8BDF91CF911F910F9108951D821C82A6
:1018D0001B821A82D5CF1F93CF93DF9385ED809320
:1018E000BC0080912A0290912B02A0912C02B09111
:1018F0002D020796A11DB11D23E0B695A7959795DA
:1019000087952A95D1F72091BC0024FD03C0109241
:10191000720252C040912A0250912B0260912C0217
:1019200070912D02452B462B472B69F30097A1059B
:10193000B10541F02AE22A95F1F700C00197A1090B
:10194000B109E1CF80912902C1E0C0932802882328
:1019500099F1D091B8001091BA008091BC008A7BB7
:101960008093BC0060E082E10E94950260E083E128
:101970000E94950210927202C09374021092730238
:1019800061E082E10E94950261E083E10E9495029C
:101990008091B9008E7F8093B9008091B9008D7FCE
:1019A0008093B90088E48093B80085E48093BC00FC
:1019B0001093BA00D093B800DF91CF911F91089592
:1019C0001F920F920FB60F9211242F933F934F93B4
:1019D0005F936F937F938F939F93AF93BF93EF9397
:1019E000FF9380911D0590911E05A0911F05B09158
:1019F0002005892B8A2B8B2BD1F190911805E09132
:101A00001905F0911A0580818927808380911D0531
:101A100090911E05A0911F05B0912005181619067A
:101A20001A061B069CF480911D0590911E05A0913D
:101A30001F05B09120050197A109B10980931D05EB
:101A400090931E05A0931F05B0932005FF91EF9181
:101A5000BF91AF919F918F917F916F915F914F91C6
:101A60003F912F910F900FBE0F901F90189580916E
:101A700001010E94C302EACF1F920F920FB60F928C
:101A800011242F933F934F935F936F937F938F9383
:101A90009F93AF93BF93EF93FF938BE395E00E94E7
:101AA0009901FF91EF91BF91AF919F918F917F919C
:101AB0006F915F914F913F912F910F900FBE0F90BB
:101AC0001F9018951F920F920FB60F9211242F930B
:101AD0008F939F93EF93FF93E0914B05F0914C050B
:101AE0008081E0915105F091520582FD1BC09081EB
:101AF000809154058F5F8F7320915505821741F0B7
:101B0000E0915405F0E0E55CFA4F958F8093540521
:101B1000FF91EF919F918F912F910F900FBE0F909A
:101B20001F9018958081F4CF1F920F920FB60F92DD
:101B300011242F933F938F939F93AF93BF938091E3
:101B4000370590913805A0913905B0913A0530914B
:101B5000D80223E0230F2D3758F50196A11DB11DA2
:101B60002093D8028093370590933805A0933905C8
:101B7000B0933A058091D9029091DA02A091DB02EC
:101B8000B091DC020196A11DB11D8093D902909302
:101B9000DA02A093DB02B093DC02BF91AF919F9178
:101BA0008F913F912F910F900FBE0F901F9018951E
:101BB00026E8230F0296A11DB11DD2CF1F920F92CE
:101BC0000FB60F9211242F933F934F935F936F9310
:101BD0007F938F939F93AF93BF93EF93FF93E09186
:101BE000DF02F091E002309749F0A685B785858540
:101BF000968D91FF14C09C918923A1F4FF91EF91E0
:101C0000BF91AF919F918F917F916F915F914F9114
:101C10003F912F910F900FBE0F901F9018959C91A0
:101C2000892361F7A389B4899C918589809589234B
:101C30008C93868997890197F1F7608D718DA685C0
:101C4000B785558538E020E0CB010197F1F7822F69
:101C500090E095958795282F4C91452309F02068B1
:101C6000315091F7868D81FD20958091DE0290E0C4
:101C700001968F7399273091DD02381799F0A09162
:101C8000DE02B0E0A856BD4F2C938093DE02828D19
:101C9000938D0197F1F7A389B4898C919589892B4C
:101CA0008C93ACCF868D8160868FF1CF1F920F927F
:101CB0000FB60F9211242F933F934F935F936F931F
:101CC0007F938F939F93AF93BF93EF93FF938091F5
:101CD000B900887F803609F44AC0F0F5883209F4EB
:101CE000A5C018F5803109F499C0B8F4882309F427
:101CF000F5C0883009F492C0FF91EF91BF91AF9188
:101D00009F918F917F916F915F914F913F912F9113
:101D10000F900FBE0F901F901895883109F486C060
:101D2000803251F78093710214C0803409F49BC053
:101D300040F48033B9F38833F9F68093710285EC6F
:101D4000AEC0803509F483C0883509F494C0883466
:101D500099F60E946B0CD0CF883909F48AC038F507
:101D6000883729F050F4883611F0803729F683E05F
:101D7000809372021092700255C0883809F479C0BD
:101D8000803919F0803809F0B7CF80917002803225
:101D900008F06FC0E091700281E08E0F80937002B6
:101DA0008091BB00F0E0E05BFD4F80833BC0803B57
:101DB00039F0D0F4803A09F477C0883A09F09CCF22
:101DC00084E08093720210924F0210924E02F0E073
:101DD000E0E0099580914E0281110FC081E080936F
:101DE0004E0210922E0209C0803C09F4A8CF883C14
:101DF00009F4A5CF883B09F07FCFE0914F0281E045
:101E00008E0F80934F02F0E0E25DFD4F8081809362
:101E1000BB0090914F0280914E0229C080919702A1
:101E20008093BB0085EC8093BC0066CF90919602B6
:101E300080919502981758F5E091960281E08E0FF7
:101E400080939602F0E0EB58FD4F8081E9CFE0915E
:101E5000960281E08E0F809396028091BB00F0E0A5
:101E6000EB58FD4F808390919602809195029817D0
:101E7000C8F285E8D8CFE091960281E08E0F80937A
:101E800096028091BB00F0E0EB58FD4F808380917B
:101E9000740281115ECF81E08093730284EA8093A3
:101EA000BC001092720228CF85EC8093BC00109287
:101EB000720280917002803230F4E0917002F0E0A2
:101EC000E05BFD4F10826091700270E080E592E06F
:101ED000F0E0E0E00995109270020ECF10927102CE
:101EE00038CF1F920F920FB60F9211242F933F936A
:101EF0004F935F936F937F938F939F93AF93BF9312
:101F0000CF93DF93EF93FF9380912602C091FC055E
:101F1000D0E087FF24C01092850010928400809149
:101F200026028F5F8093260280912602082E000CE5
:101F3000990B8C179D0724F4809126028C30C4F1F4
:101F40008091840090918500049680349C4908F427
:101F50007AC08091840090918500049676C080912B
:101F60002602082E000C990B8C179D07C4F6E091F1
:101F700026028E2FEE0F990BFC01EE0FFF1FE80FCC
:101F8000F91FE852FA4F808186FFC9CFE0912602FF
:101F90008E2FEE0F990BFC01EE0FFF1FE80FF91FBC
:101FA000E852FA4F808160E08F730E949502B7CFAC
:101FB0002091840030918500E09126028E2FEE0F53
:101FC000990BFC01EE0FFF1FE80FF91FE852FA4FC3
:101FD00081819281820F931F909389008093880062
:101FE000E09126028E2FEE0F990BFC01EE0FFF1FE2
:101FF000E80FF91FE852FA4F808186FF11C0E09187
:1020000026028E2FEE0F990BFC01EE0FFF1FE80F3B
:10201000F91FE852FA4F808161E08F730E949502A8
:10202000FF91EF91DF91CF91BF91AF919F918F91F0
:102030007F916F915F914F913F912F910F900FBEC4
:102040000F901F90189580E49CE9909389008093ED
:1020500088008FEF80932602E3CFCF92DF92EF923A
:10206000FF920F931F93E82FF92F05C0015011091C
:102070002109310961F1908196239417B9F305C0C4
:10208000015011092109310911F19081962394130E
:10209000F7CFC12CD12CE12CF12C0AC08FEFC81A3C
:1020A000D80AE80AF80A0C151D052E053F0579F037
:1020B00080818623841791F36C2D7D2D8E2D9F2D8D
:1020C0001F910F91FF90EF90DF90CF90089560E007
:1020D00070E080E090E01F910F91FF90EF90DF9013
:1020E000CF90089510923E0510923D0588EE93E042
:1020F000A0E0B0E080933F0590934005A093410598
:10210000B09342052DE031E030933C0520933B0530
:1021100025EC30E0309348052093470524EC30E06F
:1021200030934A052093490520EC30E030934C056C
:1021300020934B0521EC30E030934E0520934D0564
:1021400022EC30E03093500520934F0526EC30E030
:102150003093520520935105109254051092550565
:1021600010925605109257051092210610922006E3
:102170008093220690932306A0932406B09325060D
:1021800089E291E090931F0680931E061092350617
:1021900010923406109237061092360610923906C5
:1021A0001092380610923B0610923A0660913C0657
:1021B0006E7F6D7F60933C066695617081E0682755
:1021C00083E00E94950261E083E00E94EF02E7EC69
:1021D000F1E0E491E0932E06E3EBF1E0E491F0E02E
:1021E000EE0FFF1FEA55FE4F8591949190933006B4
:1021F00080932F0660E082E00E94EF0280913C060F
:1022000081FD04C061E082E00E94950282E080933B
:102210002A06E6ECF1E0E491E0932B06E2EBF1E034
:10222000E491F0E0EE0FFF1FE456FE4F859194918C
:1022300090932D0680932C061092150610921A0684
:1022400010921B0610921C0610921D061092160684
:102250001092170610921806109219068091FC052C
:102260008C30F8F491E0980F9093FC0580930D0664
:1022700090E0FC01EE0FFF1FE80FF91FE852FA4F44
:1022800088EB9BE0928381838FE191E09093FE0540
:102290008093FD058AE080930B068FEF80930C06F8
:1022A00008958FEF80930D06EFCFCF93DF93CDB7D7
:1022B000DEB7C858D1090FB6F894DEBF0FBECDBF48
:1022C000789484B5826084BD84B5816084BD85B511
:1022D000826085BD85B5816085BD80916E0081601D
:1022E00080936E00109281008091810082608093C3
:1022F00081008091810081608093810080918000C5
:102300008160809380008091B10084608093B100EF
:102310008091B00081608093B00080917A008460E9
:1023200080937A0080917A00826080937A00809115
:102330007A00816080937A0080917A00806880932F
:102340007A001092C100E0914B05F0914C0582E0BB
:102350008083E0914705F09148051082E09149059E
:10236000F0914A0580E1808310925305E0914F057A
:10237000F091500586E08083E0914D05F0914E0587
:10238000808180618083E0914D05F0914E058081D0
:1023900088608083E0914D05F0914E0580818068D2
:1023A0008083E0914D05F0914E0580818F7D808383
:1023B000109239061092380610923706109236069F
:1023C00010923506109234068DE991E090933B0609
:1023D00080933A0690912A06963108F047C02DEB7B
:1023E00030E030933506209334062BE931E030930A
:1023F0003706209336062CE231E0309339062093DD
:1024000038062091680084E0983048F031E09E3032
:1024100008F430E081E001C0880F3A95EAF7822B9A
:10242000809368002DE630E0983050F02BE630E0E5
:102430009E3030F02CE630E0963110F030E020E0B5
:102440003093320620933106292F30E0983008F07F
:1024500070C081E001C0880F9A95EAF78093330637
:1024600080913A0690913B060197F1F780913806EA
:1024700090913906892B49F1E091DF02F091E00259
:1024800026E0EE31F20709F1309739F0A389B489DB
:102490009C918589809589238C9380913C068E7FC1
:1024A00080933C061092DE021092DD028EE196E0EF
:1024B0009093E0028093DF02E0913106F0913206C2
:1024C000808190913306892B8083CE018F5A9F4F54
:1024D000AF969FAF8EAFAF9780910201811110929E
:1024E00002018BE395E00E947901892B11F40C9491
:1024F0000D1F66E070E080E090E00E946003E1EE76
:10250000F2E080E4DF011D928A95E9F77F0110E097
:102510008BE395E00E947901892BC1F08BE395E074
:102520000E9457011F33A0F71F5FF70181937F01BE
:10253000EFCF9E3040F42850310981E001C0880F70
:102540002A95EAF78BCF2E503109F7CFE12FF0E033
:10255000EF51FD4F108268E571E081EE92E00E943C
:10256000761F2C0168E571E090E080E00E94761F04
:102570001C0168E571E090E080E00E94761FE7961C
:102580009FAF8EAFE79768E571E090E080E00E9432
:10259000761FED969FAF8EAFED976AE571E0C201B1
:1025A0000E947725892B21F48EE591E00E94F90B9A
:1025B00066E671E0C2010E947725892B09F01BC2F3
:1025C0006EE671E0E7968EAD9FADE7970E94761FAD
:1025D0006C016EE671E090E080E00E94761F7C0165
:1025E0006EE671E090E080E00E94761F0E94581F26
:1025F0008C01C7010E94581F7C01C6010E94581F10
:10260000D82EC92E62968FAF629763969FAF63975D
:102610006596FFAEEEAE659767961FAF0EAF6797F4
:1026200081E090E069969FAF8EAF699761E08D2D54
:102630000E94EF0261E064968FAD64970E94EF0202
:1026400061E066968FAD66970E94EF0261E0669644
:102650008FAD66970E9495026296DFAE6297639691
:10266000CFAE6397FE0171969E012F5F3F4FE396B9
:102670003FAF2EAFE3971192AF968EAD9FADAF9760
:102680008E179F07C1F710E000E069968EAD9FADF1
:10269000699708171907CCF520E04FE0B801CE0183
:1026A00001960E94DA0969968EAD9FAD6997081769
:1026B00019073CF427E04BE0B801CE0101960E94D7
:1026C000DA0920E049E0B801CE0101960E94DA095A
:1026D00069968EAD9FAD6997081719072CF4B8015C
:1026E000CE0101960E94550A69968EAD9FAD6997FD
:1026F000081719073CF420E04CE0B801CE01019620
:102700000E94DA090F5F1F4FC0CF1816190634F464
:1027100070E060E0CE0101960E94550A69968EAD88
:102720009FAD69971816190644F421E04CE070E05B
:1027300060E0CE0101960E94DA0969968EAD9FADE8
:1027400069971816190644F425E04AE070E060E045
:10275000CE0101960E94DA09F1013196DE01A75AF5
:10276000BF4FC101439621912D938E179F07D9F733
:10277000EF961FAE1EAEEF9791E0E8969FAFE897F9
:10278000DE01A75ABF4FAD96BFAFAEAFAD97AD96C6
:10279000EEADFFADAD9701900020E9F731974F0105
:1027A000AD962EAD3FADAD97821A930AB4016F5F1F
:1027B0007F4F90E080E00E94B1243C01009709F433
:1027C0006AC0DC011C92BE01675A7F4F0E948025BF
:1027D000B0E0A0E020E030E040E050E060E070E0F9
:1027E00080E090E0A815B9050CF0A3C004E00E94B9
:1027F000392359016A017B018C01A815B90508F03C
:1028000059C06114710409F455C0F301EA0FFB1FAC
:10281000E081E053E73308F04DC00E2E000CFF0BB3
:10282000EC5EFB4E0C942C2395144E1453146C1434
:10283000711476147B148014851487145A145A1456
:102840005A145A145A145A145A1489148B148D1485
:102850008F14911493145A145A145A145A145A1463
:102860005A145A145A145A145A145A145A145A14F8
:102870005A145A145A145A145A145A145A145A14E8
:102880005A145A145A145A145A1489148B148D1445
:102890008F1491149314912C812C9ACFE1E0E1963E
:1028A000EFAFE19704C0F2E0E196FFAFE197E09669
:1028B0001FAEE097E1962FADE197E0963FADE09730
:1028C000932F990F990B492F592F692F792F892F02
:1028D0000E946F23119686CF23E0E1962FAFE197F8
:1028E000E6CF34E0E1963FAFE197E1CF45E0E196F6
:1028F0004FAFE197DCCF86E0E1968FAFE197D7CF7E
:1029000097E0E1969FAFE197D2CFE8E0C8CFF9E03A
:10291000CBCF2AE0E2CF3BE0E5CF4CE0E8CF8DE043
:10292000EBCF9EE0EECFEFE0BACFE1961FAEE1979E
:10293000BECFEE960FADEE970E945423E22E6114A7
:10294000710419F0C3010E94282410E000E0F12C6A
:1029500069968EAD9FAD69971816190654F580E8F3
:1029600090E0002E02C0959587950A94E2F7E396D1
:10297000AEADBFADE39750962C915097A701002EB6
:1029800002C0559547950A94E2F740FF6FC0822B2D
:1029900050968C93E396AEADBFADE39750962C91D5
:1029A000E8964FADE89770E060E0CE0101960E9496
:1029B000DA090F5F1F4F0830110551F6E396EEADAF
:1029C000FFADE3973196E396FFAFEEAFE397E8965E
:1029D000FFADE897FF5FE896FFAFE897EF962EAD63
:1029E0003FADEF97285F3F4FEF963FAF2EAFEF978A
:1029F000F93009F0CCCE60E771E0C2010E94772582
:102A0000892B09F025C10AE010E08EE196E00E94D2
:102A10000804892B09F4DCC08EE196E00E941E04B4
:102A20002091150530911605A9014F5F5F4F509316
:102A3000160540931505220F331FF901EF5DFC4F7A
:102A4000992791838083809121039091220382347E
:102A50009105A1F080912303909124038D34910579
:102A600069F01092160510921505CFCF809582233C
:102A7000E396EEADFFADE397808B8CCF47325105E7
:102A800020F230912903C058DF4F3883C058D0401E
:102A9000C158DF4F1882CF57D04080912B039091BF
:102AA0002C03C158DF4FA881B981CF57D0408A0F7E
:102AB0009B1F9093360580933505B0912D03CE571B
:102AC000DF4FB883C258D040CF57DF4F1882C1586C
:102AD000D04080912F0390913003CF57DF4FE88192
:102AE000F981C158D0408E0F9F1F90933405809379
:102AF0003305F0913103CC57DF4FF883C458D040F1
:102B0000CD57DF4F1882C358D04080913303909146
:102B10003403CD57DF4F28813981C358D040820F0D
:102B2000931F909332058093310530915103CA571A
:102B3000DF4F3883C658D040CB57DF4F1882C55877
:102B4000D0408091530390915403CB57DF4FA8811D
:102B5000B981C558D0408A0F9B1FB8010E94182325
:102B6000072E000C880B990B0E94B11F60932D0556
:102B700070932E0580932F0590933005B0915503E7
:102B8000C857DF4FB883C858D040C957DF4F1882A5
:102B9000C758D0408091570390915803C957DF4FD1
:102BA000E881F981C758D0408E0F9F1FB8010E945D
:102BB0001823072E000C880B990B0E94B11F6093FD
:102BC000290570932A0580932B0590932C0549CFF6
:102BD000609135057091360590E080E04AE00E94F2
:102BE000870A8AE991E00E9408026091330570919A
:102BF000340590E080E04AE00E94870A88E991E08D
:102C00000E940802609131057091320590E080E0E9
:102C10004AE00E94870A86E991E00E9408026091DA
:102C20002D0570912E0580912F059091300542E081
:102C30000E940E0B84E991E00E9408026091290530
:102C400070912A0580912B0590912C050E94EA0B2A
:102C500063E771E0C2010E947725892B09F0A1C0CA
:102C6000C1010E94581F082F82E991E00E940802CA
:102C70002114310419F0C1010E947A0A80E991E01F
:102C80000E94080281E08093000115E0C12CD12C44
:102C90007601802F0E942003BC0190E080E00E941A
:102CA000AF1F9B01AC01C701B6010E9469216B01F6
:102CB0007C016AE070E080E090E00E9460031150C7
:102CC00041F720E030E040EA50E4C701B6010E943D
:102CD000D5216B017C0187E791E00E947A0AC70148
:102CE000B6010E94EA0BA701960160E070EC8FE745
:102CF00094E40E94D52120E030E040E85FE30E94A8
:102D0000682120E030E44CE156E40E9410206B0181
:102D10007C018FE891E00E947A0AC701B6010E9407
:102D2000EA0B20E030E44CE156E4C701B6010E9412
:102D3000D5210E948A2220E030EE46E755E40E9429
:102D4000D5212FE03FEC4BE55BE30E9469219B011D
:102D5000AC0160E070E080E89FE30E94D52123E3AE
:102D600033E948E853E40E9468216B017C0186EA5C
:102D700091E00E947A0A42E0C701B6010E940E0B60
:102D800083EB91E00E94F90B20E030E040E251E457
:102D9000C701B6010E9410200E944722CB010E9469
:102DA000F60A67EB71E0C2010E947725892B09F0D2
:102DB000B2C0C1010E94581FBC01CE0101960E9401
:102DC000190CCE0101960E9474096EE671E0E79637
:102DD0008EAD9FADE7970E94761F612C712C812CE0
:102DE000912CD12CC12CAAE0AA2EB12C0E94581FE4
:102DF000FC01843691050CF47FC064E670E00E940B
:102E000018239B014CE94603C001479F900D1124F4
:102E10008E0F9F1FB5010E9418238B01CF01B501B2
:102E20000E9418237C01B901615071090115110537
:102E300009F44AC00130110591F56C01CC0CDD1C80
:102E4000C80ED91E10E000E096010D2C000C440BBA
:102E5000550BA90133272227C7010F2C000CAA0B01
:102E6000BB0BBA2FA92F982F8827822B932BA42B2B
:102E7000B52B9801012E000C440B550B282B392B38
:102E80004A2B5B2BCE0101960E943E086EE671E054
:102E900090E080E00E94761F38014701A7CF023002
:102EA0001105B1F003301105B9F004301105C9F076
:102EB00005301105D1F006301105C9F007301105B4
:102EC000C9F083017401C0CF6C01F12CE12CBCCF9F
:102ED00010E000E06701B8CF10E000E0D12CC12C79
:102EE000B3CF8C01F12CE12CF9CF8C01F7CF8C0101
:102EF0006C01EBCF8C01EECFCE0101960E949F08B2
:102F00008A859B850E9428248F81988597FD03C020
:102F100060E00E94EF026AEB71E0C2010E94772537
:102F2000892B09F082C06EE671E0E7968EAD9FAD09
:102F3000E7970E94761F0E94581F082F6EE671E0E7
:102F400090E080E00E94761F0E94581F882E6EE657
:102F500071E090E080E00E94761F0E94581F182FB9
:102F6000C1010E94581FBC01CE0101960E94190C9C
:102F7000CE0101960E947409912CB12CA12CBA2C7F
:102F8000A92C982C8824A02A812AED96EEACFFACBF
:102F9000ED9767018CE0C80ED11C09E311E0D70161
:102FA0008D917D01813319F1823309F48EC1833310
:102FB00009F48EC1843309F48EC1853309F48EC1BE
:102FC000863309F48EC1873309F48EC1883309F43E
:102FD0008EC1893309F48EC1813609F48EC18236DF
:102FE00009F48EC1833629F405E511E002C003E53A
:102FF00011E0C8010E94581FA5019401BC01CE0137
:1030000001960E943E08CE14DF0449F6CE010196D7
:103010000E949F088A859B850E9428248F8198851D
:1030200097FD03C060E00E94EF026DEB71E0C2010A
:103030000E947725892B09F064C0C1010E94581FA6
:10304000F82EE7968EAD9FADE7970E94581F8C0132
:1030500061E08F2D0E94EF0260E0802F0E94EF025E
:1030600060E08F2D0E9495028FE090E00197F1F7CC
:1030700061E08F2D0E94950283E290E00197F1F7C5
:1030800060E08F2D0E94950260E0802F0E94EF0289
:103090001127F801EC53FE4F6491F801E055FE4F03
:1030A000E491F0E0EE0FFF1FE456FE4F85919491FE
:1030B00000E412E42FE030E0462F0E942D106B0157
:1030C0007C01C114D104E104F10439F0BFEFCB1A43
:1030D000DB0AEB0AFB0AEFE0FE228CE891E00E949B
:1030E0000802C701B60195958795779567950E9467
:1030F000B11F2DEC3CEC48EE51E40E94D5210E941A
:10310000EA0B65EC71E0C2010E947725892B09F07A
:1031100023C11FB7F89480911705811127C0EAEBEE
:10312000F1E08491EEECF1E09491E82FF0E0EE0F05
:10313000FF1FEE53FF4FA591B491EC91E92321F4C9
:1031400061E08AE00E94950261E08AE00E94EF025D
:103150008CB580618CBD8CB580648CBD61E08DE0E8
:103160000E94EF0261E08BE00E94EF028091170560
:103170008F5F809317051FBFE7968EAD9FADE797D2
:103180000E94581F182FC1010E94581F80930B06E0
:1031900010930C0661E00E94EF0261E080910B0643
:1031A0000E94950280910C068F3F09F4ACC060E04C
:1031B0000E94EF0280910C060E946C02892B09F09C
:1031C000A2C061E080910C060E94EF0260E0809155
:1031D0000C060E94950283E090E00197F1F761E010
:1031E00080910C060E94950262E370E080E090E01E
:1031F0000E94600340E064E28DEF95E00E94A40429
:1032000040E066E28DEF95E00E94A40446E268E4A7
:103210008DEF95E00E94A40440E864E58DEF95E011
:103220000E94A40449EA66E58DEF95E00E94A4049B
:1032300043E068E58DEF95E00E94A40448EE6AE55E
:103240008DEF95E00E94A40440E46AE28DEF95E0E2
:103250000E94A4044DE362E28DEF95E00E94A40475
:1032600068E28DEF95E00E948604982F937093306A
:1032700039F0482F436068E28DEF95E00E94A40486
:103280006EE68DEF95E00E948604182F83E591E0AD
:103290000E940802612F70E090E080E040E10E940F
:1032A000870A80E491E0103909F44DC008F042C06B
:1032B0008CE191E0123109F446C088E491E01838BD
:1032C00009F441C08FE091E03EC006E511E091CEE7
:1032D00006E411E08ECE04E611E08BCE03EC11E0A3
:1032E00088CE08E411E085CE0AE411E082CE0CE439
:1032F00011E07FCE0EE411E07CCE00E511E079CE46
:1033000002E511E076CE4FE062E08DEF95E00E949D
:10331000A40413E062E370E080E090E00E946003A8
:1033200062E08DEF95E00E94860484FF63CF115028
:1033300089F760CF88E391E0113929F080E391E0CB
:10334000123909F0BFCF0E940B0C11501E3F20F024
:103350008CEC90E00E940B0C6AEC71E0C2010E94C0
:103360007725892B09F047C08DEF95E00E9455061F
:10337000882309F440C08DEF95E00E943F04882324
:10338000D1F187E891E00E94080210E08091FF05EA
:10339000181768F4E12FF0E0E350FA4F638170E012
:1033A00090E080E04AE00E94870A1F5FEFCF89E348
:1033B00091E00E94F90B80E589831A829E012D5FBE
:1033C0003F4F42E0BE016F5F7F4F8DEF95E00E945F
:1033D000C104811110C0A12CC12CF12CE12C10E0F2
:1033E00000E030E020E044E0BE016F5F7F4F8DEFF2
:1033F00095E00E9428056FEC71E0C2010E947725DC
:103400007C01892B09F0A8C0C1010E94581F60E00F
:103410000E94EF02C1010E94581F182F80911506CB
:10342000882309F0F8941092100610921106109259
:103430001206109213061092140661E0812F0E946A
:10344000EF0260E0812F0E94950262E170E080E06F
:1034500090E00E94600360E0812F0E94EF028BE900
:1034600090E00197F1F7A0E9CA2EDD24D394812FD3
:103470000E946C02892B49F4F1E0CF1AD108B9F708
:103480005EEFE52EFF24FA944BC0F0E9CF2EDD2449
:10349000D394812F0E946C02019729F421E0C21A73
:1034A000D108B9F7EDCFE8E2DE2E00E8C12C70E9D3
:1034B000A72EBB24B394812F0E946C02892B29F480
:1034C00031E0A31AB108B9F7DBCF0E943B033B01FF
:1034D0004C0160E9A62EBB24B394812F0E946C029C
:1034E000019729F441E0A41AB108B9F7C9CF0E94A5
:1034F0003B036619770988099909693271058105C5
:10350000910538F0EC2DF0E0E05FF94F8081802BE1
:103510008083069511F4C39400E8DA94D110C7CFE4
:1035200080911506882309F07894EF2809F421C1C9
:1035300080E090ECA9E7B4EC809316069093170610
:10354000A0931806B093190680931A0690931B0651
:10355000A0931C06B0931D0668ED71E0C2010E94A5
:103560007725892BC9F460911A0670911B0680910A
:103570001C0690911D0642E00E940E0B85E891E02A
:103580000E94080260911606709117068091180635
:10359000909119060E94EA0B62EE71E0C2010E944E
:1035A0007725892B09F03CC2C1010E94581F7C017C
:1035B000ED968EAD9FADED970E94581F0397ED9647
:1035C0009FAF8EAFED97092E000CAA0BBB0BE596B3
:1035D0008CAF9DAFAEAFBFAFE597E7968EAD9FAD19
:1035E000E7970E94581F3C01809101018E1110C184
:1035F000E8E6F1E0149117FD00C261E08E2D0E9413
:10360000EF02112319F0123009F04DC34301B12C20
:10361000A12C60E072E18AE790E0A50193010E948D
:10362000CE20EB962CAF3DAF4EAF5FAFEB9769016D
:103630007A0191E0C91AD108E108F108AFEFCA1682
:10364000D104E104F10409F00CF4ACC160E472E4CB
:103650008FE090E0A50193010E94CE2069017A01DC
:10366000B1E0CB1AD108E108F108123009F04DC1E0
:1036700082E0EFEFCE16D104E104F10409F00CF47E
:1036800071C060E970ED83E090E0A50193010E94B4
:10369000CE2069017A01F1E0CF1AD108E108F108E2
:1036A00083E02FEFC216D104E104F10409F00CF419
:1036B00059C068E478EE81E090E0A50193010E9492
:1036C000CE2069017A01F1E0CF1AD108E108F108B2
:1036D00084E02FEFC216D104E104F10409F00CF4E8
:1036E00041C064E274EF80E090E0A50194010E9483
:1036F000CE2069017A0191E0C91AD108E108F108E8
:1037000085E0AFEFCA16D104E104F10459F150F19C
:1037100062E17AE780E090E0A50194010E94CE206A
:1037200069017A0181E0C81AD108E108F10886E050
:103730009FEFC916D104E104F104A1F098F0EB96D3
:10374000CCACDDACEEACFFACEB978AE0F594E79443
:10375000D794C7948A95D1F7E1E0CE1AD108E10851
:10376000F10887E09091B100987F892B8093B10098
:1037700020C16091110670E090E080E00E94B11FCE
:103780002DEC3CEC4CEC5DE30E9410206B017C01C5
:103790006091100670E090E080E00E94B11F9B01F4
:1037A000AC01C701B6010E946921609316067093AF
:1037B00017068093180690931906109112066091CF
:1037C000130670E090E080E00E94B11F2DEC3CEC0D
:1037D0004CEC5DE30E9410206B017C01612F6F7740
:1037E00070E090E080E00E94B11F9B01AC01C70136
:1037F000B6010E94692117FD09C060931A067093F3
:103800001B0680931C0690931D06A6CE9058F5CFFC
:103810008F3F09F0F2C0E0920101E8E6F1E0149177
:103820001F3F09F4EAC0113041F150F0123009F4A1
:1038300046C017FDE2C061E08E2D0E94EF02E3CE8C
:1038400014BC15BC84B5826084BD85B5816085BD1E
:10385000C7019927FC01E055FE4FE491F0E0EE0F1F
:10386000FF1FEA55FE4F25913491FC01EC53FE4FAA
:10387000E491E0931C0510E0C0CE109280001092FD
:103880008100809181008860809381008091810017
:10389000816080938100C7019927FC01E055FE4FAC
:1038A000E491F0E0EE0FFF1FEA55FE4F25913491B1
:1038B000FC01EC53FE4FE491E0931B059ECE109269
:1038C000B0001092B1008091B00082608093B0008F
:1038D0008091B10081608093B100C7019927FC01FC
:1038E000E055FE4FE491F0E0EE0FFF1FEA55FE4F6A
:1038F0002591349130931A0520931905FC01EC535E
:10390000FE4FE491E093180578CE3FEFC316D10443
:10391000E104F10409F00CF4C4C168E478EE81E03C
:1039200090E0A50193010E94CE2069017A0181E017
:10393000C81AD108E108F10884E01111E2CE83E051
:103940003FEFC316D104E104F10479F174F162E1AF
:103950007AE780E090E0A50194010E94CE20690101
:103960007A01A1E0CA1AD108E108F10884E0BFEFAA
:10397000CB16D104E104F104C1F0B8F0EB96CCAC65
:10398000DDACEEACFFACEB979AE0F594E794D794FE
:10399000C7949A95D1F7B1E0CB1AD108E108F108A4
:1039A00085E003C081E01111DDCE95B5987F892BAC
:1039B00085BDE5968CAD9DADAEADBFADE5972FEF66
:1039C0003FEFA901892B8A2B8B2B09F0AAC111305B
:1039D00009F4B7C1123009F4C6C111110EC0C7BC39
:1039E00020932505309326054093270550932805FD
:1039F00080916E00826080936E00E5966CAD7DAD27
:103A00008EAD9FADE5970E946003C1010E94581FD3
:103A10000E94C30262E070E080E090E00E946003D8
:103A20006BEE71E0C2010E947725892B09F0DEC0A0
:103A3000C1010E94581F182F80910D068C3008F08C
:103A400052C061E0812F0E94EF0280910D06282F65
:103A500030E0F901EE0FFF1FE20FF31FE852FA4FBB
:103A60001F739081907C912B908310920E06109280
:103A70000F062CE0622F0E940C23829FB0011124BC
:103A800030E020E0AB01420F531FFA01EE0FFF1FA1
:103A9000E40FF51FE852FA4F908196FD16C02F5F94
:103AA0003F4F2C30310571F781110FC0109280000B
:103AB00082E0809381001092850010928400B19A78
:103AC00080916F00826080936F00E0910D068E2FD1
:103AD00090E0FC01EE0FFF1FE80FF91FE852FA4FCC
:103AE00080818064808310910D06E7968EAD9FAD36
:103AF000E7970E94581F8032A2E09A070CF03DC061
:103B000020910E06E8E8CE2ED12CC21AD10827FD4E
:103B1000D394CC0CDD1CCC0CDD1C0D2C000CEE0861
:103B2000FF0840910F0628E532E0241B310947FDCC
:103B30003395220F331F220F331F032E000C440B2B
:103B4000550B2C193D094E095F09DC01853B910598
:103B500014F0A4EBB0E0B7FF02C0B0E0A0E00E9418
:103B6000F82024EB30E040E050E00E94CE20DA0163
:103B7000C9018C0D9D1DAE1DBF1D1C3088F5209107
:103B80000E0648E850E0421B510927FD5395440FAB
:103B9000551F440F551F8417950784F020910F0679
:103BA00048E552E0421B510927FD5395440F551F2C
:103BB000440F551F841795070CF4AC01425051096E
:103BC000440F551F2FB7F894812F90E0FC01EE0FA2
:103BD000FF1FE80FF91FE852FA4F528341832FBFAE
:103BE00064E670E080E090E00E94600366EF71E0C0
:103BF000C2010E947725892BA1F483E891E00E94FD
:103C00000802C1010E94581F0E94EC0A81E891E05D
:103C10000E940802C1010E94581F0E9420030E94B6
:103C2000F60A61E072E0C2010E947725892BD1F487
:103C3000C1010E94581F60E00E94EF028FE791E0EF
:103C40000E940802C1010E94581F0E94EC0A8DE7E1
:103C500091E00E940802C1010E94581F0E946C025C
:103C60000E94F60A6DE072E0C2010E947725892B5E
:103C700009F0B6C0E7968EAD9FADE7970E94581F3A
:103C80008C01C1010E94581F7C0161E00E94EF027B
:103C90000115110509F077C060E08E2D0E94950294
:103CA0009FC082E080CEB12CA12C60E072E18AE757
:103CB00090E0A50193010E94CE2069017A01E1E024
:103CC000CE1AD108E108F10891E0C114D104F1E065
:103CD000EF06F10484F068E478EE81E090E0A5015D
:103CE00093010E94CE2069017A0181E0C81AD108AF
:103CF000E108F10893E0113009F05BCE809181007A
:103D0000887F892B80938100E5968CAD9DADAEAD0B
:103D1000BFADE5972FEF3FEFA901892B8A2B8B2BA6
:103D200081F09301220F331FED96AEADBFADED973D
:103D30000E94322328EE33E040E050E00E94372119
:103D400046CED0928900C0928800209321053093FE
:103D50002205409323055093240580916F008260D3
:103D600080936F004ACEC092B30020931D0530931C
:103D70001E0540931F0550932005809170008260BE
:103D8000809370003ACE0F3F110511F461E085CFAA
:103D9000F701FF27E759FE4FE491E33009F452C0E1
:103DA00048F4E130C9F0E23009F447C000381105A9
:103DB0006CF772CFE73009F44FC0E83009F454C013
:103DC000E430A1F78091800080628093800010939E
:103DD0008B0000938A0004C084B5806884BD07BD51
:103DE00069E172E0C2010E947725892B99F4C10133
:103DF0000E94581F61E00E94EF02E7968EAD9FADD2
:103E0000E7970E94581F182FC1010E94581F612F69
:103E10000E94950281E08093020180E090E0892B6E
:103E200011F40C946C120E948501882311F40C94F7
:103E30006C120E9400000C946C1284B5806284BDE8
:103E400008BDCECF80918000806880938000109361
:103E5000890000938800C4CF8091B000806880936F
:103E6000B0000093B300BCCF8091B000806280931B
:103E7000B0000093B400B4CF89E291E090931F06A4
:103E800080931E068091DF029091E0028E51964051
:103E900071F4E0913106F091320690818091330601
:103EA0008095892380831092E0021092DF020895AA
:103EB000FC0188279927E89421912032E9F32930E1
:103EC00010F02E30C8F32B3241F02D3239F46894C3
:103ED00004C00E94A21F820F911D219120532A30FD
:103EE000C0F31EF4909581959F4F08954DE356E0E1
:103EF0000E947B1F0895FA01A191B081009719F4E7
:103F00001097E1F0CD01DC01CD010D90002011F4FE
:103F1000C00113C0FB012191222319F02015D9F70C
:103F2000F3CFFB012191201519F41E92119606C0C2
:103F30002223C1F70D900020A1F7D001FA01A1932F
:103F4000B08308957AE0979F902D879F802D910DE3
:103F5000112408950E94EC1F08F481E00895E8946C
:103F600009C097FB3EF490958095709561957F4FC1
:103F70008F4F9F4F9923A9F0F92F96E9BB2793956F
:103F8000F695879577956795B795F111F8CFFAF47F
:103F9000BB0F11F460FF1BC06F5F7F4F8F4F9F4FB0
:103FA00016C0882311F096E911C0772321F09EE80E
:103FB000872F762F05C0662371F096E8862F70E074
:103FC00060E02AF09A95660F771F881FDAF7880F4E
:103FD0009695879597F90895990F0008550FAA0BA4
:103FE000E0E8FEEF16161706E807F907C0F012160C
:103FF0001306E407F50798F0621B730B840B950B0F
:1040000039F40A2661F0232B242B252B21F4089563
:104010000A2609F4A140A6958FEF811D811D089500
:104020000E9423200C9494200E94862038F00E9445
:104030008D2020F0952311F00C947D200C9483208A
:1040400011240C94C8200E94A52070F3959FC1F301
:10405000950F50E0551F629FF001729FBB27F00D36
:10406000B11D639FAA27F00DB11DAA1F649F66278B
:10407000B00DA11D661F829F2227B00DA11D621FDA
:10408000739FB00DA11D621F839FA00D611D221F94
:10409000749F3327A00D611D231F849F600D211D78
:1040A000822F762F6A2F11249F5750409AF0F1F0FB
:1040B00088234AF0EE0FFF1FBB1F661F771F881F64
:1040C00091505040A9F79E3F510580F00C947D20FF
:1040D0000C94C8205F3FE4F3983ED4F3869577951F
:1040E0006795B795F795E7959F5FC1F7FE2B880F0A
:1040F000911D9695879597F9089597F99F6780E8A0
:1041000070E060E008959FEF80EC089500240A9429
:104110001616170618060906089500240A941216A2
:104120001306140605060895092E0394000C11F4D5
:10413000882352F0BB0F40F4BF2B11F460FF04C082
:104140006F5F7F4F8F4F9F4F089557FD9058440FDB
:10415000551F59F05F3F71F04795880F97FB991FE6
:1041600061F09F3F79F087950895121613061406A3
:10417000551FF2CF4695F1DF08C016161706180630
:10418000991FF1CF86957105610508940895E8940B
:10419000BB2766277727CB0197F90895052E97FB54
:1041A0001EF400940E94E52057FD07D00E9437219D
:1041B00007FC03D04EF40C94E520509540953095C3
:1041C00021953F4F4F4F5F4F089590958095709583
:1041D00061957F4F8F4F9F4F08950E945921A59F52
:1041E000900DB49F900DA49F800D911D11240895F2
:1041F000B7FF0C94ED200E94ED20821B930B0895D5
:104200002F923F924F925F926F927F928F929F92E6
:10421000AF92BF92CF92DF92EF92FF920F931F93D4
:10422000CF93DF93CDB7DEB7CA1BDB0B0FB6F89485
:10423000DEBF0FBECDBF09942A88398848885F84C5
:104240006E847D848C849B84AA84B984C884DF8036
:10425000EE80FD800C811B81AA81B981CE0FD11D1A
:104260000FB6F894DEBF0FBECDBFED010895A1E2F9
:104270001A2EAA1BBB1BFD010DC0AA1FBB1FEE1FE0
:10428000FF1FA217B307E407F50720F0A21BB30B2B
:10429000E40BF50B661F771F881F991F1A9469F7A7
:1042A00060957095809590959B01AC01BD01CF0103
:1042B0000895A29FB001B39FC001A39F700D811DFF
:1042C0001124911DB29F700D811D1124911D08951F
:1042D0005058BB27AA270E9480210C9494200E944A
:1042E000862038F00E948D2020F039F49F3F19F489
:1042F00026F40C9483200EF4E095E7FB0C947D20CB
:10430000E92F0E94A52058F3BA17620773078407A4
:10431000950720F079F4A6F50C94C7200EF4E095EB
:104320000B2EBA2FA02D0B01B90190010C01CA016F
:10433000A0011124FF27591B99F0593F50F4503E1A
:1043400068F11A16F040A22F232F342F4427585F0C
:10435000F3CF469537952795A795F0405395C9F724
:104360007EF41F16BA0B620B730B840BBAF09150DC
:10437000A1F0FF0FBB1F661F771F881FC2F70EC07B
:10438000BA0F621F731F841F48F48795779567954E
:10439000B795F7959E3F08F0B0CF9395880F08F03A
:1043A0009927EE0F9795879508950E94E9210C941F
:1043B00094200E948D2058F00E94862040F029F41D
:1043C0005F3F29F00C947D2051110C94C8200C946F
:1043D00083200E94A52068F39923B1F3552391F31C
:1043E000951B550BBB27AA2762177307840738F064
:1043F0009F5F5F4F220F331F441FAA1FA9F335D0C1
:104400000E2E3AF0E0E832D091505040E695001C74
:10441000CAF72BD0FE2F29D0660F771F881FBB1F2E
:10442000261737074807AB07B0E809F0BB0B802D0C
:10443000BF01FF2793585F4F3AF09E3F510578F038
:104440000C947D200C94C8205F3FE4F3983ED4F395
:10445000869577956795B795F7959F5FC9F7880F0C
:10446000911D9695879597F90895E1E0660F771F5E
:10447000881FBB1F621773078407BA0720F0621BEF
:10448000730B840BBA0BEE1F88F7E09508950E941A
:104490004E226894B1110C94C82008950E94AD205A
:1044A00088F09F5798F0B92F9927B751B0F0E1F0F5
:1044B000660F771F881F991F1AF0BA95C9F714C0A5
:1044C000B13091F00E94C720B1E008950C94C7204C
:1044D000672F782F8827B85F39F0B93FCCF38695DE
:1044E00077956795B395D9F73EF49095809570953B
:1044F00061957F4F8F4F9F4F08950E94EC1F08F4E6
:104500008FEF089516F00C94D7220C9483206894B2
:104510000C947D200E94AD20A8F39923C1F3AEF343
:10452000DF93CF931F930F93FF92C92FDD2788232B
:104530002AF02197660F771F881FDAF720E030E016
:1045400040E85FEB9FE3883920F0803E38F0219609
:104550008F770E946921E8E6F0E004C00E9469219B
:10456000E5E9F0E00E94E5228B01BE01EC01FB2EA3
:104570006F5771097595771F880B990B0E94B11FB2
:1045800028E132E741E35FE30E942320AF2D980149
:10459000AE01FF900F911F91CF91DF910E9480217A
:1045A0000C9494200E94EC1F880B990B08959F3F58
:1045B00031F0915020F4879577956795B795880FDE
:1045C000911D9695879597F90895DF93CF931F9343
:1045D0000F93FF92EF92DF927B018C01689406C0EB
:1045E000DA2EEF010E942320FE01E894A591259187
:1045F000359145915591A6F3EF010E948021FE016E
:104600009701A801DA9469F7DF90EF90FF900F917E
:104610001F91CF91DF910895991B79E004C0991FF4
:10462000961708F0961B881F7A95C9F7809508950C
:1046300097FB072E16F4009407D077FD09D00E944F
:10464000782307FC05D03EF4909581959F4F0895FF
:10465000709561957F4F0895EE0FFF1F0590F491BF
:10466000E02D09940E945921B7FF0895821B930BF6
:104670000895002E083090F0982F872F762F652F01
:10468000542F432F322F22270850F4CF220F331FED
:10469000441F551F661F771F881F991F0A95B2F781
:1046A000002D089597FD1094002E083098F00850C2
:1046B000232F342F452F562F672F782F892F912D99
:1046C000F4CF159497958795779567955795479566
:1046D000379527950A95AAF71124002D08952A0DDC
:1046E0003B1D4C1D5D1D6E1D7F1D801F911F08957C
:1046F000AA1BBB1B51E107C0AA1FBB1FA617B70708
:1047000010F0A61BB70B881F991F5A95A9F7809523
:104710009095BC01CD0108950F931F93CF93DF9324
:104720008230910510F482E090E0E0914106F09132
:10473000420630E020E0B0E0A0E0309799F4211587
:10474000310509F44AC0281B390B24303105D8F54E
:104750008A819B816115710589F1FB0193838283B5
:10476000FE0111C040815181028113814817590710
:10477000E0F04817590799F4109761F012960C93DE
:10478000129713961C933296CF01DF91CF911F9110
:104790000F9108950093410610934206F4CF21151E
:1047A000310551F04217530738F0A901DB019A0196
:1047B000BD01DF01F801C1CFEF01F9CF90934206AF
:1047C00080934106CDCFFE01E20FF31F81939193B9
:1047D0002250310939832883D7CF20913F06309169
:1047E0004006232B41F420910501309106013093BE
:1047F000400620933F0620910301309104012115CA
:10480000310541F42DB73EB74091070150910801A1
:10481000241B350BE0913F06F0914006E217F307A9
:10482000A0F42E1B3F0B2817390778F0AC014E5F20
:104830005F4F2417350748F04E0F5F1F5093400617
:1048400040933F06819391939FCFF0E0E0E09CCFAF
:10485000CF93DF930097E9F0FC0132971382128225
:10486000A0914106B0914206ED0130E020E01097A2
:10487000A1F420813181820F931F20913F06309156
:1048800040062817390709F061C0F0934006E0930D
:104890003F06DF91CF910895EA01CE17DF07E8F5D3
:1048A0004A815B819E0141155105B1F7E901FB8306
:1048B000EA8349915991C40FD51FEC17FD0761F4A4
:1048C000808191810296840F951FE90199838883E5
:1048D000828193819B838A83F0E0E0E012968D9140
:1048E0009C9113970097B9F52D913C911197CD01AB
:1048F0000296820F931F20913F06309140062817A1
:10490000390739F6309751F5109242061092410658
:10491000B0934006A0933F06BCCFD383C2834081AF
:104920005181840F951FC817D90761F44E5F5F4FFF
:1049300088819981480F591F518340838A819B81C7
:10494000938382832115310509F0B0CFF09342069D
:10495000E09341069ECFFD01DC01C0CF138212829D
:10496000D7CFB0E0A0E0E7EBF4E20C9402218C0199
:10497000009751F4CB010E948C238C01C801CDB764
:10498000DEB7E0E10C941E21FC01E60FF71F9C014D
:1049900022503109E217F30708F49DC0D901CD91E7
:1049A000DC911197C617D70798F0C530D10530F3C1
:1049B000CE0104978617970708F3C61BD70B2297DB
:1049C000C193D1936D937C93CF010E942824D6CFBD
:1049D0005B01AC1ABD0A4C018C0E9D1EA0914106D4
:1049E000B0914206512C412CF12CE12C109731F55D
:1049F00080913F06909140068815990509F05CC0AA
:104A00004616570608F058C08091030190910401A2
:104A1000009741F48DB79EB740910701509108016E
:104A2000841B950BE817F90708F055C0F093400672
:104A3000E0933F06F90171836083A0CF8D919C9133
:104A4000119712966C90129713967C901397A81555
:104A5000B90559F56C0142E0C40ED11CCA14DB043F
:104A600020F1AC014A195B09DA011296159780F022
:104A70006282738251834083D9016D937C93E114E8
:104A8000F10471F0D7011396FC93EE93129776CF51
:104A900022968C0F9D1FF90191838083F301EFCF44
:104AA000F0934206E093410669CF4816590608F490
:104AB0002C017D01D3019ACFCB010E948C237C0174
:104AC000009749F0AE01B8010E946E25C8010E940E
:104AD0002824870153CF10E000E050CFFB01DC0118
:104AE00002C001900D9241505040D8F70895FB014B
:104AF000DC018D91019080190110D9F3990B089573
:104B0000FB01DC0101900D920020E1F7089510E017
:104B1000CDEED0E004C0FE010E942C232196CE3EB3
:104B2000D107C9F7F894FFCF01FF010000430680C9
:104B30000000000000BB011B01480123027901575E
:104B4000016B0100000000B80655063F040000009C
:104B500000AC031B01D709AB0308041E0493030D2B
:104B60000A006E616E00696E66006F766600320044
:104B7000350036003700380039003130003131005F
:104B800023007665720031313430353233006D6187
:104B90007873686F77002C00706D006E746300414D
:104BA00076657261676520616E616C6F6720726502
:104BB0006164696E672000546865726D6973746F13
:104BC0007220726573697374616E63652000546549
:104BD0006D70657261747572652000202A430073E0
:104BE000680077730048432D53523034006D66726D
:104BF00030006D6672310064687431315365740041
:104C000064687431315265616400746F6E65506C14
:104C1000617900736572766F577269746500616EB1
:104C2000616C6F6752656164006469676974616C87
:104C30005265616400616E616C6F6757726974657B
:0E4C4000006469676974616C5772697465007D
:107E0000112484B714BE81FFF0D085E080938100F7
:107E100082E08093C00088E18093C10086E0809377
:107E2000C20080E18093C4008EE0C9D0259A86E02C
:107E300020E33CEF91E0309385002093840096BBD3
:107E4000B09BFECF1D9AA8958150A9F7CC24DD24C4
:107E500088248394B5E0AB2EA1E19A2EF3E0BF2EE7
:107E6000A2D0813461F49FD0082FAFD0023811F036
:107E7000013811F484E001C083E08DD089C08234E0
:107E800011F484E103C0853419F485E0A6D080C0E4
:107E9000853579F488D0E82EFF2485D0082F10E0AE
:107EA000102F00270E291F29000F111F8ED06801E7
:107EB0006FC0863521F484E090D080E0DECF843638
:107EC00009F040C070D06FD0082F6DD080E0C81688
:107ED00080E7D80618F4F601B7BEE895C0E0D1E017
:107EE00062D089930C17E1F7F0E0CF16F0E7DF06D8
:107EF00018F0F601B7BEE89568D007B600FCFDCFD4
:107F0000A601A0E0B1E02C9130E011968C91119780
:107F100090E0982F8827822B932B1296FA010C0160
:107F200087BEE89511244E5F5F4FF1E0A038BF0790
:107F300051F7F601A7BEE89507B600FCFDCF97BE46
:107F4000E89526C08437B1F42ED02DD0F82E2BD052
:107F50003CD0F601EF2C8F010F5F1F4F84911BD097
:107F6000EA94F801C1F70894C11CD11CFA94CF0C13
:107F7000D11C0EC0853739F428D08EE10CD085E9AC
:107F80000AD08FE07ACF813511F488E018D01DD067
:107F900080E101D065CF982F8091C00085FFFCCF94
:107FA0009093C60008958091C00087FFFCCF809118
:107FB000C00084FD01C0A8958091C6000895E0E648
:107FC000F0E098E1908380830895EDDF803219F02E
:107FD00088E0F5DFFFCF84E1DECF1F93182FE3DFCA
:107FE0001150E9F7F2DF1F91089580E0E8DFEE27F6
:047FF000FF270994CA
:027FFE00040479
:00000001FF
