:100000000C94EE000C9416010C9416010C947F0DC8
:100010000C947F0D0C947F0D0C9416010C94810CA4
:100020000C9416010C9416010C9416010C94120FEA
:100030000C9416010C9416010C9416010C941601E4
:100040000C94350D0C9416010C94030D0C94DD0CDE
:100050000C9416010C9416010C9416010C941601C4
:100060000C94F70D0C94160108000000BE92244970
:10007000123EABAAAA2ABECDCCCC4C3E00000080DA
:10008000BEABAAAAAA3E00000000BF000000803F4D
:100090000000000000084178D3BB4387D1133D190D
:1000A0000E3CC3BD4282AD2B3E68EC8276BED98F3A
:1000B000E1A93E4C80EFFFBE01C4FF7F3F0000007E
:1000C000000000000000240027002A005741524E83
:1000D000494E473A20436F6D6D756E69636174696F
:1000E0006F6E206661696C7572652C20697320746F
:1000F0006865204D4652433532322070726F70650C
:10010000726C7920636F6E6E65637465643F002066
:100110003D2028756E6B6E6F776E2900203D206341
:100120006F756E74657266656974206368697000C6
:10013000203D2076322E3000203D2076312E3000BA
:10014000203D2076302E3000203D2028636C6F6EDD
:100150006529004669726D77617265205665727314
:10016000696F6E3A2030780002000000080002013A
:10017000000003040700000000000000003A0044F3
:10018000003A0041002C006D66723A0048432C0092
:100190003A004E002C002C002C002C000000000027
:1001A00023002600290000000000250028002B0065
:1001B000040404040404040402020202020203030D
:1001C0000303030301020408102040800102040815
:1001D00010200102040810201310811F11241FBEDB
:1001E000CFEFD8E0DEBFCDBF12E0A0E0B1E0E0EDA0
:1001F000FBE402C005900D92A632B107D9F726E0C4
:10020000A6E2B2E001C01D92A935B207E1F710E005
:10021000CDEED0E004C02197FE010E948023CC3EA9
:10022000D107C9F70E9457110C94DB250C940000EC
:100230008CBD9DBD08954F925F926F927F928F9279
:100240009F92AF92BF92FF9220910F0630911006BD
:100250008217930708F043C02B0166247724852E6C
:10026000962EA72EBB24B82DA42F20911506F42C72
:10027000222391F0E22FF0E0E49DD001E59DB00D46
:10028000F49DB00D1124FB2E289D40011124B92DA1
:10029000249F90011124A32FE0911B0620911606A4
:1002A0003091170650911806E51323C0FC01EE0F9C
:1002B000FF1F8E0F9F1F820F931FE0911806E80FFC
:1002C000F92FF11DF082E0911906E80FF92FF11DC9
:1002D000B08320911A06820F911DFC01A083FF902C
:1002E000BF90AF909F908F907F906F905F904F9056
:1002F0000895880F991F880F991F820F931FE80F89
:10030000F92FF11D1082D9CFAF92BF92CF92DF9219
:10031000EF92FF920F931F93CF93DF936C017B01BA
:100320008B01040F151FEB015E01AE18BF08C0174B
:10033000D10759F06991D601ED91FC910190F081BE
:10034000E02DC6010995892B79F7C501DF91CF9181
:100350001F910F91FF90EF90DF90CF90BF90AF90E3
:100360000895FC01538D448D252F30E0842F90E0BB
:10037000821B930B541710F0CF96089501970895A0
:10038000FC01918D828D981761F0A28DAE0FBF2F69
:10039000B11D5D968C91928D9F5F9F73928F90E0BF
:1003A00008958FEF9FEF0895FC01918D828D98172E
:1003B00031F0828DE80FF11D858D90E008958FEF6B
:1003C0009FEF0895FC01918D228D892F90E0805C34
:1003D0009F4F821B91098F73992708958BE395E0B6
:1003E0000E94E20121E0892B09F420E0822F089588
:1003F00080E090E0892B29F00E94EE0181110C949D
:1004000000000895FC01A48DA80FB92FB11DA35AB7
:10041000BF4F2C91848D90E001968F739927848F24
:10042000A689B7892C93A089B1898C918370806447
:100430008C93938D848D981306C00288F389E02DE8
:1004400080818F7D80830895EF92FF920F931F9399
:10045000CF93DF93EC0181E0888F9B8D8C8D981377
:100460001AC0E889F989808185FF15C09FB7F89483
:10047000EE89FF896083E889F989808183708064CF
:1004800080839FBF81E090E0DF91CF911F910F911A
:10049000FF90EF900895F62E0B8D10E00F5F1F4F29
:1004A0000F731127E02E8C8D8E110CC00FB607FC38
:1004B000FACFE889F989808185FFF5CFCE010E94C6
:1004C0000202F1CFEB8DEC0FFD2FF11DE35AFF4F30
:1004D000F0829FB7F8940B8FEA89FB898081806254
:1004E000CFCF0F931F93CF93DF938C01D0E0C0E069
:1004F000F801EC0FFD1F6491662341F08BE395E05A
:100500000E942402892B11F02196F2CFCE01DF91B7
:10051000CF911F910F910895CF93DF93EC01888DB8
:100520008823B9F0AA89BB89E889F9898C9185FD6E
:1005300003C0808186FD0DC00FB607FCF7CF8C91FC
:1005400085FFF2CF808185FFEDCFCE010E940202B0
:10055000E9CFDF91CF910895833081F028F4813085
:1005600099F08230A9F008958730A9F08830C9F059
:100570008430B1F4809180008F7D03C08091800031
:100580008F7780938000089584B58F7784BD089518
:1005900084B58F7DFBCF8091B0008F778093B000C2
:1005A00008958091B0008F7DF9CFCF93DF93282FEE
:1005B00030E0F901E759FE4F8491F901EC53FE4F09
:1005C000D491F901E055FE4FC491CC23A1F08111E3
:1005D0000E94AC02EC2FF0E0EE0FFF1FE456FE4F3E
:1005E000A591B491EC91ED2381E090E009F480E0D5
:1005F000DF91CF91089580E090E0FACF1F93CF93E1
:10060000DF93282F30E0F901E759FE4F8491F9017B
:10061000EC53FE4FD491F901E055FE4FC491CC2329
:10062000A9F0162F81110E94AC02EC2FF0E0EE0F22
:10063000FF1FEA55FE4FA591B4918FB7F894EC9146
:10064000111108C0D095DE23DC938FBFDF91CF91CD
:100650001F910895DE2BF8CF9091010189130BC0F3
:10066000E8E6F1E0E4919FEF90930101E13049F079
:1006700028F0E23061F060E00C94FE0210926E000F
:10068000FACF90916F009D7F90936F00F4CF90917F
:1006900070009D7F9093700091E09093B0009091D6
:1006A000B100987F94609093B1001092B300E3CFB3
:1006B000CF93DF9390E0FC01EC53FE4F24918055E3
:1006C0009E4FFC0184918823D1F090E0880F991F00
:1006D000FC01EE53FF4FA591B491FC01EA55FE4F8A
:1006E000C591D49161110EC09FB7F8948C91E22FFF
:1006F000E0958E238C932881E223E8839FBFDF91CE
:10070000CF9108958FB7F894EC91E22BEC938FBFC3
:10071000F6CF8E3008F08E502091000190E4299F92
:10072000900111248770822B80937C0080917A0045
:10073000806480937A0080917A0086FDFCCF80915E
:1007400078009091790008953FB7F8948091D9028C
:100750009091DA02A091DB02B091DC0226B5A89B51
:1007600005C02F3F19F00196A11DB11D3FBFBA2F43
:10077000A92F982F8827BC01CD01620F711D811D03
:10078000911D42E0660F771F881F991F4A95D1F788
:1007900008950F931F93CF93DF93CDB7DEB72997BB
:1007A0000FB6F894DEBF0FBECDBF809116069091B4
:1007B0001706892B09F47CC00E94A40300911C0633
:1007C00010911D0620911E0630911F0660177107BB
:1007D0008207930740F460931C0670931D06809374
:1007E0001E0690931F0600911C0610911D06209175
:1007F0001E0630911F06601B710B820B930B6C322F
:10080000714081059105C0F2F89480911106909194
:1008100012069A838983E0911606F0911706DF018C
:1008200011968081898790910D06E0912006F091C4
:10083000210680912206992309F445C09081982BC6
:1008400098879081809589238F838F818C8388E01E
:100850008B8358856F8149853B812C8189819A8161
:10086000508347FD252F3A952083262F39F0441FCA
:1008700000C000006083000000C0F2CF38E04D915E
:1008800060830000019761F7F0932106E093200652
:1008900049873B832C839A83898378940E94A4039D
:1008A00060931C0670931D0680931E0690931F068E
:1008B00029960FB6F894DEBF0FBECDBFDF91CF9162
:1008C0001F910F9108959081982B98879081809522
:1008D00089238F838F818E8388E08D8358856F81F4
:1008E00049853D812E8189819A81508347FD252F3D
:1008F00000C000C0208300C000C000C000C000C015
:1009000060830000262F3A9541F0441F000000C08C
:1009100000C000C000C000C0E8CF38E04D9100C06A
:10092000608300C0019709F7F0932106E093200649
:1009300049873D832E83AFCF8F929F92AF92BF9214
:10094000CF92DF92EF92FF926B017C010E94A40391
:100950004B015C01C114D104E104F104B9F00E941F
:10096000A403681979098A099B09683E73408105C7
:10097000910580F321E0C21AD108E108F10888EE60
:10098000880E83E0981EA11CB11CE4CFFF90EF906D
:10099000DF90CF90BF90AF909F908F90089520915F
:1009A000DF023091E0022817390771F49091DD02DF
:1009B0008091DE02981741F0E091DD02F0E0E85608
:1009C000FD4F808190E008958FEF9FEF0895089587
:1009D000EF92FF920F931F93CF93DF93DC015C960E
:1009E000ED90FC905D97E114F10479F481E090E0E2
:1009F00013969C938E93129790E080E0DF91CF91B5
:100A00001F910F91FF90EF9008955196ED91FC91F9
:100A1000529750968C915097982F90950FB75E965D
:100A20002C915E97122F127021FD6095F894208111
:100A3000112319F1282B2083E7012197F1F728E0F2
:100A4000462F50E0308160FF1AC0382B3083E70119
:100A50002197F1F7BA0175956795215089F7112310
:100A600081F08081892380830FBF5C968D919C915A
:100A70000197F1F781E090E0C1CF2923DCCF392342
:100A8000E5CF9081892BEFCF2091DF023091E002FA
:100A90002817390761F48091DE022091DD0290E091
:100AA000805C9F4F821B91098F739927089590E076
:100AB00080E008952091DF023091E0022817390785
:100AC000B9F49091DD028091DE02981789F0E091EF
:100AD000DD02F0E0E856FD4F80812091DD0230E03C
:100AE0002F5F3F4F2F7333272093DD0290E008954F
:100AF0008FEF9FEF0895BC016E5F7F4FDC01ED919A
:100B0000FC910190F081E02D40E0099591E0811188
:100B100090E0892F089508958EBD00000DB407FE62
:100B2000FDCF8EB50895DF92EF92FF920F931F9342
:100B3000CF93DF937C01062FD42E152F80E590E014
:100B40000E94180160E0F70186850E94FE0282E1A2
:100B50000E948C05CD2DD12F0C0F1D2F111DC017FC
:100B6000D10721F089910E948C05F9CF61E0F7014E
:100B70008685DF91CF911F910F91FF90EF90DF90CD
:100B80000C94FE021F93CF93DF93EC01162F80E5A8
:100B900090E00E94180160E08E850E94FE02812F85
:100BA00080680E948C0580E00E948C05182F61E00F
:100BB0008E850E94FE02812FDF91CF911F910895B3
:100BC0000F931F93CF93DF93EC01062F142F80E533
:100BD00090E00E94180160E08E850E94FE02802F46
:100BE0000E948C05812F0E948C0561E08E85DF912B
:100BF000CF911F910F910C94FE02CF92DF92EF9252
:100C0000FF920F931F93CF93DF93EC016B01F42EB0
:100C1000890140E062E00E94E00544E06AE0CE0124
:100C20000E94E00540E864E1CE010E94E005A601D3
:100C30006F2DCE010E94930543E062E0CE010E9439
:100C4000E0058FB7F894C0903705D0903805E09054
:100C50003905F0903A058FBF89E5C80ED11CE11C1B
:100C6000F11C6AE0CE010E94C20582FF1BC040E079
:100C700062E0CE010E94E00564E4CE010E94C2055C
:100C8000F801808362E4CE010E94C205F8018183ED
:100C900080E0DF91CF911F910F91FF90EF90DF9057
:100CA000CF9008952FB7F89480913705909138052B
:100CB000A0913905B0913A052FBF8C159D05AE0561
:100CC000BF0578F283E0E5CF2F923F924F925F927B
:100CD0006F927F928F929F92AF92CF92DF92EF921C
:100CE000FF920F931F93CF93DF9300D0CDB7DEB762
:100CF0004C012B01D42E390180E0E114F10411F0F4
:100D0000F70180813C2C329490EF3922380E40E07C
:100D100062E0C4010E94E0054FE768E0C4010E9460
:100D2000E00540E864E1C4010E94E005A2016D2DE8
:100D3000C4010E949305432D6AE1C4010E94E005AD
:100D40004CE062E0C4010E94E0056AE1C4010E9437
:100D5000C205482F40686AE1C4010E94E0058FB7D0
:100D6000F894209037053090380540903905509020
:100D70003A058FBFF4E22F0E311C411C511C68E074
:100D8000C4010E94C205982F907309F0C0C080FF73
:100D900015C083E00F900F90DF91CF911F910F91BD
:100DA000FF90EF90DF90CF90AF909F908F907F90CB
:100DB0006F905F904F903F902F9008952FB7F894C9
:100DC0008091370590913805A0913905B0913A0589
:100DD0002FBF82159305A405B50588F2DACF6114FB
:100DE000710409F469C00115110509F465C064E1D5
:100DF000C4010E94C205382EF8018081831508F4D1
:100E000080C030823320E1F180E590E00E9418013B
:100E100060E0F40186850E94FE023A9482E90E9415
:100E20008C05CC20B1F08FEF90E09C0102C0220F26
:100E3000331FCA94E2F7690182E90E948C059C2D58
:100E40009095F301208192238C21982B9083CC24C0
:100E5000C39423014C0C511CC31440F482E90E943A
:100E60008C05F20181932F01C394F6CF80E00E949C
:100E70008C05F201808361E0F40186850E94FE0208
:100E800068E1C4010E94C2058770E114F10411F009
:100E9000F701808323FC37C061147104B1F101159F
:100EA000110599F1AA2089F1F8014081413031F40E
:100EB000843029F58FEF6ECF80E0ECCF4230F8F030
:100EC00081111DC042509E012F5F3F4FB301C401ED
:100ED0000E94FD0581115ECFF8019081690E711CA1
:100EE000F301329720819981291309C0F1E06F1A2B
:100EF0007108F30120819A81291709F44BCF87E00B
:100F000049CF84E047CF82E045CF80E043CF6CE01B
:100F1000C4010E94C205282E837109F460CF81E0CC
:100F200039CF8F929F92AF92CF92EF92FF920F9311
:100F30001F93CF93DF9300D000D01F92CDB7DEB7C1
:100F40004C0182E08D8340E064E2C4010E94E00530
:100F500040E066E2C4010E94E00546E268E4C401A4
:100F60000E94E00586E28B838D818230D8F16CE1AE
:100F7000C4010E94C205482F4F776CE1C4010E9452
:100F8000E00587E08C83A12CC12CCE0104967C0166
:100F90008E010B5F1F4F9E012F5F3F4F41E0BE014F
:100FA0006D5F7F4FC4010E946406982F811117C0A6
:100FB0008D818230B9F48C81811114C081E00F9051
:100FC0000F900F900F900F90DF91CF911F910F9185
:100FD000FF90EF90CF90AF909F908F90089581E019
:100FE000923069F380E0EBCF2F923F924F925F9265
:100FF0006F927F928F929F92AF92BF92CF92DF9229
:10100000EF92FF920F931F93CF93DF93CDB7DEB78D
:101010002D970FB6F894DEBF0FBECDBF16E0413559
:1010200008F04AC1342E3B014C016CE10E94C2051C
:10103000482F4F776CE1C4010E94E00583E9898362
:10104000332029F081E0F3019081953008F480E0AD
:1010500022242394B12C9B2D990F990F990FD32CF7
:10106000D91AD7FCD12C32E0882319F098E89B8359
:1010700033E021E09D2D977009F420E09D2D95959A
:1010800095959595290FC9F094E0811193E0291762
:1010900008F4922FEB2DF0E03196E60DF71D232F8B
:1010A0004191A1E0B0E0AC0FBD1FA20FB11D4C9368
:1010B0002F5F422F431B491798F3882311F0F8E064
:1010C000DF0E8FE18D150CF082C090E79A838B8143
:1010D0009C8189279D8189279E8189278F839E01F5
:1010E000285F3F4F47E0BE016F5F7F4FC4010E9402
:1010F000FD05182F8111E0C01A86E3E0EB87DC863E
:10110000CE0107962C0199E09D87CA844C2D42950B
:10111000407F4C0D6AE1C4010E94E005A12CCE0184
:101120000A967C018E01055F1F4F92014D85BE011D
:101130006F5F7F4FC4010E946406182F823009F050
:1011400065C06CE1C4010E94C20585FDB5C08F7108
:1011500009F480E2282F30E04D2DDD0C550B4217AD
:1011600053070CF09DC0D82EE82FE595E595E59541
:10117000EF5F982F977081E009F480E0E80F81E03D
:1011800090E08C0F9D1F8E0F911DFC0121503109A5
:101190002770332781E090E002C0880F991F2A95BD
:1011A000E2F79C018081822B80838BCF85E9898344
:1011B000332031F081E0F3019081983008F04BCF7B
:1011C00080E049CF87E9898326E0B22EF9CF9D2DB3
:1011D00097709A878D2D8595859585958E5F282F9B
:1011E0002295207F290F2A8321E0911101C020E060
:1011F000280F2D8744244394512C4C0E5D1E480E1D
:10120000511CE9E0E81BEB87DC867FCF811154C0DD
:1012100080E2D82E9C8590320CF457CF8B81883891
:1012200009F040C083E093E0EB2DF0E03196E60D4D
:10123000F71D980FA1E0B0E0AC0FBD1FA80FB11DC6
:101240002C9121938F5F8913F5CFBB84E3E0BE120D
:101250004DC08A8581114AC09E012D5F3F4F41E0FC
:10126000B201C4010E94FD05182F811125C09B8188
:10127000F201818198133CC09C818281981338C00F
:10128000808182FF12C02394F2E02F1609F48ECFE2
:1012900083E0281609F496CF91E0291609F4CECE02
:1012A00015E00AC082E094E0BFCFF3018387822D6E
:1012B000880F820D8F5F8083812F2D960FB6F89453
:1012C000DEBF0FBECDBFDF91CF911F910F91FF9079
:1012D000EF90DF90CF90BF90AF909F908F907F90D6
:1012E0006F905F904F903F902F90089511E0E4CF62
:1012F00017E0E2CF20914E02260F3327331F213211
:101300003105ECF420917202FC0190E080E0243081
:1013100069F082E00895A0914E022191AC01425DF6
:101320005D4FA40FB52FB11D2C930196861798F32E
:1013300080914E02680F60934E0280E0089581E034
:1013400008958FEF9FEF08958FEF9FEF089580919D
:10135000270290E09195819591090895CF93DF93AD
:10136000CB01EA01642F0E947A09CE01DF91CF916F
:101370000895CF93DF931F92CDB7DEB7698361E005
:10138000CE0101960E947A0981E090E00F90DF91F2
:10139000CF91089590E080E008954F925F926F9210
:1013A0007F928F929F92AF92BF92CF92DF92EF92F5
:1013B000FF920F931F93CF93DF9300D0CDB7DEB78B
:1013C0008C0149832A83660F771FF801EA5AFF4F81
:1013D000E080F180EE0CFF1CF801CF01801B910B27
:1013E0008E159F0514F41192F8CF8981F801E60F4C
:1013F000F71F81838A818083680184E5C80ED11C30
:1014000060E0F60180810E94FE025801F2E5AF0E15
:10141000B11C480180E5880E911C1E141F040CF5B8
:10142000E1E0EE1AF108F801EE0DFF1D6080F50114
:101430005080F401408088E0782E662D661F662774
:10144000661F842D0E94FE02660C61E0852D0E94BD
:10145000FE0260E0852D0E94FE027A947110EDCFAD
:10146000DCCF61E0F60180810F900F90DF91CF918A
:101470001F910F91FF90EF90DF90CF90BF90AF90B2
:101480009F908F907F906F905F904F900C94FE0292
:10149000CF92DF92EF92FF921F93CF93DF937C0165
:1014A0006B01EB0183E0CC0FDD1F8A95E1F76096BD
:1014B000CE0DDF1D11E0199220E0412FB601C701CA
:1014C0000E94CD091F5F1930B1F7DF91CF911F91B5
:1014D000FF90EF90DF90CF900895FC0101900020E5
:1014E000E9F73197AF01481B590BBC018BE395E03D
:1014F0000C9484018F929F92AF92BF920F931F938F
:10150000CF93DF93CDB7DEB7A1970FB6F894DEBFC8
:101510000FBECDBF19A2423008F44AE08E010F5D24
:101520001F4F842E912CB12CA12CA50194010E9457
:101530008B21E62FB901CA01EA30F4F4E05DD8014D
:10154000EE938D01232B242B252B79F790E080E05F
:10155000109719F0CD010E946D0AA1960FB6F8946C
:10156000DEBF0FBECDBFDF91CF911F910F91BF9016
:10157000AF909F908F900895E95CE1CFCF92DF927A
:10158000EF92FF92CF93DF936B017C016DE28BE3CF
:1015900095E00E942402EC0166277727CB016C19A5
:1015A0007D098E099F094AE00E947A0A8C0F9D1FCF
:1015B000DF91CF91FF90EF90DF90CF900895BC0125
:1015C000990F880B990B97FD0C94BE0A4AE00C9476
:1015D0007A0ACF93DF93BC01990F880B990B97FF81
:1015E0000CC00E94BE0AEC0187E391E00E946D0AE4
:1015F0008C0F9D1FDF91CF9108954AE00E947A0AD7
:10160000F2CF4F925F926F927F928F929F92AF92A2
:10161000BF92CF92DF92EF92FF920F931F93CF93DF
:101620006B017C01742EAC019B010E942623882350
:1016300099F08AE391E0CF911F910F91FF90EF9085
:10164000DF90CF90BF90AF909F908F907F906F90E2
:101650005F904F900C946D0A46015701E894B7F8DB
:101660002FEF3FEF4FE75FE7C501B4010E9426234C
:1016700081110DC02FEF3FEF4FE75FE7C501B401C8
:101680000E94FE1F18161CF48EE391E0D4CF2FEFBA
:101690003FEF4FE75FE4C701B6010E94D122181661
:1016A0001CF482E491E0C7CF2FEF3FEF4FE75FECF0
:1016B000C701B6010E94FE1F87FDF3CF20E030E096
:1016C000A901C701B6010E94FE1F10E000E087FFDC
:1016D0000AC06DE28BE395E00E9424028C01F7FAC8
:1016E000F094F7F8F094C0E060E070E080E09FE3F1
:1016F0007C1641F020E030E040E251E40E942922D3
:10170000CF5FF6CFA70196010E94BD212B013C01BE
:101710000E94A2224B015C014AE00E947A0A7C01ED
:10172000E00EF11ECC23C1F1C501B4010E940320DB
:101730009B01AC01C301B2010E94BC214B015C01C1
:101740006EE28BE395E00E942402E80EF91EC15080
:1017500018F120E030E040E251E4C501B4010E94FC
:1017600064202B013C010E94A2224B01B12CA12C30
:101770004AE0C501B4010E947A0AE80EF91EC501CB
:10178000B4010E9403209B01AC01C301B2010E947D
:10179000BC214B015C01DBCFC701CF911F910F91A1
:1017A000FF90EF90DF90CF90BF90AF909F908F9081
:1017B0007F906F905F904F900895CF93DF9342E0BA
:1017C0000E94010BEC0187E391E00E946D0A8C0FEF
:1017D0009D1FDF91CF910895CF93DF93D0E0C0E0BC
:1017E000009719F00E946D0AEC0187E391E00E94D6
:1017F0006D0A8C0F9D1FDF91CF910895CF93DF93DA
:101800000E947102EC0187E391E00E946D0A8C0F47
:101810009D1FDF91CF9108951F93CF93DF9385EDA7
:101820008093BC0080912A0290912B02A0912C02FF
:10183000B0912D020796A11DB11D23E0B695A79585
:10184000979587952A95D1F72091BC0024FD03C078
:101850001092720252C040912A0250912B02609164
:101860002C0270912D02452B462B472B69F30097D4
:10187000A105B10541F02AE22A95F1F700C00197D0
:10188000A109B109E1CF80912902C1E0C0932802EA
:10189000882399F1D091B8001091BA008091BC00D2
:1018A0008A7B8093BC0060E082E10E94FE0260E0DF
:1018B00083E10E94FE0210927202C09374021092A1
:1018C000730261E082E10E94FE0261E083E10E9416
:1018D000FE028091B9008E7F8093B9008091B9009B
:1018E0008D7F8093B90088E48093B80085E480936D
:1018F000BC001093BA00D093B800DF91CF911F9134
:1019000008951F920F920FB60F9211242F933F93B9
:101910004F935F936F937F938F939F93AF93BF93F7
:10192000EF93FF9380911D0590911E05A0911F05D7
:10193000B0912005892B8A2B8B2BD1F19091180522
:10194000E0911905F0911A058081892780838091A3
:101950001D0590911E05A0911F05B0912005181638
:1019600019061A061B069CF480911D0590911E0510
:10197000A0911F05B09120050197A109B10980939D
:101980001D0590931E05A0931F05B0932005FF91A0
:10199000EF91BF91AF919F918F917F916F915F91E7
:1019A0004F913F912F910F900FBE0F901F90189560
:1019B000809101010E942C03EACF1F920F920FB673
:1019C0000F9211242F933F934F935F936F937F93C5
:1019D0008F939F93AF93BF93EF93FF938BE395E028
:1019E0000E940202FF91EF91BF91AF919F918F9161
:1019F0007F916F915F914F913F912F910F900FBE0B
:101A00000F901F9018951F920F920FB60F921124EE
:101A10002F938F939F93EF93FF93E0914B05F0915A
:101A20004C058081E0915105F091520582FD1BC06B
:101A30009081809154058F5F8F7320915505821797
:101A400041F0E0915405F0E0E55CFA4F958F80930A
:101A50005405FF91EF919F918F912F910F900FBEA1
:101A60000F901F9018958081F4CF1F920F920FB6A0
:101A70000F9211242F933F938F939F93AF93BF9314
:101A80008091370590913805A0913905B0913A05BC
:101A90003091D80223E0230F2D3758F50196A11D70
:101AA000B11D2093D8028093370590933805A093F9
:101AB0003905B0933A058091D9029091DA02A0914C
:101AC000DB02B091DC020196A11DB11D8093D90209
:101AD0009093DA02A093DB02B093DC02BF91AF9146
:101AE0009F918F913F912F910F900FBE0F901F905C
:101AF000189526E8230F0296A11DB11DD2CF1F9283
:101B00000F920FB60F9211242F933F934F935F9331
:101B10006F937F938F939F93AF93BF93EF93FF93B5
:101B2000E091DF02F091E002309749F0A685B78599
:101B30008585968D91FF14C09C918923A1F4FF9116
:101B4000EF91BF91AF919F918F917F916F915F9135
:101B50004F913F912F910F900FBE0F901F901895AE
:101B60009C91892361F7A389B4899C91858980958B
:101B700089238C93868997890197F1F7608D718D00
:101B8000A685B785558538E020E0CB010197F1F7B0
:101B9000822F90E095958795282F4C91452309F049
:101BA0002068315091F7868D81FD20958091DE026D
:101BB00090E001968F7399273091DD02381799F0E4
:101BC000A091DE02B0E0A856BD4F2C938093DE02B8
:101BD000828D938D0197F1F7A389B4898C919589B2
:101BE000892B8C93ACCF868D8160868FF1CF1F922D
:101BF0000F920FB60F9211242F933F934F935F9341
:101C00006F937F938F939F93AF93BF93EF93FF93C4
:101C10008091B900887F803609F44AC0F0F5883297
:101C200009F4A5C018F5803109F499C0B8F48823E7
:101C300009F4F5C0883009F492C0FF91EF91BF918B
:101C4000AF919F918F917F916F915F914F913F9154
:101C50002F910F900FBE0F901F901895883109F4A7
:101C600086C0803251F78093710214C0803409F429
:101C70009BC040F48033B9F38833F9F68093710246
:101C800085ECAEC0803509F483C0883509F494C072
:101C9000883499F60E940C0CD0CF883909F48AC098
:101CA00038F5883729F050F4883611F0803729F656
:101CB00083E0809372021092700255C0883809F454
:101CC00079C0803919F0803809F0B7CF809170025F
:101CD000803208F06FC0E091700281E08E0F809337
:101CE00070028091BB00F0E0E05BFD4F80833BC061
:101CF000803B39F0D0F4803A09F477C0883A09F093
:101D00009CCF84E08093720210924F0210924E0298
:101D1000F0E0E0E0099580914E0281110FC081E072
:101D200080934E0210922E0209C0803C09F4A8CF85
:101D3000883C09F4A5CF883B09F07FCFE0914F02A2
:101D400081E08E0F80934F02F0E0E25DFD4F8081D5
:101D50008093BB0090914F0280914E0229C08091E8
:101D600097028093BB0085EC8093BC0066CF909176
:101D7000960280919502981758F5E091960281E0BD
:101D80008E0F80939602F0E0EB58FD4F8081E9CFF3
:101D9000E091960281E08E0F809396028091BB00C5
:101DA000F0E0EB58FD4F8083909196028091950270
:101DB0009817C8F285E8D8CFE091960281E08E0F9F
:101DC000809396028091BB00F0E0EB58FD4F80833A
:101DD0008091740281115ECF81E08093730284EA66
:101DE0008093BC001092720228CF85EC8093BC00D7
:101DF0001092720280917002803230F4E091700291
:101E0000F0E0E05BFD4F10826091700270E080E5D1
:101E100092E0F0E0E0E00995109270020ECF10928F
:101E2000710238CF1F920F920FB60F9211242F9389
:101E30003F934F935F936F937F938F939F93AF9352
:101E4000BF93CF93DF93EF93FF9380912602C091CE
:101E5000FC05D0E087FF24C010928500109284001A
:101E6000809126028F5F8093260280912602082EA1
:101E7000000C990B8C179D0724F4809126028C305E
:101E8000C4F18091840090918500049680349C492F
:101E900008F47AC08091840090918500049676C001
:101EA00080912602082E000C990B8C179D07C4F612
:101EB000E09126028E2FEE0F990BFC01EE0FFF1F13
:101EC000E80FF91FE852FA4F808186FFC9CFE091F1
:101ED00026028E2FEE0F990BFC01EE0FFF1FE80F6D
:101EE000F91FE852FA4F808160E08F730E94FE0272
:101EF000B7CF2091840030918500E09126028E2F8B
:101F0000EE0F990BFC01EE0FFF1FE80FF91FE852CF
:101F1000FA4F81819281820F931F90938900809361
:101F20008800E09126028E2FEE0F990BFC01EE0F38
:101F3000FF1FE80FF91FE852FA4F808186FF11C09A
:101F4000E09126028E2FEE0F990BFC01EE0FFF1F82
:101F5000E80FF91FE852FA4F808161E08F730E9409
:101F6000FE02FF91EF91DF91CF91BF91AF919F91D1
:101F70008F917F916F915F914F913F912F910F9032
:101F80000FBE0F901F90189580E49CE990938900F4
:101F9000809388008FEF80932602E3CFCF92DF9269
:101FA000EF92FF920F931F93E82FF92F05C0015076
:101FB00011092109310961F1908196239417B9F330
:101FC00005C0015011092109310911F190819623B1
:101FD0009413F7CFC12CD12CE12CF12C0AC08FEF38
:101FE000C81AD80AE80AF80A0C151D052E053F057F
:101FF00079F080818623841791F36C2D7D2D8E2DB1
:102000009F2D1F910F91FF90EF90DF90CF9008953B
:1020100060E070E080E090E01F910F91FF90EF9002
:10202000DF90CF90089510923E0510923D0588EE06
:1020300093E0A0E0B0E080933F0590934005A0932B
:102040004105B09342052DE031E030933C052093EB
:102050003B0525EC30E0309348052093470524EC00
:1020600030E030934A052093490520EC30E030936E
:102070004C0520934B0521EC30E030934E05209326
:102080004D0522EC30E03093500520934F0526ECAF
:1020900030E0309352052093510510925405109270
:1020A000550510925605109257051092370610925A
:1020B00036068093380690933906A0933A06B0937B
:1020C0003B0689E291E090933506809334061092A6
:1020D0004B0610924A0610924D0610924C06109232
:1020E0004F0610924E0610925106109250066091C3
:1020F00052066E7F6D7F609352066695617081E037
:10210000682783E00E94FE0261E083E00E9458039A
:10211000E7ECF1E0E491E0934406E3EBF1E0E491D5
:10212000F0E0EE0FFF1FEA55FE4F859194919093DA
:1021300046068093450660E082E00E945803809145
:10214000520681FD04C061E082E00E94FE0282E04E
:1021500080934006E6ECF1E0E491E0934106E2EB87
:10216000F1E0E491F0E0EE0FFF1FE456FE4F8591A1
:102170009491909343068093420610922B061092FE
:1021800030061092310610923206109233061092E9
:102190002C0610922D0610922E0610922F0680917A
:1021A000FC058C3008F076C091E0980F9093FC0508
:1021B0008093230690E0FC01EE0FFF1FE80FF91F4C
:1021C000E852FA4F88EB9BE09283818310920E06CF
:1021D0001092150610921C0610921D0610921E06F3
:1021E00010921F0681E080931B06809318061092C0
:1021F000190692E090931A0680930D0684E290E00F
:1022000090931206809311060E94E0239093170684
:1022100080931606009709F441C024E2FC01119254
:102220002A95E9F78CE090E09093100680930F06D2
:1022300086E090E0909314068093130680910E063A
:10224000882341F061E086E00E94580360E086E068
:102250000E94FE02E6EBF1E0E491F0E0EE0FFF1FDA
:10226000EA55FE4F85919491909321068093200624
:10227000EAECF1E0E491E09322068FE191E09093A3
:10228000FE058093FD058AE080930B068FEF809317
:102290000C0608958FEF8093230698CF10921206B4
:1022A000109211061092100610920F06C1CFCF9314
:1022B000DF93CDB7DEB7C858D1090FB6F894DEBFAB
:1022C0000FBECDBF789484B5826084BD84B5816033
:1022D00084BD85B5826085BD85B5816085BD8091F1
:1022E0006E00816080936E00109281008091810069
:1022F0008260809381008091810081608093810061
:10230000809180008160809380008091B100846022
:102310008093B1008091B00081608093B000809183
:102320007A00846080937A0080917A008260809342
:102330007A0080917A00816080937A0080917A009F
:10234000806880937A001092C100E0914B05F09173
:102350004C0582E08083E0914705F09148051082AA
:10236000E0914905F0914A0580E180831092530580
:10237000E0914F05F091500586E08083E0914D0596
:10238000F0914E05808180618083E0914D05F09150
:102390004E05808188608083E0914D05F0914E0567
:1023A000808180688083E0914D05F0914E058081A9
:1023B0008F7D808310924F0610924E0610924D062C
:1023C00010924C0610924B0610924A068DE991E04D
:1023D000909351068093500690914006963108F0F4
:1023E00047C02DEB30E030934B0620934A062BE993
:1023F00031E030934D0620934C062CE231E03093CF
:102400004F0620934E062091680084E0983048F0F3
:1024100031E09E3008F430E081E001C0880F3A9549
:10242000EAF7822B809368002DE630E0983050F078
:102430002BE630E09E3030F02CE630E0963110F0A4
:1024400030E020E03093480620934706292F30E003
:10245000983008F081C081E001C0880F9A95EAF7B2
:102460008093490680915006909151060197F1F7AB
:1024700080914E0690914F06892B49F1E091DF0241
:10248000F091E00226E0E433F20709F1309739F0E9
:10249000A389B4899C918589809589238C938091A7
:1024A00052068E7F809352061092DE021092DD0259
:1024B00084E396E09093E0028093DF02E091470688
:1024C000F0914806808190914906892B8083809104
:1024D00013069091140697FD08C061E00E9458030E
:1024E00060E0809113060E94FE0281E080930E0658
:1024F000AE014F5A5F4FAF965FAF4EAFAF9780912F
:1025000002018111109202018BE395E00E94E20129
:10251000892B11F40C94521F66E070E080E090E08B
:102520000E949C04E1EEF2E080E4DF011D928A95B6
:10253000E9F77F0110E08BE395E00E94E201892B2F
:10254000C1F08BE395E00E94C0011F33A0F71F5F2D
:10255000F70181937F01EFCF9E3040F4285031097D
:1025600081E001C0880F2A95EAF77ACF2E50310911
:10257000F7CFE12FF0E0EF51FD4F108268E571E0F9
:1025800081EE92E00E94CA1F1C0168E571E090E0B4
:1025900080E00E94CA1F2C0168E571E090E080E0B5
:1025A0000E94CA1F3C0168E571E090E080E00E9453
:1025B000CA1FED969FAF8EAFED976AE571E0C1013E
:1025C0000E94CB25892B21F48EE591E00E94EC0B33
:1025D00066E671E0C1010E94CB25892B09F025C276
:1025E0006EE671E0C3010E94CA1F6C016EE671E0E5
:1025F00090E080E00E94CA1F7C016EE671E090E0EE
:1026000080E00E94CA1F0E94AC1F8C01C7010E947B
:10261000AC1F7C01C6010E94AC1FD82EC92E629649
:102620008FAF629763969FAF63976596FFAEEEAEEE
:10263000659767961FAF0EAF679781E090E0699648
:102640009FAF8EAF699761E08D2D0E94580361E0C6
:1026500064968FAD64970E94580361E066968FADD3
:1026600066970E94580361E066968FAD66970E9458
:10267000FE026296DFAE62976396CFAE6397FE016D
:1026800071969E012F5F3F4FE3963FAF2EAFE397CA
:102690001192AF964EAD5FADAF974E175F07C1F782
:1026A00010E000E069968EAD9FAD69970817190795
:1026B000CCF520E04FE0B801CE0101960E94CD0993
:1026C00069968EAD9FAD6997081719073CF427E00E
:1026D0004BE0B801CE0101960E94CD0920E049E00F
:1026E000B801CE0101960E94CD0969968EAD9FADCD
:1026F0006997081719072CF4B801CE0101960E94BA
:10270000480A69968EAD9FAD6997081719073CF482
:1027100020E04CE0B801CE0101960E94CD090F5F88
:102720001F4FC0CF1816190634F470E060E0CE01D8
:1027300001960E94480A69968EAD9FAD699718165A
:10274000190644F421E04CE070E060E0CE0101960F
:102750000E94CD0969968EAD9FAD6997181619062E
:1027600044F425E04AE070E060E0CE0101960E946A
:10277000CD09F2013196DE01A75ABF4FC20143963F
:1027800021912D938E179F07D9F7EF961FAE1EAE9E
:10279000EF9751E0E8965FAFE897CE01875A9F4FD9
:1027A000AD969FAF8EAFAD97AD96EEADFFADAD9749
:1027B00001900020E9F73197DF01AD962EAD3FADD6
:1027C000AD97A21BB30BE796BFAFAEAFE797BD01C6
:1027D0006F5F7F4F90E080E00E9405254C010097DD
:1027E00009F46EC0DC011C92BE01675A7F4F0E9443
:1027F000D425B0E0A0E020E030E040E050E060E030
:1028000070E080E090E0E796EEADFFADE797AE17A1
:10281000BF070CF0A8C004E00E948D2359016A0193
:102820007B018C01AE17BF0708F079C081149104B9
:1028300009F475C0F401EA0FFB1FE081E053E733B0
:1028400008F06DC00E2E000CFF0BE75DFB4E0C94E4
:102850008023AF1465146A146F14741479147E14F1
:1028600083148814A1148F148F148F148F148F1451
:102870008F148F14A314A514A714A914AB14AD14AA
:102880008F148F148F148F148F148F148F148F1430
:102890008F148F148F148F148F148F148F148F1420
:1028A0008F148F148F148F148F148F148F148F1410
:1028B0008F148F14A314A514A714A914AB14AD146A
:1028C000E7961FAE1EAEE79794CFF1E0E196FFAF1B
:1028D000E19722C022E0E1962FAFE1971DC033E0DF
:1028E000E1963FAFE19718C044E0E1964FAFE19722
:1028F00013C055E0E1965FAFE1970EC086E0E19628
:102900008FAFE19709C097E0E1969FAFE19704C0D0
:10291000E8E0E196EFAFE197E0961FAEE097E19631
:102920002FADE197E0963FADE097932F990F990B6C
:10293000492F592F692F792F892F0E94C323119670
:1029400062CFF9E0C3CF2AE0C6CF3BE0C9CF4CE06D
:10295000CCCF5DE0CFCF8EE0D2CF9FE0D5CFE19658
:102960001FAEE197D9CFEE960FADEE970E94A82348
:10297000E22E8114910419F0C4010E947C2410E01D
:1029800000E0F12C69968EAD9FAD69971816190677
:1029900054F580E890E0002E02C0959587950A9442
:1029A000E2F7E396AEADBFADE39750962C9150970A
:1029B000A701002E02C0559547950A94E2F740FF03
:1029C0006FC0822B50968C93E396AEADBFADE3976C
:1029D00050962C91E8964FADE89770E060E0CE01FC
:1029E00001960E94CD090F5F1F4F0830110551F667
:1029F000E396EEADFFADE3973196E396FFAFEEAF12
:102A0000E397E896FFADE897FF5FE896FFAFE8979A
:102A1000EF962EAD3FADEF97285F3F4FEF963FAF5C
:102A20002EAFEF97F93009F0BFCE60E771E0C1013A
:102A30000E94CB25892B09F025C10AE010E084E330
:102A400096E00E944405892B09F4DCC084E396E0FB
:102A50000E945A052091150530911605A9014F5F76
:102A60005F4F5093160540931505220F331FF90150
:102A7000EF5DFC4F99279183808380912103909192
:102A8000220382349105A1F08091230390912403C5
:102A90008D34910569F01092160510921505CFCF6F
:102AA00080958223E396EEADFFADE397808B8CCFCC
:102AB0004732510520F230912903C058DF4F388347
:102AC000C058D040C158DF4F1882CF57D0408091B6
:102AD0002B0390912C03C158DF4F48815981CF5768
:102AE000D040840F951F9093360580933505509103
:102AF0002D03CE57DF4F5883C258D040CF57DF4FFA
:102B00001882C158D04080912F0390913003CF5745
:102B1000DF4FA881B981C158D0408A0F9B1F909385
:102B2000340580933305B0913103CC57DF4FB88320
:102B3000C458D040CD57DF4F1882C358D040809141
:102B4000330390913403CD57DF4FE881F981C358A7
:102B5000D0408E0F9F1F9093320580933105F091E6
:102B60005103CA57DF4FF883C658D040CB57DF4FC9
:102B70001882C558D0408091530390915403CB578D
:102B8000DF4F28813981C558D040820F931FB8018B
:102B90000E946C23072E000C880B990B0E940520C5
:102BA00060932D0570932E0580932F05909330052B
:102BB00030915503C857DF4F3883C858D040C957A4
:102BC000DF4F1882C758D040809157039091580327
:102BD000C957DF4F48815981C758D040840F951F8E
:102BE000B8010E946C23072E000C880B990B0E94E1
:102BF00005206093290570932A0580932B059093F7
:102C00002C0549CF609135057091360590E080E044
:102C10004AE00E947A0A8AE991E00E94710260917A
:102C200033057091340590E080E04AE00E947A0A12
:102C300088E991E00E94710260913105709132053E
:102C400090E080E04AE00E947A0A86E991E00E94E2
:102C5000710260912D0570912E0580912F05909144
:102C6000300542E00E94010B84E991E00E9471026C
:102C70006091290570912A0580912B0590912C0572
:102C80000E94DD0B63E771E0C1010E94CB25892B17
:102C900009F0A1C0C2010E94AC1F082F82E991E097
:102CA0000E9471024114510419F0C2010E946D0A80
:102CB00080E991E00E94710281E08093000115E0BB
:102CC000C12CD12C7601802F0E948903BC0190E099
:102CD00080E00E9403209B01AC01C701B6010E9465
:102CE000BD216B017C016AE070E080E090E00E9411
:102CF0009C04115041F720E030E040EA50E4C70165
:102D0000B6010E9429226B017C0187E791E00E94B5
:102D10006D0AC701B6010E94DD0BA701960160E0B4
:102D200070EC8FE794E40E94292220E030E040E834
:102D30005FE30E94BC2120E030E44CE156E40E94B5
:102D400064206B017C018FE891E00E946D0AC7014D
:102D5000B6010E94DD0B20E030E44CE156E4C701EF
:102D6000B6010E9429220E94DE2220E030EE46E7D2
:102D700055E40E9429222FE03FEC4BE55BE30E94E3
:102D8000BD219B01AC0160E070E080E89FE30E9400
:102D9000292223E333E948E853E40E94BC216B0174
:102DA0007C0186EA91E00E946D0A42E0C701B6010B
:102DB0000E94010B83EB91E00E94EC0B20E030E0DD
:102DC00040E251E4C701B6010E9464200E949B22A8
:102DD000CB010E94E90A67EB71E0C1010E94CB259B
:102DE000892B09F083C08E010D5F1F4F8EE3D80140
:102DF0001D928A95E9F76EE671E0C3010E94CA1F31
:102E00007C010E94AC1F9A838983EF2871F06EE6E3
:102E100071E090E080E00E94CA1F7C010E94AC1F1C
:102E2000F801819391938F01F0CFE12CC12CF12C0B
:102E300030E020E0F901EE0FFF1F41E050E04C0FC1
:102E40005D1FE40FF51F8081918189010E5F1F4F87
:102E5000181619060CF041C0019789010F5F1F4F2A
:102E6000F801EE0FFF1FE40FF51F4081518141155E
:102E7000510579F40F5F1F4FF801EE0FFF1FA1E01E
:102E8000B0E0AC0FBD1FEA0FFB1FF080E12CC12C9E
:102E900018C04130510509F087C089010E5F1F4FEE
:102EA000F801EE0FFF1F21E030E02C0F3D1FE20F75
:102EB000F31FC080D1809601220F331FF22EFC0C2D
:102EC000E12C4C2D50E070E060E0762F652F542F00
:102ED00044276F294E290E941B0198012F5F3F4F05
:102EE000203231050CF4A6CF0E94C9036AEB71E0D1
:102EF000C1010E94CB25892B09F0D6C06EE671E096
:102F0000C3010E94CA1F0E94AC1F182F6EE671E019
:102F100090E080E00E94CA1F0E94AC1F882E6EE6DF
:102F200071E090E080E00E94CA1F0E94AC1F912CCB
:102F3000B12CA12CBA2CA92C982C8824A12A882A3F
:102F4000ED96EEACFFACED9767013CE0C30ED11CF3
:102F500009E311E0D7018D917D01813309F495C01A
:102F6000823309F4EBC1833309F4EBC1843309F4F0
:102F7000EBC1853309F4EBC1863309F4EBC1873328
:102F800009F4EBC1883309F4EBC1893309F4EBC1CF
:102F9000813609F4EBC1823609F4EBC1833609F0BE
:102FA00076C005E511E073C04230510581F4890116
:102FB0000E5F1F4FF801EE0FFF1F41E050E04C0F76
:102FC0005D1FE40FF51FF080E12CCF2C7ACF43304A
:102FD000510589F489010E5F1F4FF801EE0FFF1FA5
:102FE000A1E0B0E0AC0FBD1FEA0FFB1FC080D18095
:102FF000E12CF12C66CF4430510579F489010E5F44
:103000001F4FF801EE0FFF1F21E030E02C0F3D1F96
:10301000E20FF31FE080C12CECCF4530510581F465
:1030200089010E5F1F4FF801EE0FFF1F41E050E0D6
:103030004C0F5D1FE40FF51FC080D180EC2CD9CF61
:103040004630510579F489010E5F1F4FF801EE0FEC
:10305000FF1FA1E0B0E0AC0FBD1FEA0FFB1FF08027
:10306000EF2C15CF4730510509F02BCF89010E5FAA
:103070001F4FF801EE0FFF1F21E030E02C0F3D1F26
:10308000E20FF31FF080EF2CA0CF03E511E0C801A1
:103090000E94AC1FB501A4010E941B01CE14DF04E5
:1030A00009F058CF0E94C9036DEB71E0C1010E9485
:1030B000CB25892B09F061C0C2010E94AC1FF82EFC
:1030C000C3010E94AC1F8C0161E08F2D0E94580348
:1030D00060E0802F0E94580360E08F2D0E94FE0266
:1030E0008FE090E00197F1F761E08F2D0E94FE02E2
:1030F00083E290E00197F1F760E08F2D0E94FE02DD
:1031000060E0802F0E9458031127F801EC53FE4F16
:103110006491F801E055FE4FE491F0E0EE0FFF1FDF
:10312000E456FE4F8591949100E412E42FE030E0E4
:10313000462F0E94CE0F6B017C01C114D104E10423
:10314000F10439F0BFEFCB1ADB0AEB0AFB0AEFE020
:10315000FE228CE891E00E947102C701B6019595AC
:103160008795779567950E9405202DEC3CEC48EEFD
:1031700051E40E9429220E94DD0B65EC71E0C1013F
:103180000E94CB25892B09F020C11FB7F8948091AC
:103190001705811127C0EAEBF1E08491EEECF1E034
:1031A0009491E82FF0E0EE0FFF1FEE53FF4FA59133
:1031B000B491EC91E92321F461E08AE00E94FE02DF
:1031C00061E08AE00E9458038CB580618CBD8CB5AB
:1031D00080648CBD61E08DE00E94580361E08BE06B
:1031E0000E945803809117058F5F809317051FBFBA
:1031F000C3010E94AC1F182FC2010E94AC1F809314
:103200000B0610930C0661E00E94580361E0809168
:103210000B060E94FE0280910C068F3F09F4ACC0A1
:1032200060E00E94580380910C060E94D502892B11
:1032300009F0A2C061E080910C060E94580360E092
:1032400080910C060E94FE0283E090E00197F1F766
:1032500061E080910C060E94FE0262E370E080E073
:1032600090E00E949C0440E064E28DEF95E00E94B3
:10327000E00540E066E28DEF95E00E94E00546E261
:1032800068E48DEF95E00E94E00540E864E58DEF8D
:1032900095E00E94E00549EA66E58DEF95E00E9421
:1032A000E00543E068E58DEF95E00E94E00548EE1B
:1032B0006AE58DEF95E00E94E00540E46AE28DEF5B
:1032C00095E00E94E0054DE362E28DEF95E00E94FB
:1032D000E00568E28DEF95E00E94C205982F93709B
:1032E000933039F0482F436068E28DEF95E00E94FB
:1032F000E0056EE68DEF95E00E94C205182F83E58C
:1033000091E00E947102612F70E090E080E040E166
:103310000E947A0A80E491E0103909F44DC008F067
:1033200042C08CE191E0123109F446C088E491E09A
:10333000183809F441C08FE091E03EC006E511E085
:10334000A6CE06E411E0A3CE08E411E0A0CE03EC83
:1033500011E09DCE0AE411E09ACE04E611E097CE8A
:103360000CE411E094CE0EE411E091CE00E511E002
:103370008ECE02E511E08BCE4FE062E08DEF95E05E
:103380000E94E00513E062E370E080E090E00E94BC
:103390009C0462E08DEF95E00E94C20584FF63CF3C
:1033A000115089F760CF88E391E0113929F080E36B
:1033B00091E0123909F0BFCF0E94FE0B11501E3F61
:1033C00020F08CEC90E00E94FE0B6AEC71E0C101F1
:1033D0000E94CB25892B09F047C08DEF95E00E9414
:1033E0009107882309F440C08DEF95E00E947B058A
:1033F0008823D1F187E891E00E94710210E080916A
:10340000FF05181768F4E12FF0E0E350FA4F6381ED
:1034100070E090E080E04AE00E947A0A1F5FEFCF00
:1034200089E391E00E94EC0B80E589831A829E017A
:103430002D5F3F4F42E0BE016F5F7F4F8DEF95E004
:103440000E94FD05811110C0A12CC12CF12CE12C92
:1034500010E000E030E020E044E0BE016F5F7F4F0D
:103460008DEF95E00E9464066FEC71E0C1010E944F
:10347000CB257C01892B09F0B1C0C2010E94AC1F91
:1034800060E00E945803C2010E94AC1F182F809177
:103490002B06882309F0F89410922606109227062E
:1034A000109228061092290610922A0661E0812FB8
:1034B0000E94580360E0812F0E94FE0262E170E0EA
:1034C00080E090E00E949C0460E0812F0E945803FD
:1034D0008BE990E00197F1F7F0E9CF2EDD24D3944A
:1034E000812F0E94D502892B49F4F1E0CF1AD1082F
:1034F000B9F75EEFE52EFF24FA9454C0E0E9CE2E32
:10350000DD24D394812F0E94D502019729F421E074
:10351000C21AD108B9F7EDCF78E2D72E00E8C12C56
:1035200060E9A62EBB24B394812F0E94D502892B7B
:1035300029F431E0A31AB108B9F7DBCF0E94A40344
:103540004B015C0140E951E0E3965FAF4EAFE3977A
:10355000812F0E94D502019761F4E3968EAD9FAD55
:10356000E3970197E3969FAF8EAFE397892B81F79F
:10357000C0CF0E94A403681979098A099B0969329E
:1035800071058105910538F0EC2DF0E0EA5DF94F09
:103590008081802B8083069511F4C39400E8DA942F
:1035A000D110BECF80912B06882309F07894EF28A4
:1035B00009F426C180E090ECA9E7B4EC80932C06D6
:1035C00090932D06A0932E06B0932F06809330067D
:1035D00090933106A0933206B093330668ED71E004
:1035E000C1010E94CB25892BC9F4609130067091EE
:1035F0003106809132069091330642E00E94010B21
:1036000085E891E00E94710260912C0670912D0670
:1036100080912E0690912F060E94DD0B62EE71E0E4
:10362000C1010E94CB25892B09F052C2C2010E9420
:10363000AC1F7C01ED968EAD9FADED970E94AC1F47
:103640000397ED969FAF8EAFED979C01032E000C74
:10365000440B550BE5962CAF3DAF4EAF5FAFE597F2
:10366000C3010E94AC1FE7969FAF8EAFE797809192
:1036700001018E1114C1E8E6F1E0149117FD15C2A5
:1036800061E08E2D0E945803112319F0123009F0C9
:103690005CC3E7964EAD5FADE7974A01B12CA12C14
:1036A00060E072E18AE790E0A50194010E94222186
:1036B000EB962CAF3DAF4EAF5FAFEB9769017A0150
:1036C00051E0C51AD108E108F1088FEFC816D104FE
:1036D000E104F10409F00CF4ACC160E472E48FE0A1
:1036E00090E0A50194010E94222169017A0191E0F4
:1036F000C91AD108E108F108123009F04DC182E081
:10370000AFEFCA16D104E104F10409F00CF471C062
:1037100060E970ED83E090E0A50194010E94222110
:1037200069017A01B1E0CB1AD108E108F10883E020
:10373000EFEFCE16D104E104F10409F00CF459C006
:1037400068E478EE81E090E0A50194010E942221D6
:1037500069017A01F1E0CF1AD108E108F10884E0AB
:103760002FEFC216D104E104F10409F00CF441C0BA
:1037700064E274EF80E090E0A50194010E942221B0
:1037800069017A0191E0C91AD108E108F10885E0E0
:10379000AFEFCA16D104E104F10459F150F162E12E
:1037A0007AE780E090E0A50194010E94222169015E
:1037B0007A0181E0C81AD108E108F10886E09FEF9C
:1037C000C916D104E104F104A1F098F0EB96CCAC59
:1037D000DDACEEACFFACEB978AE0F594E794D794C0
:1037E000C7948A95D1F7E1E0CE1AD108E108F10833
:1037F00087E09091B100987F892B8093B10020C120
:103800006091270670E090E080E00E9405202DEC9A
:103810003CEC4CEC5DE30E9464206B017C01609108
:10382000260670E090E080E00E9405209B01AC013C
:10383000C701B6010E94BD2160932C0670932D062E
:1038400080932E0690932F061091280660912906EA
:1038500070E090E080E00E9405202DEC3CEC4CEC08
:103860005DE30E9464206B017C01612F6F7770E043
:1038700090E080E00E9405209B01AC01C701B601E9
:103880000E94BD2117FD09C0609330067093310678
:103890008093320690933306A1CE9058F5CF8F3F98
:1038A00009F003C1E0920101E8E6F1E014911F3F45
:1038B00009F4FBC0113041F150F0123009F446C058
:1038C00017FDF3C061E08E2D0E945803DFCE14BCBB
:1038D00015BC84B5826084BD85B5816085BDC70196
:1038E0009927FC01E055FE4FE491F0E0EE0FFF1F39
:1038F000EA55FE4F25913491FC01EC53FE4FE491C3
:10390000E0931C0510E0BCCE109280001092810064
:103910008091810088608093810080918100816026
:1039200080938100C7019927FC01E055FE4FE49187
:10393000F0E0EE0FFF1FEA55FE4F25913491FC0198
:10394000EC53FE4FE491E0931B059ACE1092B00029
:103950001092B1008091B00082608093B00080919D
:10396000B10081608093B100C7019927FC01E05547
:10397000FE4FE491F0E0EE0FFF1FEA55FE4F259158
:10398000349130931A0520931905FC01EC53FE4F36
:10399000E491E093180574CEFFEFCF16D104E10453
:1039A000F10409F00CF4CFC168E478EE81E090E016
:1039B000A50194010E94222169017A0181E0C81ABF
:1039C000D108E108F10884E01111E2CE83E03FEF75
:1039D000C316D104E104F10479F174F162E17AE7EC
:1039E00080E090E0A50194010E94222169017A0102
:1039F000A1E0CA1AD108E108F10884E0BFEFCB16B4
:103A0000D104E104F104C1F0B8F0EB96CCACDDAC2C
:103A1000EEACFFACEB979AE0F594E794D794C7949B
:103A20009A95D1F7B1E0CB1AD108E108F10885E009
:103A300003C081E01111DDCE95B5987F892B85BD3E
:103A4000E5968CAD9DADAEADBFADE5972FEF3FEFE9
:103A5000A901892B8A2B8B2B91F0E7962EAD3FADD8
:103A6000E797220F331FED96AEADBFADED970E94E5
:103A7000862328EE33E040E050E00E948B21113095
:103A800009F4A7C1123009F4B6C111110EC0C7BCA8
:103A9000209325053093260540932705509328054C
:103AA00080916E00826080936E00E5966CAD7DAD76
:103AB0008EAD9FADE5970E949C04C2010E94AC1F91
:103AC0000E942C0362E070E080E090E00E949C0481
:103AD0006BEE71E0C1010E94CB25892B09F0DBC0A0
:103AE000C2010E94AC1F182F809123068C3008F071
:103AF00052C061E0812F0E94580380912306282F35
:103B000030E0F901EE0FFF1FE20FF31FE852FA4F0A
:103B10001F739081907C912B9083109224061092B9
:103B200025062CE0622F0E946023829FB0011124A1
:103B300030E020E0AB01420F531FFA01EE0FFF1FF0
:103B4000E40FF51FE852FA4F908196FD16C02F5FE3
:103B50003F4F2C30310571F781110FC0109280005A
:103B600082E0809381001092850010928400B19AC7
:103B700080916F00826080936F00E09123068E2F0A
:103B800090E0FC01EE0FFF1FE80FF91FE852FA4F1B
:103B900080818064808310912306C3010E94AC1F42
:103BA0008032A2E09A070CF03DC020912406E8E89C
:103BB000CE2ED12CC21AD10827FDD394CC0CDD1CFB
:103BC000CC0CDD1C0D2C000CEE08FF0840912506E6
:103BD00028E532E0241B310947FD3395220F331FBE
:103BE000220F331F032E000C440B550B2C193D09DB
:103BF0004E095F09DC01853B910514F0A4EBB0E0B0
:103C0000B7FF02C0B0E0A0E00E944C2124EB30E0FE
:103C100040E050E00E942221DA01C9018C0D9D1D77
:103C2000AE1DBF1D1C3088F52091240648E850E0E9
:103C3000421B510927FD5395440F551F440F551F33
:103C40008417950784F02091250648E552E0421B31
:103C5000510927FD5395440F551F440F551F8417D5
:103C600095070CF4AC0142505109440F551F2FB772
:103C7000F894812F90E0FC01EE0FFF1FE80FF91F71
:103C8000E852FA4F528341832FBF64E670E080E030
:103C900090E00E949C0466EF71E0C1010E94CB2578
:103CA000892BA1F483E891E00E947102C2010E9475
:103CB000AC1F0E94DF0A81E891E00E947102C201FC
:103CC0000E94AC1F0E9489030E94E90A61E072E031
:103CD000C1010E94CB25892BD1F4C2010E94AC1FE7
:103CE00060E00E9458038FE791E00E947102C201D8
:103CF0000E94AC1F0E94DF0A8DE791E00E947102D2
:103D0000C2010E94AC1F0E94D5020E94E90A6DE028
:103D100072E0C1010E94CB25892B09F0A9C0C30123
:103D20000E94AC1F8C01C2010E94AC1F7C0161E0AB
:103D30000E9458030115110509F06DC060E08E2D39
:103D40000E94FE0295C082E075CEE796EEADFFAD13
:103D5000E7974F01B12CA12C60E072E18AE790E077
:103D6000A5019F010E94222169017A01F1E0CF1A89
:103D7000D108E108F10891E0C114D10421E0E20684
:103D8000F10484F068E478EE81E090E0A50194010C
:103D90000E94222169017A0181E0C81AD108E10854
:103DA000F10893E0113009F04BCE80918100887FBB
:103DB000892B80938100E5962CAD3DAD4EAD5FAD76
:103DC000E597232B242B252B09F047CE2FEF3FEF30
:103DD000A901D0928900C0928800209321053093D8
:103DE0002205409323055093240580916F00826043
:103DF00080936F005ACEC092B30020931D0530937C
:103E00001E0540931F05509320058091700082602D
:103E1000809370004ACE0F3F110511F461E08FCFFF
:103E2000F701FF27E759FE4FE491E33009F44FC053
:103E300048F4E130C9F0E23009F444C0003811051B
:103E40006CF77CCFE73009F44CC0E83009F451C07E
:103E5000E430A1F78091800080628093800010930D
:103E60008B0000938A0004C084B5806884BD07BDC0
:103E700069E172E0C1010E94CB25892B81F4C20166
:103E80000E94AC1F61E00E945803C3010E94AC1F56
:103E9000182FC2010E94AC1F612F0E94FE0281E018
:103EA0008093020180E090E0892B11F40C947F1242
:103EB0000E94EE01882311F40C947F120E940000EE
:103EC0000C947F1284B5806284BD08BDD1CF8091EF
:103ED00080008068809380001093890000938800A0
:103EE000C7CF8091B00080688093B0000093B3008A
:103EF000BFCF8091B00080628093B0000093B40087
:103F0000B7CF80911606909117060E947C2480916D
:103F100013069091140697FD03C060E00E945803B9
:103F200089E291E090933506809334068091DF0218
:103F30009091E0028453964071F4E0914706F0912D
:103F4000480690818091490680958923808310924C
:103F5000E0021092DF020895FC0188279927E89477
:103F600021912032E9F3293010F02E30C8F32B32A2
:103F700041F02D3239F4689404C00E94F61F820F7C
:103F8000911D219120532A30C0F31EF49095819504
:103F90009F4F089543E556E00E94CF1F0895FA0110
:103FA000A191B081009719F41097E1F0CD01DC01E7
:103FB000CD010D90002011F4C00113C0FB0121912F
:103FC000222319F02015D9F7F3CFFB0121912015F9
:103FD00019F41E92119606C02223C1F70D900020FD
:103FE000A1F7D001FA01A193B08308957AE0979FD9
:103FF000902D879F802D910D112408950E944020BF
:1040000008F481E00895E89409C097FB3EF4909588
:104010008095709561957F4F8F4F9F4F9923A9F0A1
:10402000F92F96E9BB279395F69587957795679530
:10403000B795F111F8CFFAF4BB0F11F460FF1BC074
:104040006F5F7F4F8F4F9F4F16C0882311F096E907
:1040500011C0772321F09EE8872F762F05C06623B5
:1040600071F096E8862F70E060E02AF09A95660F6E
:10407000771F881FDAF7880F9695879597F9089527
:10408000990F0008550FAA0BE0E8FEEF1616170669
:10409000E807F907C0F012161306E407F50798F0D1
:1040A000621B730B840B950B39F40A2661F0232BEA
:1040B000242B252B21F408950A2609F4A140A69566
:1040C0008FEF811D811D08950E9477200C94E820B8
:1040D0000E94DA2038F00E94E12020F0952311F0B0
:1040E0000C94D1200C94D72011240C941C210E94F4
:1040F000F92070F3959FC1F3950F50E0551F629F13
:10410000F001729FBB27F00DB11D639FAA27F00D30
:10411000B11DAA1F649F6627B00DA11D661F829F57
:104120002227B00DA11D621F739FB00DA11D621F3C
:10413000839FA00D611D221F749F3327A00D611D59
:10414000231F849F600D211D822F762F6A2F11243B
:104150009F5750409AF0F1F088234AF0EE0FFF1F6E
:10416000BB1F661F771F881F91505040A9F79E3FC5
:10417000510580F00C94D1200C941C215F3FE4F396
:10418000983ED4F3869577956795B795F795E7951B
:104190009F5FC1F7FE2B880F911D9695879597F924
:1041A000089597F99F6780E870E060E008959FEFB9
:1041B00080EC089500240A941616170618060906BE
:1041C000089500240A94121613061406050608958D
:1041D000092E0394000C11F4882352F0BB0F40F415
:1041E000BF2B11F460FF04C06F5F7F4F8F4F9F4F55
:1041F000089557FD9058440F551F59F05F3F71F0D7
:104200004795880F97FB991F61F09F3F79F087953D
:104210000895121613061406551FF2CF4695F1DFC6
:1042200008C0161617061806991FF1CF8695710556
:10423000610508940895E894BB2766277727CB018A
:1042400097F90895052E97FB1EF400940E943921DA
:1042500057FD07D00E948B2107FC03D04EF40C942D
:10426000392150954095309521953F4F4F4F5F4FE5
:10427000089590958095709561957F4F8F4F9F4FD2
:1042800008950E94AD21A59F900DB49F900DA49F0D
:10429000800D911D11240895B7FF0C9441210E94B7
:1042A0004121821B930B08952F923F924F925F9270
:1042B0006F927F928F929F92AF92BF92CF92DF9236
:1042C000EF92FF920F931F93CF93DF93CDB7DEB79B
:1042D000CA1BDB0B0FB6F894DEBF0FBECDBF09942F
:1042E0002A88398848885F846E847D848C849B8486
:1042F000AA84B984C884DF80EE80FD800C811B8194
:10430000AA81B981CE0FD11D0FB6F894DEBF0FBEC2
:10431000CDBFED010895A1E21A2EAA1BBB1BFD0122
:104320000DC0AA1FBB1FEE1FFF1FA217B307E40794
:10433000F50720F0A21BB30BE40BF50B661F771FEC
:10434000881F991F1A9469F76095709580959095CC
:104350009B01AC01BD01CF010895A29FB001B39FA5
:10436000C001A39F700D811D1124911DB29F700D7E
:10437000811D1124911D08955058BB27AA270E9422
:10438000D4210C94E8200E94DA2038F00E94E12029
:1043900020F039F49F3F19F426F40C94D7200EF442
:1043A000E095E7FB0C94D120E92F0E94F92058F307
:1043B000BA17620773078407950720F079F4A6F50A
:1043C0000C941B210EF4E0950B2EBA2FA02D0B019F
:1043D000B90190010C01CA01A0011124FF27591B4A
:1043E00099F0593F50F4503E68F11A16F040A22F50
:1043F000232F342F4427585FF3CF469537952795C1
:10440000A795F0405395C9F77EF41F16BA0B620BBF
:10441000730B840BBAF09150A1F0FF0FBB1F661F06
:10442000771F881FC2F70EC0BA0F621F731F841F49
:1044300048F4879577956795B795F7959E3F08F06F
:10444000B0CF9395880F08F09927EE0F9795879531
:1044500008950E943D220C94E8200E94E12058F02B
:104460000E94DA2040F029F45F3F29F00C94D1201B
:1044700051110C941C210C94D7200E94F92068F350
:104480009923B1F3552391F3951B550BBB27AA270D
:1044900062177307840738F09F5F5F4F220F331F47
:1044A000441FAA1FA9F335D00E2E3AF0E0E832D00F
:1044B00091505040E695001CCAF72BD0FE2F29D012
:1044C000660F771F881FBB1F261737074807AB07E4
:1044D000B0E809F0BB0B802DBF01FF2793585F4F59
:1044E0003AF09E3F510578F00C94D1200C941C2199
:1044F0005F3FE4F3983ED4F3869577956795B7953B
:10450000F7959F5FC9F7880F911D9695879597F945
:104510000895E1E0660F771F881FBB1F62177307BE
:104520008407BA0720F0621B730B840BBA0BEE1FD3
:1045300088F7E09508950E94A2226894B1110C9426
:104540001C2108950E94012188F09F5798F0B92FEF
:104550009927B751B0F0E1F0660F771F881F991FB8
:104560001AF0BA95C9F714C0B13091F00E941B211E
:10457000B1E008950C941B21672F782F8827B85F2E
:1045800039F0B93FCCF3869577956795B395D9F710
:104590003EF490958095709561957F4F8F4F9F4F1A
:1045A00008950E94402008F48FEF089516F00C94AF
:1045B0002B230C94D72068940C94D1200E940121C5
:1045C000A8F39923C1F3AEF3DF93CF931F930F9317
:1045D000FF92C92FDD2788232AF02197660F771FC6
:1045E000881FDAF720E030E040E85FEB9FE388398E
:1045F00020F0803E38F021968F770E94BD21E8E6BA
:10460000F0E004C00E94BD21E5E9F0E00E943923FA
:104610008B01BE01EC01FB2E6F5771097595771F59
:10462000880B990B0E94052028E132E741E35FE304
:104630000E947720AF2D9801AE01FF900F911F913E
:10464000CF91DF910E94D4210C94E8200E94402059
:10465000880B990B08959F3F31F0915020F4879576
:1046600077956795B795880F911D9695879597F9DA
:104670000895DF93CF931F930F93FF92EF92DF92F2
:104680007B018C01689406C0DA2EEF010E9477202E
:10469000FE01E894A5912591359145915591A6F398
:1046A000EF010E94D421FE019701A801DA9469F775
:1046B000DF90EF90FF900F911F91CF91DF910895C0
:1046C000991B79E004C0991F961708F0961B881F64
:1046D0007A95C9F78095089597FB072E16F40094F4
:1046E00007D077FD09D00E94CC2307FC05D03EF40B
:1046F000909581959F4F0895709561957F4F08958E
:10470000EE0FFF1F0590F491E02D09940E94AD215A
:10471000B7FF0895821B930B0895002E083090F088
:10472000982F872F762F652F542F432F322F222734
:104730000850F4CF220F331F441F551F661F771FE9
:10474000881F991F0A95B2F7002D089597FD1094C0
:10475000002E083098F00850232F342F452F562F65
:10476000672F782F892F912DF4CF159497958795E2
:104770007795679557954795379527950A95AAF7A1
:104780001124002D08952A0D3B1D4C1D5D1D6E1D2D
:104790007F1D801F911F0895AA1BBB1B51E107C0FD
:1047A000AA1FBB1FA617B70710F0A61BB70B881FC1
:1047B000991F5A95A9F780959095BC01CD01089550
:1047C0000F931F93CF93DF938230910510F482E013
:1047D00090E0E0915706F091580630E020E0B0E01C
:1047E000A0E0309799F42115310509F44AC0281B3F
:1047F000390B24303105D8F58A819B81611571050B
:1048000089F1FB0193838283FE0111C040815181B4
:104810000281138148175907E0F04817590799F4A6
:10482000109761F012960C93129713961C93329680
:10483000CF01DF91CF911F910F91089500935706FB
:1048400010935806F4CF2115310551F04217530744
:1048500038F0A901DB019A01BD01DF01F801C1CFE8
:10486000EF01F9CF9093580680935706CDCFFE0104
:10487000E20FF31F819391932250310939832883EA
:10488000D7CF2091550630915606232B41F4209125
:10489000050130910601309356062093550620916C
:1048A0000301309104012115310541F42DB73EB7C4
:1048B0004091070150910801241B350BE0915506EA
:1048C000F0915606E217F307A0F42E1B3F0B2817B2
:1048D000390778F0AC014E5F5F4F2417350748F079
:1048E0004E0F5F1F50935606409355068193919348
:1048F0009FCFF0E0E0E09CCFCF93DF930097E9F00B
:10490000FC01329713821282A0915706B09158068B
:10491000ED0130E020E01097A1F420813181820F79
:10492000931F20915506309156062817390709F034
:1049300061C0F0935606E0935506DF91CF9108953C
:10494000EA01CE17DF07E8F54A815B819E01411538
:104950005105B1F7E901FB83EA8349915991C40FED
:10496000D51FEC17FD0761F4808191810296840FB9
:10497000951FE90199838883828193819B838A8330
:10498000F0E0E0E012968D919C9113970097B9F5B5
:104990002D913C911197CD010296820F931F20918A
:1049A0005506309156062817390739F6309751F5D4
:1049B0001092580610925706B0935606A0935506CB
:1049C000BCCFD383C28340815181840F951FC81708
:1049D000D90761F44E5F5F4F88819981480F591F55
:1049E000518340838A819B81938382832115310582
:1049F00009F0B0CFF0935806E09357069ECFFD0123
:104A0000DC01C0CF13821282D7CFB0E0A0E0EBE090
:104A1000F5E20C9456218C01009751F4CB010E94D1
:104A2000E0238C01C801CDB7DEB7E0E10C94722120
:104A3000FC01E60FF71F9C0122503109E217F30732
:104A400008F49DC0D901CD91DC911197C617D70705
:104A500098F0C530D10530F3CE010497861797073B
:104A600008F3C61BD70B2297C193D1936D937C9308
:104A7000CF010E947C24D6CF5B01AC1ABD0A4C0149
:104A80008C0E9D1EA0915706B0915806512C412CBA
:104A9000F12CE12C109731F5809155069091560636
:104AA0008815990509F05CC04616570608F058C0ED
:104AB0008091030190910401009741F48DB79EB756
:104AC0004091070150910801841B950BE817F907E5
:104AD00008F055C0F0935606E0935506F90171832E
:104AE0006083A0CF8D919C91119712966C90129734
:104AF00013967C901397A815B90559F56C0142E0FF
:104B0000C40ED11CCA14DB0420F1AC014A195B09A4
:104B1000DA011296159780F0628273825183408386
:104B2000D9016D937C93E114F10471F0D7011396D0
:104B3000FC93EE93129776CF22968C0F9D1FF9016E
:104B400091838083F301EFCFF0935806E0935706EB
:104B500069CF4816590608F42C017D01D3019ACF7C
:104B6000CB010E94E0237C01009749F0AE01B8011F
:104B70000E94C225C8010E947C24870153CF10E007
:104B800000E050CFFB01DC0102C001900D924150CA
:104B90005040D8F70895FB01DC018D9101908019F8
:104BA0000110D9F3990B0895FB01DC0101900D92DE
:104BB0000020E1F7089510E0CDEED0E004C0FE0142
:104BC0000E9480232196CE3ED107C9F7F894FFCFEB
:104BD00001FF01000059068000000000002402844B
:104BE00001B1018C02E201C001D40100000000F417
:104BF0000791077B0500000000E8048401CA09E76B
:104C00000444055A05CF040D0A006E616E00696EFA
:104C100066006F76660032003300350037003800DA
:104C200039003130003131002300766572003131B6
:104C30003430343236006D617873686F77002C0041
:104C4000706D006E74630041766572616765206106
:104C50006E616C6F672072656164696E67200054D5
:104C60006865726D6973746F7220726573697374AD
:104C7000616E6365200054656D7065726174757254
:104C8000652000202A430073680077730048432D95
:104C900053523034006D667230006D6672310064BC
:104CA00068743131536574006468743131526561E0
:104CB0006400746F6E65506C617900736572766F15
:104CC000577269746500616E616C6F6752656164EB
:104CD000006469676974616C5265616400616E614A
:104CE0006C6F675772697465006469676974616C99
:064CF000577269746500B3
:00000001FF
