:1000000000400020F9190000391A00003B1A0000D6
:1000100000000000000000000000000000000000E0
:100020000000000000000000000000003D1A000079
:1000300000000000000000003F1A0000411A00000C
:10004000431A0000431A000025230000431A000051
:10005000431A000000000000431A0000431A000089
:10006000431A0000E11C0000BD0D0000431A00000F
:10007000431A0000431A0000431A0000431A00000C
:10008000431A0000A11A0000431A0000431A00009E
:10009000431A0000431A0000431A0000431A0000EC
:1000A000431A0000431A0000000000000000000096
:1000B0000000000000000000000000000000000040
:1000C000054B0648033310B51B1A062B03D9044B06
:1000D000002B00D0984710BD500100205001002097
:1000E000000000000648074910B5091A8910CB0F17
:1000F0005918491003D0044B002B00D0984710BD6D
:1001000050010020500100200000000010B5074CF5
:100110002378002B09D1FFF7D3FF054B002B02D02A
:10012000044800E000BF0123237010BD50010020EF
:100130000000000040800000094B10B5002B03D0E8
:100140000849094800E000BF08480368002B02D1B5
:10015000FFF7C8FF10BD064B002BF9D09847F7E713
:100160000000000054010020408000004C010020ED
:1001700000000000164B002B00D1144B9D4640227E
:1001800092029A1A924600218B460F461348144A4F
:10019000121A04F09AFA0F4B002B00D098470E4B1E
:1001A000002B00D098470020002104000D000D48CE
:1001B000002802D00C4800E000BF04F043FA200001
:1001C000290002F09BF904F017FAC046000008006D
:1001D000004000200000000000000000500100204E
:1001E00020030020000000000000000070B50C4C4F
:1001F000200000F00DFD0B4D0B492A00200004F0FB
:10020000BFF90A4801F0BAFA094C0A49200002F085
:10021000E6F82A000849200004F0B2F970BDC04693
:100220007801002000000020390C00006C01002043
:10023000B8010020827C00005123000010B5114C51
:100240000E21200000F018FC1121200000F021FBFD
:100250008021200000F01DFB200000F077FC0F2023
:1002600001F010FC20000E2100F006FC10212000FF
:1002700000F00FFB0121200000F00BFB200000F03C
:1002800065FC10BDC4010020E12170B5194C490284
:10029000200001F0CDFE2000052101F0B0FE00217C
:1002A000052001F063FD00210B2001F05FFD1248E5
:1002B00000F026FD1149200001F0D2FD104C200075
:1002C00000F020FB20000F4900F04EFB0E4D2023D4
:1002D00001222800022101F02AFB0221280001F05E
:1002E000F9FA280001F0BAFA200000F00BFBFFF742
:1002F000A5FF70BDAC02002078010020397100001C
:10030000C4010020801A06006C01002070B50500B1
:10031000154C0E21200000F0AFFBE9B2200000F0E8
:10032000B8FA200000F012FC02200138C046C04696
:10033000C046C046C046C046C046C046C046C0468D
:10034000C046C046F1D101220E21200000F08FFBF3
:10035000200000F094FA002804D0200000F094FA65
:100360000600F5E7300070BDC401002070B50D0037
:10037000FFF7CCFF040002200138C046C046C0464B
:10038000C046C046C046C046C046C046C046C0463D
:10039000C046F1D12800FFF7B9FF2402204370BD09
:1003A00010B502210120FFF7E1FF10BD10B50421B7
:1003B0000320FFF7DBFF10BD10B506210520FFF776
:1003C000D5FF10BD1423F0B58BB002AFF8189349D8
:1003D00001F018FE1423924CF918200002F030F8B6
:1003E0001423F81801F0B4FF6A46A36820005D1CCE
:1003F0000833DB08DB00D31A9D4602AE2A00002337
:10040000310002F05EF800212000715502F043F83F
:10041000824C051E00D0F7E18249300004F0F2FF63
:100420008049F860280004F0EDFF7E4906002800AE
:1004300004F0E8FF7C49B860F86804F0B7FF0028D2
:100440000CD1033001F03CFB05007849200001F09D
:10045000F5FC0A222900200001F071FD7449F868BA
:1004600004F0A4FF002817D17249200001F0E6FC37
:10047000052001F0AFFC0A220100200001F05BFD25
:100480006D49200001F0DAFC0B2001F0A3FC0A22E8
:100490000100200001F053FD6849F86804F086FF70
:1004A000002800D0F0E06649300004F07FFF00280B
:1004B00004D10121634800F05BFBE5E062493000B4
:1004C00004F074FF614900281BD06149300004F03A
:1004D0006DFF6049002814D05F49300004F066FFCA
:1004E0005E4900280DD05E49300004F05FFF5D4991
:1004F000002806D05C49300004F058FF002804D1E1
:100500005A49504800F064FCBEE05949300004F0FC
:100510004DFF002803D14B4800F054FCB4E055498E
:10052000300004F043FF041E22D1434DB868290077
:1005300004F068FF29007860200004F063FF2900C0
:100540003860200004F05EFF0400786804F040F892
:100550000500386804F03CF87860200004F038F8B2
:1005600004217A5E83B229B2364800F00FFB8BE09B
:100570004149300004F01AFF002830D12E4CB868F1
:10058000210004F03FFF21007860002004F03AFFD2
:1005900021000500002004F035FF21003860002014
:1005A00004F030FF0400786804F012F87860280046
:1005B00004F00EF80500386804F00AF838602000EE
:1005C00004F006F80424395F012400B20022BB5E67
:1005D00000902AB201941B4800F059FD54E02749CD
:1005E000300004F0E3FE00284AD105000523002472
:1005F0006B43BA68D3187B607B681B5D312B05D1D8
:100600002AB221B2303B0F4800F0C0FA0134052C69
:10061000F2D10135052DE9D136E0C046AC0200200B
:10062000B801002043710000457100004B710000CB
:100630004E710000507100005371000055710000B0
:10064000597100007801002060710000FE75000003
:1006500066710000F475000069710000F975000012
:100660006D710000C77100007371000034710000EB
:10067000777100007D7100008771000090710000AB
:100680003100634800F0E4FB6249F86804F08EFE34
:10069000002828D1604D614B614A2900614801F072
:1006A00061F9614C6149200001F0C8FB0023E95E5B
:1006B0000A22200001F03FFC5D4D2000290001F0DE
:1006C000BDFB574B0A220021595E200001F033FC8C
:1006D0002900200001F0B2FB504B0A220021595E94
:1006E000200001F02CFC5349F86804F05FFE00285C
:1006F00022D14D4C5049200001F0A0FBFFF750FEE5
:100700000A220100200001F016FC494D20002900BA
:1007100001F094FBFFF74AFE0A220100200001F0DD
:100720000AFC2900200001F089FBFFF745FE0A22A0
:100730000100200001F003FC4049F86804F036FE97
:10074000041E1CD1300003F043FF210001F00EFB1A
:10075000354C3B49200001F071FB3100200001F0D5
:100760006DFB3849200001F069FB300003F030FFD9
:1007700001F030FB0A220100200001F0E0FB3249C9
:10078000F86804F013FE002816D1274C2F492000EA
:1007900001F054FB3100200001F050FB29492000FA
:1007A00001F04CFB300003F013FF01F089F90A223D
:1007B0000100200001F095FB2549F86804F0F6FDE2
:1007C000002810D1300003F003FF012101F0CEFA20
:1007D000300003F0FDFE0400B86803F0F9FE0100EC
:1007E000200001F0E1FA1B49F86804F0DFFD002861
:1007F0000AD1300003F0ECFE0400B86803F0E8FE14
:100800000100200001F0EAF9BD4609B0F0BDC04684
:100810007801002097710000700100207401002011
:10082000720100206C010020AC0200209B710000CE
:1008300053710000A0710000A4710000A9710000B4
:10084000B57100009E710000B07100009971000048
:10085000B7710000BF710000F8B505000E00170069
:100860000024BC4208D02B68315D1B6828009847E3
:10087000002801D00134F4E72000F8BD704710B51E
:100880001C3001F08EFB10BD10B51C3001F07BFB5D
:1008900010BD70B5437E0D00002B05D06430040000
:1008A00001F08EFB002801D0002004E02000290088
:1008B00001F05AFB012070BD10B51C3001F077FB30
:1008C00010BD0000F7B50193FA23002504009B003A
:1008D00083600B4B4560083303601C300F0016002B
:1008E00001F037FB2000643001F033FB6B461B79CD
:1008F000276166756576A5762000A375FEBDC046A6
:10090000CC710000012330B5A024C375837D12494A
:100910009B005A58437DC1329B005B580F4DC13339
:10092000FF32FF33E40592009B0015511D51CC248A
:1009300003690B4A64049C500524243A9C50827D30
:1009400092005458A122D2009C50427D92005158EE
:10095000044A995030BDC046FC7B00000C060000E4
:10096000240500000C050000A02302690020DB0024
:10097000D0500948814204D90848814204D9CD2188
:1009800003E0CC21490401E08021C904044811504E
:100990000521D1507047C046A086010090D00300C9
:1009A00024050000F7B5050000200C0001938242E9
:1009B0005CD0161E402E00D940262F001C37380070
:1009C00001F0DDFAB1222B69D20080219C50012276
:1009D00089005A50A97E002901D11A621A600024A8
:1009E000731E2A69A34206D1019B002B03D08023EA
:1009F00002219B00D150012313621300FC33D968FC
:100A0000002902D1996A0029F9D0996A00290AD1EE
:100A1000D960A323DB00D1583800C9B2013401F0FA
:100A2000A3FAA642DCD8019A2B69002A04D11A0045
:100A3000FC32916A00290AD001210022AA7659616C
:100A40001900FC3188680028FCD08A6007E0012189
:100A5000A976D961D16C0029FCD00021D164FC3386
:100A60009A6A002A01D000229A62E0B2FEBD10B557
:100A70000123FFF797FF10BD0300AC3310B504004E
:100A80001970643001F07BFA0123637610BD000019
:100A9000F8B500220D0001004276AC310369040074
:100AA0000878B121C9005850802189005A5001327C
:100AB0001A629A6026006436300001F072FA00284B
:100AC0000ED03000276901F05EFA1E4BF850236902
:100AD000FC331A6A002A0CD19A6A002AF9D008E07D
:100AE0002369002D0AD11A00FC32916A002905D130
:100AF0000EE09A6A002AF3D11A62DBE701225A61FA
:100B00001A00FC3291680029FCD00021916006E0B7
:100B10000121D961D16C0029FCD00021D1641A00D7
:100B20000020FC32916A81420BD0074990625A58EA
:100B300002305A50824204D0043A534253410230A8
:100B4000C01AF8BD1C050000C404000010B5012146
:100B5000FFF79EFF10BD000010B5132314220249B9
:100B60000248FFF7AFFE10BD00400040C401002066
:100B7000020010B51B3200231C0001332434015540
:100B8000092BF9D109308242F5D110BD30B50029C9
:100B900039DB002A37DB0C25445F8C4233DD0E2520
:100BA000445F94422FDD847E022C09D0032C10D0A8
:100BB000012C13D10489013CA41A0A0021B20DE0D2
:100BC0000489013C611A448909B2013CA21A12B29B
:100BD00004E04489013C641A110022B205246243F6
:100BE0005118094AC9B2525C013AD4B2074A525C60
:100BF000013AD1B209224A43821812190532002B58
:100C000000D00123D37730BD290000200700002049
:100C1000052210B50400110000F0CAFA2000054BAF
:100C20001B22083323600021243003F04EFD2000F6
:100C300010BDC046A475000070470000F7B5002540
:100C4000194C1A4F237806000021F85C01F0ACF82B
:100C50000097174F0121E85D013501F0A5F80197D4
:100C6000092DF6D123780133DBB22370022B01D991
:100C7000002323700025092723787B43F3185B1991
:100C80000533DB7F002B04D0019B0021585D01F070
:100C90008BF80135092DEFD12378009A0121D05C22
:100CA00001F082F8F7BDC046800200200400002059
:100CB0002000002000220E4B0E49A22010B55A50F1
:100CC00004240121C000D9601C50FA2408381A50AD
:100CD000A40038301C5008481A508020C12240021D
:100CE000920098508020054AC0001060196010BD25
:100CF00000A00040040500004405000000E100E001
:100D000070B505000024194B1860194E0121A05D33
:100D100001F02CF8A05D0121013401F045F8092C07
:100D2000F3D10024134E0121A05D01F01FF8A05D56
:100D30000021013401F038F8032CF3D128002B00F6
:100D400000241B30002211002431591801320C708C
:100D5000092AF8D109339842F4D10022064B280021
:100D60001A70FFF7A7FF012070BDC0467C0200206B
:100D70002000002004000020800200200C4B10B551
:100D80005A6C0C4C002A11D0C1229200A258D203F6
:100D90000CD500225A64084B1868FFF74FFFA822B1
:100DA000FA21D200A35889005B18A35010BDC04699
:100DB000FCA0004000A000407C02002010B5FFF71E
:100DC000DDFF10BD10B503680021DB6B984710BD37
:100DD00030B585B00D000400FFF7F4FF01230321B7
:100DE0000293043301930333009300222B00494202
:100DF000200000F053FA05B030BD0000F7B50E003A
:100E000012490400019200F06DFC0023052705251E
:100E1000E3760133E382A3827F42300004F0D8FA04
:100E200000B20138784385420EDD052325826382B6
:100E30002000FFF7C7FF3100200000F0FFFF0198FE
:100E400000F020FE013DE8E7F7BDC0469C720000BF
:100E500070B50D000F490400002600F043FC01238B
:100E6000E676E382A382280004F0B2FA012805D9CD
:100E7000962229002000FFF7C1FF09E02000FFF7BC
:100E8000A1FF0523268263822900200000F0D6FFFF
:100E900070BDC0469C720000F0B515000C001E002D
:100EA00089B00EAB00229B5E0FAA128801900692B9
:100EB0005A1BD11752184A400292321BD1175218AE
:100EC0004A4003920399029A8A4205DD32001E00CD
:100ED000130022002C001500B44205DD2A001D007D
:100EE0001300220034001600321B92B205925A1BE6
:100EF000D11752184A4007926A461421525ED10F08
:100F00008A18521092B20092012204929D4201DB93
:100F1000154B0493B44224DC019B029A1B6803998D
:100F20001B691F00069B8A4202DD2200290001E0A6
:100F30002A0021000198B847009A079BD31A9BB258
:100F40009AB200926A46128812B2002A06DA049A0D
:100F5000AD18059A2DB2D3189BB20093013424B278
:100F6000D8E709B0F0BDC046FFFF000010B5046827
:100F7000A468A04710BD37B506AC25880468009565
:100F8000246BA04737BD37B506AC258804680095AB
:100F9000646BA04737BD73B506AC0025655F07AC31
:100FA0002688046801960095A46BA04773BD70471E
:100FB000F0B5160004000D0085B003930AAB1F883E
:100FC0000368DB689847039B2268013B9B191BB2AF
:100FD00000930197176A2B00320029002000B847C0
:100FE000236820005B6A984705B0F0BDF0B50500A6
:100FF0001C000E00170085B00AAB1B88013C039350
:101000000368A419DB68984703992A68019100973F
:1010100023B23100146A28003A00A0472B68280048
:101020005B6A984705B0F0BDF0B50E0087B003933A
:101030000CAB029200229B5E050004930DAB1B8853
:10104000340005930368DB689847039B2A68F3180C
:101050009C420ADA059B210000939769049B029A3F
:1010600028000134B84724B2EFE7536A28009847B4
:1010700007B0F0BD13B501910E24015F0C22835E11
:1010800002680091946B00221100A04713BDF0B5D7
:1010900085B002930AAB00241C5F0BAB1B881700C2
:1010A0000393029B05000E1E02689E420BD1A742CD
:1010B00002DD3B0027001C0003990134E31B009173
:1010C0001BB2146B0DE0A74210D1029B994201DDC7
:1010D000029E0291029B0399013300919B1B546B6A
:1010E0001BB23A0031002800A0470FE0D3689847B0
:1010F000039A2B68019200941C6A2800029B3A0014
:101100003100A0472B6828005B6A984705B0F0BD06
:10111000F0B5040016000D0087B004930CAB00225C
:101120009B5E05930DAB1B8803930368DB689847B0
:10113000039A23680092DF693200049B2900200093
:10114000B847059B03995A1E236800919219DF69DD
:101150002900049B200012B2B847039A236800922A
:101160009F693200059B29002000B8470499039A23
:101170002368013900924D1929B29F693200059BFD
:101180002000B847236820005B6A984707B0F0BD8D
:10119000704703231940817603894289012904D0CD
:1011A000032902D08381C28101E08281C38170471B
:1011B00001818181012100234281C281012210B578
:1011C000074C4942083443600460837603824382BB
:1011D00042760276C1828182C2760377036210BDB5
:1011E00004760000F0B500278DB0099312AB04928D
:1011F00000229B5E0891059313AB00229B5E0400C6
:101200000A9314AB1B883D000B930368DB68984777
:101210000721059B06910733DA170A40D318DB1024
:101220000793049B01936B46049A9B8803939B1A34
:101230000A9A1BB29A422BDD002302936B4619894E
:10124000059A0BB293421CDA069A6D00EDB2114278
:1012500007D10698DA170240D318099ADB10D21981
:10126000D55C6BB2002B09DA089B019AC918236878
:1012700009B21B6920001E000B9BB047029B013383
:10128000DBE7039B01331BB20193079BFF18CAE7FF
:10129000236820005B6A98470DB0F0BD7FB508ACAD
:1012A0000025645F09AD0026AD5F0AAE3688019562
:1012B00002960094FFF796FF7FBD0000F0B595B051
:1012C0001E001AAB1B88040004931BAB1D881CABCB
:1012D0001F781DAB1B7806910293036A0392002BC3
:1012E00000D0D1E00C22835E8B4200DC77E10E223D
:1012F000835E039A934200DC71E106237B435B1813
:10130000002B00DC6BE1029B039ADB009B18002B97
:1013100000DC64E1037F002B03D1AF2E01D901363D
:10132000F6B223682000DB68984705235E430B93E1
:1013300000230E960A9328226B469B181B78A94A15
:101340000E995BB25218D25C9BB20893BBB20F935A
:101350006B461B8B09920593089BBAB25343059ABF
:10136000D3189BB20D9308230C93002307930122FB
:10137000099B134220D06B461C229A56012F0DD197
:10138000029B012B0AD1039B0599D218089B12B22C
:101390005918236809B21E69049B22E00299049E31
:1013A0004A4303993BB2521869463420095E2068CB
:1013B00012B21090019623E0049BAB4228D06B46FA
:1013C0001C229A56012F0FD1029B012B0CD1039B9B
:1013D0000599D218089B12B25918236809B21E69E0
:1013E0002B002000B04713E002993BB24A43039917
:1013F000521869463420095E206812B21090019597
:1014000068460826865F1098009646692000B04717
:10141000079B0133DBB20793099B5B0809930C9B85
:10142000013BDBB20C93002BA1D10A9B0133DBB251
:101430000A930B9B013BDBB20B93002B00D07AE7A6
:10144000049BAB4200D1C6E02268012F0CD1029B65
:10145000012B09D1059F00950537956939B20733EE
:10146000039A2000A847B6E005210F983BB24143FC
:10147000059801954718029839B2C0000090556947
:101480002000039AA847A6E01A7AB61AF6B25A685C
:10149000F6001B689619139333880893B3780C935E
:1014A000F378109373790D93B3790E93012F02D8CB
:1014B000029B012B0ED934226B469B181B780432F9
:1014C0005BB29BB20A936B469B181B785BB29BB2D4
:1014D0000B9302E000230B930A930025236820005E
:1014E000DB68984709950795109AEBB2934272D240
:1014F0006B469B89029A0F930B9BEB1853430F9AF1
:10150000D31800229BB21293099B05920C9A05995D
:10151000914257D25A1CD2B211920722134207D1DC
:10152000089B0899139A0133525C9BB20792089367
:101530006B461B7F5BB2002B3ADA012F1ED1029B58
:10154000012B1BD16B4638229B1800229A560F9B09
:1015500034219A18FF232B40D2186B465B180021C8
:101560005956069B12B2C918059B2000C91823685A
:1015700009B21B691E00049BB04719E048216A4666
:1015800052180021525E69462820095E05983BB238
:101590000918794306980918049809B20190684619
:1015A0000826805F00902068406906002000B04750
:1015B000079B059E5B00DBB201360793F3B20593F0
:1015C000119BA3E70C9A099B94466344DBB2013557
:1015D0000993ADB288E7236820005B6A984715B08D
:1015E000F0BDC04654760000F0B5026A85B0040034
:1015F0000B00002A2AD10A2903D1437E0282DB0094
:101600002BE00D296BD0C17E457E007E00290DD0D8
:10161000062141431027E65F89190C27E65FB14296
:1016200004DD618A2282EA00521862820290E08A16
:101630001221625E0190A08A1026A15F009003959E
:101640002000FFF73BFE237E062244E00A2908D152
:1016500000230382127B437E5343628A9B1863827A
:101660003DE00D293BD0157AA94238D3917A9942B1
:1016700035D35D1B5168EDB2ED004D19A9780029F5
:1016800027D0E878002824D0E77E667E207E002FD1
:1016900012D00527EF57791841438C461021675E19
:1016A000BC440C21675EBC4506DD00212182127B13
:1016B000618A7243521862820290E08A1221625E4D
:1016C0000190A08A1027E15F009003962000FFF7A9
:1016D000F5FD2B79227E5343228A9B182382012019
:1016E00005B0F0BD036A002904D0002B07D1438A5E
:1016F000063303E0002B02D0438A063B438201629B
:101700007047000070B5002504AC24780573A94229
:1017100005D10A4B0A4A25210A4802F039FF016027
:101720000949920052589B0002715B588371A300D3
:101730005B58856043710223C37170BD917B0000CB
:10174000547B00009F7B0000FC7B000007B58022DB
:10175000074BD2051A6000229A6002321A710F23D9
:101760000C3200930349023B0348FFF7CBFF07BD50
:10177000840200200030004090020020002303700B
:101780004370704770B50E001500084C0100200032
:10179000FFF772F931002000FFF77BF829002000E5
:1017A000FFF777F82000FFF7D1F970BDC4010020E2
:1017B000002310B5402203702B211D20FFF7E2FF0C
:1017C0000A2000F05FF910BDF8B50F0006000F4CBD
:1017D000010020001500FFF74FF939002000FFF746
:1017E00058F800212000FFF753F9012231002000B2
:1017F000FFF73DF92000FFF742F803000020834285
:1018000003D02000FFF740F82840F8BDC4010020B5
:10181000F8B51700FF2205000E001C00FFF7D4FFEB
:101820000200BA43144331002800E2B2FFF7AAFFD6
:10183000F8BD002310B5012203702A21FE331D20BC
:10184000FFF7E6FF10BD012310B51A0004002A219E
:101850001D20FFF7DDFF0123237010BD10B5FFF73A
:10186000F2FF10BD037810B5002B04D001234370A4
:10187000FFF7DFFF05E04278002A02D04370FFF750
:10188000E2FF10BD70B50C000500FFF7EBFF022C66
:1018900005D0042C05D0082C04D1063C02E000241D
:1018A00000E0012422000E211D20FFF76BFF28001D
:1018B000FFF7D8FF70BD70B50D000400FFF7D2FF31
:1018C0002B0038222A211D20FFF7A2FF2000FFF75E
:1018D000C9FF70BD70B50D000400FFF7C3FF2B00FA
:1018E00003222B211D20FFF793FF2000FFF7BAFFF3
:1018F00070BD70B505000C00FFF7B4FF0123AC709C
:101900005C409C400222E3B22A211D20FFF780FFA9
:101910002800FFF7A7FF70BD10B5FF220D211D2085
:10192000FFF752FF5A3843425841C0B210BDF7B5D5
:101930000400019116001F00FFF7EEFF051E0ED0F8
:101940002000FFF735FF01992000FFF79BFF3900CA
:101950002000FFF7B0FF31002000FFF7CAFF28008A
:10196000FEBD0000F0B587B0039303780600019137
:101970000292002B3BD01F4C1D212000FFF77CF86A
:1019800001212000FEF785FF00212000FFF780F8ED
:10199000B3780622002B00D1032220001D21FFF77F
:1019A00066F80024134F3800FEF76EFF04AB85B2D3
:1019B000E552B378002B08D03800FEF765FF2DB252
:1019C0002D02284300B2801100E040B204ABE05287
:1019D00004AB1B88019A0234138004AB5B88029A23
:1019E000138004AB9B88039A1380062CDAD107B0CE
:1019F000F0BDC046C401002003210A4802680A4322
:101A00000260094802680A4302600849084A094B13
:101A10009B1A03DD043BC858D050FBDC00F012F8E1
:101A2000FEF7A8FB24050040540500404C80000050
:101A30000000002050010020FEE7FEE7FEE7FEE781
:101A4000FEE7FEE7014A024B1A6070470024F400EB
:101A500044000020084A0949094B10B51B68885802
:101A6000FA22190A1B0618439200002300F070FFA7
:101A70004904C00B084310BD0405000000100140DC
:101A8000A402002070B5041E09D0FFF7E3FF050093
:101A900000F014F8FFF7DEFF401B8442F8D870BD59
:101AA0000022044B9A60044A13680133DBB21360CE
:101AB0007047C046FC100140A4020020704700009F
:101AC000F7B50023202877D83C4B8000C258042A61
:101AD00014D006D8022A0DD00ED80423012A14D01F
:101AE00069E0062A0ED00BD31A2A0DD002231B2A36
:101AF0000BD060E0082308E0102306E0202304E078
:101B0000402302E0802300E001232D4A1268082AC6
:101B100004D9092A05D00A21022404E0082100245E
:101B200001E011000124A02501261C272548ED0015
:101B30004651254D254E2D681B02AD003D400195B7
:101B4000234D2D6800958559AC466746214D3D4093
:101B50001D4385518359C0259C46009BAD021D4005
:101B6000FF2367461B023B402B43019D1D43009B07
:101B70005F0160231F402B003B431C430123845122
:101B8000154C036063680F48002BFBD00024124BF8
:101B900001255C60A123DB00C3584560A025ED0052
:101BA00044511BB2914207D002D98A1AD34003E0B4
:101BB000521A934000E000231800FEBDFC7B000099
:101BC00054000020007000404C000020040500007C
:101BD00048000020FF00FFFFFC700040F0B5202807
:101BE0006CD8374B8000C258364B1E68002E2ED161
:101BF000C2243548A4000759344B03253B40C02775
:101C00003F023B4303518023893C9B00FF3C03512F
:101C10002F4F03602F4B803CD859FF3CA043D85135
:101C20000437D859A8432043D8510837D8590C3520
:101C3000A843083D2843D851A820C0001E50802644
:101C4000C120760280001E501C601E4B1C600023C9
:101C50001426214834005C43255804006F1C0FD122
:101C6000142058432250A0200325C132FF32920095
:101C7000C0051550194A08001268082A03D10BE064
:101C8000AA4218D1ECE7082A02D9083AD14002E06A
:101C90000820821A9140080014225343E3189A68DE
:101CA0000C495132FF32920058605050DA68C1231B
:101CB0009B00CA5002E00133032BCBD1F0BDC046DC
:101CC000FC7B0000A802002000E100E0FF00FFFF15
:101CD0000405000000900040580000205000002043
:101CE0001E4BF0B5596C18001D4A002914D0A025D0
:101CF000A12600230124ED05F600D1584F1C06D083
:101D0000D7187F68002F02D027008F40AF511433BF
:101D10003C2BF2D100234364131DA025403294468E
:101D2000002001240F4EED05DA680F499200571884
:101D30000A495218526C002A0CD01A1F1268511C02
:101D400005D01968FF2902D021009140A9513A001D
:101D5000FC32506414339C45E6D1F0BDFC90004049
:101D6000580000200C0500000090004000B520281D
:101D700016D80C4A83009B58032911D8A0220800CA
:101D8000C133FF33D2059B0000F024FC0208040697
:101D9000002104E00C2102E0042100E00321D150E5
:101DA00000BDC046FC7B000020280DD8074B8000FA
:101DB000C25801239340A022D205002901D1044931
:101DC00001E0A121C90053507047C046FC7B0000D0
:101DD0000C05000003000020202B0AD8A222A0211D
:101DE000D200C9058858034A9B009B58D84001235C
:101DF00018407047FC7B0000F7B506000D000C0092
:101E00008B180193019B671B9C4207D03368217894
:101E10001B683000984701340028F3D13800FEBD1C
:101E200070B505000C00081E07D003F0D1FA2B682E
:101E300002005B6821002800984770BD10B5FFF7CD
:101E4000EFFF10BD10B503681B68984710BD000078
:101E500010B50249FFF7E4FF10BDC046807C0000CA
:101E600070B50500FFF7DCFF04002800FFF7F0FF66
:101E7000001970BDF0B5160000228DB002AB05331D
:101E800001900D00DA77012E00D80A260BAC28004D
:101E9000310000F02FFC0F00CBB22800310000937E
:101EA00000F0A2FBFBB237330500013CDBB2092F87
:101EB00002D8009B3033DBB22370002DE7D1210024
:101EC0000198FFF7ADFF0DB0F0BD10B5002A04D1A9
:101ED0000368C9B21B68984702E0D2B2FFF7CAFF95
:101EE00010BD70B50400FFF7F0FF05002000FFF7FC
:101EF000AFFF281870BDF8B506000C00151E04D100
:101F00000368C9B21B68984714E0D2B20A2D0DD1FC
:101F10002A0000290ADA2D21FFF794FF6142070009
:101F20002A003000FFF7A6FF381803E02100300038
:101F3000FFF7A0FFF8BD10B5FFF7DDFF10BD70B5CE
:101F40000500FFF7D8FF04002800FFF781FF001904
:101F500070BD10B540220021040002F0B6FB002342
:101F600020002364636410BD3F23026C10B5541C31
:101F70002340446C9C4201D08154036410BD002373
:101F8000036443647047436C026C934206D03F2164
:101F9000C25C01330B404364100001E00120404269
:101FA0007047036C406C181A00D540307047436C82
:101FB000026C934201D0C05C01E0012040427047B6
:101FC000036C406C5A1C3F231340181A4242424192
:101FD000D0B2704710B50400FFF73CFDE060236805
:101FE0002000DB689847002808DAFFF733FDE36834
:101FF000C01AA3689842F2D30120404210BD81600C
:102000007047000070B50D000749040000F0E7F9C3
:102010002800FFF7DFFF002804DBC1B2200000F03A
:1020200030FAF5E7200070BD827C00000120704787
:1020300010B503681322DB69984710BD7047000094
:102040000369054A9950FC331A6A002AFCD0002221
:1020500001201A627047C0461C050000030010B53D
:102060005C331A781F2313400122110099400D4B55
:102070000424D967C221036989005C505A60DA6080
:10208000A0220021D20099500122074952425A5001
:10209000064914305A500C395A5008315A50FFF73B
:1020A0006EFF10BD04E100E00C0500001405000007
:1020B00010B51430FFF775FF10BD10B51430FFF7E1
:1020C00076FF10BD10B51430FFF75DFF10BD0000A6
:1020D000030070B55E331C780269604BD450030076
:1020E0005D331C785E4BD450030061331C785D4B2C
:1020F000012C0CD105005F352E78A225ED0056513C
:10210000050060352E78A125ED00565100E0002431
:10211000D4509623DB00994238D996231B0199426B
:1021200037D996235B01994236D996239B01994270
:1021300034D9E1239B01994232D99623DB0199429C
:1021400031D9E123DB0199422FD996231B02994211
:102150002DD9E1231B0299422BD996235B02994288
:1021600029D9E1235B02994227D9E1239B029942B5
:1021700025D93D4B994224D9E123DB02994223D949
:10218000E1231B03994221D8384B21E09E23DB0237
:102190001EE09D231B031BE0354B19E0354B17E078
:1021A000EC239B0314E0344B12E0344B10E0344B2F
:1021B0000EE0344B0CE0344B0AE0344B08E0344B77
:1021C00006E08023DB0403E0324B01E080235B0563
:1021D0003149002453500423243953501100FC3159
:1021E000CC600C62C1210134890014605C309460C1
:1021F000535003781F202200D9B208408240803417
:102200002648FF345BB20251002B13DA0F230B4038
:10221000083B234C9B089B001B1903242140A14031
:10222000FC348C40DD69A543C0248C402100294347
:10223000D96111E0194C9B089B001B190324214014
:10224000A140C025FC348C40AD005E59A643C0249B
:102250008C40210031435951026070BD0C050000D3
:10226000140500006C05000090D0030000D0BE0EE5
:1022700000B013000050270000A04E0000F07500D1
:1022800000509D0000F0EB0000903A0100E0D70103
:1022900000B0AF0300705F072405000000E100E01C
:1022A00000ED00E0F7B5009308AB1B780025019323
:1022B000FA2304009B0083600E4B456008330360E3
:1022C00014300F001600FFF744FE23005C33276133
:1022D0001E70009B084A9B00995823005D331970BB
:1022E000019B20009B009A5823005E33DD701A701A
:1022F000FEBDC046947C0000FC7B0000036910B565
:102300001A00FC32D2680400002A0AD0A322D200AC
:1023100099581430C9B2FFF727FE00222369FC3315
:10232000DA6010BD10B50248FFF7E8FF10BDC046E7
:10233000AC020020162307B5022200930249013B9C
:102340000248FFF7AFFF07BD00200040AC020020AD
:1023500010B50400006802F0A5F9200010BD10B50A
:1023600004000068002801D002F09CF900232360DB
:10237000A360636010BD70B504000D0000680131FA
:1023800002F0F8FF031E01D0012028C470BD0368CD
:1023900010B50400002B02D043688B4209D2200004
:1023A000FFF7E9FF002805D0A368002B01D12268C0
:1023B0001370012010BD70B50E001100040015004F
:1023C000FFF7E5FF002803D12000FFF7C8FF04E076
:1023D000A5603100206802F0F3FF200070BD0023EB
:1023E00070B504000D1E0360436083609D4207D0FA
:1023F000080002F0EDFF290002002000FFF7DBFFDC
:10240000200070BD70B5050000680C0000280CD0DD
:102410006B688A68934206D3096802F0D1FFA3680B
:10242000AB6000230AE002F03DF923682B6063688B
:102430006B60A368AB60002323606360A36070BD22
:1024400010B5041E8C4201D0FFF7DCFF200010BD48
:10245000F8B504000F1E01D1002610E00126002A65
:102460000DD08368D5182900FFF791FF0028F3D01D
:102470002368A2683900981802F0A2FFA560300016
:10248000F8BD07B5002201AB19705A70190001326E
:10249000FFF7DEFF0EBD836810B5002B04D10120CD
:1024A00000290DD00B7808E0002902D103681B78C1
:1024B00003E0006802F07AFF030058425841C0B2BE
:1024C00010BD70B50D00002A14D0002912D081680B
:1024D000994202D800232B700CE0541EC91A8C427A
:1024E00000D90C0001682200C918280002F077FF0B
:1024F00000232B5570BDFEE77047000010B500F0BB
:1025000011F8FFF7F9FF0120FFF7BCFAFDF7BCFE59
:10251000FDF758FF024B002BFAD000E000BFF7E7B1
:1025200000000000C421114A89005058104B03409C
:10253000C020000203435350802391399B02FF398E
:10254000535013608023A3220021DB05D200995051
:102550000122A1209A60074BC0001950C12002310E
:1025600080001950403019501A60704700E100E0B7
:10257000FF00FFFF001001400A000300024330B5D6
:102580000220002A00D130BD80221206914216D0CE
:102590000C4A0D4C8A180420A242F4D90B4A8A181E
:1025A000A242F0D90A4A4900490803209142EAD9D7
:1025B000064A00209142E6D158425841E3E7002BF9
:1025C000E1D0EFE70000F0FFFFFFDF7F0000F07FCA
:1025D000FFFF0F0002B4714649084900095C490039
:1025E0008E4402BC7047C046002243088B4274D31D
:1025F00003098B425FD3030A8B4244D3030B8B4204
:1026000028D3030C8B420DD3FF22090212BA030C0C
:102610008B4202D31212090265D0030B8B4219D3ED
:1026200000E0090AC30B8B4201D3CB03C01A52410D
:10263000830B8B4201D38B03C01A5241430B8B4255
:1026400001D34B03C01A5241030B8B4201D30B033E
:10265000C01A5241C30A8B4201D3CB02C01A524165
:10266000830A8B4201D38B02C01A5241430A8B4228
:1026700001D34B02C01A5241030A8B4201D30B0211
:10268000C01A5241CDD2C3098B4201D3CB01C01A2B
:10269000524183098B4201D38B01C01A5241430935
:1026A0008B4201D34B01C01A524103098B4201D323
:1026B0000B01C01A5241C3088B4201D3CB00C01A90
:1026C000524183088B4201D38B00C01A5241430808
:1026D0008B4201D34B00C01A5241411A00D201462D
:1026E000524110467047FFE701B5002000F0F0F8B6
:1026F00002BDC0460029F7D076E7704703460B437A
:102700007FD4002243088B4274D303098B425FD3EA
:10271000030A8B4244D3030B8B4228D3030C8B4216
:102720000DD3FF22090212BA030C8B4202D31212FC
:10273000090265D0030B8B4219D300E0090AC30BD1
:102740008B4201D3CB03C01A5241830B8B4201D37E
:102750008B03C01A5241430B8B4201D34B03C01A67
:102760005241030B8B4201D30B03C01A5241C30ADF
:102770008B4201D3CB02C01A5241830A8B4201D350
:102780008B02C01A5241430A8B4201D34B02C01A3A
:102790005241030A8B4201D30B02C01A5241CDD2DF
:1027A000C3098B4201D3CB01C01A524183098B422A
:1027B00001D38B01C01A524143098B4201D34B0113
:1027C000C01A524103098B4201D30B01C01A524176
:1027D000C3088B4201D3CB00C01A524183088B42FD
:1027E00001D38B00C01A524143088B4201D34B00E6
:1027F000C01A5241411A00D2014652411046704758
:102800005DE0CA0F00D04942031000D3404253405C
:1028100000229C4603098B422DD3030A8B4212D31C
:10282000FC22890112BA030A8B420CD3890192114E
:102830008B4208D3890192118B4204D389013AD08B
:10284000921100E08909C3098B4201D3CB01C01A60
:10285000524183098B4201D38B01C01A5241430973
:102860008B4201D34B01C01A524103098B4201D361
:102870000B01C01A5241C3088B4201D3CB00C01ACE
:10288000524183088B4201D38B00C01A5241D9D2E6
:1028900043088B4201D34B00C01A5241411A00D267
:1028A0000146634652415B10104601D34042002B63
:1028B00000D54942704763465B1000D3404201B5E2
:1028C000002000F005F802BD0029F8D016E7704797
:1028D0007047C0468446101C62468C46191C6346ED
:1028E00000E0C0461FB500F045FF002801D40021DC
:1028F000C8421FBD10B500F099FE4042013010BD26
:1029000010B500F037FF002801DB002010BD0120CA
:1029100010BDC04610B500F02DFF002801DD0020DD
:1029200010BD012010BDC04610B500F0BFFE00284C
:1029300001DC002010BD012010BDC04610B500F024
:10294000B5FE002801DA002010BD012010BDC046F0
:10295000F0B54F464646C0B41604360C99463300CF
:1029600005042C0C070C150C63437E436F43654331
:102970001C0CAD1964199C46A64203D980235B0246
:10298000984647446346250CEF191D044B464A43BD
:1029900043432D0C240464199918C91920000CBC58
:1029A00090469946F0BDC046F8B556465F464D463E
:1029B0004446F0B40F00FD0FAA4609037C002E0028
:1029C0005F00450F490A7F0D2943C5001803BC4627
:1029D000400A570F640DDB0F3843D2009A4500D1EF
:1029E000AAE06646A61B002E00DCFFE06346002B33
:1029F00039D10300134300D0D9E06B0709D00F236E
:102A00002B40042B05D02B1DAB42AD416D42491923
:102A10001D000B0200D482E0CA4B01349C4200D15D
:102A2000FEE00A005646C84BED081A405007640500
:102A300052020543120B640D002112030B0D1B05FE
:102A40006405120B1A436308C04CF60714401C437C
:102A5000640064083443280021003CBC9046994639
:102A6000A246AB46F8BDB74B9C42C6D080231B04A0
:102A70001843382E00DDEBE01F2E00DD1EE1202381
:102A80009B1B9C4603006746BB4098461300474685
:102A9000F3403B436746BA40571EBA411343020016
:102AA000F240EB1A9D42B6411D008A1A7642911BF4
:102AB0000B0231D54A02560A002E00D1B4E0300094
:102AC00001F040FD0300083B1F2B00DDB5E0202294
:102AD0002900D21AD1409E400A009D4032439C42B8
:102AE00000DDB1E01C1B631C1F2B00DDD5E02021A5
:102AF00014002800C91A8C40D8408D400443DA40A5
:102B0000681E854111002543002476E74146314384
:102B100000D134E2310045466B0700D06FE75646DE
:102B20004807ED08C9080543864B9C4235D00A0387
:102B30006405120B640D7FE76346E31A9B46002B86
:102B400000DC8BE06746002F3CD07E4FBC4200D1BA
:102B500053E780273F0438435B46382B00DCF7E01F
:102B60000243501E82410020D2B253194218AB4298
:102B700089411D00494289180B02CDD5714B0134A2
:102B80009C4200D13DE101206F4A6B080A40284079
:102B90001843D507054351082FE72B000B4300D1FD
:102BA000CBE180231B030B431A03120B44E7013EC6
:102BB000002E6DD1AE1AB5429B41091A5B42C91A6B
:102BC000350075E70700174300D116E701235B4284
:102BD0009C46E3445B46002B00D0E0E0AA18AA42E2
:102BE0009B4109185B4259181500C5E7002E75D1A5
:102BF000661C7605760D012E00DCF3E0AE1AB046B9
:102C00004545BF410E1A7F42F61B370200D48FE0C4
:102C1000551BAA42B641411A76428E1B9A464BE793
:102C200056460022002507E7280001F08BFC2030E3
:102C30000300083B1F2B00DC49E72A0028388240AC
:102C400000259C4200DC4DE73F49E41A1140D4E6E0
:102C50000243501E8241D3B2002222E7002B00D053
:102C6000F3E0631C9C465B055B0D012B00DC9FE0E1
:102C7000344B9C4500D1C3E0AA180918AA428041F0
:102C800040424118CD075208154349086446B4E64E
:102C90002C4B9C4200D0ECE6AFE611001F3CE1401B
:102CA0000C00202B00D17FE04021CB1A9A40154325
:102CB0006A1E95410021254300242DE733000700BB
:102CC000203BDF403B00202E70D04027BE1BB04091
:102CD0000243501E824113430022E2E6002C4FD0F3
:102CE000184CA44500D1ABE0802424047642214353
:102CF000382E00DDDFE01F2E00DD43E12027BC1B66
:102D0000A1460C004F46BC40A0462C004746F4406C
:102D10003C434F46BD406F1EBD41F1402C43151B47
:102D2000AA429241411A5242891A64469A46BFE623
:102D300041464546314300D0BEE60026002400252A
:102D4000F2E6C046FF070000FFFF7FFFFFFF0F8096
:102D50001F2B59DC2027FF1ABC46070063469F4003
:102D60005B46B9461700DF40B8464F4643461F430F
:102D700063469A40531E9A415B463A43D840F4E674
:102D80000C002C435CD0F643002E55D1551BAA42B3
:102D9000A441411A6442091B9A46644688E6964F4C
:102DA000BC4200D0D8E628E6002280E700208FE76A
:102DB0000B002B43002C00D0C2E0002B00D101E11E
:102DC0000300134300D118E6AB18AB42B641091813
:102DD000764271180A0200D409E1884A1D001140A8
:102DE00064460AE6002C5BD10E002E4300D08AE038
:102DF0000100114300D1C2E0010015009A46FCE534
:102E00006446002100258FE620235B429C46DC447B
:102E100063460700DF405B46BC46202B00D1ACE098
:102E200040235F46DB1B98400243501E82416346AD
:102E300013431A00002098E66F4CA44500D057E7D2
:102E40000100150064469A46D7E5002C39D10C00E4
:102E50002C436ED0DB43002B1AD0674CA44568D0BE
:102E6000382B00DDA4E01F2B00DDAEE020240F0096
:102E7000E41AA740B9462F00DF40B846A3464F46A4
:102E8000444627435C46A5406C1EA541D9403D43BE
:102E9000AD1895429B4109185B42591864466BE690
:102EA0000C002C4315D1010011437BD0010015000B
:102EB0009A46514CA1E50D43691E8D410021ECB2AB
:102EC0002DE74D4CA44534D0802424045B4221439B
:102ED000C6E7040014434ED0ED084C072C43802570
:102EE000C9082D03294208D0C6082E4205D1D208B0
:102EF000410711430C009A463100620FC900E500FA
:102F000011433D4C79E50600164300D175E5AE1A34
:102F1000B0464545BF410E1A7F42F61B370200D42A
:102F2000F4E5551BAA42B641411A7642891B9A46DE
:102F300063E50100150064465FE5002200257BE59E
:102F4000002B3BD00300134315D0ED084B072B4358
:102F50008025C9082D03294207D0C4082C4204D17A
:102F600041070B002100D2081343C9005A0F114337
:102F7000DD00214C41E5204C3FE5002054E70026D0
:102F80000025D1E534000F00203CE7403C00202E16
:102F90002BD04027BE1BB1400D43691E8D4100213F
:102FA0002C43BCE6802100260903134C0025BBE519
:102FB0000D43691E8D410021EDB269E70100150046
:102FC0000D4C1AE50100150017E51C000F00203C10
:102FD000E7403C00202B0CD04027FB1A99400D43C2
:102FE000691E8D410021254352E70021D4E71D00D1
:102FF00092E50021F3E7C046FF070000FFFF7FFFD7
:10300000F0B556464D4644465F46F0B41D000E03EB
:103010004C00CB0F87B0070092468146360B640DFB
:1030200098466AD06D4B9C4235D08022430F1204E3
:103030001343F6001E43C3009946694B00279C4684
:103040000023644402932B0368001B0BED0F5146D1
:103050009B46400D009500D178E0604B98426CD0C3
:103060005B46DA004B0F802109040B4313439B4658
:103070005346D9005A4B9C46002360444246201ACE
:103080006A40924601901F430F2F00D9B0E0554887
:10309000BF00C0598746374300D088E000239946D7
:1030A0000233082700260293CDE74346B34649463C
:1030B0000093029B009A9246022B00D0BFE10021B0
:1030C00053460122002689461A40444B002136030C
:1030D0000C0D2405360B2643434C1B0526401E438E
:1030E0007600D207760816434846310007B03CBC4C
:1030F00090469946A246AB46F0BD330003434FD0FD
:10310000002E00D1BCE1300001F01CFA03000B3BA3
:103110001C2B00DDADE11D220100D31A08393A0055
:103120008F408E40DA40B9461643304B00279C460C
:10313000002360444442029385E753465A461343B2
:103140002CD1002300219B46023397E70B4320D06C
:103150005B46002B00D19EE1584601F0F3F90300D5
:103160000B3B1C2B00DD8FE102005946083A9140D1
:103170008B461D21CB1A5146D9400B0059460B43B3
:1031800051469B469140194B9C4660444042002367
:1031900074E7002300219B4601336FE703236DE7AB
:1031A0000023994601330427002602934BE70323AB
:1031B0000C27029347E70122D51A382D00DCB0E135
:1031C00053461A4000210023002689467EE700234B
:1031D0008026994600223603004B77E7FF07000060
:1031E00001FCFFFFC47C0000FFFF0F80F303000021
:1031F0005E4500D972E100D16DE1019B4D46013B76
:1032000001930023340002935B461E020B0E1E4303
:103210000B020393330C994633041B0C49462000E0
:103220000093FFF7E1F9009B37004343060049464E
:1032300020009846FFF75EFA2C0C09040C43A045C9
:1032400009D9E419731EA74200D95CE1A04500D852
:1032500059E1023EE4194346E41A49462000FFF7CB
:10326000C3F90300009A80465343494620009B4619
:10327000FFF740FA2A040904120C0A4393450DD9BA
:103280004346D219013B974200D93AE1934500D811
:1032900037E102235B429C46D219E0445B46D21AD6
:1032A0004346360433439B460399180C0B0C1D0010
:1032B000059309045B46090C0C001B041B0C4443DA
:1032C000049159436B4368431B190D0CEB189C4246
:1032D00003D980246402A44660441C0C09041B0426
:1032E000090C20185D18824200D2DEE000D1D7E040
:1032F000161A029B9C465D1BAC459B415B42F61A2D
:10330000B74200D106E149463000FFF76DF9009B56
:1033100004004343494630009846FFF7EBF92E0C72
:1033200009040E43B04509D9F619631EB74200D906
:10333000F3E0B04500D8F0E0023CF6194346F31A3A
:10334000494618000293FFF74FF9009B06004343DC
:10335000494602989846FFF7CDF92D0409042D0C33
:103360000D43A84509D9ED19731EAF4200D9D6E027
:10337000A84500D8D3E0023EED19240421004346BD
:103380003143049E059A3000ED1A0B040C0C1B0C03
:1033900058436643534354439A19030C9B189E4267
:1033A00003D980225202944664441A0C00041B0480
:1033B000000C14191B18A54250D34DD001231943FA
:1033C000964A019B94466344002B00DCF3E64A07CF
:1033D00009D00F220A40042A05D00A1D8A428941D9
:1033E00049428B4411005A46D20108D55A468C4BAB
:1033F0001A4093468022D2009446019B6344894A36
:10340000934200DD5BE65A46C9085007084356025E
:10341000514601225B058146360B5B0D0A4055E69D
:1034200080231B031E4211D05A461A420ED15E461B
:103430001E433603360B2A0089467B4B46E6032B98
:1034400000D1E1E0012BBBD11A40BBE61E4336039D
:10345000360B4246744B39E6002BB1D07D194A1E1B
:10346000AF4252D91100A542A8D1039A9A42A5D1E0
:10347000A6E703003E00283B9E400023994654E601
:1034800001F060F8203041E603005246283B9A40A4
:103490000021934677E6504601F054F820305EE66E
:1034A000029B0026AB4200D323E7039E0299B44659
:1034B00061448846B045B6415B467642F619B2187B
:1034C000013B0291974213D290424FD800D18EE037
:1034D000161A9B460DE7894500D28EE674084B46C6
:1034E000F60735005B081D434B46DB0702938BE66E
:1034F0009742EDD10399029CA142E5D93E1A9B4621
:10350000F7E69846CAE61E00A5E6AC423ED874D05F
:10351000110053E70121494252E71C000EE71E004B
:103520002BE71F2D3CDC20230A0058465B1B9840EC
:10353000EA4099400243481E81415E461143EE40F5
:103540004B0709D00F230B40042B05D00B00191D8E
:1035500099429B415B42F61833023CD55346012207
:1035600000211A40002601238946AFE502235B4271
:103570009C46039CE344A446029B63449846A045B2
:10358000B6417642F6190293B218B1E603988A1E44
:1035900041008142B6417642F619AD19039161E7C7
:1035A0001F225242D31A5A46DA401300202D29D046
:1035B00040225846551BA8400143481E8141072020
:1035C0000B4318400026002809D00F2200261A407D
:1035D0001900042ABBD10B0070077602360BDB08FA
:1035E00003439946012253461A4000236EE502998F
:1035F0008D42BBD89B4600267BE603989842C5D3F4
:10360000110032E70020D7E780265B4636031E43D1
:103610003603360B009A8946034B57E5FF0300003B
:10362000FFFFFFFEFE070000FF070000F0B55F464A
:1036300056464D464446F0B41F035C00DB0F9A46E5
:10364000194B0E034D00C90F8046360B6D0D8B468E
:1036500091463F0B640D9D4219D0134B9C421BD0E9
:103660000123A54206D018003CBC90469946A246CC
:10367000AB46F0BDBE42F6D1C845F4D1D34510D01B
:10368000002DF0D1304303005A1E9341EBE7310087
:1036900001230143E7D1E0E73A430123002AE2D1C5
:1036A000DEE70023DFE7C046FF070000F0B55F4616
:1036B000444656464D46F0B41F033C0B2C4F0E03B8
:1036C0004D00A3465C008446360B6D0DC90F904635
:1036D000640DDB0FBD422BD0254FBC422ED0002DF8
:1036E0000ED130430700814678427841002C17D133
:1036F0005F463A4314D14B460020002B0AD006E027
:10370000002C02D15846024301D099421AD001231D
:10371000484218433CBC90469946A246AB46F0BD91
:103720000028F2D058425841012240421043F1E7AC
:1037300037000743D0D002204042EBE75F461743F3
:10374000CDD0F8E7A542E2DC05DB5E45DFD808D046
:1037500000205E45DED248424841012340421843E2
:10376000D8E7C445D3D80020C445F4D3D2E7C04637
:10377000FF070000F0B55F464D4644465646F0B49C
:103780001C03240BA4462F4C0F034D005E00C90FF1
:1037900080463F0B6D0D8B469146760DDB0FA542A3
:1037A00020D0284CA64222D0002D12D138434442CA
:1037B0004441002E20D0002C0DD05C4263410124F6
:1037C0005B421C4320003CBC90469946A246AB4657
:1037D000F0BD002E17D05B4519D05B465C4201233B
:1037E0001C43EFE7390002240143EBD1D9E76146DE
:1037F00002241143E6D1D7E761460A43DBD1002416
:103800000028DFD0E9E761460A43E4D1E5E7B542A5
:1038100003DD01225C421443D4E7B542CDDB6745AA
:10382000DBD809D000246745CCD259464C426141CF
:10383000012449420C43C5E7C845CED80024C845F9
:10384000F3D3BFE7FF070000F0B55F4656464D468D
:103850004446F0B40D0399464E002B0B87B0070089
:10386000924680469B46760DCC0F002E69D06D4B5C
:103870009E4235D05B468022DD001204430F134385
:103880002B439B46C3009846674B00279C4600236A
:10389000664401934A4615035000D20F53462D0B40
:1038A000400D914600D176E05E4A90426CD0802275
:1038B0005B0F120413435C4AED0094461D435346CC
:1038C0000022DB00604449463618701C61400290BB
:1038D00017430F2F00D9AFE05448BF00C759BF4668
:1038E0005B461F4300D088E000239B469846023386
:1038F00008270193CEE74946022A6AD0032A00D15D
:1039000009E2012A00D0BBE111400022002300257A
:103910009046CCB200212D030A0D12052D0B154344
:10392000434A1B0515401D436D00E4076D08254300
:103930004046290007B03CBC90469946A246AB469B
:10394000F0BD034352D05B46002B00D18AE15846BC
:1039500000F0F8FD03000B3B1C2B00DD7BE11D227A
:10396000D31A3A0001005D46DA4008398D40130051
:103970008F402B439B46B8462E4B00279C46002386
:1039800060444642019385E752462A432CD10025E4
:103990000023022297E752462A4321D0002D00D16E
:1039A00054E1280000F0CEFD03000B3B1C2B00DD92
:1039B00046E11D21CB1A51460200D9405346083A30
:1039C000954093400D431B4A944660444042002278
:1039D00079E7012400220C40124B0025904699E71C
:1039E0000025002301226EE703226CE700239B469B
:1039F00098460133042701934CE703230C270193D6
:103A000048E700238025984600242D03054B81E7D5
:103A10005D464346019A6FE75D4643462100019AA1
:103A20006AE7C046FF07000001FCFFFF047D0000BD
:103A3000FFFF0F80F30300004246120C91461A0C60
:103A40009446424617044A461B041B0C5A436046E0
:103A500090464A4642431000039262461C003F0CC7
:103A60007A437C4342440192220C9246019A52448A
:103A7000904506D98246802040028046C244504686
:103A80000390100C049048462404240C12041219CC
:103A900005922A0C2D042D0C68432C0082464846C2
:103AA0007C4350438146200C80465743574447444B
:103AB000BA4503D9802040028046C144380C3F04F7
:103AC000B84648442404240C01900498A04440447F
:103AD00004905846000C814658460404200C824647
:103AE000070048465F434C46434360466043644694
:103AF000834650464443380C8446E4186444A34249
:103B000003D980235B029C46E34448463F04230CD0
:103B10003F0C2404E419574668436F4384464D46DE
:103B2000504655434243380C814662444A445B4404
:103B3000944503D9802040028446654403983F049D
:103B4000834604983F0C8446E344C3458041404289
:103B50008246100484460198674484466744A3441F
:103B6000BC46A345A4419946D44464428742BF4120
:103B7000D4458041E144A04699459B417F42404263
:103B8000C8440743120CBA18A045A4415F423B0049
:103B900064422343D71843467D19DB0D6D021D4354
:103BA0005B465A02059B1A43531E9A415B46DB0D46
:103BB0001A4343465B021343EA0107D501225C081E
:103BC00013402343EA07029E13436D08574AB21875
:103BD000002A4BDD580709D00F201840042805D0D3
:103BE000181D98429B415B42ED180300E80104D583
:103BF0004F4A15408022D200B2184E48824200DD62
:103C0000E7E60124DB08680718436D025305804688
:103C10002D0B5B0D0C407DE68022594612031142AC
:103C200008D0154206D115432D0398462D0B4C465E
:103C3000414B6FE65D4615432D032D0B3E4B69E668
:103C400003005546283B9D400023BCE6504600F04B
:103C500079FC2030A8E60300283B9F400023BB46A8
:103C6000984689E600F06EFC203073E60124A61A1F
:103C7000382E07DD00220C4000230025904649E63F
:103C8000029EA3E71F2E20DC20222C001800921B8E
:103C9000F040944093400443581E83411C43F54038
:103CA000630709D00F232340042B05D023001C1DDC
:103CB0009C4292415242AD182B021FD50124002292
:103CC0000C4001230025904624E61F202C00404292
:103CD000821AD440202E1CD04022961BB5402B4384
:103CE000581E83410720234318400025002809D08F
:103CF0000F2200251A401C00042AD8D1230068078F
:103D00006D022D0B0124DB08034398460C40002371
:103D100000E60025E3E780220124120315432D036A
:103D200098462D0B0C40044BF4E5C046FF03000001
:103D3000FFFFFFFEFE070000FF070000F0B557463B
:103D40004E464546E0B40E001100F20F9246C50003
:103D5000420F180337037400400A4E0F7F0A3043A6
:103D6000CF4E17435A00640D520DDB0FC900B2420B
:103D700000D1E5E001267340A61AB446534500D1B0
:103D8000AFE0002E00DC0DE1002A3AD103000B4326
:103D900000D0E4E06B0709D00F232B40042B05D0A3
:103DA0002B1DAB42AD416D427F191D003B0200D47B
:103DB00088E0BB4B01349C4200D110E13A00B94B82
:103DC00051461A4001235007ED085202640505438D
:103DD000120B640D0B400021280012030D0D120B75
:103DE00064052D0515436208AF4CDB072C401443D6
:103DF000640064081C4321001CBC90469946A246FE
:103E0000F0BDA74B9C42C5D080231B0418436346DA
:103E1000382B00DDFDE01F2B00DD30E16246202362
:103E20009B1A02009A40664690460A009940F2406A
:103E300046464B1E99413243114363460200DA4025
:103E4000691A8D429B410D00BA1A5B42D71A3B0298
:103E500035D57A02530A98464346002B00D1C4E078
:103E6000404600F06FFB0300083B1F2B00DDC5E060
:103E700020222900D21A4746D1409F400A009D4087
:103E80003A439C4200DDC0E01C1B631C1F2B00DD7D
:103E9000E4E0202114002800C91AD8408C408D404D
:103EA0000443DA40681E854117002543002471E76A
:103EB000424663461A4300D14CE2674645466B07CB
:103EC00000D069E7012351467807ED08FA080B4056
:103ED000054373498C4238D012036405120B640DFC
:103EE00079E7002E00DC9AE0002A47D06C4A944221
:103EF00000D14FE78022120410436246382A00DCCA
:103F000008E10143481E81410022C9B24919D21972
:103F1000A942BF410D007F42BF183A0200D442E1DE
:103F20005F4A0134944200D14EE101205D4A6908A4
:103F30003A4028400843D507054357089A4629E7E1
:103F400006000E4300D017E714E72900114300D103
:103F5000F9E1802109030A431203120B3BE7012315
:103F60005B429846C4446346002B72D1691A8D4265
:103F70009B413F1A5B42FF1A0D0068E702000A43AB
:103F800000D107E7012252429046C4446246002A0B
:103F900000D0E6E06918A942B6413F187642F71909
:103FA0000D00BAE7002E00D080E0621C5205520DD1
:103FB000012A00DCF9E06A1A91464D45B6413A1AE9
:103FC0007642921B9046120200D499E04D1BA94202
:103FD0008941C71B49427A1A90469A463CE75246A5
:103FE0000123002513400022F5E6280000F0AAFA7C
:103FF00020300300083B1F2B00DC39E72A0028385B
:10400000824000259C4200DC3EE7264FE41A174020
:10401000C0E60143481E81410022C9B210E7002ECC
:1040200000D0F1E0621C94465205520D012A00DCDA
:10403000A0E01B4A944500D1C5E06918A94292410D
:104040003F185242D2194908D5070D435708644614
:10405000A0E6134B9C4200D0D9E69BE611001F3C22
:10406000E1400C00202B00D180E04021CB1A9A4087
:1040700015436A1E95410027254300241FE7634628
:104080000200203BDA406346202B71D04023664675
:104090009B1B98400143481E814111430022CFE6FB
:1040A000FF070000FFFF7FFFFFFF0F80002C48D0BD
:1040B000CA4CA24200D1A2E07442A146802424044A
:1040C00027434C46382C00DDDBE01F2C00DD44E1AB
:1040D0004E462024A41B3E00A640A246B0464C46B5
:1040E0002E00E640B4464646644626435446A54064
:1040F0006C1EA54134002C434D46EF400D1B28E0BB
:104100004A4643464D461A4300D0A5E60023002404
:104110000025DEE61F2A5ADC66462022921B060096
:1041200096409146B04662460E00D640424616433F
:104130004A4691404A1E9141020060463143C240C6
:10414000E4E63C002C435AD0F443A146002C52D163
:104150004D1BA9428941C71B49427F1A14009A4648
:1041600075E69E4A944200D0C7E613E600227FE738
:1041700000208FE7002C00D0C8E03B002B4300D18B
:104180000FE103000B4300D104E66918A9429B41EB
:104190003F185B42DF193B0200D41AE1904B0D003F
:1041A0001F406446F6E59A4689E63A002A43002C09
:1041B0005CD1002A75D102000A4300D1CAE0070091
:1041C0000D009A46E6E564460022002581E6624637
:1041D0000600203AD6406246B046202A00D1B7E019
:1041E00040226646921B904001434246481E814150
:1041F000114300228AE6794CA24200D061E7070011
:104200000D0014009A46C5E5002C41D13C002C431A
:1042100078D0F443A146002C20D0704CA24271D03B
:104220004C46382C00DDB2E01F2C00DDBCE020261F
:10423000341BA2463C005646B4404E46A0462C00D5
:10424000F440A446444666463443A4465446A5403A
:1042500064466E1EB54125434C46E7406D188D42BD
:1042600089413F184942CF19140056E6002A2FD140
:1042700002000A4300D184E007000D009A46574C23
:1042800088E53D436F1EBD41ECB200270D1B60E782
:10429000524CA24236D0744280263604A14637439F
:1042A000BEE702000A4300D174E56A1A904645450C
:1042B000B6413A1A7642921B9446120200D4F7E5B0
:1042C0004D1BA9428941C71B49427F1A9A4661E5A5
:1042D00002000A433AD0ED087C072C438025FA08F7
:1042E0002D032A4208D0C7082F4205D145072C00CC
:1042F0003A009A46C9080C43670FD200E5001743FD
:10430000364C47E507000D00140043E53A002A4308
:1043100043D002000A4319D0ED087C072C438025C6
:10432000FA082D032A4207D0C6082E4204D14707B7
:104330003C003200C9080C43D700620FE500174368
:104340009A46264C26E50022002544E5234C21E52B
:10435000002049E700230025BBE54C463E00203CF9
:10436000E6404C46B446202C31D040244E46A61B95
:10437000B7403D436C1EA54164462C4300270D1BEE
:10438000E7E6802200231203144C0025A1E53D43FB
:104390006F1EBD410027EDB260E707000D000F4C16
:1043A000F8E407000D00F5E44E463C00203EF440E2
:1043B000A0464C46202C0ED040244E46A41BA740BD
:1043C0003D436F1EBD4144460027254346E7002775
:1043D000CFE70D0073E50027F2E7C046FF070000B6
:1043E000FFFF7FFF0B0330B5134D1A0B4B005B0D26
:1043F000C90F0024AB4211DD104CA34210DC802415
:10440000640322430E4CE41A1F2C0CDD0D48C31A22
:10441000DA4013005C42002900D11C00200030BDAE
:10442000094BCC18FAE7E040084CA44663449A4094
:1044300013000343EEE7C046FE0300001D04000026
:104440003304000013040000FFFFFF7FEDFBFFFFBC
:1044500070B5002830D0C317C4185C40C50F2000C9
:1044600000F070F8174B184A1B1AD21A1F2A18DDD1
:10447000164AD21A9440002224035B05240B5B0DDC
:104480000021100024030A0D1205240B1443104AC6
:104490001B0514401C436400ED0764082C432100F5
:1044A00070BD210091400A000B21081AC4405B0531
:1044B0002403240B5B0DE3E70025002300240022E6
:1044C000DEE7C0461E0400003304000013040000B1
:1044D000FFFF0F8070B5051E28D000F033F8154B94
:1044E000154A1B1AD21A1F2A16DD2C00134A002562
:1044F000D21A94405A052403240B520D00212403A0
:104500000B0D240B1B0523430D4C120523401343B5
:104510005B002800590870BD0B212C00081AC4400C
:10452000954024035A05240B520DE7E7002200248E
:10453000E4E7C0461E04000033040000130400003A
:10454000FFFF0F801C2101231B04984201D3000CA4
:1045500010391B0A984201D3000A08391B099842F6
:1045600001D30009043902A2105C40187047C0460C
:10457000040302020101010100000000000000002C
:104580000B0010B50100180000F028F810BD000065
:104590007FB51D000A4B06001B68D868002A02D1AF
:1045A000084C230001E01300074C029300913300F4
:1045B0002A000649019400F035F801F0EFF8C046F2
:1045C000F4000020827C0000447D0000517D00004A
:1045D00010B50A22002101F009F810BD70B5054C94
:1045E00005001300201E04D00A000220290000E06C
:1045F00000BF70BD00000000084B10B50400002B88
:1046000002D0002100E000BF054B1868836A002B30
:1046100000D09847200002F07FFDC0460000000057
:10462000847D00000EB403B5010003AB044804CB45
:104630000068019300F016F902B008BC03B01847F7
:10464000F40000200E4B70B500251E000D4CE41A3E
:10465000A410A54204D0AB00F35898470135F8E701
:1046600002F05CFD084B00251E00084CE41AA41063
:10467000A54204D0AB00F35898470135F8E770BD68
:1046800034010020340100203401002048010020C2
:1046900010B5034B0100186800F066F810BDC04665
:1046A000F400002010B5034B0100186800F016F864
:1046B00010BDC046F4000020002310B59A4203D07C
:1046C000CC5CC4540133F9E710BD03008218934257
:1046D00002D019700133FAE77047000030B50029A5
:1046E0003ED004390B68002B00DAC9181D4A136844
:1046F0001400002B02D14B60116031E08B420DD9C8
:104700000A688818834203D118685B6882180A60B7
:104710004B60216024E08A4203D813005A68002AC3
:10472000F9D11D685C198C420BD1096869185818B9
:104730001960824214D110685268411819605A6099
:104740000EE08C4202D90C23036009E008680C18C3
:10475000A24203D114685268201808604A60596068
:1047600030BDC04614030020032370B5CD1C9D430B
:10477000083506000C2D01D20C2505E0002D03DACA
:104780000C230020336040E0A942F9D81F4B1C687D
:104790001A002100002913D00B685B1B0DD40B2BD2
:1047A00002D90B60CC181EE08C4202D16368136002
:1047B0001AE04B6863600C0016E00C004968E9E7FA
:1047C000134C2368002B03D1300000F0DDFD206086
:1047D0002900300000F0D8FD431CD1D00323C41CB5
:1047E0009C43A0420AD12560200007220B30231DE4
:1047F0009043C31A09D05A42E25006E0211A300011
:1048000000F0C2FD431CEED1BAE770BD14030020D6
:1048100010030020936810B5013B9360002B05DA6C
:104820009469A34208DBCBB20A2B05D01368581C4D
:1048300010601970C8B201E000F0E4FE10BDF8B5D8
:1048400006000F001400D518AC4208D021783A00B9
:104850003000FFF7DFFF0134431CF5D100E00020FA
:10486000F8BD0000F0B59FB006000F00029205935E
:10487000002804D08369002B01D101F0D7FE7F4BC3
:104880009F4201D1776808E07D4B9F4201D1B76814
:1048900003E07C4B9F4200D1F768BB891B070AD518
:1048A0003B69002B07D0002306AD6B6120336B768C
:1048B0001033AB763DE03900300000F0FBFE0028FD
:1048C000F1D001204042D6E0059A111D12680591F1
:1048D000002A00DA7FE00992013423782E2B00D1E0
:1048E0008DE021780322684801F08AFF002807D074
:1048F000654B2A68C01A4023834013432B60013460
:104900002178631C062261480293297601F078FF22
:10491000002800D19DE05E4B002B00D090E00722E4
:10492000059B07339343083305936B69039A9B18E0
:104930006B61029C2378002B04D1029BE31A049341
:1049400012D003E0252BF8D00134F3E7049B029A40
:1049500039003000FFF773FF431C00D186E06A691D
:10496000049B944663446B612378002B7ED0012224
:10497000002352426A6002A95432521801342B605B
:10498000EB60AB601370AB6521780522414801F004
:1049900037FF002808D03F4B2A68C01A0123834004
:1049A00013432B600134EFE72B68DA0604D553225A
:1049B000202102A8121811701A0704D553222B21A6
:1049C00002A81218117022782A2A00D17CE7099BCC
:1049D00000200A2105E05242EA60022213432B60C4
:1049E0007AE72278303A092A04D84B4301349B18DD
:1049F0000120F6E7002800D16FE709936DE763789F
:104A00002A2B0AD1059B02341A1D1B680592002B24
:104A100001DA01235B42079363E700230A201A00AF
:104A200001346B6021783039092904D842430134BC
:104A300052180123F6E7002B00D152E7079250E706
:104A400005AB00933A00144B2900300000F0BCF88D
:104A500007E005AB00933A000F4B2900300000F04F
:104A600067FB0390039B013300D05EE7BB895B06C5
:104A700000D526E70B981FB0F0BDC046D47E0000DD
:104A8000F47E0000147F00008E7D0000927D000007
:104A9000C94B0000887D00003F480000F0B58BB096
:104AA00014001D1E129906DA802424061B191D000D
:104AB00014002D2300E000230B702023149E0322FA
:104AC0009E43462E07D03300453B59424B41109937
:104AD000013ACB18109309AB049308AB0393139BD3
:104AE00000920293109B220001932B0000F0E4FE41
:104AF0000700472E02D1119BDB072DD5109BFB1819
:104B00000793462E14D13B78302B0CD10022002382
:104B100020002900FDF7EEFE002804D10123109AA1
:104B20009B1A139A1360139B079A1B68D318079359
:104B30000022002320002900FDF7DCFE302200289F
:104B400002D0079B099307E0099B0799994203D973
:104B5000591C09911A70F7E73800099B159ADB1B5D
:104B600013600BB0F0BDF7B52B2307000C000270EB
:104B7000861C002901DA2D234C427B70092C1CDD98
:104B80006B46DD1D20000A21FDF79EFE013D303100
:104B9000297020000A21FDF7B1FD041E092CF1DC6B
:104BA000013D30342C706B4607333000AB4209D9DD
:104BB0002B78013533700136F5E73023E418337074
:104BC000B01C7470C01BFEBDF0B597B00C000B920A
:104BD0000C931C9D060001F0BDFD036818000E93A8
:104BE00000F0F6FB0023216814930F90277E2B68BA
:104BF0000722C90501D59B1800E0073393431A002B
:104C000008322A601A685B68A264E364A06CE16CF5
:104C1000FDF7B2FC012816D1A06CE16C0022002344
:104C2000FDF76EFE002803D023002D2243331A70B7
:104C3000BC4D472F00D8BC4D0323226823610133AC
:104C40009A4313000EE0A06CE16CFDF795FC23681D
:104C500000280BD1B54D472F00D8B54D0322226156
:104C600001329343236000230D9384E08025626822
:104C7000ED00511C01D107320BE0A06CE16C0890F3
:104C80000991672F01D0472F04D1002A00D0C9E134
:104C90000122626014AA059213AA039223222B43D5
:104CA000002523600AA901936368521806950292B1
:104CB00000930497A26CE36C3000FFF7EFFE202313
:104CC0003A0005009A43472A07D1139BDA1C02DBFE
:104CD000626893422EDD023FFFB21399652F12D80E
:104CE000200001393A0050301391FFF73CFF149A2D
:104CF0000D9083182361012A02DC2268D20730D587
:104D0000013323612DE0662F15D16368002909DD89
:104D10002161002B02D12268D2071ED50133591818
:104D200021611AE0002B03D101222168114213D026
:104D30009A1C11E06727139B149A934206DB2268A2
:104D40002361D20709D50133236106E00121002B3D
:104D500001DC4918C91A8A182261139BA365002334
:104D60000D9323230AAA9B181B78002B03D0230042
:104D70002D2243331A700C9B15AA009321000B9B24
:104D8000300000F067F9431C02D1012040425FE18E
:104D90002268530501D4236967E0652F00D8E3E05A
:104DA000A06CE16C00220023FDF7A4FD00282CD0AC
:104DB0000123604A0B9930000C9DA847431CE4D0A6
:104DC000139B149A934208DB2368DB0705D42368FE
:104DD00000259B0700D51AE11EE10C9D0F9B0E9A42
:104DE0000B993000A8470025431CCED0149B013BF3
:104DF0009D42ECDA220001231A320B9930000C9FFD
:104E0000B847431CC1D00135F0E7139B002B2EDCC3
:104E10000123484A0B9930000C9FB847431CB4D07B
:104E2000139B002B05D1149B002B02D12368DB07B9
:104E3000CDD50F9B0E9A0B9930000C9FB847431CA1
:104E4000A3D000230D93139B0D9A5B429A420BDA79
:104E5000220001231A320B9930000C9FB847431CE3
:104E600093D00D9B0133EDE7149B2A00B4E0149A14
:104E7000A36D0D929A4200DD0D930D9B002B06DC75
:104E8000002310930D9BDB43DB17119315E00D9B63
:104E90002A000B9930000C9FB847431CF0D174E7EF
:104EA000220001231A320B9930000C9FB847431C93
:104EB00000D16AE7109B013310930D99119BA26DED
:104EC0000B401099D31A9942EADBAB180D93149A50
:104ED000139B93420EDB2368DB070BD4149B139ABE
:104EE000ED189B1A0D9AAD1A9D4200DD1D00002D94
:104EF00009DC11E00F9B0E9A0B9930000C9FB8470C
:104F0000431CEBD141E72B000D9A0B9930000C9F0D
:104F1000B847431C00D138E70023EF430D93FB173C
:104F20000E9316E0877C0000997D0000837C0000D2
:104F30009D7D0000A17D0000220001231A320B9903
:104F400030000C9FB847431C00D11EE70D9B013376
:104F50000D93139A149B0E999B1A2A000A409B1AD0
:104F60000D9A9A42E8DB32E7149B012B02DC012305
:104F70001A4239D001232A000B9930000C9FB84700
:104F8000431C00D101E70F9B0E9A0B9930000C9F38
:104F9000B847431C00D1F8E6A06CE16C0022002366
:104FA000FDF7A8FC002801D000250EE0149B6A1C28
:104FB000013B1AE0220001231A320B9930000C9FAA
:104FC000B847431C00D1E0E60135149B013B9D42EC
:104FD000F0DB22000D9B50320B9930000C9DA8474E
:104FE000431C00D0F3E6D0E62A000B9930000C9D5C
:104FF000A847431CEDD1C8E62200012319320B99C2
:1050000030000C9FB847431C00D1BEE60135E36871
:10501000159A9B1A9D42EFDB159BE068984217DAC0
:10502000180015E02B430025069514AD059513AD2A
:10503000039523250AA96D18236002950193009218
:105040000497089A099B3000FFF728FD05003CE60D
:1050500017B0F0BDF7B5170001938A680B6900908F
:105060000C00934200DA130022003B6043321278B6
:10507000002A01D001333B6023689B0602D53B68C0
:1050800002333B60062523681D401ED023004333B6
:105090001B785A1E9341226892061CD53020E118D5
:1050A0004331087021005A1C45310978A218433257
:1050B000023311700FE02200012319320199009888
:1050C000089EB047431C0ED00135E3683A689B1A2E
:1050D0009D42F0DBDAE72200019943320098089DF7
:1050E000A847431C02D10120404220E0062320684B
:1050F000E1683A6803400025042B03D18D1AEB4385
:10510000DB171D40A3682269934201DD9B1AED184D
:105110000027BD420AD0220001231A3201990098CB
:10512000089EB047431CDED00137F2E70020FEBDE9
:10513000F0B58BB006920A004332079305900492B3
:105140000A7E0C00109B6E2A00D1ABE011D8632AB6
:1051500022D009D8002A00D1B5E0582A00D0C5E0F5
:1051600045310A70814A4FE0642A1DD0692A1BD05C
:10517000BCE0732A00D1AAE009D86F2A29D0702A8E
:1051800000D0B3E0202209680A43226037E0752A84
:105190001FD0782A33D0A9E00E001A684236111DBC
:1051A000196013683370A4E021681A68080606D4F1
:1051B000490604D5111D19600023D55E02E0111DBA
:1051C00019601568002D3BDA2D23049A6D42137087
:1051D00036E021681A68080606D4490604D5156821
:1051E000111D1960ADB202E0111D196015685F4B09
:1051F000227E039308276F2A1DD00A271BE0220076
:105200007821453211705A4A19680392081D2268A4
:1052100018600D68100602D4500600D5ADB2D30751
:1052200002D520231A4322601027002D03D120230A
:1052300022689A4322602300002243331A7002E05E
:105240000A274A4B03936368A360002B09DB0422FF
:10525000216891432160002D05D1049E002B11D0BF
:105260007BE0002D79D0049E28003900FDF742FA3A
:10527000039B013E5B5C280033703900FDF7B4F9F5
:10528000051EF1D1082F09D12368DB0706D5636815
:105290002269934202DC3023013E3370049B9B1B46
:1052A00023612BE009681A68080607D4490605D56A
:1052B000111D19601368A28A1A8004E0111D19607B
:1052C000136862691A600023049E236116E01A685D
:1052D000111D1960166800216268300001F090FA13
:1052E000002801D0801B6060636803E0260042361E
:1052F0003270012323610023049A1370079B09AACB
:1053000000932100069B0598FFF7A4FE431C02D1E1
:105310000120404227E02369320006990598079D45
:10532000A847431CF4D0236800259B070FD4099B92
:10533000E068984217DA180015E0220001231932BC
:1053400006990598079EB047431CE1D00135E368F4
:10535000099A9B1A9D42F0DBE9E72600039B42363F
:105360001B7833708EE70BB0F0BDC046A37D000004
:10537000B47D000010B5034B0A000100186801F06D
:1053800043FD10BDF4000020002370B5064C05005D
:105390000800236001F0AAFE431C03D12368002B00
:1053A00000D02B6070BDC0461C03002002780B7833
:1053B000002A03D0013001319A42F7D0D01A704749
:1053C000031C0A7801311A700133002AF9D17047A1
:1053D0000023C25C0133002AFBD1581E7047030032
:1053E00030B5002A0DD00C7801335D1E013A2C70C7
:1053F0000131002CF5D19A189A4202D01C70013369
:10540000FAE730BDF8B5174B06001D680F00AC6D0C
:10541000002C1FD15020FFF73BF9A8658460AB6DCD
:10542000046044601C61DC60AB6D9C615C61AB6DD1
:10543000DC629C62AB6D5C631C63AB6DDC639C6384
:10544000AB6D5C641C64AB6DDC649C64AB6D1C7701
:10545000AB6D5C62AA6D39003000012300F004F8E6
:10546000F8BDC046F4000020F0B5041E0CD114684D
:10547000201E09D126E03778002F0CD00136B84223
:10548000F9D1002B04D02C00651C20780E00F2E727
:105490001560237015E0002808D1106012E007782D
:1054A000BE4207D00130002FF9D11D006B1C2E78B1
:1054B0000800F4E7002E02D00021297000E033003C
:1054C00013602000F0BD0000F0B51E00454B87B012
:1054D0001B680192029308220B00059003911C782F
:1054E00002995D1C09194878104001D02B00F6E79D
:1054F0002D2C04D19D1C5C780123009304E00090C6
:105500002B2C01D15C789D1C002E02D0102E0AD1CC
:1055100062E0302C5ED120222B789343582B54D15B
:1055200010266C780235009F31007B1E9F412E4B68
:10553000FF183800FDF7DEF8380004913100FDF760
:1055400053F800230322070094461800029A121908
:1055500051780422114201D0303C07E062461140EC
:1055600017D03722012900D02032A41AA64210DD1C
:105570005A1C0BD0B84207D802D1049B9C4203DCD2
:1055800070430123201801E001235B422C78013590
:10559000DCE75A1C0BD10098059A431E9841124B28
:1055A000C01822231360019B002B0AD117E0009A38
:1055B000002A00D04042019A002A10D0039A002B02
:1055C00000D06A1E019B1A6009E03024002EAAD187
:1055D0000826A8E70A26A6E7302C9CD0A3E707B048
:1055E000F0BDC046F8000020FFFFFF7F10B513009C
:1055F0000A00010002480068FFF766FF10BDC046C0
:10560000F4000020F8B505000F001400002804D0B5
:105610008369002B01D101F009F8234B9C4201D191
:105620006C6808E0214B9C4201D1AC6803E0204B40
:105630009C4200D1EC68A369A360A3891B070AD52B
:105640002369002B07D023682269FEB2981A636988
:1056500098420FDB08E02100280000F02BF800281A
:10566000F1D0012040421DE02100280000F070FF31
:105670000028F6D1A3680130013BA36023685A1CBF
:1056800022601F706369984205D0A3893000DB0750
:1056900008D50A2E06D12100280000F059FF002865
:1056A000DFD13000F8BDC046D47E0000F47E00009B
:1056B000147F0000354B70B51D6806000C00002DEE
:1056C00005D0AB69002B02D1280000F0AFFF304BB2
:1056D0009C4201D16C6808E02E4B9C4201D1AC6821
:1056E00003E02D4B9C4200D1EC68A3899AB21107CC
:1056F00023D4D10607D40922012032603732134364
:10570000A381404240E0530713D5616B002908D0C4
:1057100023004433994202D03000FEF7DFFF00231C
:1057200063632422A3899343A381002363602369D5
:1057300023600822A3891343A3812369002B0BD183
:10574000A023A2899B00134080229200934203D0A1
:105750002100300001F002F80123A289134005D096
:105760000023A36063695B42A36103E0910700D457
:105770006369A36000202369834205D1130603D522
:1057800040231A43A281013870BDC046F4000020B6
:10579000D47E0000F47E0000147F000010B50620C7
:1057A00001F082FB012001F0B7FCF0B503690C6940
:1057B00089B00700059100269C4279DC0B00013C72
:1057C0001433A50003935B1904930300143302936D
:1057D0005D19049B28681B68591C0193FCF704FFA2
:1057E0000190B04233D0039B02989C4606966346D4
:1057F00004CB9C46019B91B25943120C5A43891920
:105800000B0CD3180793069A1E0C038889B29B18B9
:1058100002685B1A110C6A46928B8A1A1914521884
:1058200011149BB21204134308C0049B06916345F4
:10583000DDD22B68002B0AD1029B043DAB4201D381
:105840003C6104E02B68002BFAD1013CF4E7059998
:10585000380001F0F1F9002829DB0020019B0299B2
:105860000133039A019340CA0B881818B3B2C31AC4
:105870000868360C000C801B1D14451928149BB2B7
:105880002D042B4308C1049B9342ECD2029AA3003F
:10589000D3181A68002A0AD1029A043B9A4201D30B
:1058A0003C6104E01A68002AFAD1013CF4E7019E49
:1058B000300009B0F0BD0000F0B516001F00446ACA
:1058C0009DB00490259D06960797002C08D11020C6
:1058D000FEF7DEFE049B5862446084600460C4608E
:1058E000049B5B6A196800290BD05A680123934016
:1058F0004A608B60049800F0C6FF0022049B5B6A3C
:105900001A60079B002B05DA01232B607B005B08E4
:10591000079301E000232B60079CC84B22001993DA
:105920001A409A4219D1C64B249A1360069AC54B65
:10593000002A02D1240300D1C34B269A1800002A62
:1059400001D100F07DFDD978DA1C002900D00532A4
:10595000269918000A6000F073FD069E079F00223A
:10596000002330003900FCF7C5FF051E0ED00123CF
:10597000249A1360B54B269A1800002A01D100F032
:105980005FFDB34A26990A6000F05AFD1AAB0193F5
:105990001BAB009332003B00049801F0D3F9630085
:1059A00005905B0D09D03A03AA4C120B1443AA4A86
:1059B000300021009E1817951AE01A9B1B9A9E181A
:1059C000A64BF318202B08DDA54A0698B218D04044
:1059D0004022D31A9C40204303E020220698D31A89
:1059E0009840FEF777FD01239E4C013E091917935D
:1059F00000229D4BFEF7A2F99C4A9D4BFDF724FF28
:105A00009C4A9D4BFCF7D0FF040030000D00FEF7D0
:105A10001FFD9A4A9A4BFDF717FF02000B0020006A
:105A20002900FCF7C1FF04000D00FEF7DBFC00229B
:105A30000390002320002900FCF762FF00280DD00E
:105A40000398FEF705FD02000B0020002900FCF77B
:105A500051FF43424341039AD31A03930123169300
:105A6000039B162B11D88749DB00C91808684968C1
:105A7000069A079BFCF758FF002805D0039B013BC3
:105A800003930023169300E016901A9B9E1B00239D
:105A90000B93013E0C9604D50C9B5B420B930023A9
:105AA0000C93039B002B08DB039A0C9B94466344E6
:105AB0000C9300231192089307E00B9B039A9B1A07
:105AC0000B935342089300231193229B0125092B2A
:105AD00025D8052B02DD0025043B2293229B981E2E
