:1000000000000220A15D0000C95D0000CB5D000082
:10001000CD5D0000CF5D0000D15D0000000000005C
:10002000000000000000000000000000D35D0000A0
:10003000D55D000000000000D75D0000D95D000024
:10004000DB5D00008528000045680000E116000027
:10005000D5160000DB5D0000DB5D0000DB5D00000D
:10006000DB5D0000DB5D00007D190000DB5D000052
:10007000DB5D0000DB5D0000DB5D0000DB5D0000A0
:10008000DB5D0000595F0000DB5D0000DB5D000010
:10009000DB5D0000DB5D0000DB5D0000DB5D000080
:1000A000DB5D0000DB5D0000DB5D0000DB5D000070
:1000B000DB5D0000DB5D00000000000000000000D0
:1000C000DB5D0000DB5D0000DB5D0000DB5D000050
:1000D000DB5D0000DB5D0000DB5D0000DB5D000040
:1000E000DB5D0000000000000000000000000000D8
:1000F00000000000DB5D000000000000DB5D000090
:1001000000000000000000000000000000000000EF
:1001100000000000000000000000000000000000DF
:1001200000000000000000000000000000000000CF
:1001300000000000000000000000000000000000BF
:1001400000000000000000000000000000000000AF
:10015000000000000000000000000000000000009F
:10016000000000000000000000000000000000008F
:10017000000000000000000000000000000000007F
:10018000000000000000000000000000000000006F
:10019000000000000000000000000000000000005F
:1001A000000000000000000000000000000000004F
:1001B000000000000000000000000000000000003F
:1001C000000000000000000000000000000000002F
:1001D000000000000000000000000000000000001F
:1001E000000000000000000000000000000000000F
:1001F00000000000000000000000000000000000FF
:10020000044B05481B1A062B02D9044B03B11847AF
:10021000704700BF3B0100203801002000000000B3
:1002200005490648091A891001EBD171491002D01D
:10023000034B03B1184770473801002038010020F4
:100240000000000010B5064C237843B9FFF7D8FF33
:10025000044B13B10448AFF300800123237010BD99
:100260003801002000000000B449030008B5084B25
:100270001BB108490848AFF300800848036813B968
:10028000BDE80840CCE7064B002BF9D09847F7E7CC
:10029000000000003C010020B449030034010020AC
:1002A00000000000154B002B08BF134B9D46A3F523
:1002B000803A00218B460F461348144A121A07F061
:1002C0009CFB0F4B002B00D098470E4B002B00D00F
:1002D00098470020002104000D000D48002802D09E
:1002E0000C48AFF3008007F047FB2000290006F020
:1002F000F9FB07F01BFB00BF000008000000022014
:10030000000000000000000038010020BC050020B3
:100310000000000000000000F8B506460C468F18EB
:100320000025BC4207D0336814F8011B1B68304617
:1003300098470544F5E72846F8BD38B500F10805AB
:10034000D0F8B4300446284698474FF6FD729042E4
:10035000034621D8B4F8BA20B4F8B810284603F000
:10036000A7F994F89030032B16D8DFE803F00206C3
:100370000A10B4F8B830184406E0B4F8BA3018449B
:1003800008E0B4F8B830181AA4F8B80004E0B4F8DB
:10039000BA30181AA4F8BA00012038BDF0B50446E6
:1003A00087B0174802F02CFB16490546204606F098
:1003B000ABFA15B300272B78FEB2033B9E4207F140
:1003C000010717DA2E442146684606F0DBFA317938
:1003D000684606F01EFB014603A806F0D3FA03A9FF
:1003E000204606F0D9FA03A806F04CFA684606F053
:1003F00049FAE0E7284606F08BFB204607B0F0BD3F
:1004000050020020324603002DE9FF411E23002246
:100410000746014601A806F03BFB01A9384606F055
:10042000BBFA124C01A806F02DFABA682368033211
:100430001A700A229A700C225A700E22DA70002367
:10044000DEB25D1CBB68B34209D9D4F800803146E6
:10045000384606F003FB46442B463071F0E721682E
:10046000034802F0DFFA04B0BDE8F08194020020F6
:100470005002002038B52721254C2648022310229F
:1004800001F014FF244A2260002304F10805234AE6
:100490006360C4F8B420A4F8B830A4F8BA30284691
:1004A00003F05DFB1E4B236028461E4B1E4A1F496E
:1004B0001F4C02F00DFFFF231A461946284602F092
:1004C00049FE1C481C4D02F053F91C4804F0E5F9A4
:1004D00021461B4803F0BAFF1A4802F0F7FA2146FA
:1004E000194C1A4804F0F9F8204601F073F9204637
:1004F000174C18492A4607F0D9F91749204606F043
:1005000003FA2A4620461549BDE8384007F0CEB91F
:100510009401002080020020C0B80000BB3A000017
:10052000D0B800001530000065310000A44403007D
:10053000E402002050020020000000207002002091
:1005400084010020E00200209C02002064010020C1
:100550006C010020F9170000324603008568000096
:100560007FB5344D344C354E28464FF4E13106F01A
:1005700031F82846052106F015F80021052005F080
:10058000F5FD00210B2005F0F1FD2D4800F00AFFDC
:10059000204603F0E9FF204603F0B4FF2046294C33
:1005A00004F016F8204604F011F9204604F099F8FA
:1005B00005F094FC244B18602C2006F0A7FA2C229E
:1005C0000021044607F019FA204B1C60204C07213B
:1005D000204602F0E1F81F4901A806F095F901A9AB
:1005E000204602F0D3F801A806F04CF9204602F0AC
:1005F00079F90A21204602F0FBF93221204606F162
:10060000080402F0D9F8204603F079FC204602F0F5
:1006100049FE0021204603F07BFC0F4B0F48C6F833
:10062000B43001F04FF90E49284605F043FE04B0FE
:1006300070BD00BF48050020840100209401002007
:10064000E4020020640100207801002094020020D0
:1006500050020020E9380300CB3A00009C02002041
:10066000EE380300000000002DE9F04FABB0AC4CB9
:10067000AC4902AF07F1200005F096FF07F1200119
:10068000204606F089F907F1200006F0FBF8A36880
:100690005E1C083323F00703ADEB030D02AD00230E
:1006A00032462946204606F0DBF90021A9552046AE
:1006B00006F0B9F98046002840F0ED859A492846B1
:1006C00008F05EFE98490546404608F059FE9649F6
:1006D0000446404608F054FE93490646404608F05A
:1006E0004FFE92497860284607F0E2FF40B99049F2
:1006F0008C4805F0C6FD8F4B8A48196805F0DAFD75
:100700008D49284607F0D4FF8046D0B90121172033
:1007100005F02CFD01211A2005F028FD414603209B
:1007200005F024FD032005F02DFC844980467D481A
:1007300005F0A7FDC8F57F710A220331794805F05D
:100740001DFE7F49284607F0B3FF88B907F1200155
:100750007C4803F045FF7C49724805F092FD386AF9
:1007600006F05AFB41EC100B02216E4805F0BBFE6F
:100770007649284607F09CFFB8B97549694805F0E5
:1007800080FD052005F038FD0A220146654805F088
:10079000F3FD7049634805F074FD0B2005F02CFD56
:1007A0000A2201465F4805F0E9FD6B49284607F03B
:1007B0007FFF50BBDFF8E8810121D8F8000005F089
:1007C000D5FC204698F8009007F097F8824630460E
:1007D00007F090F850A3D3E9002351EC100B06F07A
:1007E0006FFB06F02FFE51460246484602F0C6F95E
:1007F000304607F082F805F0A1FB98F8000002F0FF
:10080000C9F95649474805F055FD5549284607F0AE
:100810004FFF804650BB204607F06FF8414605F079
:10082000A5FC204607F069F8DFF87881C1B24046A0
:1008300004F0EAF84B493B4805F023FDD8F80C00DA
:1008400006F0EAFA41EC100B0221364805F048FEAA
:100850004049344805F015FDD8F8080006F0DCFAE8
:1008600041EC100B02212F4805F03DFE3E49284681
:1008700007F01EFF002840F02D813C49204607F07C
:1008800017FF38B93A4801F01DF80121384800F047
:100890004DFF1FE13749204607F00AFF20B93448D1
:1008A00001F010F8344926E03449204607F000FFF3
:1008B00020B92F4801F006F831491CE031492046A3
:1008C00007F0F6FE20B92A4800F0FCFF2E4912E09E
:1008D0002E49204607F0ECFE20B9254800F0F2FF33
:1008E0002B4908E02B49204607F0E2FE38B92048A2
:1008F00000F0E8FF28491E4801F046F8EAE02749E1
:10090000204607F0D5FE00284ED1194801F038F8EE
:10091000E0E000BFAFF30080CDCCCCCCCCCCEC3F42
:100920006C010020480500200D3903000F39030039
:100930001339030008000020183903001E39030092
:100940002139030084010020263903002C390300DB
:100950002E390300313903003339030038390300DD
:100960003B39030041390300483903004C39030087
:100970009C020020533903001E3E03005939030036
:10098000143E03005C390300193E03006039030084
:10099000E539030066390300E43803006A390300CF
:1009A00004000020700200204349204607F080FE2A
:1009B000804610BB4149304608F0E2FC3F4983467F
:1009C000404608F0DDFC3D498146404608F0D8FC31
:1009D0008246584606F091FF8046484606F08DFF55
:1009E0008146504606F089FF0FFA89F283B20FFA6A
:1009F00088F1334800F0ACFE6CE03249204607F045
:100A000057FE98BB2E4800F05DFF2C49304608F099
:100A1000B7FC2A498046002008F0B2FC27498146ED
:100A2000002008F0ADFC25498246002008F0A8FC13
:100A30008346404606F061FF8046484606F05DFF6B
:100A40008146504606F059FF8246584606F055FF4B
:100A5000012300B2019300900FFA8AF30FFA89F292
:100A60000FFA88F1164801F0EBF833E016492046FA
:100A700007F01EFE804648BB114800F023FF08EB3C
:100A8000880AB2444FF000090FFA88FB1AF80930BF
:100A9000312B06D101235A460FFA89F1084800F09C
:100AA00057FE09F10109B9F1050FEFD108F101086D
:100AB000B8F1050FE3D10DE07039030031390300BF
:100AC0009C0200207A390300833903002146BF4885
:100AD00000F09CFFBE49284607F0EAFD68B92046B1
:100AE00006F00BFF0146BB4802F020F8304606F046
:100AF00004FF0146B74802F029F8B749284607F035
:100B0000D7FDF8B907F12001B44803F0A5FCB449BA
:100B1000B44805F0B6FB0A22B96AB24805F00AFCEF
:100B2000B149B04805F0ADFB0A22796AAD4805F03D
:100B300001FCAD49AB4805F0A4FB0A22396AA9487B
:100B400005F026FCA949284607F0B2FD18BB07F1BD
:100B50000800FFF723FC3B6943B1A549A14805F014
:100B600090FB07F108019F4805F09AFB21469D483C
:100B700005F0A0FB214607F1200005F0C5FE07F1B6
:100B80002000FFF741FC07F1200005F07BFE07F194
:100B9000080005F077FE9749284607F089FD30B92F
:100BA000204606F0AAFEC1B2934801F021FF934906
:100BB000284607F07DFD002840F08780DFF87C8222
:100BC0008F48DFF854A2414603F0ABFD8D49D8F8B9
:100BD00008E0C1F800E08C49D8F800008B4AD8F84A
:100BE00004C08B4B91F800801060C3F800C093469E
:100BF00099468849B8F1000F21D10B689842DAF87C
:100C00000030B8BF08609842C4BF834B1860834B64
:100C10001A689445B8BFC3F800C0814B1A68944560
:100C2000C8BFC3F800C07F4B1A689645B8BFC3F869
:100C300000E07D4B1A689645C8BFC3F800E040F25B
:100C4000FF38CDF80080DAF80020784B0968DFF82B
:100C5000B4A105F00DFE724A7049CBF80000CDF842
:100C60000080724B12680968D9F8000005F000FE98
:100C70006D4A6C49C9F80000CDF800800023126865
:100C80000968DAF8000005F0F3FD6949CAF80000C8
:100C9000544805F0F6FA0A22DBF80010514805F036
:100CA00049FB51494F4805F0ECFA0A22D9F80010E7
:100CB0004C4805F03FFB4C494A4805F0E2FA0A224D
:100CC000DAF80010474805F063FB5A49284607F058
:100CD000EFFC002840F0C380DFF860814848DFF86F
:100CE00038A1414603F01DFD4649D8F808E0C1F897
:100CF00000E04549D8F80000444AD8F804C0444B05
:100D000091F800801060C3F800C0934699464149AD
:100D1000B8F1000F21D10B689842DAF80030B8BF63
:100D200008609842C4BF3C4B18603C4B1A6894451D
:100D3000B8BFC3F800C03A4B1A689445C8BFC3F89F
:100D400000C0384B1A689645B8BFC3F800E0364B70
:100D50001A689645C8BFC3F800E040F2FF38CDF8E6
:100D60000080DAF80020314B0968DFF898A005F020
:100D70007FFD2B4A2949CBF80000CDF800802B4B92
:100D800012680968D9F8000005F072FD264A254965
:100D9000C9F80000CDF80080002312680968DAF86D
:100DA000000005F065FD2449CAF800000D4805F073
:100DB00068FA0A22DBF800100A4805F0BBFA0A4973
:100DC000084805F05EFA0A223AE000BF9C020020C3
:100DD0008A390300E00200209039030084010020DA
:100DE000B639030048050020313903009539030066
:100DF0009B3903009F39030050020020A7390300EC
:100E0000640100209802002054010020900200207C
:100E1000DC020020580100207C0100205C01002041
:100E200080010020600100209001002001FCFFFFF4
:100E3000AB390300B0390300B43903006402002069
:100E4000D9F80010A94805F075FAA949A74805F096
:100E500018FA0A22DAF80010A44805F099FAA54910
:100E6000284607F025FC8046D8B9204606F045FD07
:100E7000414605F07BF9A0499C4805F002FA21465D
:100E80009A4805F0FEF99D49984805F0FAF9204680
:100E900006F033FD05F0B0F90A220146934805F04B
:100EA0006DFA9749284607F003FCA8B995498F4881
:100EB00005F0E7F921468D4805F0E3F98F498B48A5
:100EC00005F0DFF9204606F018FD05F05BF80A2270
:100ED0000146864805F024FA8B49284607F0E8FBCE
:100EE00080B9204606F009FD012105F03FF92046B2
:100EF00006F003FD8046304606F0FFFC0146404602
:100F000005F05EF98149284607F0D2FB50B920462A
:100F100006F0F3FC8046304606F0EFFC0146404602
:100F200005F0D4F87A49284607F0C2FB01460028AC
:100F300040F0CC80802207F1200006F05EFD6C4975
:100F4000304608F01DFA804606F0D7FC07F1240968
:100F50003862B8F1000F09D06549002008F010FA96
:100F6000804606F0CAFC49F8040BF2E7204606F07A
:100F7000C4FC522302B20C2107F1080002F002F86F
:100F800007F1080001F016FEC3464046C246C146BE
:100F900007F1A00303EB800353F8801C002940F302
:100FA000868000F1010807F1A00303EB88030139F3
:100FB00053F8803C53B900F1020807F1A00202EB9C
:100FC00088029B4652F8809C9A465EE0012B0AD12B
:100FD00000F1020807F1A00303EB880353F880AC8B
:100FE0000AEB4A090AE0022B0BD100F1020807F1D3
:100FF000A00303EB880353F8809CCA464FF0000B14
:1010000043E0032B0BD100F1020807F1A00303EB2F
:1010100088034FF0000B53F880ACD94635E0042B21
:101020000BD100F1020807F1A00303EB88034FF096
:10103000000A53F880BCD14627E0052B0BD100F104
:10104000020807F1A00303EB88034FF0000953F8EF
:1010500080ACD34619E0062B0BD100F1020807F152
:10106000A00303EB88034FF0000A53F8809CCB46A3
:101070000BE0072B09D100F1020807F1A00303EBF5
:10108000880353F8809CCB46CA464FEA09424FEA90
:101090000A2302F47F0203F47F4313435FFA8BF2C7
:1010A0001A4389B207F1080001F082FF01E000F164
:1010B000020808F101001F287FF76AAF07F1080056
:1010C00001F0CCFD07F1080001F066FD114928464A
:1010D00007F0EEFA804678BB0F49204607F0E8FAA1
:1010E000F0B90E4801F0AEF926E000BF4805002037
:1010F00031390300B9390300C53903009D390300B4
:10110000C0390300FA380300C7390300CF390300A0
:10111000D7390300783903006A39030080020020C0
:10112000304606F0EAFB4146C2B25D4801F0CEF916
:1011300021465B4805F0A5F85A49284607F0B8FA59
:10114000824600287ED15849DFF8A0B1304608F029
:1011500017F906F0D2FB54498046504608F010F9C2
:1011600006F0CBFB50498146504608F009F906F0DD
:10117000C4FB8246204606F0C0FB522302B20C217B
:1011800007F1200001F0FEFE4FEA084807F12000B9
:101190004FEA092908F47F0801F00CFD09F47F49A2
:1011A0007B6848EA09095FFA8AF849EA080803F106
:1011B0000B0A03F1FF393D4B19F8012F312A17D0E3
:1011C000322A17D0332A17D0342A17D0352A17D00D
:1011D000362A17D0372A17D0382A17D0392A17D0ED
:1011E000612A17D0622A17D0632A08BF5B4614E031
:1011F0002F4B12E02F4B10E02F4B0EE02F4B0CE04B
:101200002F4B0AE02F4B08E02F4B06E02F4B04E05A
:101210002F4B02E02F4B00E02F4B7B60184606F06F
:101220006CFB424681B207F1200001F0C1FECA45C5
:101230007B68C1D107F1200001F010FD07F120000B
:1012400001F0AAFC2846254907F032FA054610BBF2
:101250002349244802F092FA224801F0F7FF12498C
:10126000304608F08DF806F048FB0F4980462846C6
:1012700008F086F806F041FB1B4D0646A5F8B8803D
:10128000A5F8BA602146184804F0FBFF154801F0A4
:10129000EAFF0028F2D1A437BD46BDE8F08F00BFB9
:1012A00080020020DA39030031390300324603009E
:1012B0000B3903003F390300FC380300FE380300FC
:1012C0000039030002390300043903000639030022
:1012D00093390300083903000A39030099390300E0
:1012E000D8B800009C010020940100203E39030082
:1012F0002DE9F84380460D46174601EB02090C46DE
:101300004C45A4EB050609D0D8F8003014F8011BB1
:101310001B68404698470028F2D100E03E46304620
:10132000BDE8F8837047203005F010B938B5437F29
:101330000D462BB100F16804204605F015F908B1FF
:10134000002038BD2046294605F0E3F8012038BDCD
:10135000203005F0EDB8203005F0FEB82DE9F04161
:101360001E464FF47A73002583600D4B456004469A
:1013700040F8203B8846174605F0C0F804F16800A5
:1013800005F0BCF89DF8183063769DF81C30A37604
:10139000C4F810806761267665772046BDE8F08145
:1013A000F4390300F0B5837E2D4C2E4D54F82320E4
:1013B000437E54F8233012F0200F14BF2F464FF015
:1013C000A04702F01F0213F0200F03F01F0308BF15
:1013D0004FF0A04502F5E07203F5E073012140F201
:1013E0000C66C17647F8226045F8236003694FF028
:1013F000CC72C3F824250622C3F80025827E54F857
:101400002220C3F80825427E54F82220C3F80C2578
:10141000027E53B2D2B202F01F055C09A9406034CB
:10142000114D002B45F8241006DA104B02F00F0284
:10143000134440221A7606E003F1604303F561434A
:10144000402283F80023037E01215AB203F01F03D8
:1014500001FA03F35209044941F82230F0BD00BFFC
:10146000784503000003005000E100E0FCEC00E0E0
:10147000C37EABB103690022C3F80025094A91423B
:1014800007D9094A914294BF4FF080614FF0C8617B
:1014900001E04FF0CC710622C3F82415C3F80025F3
:1014A000704700BFA086010090D003002DE9F843EB
:1014B0000646894698461546B2B100F120073846DF
:1014C00005F032F834690122C4F888952262C4F824
:1014D0003475C4F838552260D4F84C313BB9D4F88F
:1014E0002431002BF8D002E01046BDE8F883002339
:1014F000C4F84C31D4F85C311BB9D4F82431002B3A
:10150000F8D00023C4F85C310122B8F1000F02D1F9
:10151000D4F8243143B16261D4F80431002BFBD0FC
:101520000023C4F8043107E0E261D4F84831002B0D
:10153000FBD00023C4F84831D4F8243113B1002380
:10154000C4F82431D4F83C053066C0B2BDE8F88355
:101550000123FFF7ABBF10B5044680F8B010683028
:1015600004F0E2FF0123637710BD2DE9F041002371
:1015700005694377012790F8B030C5F8883500F148
:10158000680604462F623046C5F84465884604F074
:10159000DDFF2369C5F848059F60D3F850211AB9CB
:1015A000D3F82421002AF8D00022C3F85021304675
:1015B00004F0CCFF236930B1D3F860211AB9D3F815
:1015C0002421002AF8D00022C3F860210122B8F1BA
:1015D000000F02D1D3F8241141B15A61D3F804218C
:1015E000002AFBD00022C3F8042107E0DA61D3F817
:1015F0004821002AFBD00022C3F84821D3F8240157
:1016000070B10022C3F82421D3F8C404C3F8C40481
:10161000022805D0042814BF04200320BDE8F0816F
:10162000BDE8F0810121FFF7A0BF4369D3F8642131
:1016300070B5044682B10022012500F12006C3F8EE
:1016400064210577304604F06FFF63694022C3F8D8
:101650003465C3F838251D636369D3F86821D2B1B6
:101660000025C3F8685104F16806012363772577E4
:10167000304604F059FFD4F8B43003B19847657789
:1016800065693046C5F8446504F060FF6369C5F8D4
:10169000480501225A636369D3F804215AB1002234
:1016A000C3F80421227F32B1D3F83C05D4F8B83016
:1016B000206603B198476369D3F8242142B1002220
:1016C000C3F82421D3F8D024C3F8D02401225A61CE
:1016D00070BD00000148FFF7A8BF00BFA0030020B5
:1016E0000148FFF7A2BF00BFE402002007B51323A3
:1016F00014228DE80C004FF04022114604230848C4
:10170000FFF72CFE074A08481E211F238DE80A0018
:1017100003231146FFF722FE03B05DF804FB00BF70
:10172000A003002000300040E402002000F1190373
:10173000C9B280F8241080F8251080F8261080F8AF
:10174000271080F8281005309842F2D17047000029
:10175000002910B538DB002A36DBB0F90C408C428A
:1017600032DDB0F90E4094422EDD847E022C09D089
:10177000032C10D0012C13D10489013CA41A0A4671
:1017800021B20DE00489013C611A4489013CA21A8E
:1017900009B212B204E04489013C641A114622B233
:1017A00002EB82021144C9B2084A545C084A525CF6
:1017B000013AD2B29100013C0A44E4B21044204400
:1017C00003B1012380F8243010BD00BF2F0000209A
:1017D0001100002010B505220446114600F0C2FA9F
:1017E0002046044B40F8243B1922002106F005F95D
:1017F000204610BDCC3D0300704700002DE9F843A2
:101800001D4C1E4D2378DFF8789006460021E85CD9
:1018100004F0D6FC4FF0000819F80800184F012119
:1018200008F1010804F0CCFCB8F1050FF4D12378DD
:101830000133DBB2042B237082BF0F4B00221A70DE
:101840004FF00008237803EB83033344434493F8B9
:10185000243023B1002117F8080004F0B1FC08F18E
:101860000108B8F1050FEDD123780121E85CBDE84E
:10187000F84304F0A5BC00BF600400200C00002069
:101880002A0000200D4B002201210420C3F804256A
:10189000D960C3F810054FF47A70C3F80825C3F86F
:1018A0004005C3F844254FF48032C3F80423044AAA
:1018B0004FF4806010601960704700BF00A00040C6
:1018C00000E100E070B51B4B1B4C18600546661D1F
:1018D00014F8010F012104F049FC0121207804F0E3
:1018E0006FFCB442F4D1154C661D14F8010F0121B0
:1018F00004F03CFC0021207804F062FCA642F4D104
:101900002B4605F11901002283F8242083F82520B5
:1019100083F8262083F8272083F82820053399426E
:10192000F2D1074B002228461A70FFF7ABFF0120C7
:1019300070BD00BF5C040020290000200B000020C7
:101940006004002010B50B4CD4F8403183B1D4F8BA
:101950000433DB030CD50023C4F84031064B186870
:10196000FFF74CFFD4F8403503F57A73C4F84035DF
:1019700010BD00BF00A000405C040020FFF7E2BFE4
:1019800003680021DB6B184730B585B00D4604466F
:10199000FFF7F6FF0821052201238DE80E002046FF
:1019A0002B4600226FF0020100F04BFA05B030BD6B
:1019B0002DE9F84304460E461349174600F02BFC68
:1019C0000023E37605250123E382A3826FF0040957
:1019D000A846304606F07EFE00B2013809FB00F052
:1019E00085420EDD25822046A4F81280FFF7C8FF4D
:1019F0003146204604F045FC384604F09FFA013D8C
:101A0000E7E7BDE8F88300BFBC3A030070B50446C1
:101A10000D46104900F0FFFB00260123E676E38225
:101A2000A382284606F056FE012806D929462046FC
:101A30009622BDE87040FFF7BBBF2046FFF7A0FF2E
:101A400005232682638229462046BDE8704004F0C3
:101A500018BC00BFBC3A03002DE9F04F85B01F460B
:101A6000BDF93830BDF83CA015469A1A002AB8BF17
:101A7000524200927A1A002AB8BF524201920C4692
:101A8000009A01998A42814605DD3A461F4613466F
:101A900022462C461546BC4205DD2A461D46134605
:101AA00022463C4617465A1B002AC4EB0708B8BF1B
:101AB00052421FFA88F8039202260FFA88F292FB2C
:101AC000F6F64FF6FF729D42B8BF0122B6B20292FF
:101AD000BC421FDC019A009B9342D9F80030C8BF7A
:101AE0002246D3F810B0C8BF29465346DCBF2A4669
:101AF00021464846D847039BF61AB3B29EB2320439
:101B000005D5029A08EB030615442DB2B6B201348E
:101B100024B2DDE705B0BDE8F08F10B40468A46816
:101B2000A4465DF8044B604730B40468BDF8085023
:101B30000295246BA44630BC604730B40468BDF8FD
:101B400008500295646BA44630BC604770B40468CA
:101B5000BDF90C50BDF8106004960395A46BA44623
:101B600070BC604770472DE9F3411C460368BDF81F
:101B70002080DB6805461646013C34440F4624B2FB
:101B800098472B68CDF8048000941C6A28463B4691
:101B900032463946A0472B685B6A284602B0BDE84A
:101BA000F04118472DE9F3411D460368BDF8208038
:101BB000DB68044617460E4698478DE88001226888
:101BC0006B1E3344156A20461BB23A463146A8477D
:101BD00023685B6A204602B0BDE8F04118472DE952
:101BE000F3471E460368BDF92880DB68BDF82C90DA
:101BF0000C460546174698472644B4422A680BDA35
:101C0000CDF80090D2F818A0214643463A4628461F
:101C10000134D04724B2F0E7536A284602B0BDE849
:101C2000F047184713B5B0F90E20046801910092EF
:101C30000022B0F90C30A46B1146A04702B010BDD1
:101C40002DE9F7439942904607460E461C46BDF9DA
:101C50002850BDF82C9002680BD1A845C2BF43465E
:101C6000A8461D466B1CCDF82890C8EB0303146BE7
:101C70000CE0A84513D19942C4BF0B462646CDF8C7
:101C80002890C8BF1C46631C546B9B1B1BB242466A
:101C900031463846A44603B0BDE8F0436047D368F8
:101CA00098473B688DE8200238461D6A4246234625
:101CB0003146A8473B685B6A384603B0BDE8F0434D
:101CC00018472DE9F3471E460368BDF82C80DB68F2
:101CD000BDF9289004460D46174698472368CDF86D
:101CE0000080D3F81CA03A46334629462046D04708
:101CF0002368CDF8008009F1FF323A44D3F81CA0E4
:101D000029463346204612B2D0472368CDF80080DA
:101D1000D3F818A03A464B4629462046D0472368B8
:101D2000CDF80080711E294420469D693A464B46F5
:101D300009B2A84723685B6A204602B0BDE8F047B5
:101D40001847704701F00301012981760389428910
:101D500004D0032902D08381C28170478281C3816C
:101D60007047000030B5018100240A4D4281818115
:101D7000C2814FF6FF7101224460056084760482BF
:101D8000448242760276C1828182C27604770462FE
:101D900030BD00BF2C3E03002DE9F04F89B09A46BC
:101DA000BDF94C300393BDF85030049303680292A0
:101DB000DB680191BDF94890002605469847082345
:101DC00000963446079309F1070292FBF3FB009A51
:101DD000029B03991344BDF9002091429BB229DD77
:101DE0000AEB06021BB24FF00008059206931FFA99
:101DF00088F10BB24B4518DA4A0703BF079A93FBE9
:101E0000F2F3059A64000CBFD45CE4B2230609D552
:101E1000019B069A19442B681B6909B21F46284684
:101E2000049BB84708F10108E1E7009B01330093E8
:101E30005E44CCE72B685B6A284609B0BDE8F04FEA
:101E4000184770B4BDF90C40BDF91050BDF81460CE
:101E500005960495039470BCFFF79EBF2DE9F04FE3
:101E600091B09046026A03911E46BDF86830029315
:101E70000446BDF86C909DF870709DF87450002A6F
:101E800040F0B280B0F90C308B4240F33F81B0F9A2
:101E90000E30434540F33A81062313FB0713002B12
:101EA00040F3348108EBC503002B40F32F81037FFF
:101EB0001BB9AF2E84BF0136F6B223682046DB681B
:101EC000984705230993002306933BB20C939DF991
:101ED00018309049052212FB06324FF0000A8A5C46
:101EE0000592BAB20792BDF80C2004920499079AA1
:101EF00003FB021292B211FA83F308921BB208227A
:101F00000A920B93059BDA0711D5012F4FFA8AF23B
:101F100007D1012D05D123684244D3F810B0029BAC
:101F200013E002992368019102FB058217E0029BEE
:101F30004B451DD0012F4FFA8AF20BD1012D09D14B
:101F400023684244D3F810B04B4612B20B99204696
:101F5000D8470DE02368CDF8049002FB0582009578
:101F6000D3F814B0BDF920100C9B12B22046D8470C
:101F7000059B5B0805930A9B013B0AF1010A13F0DC
:101F8000FF035FFA8AFA0A93BCD1069B0133DBB2E6
:101F90000693099B013B13F0FF03099397D1029B22
:101FA0004B4500F0AC80012F23680CD1012D0AD1E4
:101FB0000499CDF8009005319D694246082309B285
:101FC0002046A8479BE0079ACDF8049002EB8201D7
:101FD000049AED000A44114600955D6942463B466D
:101FE00009B22046A8478AE0137A516812680D9218
:101FF000F61AF6B201EBC60331F8362004929A784D
:102000000792DA780A92012F5A7908929E7901D8BC
:10201000012D07D99DF920309BB2069373B29BB274
:10202000059302E000230593069323682046DB68AE
:1020300098471FFA88F34FF00009099343FA86F393
:10204000CB46CA460F930A9B5FFA89F29A4256D250
:10205000059B09994B4413FB05F30B440F999BB265
:102060008A180C9300265B460E92079A96423FD23E
:102070005A1CD2B25B070B9207D1049B04990D9AAC
:1020800001339BB212F801A004931AF0800F27D0FD
:10209000012F11D1012D0FD19DF82020039B43FA70
:1020A00082F12368BDF93820D3F81080029B3144B7
:1020B00009B22046C04713E0BDF81830029A0192D9
:1020C00006FA83F1039B009511FB07F1194423687D
:1020D000BDF93020D3F8148009B23B462046C047F2
:1020E0004FEA4A0A01365FFA8AFAF6B20B9BBCE75E
:1020F000079B9B445FFA8BFB09F10109A3E7236867
:102100005B6A204611B0BDE8F04F184711B0BDE83A
:10211000F08F00BF743E0300F0B5026A85B004463C
:102120000B46002A2FD10A2905D10282438A427E1A
:1021300003EBC20330E00D296AD0C17E457E007EEC
:1021400069B1B4F91060062111FB0061B4F90C60AB
:10215000B142C1BF2282628A02EBC5026282029052
:10216000E08A0190A08AB4F912200090B4F910100E
:1021700003952046FFF772FE237E228A03EB43037A
:1021800002EB430343E00A2908D100230382417E86
:10219000127B438A01FB0233638239E00D2937D079
:1021A000157AA94234D3917A994231D351685D1B93
:1021B000EDB201EBC505A97821B3E87810B3E77E4D
:1021C000667E207E8FB195F905703944B4F91070A0
:1021D00000FB0171B4F90C70B94206DD00212182C7
:1021E000127B618A06FB021262820290E08A0190F1
:1021F000A08A0090B4F91220B4F91010039620467A
:10220000FFF72CFE2979227E238A01FB02332382E9
:10221000012005B0F0BD036A19B133B9438A063312
:1022200002E013B1438A063B43820162704700001B
:1022300038B50025057329B90B4B0C4A0C482521EC
:1022400005F03AFB01600B4951F82220027151F868
:10225000233083719DF8103051F8233043710223ED
:10226000C371856038BD00BFB143030074430300F0
:10227000BF4303007845030007B5094B09490A48E5
:102280004FF080421A6000229A6002221A710F23D6
:1022900000930E220D23FFF7CBFF03B05DF804FB84
:1022A00064040020003002407004002070B5002556
:1022B000034E45600660017242738373C57370BD3F
:1022C0002444030070B5084C05460E46017A2046AA
:1022D000FFF741F9E97B20463143FFF727F8204615
:1022E000BDE87040FFF79EB9A003002038B50C464A
:1022F00041F004010546FFF7E5FF0120013800BF6A
:1023000000BF00BF00BF00BF00BF00BF00BF00BFD5
:1023100000BF00BF00BF00BF00BF00BF00BF00BFC5
:1023200000BF00BF00BF00BF00BF00BF00BF00BFB5
:1023300000BF00BF00BF00BF00BF00BF00BF00BFA5
:1023400000BF00BF00BF00BF00BF00BF00BF00BF95
:1023500000BF00BF00BF00BF00BF00BF00BF00BF85
:1023600000BF00BF00BF00BF00BF00BF00BF00BF75
:1023700000BFC3D1284604F0FB01FFF7A3FF3220C2
:10238000013800BF00BF00BF00BF00BF00BF00BFDB
:1023900000BF00BF00BF00BF00BF00BF00BF00BF45
:1023A00000BF00BF00BF00BF00BF00BF00BF00BF35
:1023B00000BF00BF00BF00BF00BF00BF00BF00BF25
:1023C00000BF00BF00BF00BF00BF00BF00BF00BF15
:1023D00000BF00BF00BF00BF00BF00BF00BF00BF05
:1023E00000BF00BF00BF00BF00BF00BF00BF00BFF5
:1023F00000BF00BF00BFC3D138BD38B504460D468D
:10240000FFF760FF29462046BDE83840FFF76EBF62
:1024100070B50D4621F00F01144611430646FFF733
:10242000ECFF44EA05113046C9B2BDE87040FFF741
:10243000E4BF08B50122FFF7EBFF012008BD002231
:10244000FFF7E6BF08B50121FFF7F9FF4FF4FA6087
:10245000013800BF00BF00BF00BF00BF00BF00BF0A
:1024600000BF00BF00BF00BF00BF00BF00BF00BF74
:1024700000BF00BF00BF00BF00BF00BF00BF00BF64
:1024800000BF00BF00BF00BF00BF00BF00BF00BF54
:1024900000BF00BF00BF00BF00BF00BF00BF00BF44
:1024A00000BF00BF00BF00BF00BF00BF00BF00BF34
:1024B00000BF00BF00BF00BF00BF00BF00BF00BF24
:1024C00000BF00BF00BFC3D108BD00007FB50E4BE9
:1024D000144605460E460FCB0DF1100E0EE90F0007
:1024E0002B7BA3423CBF03F1FF34E4B204AB03EB0C
:1024F0008404284654F8101C314461F07F01C9B2AD
:10250000FFF79DFF04B070BD2C440300222870B576
:1025100048D8072946D8D41EA4B247F6FC75AC4269
:1025200040D8DC1EAC423DD81F4D204E15F820008F
:10253000002456F82450B5F1FF3F2ED11B4D6FEA11
:10254000434345F824001A4D6FEA534325F81430ED
:10255000184B53F82430C3F86005C3F86405C3F87A
:102560006805C3F86C050120C3F8000505EB4404B9
:10257000C3F80C15C3F80405C3F808250022C3F8F6
:102580001425C3F81025C3F82045C3F82405C3F863
:102590002825C3F82C25986070BD8542CED0013423
:1025A000042CC6D170BD00BF784503004800002050
:1025B000840400203C440300B1F5087F06D3B1F544
:1025C000166F0B4628BF4FF4166301E04FF40873F3
:1025D0001B0940F2E2420721FFF798BF000000000C
:1025E00022282DE9F74306460F4614466CD83C4B8B
:1025F000023A9A4268D8F42C0ED8792C0ED83D2C89
:102600000ED81E2C0ED80F2C0ED8072C0ED8042C4A
:1026100034BF072506250AE0002508E0012506E06D
:10262000022504E0032502E0042500E005252846F4
:1026300004F0D0FB9FED260B41EC110B02F044FAA5
:1026400007EE904AF8EEE77AB7EE007AC7EE276A0F
:1026500053EC102B16EE900ACDE9002304F0DCFBBE
:10266000DDE90023804689461BA1D1E9000104F081
:1026700051FD02460B4600201A4904F04BFD02466C
:102680000B464046494604F045FD04F0DBFE044697
:1026900004F0A0FB0022144B04F012FC80463846E4
:1026A000894604F0A7FB02460B464046494604F023
:1026B00007FC04F0C7FEA2B203462946304603B029
:1026C000BDE8F043FFF722BF03B0BDE8F08300BFD1
:1026D00000000000000000400000000080845E4117
:1026E000A8B028000000F03F0000503F222810B59D
:1026F00034D81B4B1B4C13F82010002254F8223006
:10270000581C26D1174B184843F8221048F2800372
:1027100020F81230154B53F8223000EB4202C3F878
:102720006015C3F86415C3F86815C3F86C1500216B
:10273000C3F80015C3F81415C3F81015C3F8202505
:102740000122C3F82425C3F82825C3F82C159A6064
:1027500010BD9942D6D00132042ACFD110BD00BF9E
:102760007845030048000020840400203C44030016
:1027700000224270026142608260C260024A01210E
:1027800001701060704700BF8C040020014803F006
:1027900087BD00BF4805002007299FBF044B5A563C
:1027A000044B012094BFC3F80C25FE20704700BFE6
:1027B0008B44030000100040532926D8144B0222FA
:1027C000C3F88020134B0022C3F8102101221A61A4
:1027D0001A46D2F810010F4B0028FAD00022C3F895
:1027E0000815C3F8002101225A60D3F80011094AE4
:1027F0000029FAD00023C2F80C310120044B90606C
:102800000222C3F880211A607047FE20704700BF83
:1028100000E100E0001000400369DB0746BF4160B3
:102820000120FF2070470369DB074CBF4068FF2091
:102830007047C26838B50446FAB14378032B1ED8F6
:10284000FFF7F1FF90622C2004F060F92C220021A8
:10285000054605F0D2F8E26800235362A3680BB97D
:10286000A26004E0596A09B10B46FBE75A6263783B
:10287000E56001336370012038BDFE2038BDFD20C6
:1028800038BD000038B5154BD3F8002122B1002225
:10289000C3F8002101229A60D3F80C310F4DDBB14F
:1028A0000021C5F80C11D5F800340D4C012B0DD1C9
:1028B000D5F8481520684942FFF7AEFF2068FFF7BA
:1028C000B8FF2368DB68C5F8043502E02068FFF72D
:1028D000A3FF024B01229A6038BD00BF00100040E8
:1028E0008C040020F8B50369DB0704466BD4C56887
:1028F00045B92C2004F00AF92C220646294605F099
:102900007CF8E660E668002E5FD04FF0804300223E
:10291000C3F8002101221A60D3F80021002AFBD05D
:102920002B4B00220721C3F80C25C3F808152949B1
:10293000C3F81025C3F81C152178C3F82415082501
:1029400001202549C3F82C254FF6FF77C3F8300541
:10295000C3F81455C3F818150221C3F83415C3F889
:102960003C751E4FC3F838751827C3F85475C3F863
:102970000465C3F804531A4DC5F880112960D3F8D3
:10298000001241F01001C3F80012C3F80021586092
:10299000D3F800210E4E002AFAD00023C6F80C31DD
:1029A00023691049104801252B43B560236103F0CA
:1029B00068FCD6F850150C480A2203F0A4FC0B4919
:1029C000094803F077FC0120F8BDFD20F8BD00BFE9
:1029D000001000407469627520000402211001009B
:1029E00000E100E04C44030048050020544403008B
:1029F000024B0170C3F824150120704700100040FD
:102A00000346806810B548B10549426A0224C1F8FE
:102A100080409A605A78013A5A700C6010BD00BF2D
:102A200000E100E010B500294AD00B78232B47D8ED
:102A3000244B0222C3F88020234B0022C3F810212C
:102A400001221A611A46D2F810411F4B002CFAD00D
:102A50000022C3F80415C3F8002101221A60D3F83C
:102A60000011194A0029FAD00023C2F80C310123C1
:102A70009360D2F80C11144B0029FAD0C268C3F845
:102A800004250022C3F8102101221A61D3F8101185
:102A90000D4A0029FAD00023C2F800310123536007
:102AA000D2F80011084B0029FAD000220120C3F807
:102AB0000C219860034B0222C3F880211A6010BDDC
:102AC000FE2010BD00E100E000100040044A137831
:102AD000032B96BF591CFF2311700370704700BF72
:102AE00090040020F8B51D460378032B04460F46DA
:102AF000164616D80121384603F038FB22780A4BD7
:102B000013F8321067F30501002EC9B2B8BF0026D2
:102B100041F04001002DA8BF002503F83210667077
:102B2000A5702078F8BD00BF9404002040F6C413BF
:102B30000022FFF7D7BF00000278034B13F83200E2
:102B400000F03F00FFF738BD9404002013B5B4290E
:102B5000A8BFB42104464FF4166308460093B4227C
:102B60004FF40873002120EAE07003F081FE014673
:102B7000204602B0BDE81040FFF7DEBF10B5144696
:102B80000A464FF40071FFF72BFD2046BDE81040C8
:102B900003F0D4B9FFF7AABD10B50446C06804F02D
:102BA00019FFB4F90600002802DB002103F0DEFA69
:102BB000204610BD10B50446B0F90600002807DB1A
:102BC000012103F0D3FA0021B4F9060003F0F8FA6A
:102BD0000123637010BD70B50546C0680E4604F051
:102BE000F9FEEB7C2C7CA3420CBF0324042414FBD1
:102BF00006F4A4B2AC80204604F0E4FEE86028B1FC
:102C00002246002104F0F9FE6E8070BDA880688025
:102C100070BD70B4C27C047C151B6C42C1F381068C
:102C20006C41FF29C1F38112C1F30115467401F013
:102C300003068CBF002101210170C168C2740574B4
:102C4000867441B1511B4A424A41A24203D0418895
:102C500070BCFFF7C0BF70BC704700002DE9F04F9B
:102C6000C3688BB00546002B00F0648103F04EF979
:102C70006B69984238BF68616B69C01AB0F5967F7E
:102C8000F4D3AF883E01331D0193AC4B0FCB0DF154
:102C9000180E8EE80F0000235EF82340D4F800855C
:102CA000B8F1000F40F08680D4F86025002A80F249
:102CB0008180D4F86425002A7CDAD4F86825002ABB
:102CC00078DAD4F86C25002A74DA019804F07AFED8
:102CD000002873D0414648F2080A8AB2D300BA42AB
:102CE0009BB295F8008025D2EE680132D20016F82A
:102CF00001B092B24FF0800C0BEA0C0EB8F1000F4D
:102D000006D148F21306BEF1000F08BF564607E091
:102D100048F20D0648F20609BEF1000F08BF4E4604
:102D200020F8136001339BB29A424FEA5C0CE3D166
:102D30000131D2E74FF4004220F8132001339BB257
:102D400020F813200023C4F80435C4F80C35B8F17A
:102D5000000F01D1282200E01422C4F80825019AAE
:102D6000B5F90610C4F814355608754AC4F810357C
:102D7000C4F82005C4F82465C4F82835C4F82C35F7
:102D800052F82120C4F860250122C4F80025C4F8B7
:102D90001031A260D4F81031002BFBD00023C4F80E
:102DA0001031C4F800354FF0FF33C4F8603504F03B
:102DB00011FEBCE00133042B7FF46EAFB5F90620A1
:102DC0005F4B604953F822405F4A14F0200F4FF0E8
:102DD000010304F01F0403FA04F42B7808BF4FF03A
:102DE000A042002B14BF12231A23039314BF2923DC
:102DF00046230293CB6843F08073CB60534B196832
:102E000041F00101196015BF5821C3214FF0470857
:102E10004FF09C08059199465968D5F80CA004918B
:102E2000A98856460020CAEB0607BFB28F4232D2AD
:102E3000082716F801BB01974FF0800ED3F804C0A5
:102E4000C0EB0C0CE045F9D8D9F80400D2F808C55D
:102E50001BEA0E0F44EA0C0CC2F808C507D0D3F8E1
:102E600004C0029FC0EB0C0C6745F8D806E0D3F80D
:102E700004C0039FC0EB0C0C6745F8D8D2F80CC512
:102E8000019F44EA0C0C013FC2F80CC54FEA5E0EEC
:102E90000197D3D1C7E75E68361AB045FBD8049EC8
:102EA000D9F80400801B059EC900714388423ED3B7
:102EB0004FF49670013800BF00BF00BF00BF00BFD5
:102EC00000BF00BF00BF00BF00BF00BF00BF00BF0A
:102ED00000BF00BF00BF00BF00BF00BF00BF00BFFA
:102EE00000BF00BF00BF00BF00BF00BF00BF00BFEA
:102EF00000BF00BF00BF00BF00BF00BF00BF00BFDA
:102F000000BF00BF00BF00BF00BF00BF00BF00BFC9
:102F100000BF00BF00BF00BF00BF00BF00BF00BFB9
:102F200000BF00BF00BF00BF00BFC3D174E702F005
:102F3000EDFF68610BB0BDE8F08F00BF9444030063
:102F400078450300F0ED00E000030050001000E0C1
:102F500038B5437804460D4633B1B0F90600002871
:102F600002DB002103F002F96378E5804BB12846CB
:102F7000012103F0FBF828460021BDE8384003F0AA
:102F80001FB938BD70B50E4600210446417001726C
:102F9000C160416119461546FFF73BFE31462046A8
:102FA000FFF719FE20462946FFF7D2FF204670BDE5
:102FB00043888B42F0B52CD9037AC2F30746C2F39B
:102FC0000725D4B20BB9A64608E05E435D435C43D7
:102FD000C6F30726C5F30725C4F3072E077CC47C78
:102FE000A742C76803D101EB410139440AE007EB6E
:102FF0008101120E0C440BB9D3B202E05343C3F368
:1030000007232370037CCE54437CCD54837C01F88A
:1030100003E0F0BD2B2970B5044615460AD82A29CD
:1030200080F0948028290DD0292973D1104602F010
:1030300085FF8BE02D2919D014D3A1F14C03012B6E
:1030400055D967E02B34002514F8010FFF2805D06F
:103050000F2D94BF0121022103F088F80135162DB0
:10306000F2D173E0002A71D0012003E0032A34BFBB
:1030700005200220013800BF00BF00BF00BF00BF15
:1030800000BF00BF00BF00BF00BF00BF00BF00BF48
:1030900000BF00BF00BF00BF00BF00BF00BF00BF38
:1030A00000BF00BF00BF00BF00BF00BF00BF00BF28
:1030B00000BF00BF00BF00BF00BF00BF00BF00BF18
:1030C00000BF00BF00BF00BF00BF00BF00BF00BF08
:1030D00000BF00BF00BF00BF00BF00BF00BF00BFF8
:1030E00000BF00BF00BF00BF00BFC3D12EE001F092
:1030F0003F010C4442B9012194F82C0003F036F84A
:10310000294694F82C0012E0022194F82C0003F0D8
:103110002DF81BE03F291BD901F03F01631893F8FC
:103120002C60FF2E12D00F2904D82946304603F018
:1031300047F80BE0102901D102F022FF304603F0DE
:103140005BF8003018BF012084F82700012070BD13
:10315000002070BD80F8371080F8382080F83930B2
:1031600070470000143910B504460C2928D8DFE850
:1031700001F00C27270717232727272727272100B8
:1031800019461048FEF7B4F814E0A36923B9236880
:103190005A7B0D4B5343A3610A48FEF703F909E03C
:1031A000A1690848FEF764F994F824100548490815
:1031B000FEF7D1F9012010BD0248FEF733FAF9E716
:1031C000002010BDA0030020A08601002DE9F743D8
:1031D000036890F8509090F8517093F8118005466C
:1031E00000262B681B7CD80070434FF6F871014015
:1031F000E86CF4B201443A1901340091D2B20021D2
:103200002846E4B200F061FEA14504D90136BB199D
:10321000DBB29845E5D803B0BDE8F08303681A7CBB
:1032200090F85030C06C12FB03F2D200002104F081
:10323000E4BB10B5836C80F8511004461B689847B6
:10324000A36C20465B68BDE81040184710B590F8A5
:10325000AB3004460BB1FFF7E1FF20460021BDE88B
:103260001040FFF7E6BF38B50446FFF7AFFF94F80C
:10327000503094F851501D4423685B7CEDB2AB4252
:1032800004D8204600F04DFE002038BD94F8AB3045
:1032900013B12046FFF7C2FF20462946FFF7C9FFBA
:1032A000012038BD10B50446FFF7D0FF2046FFF7D8
:1032B000DAFF01460028F9D12046BDE81040FFF7AB
:1032C000B8BF00000123037000487047B404002019
:1032D00030B585B00D46009309491346094A0446A6
:1032E00000F04EFE0DF10F00FFF7ECFF9DF80F20F0
:1032F00000950146044B204600F0BDFB05B030BDF3
:10330000293E0000993C0000D33800004318405C7F
:103310005B7803EB002080B270470020704710B547
:103320000B7803704B7843708B788370CB78C370C5
:103330000B7903714B7943718B798371CB79C371AD
:103340000B7A03724B7A43728B7A8372CB7AC37295
:103350000B7B03734B7B43738B7B8373CB7BC3737D
:103360000C460B7C0374024611212046FFF7CEFF6A
:10337000132150822046FFF7C9FF15219082204675
:10338000FFF7C4FFD08210BD70B5047B05686218DA
:103390002B78D2B2072A43FA04F301D8DBB20BE050
:1033A0006E1C06606D78C4F10804E4B205FA04F4FA
:1033B0002343083ADBB2D2B20273012202FA01F0CF
:1033C0000138184070BD38B5002300F17805044677
:1033D00080F88430816790F890102846FFF7D4FF7A
:1033E00094F8911084F882002846FFF7CDFF94F8F6
:1033F000AA3084F88630B3FA83F35B0984F883003B
:1034000084F8873038BD10B5FFF7BEFF4C1EE4B21C
:103410000123A340C01A40B210BD012B06D003D334
:10342000022B05D1801A04E0104402E0084400E0B9
:10343000401A80B27047012B06D003D3022B05D16E
:10344000401A04E0084402E0801A00E0104480B210
:1034500070472DE9F04F89B090F8806090F881A016
:10346000079204460F4694F8825094F88880B4F886
:103470007C00AD1BEDB2AF423B4628BF2B46049308
:10348000B4F87E3006935FFA8AF303939DF90CB08B
:103490004FFA86F943465A464946FFF7CCFF434662
:1034A00005905A4649460698FFF7B7FF079B024624
:1034B00013B194F8863004E094F8853053B994F849
:1034C000873084F8AA30CDF80080049B0599204607
:1034D00000F06FF9AF4207D37F1B0AF10103FFB27F
:1034E0005FFA83FA0026BEE79DF80C3084F881303D
:1034F0003E4484F8806009B0BDE8F08F2DE9F04FBC
:10350000044685B000F17809FFF75DFF94F892104A
:1035100094F883704846FFF776FF94F8931083463B
:103520004846FFF770FF94F8941080464846FFF72E
:103530006AFF94F982500390002D7DDDB84494F821
:1035400088A0B4F87C00C8F100084FFA88F8534608
:1035500042465946FFF76FFF5346A4F87C000646E3
:103560004246B4F87E005946FFF757FFA4F87E00A4
:10357000BAF1030F2DD8DFE80AF0020812227319FE
:1035800040FA87F59BB2A9B225E07AB2C2F10102F6
:10359000324405440136B3B2A9B296B21BE07AB206
:1035A000C5F10105C2F1010206EB050E411C013611
:1035B0000244B3B289B290B21FFA8EF60BE0C5F1A5
:1035C0000105411C46FA87F305449BB289B2A8B2B3
:1035D00001E001463346009102463146204600F0A4
:1035E00060F948B3002384F8803084F881307FB2DA
:1035F00094F88E104846FFF7C7FE94F88F100646E1
:103600004846FFF7C1FE0546002231462046FFF737
:1036100020FF294620460122FFF71BFF01214846D3
:10362000FFF7B2FE0028EFD194F98130BB42DFDB17
:1036300094F8863084F8AA30039805B0BDE8F08F7E
:1036400038B5036FFF290C4603F1170312D8602920
:1036500002D9B0F8A02003E0402902D9B0F89E209A
:103660001344587818B31A78A24201D1981C38BD77
:103670000344F6E7B0F8A2001A18154600212846C0
:10368000FFF744FE022102442846FFF73FFE844232
:1036900005F10405F2D81078537853EA002006D0DB
:1036A000844201D1D01C38BD93781A44F3E738BD69
:1036B000F8B51F4690F8883004460E461546032B91
:1036C00014D8DFE803F002060A0F436F9847284436
:1036D00006E0436F9847301A07E0436F9847281A6F
:1036E00085B203E0436F9847304486B2A4F87C600B
:1036F000A4F87E5039462046FFF7A2FF20B10146CC
:103700002046FFF7FBFE80B2F8BD036F70B56BB3C8
:1037100090F8A51090F8992090F89A3080F8A6209B
:1037200080F8A73011B3012952B25BB20ED190F8E4
:103730009B104CB2A24290F89C20B8BF80F8A61013
:1037400051B28B4212DD80F8A72070BD90F89840EE
:1037500090F8961065B245FA81F6B242BCBF0919DD
:1037600080F8A610AB42C8BF80F8A74070BD00002B
:10377000014B4367704700BF1B330000026F8A4252
:1037800010B5044608D021678C30FFF7C8FD2046ED
:10379000BDE81040FFF7B9BF10BD70B4B0F8564097
:1037A0009DF80C600396121B446C92B2A44670BC48
:1037B000604770B490F8A4409DF80C50002C5FD086
:1037C000002B5DD0012B0AD9022D03D10131C91A7A
:1037D00089B204E0032D02BF0132D21A92B215F071
:1037E000010523D1B0F86440944249D8B0F866404E
:1037F000944245D90B449BB28B42B0F86060B0F85C
:10380000624005D28C4202D9631E9BB202E031466F
:103810008C4235D99E4233D2B14238BF31469C42A8
:1038200094BFC1EB0404C1EB030422E0B0F8604094
:103830008C4225D8B0F862408C4221D913449BB207
:103840009342B0F86460B0F8664005D2944202D961
:10385000631E9BB202E03246944211D99E420FD2BF
:10386000B24238BF32469C4294BFC2EB0404C2EB62
:103870000304A3B2846C0395A468A44670BC60479B
:1038800070BC70478A4206D2834208D89A4294BFDD
:103890000020012070478342F8D8002070470120A3
:1038A000704770B504460D461E46B0F86610BDF868
:1038B0001030B0F86400FFF7E5FF48B133462A4600
:1038C000B4F86210B4F86000BDE87040FFF7DABFEA
:1038D00070BDF7B590F8AA5002F007060124B44075
:1038E000012DE4B203D8254602D1002400E00025D2
:1038F000C76C0197076897F810E022F0070202FBF7
:103900000EF24FF6F87E02EA0E0E019A714411444F
:103910009DF82020B2B9013B9BB201330B440A78D9
:103920002A43624001F8012B8B42F8D11DE0B0F828
:103930005220114490F8AA20012A12D813D0012451
:10394000254693B10A7801362A436240013B16F0BE
:1039500007060A709BB2EAD06D006400EDB2E4B2D3
:10396000EFE70124EDE71546EBE703B0F0BDF0B556
:1039700090F85070026890F85140BDB2EB00A0F88A
:103980005430137CA6B2DB00A0F85230F300A0F84C
:103990005630517CA0F858303C448C42C4BF891B3F
:1039A0008DB203EBC503A0F85A30938AA0F85C30BF
:1039B000D38AA0F85E30F0BD10B49DF804400194A5
:1039C0005DF8044BFFF7E9BE37B5B0F86E50B0F8BC
:1039D0006A30B0F86C20B0F8681000950446FFF724
:1039E00060FF10B984F8A40022E00123B4F860203D
:1039F00084F8A430B4F868309A4238BFA4F8603034
:103A0000B4F86220B4F86A309A4288BFA4F86230F1
:103A1000B4F86420B4F86C309A4238BFA4F864302B
:103A2000B4F86620B4F86E309A4288BFA4F86630C5
:103A300003B030BD0022A0F86020B0F85C20A0F8F0
:103A40006220B0F85820A0F86420B0F85A20A0F8FE
:103A50006620FFF7B9BFFFF78ABF0022836CA0F88A
:103A60006820A0F86C204FF6FF72A0F86A20A0F83A
:103A70006E205B68184770B5049E436400250123DF
:103A800080F8502080F8515080F8855080F8A95077
:103A900080F8A55080F8AA3080F8AB300446C164A5
:103AA00033680567866498472046FFF7D6FF2046AF
:103AB000FFF75EFE84F8885070BD19B10A2901D065
:103AC00088B270474FF6FF707047002943D00A292B
:103AD00041D090F826306BBBFB2905D9052380F82F
:103AE000263001F0010121E0F72905D9042380F8EF
:103AF000263001F0030119E0EF2905D9032380F8EE
:103B0000263001F0070111E0DF2905D9022380F8F2
:103B1000263001F00F0109E0BF2905D9012380F803
:103B2000263001F01F0101E089B216E001844FF652
:103B3000FE7112E0028C01F03F0141EA8211013B6B
:103B4000DBB289B24FF6FE72018480F82630002B7A
:103B500018BF114601E04FF6FF7108467047002379
:103B600080F82630704710B404691346A4460A460C
:103B70005DF8044B1721604707B502AA02F8011D42
:103B80000121FFF7F0FF03B05DF804FB10B40469F6
:103B90000023A4461A4618215DF8044B604710B470
:103BA00004690023A4461A4619215DF8044B6047B6
:103BB000F8B5044617460E46FFF7E8FF40212046B9
:103BC000FFF7DAFF25693B46324620461721A84712
:103BD0002046BDE8F840FFF7E2BF10B4C4680A46CB
:103BE000A446002315215DF8044B604710B4C46857
:103BF0000A46A446002316215DF8044B604710B422
:103C0000C4681346A4460A465DF8044B1721604772
:103C100010B4C4680023A4461A4618215DF8044B6A
:103C2000604710B4C4680023A4461A4619215DF801
:103C3000044B604773B505460C462178172916D00A
:103C400009D8152926D362788DF80720EE6800235D
:103C50002846B0471CE0192913D9FE291AD16278E9
:103C60008DF807202921284600F064F910E06378D8
:103C70008DF807300DF1070201212846FFF7BFFF3D
:103C800006E00023EE681A4628460134B047D4E720
:103C90000234D2E702B070BD14392DE9F041044678
:103CA00015461E46052952D8DFE801F03403181CDA
:103CB0004248284B1A781E460AB1FFF770FF20468B
:103CC000FFF764FF00212046FFF756FF29462046F4
:103CD000FFF752FF01203070BDE8F0811146FFF779
:103CE0004BFF28E01B4B1A781F460AB1FFF757FF1E
:103CF000182D324607D918212046183DFFF758FFE6
:103D0000EDB21836F4E729462046FFF751FF0023AD
:103D10003B7010E090F824300769FF2B04BF782334
:103D200080F82430BC4633461421BDE8F04160479A
:103D3000084B00221A700120BDE8F081054B1A786B
:103D40001D460AB1FFF72BFF00232B70F3E700207D
:103D5000BDE8F081340500200B39F8B5044615465E
:103D60001F46042955D8DFE801F003540B1A290037
:103D70000AB9294900E029492046FFF75BFF1BE00B
:103D80002AB92749FFF756FF23689B7C04E02549A1
:103D9000FFF750FF2368DB7C84F822300CE0FFF74C
:103DA00037FF81212046FFF718FF29462046FFF7FD
:103DB0001DFF2046FFF735FF0120F8BDFFF728FF64
:103DC00094F822307E7903EBC60606F0FF06402108
:103DD0002046FFF702FF310941F010012046FFF7AE
:103DE000FCFE06F00F012046FFF700FFB9792046E0
:103DF00041F0B001FFF7FAFE39793A68C90001F0E5
:103E0000F8012046013DFFF7FAFE15F0FF05F3D15A
:103E1000CFE70020F8BD00BFB0440300B544030065
:103E2000D44403001045030038B504460D46FFF79F
:103E300093FF78B9092D09D00A2D0CD1204600F046
:103E400014F805492046FFF7F5FE03E00349204634
:103E500000F006F8012038BDDB440300BC44030039
:103E600001608B7C80F82230704738B5002304460F
:103E70001A4645692821A84700231A46E5681421F7
:103E80002046A847204601224B2100F053F8236822
:103E900020461A79292100F04DF8204600224B21B6
:103EA00000F048F8236820461A79292100F042F8EA
:103EB000204601224B2100F03DF8236820465A7924
:103EC0002921BDE8384000F035B813B58DF804302D
:103ED00002AB8DF80620049A8DF8051043F8082DE2
:103EE000846801220F21A04702B010BD10B484687D
:103EF0000023A4461A4609215DF8044B604710B41C
:103F000084680023A4461A460A215DF8044B6047E2
:103F100010B484680A46A44600230B215DF8044BC4
:103F2000604710B484680023A4461A4610215DF847
:103F3000044B604710B444690023A4465DF8044B69
:103F4000604700207047000000230C4A036080F89F
:103F5000233080F826308361FF238260C2600261D3
:103F6000426180F8243080F8283000F12B02413083
:103F700002F8013F8242FBD1704700BF433F00007F
:103F8000F8B5069D044617461E46FFF7DDFFE760BD
:103F9000A160266165612046BDE8F840FFF7A6BF35
:103FA00008B5012300F072FBB0FA80F0400908BDAB
:103FB00013B502AC012304F8012D224600F046FBA4
:103FC000B0FA80F0400902B010BD10B50A460C46A8
:103FD0000721FFF7E5FF20B1237803F004032370E6
:103FE000012010BD37B50D460DF107021F21044613
:103FF000FFF7D6FF68B19DF8072002F03F022A4381
:104000001F2120468DF80720FFF7D2FF003018BF90
:10401000012003B030BD37B50D460DF10702202158
:104020000446FFF7BDFF68B19DF8072022F00102AA
:104030002A43202120468DF80720FFF7B9FF0030E2
:1040400018BF012003B030BD37B50D460DF1070292
:1040500020210446FFF7A4FF68B19DF8072022F055
:1040600002022A43202120468DF80720FFF7A0FFF7
:10407000003018BF012003B030BD37B50D460DF13B
:10408000070220210446FFF78BFF68B19DF8072047
:1040900022F004022A43202120468DF80720FFF752
:1040A00087FF003018BF012003B030BD10B50A46AD
:1040B0000C462021FFF774FF20B1237803F008039A
:1040C0002370012010BD37B50D460DF107022021E8
:1040D0000446FFF765FF68B19DF8072002F00F0264
:1040E0002A43202120468DF80720FFF761FF00308A
:1040F00018BF012003B030BD10B50A460C4623217D
:10410000FFF74EFF20B1237803F00803237001204E
:1041100010BD37B50D460DF1070223210446FFF708
:104120003FFF68B19DF8072022F030022A43232187
:1041300020468DF80720FFF73BFF003018BF012015
:1041400003B030BD10B50A460C462321FFF728FF07
:1041500020B1237803F030032370012010BD37B560
:104160000D460DF1070223210446FFF719FF68B140
:104170009DF8072002F07F022A43232120468DF874
:104180000720FFF715FF003018BF012003B030BD36
:1041900037B50D460DF107022E210446FFF700FF4B
:1041A00068B19DF8072002F03F022A432E212046E5
:1041B0008DF80720FFF7FCFE003018BF012003B088
:1041C00030BD70B506464D1C28246A1E2146304677
:1041D000FFF7E6FE78B1611C2A46C9B23046FFF708
:1041E000DFFE38B10234E4B22E2C05F10205ECD129
:1041F000012000E070BD70BD2DE9F04385B00D4693
:104200000DF106018046FFF777FF08B9002084E032
:104210000DF105014046FFF749FF0028F6D09DF853
:104220000540082C06D19DF80630002BEED126461D
:1042300002270BE0002CE9D19DF8063023B1082BB2
:10424000E4D10426274601E0062601270DF10701E7
:104250004046FFF777FF0028D8D09DF80740202C74
:1042600006D0302C06D0A4F110035C425C4102E081
:10427000022400E0032402A94046FFF7A2FF002821
:10428000C4D0274BBDF9080004EB870403EBC4023C
:1042900053F83470546830414FEAE07900FB04F37E
:1042A00007FB0933A0FB070110F5FA7019444FF41E
:1042B0007A724FF0000341F1000103F033F92860F6
:1042C000BDF90A00304100FB04F34FEAE07907FB37
:1042D0000933A0FB070110F5FA7019444FF47A7204
:1042E0004FF0000341F1000103F01CF96860BDF9D3
:1042F0000C003041C317444307FB0344A0FB0701F4
:1043000010F5FA7021444FF47A724FF0000341F136
:10431000000103F007F9A860012005B0BDE8F083B3
:104320001845030008B5012300F090FAB0FA80F0B8
:10433000400908BD13B502AC012304F8012D224643
:1043400000F064FAB0FA80F0400902B010BD37B551
:104350000D460DF1070260210446FFF7E3FF68B147
:104360009DF8072022F003022A43602120468DF8A1
:104370000720FFF7DFFF003018BF012003B030BD7A
:1043800037B50D460DF1070260210446FFF7CAFF5D
:1043900068B19DF8072022F00C022A4360212046D4
:1043A0008DF80720FFF7C6FF003018BF012003B0CB
:1043B00030BD37B50D460DF1070262210446FFF707
:1043C000B1FF68B19DF8072022F002022A43622162
:1043D00020468DF80720FFF7ADFF003018BF012001
:1043E00003B030BD37B50D460DF10702622104461A
:1043F000FFF798FF68B19DF8072022F010022A43CA
:10440000622120468DF80720FFF794FF003018BF87
:10441000012003B030BD70B506464D1C68246A1EED
:1044200021463046FFF77EFF78B1611C2A46C9B2AB
:104430003046FFF777FF38B10234E4B26E2C05F155
:104440000205ECD1012000E070BD70BD3222027186
:1044500000220160427170471FB50C4601A9FFF7A9
:10446000CBFE38B1019B2360029B6360039BA3607A
:10447000002000E0012004B010BD0000F7EE007A3B
:10448000B4EEE70AF1EE10FA08B525D9F2EE047A97
:10449000B4EEE70AF1EE10FA20D9F3EE097AB4EEA1
:1044A000E70AF1EE10FA1BD9DFED137AB4EEE70A52
:1044B000F1EE10FA16D9DFED117AB4EEE70AF1EE5B
:1044C00010FA11D9DFED0E7AB4EEE70AF1EE10FA28
:1044D00094BF6021702108E0102106E0202104E053
:1044E000302102E0402100E05021FFF7ECFDB0FA5E
:1044F00080F0400908BD00BF000048420000C842EB
:104500000000484310B54379012B044607D090EDD5
:10451000020AFFF7B3FF012802D0012363710020D4
:1045200010BDF0EE007AB4EEE70AF1EE10FA08B52D
:1045300010D9F1EE007AB4EEE70AF1EE10FA0BD9D9
:10454000F2EE007AB4EEE70AF1EE10FA94BF202101
:10455000302102E0002100E01021FFF7DAFDB0FA7F
:1045600080F0400908BD000010B580210446FFF727
:10457000F6FD08B9012010BD00212046FFF708FE16
:104580000028F7D000212046FFF79DFD0028F1D03C
:10459000B0EE000A2046FFF7C4FF0128EAD001214F
:1045A0002046FFF738FD0028E4D002212046FFF71F
:1045B0004BFD0028DED004212046FFF75EFD0028D9
:1045C000D8D00020014B6071A36010BD0000C8422C
:1045D00008B5C021FFF706FDB0FA80F0400908BD1C
:1045E00037B504460D460DF105012046FFF7EDFCF9
:1045F00008B9012026E09DF80530042BF3D10DF118
:1046000006020D212046FFF7CBFC0028F1D001AABD
:104610000C212046FFF7C4FC0028EAD0BDF8062094
:104620009DF80430DFED086A03EB02231BB207EEAE
:10463000903AF8EEE77AB3EE097AA7EEA67A002070
:1046400085ED007A03B030BD0000803BF8B50D4623
:10465000017904464908006816461F46FCF77BFFAF
:104660002068036829461B6898473546AB1B9F4264
:1046700006DD206815F8011B03681B689847F5E7FD
:1046800001212068FCF771FF0020F8BDF8B50F4646
:10469000017904464908006815461E46FCF75BFF91
:1046A0002068036839461B68984700212068FCF79A
:1046B0005CFF21792068F2B24908FCF749FF013D0F
:1046C000206803689B68984730B120680368DB68FE
:1046D000984705F8010FF3E7F8BD3C22016002712D
:1046E000704708B50021FFF732FEB0FA80F04009AC
:1046F00008BD37B500240D4669460094ADF8044066
:10470000FFF789FE50B1BDF800302B80BDF80230B4
:104710006B80BDF80430AB80204600E0012003B080
:1047200030BD13B50C466946FFF7E3FF012826D0DC
:10473000BDF9003007EE103AB8EEC77AF7EE086A16
:1047400027EE267ABDF90230BDEEC77A002084ED4F
:10475000007A07EE103ABDF9043007EE903AB8EE51
:10476000C77AF8EEE77A27EE267A67EEA67ABDEEEC
:10477000C77AFDEEE77A84ED017AC4ED027A02B0E1
:1047800010BD0000F2EE047AB4EEE70AF1EE10FA82
:1047900008B510D9F3EE047AB4EEE70AF1EE10FA98
:1047A0000BD9DFED097AB4EEE70AF1EE10FA94BF07
:1047B00008210C2102E0002100E00421FFF7E0FDC8
:1047C000B0FA80F0400908BD0000484210B502214F
:1047D0000446FFF7BCFD08B9012010BD102120469A
:1047E000FFF700FE0028F7D09FED070A2046FFF7ED
:1047F000C9FF0128F0D000212046FFF7DAFDB0FA0A
:1048000080F0400910BD00BF0000C842F8B50D4659
:10481000017904464908006816461F46FCF79BFECE
:104820002068036829461B6898473546AB1B9F42A2
:1048300006DD206815F8011B03681B689847F5E73B
:1048400001212068FCF791FE0020F8BDF8B50F4665
:10485000017904464908006815461E46FCF77BFEB0
:104860002068036839461B68984700212068FCF7D8
:104870007CFE21792068F2B24908FCF769FE013D0F
:10488000206803689B68984730B120680368DB683C
:10489000984705F8010FF3E7F8BD002242710022A6
:1048A000C260826070472DE9F04700240F46047013
:1048B00044708470C4700471064601213846154660
:1048C00001F054FC2146384601F07AFC284601F0FC
:1048D00035FB3846214601F049FC2820013800BF4D
:1048E00000BF00BF00BF00BF00BF00BF00BF00BFD0
:1048F00000BF00BF00BF00BF00BF00BF00BF00BFC0
:1049000000BF00BF00BF00BF00BF00BF00BF00BFAF
:1049100000BF00BF00BF00BF00BF00BF00BF00BF9F
:1049200000BF00BF00BF00BF00BF00BF00BF00BF8F
:1049300000BF00BF00BF00BF00BF00BF00BF00BF7F
:1049400000BF00BF00BF00BF00BF00BF00BF00BF6F
:1049500000BFC3D14FF4C864384601F04DFC38B9EC
:10496000013CA4B2002CF7D16FF00100BDE8F08744
:104970004FF4C864384601F03FFC012804D1013CE3
:10498000A4B2002CF6D1EFE728244FF000088025D0
:104990004FF4C869384601F02FFC38B909F1FF39E6
:1049A0001FFA89F9B9F1000FF4D1DDE701F0AEFA91
:1049B0004FF4C8698246384601F01EFC012807D131
:1049C00009F1FF391FFA89F9B9F1000FF3D1CBE7EB
:1049D00001F09CFACAEB0000282882BF16F80830C4
:1049E0002B4306F808306D1008BF08F1010804F1E8
:1049F000FF3412BFEDB25FFA88F8802514F0FF048F
:104A0000C6D12046BDE8F08743792DE9F04704463A
:104A100003B172B612222046FFF745FF637903B156
:104A200062B620B1264BA360E360BDE8F0876578ED
:104A300094F800A0284602F0DDF91FA3D3E9002373
:104A400002F03EFA064650460F4602F0D3F90246FF
:104A50000B463046394602F081F802F013FDA67885
:104A6000A06006F07F0002F0C5F9E778804638467E
:104A7000894602F0BFF910A3D3E9002302F020FA1F
:104A80000B4602464946404602F068F802F0FAFC3E
:104A900007EE900A0AEB050035183D4420793306ED
:104AA000EDB248BFF1EE677A401BC4ED037A18BF40
:104AB0004FF0FF30BDE8F0879A9999999999B93FDD
:104AC00000C079C4000000002DE9F0432DED068BF5
:104AD000B0EE40AAF0EE60AAB0EE419AF0EE619A14
:104AE000B54C8BB000F094F994F90030B0EE408AE8
:104AF000F0EE608A013306D0B0EE490AF0EE690AA2
:104B000000F0EEFF40B9B0EE480AF0EE680A0BB0D4
:104B1000BDEC068BBDE8F083B0EE4A0AF0EE6A0AFF
:104B200000F0DEFF054648BB0022002351EC190BC4
:104B300002F02EFC0028E6D0A04A94F90030089537
:104B40009FED9B0B01218DE806005A1C8DED02ABF9
:104B50008DED049B8DED060BD9D0022BD7D0684686
:104B600000F0ECFF002800F09480089B1BB102F0DD
:104B7000D7FE089B03609DED060BC8E700260027C3
:104B800051EC1A0B32463B4602F002FCD8B13246D9
:104B90003B4651EC190B02F0FBFB054600284FD0B9
:104BA000864A94F900300192012100228DED02AB7A
:104BB0008DED049BCDE9066700910892002BCED0C5
:104BC0009FED7B0BA3E7B0EE480AF0EE680A00F019
:104BD0007FFF0546002861D00026002751EC180B06
:104BE00032463B4602F0D4FB00288CD0B0EE4A0A95
:104BF000F0EE6A0A00F06CFF002884D0B0EE490A9B
:104C0000F0EE690A00F064FF00283FF47CAF94F9ED
:104C100000306A4A019204210022022B8DED02AB82
:104C20008DED049BCDE90667009108926BD0684634
:104C300000F084FF002866D0089B002B9BD096E7ED
:104C4000B0EE490AF0EE690A00F042FF00283FF496
:104C50005AAF32463B4651EC190B02F0A3FB002839
:104C60003FF451AF554A2378089501218DED02ABF1
:104C70008DED049B8DE80600002B41D050490020AB
:104C8000022BCDE9060135D102F04AFE2123036053
:104C9000D2E702F045FE2123036066E7B0EE4A0A40
:104CA000F0EE6A0A00F014FF002895D0B0EE490A31
:104CB000F0EE690A00F00CFF00288DD0B0EE480A33
:104CC000F0EE680A00F00CFF10BB3C4B2478089013
:104CD00001228DED02AB8DED049B8DE80C007CB1C3
:104CE00032463B463046394602F014FA022CCDE9F2
:104CF0000601C9D0684600F021FF00289CD1C3E717
:104D0000CDE90667F6E702F00BFE2223036093E786
:104D10002A4A94F90030089503218DED02AB8DED00
:104D2000049B8DE80600BBB9DFF8A0904FF0604807
:104D300032463B4651EC1A0BCDE9068902F032FBB4
:104D4000E0B9684600F0FAFE00287FF40EAF02F0EA
:104D5000E7FD2223036008E7DFF874904FF00008B6
:104D600032463B4651EC1A0BCDE9068902F01AFB9C
:104D700080BB94F90030022BE3D1E8E70022114B0D
:104D800051EC190B02F09CF806460F4647EC106BED
:104D900000F0DEFE304653EC102B394602F0F8FAF4
:104DA0000028E6D1084B4FF06042CDE90623E0E74A
:104DB000000000000000F03F5800002004460300FF
:104DC0000000F0FF0000E03FFFFFEFC7FFFFEF47ED
:104DD0000000F07F00220C4B51EC190B02F070F830
:104DE00006460F4647EC106B00F0B2FE304653EC1F
:104DF000102B394602F0CCFA0028BAD1034B00221E
:104E0000CDE90623B5E700BF0000E03F0000F0FF5A
:104E10002DE9F04F51EC110B21F0004858EA000445
:104E200093B03CD053EC102B6D4E23F00044B442B1
:104E300010EE10AA1D462BDC894611EE10EA26D092
:104E4000B04525DC664EB04577D0002D16461F468E
:104E5000CDE9000175DB4FF0000BBEF1000F2DD145
:104E60005F4B984500F089805E4B98455ED0B9F164
:104E7000804F00F0DE835C4B99451FD1002D1DDB78
:104E800047EC106B13B0BDE8F04F00F049BD5AB1CC
:104E900004F1404404F5801454EA0A0306D19FED5E
:104EA0004A0B13B0BDE8F08FA045CBDD4F4813B0DF
:104EB000BDE8F04F00F044BE4FF0000B47EC106B24
:104EC00000F0FEFD51EC100BBAF1000F1ED0ED0FFB
:104ED00005F1FF3A5BEA0A0363D0454B984540F37E
:104EE0008D8003F10473984540F33884414B9C4214
:104EF00062DDB9F1000F62DD35A3D3E9002310466E
:104F0000194601F0DDFF41EC100BCAE724B1354B27
:104F100025F040429A42DAD1B9F1000FC0F2CB83BA
:104F2000002DC0F2748341EC100BBAE7B9F1000F09
:104F3000C0F27A8447EC106BB3E7BEF1000F84D067
:104F4000A6E72D4B984529DCA3F15473984582DDE3
:104F50004FEA2853A3F2FF33142B40F37F84C3F1AD
:104F600034032EFA03F202FA03F39E457FF473AF83
:104F700002F00102C2F1020B6FE704F1404303F5B6
:104F8000801353EA0A038AD01A4B9C4240F385836C
:104F9000B9F1000F13DB9DED000B82E74FF0020B20
:104FA0005BE732463B461046194601F0D5FD024606
:104FB0000B4602F0AFF8B6E7B9F1000F9CDB9FEDAE
:104FC000060B6EE7AFF30080000000000000F03F2A
:104FD0009C7500883CE4377E000000000000000063
:104FE0000000F07F0000F03F0000E03F08460300B3
:104FF0000000E041FFFFEF3FFFFF3F43B4F5801F9C
:105000004FF0000205DAD64B01F05AFF6FF0340280
:105010000C462315D34EC4F31304A3F2FF331344F9
:1050200044F07F55B4421A460D9345F4401540F3C1
:105030004983CD4B9C4240F32D849FEDB37B8DED96
:10504000087B8DED0E7B9FEDB27B13468DED067BCD
:1050500001330D93A5F580154FF00008DDE9062317
:105060002946CDE90A0101F077FDDDE90623064670
:105070000F46DDE90A0101F071FD02460B460020F2
:10508000BA4902F047F803460C46CDE9103402460F
:105090000B463046394601F013FF6B1043F00053C6
:1050A00003F5002303EB08050A4600230146CDE97A
:1050B00002120293DDE902890024CDE904122B4695
:1050C00022464046494601F0FBFE02460B4630466A
:1050D000394601F041FDDDE9062306460F4620462C
:1050E000294601F039FD02460B46DDE90A0101F0CF
:1050F00033FD42464B4601F0E3FE02460B46304686
:10510000394601F029FDDDE9102301F0D9FEDDE982
:105110000445CDE9060122462B462046294601F0EA
:10512000CFFE7DA3D3E9002304460D4601F0C8FE5F
:105130007BA3D3E9002301F011FD22462B4601F0A9
:10514000BFFE79A3D3E9002301F008FD22462B46D8
:1051500001F0B6FE76A3D3E9002301F0FFFC22465E
:105160002B4601F0ADFE74A3D3E9002301F0F6FC59
:1051700022462B4601F0A4FE71A3D3E9002301F0DF
:10518000EDFC224606460F462B462046294601F0F6
:1051900097FE02460B463046394601F091FE4246E4
:1051A00004460D464B46DDE9040101F0D7FCDDE97C
:1051B000062301F085FE22462B4601F0CFFC424635
:1051C00006460F464B464046494601F079FE00220E
:1051D000674BCDE90A0101F0C1FC32463B4601F0C4
:1051E000BDFC02980D46044622462B4640464946E1
:1051F00001F066FE0022804689465D4B2046294626
:1052000001F0AAFCDDE90A2301F0A6FC02460B46E8
:105210003046394601F0A0FCDDE9042301F050FEE0
:10522000224606460F462B46DDE9060101F048FE00
:1052300002460B463046394601F090FC06460F46C2
:1052400002460B4640464946CDE9048901F086FCFA
:1052500002983DA3D3E9002304460D4601F030FE39
:10526000DDE90423804689462046294601F074FC86
:1052700002460B463046394601F06EFC34A3D3E9B2
:10528000002301F01DFE34A3D3E9002306460F4698
:105290002046294601F014FE02460B4630463946A8
:1052A00001F05CFCDDE90E2301F058FC06460D9888
:1052B0000F4601F09FFD324604460D463B464046F0
:1052C000494601F04BFCDDE9082301F047FC22468A
:1052D0002B4601F043FC029822462B46CDE9020101
:1052E00001F03AFCDDE9082301F036FC42464B466A
:1052F00001F032FC02460B463046394601F02CFCE8
:105300008046894636E000BF000000000000000033
:10531000000000000000F03FEF4E454A287ECA3FE3
:1053200065DBC9934A86CD3F01411DA96074D13F19
:105330004D268F515555D53FFFAB6FDBB66DDB3F2B
:10534000033333333333E33F000000E009C7EE3F5C
:10535000FD033ADC09C7EE3FF5015B14E02F3EBECA
:10536000000040438E98030079B60B000000F03F28
:10537000000008400BF1FF3353EA0A0300F0888174
:105380009FEDD77B8DED067BDDE900AB53465C4698
:10539000CDE9003400230093DDE900455046224664
:1053A0002B46594601F0D8FBDDE9022301F088FDC8
:1053B000524606460F465B464046494601F080FD90
:1053C00002460B463046394601F0C8FB224680466D
:1053D00089462B46DDE90201CDE9048901F070FD23
:1053E0000B46024606460F464046494601F0B6FBCC
:1053F000D54B994204460D468A4640F3238101F17C
:105400003F4303F5E003034340F01882B6A3D3E91A
:105410000023DDE9040101F0A1FB32468046894604
:105420003B462046294601F097FB02460B46404684
:10543000494601F0D5FF002840F00082A8464FEA17
:1054400028534FF48012A3F2FE3342FA03F353447D
:10545000C3F30A52BD4DA2F2FF321541C3F3130B41
:105460000020C2F1140423EA05014BF4801BBAF1B9
:10547000000F02460B464BFA04FB30463946B8BFD4
:10548000CBF1000B01F068FB02460B4606460F46C7
:10549000DDE9040101F062FB4FEA0B5A002494A3FA
:1054A000D3E9002320460D4601F00AFD324680462E
:1054B00089463B462046294601F04EFB02460B46F4
:1054C000DDE9040101F048FB8BA3D3E9002301F0DF
:1054D000F7FC8BA3D3E9002306460F462046294656
:1054E00001F0EEFC02460B463046394601F036FB31
:1054F00006460F4602460B464046494601F02EFB43
:1055000042464B4604460D4601F026FB02460B463A
:105510003046394601F020FB2246804689462B461C
:105520002046294601F0CCFC77A3D3E900230646A8
:105530000F4601F0C5FC76A3D3E9002301F00CFB74
:1055400032463B4601F0BCFC73A3D3E9002301F0D3
:1055500005FB32463B4601F0B3FC71A3D3E90023BF
:1055600001F0FAFA32463B4601F0AAFC6EA3D3E9F9
:10557000002301F0F3FA32463B4601F0A1FC02465B
:105580000B462046294601F0E7FA06460F4602463A
:105590000B462046294601F093FC0022CDE900018C
:1055A0004FF080433046394601F0D6FA02460B46AA
:1055B000DDE9000101F0AEFD424606460F464B46CE
:1055C0002046294601F07CFC42464B4601F0C6FAD3
:1055D00002460B463046394601F0BEFA22462B46BB
:1055E00001F0BAFA02460B460020594901F0B4FA1C
:1055F0008A44BAF5801F02460B46C0F25B815146D1
:10560000DDE9062301F05CFC41EC100B49E404F1F8
:10561000404404F5801454EA0B0300F03781BBF1D9
:10562000010F7FF480AC024601F1004343EC102BE4
:1056300037E432463B463046394601F041FC41EC06
:10564000100B2EE4434B21F00048984540F31581A0
:10565000414B0B4403430CD132463B4601F07CFAEC
:1056600002460B46DDE9040101F0A6FE00283FF4E6
:10567000E6AE2FA3D3E90023DDE9060101F020FC0B
:105680002BA3D3E9002301F01BFC41EC100B08E431
:105690009FED297B8DED067B76E6B9F1000FBFF615
:1056A0008EACDDE9003400EE103A04F1004300EE68
:1056B000903AFFF7F6BB02460B460020244901F062
:1056C00029FD2DE49FED1E7B8DED087B8DED0E7B7E
:1056D0009FED037B4FF000088DED067BBEE400BF1D
:1056E000000000000000F03FFE822B654715973C4C
:1056F00000000000432EE63FEF39FAFE422EE63F5F
:10570000396CA80C615C20BED0A4BE726937663EBD
:10571000F16BD2C541BDBB3E2CDE25AF6A56113FB1
:1057200093BDBE166CC1663F3E5555555555C53F98
:1057300059F3F8C21F6EA501000000000000F0BF81
:105740000000000000000000FFFF8F40FFFF0F007F
:105750000000F03FFFCB904000346F3F6C4B9C4209
:105760007FF72AAC6B4B9C423FF7C3AB0022694BDF
:1057700001F0F2F956A3D3E9002304460D4601F0E7
:105780009FFB55A3D3E9002380468946204629463E
:1057900001F096FB0022CDE902015F4B204629462D
:1057A00001F08EFB02460B464DA1D1E9000101F04C
:1057B000D3F922462B4601F083FB02460B4600201C
:1057C000564901F0C9F922462B4606460F462046A7
:1057D000294601F075FB02460B463046394601F07A
:1057E0006FFB41A3D3E9002301F06AFB02460B469D
:1057F000DDE9020101F0B0F902460B4604460D4610
:105800004046494601F0AAF942464B460020CDE900
:10581000020101F0A1F902460B462046294601F09B
:105820009BF980468946A5E532463B46002039492A
:1058300001F070FC41EC100BFFF733BB2CA3D3E954
:105840000023DDE9060101F03BFB29A3D3E9002396
:1058500001F036FB41EC100BFFF723BBBEF1000F4C
:105860007FF42AABC3F1140348FA03F202FA03F3FC
:10587000984527D0F346FFF7F7BA284B98453FF7EE
:10588000DEADDDE900349A469B4607E602460B464C
:10589000FFF789BB9FED187B8DED087B9FED187B93
:1058A0008DED0E7B9FED187B4FF480288DED067BF0
:1058B000FFF7D4BB584643EC102B00F0DDF951EC58
:1058C000100B9DE602F00102C2F1020BFFF7CCBA09
:1058D000000000604715F73F44DF5DF80BAE543E13
:1058E000555555555555D53FFE822B654715F73F04
:1058F0009C7500883CE4377E0000004003B8E23F1E
:1059000006D0CF43EBFD4C3E000000000000F83F06
:10591000FEFFEF3F0000F03F0000D03F0000E03FFF
:105920002DE9F041654955EC104B0E462940B14236
:1059300000F09780002D2B4610EE102A74DD2F15F5
:105940007FD0A7F2FF37C3F31303F90743F48013A3
:1059500065D403EBD27100260B447F105200B6468B
:1059600016204FF400110EEB01049C424FEAD27551
:105970004FEA420203DC1B1B04EB010E0E4401380C
:1059800005EB43034FEA5101EDD1844620244FF04B
:10599000004109E020D003EBD275013C4FEA5101F0
:1059A0002B444FEA420220D09E4501EB0C05F1DA70
:1059B000002D05EB010C09DBF0469542CEEB03030D
:1059C00000D9013B521B0844C646E4E7BCF1000F76
:1059D000F2DB0EF10108F0E795421ED8002D05EB31
:1059E000010C50DB98460023ECE7134304D0421C23
:1059F0004DD000F00103184440087110F30701F185
:105A00007F5101F5001148BF40F0004001EB075302
:105A1000024643EC102BBDE8F0817346BBE75B0008
:105A200003EBD273520094E725F00041214328D0C4
:105A3000ADBB2F46D30A153F5205002BFAD0DD022D
:105A400028D4002100E001465B00DC0201F10100E6
:105A5000F9D5C0F1200422FA04F423437F1A8240CE
:105A60006FE710EE102A2B4610EE100A294601F0BF
:105A700027FA22462B4601F071F841EC100BBDE8E5
:105A8000F081BDE8F081BCF1000FABDBA1E701368E
:105A90002046B2E720244FF0FF310020DBE710EE74
:105AA000102A2B462046294601F056F802460B469E
:105AB00001F030FB41EC100BBDE8F0810000F07FFD
:105AC00053EC102B23F0004343EC102B704700BF26
:105AD00010EE903A43F0004000F58010C00F704780
