:100000000C9458000C9480000C9480000C94800098
:100010000C9480000C9480000C9480000C94800060
:100020000C9480000C9480000C9480000C94800050
:100030000C9480000C9480000C9480000C94800040
:100040000C94E9020C9480000C94B7020C94910279
:100050000C9480000C9480000C9480000C94800020
:100060000C9480000C948000000000002300260007
:10007000290004040404040404040202020202022B
:10008000030303030303010204081020408001025C
:1000900004081020010204081020000000080002DB
:1000A0000100000304070000000000000000E90454
:1000B00011241FBECFEFD8E0DEBFCDBF11E0A0E01E
:1000C000B1E0E2E9FAE002C005900D92AA34B1076E
:1000D000D9F722E0AAE4B1E001C01D92A530B20731
:1000E000E1F710E0C8E5D0E004C02197FE010E94CE
:1000F0003805C735D107C9F70E9433030C9447056B
:100100000C940000AF92BF92CF92DF92EF92FF92D9
:100110000F931F93CF93DF936C017B018B01040F2F
:10012000151FEB015E01AE18BF08C017D10759F0CB
:100130006991D601ED91FC910190F081E02DC6010D
:100140000995892B79F7C501DF91CF911F910F9107
:10015000FF90EF90DF90CF90BF90AF900895FC019B
:10016000538D448D252F30E0842F90E0821B930B1C
:10017000541710F0CF96089501970895FC01918DC2
:10018000828D981761F0A28DAE0FBF2FB11D5D96C5
:100190008C91928D9F5F9F73928F90E008958FEF67
:1001A0009FEF0895FC01918D828D981731F0828D1B
:1001B000E80FF11D858D90E008958FEF9FEF089572
:1001C000FC01918D228D892F90E0805C9F4F821BD6
:1001D00091098F739927089588E691E00E94E000C5
:1001E00021E0892B09F420E0822F089580E090E03F
:1001F000892B29F00E94EC0081110C9400000895D5
:10020000FC01A48DA80FB92FB11DA35ABF4F2C918B
:10021000848D90E001968F739927848FA689B78982
:100220002C93A089B1898C91837080648C93938D79
:10023000848D981306C00288F389E02D80818F7D1C
:1002400080830895EF92FF920F931F93CF93DF93D4
:10025000EC0181E0888F9B8D8C8D98131AC0E88902
:10026000F989808185FF15C09FB7F894EE89FF89D1
:100270006083E889F98980818370806480839FBF6F
:1002800081E090E0DF91CF911F910F91FF90EF906F
:100290000895F62E0B8D10E00F5F1F4F0F7311277F
:1002A000E02E8C8D8E110CC00FB607FCFACFE889BA
:1002B000F989808185FFF5CFCE010E940001F1CF41
:1002C000EB8DEC0FFD2FF11DE35AFF4FF0829FB72E
:1002D000F8940B8FEA89FB8980818062CFCFCF931E
:1002E000DF93EC01888D8823B9F0AA89BB89E8895E
:1002F000F9898C9185FD03C0808186FD0DC00FB604
:1003000007FCF7CF8C9185FFF2CF808185FFEDCF81
:10031000CE010E940001E9CFDF91CF910895806462
:1003200080937C0080917A00806480937A00809131
:100330007A0086FDFCCF8091780090917900089535
:100340003FB7F89480914F0190915001A0915101D5
:10035000B091520126B5A89B05C02F3F19F0019618
:10036000A11DB11D3FBFBA2FA92F982F8827BC010F
:10037000CD01620F711D811D911D42E0660F771F37
:10038000881F991F4A95D1F708958F929F92AF9237
:10039000BF92CF92DF92EF92FF924B015C010E94DD
:1003A000A0016B017C010E94A0016C197D098E09DE
:1003B0009F09683E734081059105A8F321E0821AE8
:1003C0009108A108B10888EEC80E83E0D81EE11C90
:1003D000F11C81149104A104B10429F7FF90EF905E
:1003E000DF90CF90BF90AF909F908F900895FC01C9
:1003F00001900020E9F73197AF01481B590BBC0170
:1004000088E691E00C948200CF93DF9383E191E042
:100410000E94F701EC0186E191E00E94F7018C0F48
:100420009D1FDF91CF9108958F929F92AF92BF92BF
:10043000CF92DF92EF92FF920F931F93CF93DF93B0
:10044000CDB7DEB7A1970FB6F894DEBF0FBECDBF14
:100450006C01990FEE08FF08F7FE41C06DE288E6D7
:1004600091E00E9422018C0122273327A9012C1937
:100470003D094E095F0919A2CE0181967C019AE0DF
:10048000892E912CA12CB12CCA01B901A50194018E
:100490000E941605605DF70162937F012115310509
:1004A0004105510589F790E080E0309719F0CF01C0
:1004B0000E94F701800F911FA1960FB6F894DEBF3E
:1004C0000FBECDBFDF91CF911F910F91FF90EF90A5
:1004D000DF90CF90BF90AF909F908F900895A7012D
:1004E000960119A28E010F5D1F4F8AE0C82ED12CF4
:1004F000E12CF12CCA01B901A70196010E94160551
:10050000605DF80162938F012115310541055105A8
:1005100089F790E080E0309779F2CF010E94F701EF
:10052000CBCF1F920F920FB60F9211242F933F93B0
:100530004F935F936F937F938F939F93AF93BF93EB
:10054000EF93FF9388E691E00E940001FF91EF9105
:10055000BF91AF919F918F917F916F915F914F91DB
:100560003F912F910F900FBE0F901F9018951F92E3
:100570000F920FB60F9211242F938F939F93EF93A7
:10058000FF93E0917801F09179018081E0917E0103
:10059000F0917F0182FD1BC09081809181018F5F6E
:1005A0008F7320918201821741F0E0918101F0E088
:1005B000E859FE4F958F80938101FF91EF919F91B4
:1005C0008F912F910F900FBE0F901F9018958081E3
:1005D000F4CF1F920F920FB60F9211242F933F93D7
:1005E0008F939F93AF93BF9380914B0190914C0158
:1005F000A0914D01B0914E0130914A0123E0230FAB
:100600002D3758F50196A11DB11D20934A01809305
:100610004B0190934C01A0934D01B0934E018091FA
:100620004F0190915001A0915101B091520101965A
:10063000A11DB11D80934F0190935001A0935101D2
:10064000B0935201BF91AF919F918F913F912F91A4
:100650000F900FBE0F901F90189526E8230F02965B
:10066000A11DB11DD2CF789484B5826084BD84B5BC
:10067000816084BD85B5826085BD85B5816085BD9D
:1006800080916E00816080936E0010928100809155
:1006900081008260809381008091810081608093DD
:1006A0008100809180008160809380008091B10002
:1006B00084608093B1008091B00081608093B0002D
:1006C00080917A00846080937A0080917A008260C1
:1006D00080937A0080917A00816080937A00809183
:1006E0007A00806880937A001092C100E0917801CE
:1006F000F091790182E08083E0917401F0917501BD
:100700001082E0917601F091770180E18083109270
:100710008001E0917C01F0917D0186E08083E09191
:100720007A01F0917B01808180618083E0917A0180
:10073000F0917B01808188608083E0917A01F09163
:100740007B01808180688083E0917A01F0917B0158
:1007500080818F7D808352985A9A80916900816050
:1007600080936900E89AC3E5D1E025E1722E0CE997
:1007700010E038E8E32E30E0F32E44E7C42E40E0EA
:10078000D42E90E0A92E90E0B92E80910001811125
:100790001092000188E691E00E94E000892B09F4A4
:1007A000E8C065E070E080E090E00E94C501FE01D5
:1007B000872D11928A95E9F7612C88E691E00E94D5
:1007C000E000862C912C892B79F088E691E00E943C
:1007D000BE00803294F393E1961578F3F401ED5A5C
:1007E000FE4F80836394E9CFF401ED5AFE4F1082EF
:1007F00069E171E083E591E00E943E05892B59F49F
:100800008BE191E00E94F70180E00E948F010E943D
:1008100014020E9404026FE171E083E591E00E94FE
:100820003E05892B59F481E291E00E94F70181E0B5
:100830000E948F010E9414020E94040265E271E08E
:1008400083E591E00E943E05892B59F487E291E00F
:100850000E94F70182E00E948F010E9414020E9410
:1008600004026BE271E083E591E00E943E05892B72
:1008700059F48DE291E00E94F70183E00E948F011C
:100880000E9414020E94040261E371E083E591E09A
:100890000E943E05892B59F483E391E00E94F70101
:1008A00084E00E948F010E9414020E94040267E308
:1008B00071E083E591E00E943E05892B59F489E3BC
:1008C00091E00E94F70185E00E948F010E941402CE
:1008D0000E9404026DE371E083E591E00E943E0511
:1008E000892B59F48FE391E00E94F70186E00E9482
:1008F0008F010E9414020E94040263E471E083E508
:1009000091E00E943E054C01892B69F585E491E058
:100910000E94F701F8018491F7019491F601249166
:100920002223E1F0882351F0833009F43BC080F5A5
:10093000813009F43DC0823009F43EC0E22FF0E07E
:10094000EE0FFF1FE859FF4FA591B4918C919823AA
:1009500021E080E009F420E0822E982EC4010E945C
:1009600014020E94040262E070E080E090E00E94C5
:10097000C50181E080930001A114B10409F405CF01
:100980000E94EC00882309F400CF0E940000F9CEF9
:100990008730A9F08830C9F0843081F680918000DA
:1009A0008F7D03C0809180008F7780938000C6CFB9
:1009B00084B58F7784BDC2CF84B58F7DFBCF809106
:1009C000B0008F778093B000B9CF8091B0008F7D59
:1009D000F9CFE8E6F1E01382128288EE93E0A0E01E
:1009E000B0E084839583A683B78385E091E091830B
:1009F000808385EC90E09587848784EC90E09787EE
:100A0000868780EC90E0918B808B81EC90E0938BDB
:100A1000828B82EC90E0958B848B86EC90E0978BB8
:100A2000868B118E128E138E148E0895A1E21A2ECB
:100A3000AA1BBB1BFD010DC0AA1FBB1FEE1FFF1F82
:100A4000A217B307E407F50720F0A21BB30BE40BD2
:100A5000F50B661F771F881F991F1A9469F7609519
:100A60007095809590959B01AC01BD01CF010895D3
:100A7000EE0FFF1F0590F491E02D0994FB01DC01BE
:100A80008D91019080190110D9F3990B0895F89474
:020A9000FFCF96
:100A9200010000000022018200AF006F01E000BEF1
:100AA20000D2003A70000D0A00300041303A0031A5
:100AB2000041313A00320041323A00330041333AC8
:100AC20000340041343A00350041353A00360041E5
:0A0AD200363A00370044373A0000BE
:00000001FF
