:100000000C9458000C9480000C9480000C94800098
:100010000C9480000C9480000C9480000C94800060
:100020000C9480000C9480000C9480000C94800050
:100030000C9480000C9480000C9480000C94800040
:100040000C9440030C9480000C940E030C94E80272
:100050000C9480000C9480000C9480000C94800020
:100060000C9480000C948000000000002300260007
:10007000290004040404040404040202020202022B
:10008000030303030303010204081020408001025C
:1000900004081020010204081020000000080002DB
:1000A00001000003040700000000000000000F052D
:1000B00011241FBECFEFD8E0DEBFCDBF11E0A0E01E
:1000C000B1E0EEEDFAE002C005900D92A834B10760
:1000D000D9F721E0A8E4B1E001C01D92AB3FB2071F
:1000E000E1F710E0C8E5D0E004C02197FE010E94CE
:1000F0005E05C735D107C9F70E948A030C946D05C8
:100100000C940000AF92BF92CF92DF92EF92FF92D9
:100110000F931F93CF93DF936C017B018B01040F2F
:10012000151FEB015E01AE18BF08C017D10759F0CB
:100130006991D601ED91FC910190F081E02DC6010D
:100140000995892B79F7C501DF91CF911F910F9107
:10015000FF90EF90DF90CF90BF90AF900895FC019B
:10016000538D448D252F30E0842F90E0821B930B1C
:10017000541710F0CF96089501970895FC01918DC2
:10018000828D981761F0A28DAE0FBF2FB11D5D96C5
:100190008C91928D9F5F9F73928F90E008958FEF67
:1001A0009FEF0895FC01918D828D981731F0828D1B
:1001B000E80FF11D858D90E008958FEF9FEF089572
:1001C000FC01918D228D892F90E0805C9F4F821BD6
:1001D00091098F73992708958EE591E00E94E000C0
:1001E00021E0892B09F420E0822F0895FC01A48DE1
:1001F000A80FB92FB11DA35ABF4F2C91848D90E049
:1002000001968F739927848FA689B7892C93A0892B
:10021000B1898C91837080648C93938D848D9813B5
:1002200006C00288F389E02D80818F7D8083089548
:10023000EF92FF920F931F93CF93DF93EC0181E036
:10024000888F9B8D8C8D98131AC0E889F9898081DD
:1002500085FF15C09FB7F894EE89FF896083E88910
:10026000F98980818370806480839FBF81E090E002
:10027000DF91CF911F910F91FF90EF900895F62E8F
:100280000B8D10E00F5F1F4F0F731127E02E8C8D29
:100290008E110CC00FB607FCFACFE889F98980816E
:1002A00085FFF5CFCE010E94F600F1CFEB8DEC0F6C
:1002B000FD2FF11DE35AFF4FF0829FB7F8940B8F8B
:1002C000EA89FB8980818062CFCFCF93DF93EC01F5
:1002D000888D8823B9F0AA89BB89E889F9898C912E
:1002E00085FD03C0808186FD0DC00FB607FCF7CFEA
:1002F0008C9185FFF2CF808185FFEDCFCE010E94EA
:10030000F600E9CFDF91CF9108958E3008F08E503E
:100310008770806480937C0080917A0080648093F1
:100320007A0080917A0086FDFCCF809178009091D0
:10033000790008953FB7F89480914D0190914E0156
:10034000A0914F01B091500126B5A89B05C02F3F49
:1003500019F00196A11DB11D3FBFBA2FA92F982FEB
:100360008827BC01CD01620F711D811D911D42E0E6
:10037000660F771F881F991F4A95D1F70895CF926E
:10038000DF92EF92FF920F931F93CF93DF938FB77C
:10039000F894C0904901D0904A01E0904B01F09050
:1003A0004C018FBF00ED17E0D0E0C0E08AE0C80E3E
:1003B000D11CE11CF11C2FB7F89480914901909158
:1003C0004A01A0914B01B0914C012FBF8C159D05A6
:1003D000AE05BF0590F4809151010E948501382F30
:1003E000292F8017910730F0C817D90708F4EC01BE
:1003F000302F212F032F122FDECFCE01800F911F20
:1004000097FD019695958795DF91CF911F910F915B
:10041000FF90EF90DF90CF900895FC0101900020B5
:10042000E9F73197AF01481B590BBC018EE591E00C
:100430000C948200CF93DF9382E191E00E940D0241
:10044000EC0185E191E00E940D028C0F9D1FDF9170
:10045000CF9108958F929F92AF92BF92CF92DF92E9
:10046000EF92FF920F931F93CF93DF93CDB7DEB739
:10047000A1970FB6F894DEBF0FBECDBF6C01990FE8
:10048000EE08FF08F7FE41C06DE28EE591E00E94A4
:1004900018018C0122273327A9012C193D094E0987
:1004A0005F0919A2CE0181967C019AE0892E912CD8
:1004B000A12CB12CCA01B901A50194010E943C05EF
:1004C000605DF70162937F012115310541055105FA
:1004D00089F790E080E0309719F0CF010E940D027B
:1004E000800F911FA1960FB6F894DEBF0FBECDBF4F
:1004F000DF91CF911F910F91FF90EF90DF90CF9000
:10050000BF90AF909F908F900895A701960119A278
:100510008E010F5D1F4F8AE0C82ED12CE12CF12CEB
:10052000CA01B901A70196010E943C05605DF8016E
:1005300062938F01211531054105510589F790E03E
:1005400080E0309779F2CF010E940D02CBCFCF929D
:10055000DF92EF92FF921F93CF93DF930E949A0155
:100560006B017C010E949A016C197D098E099F091B
:10057000683E734081059105A8F3E3E5F1E08AE068
:10058000DF011D928A95E9F710E08EE591E00E9467
:10059000E000C12FD0E0CD5ADE4F892B39F08EE537
:1005A00091E00E94BE0088831F5FEFCF188281E038
:1005B00080935D01DF91CF911F91FF90EF90DF90CD
:1005C000CF9008950E94EC0081110C94A702089529
:1005D0001F920F920FB60F9211242F933F934F93B8
:1005E0005F936F937F938F939F93AF93BF93EF939B
:1005F000FF938EE591E00E94F600FF91EF91BF918D
:10060000AF919F918F917F916F915F914F913F91AA
:100610002F910F900FBE0F901F9018951F920F9261
:100620000FB60F9211242F938F939F93EF93FF9305
:10063000E0916E01F0916F018081E0917401F09181
:10064000750182FD1BC09081809177018F5F8F7350
:1006500020917801821741F0E0917701F0E0E25AB1
:10066000FE4F958F80937701FF91EF919F918F912E
:100670002F910F900FBE0F901F9018958081F4CF8F
:100680001F920F920FB60F9211242F933F938F93C7
:100690009F93AF93BF938091490190914A01A0919C
:1006A0004B01B0914C013091480123E0230F2D37CD
:1006B00058F50196A11DB11D209348018093490171
:1006C00090934A01A0934B01B0934C0180914D014E
:1006D00090914E01A0914F01B09150010196A11D42
:1006E000B11D80934D0190934E01A0934F01B093A3
:1006F0005001BF91AF919F918F913F912F910F909A
:100700000FBE0F901F90189526E8230F0296A11D8B
:10071000B11DD2CF789484B5826084BD84B58160E8
:1007200084BD85B5826085BD85B5816085BD8091BC
:100730006E00816080936E00109281008091810034
:10074000826080938100809181008160809381002C
:10075000809180008160809380008091B1008460EE
:100760008093B1008091B00081608093B00080914F
:100770007A00846080937A0080917A00826080930E
:100780007A0080917A00816080937A0080917A006B
:10079000806880937A001092C100E0916E01F09120
:1007A0006F0182E08083E0916A01F0916B01108219
:1007B000E0916C01F0916D0180E1808310927601EF
:1007C000E0917201F091730186E08083E091700105
:1007D000F0917101808180618083E0917001F091DE
:1007E0007101808188608083E0917001F0917101D6
:1007F000808180688083E0917001F0917101808137
:100800008F7D808352985A9A80916900816080938D
:100810006900E89A9CE9692E90E0792E28E8822EFA
:1008200020E0922EC4E7D0E00FEF13E036E0E32E95
:10083000F12C43E0C42ED12C80915D01882309F472
:10084000C2C010925D0168E171E083E591E00E9411
:100850006405892B59F48AE191E00E940D0280E041
:100860000E9485010E942A020E941A026EE171E034
:1008700083E591E00E946405892B59F480E291E0C0
:100880000E940D0281E00E9485010E942A020E94BE
:100890001A0264E271E083E591E00E946405892B0D
:1008A00059F486E291E00E940D0282E00E948501E7
:1008B0000E942A020E941A026AE271E083E591E036
:1008C0000E946405892B81F4D0925201C09251019B
:1008D0000E94BF015C018CE291E00E940D02C50103
:1008E0000E942A020E941A0260E371E083E591E00F
:1008F0000E946405892B59F482E391E00E940D0265
:1009000084E00E9485010E942A020E941A0266E386
:1009100071E083E591E00E946405892B59F488E336
:1009200091E00E940D0285E00E9485010E942A024A
:100930000E941A026CE371E083E591E00E94640575
:10094000892B91F4F0925201E09251010E94BF0173
:100950005C018EE391E00E940D02C8018A199B0997
:100960000E942A020E941A0262E471E083E591E08B
:100970000E946405892B39F584E491E00E940D0200
:10098000F3018491F4019491FE012491222309F44E
:1009900043C0882339F0833041F1E8F4813059F1C4
:1009A000823069F1E22FF0E0EE0FFF1FE859FF4FB0
:1009B000A591B4918C91982379F190E080E00E9408
:1009C0002A020E941A020E94EC00882309F434CF04
:1009D0000E94A70231CF8730A9F08830C9F0843057
:1009E00009F7809180008F7D03C0809180008F7710
:1009F00080938000D7CF84B58F7784BDD3CF84B563
:100A00008F7DFBCF8091B0008F778093B000CACFED
:100A10008091B0008F7DF9CF81E090E0D0CFEEE5FE
:100A2000F1E01382128288EE93E0A0E0B0E08483CC
:100A30009583A683B78384E091E09183808385ECDE
:100A400090E09587848784EC90E09787868780EC98
:100A500090E0918B808B81EC90E0938B828B82EC89
:100A600090E0958B848B86EC90E0978B868B118E33
:100A7000128E138E148E0895A1E21A2EAA1BBB1B90
:100A8000FD010DC0AA1FBB1FEE1FFF1FA217B3075A
:100A9000E407F50720F0A21BB30BE40BF50B661F70
:100AA000771F881F991F1A9469F760957095809534
:100AB00090959B01AC01BD01CF010895EE0FFF1F82
:100AC0000590F491E02D0994FB01DC018D910190DA
:0E0AD00080190110D9F3990B0895F894FFCF07
:100ADE000000000018018200AF006501E000BE00BA
:100AEE00D2003A70000D0A00300041303A00310059
:100AFE0041313A00320041323A00330041333A007C
:100B0E00340041343A00350041353A003600413662
:080B1E003A00370044373A00A9
:00000001FF
