:100000000C9463000C948B000C948B000C948B006C
:100010000C948B000C948B000C948B000C94990620
:100020000C948B000C948B000C948B000C94B208F5
:100030000C948B000C948B000C948B000C948B0014
:100040000C944D070C948B000C941B070C94F50634
:100050000C948B000C948B000C948B000C948B00F4
:100060000C9497070C948B000000000024002700DC
:100070002A000000000023002600290002000000E2
:100080000800020100000304070000000000000057
:100090000001020408102040800102040810200121
:1000A000020408102000000000250028002B000496
:1000B000040404040404040202020202020303030F
:1000C00003030300B30911241FBECFEFD8E0DEBF46
:1000D000CDBF11E0A0E0B1E0E2EDFDE202C005908D
:1000E0000D92AC3AB107D9F723E0ACEAB1E001C018
:1000F0001D92A534B207E1F710E0C3E6D0E004C0DA
:100100002197FE010E94B315C236D107C9F70E949C
:10011000220A0C94E7160C940000AF92BF92CF9283
:10012000DF92EF92FF920F931F93CF93DF936C01B7
:100130007B018B01040F151FEB015E01AE18BF0898
:10014000C017D10759F06991D601ED91FC9101904A
:10015000F081E02DC6010995892B79F7C501DF9162
:10016000CF911F910F91FF90EF90DF90CF90BF90B4
:10017000AF900895FC01538D448D252F30E0842FDE
:1001800090E0821B930B541710F0CF9608950197BF
:100190000895FC01918D828D981761F0A28DAE0FAC
:1001A000BF2FB11D5D968C91928D9F5F9F73928F33
:1001B00090E008958FEF9FEF0895FC01918D828D5F
:1001C000981731F0828DE80FF11D858D90E008952C
:1001D0008FEF9FEF0895FC01918D228D892F90E084
:1001E000805C9F4F821B91098F73992708958CE63D
:1001F00092E00E94EB0021E0892B09F420E0822F9D
:10020000089580E090E0892B29F00E94F700811189
:100210000C9400000895FC01A48DA80FB92FB11D06
:10022000A35ABF4F2C91848D90E001968F7399272C
:10023000848FA689B7892C93A089B1898C9183700A
:1002400080648C93938D848D981306C00288F38903
:10025000E02D80818F7D80830895EF92FF920F9330
:100260001F93CF93DF93EC0181E0888F9B8D8C8D62
:1002700098131AC0E889F989808185FF15C09FB756
:10028000F894EE89FF896083E889F9898081837019
:10029000806480839FBF81E090E0DF91CF911F91C8
:1002A0000F91FF90EF900895F62E0B8D10E00F5FE9
:1002B0001F4F0F731127E02E8C8D8E110CC00FB6BF
:1002C00007FCFACFE889F989808185FFF5CFCE0157
:1002D0000E940B01F1CFEB8DEC0FFD2FF11DE35AC6
:1002E000FF4FF0829FB7F8940B8FEA89FB898081DA
:1002F0008062CFCFCF93DF93EC01888D8823B9F054
:10030000AA89BB89E889F9898C9185FD03C0808120
:1003100086FD0DC00FB607FCF7CF8C9185FFF2CF9D
:10032000808185FFEDCFCE010E940B01E9CFDF91E7
:10033000CF910895833081F028F4813099F0823094
:10034000A9F008958730A9F08830C9F08430B1F45D
:10035000809180008F7D03C0809180008F77809393
:100360008000089584B58F7784BD089584B58F7D0E
:10037000FBCF8091B0008F778093B000089580917B
:10038000B0008F7DF9CFCF93DF93282F30E0F901B4
:10039000E358FF4F8491F901EF56FF4FD491F901D3
:1003A000E155FF4FC491CC23A1F081110E949A0125
:1003B000EC2FF0E0EE0FFF1FEE58FF4FA591B49128
:1003C000EC91ED2381E090E009F480E0DF91CF91A2
:1003D000089580E090E0FACF1F93CF93DF93282F0A
:1003E00030E0F901E358FF4F8491F901EF56FF4FD8
:1003F000D491F901E155FF4FC491CC23A9F0162FF8
:1004000081110E949A01EC2FF0E0EE0FFF1FEB55D7
:10041000FF4FA591B4918FB7F894EC91111108C0DA
:10042000D095DE23DC938FBFDF91CF911F9108958C
:10043000DE2BF8CF9091000189130BC0ECE7F0E0C0
:10044000E4919FEF90930001E13049F028F0E23011
:1004500061F060E00C94EC0110926E00FACF909184
:100460006F009D7F90936F00F4CF909170009D7FFF
:100470009093700091E09093B0009091B100987FBC
:1004800094609093B1001092B300E3CFCF93DF93C9
:1004900090E0FC01EF56FF4F249181559F4FFC01E6
:1004A00084918823D1F090E0880F991FFC01E859CE
:1004B000FF4FA591B491FC01EB55FF4FC591D4912D
:1004C00061110EC09FB7F8948C91E22FE0958E23B6
:1004D0008C932881E223E8839FBFDF91CF91089519
:1004E0008FB7F894EC91E22BEC938FBFF6CF3FB728
:1004F000F8948091230290912402A0912502B0915A
:10050000260226B5A89B05C02F3F19F00196A11D14
:10051000B11D3FBFBA2FA92F982F8827BC01CD014D
:10052000620F711D811D911D42E0660F771F881FAC
:10053000991F4A95D1F708958F929F92AF92BF92DB
:10054000CF92DF92EF92FF926B017C010E947702C3
:100550004B015C01C114D104E104F104B9F00E9423
:100560007702681979098A099B09683E73408105F9
:10057000910580F321E0C21AD108E108F10888EE64
:10058000880E83E0981EA11CB11CE4CFFF90EF9071
:10059000DF90CF90BF90AF909F908F9008958F92F3
:1005A0009F92AF92BF92CF92DF92EF92FF92CF9342
:1005B000DF93FC014A01AA24BB24C32ED42EE52ECE
:1005C000FF24DC2DC22F8085982D882391F0C82F21
:1005D000D0E0C89DD001C99DB00DD89DB00D1124AB
:1005E0009B2F8C9D60011124DD2D829F9001112491
:1005F000C32FA685218532858385A81321C0AB0131
:10060000440F551F640F751F620F731FA385A60F3C
:10061000B72FB11D9C93A485A60FB72FB11DDC93F6
:100620008585680F711DFB01C083DF91CF91FF901D
:10063000EF90DF90CF90BF90AF909F908F900895F4
:10064000660F771F660F771F620F731FA60FB72FF6
:10065000B11D1C92DBCFCF92DF92EF92FF920F93EE
:100660001F93CF93DF93CDB7DEB729970FB6F894DA
:10067000DEBF0FBECDBF8C01DC0119968D919C9120
:10068000892B09F473C00E947702F801C784D088CF
:10069000E188F2886C157D058E059F0520F467873B
:1006A000708B818B928BF801C784D088E188F288A7
:1006B0006C197D098E099F096C3271408105910585
:1006C00010F3F894D80114968D919C9115979A8304
:1006D00089831996ED91FC917F01BFEFEB1AFB0A1C
:1006E00080818987F80190810388F489E02DD80101
:1006F00055968C91992309F448C09081982B98873E
:100700009081809589238F838F818C8388E08B8370
:1007100058856F8149853B812C8189819A81D701D8
:10072000508347FD252F3A952083262F39F0441F0B
:1007300000C000006083000000C0F2CF38E04D919F
:1007400060830000019761F7D8015496FC93EE9303
:10075000539749873B832C839A83898378940E949B
:100760007702F8016787708B818B928B29960FB681
:10077000F894DEBF0FBECDBFDF91CF911F910F91D7
:10078000FF90EF90DF90CF9008959081982B9887FD
:100790009081809589238F838F818E8388E08D83DC
:1007A00058856F8149853D812E8189819A81D70144
:1007B000508347FD252F00C000C0208300C000C02B
:1007C00000C000C000C060830000262F3A9541F0B1
:1007D000441F000000C000C000C000C000C0E8CF3F
:1007E00038E04D9100C0608300C0019709F7D8013F
:1007F0005496FC93EE93539749873D832E83ACCF59
:10080000CF93DF93EC018E819F8197FD07C061E05C
:100810000E94460260E08E810E94EC0181E08983A3
:10082000DF91CF9108952091D401260F3327331FF4
:1008300021323105ECF42091F801FC0190E080E0D8
:10084000243069F082E00895A091D4012191AC0197
:100850004C545E4FA40FB52FB11D2C9301968617F3
:1008600098F38091D401680F6093D40180E00895DB
:1008700081E0089508958FEF9FEF08958FEF9FEF28
:1008800008958091AD0190E0919581959109089529
:10089000CF93DF93CB01EA01642F0E941304CE01B2
:1008A000DF91CF910895CF93DF931F92CDB7DEB73D
:1008B000698361E0CE0101960E94130481E090E01B
:1008C0000F90DF91CF91089590E080E00895FC01B2
:1008D00001900020E9F73197AF01481B590BBC018B
:1008E0008CE692E00C948D008F929F92AF92BF9213
:1008F0000F931F93CF93DF93CDB7DEB7A1970FB6BA
:10090000F894DEBF0FBECDBF19A2423008F44AE012
:100910008E010F5D1F4F842E912CB12CA12CA501AF
:1009200094010E942C13E62FB901CA01EA30F4F4B5
:10093000E05DD801EE938D01232B242B252B79F735
:1009400090E080E0109719F0CD010E946704A19615
:100950000FB6F894DEBF0FBECDBFDF91CF911F91D0
:100960000F91BF90AF909F908F900895E95CE1CF79
:10097000CF92DF92EF92FF92CF93DF9397FF1BC04E
:100980006B017C016DE28CE692E00E942D01EC018E
:1009900066277727CB016C197D098E099F094AE0EC
:1009A0000E9474048C0F9D1FDF91CF91FF90EF90F8
:1009B000DF90CF9008954AE0DF91CF91FF90EF90C4
:1009C000DF90CF900C947404CF93DF93BC01990F08
:1009D000880B990B0E94B804EC018AE191E00E9417
:1009E00067048C0F9D1FDF91CF9108954F925F9206
:1009F0006F927F928F929F92AF92BF92CF92DF922F
:100A0000EF92FF920F931F93CF936B017C01742E93
:100A1000AC019B010E949B15882399F08DE191E028
:100A2000CF911F910F91FF90EF90DF90CF90BF90EB
:100A3000AF909F908F907F906F905F904F900C94AD
:100A4000670446015701E894B7F82FEF3FEF4FE7EF
:100A50005FE7C501B4010E949B1581110DC02FEF06
:100A60003FEF4FE75FE7C501B4010E94CA131816B4
:100A70001CF481E291E0D4CF2FEF3FEF4FE75FE42A
:100A8000C701B6010E94291518161CF485E291E0F1
:100A9000C7CF2FEF3FEF4FE75FECC701B6010E94D2
:100AA000CA1387FDF3CF20E030E0A901C701B601EA
:100AB0000E94CA1310E000E087FF0AC06DE28CE6D6
:100AC00092E00E942D018C01F7FAF094F7F8F0946F
:100AD000C0E060E070E080E09FE37C1641F020E041
:100AE00030E040E251E40E94CF13CF5FF6CFA70180
:100AF00096010E945E132B013C010E9448144B0199
:100B00005C014AE00E9474047C01E00EF11ECC23DB
:100B1000C1F1C501B4010E9477149B01AC01C3016E
:100B2000B2010E945D134B015C016EE28CE692E023
:100B30000E942D01E80EF91EC15018F120E030E0AE
:100B400040E251E4C501B4010E942E152B013C0185
:100B50000E9448144B01B12CA12C4AE0C501B401FC
:100B60000E947404E80EF91EC501B4010E947714B6
:100B70009B01AC01C301B2010E945D134B015C01FA
:100B8000DBCFC701CF911F910F91FF90EF90DF90C6
:100B9000CF90BF90AF909F908F907F906F905F901D
:100BA0004F9008950F931F93CF93DF93EC01162F6F
:100BB000072F198218861F86188A198A1A8A81E0D7
:100BC0008E878B871C8692E09D87888384E290E0E5
:100BD0009D838C830E94B9159A878987009779F144
:100BE00024E2FC0111922A95E9F78CE090E09B83C6
:100BF0008A831E830F838981882341F061E0812FDE
:100C00000E94460260E0812F0E94EC01812F902F0C
:100C1000FC01E155FF4FE491F0E0EE0FFF1FEB55B3
:100C2000FF4F259134913C8B2B8BFC01EF56FF4FEE
:100C3000E491ED8BDF91CF911F910F9108951D826B
:100C40001C821B821A82D5CF1F93CF93DF9385ED31
:100C50008093BC008091B0019091B101A091B2014C
:100C6000B091B3010796A11DB11D23E0B695A795DC
:100C7000979587952A95D1F72091BC0024FD03C054
:100C80001092F80152C04091B0015091B1016091B1
:100C9000B2017091B301452B462B472B69F30097A6
:100CA000A105B10541F025E32A95F1F70000019770
:100CB000A109B109E1CF8091AF01C1E0C093AE01BC
:100CC000882399F1D091B8001091BA008091BC00AE
:100CD0008A7B8093BC0060E082E10E94EC0160E0CE
:100CE00083E10E94EC011092F801C093FA01109286
:100CF000F90161E082E10E94EC0161E083E10E9480
:100D0000EC018091B9008E7F8093B9008091B90089
:100D10008D7F8093B90088E48093B80085E4809348
:100D2000BC001093BA00D093B800DF91CF911F910F
:100D300008951F920F920FB60F9211242F933F9395
:100D40004F935F936F937F938F939F93AF93BF93D3
:100D5000EF93FF938091600290916102A0916202F3
:100D6000B0916302892B8A2B8B2BD1F190915B027E
:100D7000E0915C02F0915D028081892780838091FF
:100D8000600290916102A0916202B0916302181614
:100D900019061A061B069CF480916002909161026C
:100DA000A0916202B09163020197A109B1098093F9
:100DB000600290936102A0936202B0936302FF917C
:100DC000EF91BF91AF919F918F917F916F915F91C3
:100DD0004F913F912F910F900FBE0F901F9018953C
:100DE000809100010E941A02EACF1F920F920FB663
:100DF0000F9211242F933F934F935F936F937F93A1
:100E00008F939F93AF93BF93EF93FF938CE692E002
:100E10000E940B01FF91EF91BF91AF919F918F9134
:100E20007F916F915F914F913F912F910F900FBEE6
:100E30000F901F9018951F920F920FB60F921124CA
:100E40002F938F939F93EF93FF93E0917C02F09108
:100E50007D028081E0918202F091830282FD1BC0BD
:100E60009081809185028F5F8F7320918602821717
:100E700041F0E0918502F0E0E459FD4F958F8093B9
:100E80008502FF91EF919F918F912F910F900FBE4F
:100E90000F901F9018958081F4CF1F920F920FB67C
:100EA0000F9211242F933F938F939F93AF93BF93F0
:100EB00080911F0290912002A0912102B091220204
:100EC00030911E0223E0230F2D3758F50196A11D06
:100ED000B11D20931E0280931F0290932002A093C5
:100EE0002102B09322028091230290912402A091CA
:100EF0002502B09126020196A11DB11D8093230207
:100F000090932402A0932502B0932602BF91AF9143
:100F10009F918F913F912F910F900FBE0F901F9037
:100F2000189526E8230F0296A11DB11DD2CF1F925E
:100F30000F920FB60F9211242F933F934F935F930D
:100F40006F937F938F939F93AF93BF93EF93FF9391
:100F50008091B900887F803609F44AC0F0F5883264
:100F600009F4A5C018F5803109F499C0B8F48823B4
:100F700009F4F5C0883009F492C0FF91EF91BF9158
:100F8000AF919F918F917F916F915F914F913F9121
:100F90002F910F900FBE0F901F901895883109F474
:100FA00086C0803251F78093F70114C0803409F471
:100FB0009BC040F48033B9F38833F9F68093F7018E
:100FC00085ECAEC0803509F483C0883509F494C03F
:100FD000883499F60E942406D0CF883909F48AC053
:100FE00038F5883729F050F4883611F0803729F623
:100FF00083E08093F8011092F60155C0883809F417
:1010000079C0803919F0803809F0B7CF8091F601A6
:10101000803208F06FC0E091F60181E08E0F80937E
:10102000F6018091BB00F0E0EA52FE4F80833BC0A6
:10103000803B39F0D0F4803A09F477C0883A09F05F
:101040009CCF84E08093F8011092D5011092D401D6
:10105000F0E0E0E009958091D40181110FC081E0BA
:101060008093D4011092B40109C0803C09F4A8CF48
:10107000883C09F4A5CF883B09F07FCFE091D501EA
:1010800081E08E0F8093D501F0E0EC54FE4F80811B
:101090008093BB009091D5018091D40129C08091AB
:1010A0001D028093BB0085EC8093BC0066CF9091BD
:1010B0001C0280911B02981758F5E0911C0281E0F8
:1010C0008E0F80931C02F0E0E550FE4F8081E9CF47
:1010D000E0911C0281E08E0F80931C028091BB0086
:1010E000F0E0E550FE4F808390911C0280911B023E
:1010F0009817C8F285E8D8CFE0911C0281E08E0FE6
:1011000080931C028091BB00F0E0E550FE4F80838D
:101110008091FA0181115ECF81E08093F90184EA28
:101120008093BC001092F80128CF85EC8093BC001E
:101130001092F8018091F601803230F4E091F601CE
:10114000F0E0EA52FE4F10826091F60170E086ED09
:1011500091E0F0E0E0E009951092F6010ECF1092D8
:10116000F70138CF1F920F920FB60F9211242F93D1
:101170003F934F935F936F937F938F939F93AF931F
:10118000BF93CF93DF93EF93FF938091AC01C09116
:101190002D03D0E087FF24C01092850010928400B8
:1011A0008091AC018F5F8093AC018091AC01082EDF
:1011B000000C990B8C179D0724F48091AC018C30A6
:1011C000C4F18091840090918500049680349C49FC
:1011D00008F47AC08091840090918500049676C0CE
:1011E0008091AC01082E000C990B8C179D07C4F65A
:1011F000E091AC018E2FEE0F990BFC01EE0FFF1F5B
:10120000E80FF91FE75FFC4F808186FFC9CFE091AF
:10121000AC018E2FEE0F990BFC01EE0FFF1FE80FB4
:10122000F91FE75FFC4F808160E08F730E94EC0143
:10123000B7CF2091840030918500E091AC018E2FD2
:10124000EE0F990BFC01EE0FFF1FE80FF91FE75F90
:10125000FC4F81819281820F931F9093890080932C
:101260008800E091AC018E2FEE0F990BFC01EE0F80
:10127000FF1FE80FF91FE75FFC4F808186FF11C059
:10128000E091AC018E2FEE0F990BFC01EE0FFF1FCA
:10129000E80FF91FE75FFC4F808161E08F730E94C8
:1012A000EC01FF91EF91DF91CF91BF91AF919F91B1
:1012B0008F917F916F915F914F913F912F910F90FF
:1012C0000FBE0F901F90189580E49CE990938900C1
:1012D000809388008FEF8093AC01E3CFCF92DF92B1
:1012E000EF92FF920F931F93E82FF92F05C0015043
:1012F00011092109310961F1908196239417B9F3FD
:1013000005C0015011092109310911F1908196237D
:101310009413F7CFC12CD12CE12CF12C0AC08FEF04
:10132000C81AD80AE80AF80A0C151D052E053F054B
:1013300079F080818623841791F36C2D7D2D8E2D7D
:101340009F2D1F910F91FF90EF90DF90CF90089508
:1013500060E070E080E090E01F910F91FF90EF90CF
:10136000DF90CF90089510926F0210926E0288EE77
:1013700093E0A0E0B0E08093700290937102A0939C
:101380007202B09373028CE091E090936D028093AF
:101390006C0285EC90E0909379028093780284EC63
:1013A00090E090937B0280937A0280EC90E090939F
:1013B0007D0280937C0281EC90E090937F02809389
:1013C0007E0282EC90E0909381028093800286EC12
:1013D00090E0909383028093820210928502109293
:1013E00086021092870210928802109236031092A1
:1013F0003B0310923C0310923D0310923E03109267
:101400003703109238031092390310923A038091F7
:101410002D038C3098F491E0980F90932D038093D6
:101420002E0390E0FC01EE0FFF1FE80FF91FE75FAE
:10143000FC4F88EB9BE09283818308958FEF80932C
:101440002E030895CF93DF93CDB7DEB7C255D109F0
:101450000FB6F894DEBF0FBECDBF789484B582601E
:1014600084BD84B5816084BD85B5826085BD85B548
:10147000816085BD80916E00816080936E001092C6
:101480008100809181008260809381008091810041
:1014900081608093810080918000816080938000D2
:1014A0008091B10084608093B1008091B000816030
:1014B0008093B00080917A00846080937A0080915C
:1014C0007A00826080937A0080917A0081608093B4
:1014D0007A0080917A00806880937A001092C1002F
:1014E000E0917C02F0917D0282E08083E0917802BD
:1014F000F09179021082E0917A02F0917B0280E112
:10150000808310928402E0918002F091810286E053
:101510008083E0917E02F0917F02808180618083F0
:10152000E0917E02F0917F02808188608083E0916B
:101530007E02F0917F02808180688083E0917E024C
:10154000F0917F0280818F7D8083809101018111E4
:10155000109201018CE692E00E94EB00892B11F4BD
:101560000C94791260E170E080E090E00E949C02AF
:10157000E7E2F2E084E3DF011D928A95E9F7F12CBE
:101580008CE692E00E94EB000F2D10E0095D1D4FEC
:10159000892B41F08CE692E00E94C900F80180831B
:1015A000F394EECFD8011C926DE371E087E292E0F4
:1015B0000E94C61229969FAF8EAF29976DE371E006
:1015C00090E080E00E94C6121C016DE371E090E0A3
:1015D00080E00E94C6122B969FAF8EAF2B976DE3D3
:1015E00071E090E080E00E94C6122D969FAF8EAF12
:1015F0002D976FE371E029968EAD9FAD29970E94DC
:10160000DE16892B09F0A8C08E010D5F1F4F8EE2F8
:10161000F80111928A95E9F762E471E02B968EAD9C
:101620009FAD2B970E94C6127C010E94A8129A833C
:1016300089830E94E404EF2871F062E471E090E095
:1016400080E00E94C6127C010E94A812D8018D93EE
:101650009D938D01F0CFC1010E94A812BC01CE0163
:10166000C1960E94D205CE01C1960E940004C12CF1
:10167000E12CD12C90E080E0FC01EE0FFF1F21E077
:1016800030E02C0F3D1FE20FF31F608171818C0150
:101690000E5F1F4F161617060CF049C061507109F6
:1016A0008C010F5F1F4FF801EE0FFF1FE20FF31FBA
:1016B000208131812115310579F40F5F1F4FF80129
:1016C000EE0FFF1F81E090E08C0F9D1FE80FF91FC8
:1016D000D080C12CE12C18C02130310509F0ADC0FB
:1016E0008C010E5F1F4FF801EE0FFF1FA1E0B0E06D
:1016F000AC0FBD1FEA0FFB1FE080F180C701880F10
:10170000991FD82EDE0CC12C8BA99CA968177907CC
:1017100070F42E2D30E050E040E0542F432F322F54
:1017200022274D292C29CE01C1960E94CF02C80143
:101730000196883191050CF49FCFCE01C1960E948D
:101740002B038AAD9BAD0E9455168FA998AD97FDCE
:1017500003C060E00E94460264E471E029968EAD09
:101760009FAD29970E94DE16892B09F0FBC062E429
:1017700071E02B968EAD9FAD2B970E94C6120E94F2
:10178000A812082F62E471E090E080E00E94C61287
:101790000E94A812882E62E471E090E080E00E942E
:1017A000C6120E94A812182FC1010E94A812BC01E3
:1017B000CE0101960E94D205CE0101960E9400043E
:1017C000912CB12CA12CBA2CA92C982C8824A02ABD
:1017D000812A2D96EEACFFAC2D976701BCE0CB0EB5
:1017E000D11C0CE111E0F70181917F01813309F4F3
:1017F00095C0823309F468C1833309F468C1843326
:1018000009F468C1853309F468C1863309F468C1F5
:10181000873309F468C1883309F468C1893309F44E
:1018200068C1813609F468C1823609F468C183361B
:1018300009F076C00AE311E073C02230310581F46B
:101840008C010E5F1F4FF801EE0FFF1F21E030E00B
:101850002C0F3D1FE20FF31FD080C12CED2C54CF75
:101860002330310589F48C010E5F1F4FF801EE0F14
:10187000FF1F81E090E08C0F9D1FE80FF91FE080B3
:10188000F180C12CD12C40CF2430310579F48C016A
:101890000E5F1F4FF801EE0FFF1FA1E0B0E0AC0F8D
:1018A000BD1FEA0FFB1FC080E12CECCF25303105B6
:1018B00081F48C010E5F1F4FF801EE0FFF1F21E036
:1018C00030E02C0F3D1FE20FF31FE080F180CE2CA3
:1018D000D9CF2630310579F48C010E5F1F4FF80106
:1018E000EE0FFF1F81E090E08C0F9D1FE80FF91FA6
:1018F000D080CD2CEFCE2730310509F005CF8C01FB
:101900000E5F1F4FF801EE0FFF1FA1E0B0E0AC0F1C
:10191000BD1FEA0FFB1FD080CD2CA0CF08E311E044
:10192000C8010E94A8122B813C818217930738F4CA
:10193000A5019401BC01CE0101960E94CF02CE14F4
:10194000DF0409F050CFCE0101960E942B038A8557
:101950009B850E9455168F81988597FD03C060E096
:101960000E94460267E471E029968EAD9FAD2997EB
:101970000E94DE16892B09F060C0C1010E94A812E6
:10198000F82E2B968EAD9FAD2B970E94A8128C013E
:1019900061E08F2D0E94460260E0802F0E94460287
:1019A00060E08F2D0E94EC018FE090E00197F1F74D
:1019B00061E08F2D0E94EC0183E290E00197F1F746
:1019C00060E08F2D0E94EC0160E0802F0E944602B3
:1019D0001127F801EF56FF4F6491F801E155FF4FD1
:1019E000E491F0E0EE0FFF1FEE58FF4F85919491C8
:1019F00000E412E42FE030E0462F0E946E096115EA
:101A000071058105910529F06F5F7F4F8F4F9F4FC3
:101A10009F7095958795779567950E9479142DEC21
:101A20003CEC48EE51E40E94CF130E9441140E9406
:101A3000B8048AE191E00E9467046FE471E029969E
:101A40008EAD9FAD29970E94DE167C01892B09F08F
:101A5000C0C0C1010E94A812182F809136038823AC
:101A600009F0F8941092310310923203109233036C
:101A7000109234031092350361E0812F0E944602D8
:101A800060E0812F0E94EC0162E170E080E090E074
:101A90000E949C0260E0812F0E9446028BE990E048
:101AA0000197F1F7A0E9CA2EDD24D394812F0E947B
:101AB000C301892B39F5F1E0CF1AD108B9F75EEFF0
:101AC000E52EFF24FA9469C00BE311E029CF09E267
:101AD00011E026CF0BE211E023CF0DE411E020CF7F
:101AE0000DE211E01DCF0FE211E01ACF01E311E08A
:101AF00017CF03E311E014CF05E311E011CF07E3A3
:101B000011E00ECFF0E9CF2EDD24D394812F0E9477
:101B1000C301019729F421E0C21AD108B9F7CFCF48
:101B2000E8E2DE2E00E8C12C70E9A72EBB24B394B6
:101B3000812F0E94C301892B29F431E0A31AB10837
:101B4000B9F7BDCF0E9477022B013C0160E9A62EB8
:101B5000BB24B394812F0E94C301019729F481E033
:101B6000A81AB108B9F7ABCF0E94770264197509BA
:101B700086099709693271058105910538F0EC2DC8
:101B8000F0E0EF5CFC4F8081802B8083069511F4A0
:101B9000C39400E8DA94D110C7CF8091360388232C
:101BA00009F07894EF2809F42AC180E090ECA9E7C5
:101BB000B4EC8093370390933803A0933903B09328
:101BC0003A0380933B0390933C03A0933D03B0936F
:101BD0003E0368E571E029968EAD9FAD29970E947E
:101BE000DE16892BF1F460913B0370913C038091E8
:101BF0003D0390913E0342E00E94F60482E491E0AE
:101C00000E94670460913703709138038091390313
:101C100090913A0342E00E94F6048AE191E00E942A
:101C2000670462E671E029968EAD9FAD29970E9408
:101C3000DE16892B09F036C2C1010E94A8127C0170
:101C40002D968EAD9FAD2D970E94A8120397639697
:101C50009FAF8EAF6397092E000CAA0BBB0B2F967C
:101C60008CAF9DAFAEAFBFAF2F972B968EAD9FAD14
:101C70002B970E94A81261969FAF8EAF61978091BB
:101C800000018E110BC1ECE7F0E0149117FDF7C1D4
:101C900061E08E2D0E944602112319F0123009F0E6
:101CA00063C36196AEADBFAD61974D01B12CA12C60
:101CB00060E072E18AE790E0A5019D010E94FA12BE
:101CC00029013A017A016901B1E0CB1AD108E10892
:101CD000F108EFEFCE16D104E104F10409F00CF4A1
:101CE000A3C160E472E48FE090E0A50194010E943A
:101CF000FA1269017A01F1E0CF1AD108E108F1087E
:101D0000123009F048C182E02FEFC216D104E1047D
:101D1000F10409F00CF46CC060E970ED83E090E030
:101D2000A50194010E94FA1269017A0181E0C81AA2
:101D3000D108E108F10883E09FEFC916D104E1045E
:101D4000F10409F00CF454C068E478EE81E090E00E
:101D5000A50194010E94FA1269017A01E1E0CE1A0C
:101D6000D108E108F10884E0FFEFCF16D104E104C7
:101D7000F104F1F1ECF164E274EF80E090E0A50190
:101D800094010E94FA1269017A01E1E0CE1AD108A9
:101D9000E108F10885E0BFEFCB16D104E104F104BE
:101DA00039F130F162E17AE780E090E0A501940139
:101DB0000E94FA1269017A0181E0C81AD108E1088B
:101DC000F10886E09FEFC916D104E104F10481F027
:101DD00078F0730162018AE0F594E794D794C79490
:101DE0008A95D1F7B1E0CB1AD108E108F10887E074
:101DF0009091B100987F892B8093B1001CC16091B4
:101E0000320370E090E080E00E9479142DEC3CEC0D
:101E10004CEC5DE30E942E156B017C016091310357
:101E200070E090E080E00E9479149B01AC01C70152
:101E3000B6010E945E13609337037093380380935A
:101E4000390390933A03109133036091340370E0A7
:101E500090E080E00E9479142DEC3CEC4CEC5DE3CA
:101E60000E942E156B017C01612F6F7770E090E06E
:101E700080E00E9479149B01AC01C701B6010E9469
:101E80005E1317FD09C060933B0370933C0380937E
:101E90003D0390933E039DCE9058F5CF8F3F09F0C0
:101EA000EEC0E0920001ECE7F0E014911F3F09F46E
:101EB000E6C0113041F150F0123009F446C017FD70
:101EC000DEC061E08E2D0E944602E8CE14BC15BC37
:101ED00084B5826084BD85B5816085BDC7019927C1
:101EE000FC01E155FF4FE491F0E0EE0FFF1FEB55D1
:101EF000FF4F25913491FC01EF56FF4FE491E093A1
:101F00005F0210E0C5CE1092800010928100809197
:101F1000810088608093810080918100816080933E
:101F20008100C7019927FC01E155FF4FE491F0E0E2
:101F3000EE0FFF1FEB55FF4F25913491FC01EF563B
:101F4000FF4FE491E0935E02A3CE1092B000109296
:101F5000B1008091B00082608093B0008091B100A8
:101F600081608093B100C7019927FC01E155FF4FC3
:101F7000E491F0E0EE0FFF1FEB55FF4F25913491F8
:101F800030935D0220935C02FC01EF56FF4FE49119
:101F9000E0935B027DCEAFEFCA16D104E104F104F9
:101FA00009F00CF4DFC168E478EE81E090E0A5016F
:101FB00094010E94FA1269017A01B1E0CB1AD108AA
:101FC000E108F10884E01111E6CE83E0AFEFCA1614
:101FD000D104E104F10459F154F162E17AE780E0BF
:101FE00090E0A50194010E94FA1269017A01F1E0E2
:101FF000CF1AD108E108F10884E02FEFC216D1040E
:10200000E104F104A1F098F0730162019AE0F59403
:10201000E794D794C7949A95D1F7A1E0CA1AD1084A
:10202000E108F10885E003C081E01111E1CE95B52A
:10203000987F892B85BD2F968CAD9DADAEADBFAD84
:102040002F972FEF3FEFA901892B8A2B8B2B09F0BC
:10205000CEC1113009F4DEC1123009F4EDC1111105
:102060000EC0C7BC209368023093690240936A0295
:1020700050936B0280916E00826080936E002F9669
:102080006CAD7DAD8EAD9FAD2F970E949C02C101BE
:102090000E94A8120E941A0262E070E080E090E0C4
:1020A0000E949C026BE671E029968EAD9FAD299748
:1020B0000E94DE16892B09F0DDC0C1010E94A81222
:1020C000182F80912E038C3008F053C061E0812FCF
:1020D0000E94460280912E03282F30E0F901EE0F76
:1020E000FF1FE20FF31FE75FFC4F912F9F731081DB
:1020F000107C192B108310922F03109230032CE0C8
:10210000622F0E94A015829FB001112430E020E0D0
:10211000AB01420F531FFA01EE0FFF1FE40FF51F33
:10212000E75FFC4F908196FD16C02F5F3F4F2C302C
:10213000310571F781110FC01092800082E0809309
:1021400081001092850010928400B19A80916F00F6
:10215000826080936F00E0912E038E2F90E0FC014F
:10216000EE0FFF1FE80FF91FE75FFC4F80818064CF
:10217000808310912E032B968EAD9FAD2B970E94DE
:10218000A812DC01A03292E0B907DCF580912F03A0
:10219000E8E8CE2ED12CC81AD10887FDD394CC0CF8
:1021A000DD1CCC0CDD1C0D2C000CEE08FF08809112
:1021B000300328E532E0281B310987FD3395220FD3
:1021C000331F220F331F032E000C440B550B2C1909
:1021D0003D094E095F09A53BB10514F0A4EBB0E041
:1021E000B7FF02C0B0E0A0E00E94241324EB30E06F
:1021F00040E050E00E94FA12C20ED31EE41EF51E0B
:10220000D6011C3088F580912F0348E850E0481B28
:10221000510987FD5395440F551F440F551FA417AF
:10222000B50784F08091300348E552E0481B51091E
:1022300087FD5395440F551F440F551FA417B5072D
:102240000CF4AD0142505109440F551F2FB7F894BB
:10225000812F90E0FC01EE0FFF1FE80FF91FE75FF1
:10226000FC4F528341832FBF64E670E080E090E032
:102270000E949C0266E771E029968EAD9FAD29977A
:102280000E94DE16892B51F581E891E00E946704D7
:10229000C1010E94A812BC01990F880B990B0E94E2
:1022A000B80483E891E00E946704C1010E94A8126B
:1022B0008E3008F08E508770806480937C0080910F
:1022C0007A00806480937A0080917A0086FDFCCF4A
:1022D00080917800909179000E94E40465E871E0B3
:1022E00029968EAD9FAD29970E94DE16892BC1F4E9
:1022F00081E991E00E946704C1010E94A812BC011B
:10230000990F880B990B0E94B80483E891E00E9412
:102310006704C1010E94A8120E94C3010E94E40444
:1023200063E971E029968EAD9FAD29970E94DE1674
:10233000892B09F0BEC02B968EAD9FAD2B970E94C6
:10234000A8128C01C1010E94A8127C0161E00E94C8
:1023500046020115110509F07FC060E08E2D0E9434
:10236000EC01A7C082E061CE61968EAD9FAD619712
:102370004C01B12CA12C60E072E18AE790E0A5014C
:1023800094010E94FA1269017A0191E0C91AD108F8
:10239000E108F10891E0C114D104A1E0EA06F104DA
:1023A00084F068E478EE81E090E0A50194010E9459
:1023B000FA1269017A01B1E0CB1AD108E108F108FB
:1023C00093E0113009F037CE80918100887F892B0E
:1023D000809381002F968CAD9DADAEADBFAD2F9794
:1023E0002FEF3FEFA901892B8A2B8B2B99F0619658
:1023F0002EAD3FAD6197220F331F6396AEADBFADDB
:1024000063970E94AC1528EE33E040E050E00E9454
:102410002C131FCED0928900C092880020936402B2
:1024200030936502409366025093670280916F007B
:10243000826080936F0023CEC092B300209360022D
:102440003093610240936202509363028091700066
:1024500082608093700013CE0F3F110511F461E08C
:102460007DCFF701FF27E358FF4FE491E33009F4F4
:1024700055C048F4E130C9F0E23009F44AC00038F0
:1024800011056CF76ACFE73009F452C0E83009F45F
:1024900057C0E430A1F78091800080628093800073
:1024A00010938B0000938A0004C084B5806884BDBB
:1024B00007BD6FE971E029968EAD9FAD29970E9407
:1024C000DE16892B99F4C1010E94A81261E00E94D6
:1024D00046022B968EAD9FAD2B970E94A812182F07
:1024E000C1010E94A812612F0E94EC0181E080933B
:1024F000010180E090E0892B11F40C94A50A0E9460
:10250000F700882311F40C94A50A0E9400000C9493
:10251000A50A84B5806284BD08BDCBCF80918000C0
:102520008068809380001093890000938800C1CF59
:102530008091B00080688093B0000093B300B9CF61
:102540008091B00080628093B0000093B400B1CF5E
:10255000FC0188279927E89421912032E9F329305A
:1025600010F02E30C8F32B3241F02D3239F468943C
:1025700004C00E94F212820F911D219120532A3033
:10258000C0F31EF4909581959F4F08954FE353E05B
:102590000E94CB120895FA01A191B081009719F41D
:1025A0001097E1F0CD01DC01CD010D90002011F478
:1025B000C00113C0FB012191222319F02015D9F786
:1025C000F3CFFB012191201519F41E92119606C03C
:1025D0002223C1F70D900020A1F7D001FA01A193A9
:1025E000B08308957AE0979F902D879F802D910D5D
:1025F00011240895052E97FB1EF400940E941113D8
:1026000057FD07D00E942C1307FC03D04EF40C9406
:10261000111350954095309521953F4F4F4F5F4F87
:10262000089590958095709561957F4F8F4F9F4F3E
:1026300008950E944E13A59F900DB49F900DA49FE6
:10264000800D911D11240895B7FF0C9419130E9459
:102650001913821B930B0895A1E21A2EAA1BBB1B10
:10266000FD010DC0AA1FBB1FEE1FFF1FA217B3075E
:10267000E407F50720F0A21BB30BE40BF50B661F74
:10268000771F881F991F1A9469F760957095809538
:1026900090959B01AC01BD01CF010895A29FB001AF
:1026A000B39FC001A39F700D811D1124911DB29F86
:1026B000700D811D1124911D08955058BB27AA2724
:1026C0000E9475130C94EF140E94E11438F00E94DC
:1026D000E81420F039F49F3F19F426F40C94DE142A
:1026E0000EF4E095E7FB0C94D814E92F0E94001536
:1026F00058F3BA17620773078407950720F079F437
:10270000A6F50C9422150EF4E0950B2EBA2FA02DF1
:102710000B01B90190010C01CA01A0011124FF278E
:10272000591B99F0593F50F4503E68F11A16F04089
:10273000A22F232F342F4427585FF3CF4695379588
:102740002795A795F0405395C9F77EF41F16BA0B4D
:10275000620B730B840BBAF09150A1F0FF0FBB1FFB
:10276000661F771F881FC2F70EC0BA0F621F731F44
:10277000841F48F4879577956795B795F7959E3FA1
:1027800008F0B0CF9395880F08F09927EE0F979532
:10279000879508950E94B41408F481E008950E947A
:1027A000E3130C94EF140E94E81458F00E94E11413
:1027B00040F029F45F3F29F00C94D81451110C9487
:1027C00023150C94DE140E94001568F39923B1F3CD
:1027D000552391F3951B550BBB27AA276217730747
:1027E000840738F09F5F5F4F220F331F441FAA1FDB
:1027F000A9F335D00E2E3AF0E0E832D09150504097
:10280000E695001CCAF72BD0FE2F29D0660F771F44
:10281000881FBB1F261737074807AB07B0E809F02A
:10282000BB0B802DBF01FF2793585F4F3AF09E3FAF
:10283000510578F00C94D8140C9423155F3FE4F301
:10284000983ED4F3869577956795B795F7959F5FF2
:10285000C9F7880F911D9695879597F90895E1E03E
:10286000660F771F881FBB1F621773078407BA079D
:1028700020F0621B730B840BBA0BEE1F88F7E095F8
:1028800008950E9448146894B1110C94231508957A
:102890000E94081588F09F5798F0B92F9927B751D3
:1028A000B0F0E1F0660F771F881F991F1AF0BA95F4
:1028B000C9F714C0B13091F00E942215B1E008951B
:1028C0000C942215672F782F8827B85F39F0B93F0D
:1028D000CCF3869577956795B395D9F73EF49095A7
:1028E0008095709561957F4F8F4F9F4F0895E89425
:1028F00009C097FB3EF490958095709561957F4F48
:102900008F4F9F4F9923A9F0F92F96E9BB279395F5
:10291000F695879577956795B795F111F8CFFAF405
:10292000BB0F11F460FF1BC06F5F7F4F8F4F9F4F36
:1029300016C0882311F096E911C0772321F09EE894
:10294000872F762F05C0662371F096E8862F70E0FA
:1029500060E02AF09A95660F771F881FDAF7880FD4
:102960009695879597F90895990F0008550FAA0B2A
:10297000E0E8FEEF16161706E807F907C0F0121692
:102980001306E407F50798F0621B730B840B950B95
:1029900039F40A2661F0232B242B252B21F40895EA
:1029A0000A2609F4A140A6958FEF811D811D089587
:1029B00097F99F6780E870E060E008959FEF80ECF2
:1029C000089500240A941616170618060906089595
:1029D00000240A9412161306140605060895092EFB
:1029E0000394000C11F4882352F0BB0F40F4BF2B6A
:1029F00011F460FF04C06F5F7F4F8F4F9F4F0895AA
:102A000057FD9058440F551F59F05F3F71F047959F
:102A1000880F97FB991F61F09F3F79F08795089584
:102A2000121613061406551FF2CF4695F1DF08C0A3
:102A3000161617061806991FF1CF869571056105C0
:102A400008940895E894BB2766277727CB0197F968
:102A500008950E94B41408F48FEF08950E94411560
:102A60000C94EF140E94E11438F00E94E81420F056
:102A7000952311F00C94D8140C94DE1411240C94AA
:102A800023150E94001570F3959FC1F3950F50E038
:102A9000551F629FF001729FBB27F00DB11D639F10
:102AA000AA27F00DB11DAA1F649F6627B00DA11DB6
:102AB000661F829F2227B00DA11D621F739FB00D5C
:102AC000A11D621F839FA00D611D221F749F3327CC
:102AD000A00D611D231F849F600D211D822F762F65
:102AE0006A2F11249F5750409AF0F1F088234AF042
:102AF000EE0FFF1FBB1F661F771F881F91505040AE
:102B0000A9F79E3F510580F00C94D8140C9423151E
:102B10005F3FE4F3983ED4F3869577956795B79534
:102B2000F795E7959F5FC1F7FE2B880F911D96954E
:102B3000879597F908950E94B414880B990B08950E
:102B4000991B79E004C0991F961708F0961B881FFF
:102B50007A95C9F7809508950E944E13B7FF08959E
:102B6000821B930B0895EE0FFF1F0590F491E02D4B
:102B700009940F931F93CF93DF938230910510F444
:102B800082E090E0E0914303F091440330E020E0E4
:102B9000B0E0A0E0309799F42115310509F44AC05E
:102BA000281B390B24303105D8F58A819B816115AA
:102BB000710589F1FB0193838283FE0111C040817D
:102BC00051810281138148175907E0F048175907CE
:102BD00099F4109761F012960C93129713961C9328
:102BE0003296CF01DF91CF911F910F9108950093FD
:102BF000430310934403F4CF2115310551F04217DC
:102C0000530738F0A901DB019A01BD01DF01F8018A
:102C1000C1CFEF01F9CF9093440380934303CDCF0D
:102C2000FE01E20FF31F8193919322503109398302
:102C30002883D7CF2091410330914203232B41F4C5
:102C40002091040130910501309342032093410308
:102C500020910201309103012115310541F42DB776
:102C60003EB74091060150910701241B350BE091BE
:102C70004103F0914203E217F307A0F42E1B3F0B30
:102C80002817390778F0AC014E5F5F4F24173507DE
:102C900048F04E0F5F1F50934203409341038193CE
:102CA00091939FCFF0E0E0E09CCFCF93DF9300972C
:102CB000E9F0FC01329713821282A0914303B09194
:102CC0004403ED0130E020E01097A1F42081318130
:102CD000820F931F20914103309142032817390737
:102CE00009F061C0F0934203E0934103DF91CF917B
:102CF0000895EA01CE17DF07E8F54A815B819E015E
:102D000041155105B1F7E901FB83EA8349915991D6
:102D1000C40FD51FEC17FD0761F4808191810296E5
:102D2000840F951FE90199838883828193819B8316
:102D30008A83F0E0E0E012968D919C9113970097C2
:102D4000B9F52D913C911197CD010296820F931FF9
:102D500020914103309142032817390739F6309703
:102D600051F51092440310924303B0934203A09391
:102D70004103BCCFD383C28340815181840F951F0F
:102D8000C817D90761F44E5F5F4F88819981480F5A
:102D9000591F518340838A819B81938382832115AC
:102DA000310509F0B0CFF0934403E09343039ECF85
:102DB000FD01DC01C0CF13821282D7CFFB01DC0101
:102DC0008D91019080190110D9F3990B0895F89411
:022DD000FFCF33
:102DD200FF01000045038000000000002D018D006E
:102DE200BA007A01EB00C900DD000D0A006E616EC7
:102DF20000696E66006F7666003200330035003679
:102E020000370038003900313000313100230073BF
:102E120068002C0077730048432D5352303400640D
:102E2200687431315365740064687431315265617C
:102E32006400746F6E65506C617900736572766FB1
:102E4200577269746500616E616C6F675265616487
:102E52000041003A006469676974616C526561649B
:102E6200004400616E616C6F67577269746500643B
:0C2E720069676974616C577269746500CF
:00000001FF
