:100000000C949E000C94C6000C94C6000C94E80A54
:100010000C94E80A0C94E80A0C94C6000C94EA09C3
:100020000C94C6000C94C6000C94C6000C947F0C73
:100030000C94C6000C94C6000C94C6000C94C60028
:100040000C949E0A0C94C6000C946C0A0C94460AFC
:100050000C94C6000C94C6000C94C6000C94C60008
:100060000C94600B0C94C60008000000BE9224495A
:10007000123EABAAAA2ABECDCCCC4C3E00000080DA
:10008000BEABAAAAAA3E00000000BF000000803F4D
:100090000000000000084178D3BB4387D1133D190D
:1000A0000E3CC3BD4282AD2B3E68EC8276BED98F3A
:1000B000E1A93E4C80EFFFBE01C4FF7F3F0000007E
:1000C000000000000000240027002A0002000000B9
:1000D0000800020100000304070000000000000007
:1000E000003A0044003A0041002C0048432C003AFA
:1000F000004E002C002C002C002C000000000023DF
:10010000002600290000000000250028002B000424
:1001100004040404040404020202020202030303AE
:1001200003030301020408102040800102040810A8
:100130002001020408102000800D0B1C11241FBE9A
:10014000CFEFD8E0DEBFCDBF12E0A0E0B1E0E6EC3B
:10015000F4E402C005900D92A034B107D9F726E06F
:10016000A0E4B2E001C01D92AD3AB207E1F710E0A1
:10017000CDE9D0E004C02197FE010E94FB1FCC39DD
:10018000D107C9F70E947E0E0C9456220C940000F1
:1001900008950895AF92BF92CF92DF92EF92FF92AF
:1001A0000F931F93CF93DF936C017B018B01040F9F
:1001B000151FEB015E01AE18BF08C017D10759F03B
:1001C0006991D601ED91FC910190F081E02DC6017D
:1001D0000995892B79F7C501DF91CF911F910F9177
:1001E000FF90EF90DF90CF90BF90AF900895FC010B
:1001F000538D448D252F30E0842F90E0821B930B8C
:10020000541710F0CF96089501970895FC01918D31
:10021000828D981761F0A28DAE0FBF2FB11D5D9634
:100220008C91928D9F5F9F73928F90E008958FEFD6
:100230009FEF0895FC01918D828D981731F0828D8A
:10024000E80FF11D858D90E008958FEF9FEF0895E1
:10025000FC01918D228D892F90E0805C9F4F821B45
:1002600091098F73992708958DE995E00E942801DF
:1002700021E0892B09F420E0822F089580E090E0AE
:10028000892B29F00E94340181110C9400000895FB
:10029000FC01A48DA80FB92FB11DA35ABF4F2C91FB
:1002A000848D90E001968F739927848FA689B789F2
:1002B0002C93A089B1898C91837080648C93938DE9
:1002C000848D981306C00288F389E02D80818F7D8C
:1002D00080830895EF92FF920F931F93CF93DF9344
:1002E000EC0181E0888F9B8D8C8D98131AC0E88972
:1002F000F989808185FF15C09FB7F894EE89FF8941
:100300006083E889F98980818370806480839FBFDE
:1003100081E090E0DF91CF911F910F91FF90EF90DE
:100320000895F62E0B8D10E00F5F1F4F0F731127EE
:10033000E02E8C8D8E110CC00FB607FCFACFE88929
:10034000F989808185FFF5CFCE010E944801F1CF68
:10035000EB8DEC0FFD2FF11DE35AFF4FF0829FB79D
:10036000F8940B8FEA89FB8980818062CFCF0F934D
:100370001F93CF93DF938C01D0E0C0E0F801EC0F26
:10038000FD1F6491662341F08DE995E00E946A01AA
:10039000892B11F02196F2CFCE01DF91CF911F91E1
:1003A0000F910895CF93DF93EC01888D8823B9F0E6
:1003B000AA89BB89E889F9898C9185FD03C0808170
:1003C00086FD0DC00FB607FCF7CF8C9185FFF2CFED
:1003D000808185FFEDCFCE010E944801E9CFDF91FA
:1003E000CF910895833081F028F4813099F08230E4
:1003F000A9F008958730A9F08830C9F08430B1F4AD
:10040000809180008F7D03C0809180008F778093E2
:100410008000089584B58F7784BD089584B58F7D5D
:10042000FBCF8091B0008F778093B00008958091CA
:10043000B0008F7DF9CFCF93DF93282F30E0F90103
:10044000E353FF4F8491F901ED5DFE4FD491F90123
:10045000E15FFE4FC491CC23A1F081110E94F20113
:10046000EC2FF0E0EE0FFF1FE550FF4FA591B49188
:10047000EC91ED2381E090E009F480E0DF91CF91F1
:10048000089580E090E0FACF1F93CF93DF93282F59
:1004900030E0F901E353FF4F8491F901ED5DFE4F28
:1004A000D491F901E15FFE4FC491CC23A9F0162F3E
:1004B00081110E94F201EC2FF0E0EE0FFF1FEB5FC5
:1004C000FE4FA591B4918FB7F894EC91111108C02B
:1004D000D095DE23DC938FBFDF91CF911F910895DC
:1004E000DE2BF8CF9091010189130BC0ECECF0E00A
:1004F000E4919FEF90930101E13049F028F0E23060
:1005000061F060E00C94440210926E00FACF90917A
:100510006F009D7F90936F00F4CF909170009D7F4E
:100520009093700091E09093B0009091B100987F0B
:1005300094609093B1001092B300E3CFCF93DF9318
:1005400090E0FC01ED5DFE4F2491815F9E4FFC0128
:1005500084918823D1F090E0880F991FFC01EE531D
:10056000FF4FA591B491FC01EB5FFE4FC591D49173
:1005700061110EC09FB7F8948C91E22FE0958E2305
:100580008C932881E223E8839FBFDF91CF91089568
:100590008FB7F894EC91E22BEC938FBFF6CF8E30AF
:1005A00008F08E502091000190E4299F90011124C1
:1005B0008770822B80937C0080917A008064809386
:1005C0007A0080917A0086FDFCCF8091780090912E
:1005D000790008953FB7F8948091380390913903DA
:1005E000A0913A03B0913B0326B5A89B05C02F3FCD
:1005F00019F00196A11DB11D3FBFBA2FA92F982F49
:100600008827BC01CD01620F711D811D911D42E043
:10061000660F771F881F991F4A95D1F708958F920B
:100620009F92AF92BF92CF92DF92EF92FF926B01B7
:100630007C010E94EA024B015C01C114D104E10477
:10064000F104B9F00E94EA02681979098A099B0944
:10065000683E73408105910580F321E0C21AD108FC
:10066000E108F10888EE880E83E0981EA11CB11CF9
:10067000E4CFFF90EF90DF90CF90BF90AF909F902E
:100680008F90089520913E0330913F03281739073A
:1006900071F490913C0380913D03981741F0E091F3
:1006A0003C03F0E0ED50FD4F808190E008958FEF26
:1006B0009FEF08950895EF92FF920F931F93CF93AA
:1006C000DF93DC015C96ED90FC905D97E114F10402
:1006D00079F481E090E013969C938E93129790E0CA
:1006E00080E0DF91CF911F910F91FF90EF900895DF
:1006F0005196ED91FC91529750968C915097982F6E
:1007000090950FB75E962C915E97122F127021FD77
:100710006095F8942081112319F1282B2083E7019B
:100720002197F1F728E0462F50E0308160FF1AC092
:10073000382B3083E7012197F1F7BA01759567955A
:10074000215089F7112381F08081892380830FBF95
:100750005C968D919C910197F1F781E090E0C1CF7B
:100760002923DCCF3923E5CF9081892BEFCF20914E
:100770003E0330913F032817390761F480913D0310
:1007800020913C0390E0805C9F4F821B91098F7306
:100790009927089590E080E0089520913E033091DC
:1007A0003F0328173907B9F490913C0380913D032A
:1007B000981789F0E0913C03F0E0ED50FD4F808107
:1007C00020913C0330E02F5F3F4F2F73332720935E
:1007D0003C0390E008958FEF9FEF08958F929F92D2
:1007E000AF92BF92CF92DF92EF92FF92CF93DF93BF
:1007F000FC014A01AA24BB24C32ED42EE52EFF24DB
:10080000DC2DC22F8085982D882391F0C82FD0E051
:10081000C89DD001C99DB00DD89DB00D11249B2F4E
:100820008C9D60011124DD2D829F90011124C32F26
:10083000A685218532858385A81321C0AB01440F8D
:10084000551F640F751F620F731FA385A60FB72F67
:10085000B11D9C93A485A60FB72FB11DDC93858590
:10086000680F711DFB01C083DF91CF91FF90EF9066
:10087000DF90CF90BF90AF909F908F900895660FBC
:10088000771F660F771F620F731FA60FB72FB11D5B
:100890001C92DBCFCF92DF92EF92FF920F931F93C8
:1008A000CF93DF93CDB7DEB729970FB6F894DEBFAD
:1008B0000FBECDBF8C01DC0119968D919C91892BC7
:1008C00009F473C00E94EA02F801C784D088E18865
:1008D000F2886C157D058E059F0520F46787708B67
:1008E000818B928BF801C784D088E188F2886C19DB
:1008F0007D098E099F096C3271408105910510F3C5
:10090000F894D80114968D919C9115979A838983B8
:100910001996ED91FC917F01BFEFEB1AFB0A8081E4
:100920008987F80190810388F489E02DD8015596D4
:100930008C91992309F448C09081982B98879081D5
:10094000809589238F838F818C8388E08B83588562
:100950006F8149853B812C8189819A81D7015083A0
:1009600047FD252F3A952083262F39F0441F00C0DC
:1009700000006083000000C0F2CF38E04D9160833A
:100980000000019761F7D8015496FC93EE935397BA
:1009900049873B832C839A83898378940E94EA0257
:1009A000F8016787708B818B928B29960FB6F8942C
:1009B000DEBF0FBECDBFDF91CF911F910F91FF9092
:1009C000EF90DF90CF9008959081982B9887908139
:1009D000809589238F838F818E8388E08D835885CE
:1009E0006F8149853D812E8189819A81D70150830C
:1009F00047FD252F00C000C0208300C000C000C0FC
:100A000000C000C060830000262F3A9541F0441FCB
:100A1000000000C000C000C000C000C0E8CF38E047
:100A20004D9100C0608300C0019709F7D80154962A
:100A3000FC93EE93539749873D832E83ACCFCF939E
:100A4000DF93EC018E819F8197FD07C061E00E94DA
:100A50009E0260E08E810E94440281E08983DF91E2
:100A6000CF910895089520918202260F3327331FD6
:100A700021323105ECF42091CB02FC0190E080E0C2
:100A8000243069F082E00895A09182022191AC01A6
:100A90004E595D4FA40FB52FB11D2C9301968617AB
:100AA00098F380918202680F6093820280E008953B
:100AB00081E008951092CB0281E08093CA021092E7
:100AC000A50261E082E10E94440261E083E10E94AC
:100AD0004402E9EBF0E080818E7F808380818D7F0E
:100AE000808388E48093B80085E48093BC000895F7
:100AF000CF93DF9391E0909361028823B9F0C09186
:100B0000B800D091BA008091BC008A7B8093BC0071
:100B100060E082E10E94440260E083E10E944402BE
:100B20000E945A05D093BA00C093B800DF91CF91CC
:100B30000895E091470380914603E81730F4F0E010
:100B4000EF5BFD4F808190E008958FEF9FEF089558
:100B500090914703809146032FEF3FEF981748F499
:100B6000E92FF0E0EF5BFD4F208130E09F5F909335
:100B70004703C90108958091460390914703891B5B
:100B8000990B0895CF92DF92EF92FF920F931F93EC
:100B9000CF93DF937C01CB018A012091D1022223E4
:100BA00089F0EB016B01C40ED51ECC15DD0569F093
:100BB0006991D701ED91FC910190F081E02DC70181
:100BC0000995F3CF642F0E943305C801DF91CF91BF
:100BD0001F910F91FF90EF90DF90CF900895CF93EA
:100BE000DF931F92CDB7DEB769832091D102222314
:100BF000F9F020914403203258F021E030E0FC016C
:100C00003383228390E080E00F90DF91CF910895AD
:100C100080914503E82FF0E0EE52FD4F99819083DB
:100C20008F5F809345038093440381E090E0ECCF95
:100C300061E0CE0101960E943305F7CFCF92DF929B
:100C4000EF92FF920F931F93CF93DF93FC01C48128
:100C500021E02093D102C093F2021092450310923A
:100C600044038385682B8AE396E00E94EF05D091C8
:100C70004403D13208F092C00E94EA026B017C0169
:100C80008091CB02811165C082E08093CB0281E02C
:100C90008093CA028FEF8093C9021092C802D0934A
:100CA000C702A2EDB2E0E7EAF2E080E0D81385C027
:100CB0001092A6028091A602CC0FC82BC093A60268
:100CC0008091A502813009F07CC01092A5020E949B
:100CD000EA026B017C018091A6028093BB008091A7
:100CE000CD029091CE02A091CF02B091D002892B7B
:100CF0008A2B8B2B99F00E94EA020091CD02109171
:100D0000CE022091CF023091D0026C197D098E095C
:100D10009F090617170728073907E0F18091BC00E3
:100D200083FDD9CF85EC8093BC000E94EA026B0161
:100D30007C018091CB02823009F445C08091C902C8
:100D40008F3F61F18091C902803241F18091C902E7
:100D500025C08091CD029091CE02A091CF02B0919A
:100D6000D002892B8A2B8B2B09F48ACF0E94EA02AE
:100D70000091CD021091CE022091CF023091D0028D
:100D80006C197D098E099F0906171707280739076F
:100D900008F076CF8091CC020E947805109245032E
:100DA000109244031092D102DF91CF911F910F91C5
:100DB000FF90EF90DF90CF9008959D9191938F5F7A
:100DC00075CF85EEB0CF8091CD029091CE02A091EB
:100DD000CF02B091D002892B8A2B8B2B09F4A9CF9B
:100DE0000E94EA020091CD021091CE022091CF0222
:100DF0003091D0026C197D098E099F0906171707DB
:100E00002807390708F095CFC5CF90E080E0089516
:100E10004F925F926F927F928F929F92AF92BF920A
:100E2000CF92DF92EF92FF920F931F93CF93DF93B6
:100E300000D0CDB7DEB78C0149832A83660F771FB8
:100E4000F801EA5AFF4FE080F180EE0CFF1CF80138
:100E5000CF01801B910B8E159F0514F41192F8CFD2
:100E60008981F801E60FF71F81838A8180836801F9
:100E700084E5C80ED11C60E0F60180810E94440226
:100E80005801F2E5AF0EB11C480180E5880E911CB7
:100E90001E141F040CF5E1E0EE1AF108F801EE0D46
:100EA000FF1D6080F5015080F401408088E0782EBD
:100EB000662D661F6627661F842D0E944402660CFD
:100EC00061E0852D0E94440260E0852D0E9444026D
:100ED0007A947110EDCFDCCF61E0F60180810F9044
:100EE0000F90DF91CF911F910F91FF90EF90DF90C6
:100EF000CF90BF90AF909F908F907F906F905F90BA
:100F00004F900C944402CF92DF92EF92FF921F9386
:100F1000CF93DF937C016B01EB0183E0CC0FDD1FEE
:100F20008A95E1F76096CE0DDF1D11E0199220E061
:100F3000412FB601C7010E9408071F5F1930B1F7A2
:100F4000DF91CF911F91FF90EF90DF90CF900895A8
:100F50000F931F93CF938C01C62F0E941E066C2FF8
:100F60006460C8010E941E066C2F6B7FC8010E943E
:100F70001E0683EC90E00197F1F7CF911F910F913E
:100F800008950F931F93CF93DF938C01D62FC42F17
:100F9000607F642B0E94A80780E1D89FB0011124D4
:100FA0006C2BC801DF91CF911F910F910C94A80772
:100FB00041E00E94C10781E090E008950F931F93E4
:100FC000CF93DF93EC01162F072F198218861F8607
:100FD000188A198A1A8A81E08E878B871C8692E08C
:100FE0009D87888384E290E09D838C830E945B20B0
:100FF0009A878987009779F124E2FC0111922A955A
:10100000E9F78CE090E09B838A831E830F838981BC
:10101000882341F061E0812F0E949E0260E0812FD1
:101020000E944402812F902FFC01E15FFE4FE4916A
:10103000F0E0EE0FFF1FEB5FFE4F259134913C8BEC
:101040002B8BFC01ED5DFE4FE491ED8BDF91CF9199
:101050001F910F9108951D821C821B821A82D5CF89
:10106000FB0101900020E9F73197AF01461B570BB8
:10107000DC01ED91FC910280F381E02D09948F92C7
:101080009F92AF92BF920F931F93CF93DF93CDB7F1
:10109000DEB7A1970FB6F894DEBF0FBECDBF19A281
:1010A000423008F44AE08E010F5D1F4F842E912CD0
:1010B000B12CA12CA50194010E94061EE62FB901B6
:1010C000CA01EA3004F5E05DD801EE938D01232BCF
:1010D000242B252B79F790E080E0109729F0BD01B3
:1010E0008DE995E00E943008A1960FB6F894DEBF16
:1010F0000FBECDBFDF91CF911F910F91BF90AF90E9
:101100009F908F900895E95CDFCFCF92DF92EF92AE
:10111000FF92CF93DF9397FF1BC06B017C016DE2C1
:101120008DE995E00E946A01EC0166277727CB01E3
:101130006C197D098E099F094AE00E943F088C0FB7
:101140009D1FDF91CF91FF90EF90DF90CF9008959A
:101150004AE0DF91CF91FF90EF90DF90CF900C9419
:101160003F08CF93DF93BC01990F880B990B0E9426
:101170008508EC0163E571E08DE995E00E94300897
:101180008C0F9D1FDF91CF9108954F925F926F92C8
:101190007F928F929F92AF92BF92CF92DF92EF9207
:1011A000FF920F931F93CF936B017C01742EAC01C0
:1011B0009B010E94A11F66E571E0811126C04601D6
:1011C0005701E894B7F82FEF3FEF4FE75FE7C5010E
:1011D000B4010E94A11F81110CC02FEF3FEF4FE718
:1011E0005FE7C501B4010E94791C6AE571E0181639
:1011F00064F02FEF3FEF4FE75FE4C701B6010E94B5
:101200004C1F1816ACF46EE571E08DE995E0CF91B6
:101210001F910F91FF90EF90DF90CF90BF90AF9014
:101220009F908F907F906F905F904F900C943008BC
:101230002FEF3FEF4FE75FECC701B6010E94791C2B
:1012400087FDE1CF20E030E0A901C701B6010E948F
:10125000791C10E000E087FF0AC06DE28DE995E09F
:101260000E946A018C01F7FAF094F7F8F094C0E05C
:1012700060E070E080E09FE37C1641F020E030E029
:1012800040E251E40E94A41ECF5FF6CFA701960171
:101290000E94381E2B013C010E941D1F4B015C0166
:1012A0004AE00E943F087C01E00EF11ECC23C1F110
:1012B000C501B4010E947E1C9B01AC01C301B201B7
:1012C0000E94371E4B015C016EE28DE995E00E94A1
:1012D0006A01E80EF91EC15018F120E030E040E24A
:1012E00051E4C501B4010E94DF1C2B013C010E94A6
:1012F0001D1F4B01B12CA12C4AE0C501B4010E9475
:101300003F08E80EF91EC501B4010E947E1C9B0136
:10131000AC01C301B2010E94371E4B015C01DBCF5F
:10132000C701CF911F910F91FF90EF90DF90CF9069
:10133000BF90AF909F908F907F906F905F904F90F5
:101340000895CF93DF9342E00E94C508EC0163E566
:1013500071E08DE995E00E9430088C0F9D1FDF91B0
:10136000CF91089585ED8093BC008091CD0290913E
:10137000CE02A091CF02B091D0020796A11DB11D5F
:1013800023E0B695A795979587952A95D1F7209153
:10139000BC0024FD03C01092CB0208954091CD0201
:1013A0005091CE026091CF027091D002452B462B16
:1013B000472B69F30097A105B10541F02AE22A9570
:1013C000F1F700C00197A109B109E1CF8091CC02EA
:1013D0000C9478051F920F920FB60F9211242F9341
:1013E0003F934F935F936F937F938F939F93AF93AD
:1013F000BF93EF93FF938091830590918405A09113
:101400008505B0918605892B8A2B8B2BD1F1909184
:101410007E05E0917F05F09180058081892780839A
:101420008091830590918405A0918505B0918605F2
:10143000181619061A061B069CF4809183059091D4
:101440008405A0918505B09186050197A109B10990
:101450008093830590938405A0938505B0938605BA
:10146000FF91EF91BF91AF919F918F917F916F917C
:101470005F914F913F912F910F900FBE0F901F9052
:101480001895809101010E947202EACF1F920F927B
:101490000FB60F9211242F933F934F935F936F9347
:1014A0007F938F939F93AF93BF93EF93FF938DE9B8
:1014B00095E00E944801FF91EF91BF91AF919F91FC
:1014C0008F917F916F915F914F913F912F910F90ED
:1014D0000FBE0F901F9018951F920F920FB60F928C
:1014E00011242F938F939F93EF93FF93E091AD057A
:1014F000F091AE058081E091B305F091B40582FDD5
:101500001BC090818091B6058F5F8F732091B705C6
:10151000821741F0E091B605F0E0E356FA4F958F5F
:101520008093B605FF91EF919F918F912F910F902E
:101530000FBE0F901F9018958081F4CF1F920F92CD
:101540000FB60F9211242F933F938F939F93AF93D6
:10155000BF938091340390913503A0913603B091ED
:1015600037033091330323E0230F2D3758F50196CD
:10157000A11DB11D20933303809334039093350351
:10158000A0933603B09337038091380390913903C9
:10159000A0913A03B0913B030196A11DB11D809328
:1015A000380390933903A0933A03B0933B03BF9160
:1015B000AF919F918F913F912F910F900FBE0F9000
:1015C0001F90189526E8230F0296A11DB11DD2CFBA
:1015D0001F920F920FB60F9211242F933F934F93A8
:1015E0005F936F937F938F939F93AF93BF93EF938B
:1015F000FF93E0913E03F0913F03309749F0A685B9
:10160000B7858585968D91FF14C09C918923A1F49F
:10161000FF91EF91BF91AF919F918F917F916F91CA
:101620005F914F913F912F910F900FBE0F901F90A0
:1016300018959C91892361F7A389B4899C91858928
:10164000809589238C93868997890197F1F7608D1E
:10165000718DA685B785558538E020E0CB010197CF
:10166000F1F7822F90E095958795282F4C9145238F
:1016700009F02068315091F7868D81FD2095809189
:101680003D0390E001968F73992730913C03381702
:1016900099F0A0913D03B0E0AD50BD4F2C938093E5
:1016A0003D03828D938D0197F1F7A389B4898C91C5
:1016B0009589892B8C93ACCF868D8160868FF1CFF5
:1016C0001F920F920FB60F9211242F933F934F93B7
:1016D0005F936F937F938F939F93AF93BF93EF939A
:1016E000FF938091B900887F803609F44AC0F0F5F5
:1016F000883209F4A7C018F5803109F49BC0B8F40A
:10170000882309F4F9C0883009F494C0FF91EF915F
:10171000BF91AF919F918F917F916F915F914F9109
:101720003F912F910F900FBE0F901F901895883109
:1017300009F488C0803251F78093C90214C0803404
:1017400009F49DC040F48033B9F38833F9F68093EF
:10175000C90285ECB0C0803509F485C0883509F42C
:1017600096C0883499F60E94B209D0CF883909F41E
:101770008CC038F5883729F050F4883611F080375E
:1017800029F683E08093CB021092A40257C08838D8
:1017900009F47BC0803919F0803809F0B7CF809107
:1017A000A402803208F071C0E091A40281E08E0FA3
:1017B0008093A4028091BB00F0E0EC57FD4F808342
:1017C0003DC0803B39F0E0F4803A09F479C0883AB2
:1017D00009F09CCF84E08093CB0210928302109298
:1017E0008202E0914203F0914303099580918202C5
:1017F00081110FC081E0809382021092620209C0C1
:10180000803C09F4A6CF883C09F4A3CF883B09F0BB
:101810007DCFE091830281E08E0F80938302F0E020
:10182000EE59FD4F80818093BB009091830280919F
:10183000820229C08091A6028093BB0085EC809330
:10184000BC0064CF9091C8028091C702981758F5E8
:10185000E091C80281E08E0F8093C802F0E0E95564
:10186000FD4F8081E9CFE091C80281E08E0F809327
:10187000C8028091BB00F0E0E955FD4F8083909154
:10188000C8028091C7029817C8F285E8D8CFE091C6
:10189000C80281E08E0F8093C8028091BB00F0E007
:1018A000E955FD4F80838091CA0281115CCF81E0B0
:1018B0008093A50284EA8093BC001092CB0226CFCD
:1018C00085EC8093BC001092CB028091A402803200
:1018D00030F4E091A402F0E0EC57FD4F10826091EB
:1018E000A40270E0E0914003F091410384E892E0AB
:1018F00009951092A4020ACF1092C90234CF1F9208
:101900000F920FB60F9211242F933F934F935F9333
:101910006F937F938F939F93AF93BF93CF93DF93F7
:10192000EF93FF9380914002C0916A06D0E087FF59
:1019300024C01092850010928400809140028F5F35
:101940008093400280914002082E000C990B8C1766
:101950009D0724F4809140028C30C4F18091840072
:1019600090918500049680349C4908F47AC0809157
:10197000840090918500049676C080914002082EE4
:10198000000C990B8C179D07C4F6E09140028E2F36
:10199000EE0F990BFC01EE0FFF1FE80FF91FEA5B3A
:1019A000F94F808186FFC9CFE09140028E2FEE0F64
:1019B000990BFC01EE0FFF1FE80FF91FEA5BF94FCF
:1019C000808160E08F730E944402B7CF2091840031
:1019D00030918500E09140028E2FEE0F990BFC01B3
:1019E000EE0FFF1FE80FF91FEA5BF94F818192812B
:1019F000820F931F9093890080938800E0914002AA
:101A00008E2FEE0F990BFC01EE0FFF1FE80FF91F51
:101A1000EA5BF94F808186FF11C0E09140028E2F72
:101A2000EE0F990BFC01EE0FFF1FE80FF91FEA5BA9
:101A3000F94F808161E08F730E944402FF91EF9122
:101A4000DF91CF91BF91AF919F918F917F916F91D6
:101A50005F914F913F912F910F900FBE0F901F906C
:101A6000189580E49CE990938900809388008FEF1B
:101A700080934002E3CFCF92DF92EF92FF920F93D9
:101A80001F93E82FF92F05C00150110921093109D1
:101A900061F1908196239417B9F305C001501109A3
:101AA0002109310911F1908196239413F7CFC12CAC
:101AB000D12CE12CF12C0AC08FEFC81AD80AE80A01
:101AC000F80A0C151D052E053F0579F08081862347
:101AD000841791F36C2D7D2D8E2D9F2D1F910F91CD
:101AE000FF90EF90DF90CF90089560E070E080E08D
:101AF00090E01F910F91FF90EF90DF90CF900895AD
:101B00001092A00510929F0588EE93E0A0E0B0E04F
:101B10008093A1059093A205A093A305B093A4057B
:101B200025E131E030939E0520939D0525EC30E0C2
:101B30003093AA052093A90524EC30E03093AC053E
:101B40002093AB0520EC30E03093AE052093AD053B
:101B500021EC30E03093B0052093AF0522EC30E06B
:101B60003093B2052093B10526EC30E03093B405F4
:101B70002093B3051092B6051092B7051092B805E0
:101B80001092B90510923D0610923C0680933E06D5
:101B900090933F06A0934006B093410627E231E0C0
:101BA00030933B0620933A0610928B0610928A06D9
:101BB00080938C0690938D06A0938E06B0938F062B
:101BC00085E491E0909389068093880610929F06A1
:101BD00010929E061092A1061092A0061092A306E3
:101BE0001092A2061092A5061092A4066091A60675
:101BF0006E7F6D7F6093A6066695617081E06827B1
:101C000083E00E94440261E083E00E949E02E6E2DB
:101C1000F1E0E491E0939806E2E1F1E0E491F0E094
:101C2000EE0FFF1FEB5FFE4F8591949190939A0604
:101C30008093990660E082E00E949E028091A60651
:101C400081FD04C061E082E00E94440282E0809352
:101C50009406E5E2F1E0E491E0939506E1E1F1E03C
:101C6000E491F0E0EE0FFF1FE550FF4F8591949156
:101C7000909397068093960610927F0610928406A2
:101C800010928506109286061092870610928006A2
:101C900010928106109282061092830680916A0645
:101CA0008C3040F591E0980F90936A068093770608
:101CB00090E0FC01EE0FFF1FE80FF91FEA5BF94F00
:101CC00088EB9BE09283818310926E0610926D06E2
:101CD00089E391E090936C0680936B0687E2809392
:101CE0006F0680E18093740682E0809375061092FF
:101CF000760608958FEF80937706E6CFCF93DF9334
:101D0000CDB7DEB7C858D1090FB6F894DEBF0FBE05
:101D1000CDBF789484B5826084BD84B5816084BD74
:101D200085B5826085BD85B5816085BD80916E0079
:101D3000816080936E0010928100809181008260AA
:101D400080938100809181008160809381008091E7
:101D500080008160809380008091B10084608093D6
:101D6000B1008091B00081608093B00080917A00D2
:101D7000846080937A0080917A00826080937A00F8
:101D800080917A00816080937A0080917A008068E7
:101D900080937A001092C100E091AD05F091AE05FC
:101DA00082E08083E091A905F091AA051082E0917C
:101DB000AB05F091AC0580E180831092B505E09110
:101DC000B105F091B20586E08083E091AF05F09116
:101DD000B005808180618083E091AF05F091B0050E
:101DE000808188608083E091AF05F091B0058081AB
:101DF00080688083E091AF05F091B00580818F7D90
:101E000080831092A3061092A2061092A10610924F
:101E1000A00610929F0610929E068DE991E0909385
:101E2000A5068093A40690919406963108F047C0C9
:101E30002DEB30E030939F0620939E062BE931E096
:101E40003093A1062093A0062CE231E03093A30644
:101E50002093A2062091680084E0983048F031E099
:101E60009E3008F430E081E001C0880F3A95EAF72F
:101E7000822B809368002DE630E0983050F02BE6FE
:101E800030E09E3030F02CE630E0963110F030E05B
:101E900020E030939C0620939B06292F30E0983059
:101EA00008F0F9C081E001C0880F9A95EAF78093A5
:101EB0009D068091A4069091A5060197F1F7809167
:101EC000A2069091A306892B49F1E0913E03F0917F
:101ED0003F0326E0E838F20709F1309739F0A3898B
:101EE000B4899C918589809589238C938091A606DD
:101EF0008E7F8093A60610923D0310923C0388E8E3
:101F000096E090933F0380933E03E0919B06F0910F
:101F10009C06808190919D06892B808310924703B7
:101F20001092460310924503109244030E945A05F2
:101F300088EC90E0909343038093420389EC90E017
:101F40009093410380934003109270068091750630
:101F5000823018F098E0909370068093730662E3E5
:101F600070E080E090E00E940F03609176068BE6BF
:101F700096E00E941E0668EE73E080E090E00E940A
:101F80000F0360E38BE696E00E94A8070BE416E4DB
:101F9000C8010197F1F760E38BE696E00E94A8077D
:101FA000C8010197F1F760E38BE696E00E94A8076D
:101FB00083E592E00197F1F760E28BE696E00E94FC
:101FC000A80760917006606240E08BE696E00E9490
:101FD000C10784E08093710640E06CE08BE696E0F8
:101FE0000E94C10740E061E08BE696E00E94C107D5
:101FF0000BE31FE1C8010197F1F782E080937206BD
:1020000040E066E08BE696E00E94C10740E062E0B7
:102010008BE696E00E94C107C8010197F1F788E0BE
:102020008093760660E08BE696E00E941E06CE0165
:102030008F5A9F4FAF969FAF8EAFAF97809102019F
:102040008111109202018DE995E00E942801892BEF
:1020500011F40C94DC1B66E070E080E090E00E94DC
:102060000F03E8E4F3E080E4DF011D928A95E9F7CD
:10207000F12C8DE995E00E9428010F2D10E0085BFE
:102080001C4F892BA9F08DE995E00E940601F8010B
:102090008083F394EECF9E3040F42850310981E0E4
:1020A00001C0880F2A95EAF702CF2E503109F7CFE9
:1020B000D8011C9264E771E088E493E00E94451C1B
:1020C0002C0164E771E090E080E00E94451C1C0157
:1020D00064E771E090E080E00E94451CE7969FAFC6
:1020E0008EAFE79764E771E090E080E00E94451CC6
:1020F000ED969FAF8EAFED9766E771E0C2010E944B
:102100004622892B61F46AE771E08DE995E00E942F
:10211000300863E571E08DE995E00E94300862E8DF
:1021200071E0C2010E944622892B09F01BC26AE8B5
:1021300071E0E7968EAD9FADE7970E94451C6C015C
:102140006AE871E090E080E00E94451C7C016AE84A
:1021500071E090E080E00E94451C0E94271C8C01E9
:10216000C7010E94271C7C01C6010E94271CD82E93
:10217000C92E62968FAF629763969FAF63976596FD
:10218000FFAEEEAE659767961FAF0EAF679781E023
:1021900090E069969FAF8EAF699761E08D2D0E94A8
:1021A0009E0261E064968FAD64970E949E0261E09A
:1021B00066968FAD66970E949E0261E066968FAD2F
:1021C00066970E9444026296DFAE62976396CFAE36
:1021D0006397FE0171969E012F5F3F4FE3963FAFDD
:1021E0002EAFE3971192AF968EAD9FADAF978E173E
:1021F0009F07C1F710E000E069968EAD9FAD69972B
:1022000008171907CCF520E04FE0B801CE01019680
:102210000E94080769968EAD9FAD69970817190748
:102220003CF427E04BE0B801CE0101960E9408077C
:1022300020E049E0B801CE0101960E9408076996A6
:102240008EAD9FAD6997081719072CF4B801CE0120
:1022500001960E94830769968EAD9FAD6997081716
:1022600019073CF420E04CE0B801CE0101960E9431
:1022700008070F5F1F4FC0CF1816190634F470E01F
:1022800060E0CE0101960E94830769968EAD9FADF6
:1022900069971816190644F421E04CE070E060E0FC
:1022A000CE0101960E94080769968EAD9FAD699791
:1022B0001816190644F425E04AE070E060E0CE010B
:1022C00001960E940807F1013196DE01A75ABF4F1F
:1022D000C101439621912D938E179F07D9F7EF9651
:1022E0001FAE1EAEEF9791E0E8969FAFE897DE0134
:1022F000A75ABF4FAD96BFAFAEAFAD97AD96EEAD9F
:10230000FFADAD9701900020E9F731974F01AD96F1
:102310002EAD3FADAD97821A930AB4016F5F7F4F28
:1023200090E080E00E9480213C01009709F46AC09F
:10233000DC011C92BE01675A7F4F0E944F22B0E021
:10234000A0E020E030E040E050E060E070E080E0BD
:1023500090E0A815B9050CF0A3C004E00E94082085
:1023600059016A017B018C01A815B90508F059C013
:102370006114710409F455C0F301EA0FFB1FE081F9
:10238000E053E73308F04DC00E2E000CFF0BE55371
:10239000FE4E0C94FB1F4C1205120A122312281237
:1023A0002D12321237123C123E121112111211125A
:1023B000111211121112111240124212441246123D
:1023C00048124A1211121112111211121112111285
:1023D00011121112111211121112111211121112E5
:1023E00011121112111211121112111211121112D5
:1023F00011121112111211124012421244124612FD
:1024000048124A12912C812C9ACFE1E0E196EFAF6D
:10241000E19704C0F2E0E196FFAFE197E0961FAECE
:10242000E097E1962FADE197E0963FADE097932FCF
:10243000990F990B492F592F692F792F892F0E94B6
:102440003E20119686CF23E0E1962FAFE197E6CFAD
:1024500034E0E1963FAFE197E1CF45E0E1964FAF41
:10246000E197DCCF86E0E1968FAFE197D7CF97E099
:10247000E1969FAFE197D2CFE8E0C8CFF9E0CBCFAC
:102480002AE0E2CF3BE0E5CF4CE0E8CF8DE0EBCFB8
:102490009EE0EECFEFE0BACFE1961FAEE197BECF60
:1024A000EE960FADEE970E942320E22E6114710488
:1024B00019F0C3010E94F72010E000E0F12C6996AA
:1024C0008EAD9FAD69971816190654F580E890E017
:1024D000002E02C0959587950A94E2F7E396AEAD7B
:1024E000BFADE39750962C915097A701002E02C0E4
:1024F000559547950A94E2F740FF6FC0822B50969E
:102500008C93E396AEADBFADE39750962C91E896D1
:102510004FADE89770E060E0CE0101960E94080799
:102520000F5F1F4F0830110551F6E396EEADFFAD7A
:10253000E3973196E396FFAFEEAFE397E896FFADF2
:10254000E897FF5FE896FFAFE897EF962EAD3FADB7
:10255000EF97285F3F4FEF963FAF2EAFEF97F930E1
:1025600009F0CCCE6CE871E0C2010E944622892BB2
:1025700009F025C10AE010E088E896E00E94B70360
:10258000892B09F4DCC088E896E00E94CD032091F5
:102590007C0530917D05A9014F5F5F4F50937D050C
:1025A00040937C05220F331FF901E857FC4F992710
:1025B000918380838091880390918903823491056F
:1025C000A1F080918A0390918B038D34910569F07D
:1025D00010927D0510927C05CFCF80958223E396E3
:1025E000EEADFFADE397808B8CCF4732510520F2E3
:1025F00030919003C058DF4F3883C058D040C15845
:10260000DF4F1882CF57D04080919203909193036F
:10261000C158DF4FA881B981CF57D0408A0F9B1F87
:1026200090939C0580939B05B0919403CE57DF4F08
:10263000B883C258D040CF57DF4F1882C158D0401E
:102640008091960390919703CF57DF4FE881F981EE
:10265000C158D0408E0F9F1F90939A058093990583
:10266000F0919803CC57DF4FF883C458D040CD5732
:10267000DF4F1882C358D04080919A0390919B03FA
:10268000CD57DF4F28813981C358D040820F931F27
:1026900090939805809397053091B803CA57DF4F00
:1026A0003883C658D040CB57DF4F1882C558D0402A
:1026B0008091BA039091BB03CB57DF4FA881B981BA
:1026C000C558D0408A0F9B1FB8010E94E71F072EF4
:1026D000000C880B990B0E94801C609393057093EB
:1026E00094058093950590939605B091BC03C857C7
:1026F000DF4FB883C858D040C957DF4F1882C7583A
:10270000D0408091BE039091BF03C957DF4FE8814D
:10271000F981C758D0408E0F9F1FB8010E94E71F54
:10272000072E000C880B990B0E94801C60938F056C
:1027300070939005809391059093920549CF609195
:102740009B0570919C0590E080E04AE00E943F0864
:1027500089EF90E00E94B7016091990570919A0508
:1027600090E080E04AE00E943F0887EF90E00E94FE
:10277000B701609197057091980590E080E04AE07C
:102780000E943F0885EF90E00E94B7016091930599
:1027900070919405809195059091960542E00E9474
:1027A000C50883EF90E00E94B70160918F0570919A
:1027B000900580919105909192050E94A1096FE882
:1027C00071E0C2010E944622892B09F0B1C0C1010B
:1027D0000E94271C082F81EF90E00E94B70121146E
:1027E000310429F0B1018DE995E00E9430088FEEA7
:1027F00090E00E94B70181E08093000115E0C12CB8
:10280000D12C7601802F0E94CF02BC0190E080E0A5
:102810000E947E1C9B01AC01C701B6010E94381EBC
:102820006B017C016AE070E080E090E00E940F03A1
:10283000115041F720E030E040EA50E4C701B60112
:102840000E94A41E6B017C0163E971E08DE995E0B3
:102850000E943008C701B6010E94A109A701960194
:1028600060E070EC8FE794E40E94A41E20E030E06A
:1028700040E85FE30E94371E20E030E44CE156E47C
:102880000E94DF1C6B017C016BEA71E08DE995E031
:102890000E943008C701B6010E94A10920E030E47F
:1028A0004CE156E4C701B6010E94A41E0E94591FC4
:1028B00020E030EE46E755E40E94A41E2FE03FECF6
:1028C0004BE55BE30E94381E9B01AC0160E070E0C9
:1028D00080E89FE30E94A41E23E333E948E853E421
:1028E0000E94371E6B017C0162EC71E08DE995E07E
:1028F0000E94300842E0C701B6010E94C5086FEC93
:1029000071E08DE995E00E94300863E571E08DE9A2
:1029100095E00E94300820E030E040E251E4C70139
:10292000B6010E94DF1C0E94161FCB010E94B10855
:1029300063ED71E0C2010E944622892B91F465ED9E
:1029400071E0C1010E944622892B09F08EC040E04F
:1029500061E08BE696E00E94C1078BE39FE101975F
:10296000F1F76BED71E0C2010E944622892B09F05C
:10297000E8C0C1010E94271CBC01CE0101960E9443
:10298000DE07CE0101960E941F056AE871E0E79616
:102990008EAD9FADE7970E94451C612C712C812C58
:1029A000912CD12CC12CAAE0AA2EB12C0E94271C5C
:1029B000FC01843691050CF4B5C064E670E00E9419
:1029C000E71F9B014CE94603C001479F900D11246E
:1029D0008E0F9F1FB5010E94E71F8B01CF01B5012C
:1029E0000E94E71F7C01B9016150710901151105B1
:1029F00009F480C00130110509F067C06C01CC0CEE
:102A0000DD1CC80ED91E10E000E08B819C81681788
:102A1000790710F596010D2C000C440B550BA901FC
:102A200033272227C7010F2C000CAA0BBB0BBA2F90
:102A3000A92F982F8827822B932BA42BB52B980195
:102A4000012E000C440B550B282B392B4A2B5B2BEA
:102A5000CE0101960E94EE036AE871E090E080E00A
:102A60000E94451C38014701A1CFE7968EAD9FAD6E
:102A7000E7970E94271C98E0E9E0F1E0DE0111965B
:102A800001900D929A95E1F790917306981710F4C2
:102A90008FEF890FE82FF0E0EE0FFF1F21E030E00D
:102AA0002C0F3D1FE20FF31F6081606840E08BE652
:102AB00096E00E94C1072114310409F452CFB101FC
:102AC0008BE696E00E9430084CCF02301105B1F041
:102AD00003301105B9F004301105C9F005301105B6
:102AE000D1F006301105C9F007301105C9F0830196
:102AF00074018BCF6C01F12CE12C87CF10E000E04A
:102B0000670183CF10E000E0D12CC12C7ECF8C0177
:102B1000F12CE12CF9CF8C01F7CF8C016C01EBCFBC
:102B20008C01EECFCE0101960E944A048A859B85D6
:102B30000E94F7208F81988597FD03C060E00E9476
:102B40009E026EED71E0C2010E944622892B09F0BF
:102B500087C06AE871E0E7968EAD9FADE7970E9467
:102B6000451C0E94271C082F6AE871E090E080E075
:102B70000E94451C0E94271C882E6AE871E090E0A4
:102B800080E00E94451C0E94271C182FC1010E9452
:102B9000271CBC01CE0101960E94DE07CE010196E2
:102BA0000E941F05912CB12CA12CBA2CA92C982C79
:102BB0008824A02A812AED96EEACFFACED97670140
:102BC0008CE0C80ED11C05E511E0D7018D917D0187
:102BD000813319F1823309F401C1833309F401C14E
:102BE000843309F401C1853309F401C1863309F442
:102BF00001C1873309F401C1883309F401C1893364
:102C000009F401C1813609F401C1823609F401C118
:102C1000833629F401E711E002C00FE611E0C80194
:102C20000E94271C2B813C818217930738F4A50151
:102C30009401BC01CE0101960E94EE03CE14DF0484
:102C400021F6CE0101960E944A048A859B850E9446
:102C5000F7208F81988597FD03C060E00E949E0257
:102C600061EE71E0C2010E944622892B09F06CC01E
:102C7000C1010E94271CF82EE7968EAD9FADE79705
:102C80000E94271C8C0161E08F2D0E949E0260E053
:102C9000802F0E949E0260E08F2D0E9444028FE0F0
:102CA00090E00197F1F761E08F2D0E94440283E2EA
:102CB00090E00197F1F760E08F2D0E94440260E000
:102CC000802F0E949E021127F801ED5DFE4F649156
:102CD000F801E15FFE4FE491F0E0EE0FFF1FE550D9
:102CE000FF4F8591949100E412E42FE030E0462FED
:102CF0000E943B0D6B017C01C114D104E104F1047D
:102D000039F0BFEFCB1ADB0AEB0AFB0AEFE0FE2239
:102D10008BEE90E00E94B701C701B60195958795AB
:102D2000779567950E94801C2DEC3CEC48EE51E4B1
:102D30000E94A41E0E94161F0E94850863E571E090
:102D40008DE995E00E94300869EE71E0C2010E94B1
:102D500046227C01892B09F0C6C0C1010E94271CB4
:102D600060E00E949E02C1010E94271C182F8091E2
:102D70007F06882309F0F89410927A0610927B0659
:102D800010927C0610927D0610927E0661E0812FE3
:102D90000E949E0260E0812F0E94440262E170E086
:102DA00080E090E00E940F0360E0812F0E949E026D
:102DB0008BE990E00197F1F7A0E9CA2EDD24D394C6
:102DC000812F0E941B02892B39F5F1E0CF1AD1081F
:102DD000B9F75EEFE52EFF24FA9469C002E711E02F
:102DE0001ECF02E611E01BCF00E811E018CF07EE7E
:102DF00011E015CF04E611E012CF06E611E00FCF87
:102E000008E611E00CCF0AE611E009CF0CE611E06C
:102E100006CF0EE611E003CFF0E9CF2EDD24D394E8
:102E2000812F0E941B02019729F421E0C21AD108C8
:102E3000B9F7CFCFE8E2DE2E00E8C12C70E9A72E6B
:102E4000BB24B394812F0E941B02892B29F431E00B
:102E5000A31AB108B9F7BDCF0E94EA023B014C01A9
:102E600060E9A62EBB24B394812F0E941B02019718
:102E700029F441E0A41AB108B9F7ABCF0E94EA02E5
:102E800066197709880999096932710581059105E3
:102E900038F0EC2DF0E0E658F94F8081802B8083EC
:102EA000069511F4C39400E8DA94D110C7CF80914D
:102EB0007F06882309F07894EF2809F421C180E087
:102EC00090ECA9E7B4EC8093800690938106A093E0
:102ED0008206B09383068093840690938506A09320
:102EE0008606B093870662EF71E0C2010E94462217
:102EF000892BC9F4609184067091850680918606BD
:102F00009091870642E00E94C50889EE90E00E94F9
:102F1000B701609180067091810680918206909140
:102F200083060E94A1096CEF71E0C2010E94462253
:102F3000892B09F03CC2C1010E94271C7C01ED963F
:102F40008EAD9FADED970E94271C0397ED969FAF26
:102F50008EAFED97092E000CAA0BBB0BE5968CAF3C
:102F60009DAFAEAFBFAFE597E7968EAD9FADE7974C
:102F70000E94271C3C01809101018E1110C1ECECD4
:102F8000F0E0149117FD00C261E08E2D0E949E02B8
:102F9000112319F0123009F055C34301B12CA12CB3
:102FA00060E072E18AE790E0A50193010E949D1D17
:102FB000EB962CAF3DAF4EAF5FAFEB9769017A0157
:102FC00091E0C91AD108E108F108AFEFCA16D1049F
:102FD000E104F10409F00CF4ACC160E472E48FE0A8
:102FE00090E0A50193010E949D1D69017A01B1E065
:102FF000CB1AD108E108F108123009F04DC182E086
:10300000EFEFCE16D104E104F10409F00CF471C025
:1030100060E970ED83E090E0A50193010E949D1DA1
:1030200069017A01F1E0CF1AD108E108F10883E0E3
:103030002FEFC216D104E104F10409F00CF459C0D9
:1030400068E478EE81E090E0A50193010E949D1D67
:1030500069017A01F1E0CF1AD108E108F10884E0B2
:103060002FEFC216D104E104F10409F00CF441C0C1
:1030700064E274EF80E090E0A50194010E949D1D40
:1030800069017A0191E0C91AD108E108F10885E0E7
:10309000AFEFCA16D104E104F10459F150F162E135
:1030A0007AE780E090E0A50194010E949D1D6901EE
:1030B0007A0181E0C81AD108E108F10886E09FEFA3
:1030C000C916D104E104F104A1F098F0EB96CCAC60
:1030D000DDACEEACFFACEB978AE0F594E794D794C7
:1030E000C7948A95D1F7E1E0CE1AD108E108F1083A
:1030F00087E09091B100987F892B8093B10020C127
:1031000060917B0670E090E080E00E94801C2DECD6
:103110003CEC4CEC5DE30E94DF1C6B017C01609198
:103120007A0670E090E080E00E94801C9B01AC0178
:10313000C701B6010E94381E609380067093810615
:10314000809382069093830610917C0660917D06A1
:1031500070E090E080E00E94801C2DEC3CEC4CEC98
:103160005DE30E94DF1C6B017C01612F6F7770E0D3
:1031700090E080E00E94801C9B01AC01C701B60179
:103180000E94381E17FD09C060938406709385065F
:103190008093860690938706A6CE9058F5CF8F3FF2
:1031A00009F0F2C0E0920101ECECF0E014911F3F55
:1031B00009F4EAC0113041F150F0123009F446C070
:1031C00017FDE2C061E08E2D0E949E02E3CE14BC8A
:1031D00015BC84B5826084BD85B5816085BDC7019D
:1031E0009927FC01E15FFE4FE491F0E0EE0FFF1F35
:1031F000EB5FFE4F25913491FC01ED5DFE4FE491B4
:10320000E093820510E0C0CE109280001092810001
:10321000809181008860809381008091810081602D
:1032200080938100C7019927FC01E15FFE4FE49183
:10323000F0E0EE0FFF1FEB5FFE4F25913491FC0194
:10324000ED5DFE4FE491E09381059ECE1092B000BB
:103250001092B1008091B00082608093B0008091A4
:10326000B10081608093B100C7019927FC01E15F43
:10327000FE4FE491F0E0EE0FFF1FEB5FFE4F259154
:1032800034913093800520937F05FC01ED5DFE4F66
:10329000E491E0937E0578CE3FEFC316D104E104BC
:1032A000F10409F00CF4CCC168E478EE81E090E020
:1032B000A50193010E949D1D69017A0181E0C81A50
:1032C000D108E108F10884E01111E2CE83E03FEF7C
:1032D000C316D104E104F10479F174F162E17AE7F3
:1032E00080E090E0A50194010E949D1D69017A0192
:1032F000A1E0CA1AD108E108F10884E0BFEFCB16BB
:10330000D104E104F104C1F0B8F0EB96CCACDDAC33
:10331000EEACFFACEB979AE0F594E794D794C794A2
:103320009A95D1F7B1E0CB1AD108E108F10885E010
:1033300003C081E01111DDCE95B5987F892B85BD45
:10334000E5968CAD9DADAEADBFADE5972FEF3FEFF0
:10335000A901892B8A2B8B2B09F0B2C1113009F4FA
:10336000BFC1123009F4CEC111110EC0C7BC2093E9
:103370008B0530938C0540938D0550938E0580917D
:103380006E00826080936E00E5966CAD7DAD8EAD73
:103390009FADE5970E940F03C1010E94271C0E9468
:1033A000720262E070E080E090E00E940F0365E04E
:1033B00072E0C2010E944622892B09F0DEC0C101E1
:1033C0000E94271C182F809177068C3008F052C07D
:1033D00061E0812F0E949E0280917706282F30E0C5
:1033E000F901EE0FFF1FE20FF31FEA5BF94F1F73A6
:1033F0009081907C912B90831092780610927906A0
:103400002CE0622F0E94DB1F829FB001112430E06C
:1034100020E0AB01420F531FFA01EE0FFF1FE40F34
:10342000F51FEA5BF94F908196FD16C02F5F3F4F65
:103430002C30310571F781110FC01092800082E0AD
:10344000809381001092850010928400B19A80913F
:103450006F00826080936F00E09177068E2F90E07E
:10346000FC01EE0FFF1FE80FF91FEA5BF94F8081A7
:103470008064808310917706E7968EAD9FADE797C5
:103480000E94271C8032A2E09A070CF03DC02091D8
:103490007806E8E8CE2ED12CC21AD10827FDD394A5
:1034A000CC0CDD1CCC0CDD1C0D2C000CEE08FF0838
:1034B0004091790628E532E0241B310947FD339518
:1034C000220F331F220F331F032E000C440B550B0A
:1034D0002C193D094E095F09DC01853B910514F06B
:1034E000A4EBB0E0B7FF02C0B0E0A0E00E94C71DAF
:1034F00024EB30E040E050E00E949D1DDA01C9015C
:103500008C0D9D1DAE1DBF1D1C3088F520917806C9
:1035100048E850E0421B510927FD5395440F551FC1
:10352000440F551F8417950784F02091790648E5CC
:1035300052E0421B510927FD5395440F551F440F7C
:10354000551F841795070CF4AC0142505109440FE4
:10355000551F2FB7F894812F90E0FC01EE0FFF1F4D
:10356000E80FF91FEA5BF94F528341832FBF64E6EE
:1035700070E080E090E00E940F0360E172E0C20121
:103580000E944622892BC1F487EE90E00E94B70189
:10359000C1010E94271CBC01990F880B990B0E9446
:1035A000850885EE90E00E94B701C1010E94271CAA
:1035B0000E94CF020E94B1086BE172E0C2010E943A
:1035C0004622892BF1F4C1010E94271C60E00E9471
:1035D0009E0283EE90E00E94B701C1010E94271C69
:1035E000BC01990F880B990B0E94850881EE90E031
:1035F0000E94B701C1010E94271C0E941B020E9469
:10360000B10867E272E0C2010E944622892B09F0EC
:10361000B6C0E7968EAD9FADE7970E94271C8C0140
:10362000C1010E94271C7C0161E00E949E020115DD
:10363000110509F077C060E08E2D0E9444029FC002
:1036400082E078CEB12CA12C60E072E18AE790E0B4
:10365000A50193010E949D1D69017A01E1E0CE1A46
:10366000D108E108F10891E0C114D104F1E0EF06BE
:10367000F10484F068E478EE81E090E0A501930124
:103680000E949D1D69017A0181E0C81AD108E108F4
:10369000F10893E0113009F053CE80918100887FCA
:1036A000892B80938100E5968CAD9DADAEADBFAD0D
:1036B000E5972FEF3FEFA901892B8A2B8B2B81F008
:1036C0009301220F331FED96AEADBFADED970E9473
:1036D000012028EE33E040E050E00E94061E3ECE7E
:1036E000D0928900C0928800209387053093880586
:1036F0004093890550938A0580916F008260809382
:103700006F0042CEC092B3002093830530938405AE
:103710004093850550938605809170008260809368
:10372000700032CE0F3F110511F461E085CFF70133
:10373000FF27E353FF4FE491E33009F452C048F40C
:10374000E130C9F0E23009F447C0003811056CF7E8
:1037500072CFE73009F44FC0E83009F454C0E430C8
:10376000A1F78091800080628093800010938B008D
:1037700000938A0004C084B5806884BD07BD63E3FC
:1037800072E0C2010E944622892B99F4C1010E9475
:10379000271C61E00E949E02E7968EAD9FADE797E1
:1037A0000E94271C182FC1010E94271C612F0E9414
:1037B000440281E08093020180E090E0892B11F4C3
:1037C0000C941E100E943401882311F40C941E10D6
:1037D0000E9400000C941E1084B5806284BD08BD58
:1037E000CECF809180008068809380001093890004
:1037F00000938800C4CF8091B00080688093B000AF
:103800000093B300BCCF8091B00080628093B00081
:103810000093B400B4CF85E491E09093890680933F
:10382000880680913E0390913F038858964071F43A
:10383000E0919B06F0919C06908180919D06809579
:103840008923808310923F0310923E030895FC0168
:1038500088279927E89421912032E9F3293010F044
:103860002E30C8F32B3241F02D3239F4689404C065
:103870000E94711C820F911D219120532A30C0F3A8
:103880001EF4909581959F4F089547EA56E00E9457
:103890004A1C0895FA01A191B081009719F410977C
:1038A000E1F0CD01DC01CD010D90002011F4C0014B
:1038B00013C0FB012191222319F02015D9F7F3CF72
:1038C000FB012191201519F41E92119606C02223A6
:1038D000C1F70D900020A1F7D001FA01A193B083A8
:1038E00008957AE0979F902D879F802D910D112448
:1038F00008950E94BB1C08F481E00895E89409C073
:1039000097FB3EF490958095709561957F4F8F4F12
:103910009F4F9923A9F0F92F96E9BB279395F69528
:10392000879577956795B795F111F8CFFAF4BB0FA6
:1039300011F460FF1BC06F5F7F4F8F4F9F4F16C00A
:10394000882311F096E911C0772321F09EE8872F94
:10395000762F05C0662371F096E8862F70E060E050
:103960002AF09A95660F771F881FDAF7880F9695C9
:10397000879597F90895990F0008550FAA0BE0E86D
:10398000FEEF16161706E807F907C0F01216130621
:10399000E407F50798F0621B730B840B950B39F461
:1039A0000A2661F0232B242B252B21F408950A26C7
:1039B00009F4A140A6958FEF811D811D08950E94F5
:1039C000F21C0C94631D0E94551D38F00E945C1D72
:1039D00020F0952311F00C944C1D0C94521D1124D1
:1039E0000C94971D0E94741D70F3959FC1F3950F61
:1039F00050E0551F629FF001729FBB27F00DB11D73
:103A0000639FAA27F00DB11DAA1F649F6627B00D02
:103A1000A11D661F829F2227B00DA11D621F739FEB
:103A2000B00DA11D621F839FA00D611D221F749FF9
:103A30003327A00D611D231F849F600D211D822F40
:103A4000762F6A2F11249F5750409AF0F1F0882367
:103A50004AF0EE0FFF1FBB1F661F771F881F915094
:103A60005040A9F79E3F510580F00C944C1D0C94DA
:103A7000971D5F3FE4F3983ED4F38695779567955D
:103A8000B795F795E7959F5FC1F7FE2B880F911DBE
:103A90009695879597F9089597F99F6780E870E064
:103AA00060E008959FEF80EC089500240A941616B4
:103AB000170618060906089500240A94121613061C
:103AC000140605060895092E0394000C11F48823AA
:103AD00052F0BB0F40F4BF2B11F460FF04C06F5FC6
:103AE0007F4F8F4F9F4F089557FD9058440F551F9C
:103AF00059F05F3F71F04795880F97FB991F61F070
:103B00009F3F79F087950895121613061406551FE6
:103B1000F2CF4695F1DF08C0161617061806991F52
:103B2000F1CF86957105610508940895E894BB2747
:103B300066277727CB0197F90895052E97FB1EF48A
:103B400000940E94B41D57FD07D00E94061E07FC7A
:103B500003D04EF40C94B41D5095409530952195AA
:103B60003F4F4F4F5F4F08959095809570956195A9
:103B70007F4F8F4F9F4F08950E94281EA59F900D45
:103B8000B49F900DA49F800D911D11240895B7FF3F
:103B90000C94BC1D0E94BC1D821B930B08952F9298
:103BA0003F924F925F926F927F928F929F92AF92CD
:103BB000BF92CF92DF92EF92FF920F931F93CF931A
:103BC000DF93CDB7DEB7CA1BDB0B0FB6F894DEBFB1
:103BD0000FBECDBF09942A88398848885F846E84D7
:103BE0007D848C849B84AA84B984C884DF80EE8021
:103BF000FD800C811B81AA81B981CE0FD11D0FB62A
:103C0000F894DEBF0FBECDBFED010895A1E21A2EDC
:103C1000AA1BBB1BFD010DC0AA1FBB1FEE1FFF1F70
:103C2000A217B307E407F50720F0A21BB30BE40BC0
:103C3000F50B661F771F881F991F1A9469F7609507
:103C40007095809590959B01AC01BD01CF010895C1
:103C5000A29FB001B39FC001A39F700D811D1124CD
:103C6000911DB29F700D811D1124911D0895505812
:103C7000BB27AA270E944F1E0C94631D0E94551D4E
:103C800038F00E945C1D20F039F49F3F19F426F4AF
:103C90000C94521D0EF4E095E7FB0C944C1DE92F9B
:103CA0000E94741D58F3BA176207730784079507BB
:103CB00020F079F4A6F50C94961D0EF4E0950B2EE9
:103CC000BA2FA02D0B01B90190010C01CA01A0016E
:103CD0001124FF27591B99F0593F50F4503E68F1C9
:103CE0001A16F040A22F232F342F4427585FF3CF0A
:103CF000469537952795A795F0405395C9F77EF4DB
:103D00001F16BA0B620B730B840BBAF09150A1F023
:103D1000FF0FBB1F661F771F881FC2F70EC0BA0FA9
:103D2000621F731F841F48F4879577956795B79531
:103D3000F7959E3F08F0B0CF9395880F08F099272C
:103D4000EE0F9795879508950E94B81E0C94631DF9
:103D50000E945C1D58F00E94551D40F029F45F3F01
:103D600029F00C944C1D51110C94971D0C94521D6C
:103D70000E94741D68F39923B1F3552391F3951BA9
:103D8000550BBB27AA2762177307840738F09F5F7C
:103D90005F4F220F331F441FAA1FA9F335D00E2EE9
:103DA0003AF0E0E832D091505040E695001CCAF756
:103DB0002BD0FE2F29D0660F771F881FBB1F261719
:103DC00037074807AB07B0E809F0BB0B802DBF01F0
:103DD000FF2793585F4F3AF09E3F510578F00C94BF
:103DE0004C1D0C94971D5F3FE4F3983ED4F38695E9
:103DF00077956795B795F7959F5FC9F7880F911DE0
:103E00009695879597F90895E1E0660F771F881FCB
:103E1000BB1F621773078407BA0720F0621B730B7E
:103E2000840BBA0BEE1F88F7E09508950E941D1FC2
:103E30006894B1110C94971D08950E947C1D88F020
:103E40009F5798F0B92F9927B751B0F0E1F0660F5E
:103E5000771F881F991F1AF0BA95C9F714C0B1309F
:103E600091F00E94961DB1E008950C94961D672F65
:103E7000782F8827B85F39F0B93FCCF386957795CE
:103E80006795B395D9F73EF49095809570956195B7
:103E90007F4F8F4F9F4F08950E94BB1C08F48FEFF8
:103EA000089516F00C94A61F0C94521D68940C945F
:103EB0004C1D0E947C1DA8F39923C1F3AEF3DF9340
:103EC000CF931F930F93FF92C92FDD2788232AF0EA
:103ED0002197660F771F881FDAF720E030E040E86F
:103EE0005FEB9FE3883920F0803E38F021968F7792
:103EF0000E94381EE8E6F0E004C00E94381EE5E9A2
:103F0000F0E00E94B41F8B01BE01EC01FB2E6F5745
:103F100071097595771F880B990B0E94801C28E109
:103F200032E741E35FE30E94F21CAF2D9801AE013E
:103F3000FF900F911F91CF91DF910E944F1E0C9423
:103F4000631D0E94BB1C880B990B08959F3F31F0A5
:103F5000915020F4879577956795B795880F911DB7
:103F60009695879597F90895DF93CF931F930F93B5
:103F7000FF92EF92DF927B018C01689406C0DA2EEB
:103F8000EF010E94F21CFE01E894A5912591359164
:103F900045915591A6F3EF010E944F1EFE01970136
:103FA000A801DA9469F7DF90EF90FF900F911F91CD
:103FB000CF91DF910895991B79E004C0991F96175E
:103FC00008F0961B881F7A95C9F78095089597FB8E
:103FD000072E16F4009407D077FD09D00E944720E1
:103FE00007FC05D03EF4909581959F4F08957095FC
:103FF00061957F4F0895EE0FFF1F0590F491E02D1E
:1040000009940E94281EB7FF0895821B930B089500
:10401000002E083090F0982F872F762F652F542F81
:10402000432F322F22270850F4CF220F331F441F73
:10403000551F661F771F881F991F0A95B2F7002D1D
:10404000089597FD1094002E083098F00850232F03
:10405000342F452F562F672F782F892F912DF4CF8E
:1040600015949795879577956795579547953795C3
:1040700027950A95AAF71124002D08952A0D3B1DB6
:104080004C1D5D1D6E1D7F1D801F911F0895AA1B75
:10409000BB1B51E107C0AA1FBB1FA617B70710F033
:1040A000A61BB70B881F991F5A95A9F78095909565
:1040B000BC01CD0108950F931F93CF93DF938230FE
:1040C000910510F482E090E0E091AB06F091AC062F
:1040D00030E020E0B0E0A0E0309799F42115310500
:1040E00009F44AC0281B390B24303105D8F58A81E0
:1040F0009B816115710589F1FB0193838283FE0128
:1041000011C0408151810281138148175907E0F0A5
:104110004817590799F4109761F012960C9312976B
:1041200013961C933296CF01DF91CF911F910F917F
:1041300008950093AB061093AC06F4CF211531051A
:1041400051F04217530738F0A901DB019A01BD0174
:10415000DF01F801C1CFEF01F9CF9093AC06809356
:10416000AB06CDCFFE01E20FF31F81939193225056
:10417000310939832883D7CF2091A9063091AA0627
:10418000232B41F420910501309106013093AA06BA
:104190002093A906209103013091040121153105D6
:1041A00041F42DB73EB74091070150910801241BFF
:1041B000350BE091A906F091AA06E217F307A0F4E7
:1041C0002E1B3F0B2817390778F0AC014E5F5F4F6D
:1041D0002417350748F04E0F5F1F5093AA064093EF
:1041E000A906819391939FCFF0E0E0E09CCFCF931D
:1041F000DF930097E9F0FC01329713821282A091BD
:10420000AB06B091AC06ED0130E020E01097A1F4D0
:1042100020813181820F931F2091A9063091AA0637
:104220002817390709F061C0F093AA06E093A906A0
:10423000DF91CF910895EA01CE17DF07E8F54A81B3
:104240005B819E0141155105B1F7E901FB83EA83CA
:1042500049915991C40FD51FEC17FD0761F4808176
:1042600091810296840F951FE90199838883828149
:1042700093819B838A83F0E0E0E012968D919C917C
:1042800013970097B9F52D913C911197CD010296A6
:10429000820F931F2091A9063091AA06281739078B
:1042A00039F6309751F51092AC061092AB06B093E8
:1042B000AA06A093A906BCCFD383C28340815181B3
:1042C000840F951FC817D90761F44E5F5F4F88812F
:1042D0009981480F591F518340838A819B81938321
:1042E00082832115310509F0B0CFF093AC06E0933D
:1042F000AB069ECFFD01DC01C0CF13821282D7CF67
:10430000B0E0A0E0E6E8F1E20C94D11D8C0100974A
:1043100051F4CB010E945B208C01C801CDB7DEB700
:10432000E0E10C94ED1DFC01E60FF71F9C0122500B
:104330003109E217F30708F49DC0D901CD91DC9152
:104340001197C617D70798F0C530D10530F3CE01C5
:1043500004978617970708F3C61BD70B2297C193BC
:10436000D1936D937C93CF010E94F720D6CF5B0150
:10437000AC1ABD0A4C018C0E9D1EA091AB06B091EB
:10438000AC06512C412CF12CE12C109731F5809189
:10439000A9069091AA068815990509F05CC04616F1
:1043A000570608F058C080910301909104010097CE
:1043B00041F48DB79EB74091070150910801841BCD
:1043C000950BE817F90708F055C0F093AA06E0939B
:1043D000A906F90171836083A0CF8D919C911197FB
:1043E00012966C90129713967C901397A815B905A6
:1043F00059F56C0142E0C40ED11CCA14DB0420F153
:10440000AC014A195B09DA011296159780F06282B5
:10441000738251834083D9016D937C93E114F1043D
:1044200071F0D7011396FC93EE93129776CF2296F4
:104430008C0F9D1FF90191838083F301EFCFF093DF
:10444000AC06E093AB0669CF4816590608F42C0178
:104450007D01D3019ACFCB010E945B207C010097A4
:1044600049F0AE01B8010E943D22C8010E94F72028
:10447000870153CF10E000E050CFFB01DC0102C008
:1044800001900D9241505040D8F70895FB01DC0196
:104490008D91019080190110D9F3990B0895FB01BA
:1044A000DC0101900D920020E1F7089510E0CDE9C4
:1044B000D0E004C0FE010E94FB1F2196CE39D10737
:0644C000C9F7F894FFCFDC
:1044C60001FF010000AD068000000040001400540A
:1044D60000000000006A01CA00F700D201280106A8
:1044E600011A0100000000EF05C20505075A03BBCB
:1044F60005A805990500000000D807CA000507327F
:1045060005000000005B03CA0005075A03B703CD88
:104516000342030D0A006E616E00696E66006F76D7
:104526006600320035003600370038003900313079
:104536000031310023007665720031313530353077
:1045460033006D617873686F77002C00706D006EB4
:104556007463004176657261676520616E616C6F98
:10456600672072656164696E672000546865726DC4
:104576006973746F7220726573697374616E6365B3
:10458600200054656D706572617475726520002037
:104596002A43006C00636C65617200736800777370
:1045A6000048432D535230340064687431315365EA
:1045B600740064687431315265616400746F6E65AD
:1045C600506C617900736572766F57726974650015
:1045D600616E616C6F6752656164006469676974D6
:1045E600616C5265616400616E616C6F67577269D8
:1045F6007465006469676974616C577269746500F3
:00000001FF
