:100000000C94F9020C9421030C9421030C943928CC
:100010000C9439280C9439280C9421030C943B2718
:100020000C9421030C9421030C9421030C94CC29EF
:100030000C9421030C9421030C9421030C942103B0
:100040000C94EF270C9421030C94BD270C94972754
:100050000C9421030C9421030C9421030C94210390
:100060000C94B1280C942103000000002400270008
:100070002A004602000000FF0800053E5B4F5B3E81
:10008000053E6B4F6B3E051C3E7C3E1C05183C7EBE
:100090003C18051C577D571C051C5E7F5E1C040028
:1000A000183C1805FFE7C3E7FF040018241805FFF4
:1000B000E7DBE7FF0530483A060E052629792926B1
:1000C00005407F05050705407F05253F055A3CE7AC
:1000D0003C5A057F3E1C1C0805081C1C3E7F05146D
:1000E000227F221405FFFFFFFFFF05F0F0F0F0F084
:1000F00003FFFFFF05000000FFFF050F0F0F0F0FAD
:100100000508047E04080510207E20100508082A32
:100110001C0805081C2A080805AA005500AA05AAFB
:1001200055AA55AA0530383E383005060E3E0E0653
:10013000020000015F0307000705147F147F140508
:10014000444AFF4A32056313086463053649493659
:10015000480107033E41410341413E05082A1C2A4C
:10016000080508083E08080260E0040808080802BC
:100170006060056010080403053E5149453E0304D4
:10018000027F057149494946054149494936050FEC
:100190000808087F054F49494931053E494949301A
:1001A00005030101017F05364949493605064949DC
:1001B000493E026C6C026CEC030814220414141403
:1001C0001403221408050159090906053E415D5929
:1001D0004E057E0909097E057F49494936053E419C
:1001E000414141057F4141413E057F494949410522
:1001F0007F09090901053E41414979057F08080841
:100200007F03417F4105304141413F057F08142272
:1002100041057F40404040057F020C027F057F047E
:1002200008107F053E4141413E057F090909060549
:100230003E4141617E057F091929460546494949E4
:10024000310501017F0101053F4040403F051F206E
:1002500040201F053F4038403F05631408146305E4
:100260000304780403056151494543037F41410577
:1002700003040810600341417F05040201020404E5
:100280008080808003010204043844447C047F445D
:1002900044380438444444043844447F04385454B3
:1002A0005804047E05010418A4A47C047F04047887
:1002B000017D0384857C047F102844017F057C0434
:1002C000780478047C040478043844443804FC241A
:1002D000241804182424FC047C04040804585454EE
:1002E0003403047F04043C40407C041C20407C0513
:1002F0003C4030403C046C10106C041CA0A07C04FA
:100300006454544C0408364141017F04414136088D
:100310000402010201057F4141417F053E555555CB
:1003200041053844443844057C2A2A3E14057E029F
:1003300002060605027E027E0205635549416305F9
:100340003844443C0405407E201E200506027E02FF
:1003500002086313086463006060052A2A2A2A2AB7
:1003600003514A4403444A51050000FF010303E0DE
:1003700080FF0536123624360302050202181802E1
:100380001010053040FF0101041F01011E00000094
:10039000000901017F017F020C027F0000000000C4
:1003A000000100017D0418247E2404447E4541059B
:1003B000221C141C2205012A7C2A010177044E55B7
:1003C000553903020002077E81BDA5A5817E032663
:1003D000292F0508142A14220408080818030808FD
:1003E00008077E81BD95A9817E05010101010103F8
:1003F00002050203242E24031915120315150A02FF
:10040000020104F82040780506097F017F021818D0
:10041000040080A0C003121F100326292605221401
:100420002A140808402F1008041E117C08402F10C1
:10043000080462554C0915553F1008041E117C052F
:100440003048484D4005781516147805781416156F
:1004500078057A1514157A05781615167905781524
:10046000141578057814151478077E09097F494911
:1004700041059EA1612121057C54554644057C54CB
:10048000564544057E55544546057C555445440320
:10049000457E4403447E4503467D4603457C450531
:1004A000087F49413E057C0A11227D0538444546B6
:1004B00038053844464538053A4544453A053846F6
:1004C00045463905384544453805221408142205A7
:1004D0007C625A463E053C4041423C053C4042411C
:1004E0003C053C4241423C053C4140413C05020444
:1004F0007A0502043F12120C057E49494E30043839
:1005000045467C043844467D043846457E043A45D9
:10051000467D043845447D04304A4D7A07205454C2
:1005200038545458049CA262220438555658043852
:10053000545659043856555A043855545902017ABC
:10054000027A01030279020302780204304B4B3C29
:10055000047A090A710430494A300430484A3104A7
:10056000304A49320432494A310439444439050891
:10057000082A08080438544C3804384142780438B2
:10058000404279043842417A043A40407A0418A043
:10059000A27904FC282810041AA0A07A0200000006
:1005A0000800020100000304070000000000000032
:1005B00000000000002300260029000000000025A4
:1005C0000028002B000404040404040404020202B2
:1005D0000202020303030303030102040810204084
:1005E0008001020408102001020408102000CD2A16
:1005F000DE3711241FBECFEFD8E0DEBFCDBF11E044
:10060000A0E0B1E0E4E4FAE702C005900D92A83D55
:10061000B107D9F725E0A8EDB1E001C01D92A33FD5
:10062000B207E1F712E0C8EFD2E004C02197FE0163
:100630000E94B63BC73FD107C9F70E94A42B0C9478
:10064000153D0C940000829590E09C01359527950E
:10065000359527952373880F991F880F991F8C7CD8
:10066000282B30E0C901959587958575220F331F9A
:100670002A7A822B0895CF93DF93262F2695382F41
:1006800070E0680F791FFC018E2F831B821750F4D6
:10069000819161507109DB019C91EF012197988351
:1006A0008C93F2CFDF91CF910895482FFC018E2FCC
:1006B000841B8617E0F4219130E0C9019595879558
:1006C0008575220F331F2A7A822B90E09C01359585
:1006D0002795359527952373880F991F880F991FA4
:1006E0008C7C822B8295DF0111978C93E0CF08954B
:1006F000AF92BF92CF92DF92EF92FF920F931F9330
:10070000CF93DF936C017B018B01040F151FEB016D
:100710005E01AE18BF08C017D10759F06991D60124
:10072000ED91FC910190F081E02DC6010995892B96
:1007300079F7C501DF91CF911F910F91FF90EF9055
:10074000DF90CF90BF90AF900895FC01538D448D02
:10075000252F30E0842F90E0821B930B541710F06C
:10076000CF96089501970895FC01918D828D981779
:1007700061F0A28DAE0FBF2FB11D5D968C91928D51
:100780009F5F9F73928F90E008958FEF9FEF089582
:10079000FC01918D828D981731F0828DE80FF11D4B
:1007A000858D90E008958FEF9FEF0895FC01918D66
:1007B000228D892F90E0805C9F4F821B91098F735F
:1007C000992708958BEF94E00E94D60321E0892BAE
:1007D00009F420E0822F089580E090E0892B29F031
:1007E0000E94E20381110C9400000895FC01A48D85
:1007F000A80FB92FB11DA35ABF4F2C91848D90E043
:1008000001968F739927848FA689B7892C93A08925
:10081000B1898C91837080648C93938D848D9813AF
:1008200006C00288F389E02D80818F7D8083089542
:10083000EF92FF920F931F93CF93DF93EC0181E030
:10084000888F9B8D8C8D98131AC0E889F9898081D7
:1008500085FF15C09FB7F894EE89FF896083E8890A
:10086000F98980818370806480839FBF81E090E0FC
:10087000DF91CF911F910F91FF90EF900895F62E89
:100880000B8D10E00F5F1F4F0F731127E02E8C8D23
:100890008E110CC00FB607FCFACFE889F989808168
:1008A00085FFF5CFCE010E94F603F1CFEB8DEC0F63
:1008B000FD2FF11DE35AFF4FF0829FB7F8940B8F85
:1008C000EA89FB8980818062CFCFCF93DF93EC01EF
:1008D000888D8823B9F0AA89BB89E889F9898C9128
:1008E00085FD03C0808186FD0DC00FB607FCF7CFE4
:1008F0008C9185FFF2CF808185FFEDCFCE010E94E4
:10090000F603E9CFDF91CF910895833081F028F489
:10091000813099F08230A9F008958730A9F08830AD
:10092000C9F08430B1F4809180008F7D03C0809144
:1009300080008F7780938000089584B58F7784BD81
:10094000089584B58F7DFBCF8091B0008F77809321
:10095000B00008958091B0008F7DF9CFCF93DF93E1
:10096000282F30E0F901E356FA4F8491F901E7525C
:10097000FA4FD491F901EB53FA4FC491CC23A1F073
:1009800081110E948504EC2FF0E0EE0FFF1FEF5461
:10099000FA4FA591B491EC91ED2381E090E009F438
:1009A00080E0DF91CF91089580E090E0FACF1F932F
:1009B000CF93DF93282F30E0F901E356FA4F84916B
:1009C000F901E752FA4FD491F901EB53FA4FC49170
:1009D000CC23A9F0162F81110E948504EC2FF0E0A2
:1009E000EE0FFF1FE554FA4FA591B4918FB7F8941D
:1009F000EC91111108C0D095DE23DC938FBFDF91FD
:100A0000CF911F910895DE2BF8CF909100018913AB
:100A10000BC0ECE9F5E0E4919FEF90930001E13029
:100A200049F028F0E23061F060E00C94D7041092B5
:100A30006E00FACF90916F009D7F90936F00F4CF7E
:100A4000909170009D7F9093700091E09093B00022
:100A50009091B100987F94609093B1001092B30090
:100A6000E3CFCF93DF9390E0FC01E752FA4F24915C
:100A70008B539A4FFC0184918823D1F090E0880F2A
:100A8000991FFC01E859FF4FA591B491FC01E55471
:100A9000FA4FC591D49161110EC09FB7F8948C9113
:100AA000E22FE0958E238C932881E223E8839FBF79
:100AB000DF91CF9108958FB7F894EC91E22BEC93EE
:100AC0008FBFF6CF3FB7F89480919B0290919C0224
:100AD000A0919D02B0919E0226B5A89B05C02F3F14
:100AE00019F00196A11DB11D3FBFBA2FA92F982F54
:100AF0008827BC01CD01620F711D811D911D42E04F
:100B0000660F771F881F991F4A95D1F708958F9216
:100B10009F92AF92BF92CF92DF92EF92FF926B01C2
:100B20007C010E9462054B015C01C114D104E10407
:100B3000F104B9F00E946205681979098A099B09D4
:100B4000683E73408105910580F321E0C21AD10807
:100B5000E108F10888EE880E83E0981EA11CB11C04
:100B6000E4CFFF90EF90DF90CF90BF90AF909F9039
:100B70008F9008952091A1023091A2022817390781
:100B800071F490919F028091A002981741F0E0913A
:100B90009F02F0E0EA5AFD4F808190E008958FEFC8
:100BA0009FEF08950895EF92FF920F931F93CF93B5
:100BB000DF93DC015C96ED90FC905D97E114F1040D
:100BC00079F481E090E013969C938E93129790E0D5
:100BD00080E0DF91CF911F910F91FF90EF900895EA
:100BE0005196ED91FC91529750968C915097982F79
:100BF00090950FB75E962C915E97122F127021FD83
:100C00006095F8942081112319F1282B2083E701A6
:100C10002197F1F728E0462F50E0308160FF1AC09D
:100C2000382B3083E7012197F1F7BA017595679565
:100C3000215089F7112381F08081892380830FBFA0
:100C40005C968D919C910197F1F781E090E0C1CF86
:100C50002923DCCF3923E5CF9081892BEFCF209159
:100C6000A1023091A2022817390771F48091A002E5
:100C700020919F0290E0805C9F4F821B910960E46D
:100C800070E00E94A23B089590E080E008952091DA
:100C9000A1023091A20228173907B9F490919F025E
:100CA0008091A002981789F0E0919F02F0E0EA5A43
:100CB000FD4F808120919F0230E02F5F3F4F2F73C7
:100CC000332720939F0290E008958FEF9FEF0895C0
:100CD000CF92DF92EF92FF921F93CF93DF93DC01CD
:100CE00058961C92589788E059968C9359975A9623
:100CF0001C925A975C961C921E925B978FEF90E025
:100D00005E969C938E935D9790961C921E925F9731
:100D100056968D919C915797009709F478C0FC01E5
:100D20002491263409F031C03196E491E13009F480
:100D300053C022E030E0E23021F5FC0132962491EC
:100D40003196E49130E0322F22272E0F311D5C9630
:100D50003C932E935B97FC01349624913196E49159
:100D600030E0322F22272E0F311D5E963C932E93BA
:100D70005D97FC013696E4915996EC93599727E0DC
:100D800030E090963C932E935F975F96CD90DC90E9
:100D90009097F12CE12C5B962D913C915C975D96A0
:100DA000CD91DC915E9710E0C217D30770F1FC0182
:100DB000EC0DFD1D4491141708F4142F50E070E061
:100DC00060E04F5F5F4F6F4F7F4FC40ED51EE61E32
:100DD000F71E2F5F3F4FE8CFFC013296E491F0E021
:100DE0005C96FC93EE935B97FC013396E491F0E004
:100DF0005E96FC93EE935D97FC013496E4915996D0
:100E0000EC93599725E030E0BCCF5A961C93DF91C4
:100E1000CF911F91FF90EF90DF90CF900895FC014C
:100E20008385681738F52485358579E0679F200D1F
:100E3000311D1124848150E09381992371F088231E
:100E400031F087E090E0FC01E41BF50BAF01240FCB
:100E5000351FF90180810C942303882331F087E04A
:100E600090E0BC01641B750BAB01240F351FF90129
:100E70008081089580E008958F929F92AF92BF92F3
:100E8000CF92DF92EF92FF92CF93DF93FC01242F5A
:100E900030E08381882309F447C087E090E0821B1B
:100EA000930B91E001C0990F8A95EAF78385681743
:100EB00008F040C024853585A90189E0689F400D70
:100EC000511D1124BA01E48130E020E080E0A7E068
:100ED000B0E0C12CD12C7601C394F22FAD01421B9E
:100EE000530BE11101C0A901460F571FEA014881C8
:100EF000492351F04601570104C0880C991CAA1CD3
:100F0000BB1CFA95D2F788292F5F3F4F2830310557
:100F100021F7DF91CF91FF90EF90DF90CF90BF90BE
:100F2000AF909F908F90089591E001C0990F4A95DE
:100F3000EAF7BCCF80E0EDCFFC01228121110C94B7
:100F40003C070C940F07462F47706695669566958B
:100F50000C949C07FC01848D90A1A6A5B7A591FDDA
:100F600015C0882381F0808D918D0597A9F481E0CB
:100F700024A535A52A173B0709F080E080AB11971F
:100F8000B7A7A6A70895828D938DEFCF882379F018
:100F9000808D918D059759F7CD01019697A786A76A
:100FA00081E011969C91911180E080AB0895828D33
:100FB000938DF0CFFC01868997898230910591F459
:100FC0002389348936A325A331A720A78230910530
:100FD00061F42189328933A722A7029749F08FEF64
:100FE00087A3089521893289EDCF23893489F3CFEE
:100FF00081E0F6CF8F929F92AF92BF92CF92DF9215
:10100000EF92FF92CF93DF93FC014A01AA24BB2405
:10101000C32ED42EE52EFF24DC2DC22F8085982DE3
:10102000882391F0C82FD0E0C89DD001C99DB00D94
:10103000D89DB00D11249B2F8C9D60011124DD2DB6
:10104000829F90011124C32FA68521853285838537
:10105000A81321C0AB01440F551F640F751F620F09
:10106000731FA385A60FB72FB11D9C93A485A60F50
:10107000B72FB11DDC938585680F711DFB01C083FF
:10108000DF91CF91FF90EF90DF90CF90BF90AF9026
:101090009F908F900895660F771F660F771F620FDE
:1010A000731FA60FB72FB11D1C92DBCFCF92DF921B
:1010B000EF92FF920F931F93CF93DF93CDB7DEB7DD
:1010C00029970FB6F894DEBF0FBECDBF8C01DC01AF
:1010D00019968D919C91892B09F473C00E94620529
:1010E000F801C784D088E188F2886C157D058E05EB
:1010F0009F0520F46787708B818B928BF801C784E2
:10110000D088E188F2886C197D098E099F096C32BC
:1011100071408105910510F3F894D80114968D91D2
:101120009C9115979A8389831996ED91FC917F0183
:10113000BFEFEB1AFB0A80818987F8019081038851
:10114000F489E02DD80155968C91992309F448C073
:101150009081982B98879081809589238F838F81A8
:101160008C8388E08B8358856F8149853B812C81F6
:1011700089819A81D701508347FD252F3A95208395
:10118000262F39F0441F00C000006083000000C01B
:10119000F2CF38E04D9160830000019761F7D801EC
:1011A0005496FC93EE93539749873B832C839A8301
:1011B000898378940E946205F8016787708B818B20
:1011C000928B29960FB6F894DEBF0FBECDBFDF918C
:1011D000CF911F910F91FF90EF90DF90CF900895E6
:1011E0009081982B98879081809589238F838F8118
:1011F0008E8388E08D8358856F8149853D812E815E
:1012000089819A81D701508347FD252F00C000C0F6
:10121000208300C000C000C000C000C06083000088
:10122000262F3A9541F0441F000000C000C000C0C6
:1012300000C000C0E8CF38E04D9100C0608300C01E
:10124000019709F7D8015496FC93EE935397498779
:101250003D832E83ACCFCF93DF93EC018E819F81B2
:1012600097FD07C061E00E94310560E08E810E9419
:10127000D70481E08983DF91CF9108952091000206
:10128000260F3327331F21323105ECF4209124023D
:10129000FC0190E080E0243069F082E00895A091A4
:1012A00000022191AC0140525E4FA40FB52FB11D39
:1012B0002C930196861798F380910002680F609333
:1012C000000280E0089581E008958FEF9FEF089578
:1012D0008FEF9FEF08958091D90190E091958195CE
:1012E00091090895CF93DF93CB01EA01642F0E9407
:1012F0003E09CE01DF91CF910895CF93DF931F92E6
:10130000CDB7DEB7698361E0CE0101960E943E0948
:1013100081E090E00F90DF91CF910895CF93DF931C
:1013200000D0CDB7DEB769831A82DC01ED91FC9164
:101330000084F185E02DBE016F5F7F4F099581E04C
:1013400090E00F900F90DF91CF910895089590E075
:1013500080E00895CF92DF92EF92FF920F931F9358
:10136000CF93DF93EC0188858823A1F08091E4027C
:10137000882361F08FB7F8949091E402913041F5A1
:101380009DB3909355029DB39DBB8FBF80E58CBDEF
:1013900081E08DBD60E08F810E94D704888588231D
:1013A000D1F030E020E08B8590E0880F991F28175E
:1013B0003907C8F5EE85FF85E20FF31F80818EBDEA
:1013C00000000DB407FEFDCF8EB52F5F3F4FEBCF72
:1013D00080935502DBCF10E000E08B8590E0880F12
:1013E000991F08171907F8F4EE85FF85E00FF11F24
:1013F000E080DE80CD8088E0F82E6E2D661F6627A7
:10140000661F8C2D0E94D704EE0C61E08D2D0E948A
:10141000D70460E08D2D0E94D704FA94F110EDCF2F
:101420000F5F1F4FDACF61E08F810E94D70488855C
:10143000882371F08091E402882351F09FB7F894DB
:101440002091E40280915502213059F48DBB9FBF59
:10145000DF91CF911F910F91FF90EF90DF90CF9090
:1014600008958FBFF5CFFC01438550E0440F551F11
:1014700070E060E0868597850C94053DBF92CF9221
:10148000DF92EF92FF920F931F93CF93DF93FC01B4
:101490002385621708F04EC0EC01F9E06F9F7001E0
:1014A0001124D12CC12C062F10E0BB24B394BC0C0A
:1014B000EC85FD85EE0DFF1D808590E00C2C02C0B3
:1014C000959587950A94E2F780FF27C0CE010E9488
:1014D000330A8B858150990B801B910B880F991FC4
:1014E0002E853F85820F931FFC01B082EC85FD8520
:1014F000EE0DFF1DEC0DFD1D40818B858150990B7C
:10150000801B910B880F991F2E853F85820F931F9B
:10151000FC014183CE010E94AA09FFEFCF1ADF0A26
:1015200088E0C816D10409F68C859D85E80EF91E61
:10153000F7011086DF91CF911F910F91FF90EF90EF
:10154000DF90CF90BF9008950F931F93CF93DF93B9
:10155000EC01162F042F822F9B8191110E942303EF
:1015600099E0199F90011124AC85BD85A20FB31F8E
:10157000602F70E09C8147E050E0461B570B9111B3
:1015800001C0AB01A40FB51F8C93EC85FD85E20F64
:10159000F31F20858C818823F1F047E050E0461B43
:1015A000570B81E090E0A0E0B0E004C0880F991FE5
:1015B000AA1FBB1F4A95D2F7822B80878C8988236C
:1015C00021F0612FCE010E943E0A81E0DF91CF9190
:1015D0001F910F91089581E090E0A0E0B0E004C079
:1015E000880F991FAA1FBB1F0A95D2F7E5CF9F92BC
:1015F000AF92BF92CF92DF92EF92FF920F931F9321
:10160000CF93DF93FC0189E0689FE001112481E022
:1016100090E0A0E0B0E06C017D01042E04C0CC0C91
:10162000DD1CEE1CFF1C0A94D2F7BC2C7C2D70959F
:1016300007E010E0041B110904C0880F991FAA1FBE
:10164000BB1F0A95D2F7A82E382F309590E080E086
:10165000022F10E027E0E22EF12CAC01A485B58525
:10166000AC0FBD1F248193806801082E02C0D59461
:10167000C7940A94E2F7C0FE2AC0222319F0A701FA
:10168000481B590BA40FB51F2C914B2D91104A2DBF
:10169000242B2C93019688309105F9F68485958545
:1016A000C80FD91F8FEF88878489882319F0CF014D
:1016B0000E943E0A81E0DF91CF911F910F91FF9030
:1016C000EF90DF90CF90BF90AF909F90089522232E
:1016D00019F0A701481B590BA40FB51F2C91472FD8
:1016E0009110432F2423D5CFFC01528133855523FC
:1016F00021F0631730F40C94F70A631710F40C947C
:10170000A40A80E00895242F462F477033E0769591
:1017100067953A95E1F70C94740BFC01528133857F
:10172000552331F0631750F4483041F00C94A40A6B
:10173000631720F4483011F00C94F70A80E0089504
:10174000CF92DF92EF92FF920F931F93CF93DF938D
:10175000FC01722F82815385882309F45DC06517CF
:1017600008F0BEC0283009F4BBC009E0609F7001DA
:101770001124848595858E0D9F1D50E0A22FB0E029
:1017800024812223B9F127E030E0E901C41BD50B05
:10179000AE012A1B3B0B480F591FEA014881820FFB
:1017A000931FEC01488384859585E701C80FD91FF5
:1017B00028858481882301F147E050E04A1B5B0BB8
:1017C00081E090E0A0E0B0E004C0880F991FAA1F5C
:1017D000BB1F4A95D2F7822B88878489811118C054
:1017E00081E0DF91CF911F910F91FF90EF90DF90FB
:1017F000CF9008959D01CFCF81E090E0A0E0B0E0D0
:1018000004C0880F991FAA1FBB1F7A95D2F7E3CF98
:10181000CF010E943E0AE4CFA42FB0E09381992328
:1018200009F44FC027E030E02A1B3B0B91E001C0D8
:10183000990F2A95EAF76517A0F6783091F2D9E06A
:101840006D9FA001112401E010E020E030E068016C
:101850007901072E04C0CC0CDD1CEE1CFF1C0A9481
:10186000D2F7DC2DCC2DC095A7E0B0E0A71BB109C5
:1018700004C0000F111F221F331FAA95D2F7F02EAC
:10188000009530E020E0A485B585A40FB51FA20F18
:10189000B31F8C917381182F1923D9F0711117C0C0
:1018A0007D2F872B8C932F5F3F4F2830310559F7C1
:1018B00084859585480F591F8FEFDA0118968C9310
:1018C0008CCF91E001C0990F4A95EAF7B4CF7F2DF4
:1018D000E8CF711103C07C2F8723E4CF702FFCCF9A
:1018E00080E07FCF8F929F92AF92BF92CF92DF9294
:1018F000EF92FF920F931F93CF93DF93CDB7DEB795
:1019000028970FB6F894DEBF0FBECDBF8C01D62E40
:1019100029E0629F70011124FA013197E730F10547
:1019200058F4EB56F34F0C94B63BE80C1A0D500DDF
:10193000870DC80D080E280EDC0112968C918823A5
:10194000C1F130E020E0D8011C96ED91FC911D978B
:10195000EE0DFF1DE20FF31F808113969C919923DA
:1019600031F190E09595879580832F5F3F4F283028
:10197000310549F7F80184859585E80EF91E8FEF4A
:10198000D70118968C9381E028960FB6F894DEBFA5
:101990000FBECDBFDF91CF911F910F91FF90EF90C0
:1019A000DF90CF90BF90AF909F908F900895880F59
:1019B000DBCF87E090E0D8011C96ED91FC91EE0D15
:1019C000FF1DE80FF91F208121830197A0F7D2CFD7
:1019D000FC0182818823E1F030E020E0D8011C96F0
:1019E000ED91FC911D97EE0DFF1DE20FF31F80811D
:1019F00013969C91992341F0880F80832F5F3F4F6E
:101A00002830310559F7B6CF90E095958795F5CFF9
:101A100081E090E0D8011C96ED91FC91EE0DFF1D48
:101A2000E80FF91F208131972083019688309105B6
:101A300089F7A0CFFC01C28085898823F9F040E0B6
:101A4000C801CC20C1F00E940F078983CC20C1F0CF
:101A500020E0CC24C394C20E4C2D6D2DC8010E94F1
:101A6000A00B2C2D2730A9F7298147E06D2DC80147
:101A70000E948D0B7FCF0E943C07E7CF1982E6CFF3
:101A800087E090E0D8011C96ED91FC91EE0DFF1DD2
:101A9000E80FF91F2081220F2083019798F7E4CFE8
:101AA000FC01C28085898823D9F047E0C801CC2099
:101AB000A1F00E940F078983CC20A1F028E0CC245C
:101AC000CA94C20E4C2D6D2DC8010E94A00B2C2D66
:101AD000C110F5CF298140E0C9CF0E943C07EBCF70
:101AE0001982EACF30E020E0D8011C96ED91FC91FC
:101AF000EE0DFF1DE20FF31F808190E09595879515
:101B000080832F5F3F4F2830310571F7E3CFFC0111
:101B100082818823C1F0B12CA12CD8011C96CD90D4
:101B2000DC90CE0CDF1CCA0CDB1CF60180810E940D
:101B30002303D6018C93BFEFAB1ABB0AE8E0AE16C5
:101B4000B10459F717CF30E020E047E050E0D8016A
:101B50001C968D919C918E0D9F1DFC01E20FF31F31
:101B6000D080BA01621B730B860F971FDC018C912A
:101B70008083D8011C96ED91FC91EE0DFF1DE60FC0
:101B8000F71FD0822F5F3F4F2430310501F7F2CE8F
:101B9000FC018281882329F130E020E047E050E019
:101BA000D8011C968D919C918E0D9F1DFC01E20F1A
:101BB000F31FD080BA01621B730B860F971FDC01E5
:101BC0008C918083D8011C96ED91FC91EE0DFF1D48
:101BD000E60FF71FD0822F5F3F4F2430310501F70A
:101BE000C9CEB12CA12CF801C484D584CE0CDF1C45
:101BF000CA0CDB1CD6018C910E942303F601808362
:101C0000FFEFAF1ABF0A28E0A216B10461F7B2CE07
:101C1000CE0101965C014C0187E0C82E4C2D6D2D44
:101C2000C8010E949C07D4018D934D01CA94BFEF57
:101C3000CB12F4CFC12CF50121915F014C2D6D2DFC
:101C4000C8010E948D0BC394F8E0CF12F4CF92CE5E
:101C500090E080E0D8011C96ED91FC91EE0DFF1D07
:101C6000E80FF91F20812095208301968830910587
:101C700089F780CECF92DF92EF92FF920F931F935E
:101C8000CF93DF93EC01DD24D394F12CE12C01E020
:101C900010E0B9E0CB2ECE010E94330A98010E2C41
:101CA00002C0220F331F0A94E2F7E0E090E08B8538
:101CB000E81798F5EC9DA0011124AC85BD85A40F13
:101CC000B51F18966C9170E062237323672B19F18E
:101CD0006E2F70E08150990B861B970B880F991F10
:101CE000AE85BF85A80FB91FDC92AC85BD85A40F5A
:101CF000B51FAE0DBF1DFC918B858150990B861BC6
:101D0000970B880F991F4E855F85840F951FDC0107
:101D10001196FC9391E0EF5FCACF992319F0CE01A1
:101D20000E94AA09BFEFEB1AFB0AD39488E0E816D9
:101D3000F10409F0B0CF80E099E02B85821748F4D8
:101D4000EC85FD85899FE00DF11D112410868F5FC4
:101D5000F4CFDF91CF911F910F91FF90EF90DF9023
:101D6000CF900895CF93DF93C9E078E05FEF4617F7
:101D7000B0F06C9F90011124FC01A485B585A20FE1
:101D8000B31FFD01D72F1192DA95E9F7DC011C96FC
:101D9000ED91FC91E20FF31F50876F5FE8CFFC01DC
:101DA0002489222321F0DF91CF910C943A0EDF9108
:101DB000CF9108956F927F928F929F92AF92BF9230
:101DC000CF92DF92EF92FF920F931F93CF93DF9307
:101DD000CDB7DEB729970FB6F894DEBF0FBECDBFE3
:101DE0008C01E62EF42E5901D12C461708F4D5C0EB
:101DF000DC015496DC90549754961C9224303105A3
:101E0000B0F522303105C8F52130310509F4DBC0C9
:101E1000D80155968C91882309F486C06F2D660FE2
:101E2000660F660F695FC8010E94A307C82EAE2C1B
:101E3000B12C8F2D0F2C000C990B8A159B050CF4DF
:101E400089C050E040E06F2DC8010E94720C9924B7
:101E50009A949F0C47E0692DC8010E949C07282F87
:101E600040E06F2DC8010E94740BF92CE2CF2430A2
:101E7000310561F02830310558F6A5016E2DC801F5
:101E80000E94720CE394FE14C0F77EC0642F70E0D1
:101E9000AE2CB12C4B018A189B08BFEF8B1A9B0A02
:101EA00097FE03C0EFEF8E1A9E0A95948794712CCB
:101EB00029E0C22E472D50E0481559050CF0CFC03F
:101EC000F80124853585FA01EA0DFB1DCE9EC0017F
:101ED000CF9E900D1124820F931FFC01DE011196FD
:101EE0006C2C01900D926A94E1F7FB01E41BF50B59
:101EF000CE9EA001CF9E500D1124F901E40FF51FD5
:101F0000DC018C2D01900D928A95E1F7F801A485F2
:101F1000B585A40FB51FFE0131968C2D01900D9251
:101F20008A95E1F77394C6CFF801A288B388A1140B
:101F3000B10471F06F2D660F660F660F695FC801FF
:101F40000E94A307482F70E060E08F2DF5010995EE
:101F5000C12C6DCFD8015096ED91FC9151973097DF
:101F600049F055968C91811105C070E060E08E2D8E
:101F70000995C82EB50183E0660F771F8A95E1F7B2
:101F80004C2DC8010E94830BD8015496DC92DD20B1
:101F900009F46FC0C8010E943A0E8D2D29960FB624
:101FA000F894DEBF0FBECDBFDF91CF911F910F918F
:101FB000FF90EF90DF90CF90BF90AF909F908F9069
:101FC0007F906F900895FC0185898823A9F1660FA1
:101FD000660F660FC8010E94A307C82E41E050E0BB
:101FE0006E2DC8010E94720CBB24B394BE0C40E05D
:101FF0006B2DC8010E949C07282F47E06E2DC80159
:102000000E94740BEB2CFB1448F7D8015096ED910D
:10201000FC915197309749F055968C91811105C0EC
:1020200061E070E08F2D0995C82EB8E0FB9EB001ED
:102030001124695F7F4FA4CFA288B388A114B10493
:1020400061F0660F660F660FC8010E94A307482F54
:1020500061E070E08E2DF5010995C12CBFCF44E001
:1020600050E06E2DC8010E94720CE394FE14B8F784
:102070008BCFDD24D39491CFCF93DF93EC014CA190
:102080006BA1461720F0888199810E94B20E8D8D38
:10209000882351F027E030E04CA16BA18881998121
:1020A000DF91CF910C94DA0EDF91CF910895CF920A
:1020B000DF92EF92FF920F931F93CF93DF93EC0188
:1020C000D62EC42E790180E04617E0F02A30310583
:1020D00008F069C0CE010E94330A92E0E916F104CB
:1020E00009F453C0C0F4E114F10429F1F1E0EF1652
:1020F000F10409F443C0D394CD1478F7CE010E94C3
:10210000AA0981E0DF91CF911F910F91FF90EF908D
:10211000DF90CF90089583E0E816F104E9F194E0B0
:10212000E916F10441F781E00115110509F480E099
:10213000819599E006C081E00115110509F080E064
:102140009CE04D2D50E02B852150330B241B350B8B
:10215000220F331F6E857F85260F371FF90190836D
:102160002B852150330B241B350B220F331F4E853B
:102170005F85240F351FF9018183BDCF802F083083
:1021800011050CF087E09BE0DCCF802F00311105BA
:102190000CF08FE09AE0D5CF81E00115110509F42C
:1021A00080E09FE0CECF81E00130110509F080E0B2
:1021B000FBE0EF16F10449F08C8B0130110509F0BA
:1021C000A0CFCE010E943A0E9CCF8D8B9ACF0F9359
:1021D0001F939B018A01FC014385415060E00E94EE
:1021E00057101F910F9108950F931F93FC0161A346
:1021F000062F10E022E030E044A163A180819181AC
:102200000E9457101F910F9108950F931F93CF9322
:10221000DF93EC01162F072F198218861F86188A64
:10222000198A1A8A81E08E878B871C8692E09D87A7
:10223000888384E290E09D838C830E94D73B9A87B9
:102240008987009779F124E2FC0111922A95E9F738
:102250008CE090E09B838A831E830F83898188238F
:1022600041F061E0812F0E94310560E0812F0E94E2
:10227000D704812F902FFC01EB53FA4FE491F0E04B
:10228000EE0FFF1FE554FA4F259134913C8B2B8BB9
:10229000FC01E752FA4FE491ED8BDF91CF911F9152
:1022A0000F9108951D821C821B821A82D5CF1F9325
:1022B000CF93DF93EC01A881B9815A961C918EA926
:1022C000180F8BA9811768F48CA99DA9009711F0AC
:1022D0000E94733C1BAB812F90E00E94D73B9DABCB
:1022E0008CABDF91CF911F910895FB0101900020ED
:1022F000E9F73197AF01461B570BDC01ED91FC91DB
:102300000280F381E02D09948F929F92AF92BF9249
:102310000F931F93CF93DF93CDB7DEB7A1970FB67F
:10232000F894DEBF0FBECDBF19A2423008F44AE0D8
:102330008E010F5D1F4F842E912CB12CA12CA50175
:1023400094010E942239E62FB901CA01EA3004F54E
:10235000E05DD801EE938D01232B242B252B79F7FB
:1023600090E080E0109729F0BD018BEF94E00E948F
:102370007511A1960FB6F894DEBF0FBECDBFDF91E9
:10238000CF911F910F91BF90AF909F908F90089524
:10239000E95CDFCFCF92DF92EF92FF92CF93DF9392
:1023A00097FF1BC06B017C016DE28BEF94E00E94F4
:1023B0001804EC0166277727CB016C197D098E097B
:1023C0009F094AE00E9484118C0F9D1FDF91CF91DD
:1023D000FF90EF90DF90CF9008954AE0DF91CF918A
:1023E000FF90EF90DF90CF900C948411CF93DF9308
:1023F000BC01990F880B990B0E94CA11EC016EE386
:1024000071E08BEF94E00E9475118C0F9D1FDF919E
:10241000CF9108954F925F926F927F928F929F9289
:10242000AF92BF92CF92DF92EF92FF920F931F93E2
:10243000CF936B017C01742EAC019B010E94913BF8
:1024400061E471E0811126C046015701E894B7F8B4
:102450002FEF3FEF4FE75FE7C501B4010E94913BCB
:1024600081110CC02FEF3FEF4FE75FE7C501B401CB
:102470000E94C03965E471E0181664F02FEF3FEF59
:102480004FE75FE4C701B6010E941F3B1816ACF48A
:1024900069E471E08BEF94E0CF911F910F91FF9071
:1024A000EF90DF90CF90BF90AF909F908F907F90F4
:1024B0006F905F904F900C9475112FEF3FEF4FE7A7
:1024C0005FECC701B6010E94C03987FDE1CF20E073
:1024D00030E0A901C701B6010E94C03910E000E058
:1024E00087FF0AC06DE28BEF94E00E9418048C0114
:1024F000F7FAF094F7F8F094C0E060E070E080E064
:102500009FE37C1641F020E030E040E251E40E947D
:10251000C539CF5FF6CFA70196010E9454392B0130
:102520003C010E943E3A4B015C014AE00E9484114A
:102530007C01E00EF11ECC23C1F1C501B4010E9463
:102540006D3A9B01AC01C301B2010E9453394B01AA
:102550005C016EE28BEF94E00E941804E80EF91E15
:10256000C15018F120E030E040E251E4C501B4016F
:102570000E94243B2B013C010E943E3A4B01B12CAE
:10258000A12C4AE0C501B4010E948411E80EF91E95
:10259000C501B4010E946D3A9B01AC01C301B201B7
:1025A0000E9453394B015C01DBCFC701CF911F91D2
:1025B0000F91FF90EF90DF90CF90BF90AF909F90E2
:1025C0008F907F906F905F904F9008956115710587
:1025D00011F00C94751190E080E00895CF92DF9295
:1025E000EF92FF920F931F93CF93DF937C016B01C8
:1025F000EA01CA0101960E94D73B8C010097F1F0D5
:10260000AE01B6010E94FC3CF801EC0FFD1F1082E8
:10261000D701ED91FC910084F185E02DB801C7014F
:102620000995C8010E94733CCE01DF91CF911F91A3
:102630000F91FF90EF90DF90CF900895D0E0C0E031
:10264000F3CFCF92DF92EF92FF920F931F93CF932E
:102650006C017B01C42F8901DC01D196ED91FC91C5
:10266000309709F1808191818E159F05C1F4028018
:10267000F381E02D80818C1708F4C82F4C2F50E097
:10268000BF016F5F7F4FC8010E94FC3C8C2FCF9130
:102690001F910F91FF90EF90DF90CF9008950480ED
:1026A000F581E02DDDCFF6018081918122AD33AD42
:1026B000DC0156964D915C912417350751F0211598
:1026C000310511F422E730E0FC01378B268B0E94A4
:1026D00068060115110509F448C0D6012D913C91F9
:1026E000F901878D90A1B0E0A0E0438D548DE416F0
:1026F000F506A0F1658D768D6E157F0578F16689FA
:102700007789FB01E80FF91FE416F50659F0E4910B
:102710008E0F911DA11DB11D0196A11DB11D4F5F11
:102720005F4FEFCF4491C41710F50196A11DB11D65
:10273000A801801B910B642F601B6C1708F0A6CFBB
:10274000BC01640F751FD9015696ED91FC91E60FFF
:10275000F71FE491DA01ED93AD01EDCF4C2F50E07E
:1027600070E060E0C8010E94053DC0E08FCFC491D9
:10277000DCCF1F93CF93DF93EC01142F2CA93DA93D
:102780004BA90E942113112389F0882379F090E04E
:102790002EA9921758F42BA9821730F4ECA9FDA9A1
:1027A000E80FF11D10828F5F9F5FF2CFDF91CF9115
:1027B0001F9108950F931F93CF93DF93EC018B012B
:1027C000EEA5FFA541E08181811101C040E060815B
:1027D00070E0CE010E94B913F801808328A19C8D7E
:1027E00021FD10C0992359F0288D398D25303105F0
:1027F00081F4682F8CA99DA90E943B030AC02A8DF1
:102800003B8DF4CF9923B9F0288D398D25303105D2
:1028100081F788A180FF06C0F80160818CA99DA97D
:102820000E945503CE010E94AA0781E0DF91CF915B
:102830001F910F9108952A8D3B8DE8CF0F931F9321
:10284000CF93DF93EC01FB011082ACA5BDA5BFA720
:10285000AEA7109719F08C91811108C081E088AB68
:1028600080E0DF91CF911F910F91089518AA8C8D70
:1028700098A191FD10C0882359F0888D998D0597F6
:1028800081F40D900020E9F71297BFA7AEA709C009
:102890008A8D9B8DF4CF882331F1888D998D059792
:1028A00081F7AEA5BFA541E011968C9111978111DA
:1028B00001C040E08B016C9170E0CE010E94B91321
:1028C000F801808328A19C8D21FD13C0992371F00C
:1028D000288D398D2530310599F4682F8CA99DA953
:1028E0000E943B030DC08A8D9B8DD9CF2A8D3B8DD5
:1028F000F1CF992399F0288D398D2530310569F76D
:1029000088A180FF06C0F80160818CA99DA90E9462
:102910005503CE010E94AA0781E0A3CF2A8D3B8DEB
:10292000ECCFCF92DF92EF92FF920F931F93CF9352
:10293000DF93EC010E943C10C988DA887E0187E3AE
:10294000E80EF11CB701CE010E941E1419AE18AE9C
:1029500086018B899C89081719077CF18FA928ADFE
:1029600039AD8217130611F081110AC01FAA88A978
:10297000811104C0B701CE010E94DA1319AE18AE5E
:102980008FA9882331F38881998148AD59AD9A0187
:102990002F5F3F4FECA9FDA9E40FF51F4D8D39AF17
:1029A00028AF442341F040814095B8010E94830B39
:1029B00001501109CECF4081F8CFDF91CF911F9107
:1029C0000F91FF90EF90DF90CF900895FF920F93BB
:1029D0001F93CF93DF93EC01F62E8D859E854423C4
:1029E00009F462C08430910530F5019758F18D8566
:1029F0009E85059721F483E090E09E878D87CE0128
:102A00000E9491140DA11EA12FA18AA59BA5820F42
:102A1000911D27FD9A9580179107E1F04D8D419505
:102A2000B801888199810E94830B8FA1080F111D25
:102A300087FD1A95E9CF0597D1F285E090E09E8752
:102A40008D872CC0CE010E94DA0783E090E09E873C
:102A50008D87CDCFFF2069F06DA17EA106171707E6
:102A600041F04D8D81E048274195888199810E94F0
:102A7000830B8DA19EA12FA1022E000C330B4AA522
:102A80005BA5420F531F8417950721F445E050E0E2
:102A90005E874D87820F931F9EA38DA3DF91CF91F9
:102AA0001F910F91FF9008958430910500F50197D3
:102AB00000F1CE010E94911408A519A56DA17EA177
:102AC0008FA1082E000C990B9B01280F391F20178E
:102AD0003107B9F04D8D4195B801888199810E94E7
:102AE000830B8FA1080F111D87FD1A95E7CF05975E
:102AF00051F5CE010E94DA0783E090E09E878D8732
:102B0000D8CFFF2079F02AA53BA5820F931F681725
:102B1000790741F04D8D81E0482741958881998161
:102B20000E94830B8DA19EA12FA1022E000C330BBE
:102B30004AA55BA5420F531F8417950709F0AACF3A
:102B400046E050E0A5CF86E090E079CFAF92BF920B
:102B5000CF92DF92EF92FF920F931F93CF93DF9369
:102B6000EC01F62E8D859E85442309F46EC08430D9
:102B7000910580F50197A8F1CE010E943C10CE018D
:102B80000E949114CBA088E0C89E60011124EE241D
:102B9000E394F11002C050E8E52E0DA11EA18CA116
:102BA00090E0019643E0880F991F4A95E1F7C81617
:102BB000D906ACF5A880B9806C2DC5010E94A30789
:102BC000101624F5FF2001F1880F9D8D91118E299B
:102BD0000150F6CF059781F285E090E09E878D87C2
:102BE00029C087E090E09EA38DA310E000E02BE0D9
:102BF00030E04CA16BA1888199810E94571083E03D
:102C000090E09E878D87B8CF8695DFCF482FB6019D
:102C1000C5010E94830B8FEFC81AD80ABECF0115D9
:102C2000110521F485E090E09E878D870150110900
:102C30001EA30DA3DF91CF911F910F91FF90EF90F5
:102C4000DF90CF90BF90AF9008958430910560F5EC
:102C5000019760F10BA188E0089F8001112430E802
:102C6000E32EF11002C0EE24E3948CA190E00196D3
:102C700023E0880F991F2A95E1F708171907FCF43C
:102C8000C880D980602FC6010E94A307482FFF206B
:102C9000A1F046958D8D81114E29B801C6010E9483
:102CA000830B0F5F1F4FE1CF0597B1F41EA21DA24A
:102CB00083E090E09E878D87CDCF440FEBCF8DA131
:102CC0009EA18730910521F426E030E03E872D87D4
:102CD00001969EA38DA3AECF86E090E07FCFCF92EA
:102CE000DF92EF92FF921F93CF93DF93EC01D42EEC
:102CF0008D859E85662309F458C084309105A8F51A
:102D00000197D0F1CE010E9491142DA13EA128304F
:102D1000310569F1E8A4F9A481E090E001C0880FD1
:102D20002A95EAF7182FD11010952FA18AA59BA5F7
:102D3000820F911D27FD9A958E159F0549F1C88038
:102D4000D9806E2DC6010E94A3079D8D412F992326
:102D5000E9F04095482BB701C6010E94830B8FA173
:102D6000E80EF11C87FDFA94E0CF059759F285E053
:102D700090E09E878D8711C0CE010E94DA071EA2C7
:102D80001DA283E090E09E878D87BCCF4823E3CFD0
:102D90008DA19EA101969EA38DA3DF91CF911F913E
:102DA000FF90EF90DF90CF9008958430910598F5D3
:102DB000019798F1CE010E9491148DA19EA110E07F
:102DC00097FD05C011E001C0110F8A95EAF7E8A44C
:102DD000F9A4D11010952FA18AA59BA5820F911D52
:102DE00027FD9A958E159F0531F1C880D9806E2DEB
:102DF000C6010E94A3079D8D412F9923D1F04095D4
:102E0000482BB701C6010E94830B8FA1E80EF11C6D
:102E100087FDFA94E0CF0597C1F4CE010E94DA074E
:102E200087E090E09EA38DA383E090E09E878D874E
:102E3000C1CF4823E6CF8DA19EA197FF04C026E015
:102E400030E03E872D870197A6CF86E090E091CFB6
:102E5000FF920F931F93CF93DF93EC01F42E8D8598
:102E60009E85662309F444C08430910538F50197A6
:102E700060F1CE010E9491142DA13EA18AA59BA5CF
:102E800028173907E9F008A519A58FA1082E000C0D
:102E9000990B2DA13EA14AA55BA5480F591F4017CC
:102EA000510709F464C0F11018C002171307C1F4E8
:102EB0008FA1080F111D87FD1A95E7CF0597C9F25D
:102EC00085E090E09E878D8756C0CE010E94DA078C
:102ED00083E090E09E878D87CCCF0217130741F7E0
:102EE0004D8D4195B801888199810E94830BE0CF77
:102EF0008430910500F5019700F1CE010E949114F4
:102F000008A519A54AA55BA58FA1082E000C990B51
:102F10002DA13EA1BA01680F791F6017710701F159
:102F2000F11013C00217130799F48FA1080F111D98
:102F300087FD1A95E7CF059721F5CE010E94DA07A4
:102F400083E090E09E878D87D8CF0217130769F73B
:102F50004D8D4195B801888199810E94830BE5CF01
:102F60002417350724F446E050E05E874D87820F32
:102F7000931F9EA38DA3DF91CF911F910F91FF907F
:102F8000089586E090E09ECFEF92FF920F931F93FB
:102F9000CF93DF93EC01162F8D859E85442309F492
:102FA00088C08330910528F00397B1F185E090E067
:102FB0002AC069897A898B899C899B01281B390BD6
:102FC000C90137FD01969595879501969EA38DA31E
:102FD0001123B9F04D8D11E041274195681B790B04
:102FE000888199810E94830B4D8D412741956B8982
:102FF0007C898DA19EA1680F791F888199810E948B
:10300000830B83E090E09E878D87DF91CF911F91A6
:103010000F91FF90EF9008958DA19EA197FDC6CFCF
:10302000CE010E949114F12CE12C6DA17EA1E61637
:10303000F706C4F44D8D41956B897C896E0D7F1D1B
:10304000888199810E94830B4D8D419569897A8988
:103050006E197F09888199810E94830B3FEFE31AE3
:10306000F30AE3CF615071097EA36DA3112369F2C6
:1030700077FDCBCF4D8D11E0412741958B899C8900
:10308000680F791F888199810E94830B4D8D41279C
:10309000419569897A898DA19EA1681B790B8881E8
:1030A0009981DF91CF911F910F91FF90EF900C9438
:1030B000830B8330910531F108F077C0019708F454
:1030C00077C0CE010E943C10CE010E9491141EA236
:1030D0001DA2112399F04D8D01E04027419569898A
:1030E0007A89888199810E94830B4D8D4027419573
:1030F0006B897C89888199810E94830B83E090E0B1
:103100009E878D872DA13EA169897A898B899C89AB
:10311000AB01481B590BCA0157FD01969595879540
:10312000821793070CF444C04D8D4195621B730BBD
:10313000888199810E94830B4D8D41956B897C8993
:103140008DA19EA1680F791F888199810E94830BB0
:103150002DA13EA12F5F3F4F3EA32DA3112309F4C4
:1031600054CF69897A898B899C89AB01481B590B9B
:10317000CA0157FD019695958795821793070CF420
:1031800044CF4D8D11E041274195621B730B88811F
:1031900099810E94830B4D8D412741956B897C89D4
:1031A0008DA19EA1680F791F7ACF059709F489CF69
:1031B00086E090E028CFCF92DF92EF92FF920F93BC
:1031C0001F93CF93DF93EC01162F8D859E854423AB
:1031D00009F458C084309105B0F5019708F43AC05D
:1031E000CE010E9491142DA13EA190E080E011112A
:1031F00002C08FEF90E02817390739F1E8A4F9A44D
:103200002FA18AA59BA5820F911D27FD9A958E154A
:103210009F0581F10D8DC880D9806E2DC6010E9459
:10322000A307011180954DA111114095482301116B
:103230004095B701C6010E94830B8FA1E80EF11CD7
:1032400087FDFA94DDCF059759F285E090E09E87DF
:103250008D8771C0CE010E94DA078FEF90E01111C7
:1032600002C081E090E09EA38DA383E090E09E8762
:103270008D87B6CF8DA19EA1112309F457C09595D6
:10328000879557C08430910550F5019750F1CE01D4
:103290000E949114E8A4F9A42FA18AA59BA5820FEE
:1032A000911D27FD9A958E159F0559F10D8DC880AA
:1032B000D9806E2DC6010E94A307011180954DA1F2
:1032C00011114095482301114095B701C6010E9494
:1032D000830B8FA1E80EF11C87FDFA94DDCF0597D3
:1032E000C1F4CE010E94DA0781E090E0111102C022
:1032F0008FEF90E09EA38DA383E090E09E878D8763
:10330000C6CF8DA19EA1111107C0009709F0B7CFBC
:1033100006C086E090E09BCF8F3F910539F426E010
:1033200030E03E872D87112309F4A9CF880F991F1C
:1033300081609EA38DA3DF91CF911F910F91FF908C
:10334000EF90DF90CF900895AF92BF92CF92DF922F
:10335000EF92FF920F931F93CF93DF93EC01F62E22
:10336000E42E8D859E85222309F4A9C08430910521
:1033700090F50197B8F1CE010E943C10CE010E9459
:1033800091140DA11EA1EE2009F44BC0EE24E3948C
:10339000F11002C070E8E72ECDA0DEA08CA190E075
:1033A000019663E0880F991F6A95E1F708171907DE
:1033B0000CF06FC0A880B980602FC5010E94A307E0
:1033C0009C2D191624F5FF2001F1880F2D8D211158
:1033D0008E299150F6CF059771F285E090E09E8797
:1033E0008D8762C087E090E09EA38DA310E000E08F
:1033F0002BE030E04CA16BA1888199810E9457108D
:1034000083E090E09E878D87B6CF8695DFCFB801A9
:103410006C197D09482FC5010E94830B0F5F1F4F58
:10342000BBCF8CA128E0829FC00111249C01201BEE
:10343000310B8901085F1F4FEE24E394F11002C0A5
:1034400050E8E52ECDA0DEA08BA138E0839FC0011F
:10345000112408171907ECF0A880B980602FC50166
:103460000E94A3079C2D191654F4FF2031F0880FF9
:103470002D8D21118E299150F6CF8695F9CFB80167
:103480006C0D7D1D482FC5010E94830B0150110951
:10349000D9CF8DA19EA1009721F425E030E03E8791
:1034A0002D8701979EA38DA3DF91CF911F910F913F
:1034B000FF90EF90DF90CF90BF90AF900895843051
:1034C000910580F5019788F1EE20C1F10CA188E00B
:1034D000089F800111240A5F1F4F40E8B42EF110AD
:1034E00002C0BB24B394C880D9808BA128E0829FFE
:1034F000C0011124081719070CF450C0602FC60131
:103500000E94A307482FFF20B9F046958D8D8111A9
:103510004B29B8016F5F7F4FC6010E94830B01509A
:103520001109E1CF059709F059C01EA21DA283E041
:1035300090E09E878D87C8CF440FE8CF0BA138E07D
:10354000039F800111240F5F1F4F30E8B32EF1104D
:1035500002C0BB24B394C880D9808CA190E00196AE
:1035600023E0880F991F2A95E1F708171907B4F48B
:10357000602FC6010E94A307482FFF2069F04695DF
:103580008D8D81114B29B80161507109C6010E94CE
:10359000830B0F5F1F4FDFCF440FF2CF88819981DC
:1035A0004D8D4195EE2091F06BA128E0629FB00116
:1035B00011240E94830B8DA19EA18730910521F4D7
:1035C00026E030E03E872D8701966CCF6CA138E075
:1035D000639FB0011124695F7F4FEBCF86E090E0DD
:1035E000FECECF92DF92FF920F931F93CF93DF9384
:1035F000EC01F62E8D859E85442309F484C083302A
:10360000910570F0039751F185E090E09E878D87DA
:10361000DF91CF911F910F91FF90DF90CF90089590
:103620001EA21DA2CE010E943C10FF2099F04D8DDC
:1036300011E04127419569897A89888199810E94A1
:10364000830B4D8D412741956B897C8988819981B8
:103650000E94830B83E090E09E878D87CE010E94BD
:103660003C10CE010E9491140B891C8989899A898A
:10367000801B910B97FD01966C01D594C7948DA189
:103680009EA1080F191FC816D9060CF4BDCF0F5FF5
:103690001F4F69897A898DA19EA19B01281B390B37
:1036A0000217130744F44D8D4195B8018881998123
:1036B0000E94830BECCF01969EA38DA3FF2009F4FB
:1036C000A7CFC816D9060CF4A3CF4D8D11E0412722
:1036D0004195681B790B888199810E94830B4D8DE0
:1036E000412741956B897C898DA19EA1680F791F27
:1036F00088819981DF91CF911F910F91FF90DF9089
:10370000CF900C94830B83309105D1F1A0F50197F4
:10371000A0F189899A892B893C89821B930B97FD9B
:103720000196959587959EA38DA3CE010E943C108E
:10373000CE010E949114FF20D9F04D8D11E0412758
:10374000419569897A898DA19EA1681B790B888131
:1037500099810E94830B4D8D412741956B897C890E
:103760008DA19EA1680F791F888199810E94830B8A
:1037700083E090E04BCF059761F286E090E046CF82
:103780008DA19EA197FDF9CF4D8D419569897A89CB
:10379000681B790B888199810E94830B4D8D41951F
:1037A0006B897C898DA19EA1680F791F8881998181
:1037B0000E94830B8DA19EA101979EA38DA3FF2044
:1037C00009F426CF97FD24CF4D8D11E04127419577
:1037D00069897A897ECF8F929F92AF92BF92CF9262
:1037E000DF92EF92FF920F931F93CF93DF93EC0141
:1037F000F62E8D859E85442309F4E0C08E01095C78
:103800001F4F35E0C32ED12C82309105E9F050F0E6
:103810008330910509F441C0049709F4A8C085E0FC
:1038200090E00FC0BE01695C7F4FCE010E941E1464
:10383000811103C086E090E004C019AE18AE83E0A9
:1038400090E09E878D870DC01FAA88A98823B1F0BC
:10385000DE86CD868D859E852FA9211116C0059700
:1038600099F7DF91CF911F910F91FF90EF90DF902B
:10387000CF90BF90AF909F908F900895B801CE01E8
:103880000E94DA138111E6CFE3CF059751F319AE09
:1038900018AE83E090E09E878D878FA9882329F159
:1038A00021E02F2530E04CA16BA1888199810E94F5
:1038B000DA0E888199816D8D2CA93DA948AD59AD4D
:1038C000662301F1BA016F5F7F4F79AF68AF240FB4
:1038D000351FF90140814095FF20F1F06BA1F8E020
:1038E0006F9FB00111240E94830B2FA988AD99AD61
:1038F0002817190609F0B5CF88A9811115C082E0F3
:1039000090E09FCFBA016F5F7F4F79AF68AF240F10
:10391000351FF9014081E0CF6CA128E0629FB00122
:103920001124695F7F4FDFCF29893A89FF20B1F0E9
:103930008F859889A901481B590BCA0101962BA1B3
:1039400058E0259F80199109112499AF88AF181666
:1039500019060CF064CF84E090E073CF8CA1E8E00E
:103960008E9FC00111240796821B930BEECF21E09E
:10397000262730E04CA16BA1888199810E94DA0E44
:10398000888199814D8D4195FF2081F06BA1F8E0F0
:103990006F9FB00111240E94830B88AD99AD0197F0
:1039A00099AF88AF892B09F05CCF39CF6CA128E0A3
:1039B000629FB0011124695F7F4FEDCF8430910584
:1039C00039F0059709F036CF84E090E09E878D8727
:1039D00021E02F2530E04CA16BA1888199810E94C4
:1039E000DA0E888199814D8D4195FF2009F445C0FB
:1039F0006BA138E0639FB00111240E94830B0CA1DE
:103A000010E0ABA0B12C6801CA18DB088FEFC81A10
:103A1000D80A23E0CC0CDD1C2A95E1F78E8D9F8D12
:103A2000009721F08C159D0508F46C010F5F1F4F66
:103A300083E0000F111F8A95E1F793E0AA0CBB1CED
:103A40009A95E1F7FF2021F145017401EA18FB087E
:103A500080169106DCF5682D888199810E94A30764
:103A600090E02D8D222389F02FEF30E0821793070D
:103A700069F5EFEF8E1A9E0AE8CF6CA158E0659FBA
:103A8000B0011124695F7F4FB8CF30E020E0EECF66
:103A900001501109F12CE12C0A151B05BCF0602F17
:103AA000888199810E94A30790E02D8D222359F0EF
:103AB0002FEF30E08217930749F401501109FFEF0F
:103AC000EF1AFF0AE9CF30E020E0F4CFEC14FD0458
:103AD00008F0B0CEC6CE2F923F924F925F926F9277
:103AE0007F928F929F92AF92BF92CF92DF92EF928E
:103AF000FF920F931F93CF93DF93CDB7DEB72D9730
:103B00000FB6F894DEBF0FBECDBF9A8389837D8345
:103B10006C83DC0198968C919897882309F48AC06D
:103B20009596ED91FC918689978975A764A7E9819F
:103B3000FA8120A5222329F005A0F6A1E02D978B7C
:103B4000868BA981BA8198968C919897882349F0A1
:103B50009596ED91FC911086178212861186148637
:103B60001386E981FA8180A5882359F005A0F6A182
:103B7000E02D81E090E0918F808F138E128E16865B
:103B8000158629813A812C5F3F4F3F832E8306E0C3
:103B900010E0E5E06E2E712CF3E04F2E512C50E03A
:103BA00040E06AE070E08E819F810E94E710212C46
:103BB0001B82A981BA8198968C919897281610F04B
:103BC0000C9469269596ED91FC9124E4229EE00DDB
:103BD000F11D1124FD87EC8712A22585368581E031
:103BE0002630310509F4CBC1848D882331F18781DA
:103BF0009085B0E0A0E02530310529F12FB7F89489
:103C000040919702509198026091990270919A02A6
:103C10002FBFEC85FD85C380D480E580F6804C19EC
:103C20005D096E097F09481759076A077B0758F530
:103C300080E0A5C181E090E07ACFAC85BD85199682
:103C40008D919C91D6CF2FB7F894409197025091C7
:103C500098026091990270919A022FBFEC85FD85C0
:103C6000C380D480E580F6804C195D096E097F0918
:103C7000C384D484F12CE12C4C155D056E057F05C1
:103C800008F0BCCFD5CFAC85BD8512969C90911025
:103C9000CFCF2FB7F8948091970290919802A0917E
:103CA0009902B0919A022FBFEC85FD85838394839E
:103CB000A583B68381E082A3A4A4B5A4A114B10412
:103CC00009F453C185859685009709F433C006979A
:103CD00009F44BC1AC85BD855C963C905C97332064
:103CE00009F4F8C05896ED91FC913197EC31F1054B
:103CF00008F095C3E258F14E0C94B63B941F9D1FFB
:103D0000C41FC71FCE1FA024D11F47211222552335
:103D10009F22DF231D2624262E26272637263026FF
:103D20003926402643264A264D26552658265C2607
:103D30005F266626AC85BD859F96BC92AE929E9707
:103D40009496EC90B8E0EB9E70011124F701379641
:103D50007F01AC85BD8593968C91B8E08B9FE01870
:103D6000F1081124EFEFEE1AFE0AD12CC12CD50177
:103D70006D915D016623C1F0EC85FD8524A935A90F
:103D800070E043A9CF010E94211390E0C80ED91E14
:103D9000892B69F3D5018C91882349F3EC85FD8546
:103DA00086A9C80ED11CE3CFAC85BD855096DC92A8
:103DB000CE921F9756968D919C918130910509F472
:103DC00055C028F0029771F1992493941DC0EC8599
:103DD000FD8584A190E0019673E0880F991F7A9584
:103DE000E1F79C0121503109328B218BEC14FD0449
:103DF00090F483A1F8E08F9FC0011124AC85BD85AC
:103E000054969C938E93539781E09826EC85FD857C
:103E1000958A848F5FCF8C199D09EC85FD85948BE5
:103E2000838BD2CFAC85BD8593968C91B8E08B9F68
:103E3000C0011124EC85FD85948B838BEC14FD046B
:103E400068F484A1F8E08F9FC00111240796AC8527
:103E5000BD8552969C938E935197D6CF0197C80EED
:103E6000D91EEC85FD85D28AC18AAECFAC85BD85D1
:103E700093962C91B8E02B9F90011124EC14FD0433
:103E800098F4EC85FD8584A1F8E08F9FC001112492
:103E90000796AC85BD8552969C938E935197549608
:103EA0003C932E935397B0CFEC18FD08F694E7940B
:103EB000E20EF31EEC85FD85F48AE38AF1E0CF1A69
:103EC000D108CE0CDF1CAC85BD855296DC92CE921B
:103ED00051977ACFAC85BD855A96ED91FC9131977B
:103EE000EC31F10508F09BC2E858F04E0C94B63B5B
:103EF00084229D1FC41FC71FCE1FA024D11F47218E
:103F0000122255239F22DF231D2624262E26272614
:103F1000372630263926402643264A264D26552662
:103F200058265C265F2666268C859D850E94911406
:103F3000EC85FD857686658606C0432D61E08C851F
:103F40009D850E94A615AC85BD855C968C915C977D
:103F50001D962D913C91882329F081E02530310573
:103F600009F480E0EC85FD85848F81E0AC85BD851A
:103F70001D962D913C912630310509F059CEBB811B
:103F8000B82BBB83239415CE432D60E0D8CF432DAF
:103F900061E08C859D850E94EB1BD5CF432D60E0B1
:103FA000F8CFEC85FD8585859685332009F4EAC038
:103FB0007F01F7E3EF0EF11C82309105A1F130F0A3
:103FC000039709F45BC0AC85BD8566C26C857D85B1
:103FD000695C7F4F8C859D850E941E14811103C0F2
:103FE000AC85BD85CAC68C859D850E943C10EC853C
:103FF000FD8511AE10AE83A1F8E08F9FC0011124A2
:10400000AC85BD8596969C938E93959751968D9190
:104010009C9152979B969C938E939A971E965C9236
:104020004E921D9790CFEC85FD8517AA80A9882315
:1040300081F0AC85BD851E967C926E921D97EC85B5
:10404000FD858585968527A921110BC0059759F710
:104050007ACFB7018C859D850E94DA138111EFCF4D
:10406000E8CF059709F46FCFAC85BD85D9961C9232
:104070001E92D8971E965C924E921D97EC85FD85F8
:1040800065A176A182A593A504A8F5A9E02DAC852C
:10409000BD85D8962D913C91D997E20FF31F4081B1
:1040A0006817790751F48D919C9111975D962C9129
:1040B000211140950E94830B3BCF411135C0AC8547
:1040C000BD8596969C938E939597EC85FD8585A1ED
:1040D00096A122A533A582179307C1F420AD31AD77
:1040E00043A1F8E04F9FA0011124AC85BD859696B1
:1040F0005C934E9395972F5F3F4FD9963C932E93A9
:10410000D89701979B969C938E939A97EC85FD8503
:1041100027A980AD91AD2817190609F014CF82E0C8
:1041200090E0968785870FCFEC85FD85458D41957D
:10413000808191810E94830BAC85BD8595966D91A0
:104140007C9196976F5F7F4F96967C936E93959731
:104150008D919C9111975D96EC915D97D4962D91E0
:104160003C91D597D8964D915C91240F351FEE2345
:1041700031F0F901408140950E94830BA6CFD9010F
:104180004C91FACF8130910508F42ACF8430910503
:1041900068F0059709F024CFEC85FD858189928927
:1041A00093A782A796A385A356864586AC85BD8531
:1041B000CD90DC9011975D968C9188248A94912CF7
:1041C000811102C0912C812CEC85FD85A388B488D7
:1041D000AC85BD859596ED90FC906E2DC6010E9434
:1041E000A307EC85FD8522A533A58815190451F494
:1041F0002A153B053CF0C901019793A782A736A376
:1042000025A3E6CF2F5F3F4F2A153B050CF4E8CEE0
:10421000EC85FD8524A1F8E02F9F90011124295FF2
:104220003F4FE216F3063CF4B7016F5F7F4F482F14
:10423000C6010E94830BAC85BD855D964C915D9750
:10424000419595966D917C9196978D919C910E9448
:10425000830BEC85FD8525A136A12F5F3F4F36A34B
:1042600025A384A190E0019643E0880F991F4A9509
:10427000E1F72817390709F066CE82A593A59C01BE
:104280002150310933A722A796A385A35CCEEC85E4
:10429000FD8585859685332009F467C084309105B6
:1042A00008F042C0019708F443C08C859D850E94A8
:1042B0003C108C859D850E949114EC85FD8593A012
:1042C000990C990C990C88248394AC85BD8595969E
:1042D000ED90FC90969794968C91949790E001962F
:1042E00023E0880F991F2A95E1F7A92CB12CA81675
:1042F000B90674F5CD90DC90692DC6010E94A30724
:10430000482F50E087E090E08E199F093320D9F0C4
:1043100002C0559547958A95E2F7B501C6010E94FE
:10432000830B38249394D1CF059709F4BECF00CEE8
:10433000AC85BD8596961C921E9295971E965C92B2
:104340004E921D97B2CF01C0440F8A95EAF7E5CF90
:10435000BFEFEB1AFB0AEC85FD85F6A2E5A2F8E0BB
:10436000EF16F10409F0EFCD2ECE8430910598F5CB
:104370000197A0F1AC85BD8593969C90990C990C02
:10438000990C8824839433243394EC85FD85E5A02F
:10439000F6A084A190E00196B3E0880F991FBA952A
:1043A000E1F7A92CB12CA816B9065CF5C080D18024
:1043B000692DC6010E94A307482F50E08820D9F03C
:1043C00001C0440FEA94EAF7B501C6010E94830BCD
:1043D00083249394DACF059709F002CEE1E0F0E070
:1043E000AC85BD859696FC93EE9395971E965C9250
:1043F0004E921D97BFCF02C055954795EA94E2F7BC
:10440000E3CFFFEFEF1AFF0AAC85BD859696FC92CD
:10441000EE929597B8E0EB16F10409F094CDEC8597
:10442000FD8508C4EC85FD8585859685332009F4D6
:104430005AC08430910500F58230910500F500974F
:1044400081F1019709F0BFCDAC85BD8595966D9141
:104450007C919697CB01019696969C938E93959717
:10446000CD010E94F4108C859D850E949114EC85ED
:10447000FD855686458667CD059709F0A4CDAC85A8
:10448000BD8595966D917C9196979A968D919C910C
:104490009B9786179707ECF41E967C926E921D9759
:1044A00052CDAC85BD8596961C921E92959791969D
:1044B0008C91919790E09B969C938E939A97CD01C7
:1044C0000E943C1021E030E0EC85FD853687258791
:1044D0003ACDCB010196EC85FD8596A385A3CF014E
:1044E0000E94F41030CD8430910598F40197A0F02B
:1044F000EC85FD8565A176A1CB01019777FFEBCF18
:1045000062A5CF010E94F4108C859D850E943C100D
:1045100067CD059709F064CDEC85FD8561A1862FF7
:1045200090E093A782A796A385A3CF010E94F410E1
:104530008C859D850E949114AC85BD856FCDEC85E1
:10454000FD85858596858230910509F45DC048F426
:10455000009769F00197B9F031102EC186E090E024
:10456000E6C08330910509F492C00597A9F7AC85A0
:10457000BD8596961C921E929597E1E0F0E01E96FE
:10458000FC93EE931D97AC85BD8595968D919C917E
:104590009697019696969C938E9395979396EC900A
:1045A000B8E0EB9E70011124DD24D394EC85FD85E9
:1045B00025A136A184A190E00196A3E0880F991F60
:1045C000AA95E1F7E816F90694F4C70183709927D4
:1045D0008217930744F4458D4D254195B70180819D
:1045E00091810E94830BFFEFEF1AFF0ADFCF82E079
:1045F00090E02430310509F0A6CCAC85BD851E962F
:104600009C938E931D979FCC8C859D850E943C101A
:10461000332021F08C859D850E949114EC85FD85C9
:1046200085A196A1019796A385A3E3A0F8E0EF9E4C
:1046300070011124DD24D394AC85BD8595962D9110
:104640003C91969794968C91949790E00196F3E024
:10465000880F991FFA95E1F7E816F906A4F4C70147
:10466000837099278217930754F45D964C915D9758
:104670004D254195B7018D919C910E94830BBFEF11
:10468000EB1AFB0AD9CF232B09F05DCCF0CE8C8539
:104690009D850E943C10332009F412C18C859D85B4
:1046A0000E94911485E090E0A8CFAC85BD851D9651
:1046B0008D919C918230910509F43CC038F0833093
:1046C000910509F46EC0059709F0F8C0EC85FD85E9
:1046D000E3A0F8E0EF9E70011124AC85BD859496AF
:1046E0008C91949790E00196E3E0880F991FEA95EA
:1046F000E1F7E816F906CCF45D96BC905D97CD9095
:10470000DC906E2DC6010E94A307B110809545E58F
:10471000E0FE4AEA482BB1104095B701C6010E945D
:10472000830BBFEFEB1AFB0AD8CF82E090E0EC8559
:10473000FD85F7CC8C859D850E943C10332021F0AF
:104740008C859D850E949114AC85BD859396EC90D7
:10475000B8E0EB9E70011124EC85FD8584A190E00A
:10476000019673E0880F991F7A95E1F7E816F9062C
:104770000CF0E2CEB58CC080D1806E2DC6010E94B7
:10478000A307B11080954AEAE0FE45E5482BB11039
:104790004095B701C6010E94830BFFEFEF1AFF0A95
:1047A000DBCF8C859D850E943C10332009F4D6CE4A
:1047B0008C859D850E94911485E090E0B8CFEC85B2
:1047C000FD85858596858430910508F07CC001972C
:1047D00008F47CC0EC85FD8516A215A20E9446381F
:1047E0004B015C010E944638688779878A879B87DE
:1047F000AC85BD859596CD90DC90BFEFCB1ADB0ADA
:10480000EC85FD85D6A2C5A2C501B4012BE030E040
:1048100040E050E00E94F03870E09B01265B3D4F85
:104820007901D901BC90688579858A859B8528E0C6
:1048300030E040E050E00E94F0388B2D90E0062EF2
:1048400002C0959587950A94E2F780FF05C0B8E805
:10485000CB16B3E1DB0614F281E090E001C0880FD3
:104860006A95EAF7B82AF701B0828C859D850E9487
:104870009114AC85BD8596961C921E929597939641
:10488000BC90BB0CBB0CBB0CEC85FD8584A190E0FF
:10489000019663E0880F991F6A95E1F7CB2CD12C24
:1048A000C816D90614F1EAE4F2E081918F3F09F0CD
:1048B0004ACB22E532E02E173F07B9F73110F2CE8E
:1048C00086E090E09ACE059709F046CEEAE4F2E061
:1048D000119225E532E02E173F07D1F7AC85BD8553
:1048E0001E965C924E921D9775CFAC85BD85ED905E
:1048F000FC906B2DC7010E94A307AC85BD859596E2
:10490000ED91FC91E65BFD4F4081311001C0409577
:104910004823B601C7010E94830BEC85FD8585A164
:1049200096A101968B30910521F096A385A3B394AF
:10493000ABCFAC85BD8596961C921E929597F7CF0E
:10494000AC85BD851D968D919C913110F6C184304A
:10495000910508F0EEC1019778F58C859D850E9440
:10496000DA07EC85FD8580A591A522A533A58217E0
:10497000930724F431A720A793A782A7AC85BD8510
:10498000DE968D919C91DF97892B09F4F6C1EC8519
:10499000FD8583A1F8E08F9FC00111240197AC85AC
:1049A000BD8596969C938E93959797961C92979714
:1049B0001E965C924E921D978C859D850E94911447
:1049C000EC85FD8585A196A1019696A385A3F12C82
:1049D0006F01F1E4CF0ED11CD6012C91EC85FD8541
:1049E00065A176A1822F90E0F21608F0E1C04F2D6C
:1049F00050E0641B750B84A190E0019633E0880FB2
:104A0000991F3A95E1F7681779072CF583A1F8E02B
:104A10008F9FC001112468177907ECF0AC85BD8524
:104A20008D919C91119797963C91979732039001A5
:104A30001124420F531FDE96ED91FC91DF97E40F96
:104A4000F51F5D962C91222309F4B0C0E4914E2FFE
:104A500040950E94830BF394BFCFEC85FD8517A290
:104A600084A190E0019653E0880F991F5A95E1F7D1
:104A700096A385A3568645868C859D850E949114B4
:104A8000AC85BD8595968D919C919697019796964C
:104A90009C938E939597F12C6D01B0E4CB0ED11CB5
:104AA000F6012081AC85BD8595966D917C91969798
:104AB000F21608F03AC0EF2DF0E06E0F7F1F9496CB
:104AC0008C91949790E0019643E0880F991F4A9546
:104AD000E1F7681779072CF593968C91B8E08B9FD6
:104AE000C001112468177907E4F0AC85BD858D916C
:104AF0009C91119797964C9197974203A00111248E
:104B00004E0F5F1FDC96ED91FC91DD97E40FF51FD2
:104B10005D962C91222339F0E4914E2F40950E940E
:104B2000830BF394BDCF4491FACF7B01B1E0EB1A34
:104B3000F108EC85FD8582A593A5E816F9065CF0E1
:104B4000458D4195B701808191810E94830BF1E0F1
:104B5000EF1AF108EECFAC85BD8597968C919797AB
:104B60008F5F97968C939797082E000C990BFD01F9
:104B7000EE5BFF4F20812817190609F014F4979671
:104B80001C92EC85FD8583A1F8E08F9FC001112464
:104B9000D6012C91821B91090197EC85FD8525A1F9
:104BA00036A12817390709F0CEC9C4C9449151CF9D
:104BB0007B01E81AF90AEC85FD8582A593A5E81624
:104BC000F9065CF0458D4195B701808191810E9485
:104BD000830BF1E0EF1AF108EECFAC85BD85979617
:104BE0008C9197978F5F97968C939797082E000CD0
:104BF000990BFD01ED5BFF4F20812817190609F085
:104C000014F497961C92EC85FD8584A1F8E08F9FA3
:104C100090011124295F3F4FD6018C91820F932F71
:104C2000911D0196EC85FD8525A136A12817390730
:104C300009F089C91687058786C9432D60E08C85F0
:104C40009D850E94E6147FC9432D61E0F8CF41E0C5
:104C5000632D8C859D850E94281775C940E0F8CF8B
:104C600041E0632D8C859D850E946F166CC940E0E4
:104C7000F8CF432D60E08C859D850E94C41763C9E1
:104C8000432D61E0F8CF432D60E08C859D850E9427
:104C9000F11A59C9432D61E0F8CF232D41E061E0BD
:104CA0008C859D850E94A4194EC9232D40E0F7CF25
:104CB000232D41E060E0F4CF232D40E0FBCF432DD6
:104CC00061E08C859D850E94DB183DC9432D60E025
:104CD000F8CF41E050E06AE070E08E819F810E9451
:104CE000E710EB81E1110C94CF1DEC81FD81019067
:104CF0000020E9F73197CF012C813D81821B930B76
:104D00002D960FB6F894DEBF0FBECDBFDF91CF91C9
:104D10001F910F91FF90EF90DF90CF90BF90AF90D9
:104D20009F908F907F906F905F904F903F902F90CB
:104D30000895059709F411CE53C98430910510F5F3
:104D4000019708F099CE8C859D850E94DA07EC8545
:104D5000FD8580A591A522A533A58217930724F48C
:104D600031A720A793A782A7AC85BD85DC968D913E
:104D70009C91DD97892B09F070CE1E961C930E93A3
:104D80001D97E1C8059709F477CE1DC91F93CF93EE
:104D9000DF9385ED8093BC008091DC019091DD0173
:104DA000A091DE01B091DF010796A11DB11D23E0A6
:104DB000B695A795979587952A95D1F72091BC0030
:104DC00024FD03C01092240252C04091DC01509196
:104DD000DD016091DE017091DF01452B462B472BF1
:104DE00069F30097A105B10541F025E32A95F1F794
:104DF00000000197A109B109E1CF8091DB01C1E079
:104E0000C093DA01882399F1D091B8001091BA00CB
:104E10008091BC008A7B8093BC0060E082E10E94AC
:104E2000D70460E083E10E94D70410922402C0936B
:104E300026021092250261E082E10E94D70461E01F
:104E400083E10E94D7048091B9008E7F8093B900DE
:104E50008091B9008D7F8093B90088E48093B80079
:104E600085E48093BC001093BA00D093B800DF9122
:104E7000CF911F9108951F920F920FB60F92112498
:104E80002F933F934F935F936F937F938F939F9352
:104E9000AF93BF93EF93FF938091E1049091E2046D
:104EA000A091E304B091E404892B8A2B8B2BD1F1E0
:104EB0009091DC04E091DD04F091DE04808189278B
:104EC00080838091E1049091E204A091E304B09189
:104ED000E404181619061A061B069CF48091E104D6
:104EE0009091E204A091E304B091E4040197A10938
:104EF000B1098093E1049093E204A093E304B0939A
:104F0000E404FF91EF91BF91AF919F918F917F91B9
:104F10006F915F914F913F912F910F900FBE0F9026
:104F20001F901895809100010E940505EACF1F92FD
:104F30000F920FB60F9211242F933F934F935F93CD
:104F40006F937F938F939F93AF93BF93EF93FF9351
:104F50008BEF94E00E94F603FF91EF91BF91AF9128
:104F60009F918F917F916F915F914F913F912F9181
:104F70000F900FBE0F901F9018951F920F920FB6B3
:104F80000F9211242F938F939F93EF93FF93E091B0
:104F90000B05F0910C058081E0911105F09112054F
:104FA00082FD1BC09081809114058F5F8F732091CB
:104FB0001505821741F0E0911405F0E0E550FB4F34
:104FC000958F80931405FF91EF919F918F912F9171
:104FD0000F900FBE0F901F9018958081F4CF1F92F5
:104FE0000F920FB60F9211242F933F938F939F939D
:104FF000AF93BF938091970290919802A0919902EC
:10500000B0919A023091960223E0230F2D3758F584
:105010000196A11DB11D2093960280939702909353
:105020009802A0939902B0939A0280919B0290916A
:105030009C02A0919D02B0919E020196A11DB11DFE
:1050400080939B0290939C02A0939D02B0939E023A
:10505000BF91AF919F918F913F912F910F900FBE74
:105060000F901F90189526E8230F0296A11DB11DE1
:10507000D2CF1F920F920FB60F9211242F933F930E
:105080004F935F936F937F938F939F93AF93BF9350
:10509000EF93FF93E091A102F091A202309749F0C3
:1050A000A685B7858585968D91FF14C09C9189232F
:1050B000A1F4FF91EF91BF91AF919F918F917F915B
:1050C0006F915F914F913F912F910F900FBE0F9075
:1050D0001F9018959C91892361F7A389B4899C91AD
:1050E0008589809589238C93868997890197F1F723
:1050F000608D718DA685B785558538E020E0CB01A0
:105100000197F1F7822F90E095958795282F4C9184
:10511000452309F02068315091F7868D81FD209557
:105120008091A00290E001968F73992730919F02A1
:10513000381799F0A091A002B0E0AA5ABD4F2C9365
:105140008093A002828D938D0197F1F7A389B48992
:105150008C919589892B8C93ACCF868D8160868FBD
:10516000F1CF1F920F920FB60F9211242F933F93FE
:105170004F935F936F937F938F939F93AF93BF935F
:10518000EF93FF938091B900887F803609F44AC07D
:10519000F0F5883209F4A5C018F5803109F499C0FA
:1051A000B8F4882309F4F5C0883009F492C0FF915F
:1051B000EF91BF91AF919F918F917F916F915F918F
:1051C0004F913F912F910F900FBE0F901F90189508
:1051D000883109F486C0803251F78093230214C0CD
:1051E000803409F49BC040F48033B9F38833F9F676
:1051F0008093230285ECAEC0803509F483C08835E6
:1052000009F494C0883499F60E94C626D0CF883914
:1052100009F48AC038F5883729F050F4883611F03F
:10522000803729F683E0809324021092220255C031
:10523000883809F479C0803919F0803809F0B7CF7F
:1052400080912202803208F06FC0E091220281E05A
:105250008E0F809322028091BB00F0E0EE5FFD4F45
:1052600080833BC0803B39F0D0F4803A09F477C0AA
:10527000883A09F09CCF84E08093240210920102C6
:1052800010920002F0E0E0E00995809100028111A7
:105290000FC081E0809300021092E00109C0803CC1
:1052A00009F4A8CF883C09F4A5CF883B09F07FCF4B
:1052B000E091010281E08E0F80930102F0E0E05264
:1052C000FE4F80818093BB0090910102809100028B
:1052D00029C0809149028093BB0085EC8093BC007B
:1052E00066CF9091480280914702981758F5E09157
:1052F000480281E08E0F80934802F0E0E95DFD4FA7
:105300008081E9CFE091480281E08E0F80934802CE
:105310008091BB00F0E0E95DFD4F808390914802F1
:10532000809147029817C8F285E8D8CFE0914802EB
:1053300081E08E0F809348028091BB00F0E0E95D30
:10534000FD4F80838091260281115ECF81E08093A2
:10535000250284EA8093BC001092240228CF85ECB9
:105360008093BC001092240280912202803230F49B
:10537000E0912202F0E0EE5FFD4F10826091220288
:1053800070E082E092E0F0E0E0E009951092220205
:105390000ECF1092230238CF1F920F920FB60F92AA
:1053A00011242F933F934F935F936F937F938F932A
:1053B0009F93AF93BF93CF93DF93EF93FF9380912E
:1053C000D801C091BC05D0E087FF24C010928500B1
:1053D000109284008091D8018F5F8093D8018091D2
:1053E000D801082E000C990B8C179D0724F480918E
:1053F000D8018C30C4F1809184009091850004968E
:1054000080349C4908F47AC0809184009091850092
:10541000049676C08091D801082E000C990B8C1749
:105420009D07C4F6E091D8018E2FEE0F990BFC0179
:10543000EE0FFF1FE80FF91FE856FA4F808186FF35
:10544000C9CFE091D8018E2FEE0F990BFC01EE0F22
:10545000FF1FE80FF91FE856FA4F808160E08F7355
:105460000E94D704B7CF2091840030918500E0914D
:10547000D8018E2FEE0F990BFC01EE0FFF1FE80FE6
:10548000F91FE856FA4F81819281820F931F909302
:10549000890080938800E091D8018E2FEE0F990B40
:1054A000FC01EE0FFF1FE80FF91FE856FA4F80814D
:1054B00086FF11C0E091D8018E2FEE0F990BFC01F1
:1054C000EE0FFF1FE80FF91FE856FA4F808161E0E9
:1054D0008F730E94D704FF91EF91DF91CF91BF911D
:1054E000AF919F918F917F916F915F914F913F917C
:1054F0002F910F900FBE0F901F90189580E49CE99C
:1055000090938900809388008FEF8093D801E3CF38
:10551000CF92DF92EF92FF920F931F93E82FF92F14
:1055200005C0015011092109310961F190819623CB
:105530009417B9F305C0015011092109310911F17E
:10554000908196239413F7CFC12CD12CE12CF12C10
:105550000AC08FEFC81AD80AE80AF80A0C151D0508
:105560002E053F0579F080818623841791F36C2DF9
:105570007D2D8E2D9F2D1F910F91FF90EF90DF902D
:10558000CF90089560E070E080E090E01F910F916F
:10559000FF90EF90DF90CF9008951092FE0410924C
:1055A000FD0488EE93E0A0E0B0E08093FF049093C8
:1055B0000005A0930105B09302052EE131E0309380
:1055C000FC042093FB0425EC30E030930805209385
:1055D000070524EC30E030930A052093090520EC00
:1055E00030E030930C0520930B0521EC30E0309334
:1055F0000E0520930D0522EC30E03093100520932A
:105600000F0526EC30E0309312052093110510921F
:105610001405109215051092160510921705109298
:10562000D1051092D0058093D2059093D305A09315
:10563000D405B093D50580E391E09093CF05809396
:10564000CE051092E5051092E4051092E705109240
:10565000E6051092E9051092E8051092EB0510920C
:10566000EA056091EC056E7F6D7F6093EC056695B1
:10567000617081E0682783E00E94D70461E083E0E5
:105680000E943105ECEDF5E0E491E093DE05E8ECF5
:10569000F5E0E491F0E0EE0FFF1FE554FA4F85913D
:1056A00094919093E0058093DF0560E082E00E9492
:1056B00031058091EC0581FD04C061E082E00E942B
:1056C000D70482E08093DA05EBEDF5E0E491E09316
:1056D000DB05E7ECF5E0E491F0E0EE0FFF1FEF549F
:1056E000FA4F859194919093DD058093DC0510929B
:1056F000C5051092CA051092CB051092CC051092E8
:10570000CD051092C6051092C7051092C8051092DB
:10571000C9058091BC058C3098F491E0980F909366
:10572000BC058093BD0590E0FC01EE0FFF1FE80F64
:10573000F91FE856FA4F88EB9BE092838183089526
:105740008FEF8093BD050895CF93DF93CDB7DEB77C
:10575000CC56D1090FB6F894DEBF0FBECDBF7894FA
:1057600084B5826084BD84B5816084BD85B5826066
:1057700085BD85B5816085BD80916E008160809317
:105780006E00109281008091810082608093810080
:105790008091810081608093810080918000816090
:1057A000809380008091B10084608093B1008091EB
:1057B000B00081608093B00080917A008460809313
:1057C0007A0080917A00826080937A0080917A00DA
:1057D000816080937A0080917A00806880937A005B
:1057E0001092C100E0910B05F0910C0582E08083DE
:1057F000E0910705F09108051082E0910905F0910C
:105800000A0580E1808310921305E0910F05F09165
:10581000100586E08083E0910D05F0910E058081F2
:1058200080618083E0910D05F0910E058081886094
:105830008083E0910D05F0910E0580818068808362
:10584000E0910D05F0910E0580818F7D808310928F
:10585000E9051092E8051092E7051092E60510920E
:10586000E5051092E4058DE991E09093EB058093B6
:10587000EA059091DA05963108F047C02DEB30E04B
:105880003093E5052093E4052BE931E03093E705FB
:105890002093E6052CE231E03093E9052093E805FA
:1058A0002091680084E0983048F031E09E3008F4A0
:1058B00030E081E001C0880F3A95EAF7822B8093AF
:1058C00068002DE630E0983050F02BE630E09E3056
:1058D00030F02CE630E0963110F030E020E03093EC
:1058E000E2052093E105292F30E0983008F069C0E7
:1058F00081E001C0880F9A95EAF78093E3058091D3
:10590000EA059091EB050197F1F78091E8059091F8
:10591000E905892B49F1E091A102F091A20225E06D
:10592000EE3CF20709F1309739F0A389B4899C91D4
:105930008589809589238C938091EC058E7F809357
:10594000EC051092A00210929F028EEC95E09093CD
:10595000A2028093A102E091E105F091E20580812D
:105960009091E305892B8083809101018111109230
:1059700001018BEF94E00E94D603892B11F40C9463
:10598000AF3760E170E080E090E00E948705E3EAD5
:10599000F2E080E4DF011D928A95E9F7F12C8BEFAC
:1059A00094E00E94D6030F2D10E00D551D4F892B5A
:1059B000A9F08BEF94E00E94B403F8018083F39484
:1059C000EECF9E3040F42850310981E001C0880FAD
:1059D0002A95EAF792CF2E503109F7CFD8011C92C1
:1059E00061E671E083EA92E00E94BC3869969FAF5D
:1059F0008EAF699761E671E090E080E00E94BC386C
:105A00001C0161E671E090E080E00E94BC386B967A
:105A10009FAF8EAF6B9761E671E090E080E00E94EF
:105A2000BC384C0163E671E069968EAD9FAD699715
:105A30000E940C3D892B09F0DDC167E671E0C101D0
:105A40000E94BC385C0167E671E090E080E00E9453
:105A5000BC386C0167E671E090E080E00E94BC38E1
:105A60007C0167E671E090E080E00E94BC388C0128
:105A7000C5010E949E38B82EC6010E949E38D82EBD
:105A8000C7010E949E38F82EC8010E949E381C82D1
:105A90001B8220E131E03A8329838A87FB86DC86FA
:105AA0001D8623EE32E03F872E87B88A91E0998FDA
:105AB00021E030E03E832D839F8318861986B8A6A7
:105AC00061E00E94310561E08B850E94310561E053
:105AD0008C850E94310561E08C850E94D7041E8A66
