:100000000C9464000C948C000C948C000C942A0AC0
:100010000C942A0A0C942A0A0C948C000C942C0937
:100020000C948C000C948C000C948C000C94C10BE0
:100030000C948C000C948C000C948C000C948C0010
:100040000C94E0090C948C000C94AE090C94880973
:100050000C948C000C948C000C948C000C948C00F0
:100060000C94A20A0C948C000000000024002700CD
:100070002A0000000008000201000003040700003D
:1000800000000000000002000000002300260029FC
:100090000000000000250028002B000404040404D4
:1000A0000404040202020202020303030303030125
:1000B00002040810204080010204081020010204FC
:1000C00008102000C20C3F1811241FBECFEFD8E04B
:1000D000DEBFCDBF11E0A0E0B1E0EEE9F9E302C080
:1000E00005900D92A63FB107D9F726E0A6EFB1E043
:1000F00001C01D92A43AB207E1F710E0C3E6D0E0D8
:1001000004C02197FE010E948E1BC236D107C9F799
:100110000E94C00D0C94C21C0C9400000895089518
:10012000AF92BF92CF92DF92EF92FF920F931F9305
:10013000CF93DF936C017B018B01040F151FEB0143
:100140005E01AE18BF08C017D10759F06991D601FA
:10015000ED91FC910190F081E02DC6010995892B6C
:1001600079F7C501DF91CF911F910F91FF90EF902B
:10017000DF90CF90BF90AF900895FC01538D448DD8
:10018000252F30E0842F90E0821B930B541710F042
:10019000CF96089501970895FC01918D828D98174F
:1001A00061F0A28DAE0FBF2FB11D5D968C91928D27
:1001B0009F5F9F73928F90E008958FEF9FEF089558
:1001C000FC01918D828D981731F0828DE80FF11D21
:1001D000858D90E008958FEF9FEF0895FC01918D3C
:1001E000228D892F90E0805C9F4F821B91098F7335
:1001F0009927089584E995E00E94EE0021E0892B7B
:1002000009F420E0822F0895FC01A48DA80FB92FD6
:10021000B11DA35ABF4F2C91848D90E001968F732E
:100220009927848FA689B7892C93A089B1898C914D
:10023000837080648C93938D848D981306C002889C
:10024000F389E02D80818F7D80830895EF92FF9266
:100250000F931F93CF93DF93EC0181E0888F9B8DE9
:100260008C8D98131AC0E889F989808185FF15C0A3
:100270009FB7F894EE89FF896083E889F9898081C6
:100280008370806480839FBF81E090E0DF91CF9195
:100290001F910F91FF90EF900895F62E0B8D10E0B7
:1002A0000F5F1F4F0F731127E02E8C8D8E110CC026
:1002B0000FB607FCFACFE889F989808185FFF5CF71
:1002C000CE010E940401F1CFEB8DEC0FFD2FF11D4B
:1002D000E35AFF4FF0829FB7F8940B8FEA89FB89AE
:1002E00080818062CFCFCF93DF93EC01888D88230C
:1002F000B9F0AA89BB89E889F9898C9185FD03C089
:10030000808186FD0DC00FB607FCF7CF8C9185FF6D
:10031000F2CF808185FFEDCFCE010E940401E9CFAD
:10032000DF91CF910895833081F028F4813099F0E6
:100330008230A9F008958730A9F08830C9F0843060
:10034000B1F4809180008F7D03C0809180008F7711
:1003500080938000089584B58F7784BD089584B517
:100360008F7DFBCF8091B0008F778093B000089590
:100370008091B0008F7DF9CFCF93DF93282F30E0AD
:10038000F901EE58FF4F8491F901E155FF4FD491E7
:10039000F901E556FF4FC491CC23A1F081110E94D1
:1003A0009301EC2FF0E0EE0FFF1FE957FF4FA591EF
:1003B000B491EC91ED2381E090E009F480E0DF91CD
:1003C000CF91089580E090E0FACF1F93CF93DF9311
:1003D000282F30E0F901EE58FF4F8491F901E155E3
:1003E000FF4FD491F901E556FF4FC491CC23A9F0FA
:1003F000162F81110E949301EC2FF0E0EE0FFF1FEA
:10040000EF56FF4FA591B4918FB7F894EC9111116D
:1004100008C0D095DE23DC938FBFDF91CF911F9171
:100420000895DE2BF8CF9091000189130BC0E6E808
:10043000F0E0E4919FEF90930001E13049F028F063
:10044000E23061F060E00C94E50110926E00FACFAA
:1004500090916F009D7F90936F00F4CF909170000A
:100460009D7F9093700091E09093B0009091B100C7
:10047000987F94609093B1001092B300E3CFCF9334
:10048000DF9390E0FC01E155FF4F249185569F4F8B
:10049000FC0184918823D1F090E0880F991FFC0122
:1004A000E859FF4FA591B491FC01EF56FF4FC5915C
:1004B000D49161110EC09FB7F8948C91E22FE09512
:1004C0008E238C932881E223E8839FBFDF91CF9115
:1004D00008958FB7F894EC91E22BEC938FBFF6CF91
:1004E0003FB7F8948091EE029091EF02A091F00254
:1004F000B091F10226B5A89B05C02F3F19F00196D7
:10050000A11DB11D3FBFBA2FA92F982F8827BC016D
:10051000CD01620F711D811D911D42E0660F771F95
:10052000881F991F4A95D1F708958F929F92AF9295
:10053000BF92CF92DF92EF92FF926B017C010E94FB
:1005400070024B015C01C114D104E104F104B9F063
:100550000E947002681979098A099B09683E7340F4
:100560008105910580F321E0C21AD108E108F10864
:1005700088EE880E83E0981EA11CB11CE4CFFF908A
:10058000EF90DF90CF90BF90AF909F908F900895A5
:100590002091F4023091F5022817390771F49091F7
:1005A000F2028091F302981741F0E091F202F0E03C
:1005B000E755FD4F808190E008958FEF9FEF0895FC
:1005C0000895EF92FF920F931F93CF93DF93DC0177
:1005D0005C96ED90FC905D97E114F10479F481E074
:1005E00090E013969C938E93129790E080E0DF91B9
:1005F000CF911F910F91FF90EF9008955196ED913B
:10060000FC91529750968C915097982F90950FB7D8
:100610005E962C915E97122F127021FD6095F894D2
:100620002081112319F1282B2083E7012197F1F76D
:1006300028E0462F50E0308160FF1AC0382B30830D
:10064000E7012197F1F7BA0175956795215089F770
:10065000112381F08081892380830FBF5C968D9167
:100660009C910197F1F781E090E0C1CF2923DCCF85
:100670003923E5CF9081892BEFCF2091F40230917F
:10068000F5022817390761F48091F3022091F202F4
:1006900090E0805C9F4F821B91098F73992708958A
:1006A00090E080E008952091F4023091F50228173F
:1006B0003907B9F49091F2028091F302981789F00A
:1006C000E091F202F0E0E755FD4F80812091F202C7
:1006D00030E02F5F3F4F2F7333272093F20290E0DB
:1006E00008958FEF9FEF08958F929F92AF92BF92E0
:1006F000CF92DF92EF92FF921F93CF93DF93FC0193
:100700004A01AA24BB24C82DC32ED42EE52EFF24D3
:100710001C2DD22F8085882361F0889E40011124F2
:10072000C92D8C9D600111241D2D829FD0011124A3
:10073000DB2FA685E184F2849385A91322C0CB0127
:10074000880F991F680F791F6E0D7F1DA385A60F57
:10075000B72FB11DCC93A485A60FB72FB11D1C9345
:100760008585680F711DFB01D083DF91CF911F91AB
:10077000FF90EF90DF90CF90BF90AF909F908F90C1
:100780000895660F771F660F771F6E0D7F1D252F4B
:10079000332744275527882349F090E0829F700132
:1007A000839FF00C929FF00C11242F2DA60FB72FD2
:1007B000B11D2C93CBCFCF92DF92EF92FF920F938C
:1007C0001F93CF93DF93CDB7DEB729970FB6F89479
:1007D000DEBF0FBECDBF8C01DC0119968D919C91BF
:1007E000892B09F473C00E947002F801C784D08875
:1007F000E188F2886C157D058E059F0520F46787DA
:10080000708B818B928BF801C784D088E188F28845
:100810006C197D098E099F096C3271408105910523
:1008200010F3F894D80114968D919C9115979A83A2
:1008300089831996ED91FC917F01BFEFEB1AFB0ABA
:1008400080818987F80190810388F489E02DD8019F
:1008500055968C91992309F448C09081982B9887DC
:100860009081809589238F838F818C8388E08B830F
:1008700058856F8149853B812C8189819A81D70177
:10088000508347FD252F3A952083262F39F0441FAA
:1008900000C000006083000000C0F2CF38E04D913E
:1008A00060830000019761F7D8015496FC93EE93A2
:1008B000539749873B832C839A83898378940E943A
:1008C0007002F8016787708B818B928B29960FB627
:1008D000F894DEBF0FBECDBFDF91CF911F910F9176
:1008E000FF90EF90DF90CF9008959081982B98879C
:1008F0009081809589238F838F818E8388E08D837B
:1009000058856F8149853D812E8189819A81D701E2
:10091000508347FD252F00C000C0208300C000C0C9
:1009200000C000C000C060830000262F3A9541F04F
:10093000441F000000C000C000C000C000C0E8CFDD
:1009400038E04D9100C0608300C0019709F7D801DD
:100950005496FC93EE93539749873D832E83ACCFF7
:10096000CF93DF93EC018E819F8197FD07C061E0FB
:100970000E943F0260E08E810E94E50181E0898350
:10098000DF91CF910895089520913802260F3327E3
:10099000331F21323105ECF420918102FC0190E0FB
:1009A00080E0243069F082E00895A091380221911E
:1009B000AC01485E5D4FA40FB52FB11D2C9301967D
:1009C000861798F380913802680F6093380280E0B0
:1009D000089581E008951092810281E08093800261
:1009E00010925B0261E082E10E94E50161E083E137
:1009F0000E94E501E9EBF0E080818E7F80838081B9
:100A00008D7F808388E48093B80085E48093BC0068
:100A10000895CF93DF9391E0909317028823B9F064
:100A2000C091B800D091BA008091BC008A7B8093BD
:100A3000BC0060E082E10E94E50160E083E10E9489
:100A4000E5010E94EB04D093BA00C093B800DF9197
:100A5000CF910895E091FD028091FC02E81730F4F7
:100A6000F0E0E950FE4F808190E008958FEF9FEF16
:100A700008959091FD028091FC022FEF3FEF9817AF
:100A800048F4E92FF0E0E950FE4F208130E09F5F0D
:100A90009093FD02C90108958091FC029091FD029E
:100AA000891B990B0895CF92DF92EF92FF920F93DB
:100AB0001F93CF93DF937C01CB018A0120918702A2
:100AC000222389F0EB016B01C40ED51ECC15DD0588
:100AD00069F06991D701ED91FC910190F081E02DD1
:100AE000C7010995F3CF642F0E94C404C801DF91A8
:100AF000CF911F910F91FF90EF90DF90CF900895CD
:100B0000CF93DF931F92CDB7DEB769832091870221
:100B10002223F9F02091FA02203258F021E030E04F
:100B2000FC013383228390E080E00F90DF91CF912E
:100B300008958091FB02E82FF0E0E857FD4F99817E
:100B400090838F5F8093FB028093FA0281E090E0B4
:100B5000ECCF61E0CE0101960E94C404F7CFCF92A2
:100B6000DF92EF92FF920F931F93CF93DF93FC01DD
:100B7000C48121E020938702C093A8021092FB0257
:100B80001092FA028385682B81E396E00E9480052B
:100B9000D091FA02D13208F092C00E9470026B012B
:100BA0007C0180918102811165C082E08093810285
:100BB00081E0809380028FEF80937F0210927E020B
:100BC000D0937D02A8E8B2E0EDE5F2E080E0D81332
:100BD00085C010925C0280915C02CC0FC82BC09340
:100BE0005C0280915B02813009F07CC010925B0254
:100BF0000E9470026B017C0180915C028093BB00BB
:100C00008091830290918402A0918502B091860226
:100C1000892B8A2B8B2B99F00E9470020091830202
:100C20001091840220918502309186026C197D0911
:100C30008E099F090617170728073907E0F18091E9
:100C4000BC0083FDD9CF85EC8093BC000E9470026C
:100C50006B017C0180918102823009F445C0809152
:100C60007F028F3F61F180917F02803241F180915C
:100C70007F0225C08091830290918402A091850219
:100C8000B0918602892B8A2B8B2B09F48ACF0E9484
:100C900070020091830210918402209185023091AC
:100CA00086026C197D098E099F0906171707280708
:100CB000390708F076CF809182020E9409051092D0
:100CC000FB021092FA0210928702DF91CF911F91DE
:100CD0000F91FF90EF90DF90CF9008959D919193A9
:100CE0008F5F75CF85EEB0CF8091830290918402A3
:100CF000A0918502B0918602892B8A2B8B2B09F457
:100D0000A9CF0E9470020091830210918402209169
:100D10008502309186026C197D098E099F0906179C
:100D200017072807390708F095CFC5CF90E080E076
:100D300008950F931F93CF938C01C62F0E94AF0588
:100D40006C2F6460C8010E94AF056C2F6B7FC801D7
:100D50000E94AF0583EC90E00197F1F7CF911F91CE
:100D60000F9108950F931F93CF93DF938C01D62F8C
:100D7000C42F607F642B0E94990680E1D89FB00148
:100D800011246C2BC801DF91CF911F910F910C940E
:100D9000990641E00E94B20681E090E008950F9329
:100DA0001F93CF93DF9365E070E080E090E00E94B6
:100DB0009502E3E1F5E080E8DF011D928A95E9F70D
:100DC000EF018E010351154084E995E00E94EE0089
:100DD000892B31F084E995E00E94CC008993F1CF12
:100DE00084E995E00E94730165E070E080E090E0A6
:100DF0000E9495020D5E1A4FE801C351D54084E967
:100E000095E00E94EE00892B41F084E995E00E9474
:100E1000CC00F80181938F01EFCF84E995E00E9427
:100E2000730165E070E080E090E00E949502CD5E85
:100E3000DA4F8E010351154084E995E00E94EE00DF
:100E4000892B31F084E995E00E94CC008993F1CFA1
:100E5000F801ED5EFA4F108281E08093930584E9FA
:100E600095E0DF91CF911F910F910C9473010E9437
:100E7000FA0081110C94CF0608950F931F93CF931E
:100E8000DF93EC01162F072F198218861F86188A08
:100E9000198A1A8A81E08E878B871C8692E09D874B
:100EA00088838BE490E09D838C830E94941B9A87B7
:100EB0008987009779F12BE4FC0111922A95E9F7D3
:100EC00089E190E09B838A831E830F838981882335
:100ED00041F061E0812F0E943F0260E0812F0E947B
:100EE000E501812F902FFC01E556FF4FE491F0E0E2
:100EF000EE0FFF1FEF56FF4F259134913C8B2B8B4C
:100F0000FC01E155FF4FE491ED8BDF91CF911F91F3
:100F10000F9108951D821C821B821A82D5CFFB017E
:100F200001900020E9F73197AF01461B570BDC0118
:100F3000ED91FC910280F381E02D09948F929F92B4
:100F4000AF92BF920F931F93CF93DF93CDB7DEB7CE
:100F5000A1970FB6F894DEBF0FBECDBF19A24230E5
:100F600008F44AE08E010F5D1F4F842E912CB12CA6
:100F7000A12CA50194010E94DF18E62FB901CA0136
:100F8000EA3004F5E05DD801EE938D01232B242B8C
:100F9000252B79F790E080E0109729F0BD0184E9D6
:100FA00095E00E948F07A1960FB6F894DEBF0FBEA2
:100FB000CDBFDF91CF911F910F91BF90AF909F90C8
:100FC0008F900895E95CDFCFCF92DF92EF92FF928E
:100FD000CF93DF9397FF1BC06B017C016DE284E927
:100FE00095E00E942601EC0166277727CB016C195A
:100FF0007D098E099F094AE00E949E078C0F9D1F64
:10100000DF91CF91FF90EF90DF90CF9008954AE06D
:10101000DF91CF91FF90EF90DF90CF900C949E07DF
:101020004F925F926F927F928F929F92AF92BF92F8
:10103000CF92DF92EF92FF920F931F93CF936B01AA
:101040007C01742EAC019B010E944E1B61E571E096
:10105000811126C046015701E894B7F82FEF3FEF02
:101060004FE75FE7C501B4010E944E1B81110CC020
:101070002FEF3FEF4FE75FE7C501B4010E947D19F5
:1010800065E571E0181664F02FEF3FEF4FE75FE47E
:10109000C701B6010E94DC1A1816ACF469E571E0CC
:1010A00084E995E0CF911F910F91FF90EF90DF9031
:1010B000CF90BF90AF909F908F907F906F905F90F8
:1010C0004F900C948F072FEF3FEF4FE75FECC70176
:1010D000B6010E947D1987FDE1CF20E030E0A90133
:1010E000C701B6010E947D1910E000E087FF0AC029
:1010F0006DE284E995E00E9426018C01F7FAF094F4
:10110000F7F8F094C0E060E070E080E09FE37C16C8
:1011100041F020E030E040E251E40E948219CF5FCC
:10112000F6CFA70196010E9411192B013C010E94E4
:10113000FB194B015C014AE00E949E077C01E00E16
:10114000F11ECC23C1F1C501B4010E942A1A9B01F2
:10115000AC01C301B2010E9410194B015C016EE2A7
:1011600084E995E00E942601E80EF91EC15018F1AD
:1011700020E030E040E251E4C501B4010E94E11AF0
:101180002B013C010E94FB194B01B12CA12C4AE020
:10119000C501B4010E949E07E80EF91EC501B40105
:1011A0000E942A1A9B01AC01C301B2010E941019CE
:1011B0004B015C01DBCFC701CF911F910F91FF90D5
:1011C000EF90DF90CF90BF90AF909F908F907F90E7
:1011D0006F905F904F9008956115710511F00C9418
:1011E0008F0790E080E0089585ED8093BC008091AA
:1011F000830290918402A0918502B09186020796A5
:10120000A11DB11D23E0B695A795979587952A95C1
:10121000D1F72091BC0024FD03C0109281020895F3
:101220004091830250918402609185027091860200
:10123000452B462B472B69F30097A105B10541F0DB
:101240002AE22A95F1F700C00197A109B109E1CF7F
:10125000809182020C9409051F920F920FB60F9293
:1012600011242F933F934F935F936F937F938F93AB
:101270009F93AF93BF93EF93FF938091030390915C
:101280000403A0910503B0910603892B8A2B8B2BB5
:10129000D1F19091FE02E091FF02F0910003808174
:1012A000892780838091030390910403A091050313
:1012B000B0910603181619061A061B069CF48091B5
:1012C000030390910403A0910503B09106030197D5
:1012D000A109B1098093030390930403A09305032C
:1012E000B0930603FF91EF91BF91AF919F918F91C2
:1012F0007F916F915F914F913F912F910F900FBE12
:101300000F901F901895809100010E941302EACF60
:101310001F920F920FB60F9211242F933F934F936A
:101320005F936F937F938F939F93AF93BF93EF934D
:10133000FF9384E995E00E940401FF91EF91BF9132
:10134000AF919F918F917F916F915F914F913F915D
:101350002F910F900FBE0F901F9018951F920F9214
:101360000FB60F9211242F938F939F93EF93FF93B8
:10137000E091A405F091A5058081E091AA05F09186
:10138000AB0582FD1BC090818091AD058F5F8F738F
:101390002091AE05821741F0E091AD05F0E0EC56EA
:1013A000FA4F958F8093AD05FF91EF919F918F91AB
:1013B0002F910F900FBE0F901F9018958081F4CF42
:1013C0001F920F920FB60F9211242F933F938F937A
:1013D0009F93AF93BF938091EA029091EB02A0910B
:1013E000EC02B091ED023091E90223E0230F2D379A
:1013F00058F50196A11DB11D2093E9028093EA02E0
:101400009093EB02A093EC02B093ED028091EE0278
:101410009091EF02A091F002B091F1020196A11D0E
:10142000B11D8093EE029093EF02A093F002B0936F
:10143000F102BF91AF919F918F913F912F910F90AA
:101440000FBE0F901F90189526E8230F0296A11D3E
:10145000B11DD2CF1F920F920FB60F9211242F936E
:101460003F934F935F936F937F938F939F93AF932C
:10147000BF93EF93FF93E091F402F091F502309760
:1014800049F0A685B7858585968D91FF14C09C91FE
:101490008923A1F4FF91EF91BF91AF919F918F911B
:1014A0007F916F915F914F913F912F910F900FBE60
:1014B0000F901F9018959C91892361F7A389B48997
:1014C0009C918589809589238C938689978901973A
:1014D000F1F7608D718DA685B785558538E020E0E0
:1014E000CB010197F1F7822F90E095958795282FF2
:1014F0004C91452309F02068315091F7868D81FD8C
:1015000020958091F30290E001968F739927309196
:10151000F202381799F0A091F302B0E0A755BD4F41
:101520002C938093F302828D938D0197F1F7A38919
:10153000B4898C919589892B8C93ACCF868D8160F1
:10154000868FF1CF1F920F920FB60F9211242F9317
:101550003F934F935F936F937F938F939F93AF933B
:10156000BF93EF93FF938091B900887F803609F491
:101570004AC0F0F5883209F4A7C018F5803109F4A3
:101580009BC0B8F4882309F4F9C0883009F494C0EA
:10159000FF91EF91BF91AF919F918F917F916F914B
:1015A0005F914F913F912F910F900FBE0F901F9021
:1015B0001895883109F488C0803251F780937F02F2
:1015C00014C0803409F49DC040F48033B9F38833EB
:1015D000F9F680937F0285ECB0C0803509F485C0B0
:1015E000883509F496C0883499F60E94F408D0CF63
:1015F000883909F48CC038F5883729F050F48836DA
:1016000011F0803729F683E08093810210925A020C
:1016100057C0883809F47BC0803919F0803809F048
:10162000B7CF80915A02803208F071C0E0915A021F
:1016300081E08E0F80935A028091BB00F0E0E65C5F
:10164000FD4F80833DC0803B39F0E0F4803A09F4DF
:1016500079C0883A09F09CCF84E08093810210928F
:10166000390210923802E091F802F091F9020995DE
:101670008091380281110FC081E08093380210926E
:10168000180209C0803C09F4A6CF883C09F4A3CF16
:10169000883B09F07DCFE091390281E08E0F809385
:1016A0003902F0E0E85EFD4F80818093BB009091AD
:1016B00039028091380229C080915C028093BB007E
:1016C00085EC8093BC0064CF90917E0280917D0276
:1016D000981758F5E0917E0281E08E0F80937E028C
:1016E000F0E0E35AFD4F8081E9CFE0917E0281E096
:1016F0008E0F80937E028091BB00F0E0E35AFD4F95
:10170000808390917E0280917D029817C8F285E8CF
:10171000D8CFE0917E0281E08E0F80937E0280918F
:10172000BB00F0E0E35AFD4F80838091800281117D
:101730005CCF81E080935B0284EA8093BC001092CE
:10174000810226CF85EC8093BC00109281028091AB
:101750005A02803230F4E0915A02F0E0E65CFD4F2C
:10176000108260915A0270E0E091F602F091F70267
:101770008AE392E0099510925A020ACF10927F02F2
:1017800034CF1F920F920FB60F9211242F933F93D5
:101790004F935F936F937F938F939F93AF93BF9379
:1017A000CF93DF93EF93FF938091F601C091610691
:1017B000D0E087FF24C010928500109284008091B1
:1017C000F6018F5F8093F6018091F601082E000CE0
:1017D000990B8C179D0724F48091F6018C30C4F18D
:1017E0008091840090918500049680349C4908F48F
:1017F0007AC08091840090918500049676C0809193
:10180000F601082E000C990B8C179D07C4F6E09189
:10181000F6018E2FEE0F990BFC01EE0FFF1FE80F64
:10182000F91FE35CF94F808186FFC9CFE091F60193
:101830008E2FEE0F990BFC01EE0FFF1FE80FF91F23
:10184000E35CF94F808160E08F730E94E501B7CFC0
:101850002091840030918500E091F6018E2FEE0FEB
:10186000990BFC01EE0FFF1FE80FF91FE35CF94F26
:1018700081819281820F931F9093890080938800C9
:10188000E091F6018E2FEE0F990BFC01EE0FFF1F7A
:10189000E80FF91FE35CF94F808186FF11C0E091EA
:1018A000F6018E2FEE0F990BFC01EE0FFF1FE80FD4
:1018B000F91FE35CF94F808161E08F730E94E501BD
:1018C000FF91EF91DF91CF91BF91AF919F918F9158
:1018D0007F916F915F914F913F912F910F900FBE2C
:1018E0000F901F90189580E49CE990938900809355
:1018F00088008FEF8093F601E3CFCF92DF92EF92D3
:10190000FF920F931F93E82FF92F05C00150110983
:101910002109310961F1908196239417B9F305C02B
:10192000015011092109310911F190819623941375
:10193000F7CFC12CD12CE12CF12C0AC08FEFC81AA3
:10194000D80AE80AF80A0C151D052E053F0579F09E
:1019500080818623841791F36C2D7D2D8E2D9F2DF4
:101960001F910F91FF90EF90DF90CF90089560E06E
:1019700070E080E090E01F910F91FF90EF90DF907A
:10198000CF900895109297051092960588EE93E0F7
:10199000A0E0B0E08093980590939905A0939A05F4
:1019A000B0939B0523E131E0309395052093940596
:1019B00025EC30E03093A1052093A00524EC30E025
:1019C0003093A3052093A20520EC30E03093A505C9
:1019D0002093A40521EC30E03093A7052093A605C1
:1019E00022EC30E03093A9052093A80526EC30E0E6
:1019F0003093AB052093AA051092AD051092AE0569
:101A00001092AF051092B005109234061092330672
:101A10008093350690933606A0933706B093380628
:101A200025E231E03093320620933106109282068F
:101A3000109281068093830690938406A093850676
:101A4000B093860683E491E09093800680937F06AE
:101A5000109296061092950610929806109297068C
:101A600010929A061092990610929C0610929B066C
:101A700060919D066E7F6D7F60939D066695617097
:101A800081E0682783E00E94E50161E083E00E9435
:101A90003F02E2EBF0E0E491E0938F06EEE9F0E044
:101AA000E491F0E0EE0FFF1FEF56FF4F8591949108
:101AB000909391068093900660E082E00E943F023E
:101AC00080919D0681FD04C061E082E00E94E501F5
:101AD00082E080938B06E1EBF0E0E491E0938C06EA
:101AE000EDE9F0E0E491F0E0EE0FFF1FE957FF4F62
:101AF0008591949190938E0680938D061092760630
:101B000010927B0610927C0610927D0610927E0643
:101B100010927706109278061092790610927A0643
:101B2000809161068C3040F591E0980F90936106AA
:101B300080936E0690E0FC01EE0FFF1FE80FF91F87
:101B4000E35CF94F88EB9BE09283818310926506FA
:101B50001092640687E391E0909363068093620697
:101B600087E28093660680E180936B0682E0809333
:101B70006C0610926D0608958FEF80936E06E6CF87
:101B8000CF93DF93CDB7DEB7AC970FB6F894DEBF37
:101B90000FBECDBF789484B5826084BD84B581606A
:101BA00084BD85B5826085BD85B5816085BD809128
:101BB0006E00816080936E001092810080918100A0
:101BC0008260809381008091810081608093810098
:101BD000809180008160809380008091B10084605A
:101BE0008093B1008091B00081608093B0008091BB
:101BF0007A00846080937A0080917A00826080937A
:101C00007A0080917A00816080937A0080917A00D6
:101C1000806880937A001092C100E091A405F09151
:101C2000A50582E08083E091A005F091A1051082D6
:101C3000E091A205F091A30580E180831092AC05AC
:101C4000E091A805F091A90586E08083E091A605C2
:101C5000F091A705808180618083E091A605F091D5
:101C6000A705808188608083E091A605F091A70593
:101C7000808180688083E091A605F091A70580812E
:101C80008F7D808310929A06109299061092980682
:101C90001092970610929606109295068DE991E0A3
:101CA00090939C0680939B0690918B06963108F04A
:101CB00047C02DEB30E030939606209395062BE934
:101CC00031E030939806209397062CE231E0309370
:101CD0009A06209399062091680084E0983048F095
:101CE00031E09E3008F430E081E001C0880F3A9581
:101CF000EAF7822B809368002DE630E0983050F0B0
:101D00002BE630E09E3030F02CE630E0963110F0DB
:101D100030E020E03093930620939206292F30E0A4
:101D2000983008F028C181E001C0880F9A95EAF741
:101D30008093940680919B0690919C060197F1F701
:101D40008091990690919A06892B49F1E091F402CD
:101D5000F091F50216E0EF37F10709F1309739F00D
:101D6000A389B4899C918589809589238C938091DE
:101D70009D068E7F80939D061092F3021092F202D0
:101D80008FE796E09093F5028093F402E09192063B
:101D9000F0919306808190919406892B8083109214
:101DA000FD021092FC021092FB021092FA020E94B5
:101DB000EB048EE890E09093F9028093F8028FE8AC
:101DC00090E09093F7028093F6021092670680915C
:101DD0006C06823018F098E09093670680936A064C
:101DE00062E370E080E090E00E94950260916D06F1
:101DF00082E696E00E94AF0568EE73E080E090E036
:101E00000E94950260E382E696E00E9499060BE448
:101E100016E4C8010197F1F760E382E696E00E94BC
:101E20009906C8010197F1F760E382E696E00E9407
:101E3000990683E592E00197F1F760E282E696E089
:101E40000E94990660916706606240E082E696E033
:101E50000E94B20684E08093680640E06CE082E66F
:101E600096E00E94B20640E061E082E696E00E94C1
:101E7000B2060BE31FE1C8010197F1F782E08093FE
:101E8000690640E066E082E696E00E94B20640E025
:101E900062E082E696E00E94B206C8010197F1F77F
:101EA00088E080936D0660E082E696E00E94AF05D0
:101EB00080919305882311F40C94141810929305C3
:101EC00067E771E083E195E00E947918988F8F8B26
:101ED00067E771E090E080E00E9479181C0167E7F5
:101EE00071E090E080E00E9479189A8F898F67E70F
:101EF00071E090E080E00E9479189C8F8B8F69E7F9
:101F000071E08F89988D0E94B91C892B09F0FEC061
:101F10000AE010E08FE796E00E943D03892B09F468
:101F2000A6C08FE796E00E945303209103053091ED
:101F30000405A9014F5F5F4F5093040540930305CB
:101F4000220F331FF901E15FFC4F992791838083B2
:101F500080910F039091100382349105C9F0809114
:101F60001103909112038D34910591F010920405A4
:101F700010920305CFCF9E3040F42850310981E004
:101F800001C0880F2A95EAF7D3CE2E503109F7CF3A
:101F90004732510508F4BECF209117032CA31BA292
:101FA0008091190390911A038BA09CA0880D991D14
:101FB000909312058093110590901B039EA21DA281
:101FC00080911D0390911E03ADA0BEA08A0D9B1DA4
:101FD0009093100580930F05B0901F03B8A61FA221
:101FE00080912103909122038FA098A4880D991DC0
:101FF00090930E0580930D0590903F039AA619A625
:102000008091410390914203A9A4BAA48A0D9B1D1B
:10201000B8010E94731B072E000C880B990B0E94BD
:102020002C1A6093090570930A0580930B05909311
:102030000C05B0904303BCA61BA68091450390916C
:1020400046038BA49CA4880D991DB8010E94731BA4
:10205000072E000C880B990B0E942C1A6093050523
:102060007093060580930705909308057FCF6091D4
:1020700011057091120590E080E04AE00E949E07F1
:1020800067E971E084E995E00E94EC0860910F0532
:102090007091100590E080E04AE00E949E0767E999
:1020A00071E084E995E00E94EC0860910D05709163
:1020B0000E0590E080E04AE00E949E0767E971E02B
:1020C00084E995E00E94EC086091090570910A0589
:1020D00080910B0590910C0542E00E94100867E981
:1020E00071E084E995E00E94EC086091050570912B
:1020F0000605809107059091080542E00E941008AE
:102100006CE771E084E995E00E948F076FE771E06A
:102110008F89988D0E94B91C892B91F461E871E038
:10212000C1010E94B91C892B09F056C040E061E052
:1021300082E696E00E94B2068BE39FE10197F1F7F9
:1021400067E871E08F89988D0E94B91C7C01892B0A
:1021500009F004C14DB65EB62DB73EB72659310918
:102160000FB6F8943EBF0FBE2DBF6DB77EB76F5F41
:102170007F4F78A36F8F0DB71EB70D5F1F4F8DB7C1
:102180009EB789569F4FF80111921192E817F907EF
:10219000D9F767E971E0898D9A8D0E9479186C01F1
:1021A0000E945B18AF8DB8A18D939C9366246394B5
:1021B000712CCD28E1F167E971E090E080E00E94A8
:1021C00079186C010E945B18F801819391938F013B
:1021D000FFEF6F1A7F0AEDCF898D9A8D0E945B18F1
:1021E00098E0E7E0F1E0DE01119601900D929A95FA
:1021F000E1F790916A06981710F48FEF890FE82F96
:10220000F0E0EE0FFF1FAA24A394B12CAC0EBD1E6C
:10221000EA0DFB1D6081606840E082E696E00E9466
:10222000B206B10182E696E00E94EC0889CFC101B6
:102230000E945B18BC01CE0101960E943D07CE01B1
:1022400001960E94B0046985653601F12A853B85B7
:102250006150B9F070E08FEF94E60E945F1BF901C6
:102260004D815E81CF01821B930B8417950760F42B
:102270004081469FC001479F900D11249083319665
:10228000EFCF70E060E0EBCF85E6898711E0611A5F
:1022900071080CE94AE0C42ED12CE614F7040CF0C6
:1022A00049C0D701AA0FBB1F8F8C98A0A80DB91DDC
:1022B000ED91FC9111971E161F06C4F51FEFE11A50
:1022C000F10A31978B819C81E817F90758F512962E
:1022D0002D913C91C90164E670E00E94731B5B0183
:1022E0000603A001079F500D1124420F531FCA017E
:1022F000B6010E94731B862F90E0B0E0A0E0BA2FD9
:10230000A92F982F8827AA2926EF269F400D112450
:102310004C015D01842AA5019401BF01CE01019603
:102320000E9474032FEFE21AF20AB7CF12E0E10E17
:10233000F11CF8CFCE0101960E94DB038A859B85B4
:102340000E94301C8F81988597FD03C060E00E9439
:102350003F020FB6F8945EBE0FBE4DBE6AE871E054
:102360008F89988D0E94B91C892B09F090C067E96C
:1023700071E0898D9A8D0E9479180E945B18082F50
:1023800067E971E090E080E00E9479180E945B1894
:10239000882E67E971E090E080E00E9479180E9441
:1023A0005B18182FC1010E945B18BC01CE01019679
:1023B0000E943D07CE0101960E94B004912CB12CE1
:1023C000A12CBA2CA92C982C8824A02A812AEB8C29
:1023D000FC8C670139E1C30ED11C0EE711E0D70177
:1023E0008D917D01813379F1823309F40AC1833300
:1023F00009F40AC1843309F40AC1853309F40AC116
:10240000863309F40AC1873309F40AC1883309F411
:102410000AC1893309F40AC1813609F40AC1823636
:1024200009F40AC1833609F40AC1843609F40AC1E1
:10243000853609F40AC1863609F40AC1873629F4BB
:1024400004E711E002C006E611E0C8010E945B1833
:102450002B813C818217930738F4A5019401BC01BC
:10246000CE0101960E947403CE14DF0409F0B7CFA9
:10247000CE0101960E94DB038A859B850E94301C59
:102480008F81988597FD03C060E00E943F026DE850
:1024900071E08F89988D0E94B91C892B09F06CC05E
:1024A000C1010E945B18F82E898D9A8D0E945B18DD
:1024B0008C0161E08F2D0E943F0260E0802F0E941E
:1024C0003F0260E08F2D0E94E5018FE090E00197D0
:1024D000F1F761E08F2D0E94E50183E290E0019722
:1024E000F1F760E08F2D0E94E50160E0802F0E94EF
:1024F0003F021127F801E155FF4F6491F801E556BD
:10250000FF4FE491F0E0EE0FFF1FE957FF4F859179
:10251000949100E412E42FE030E0462F0E947D0CFD
:102520006B017C01C114D104E104F10439F0BFEF67
:10253000CB1ADB0AEB0AFB0AEFE0FE2265E971E049
:1025400084E995E00E94EC08C701B601959587954E
:10255000779567950E942C1A2DEC3CEC48EE51E4DF
:102560000E9482190E94F4190E94E4076CE771E04E
:1025700084E995E00E948F0769E971E08F89988D61
:102580000E94B91C7C01892B09F0CCC0C1010E94BA
:102590005B18182F80917606882309F0F894109222
:1025A00071061092720610927306109274061092C1
:1025B000750661E0812F0E943F0260E0812F0E943A
:1025C000E50162E170E080E090E00E94950260E049
:1025D000812F0E943F028BE990E00197F1F7A0E97B
:1025E000CA2EDD24D394812F0E94BC01892B99F53A
:1025F000F1E0CF1AD108B9F75EEFE52EFF24FA9487
:1026000075C009E611E021CF0CE611E01ECF0FE600
:1026100011E01BCF03E911E018CF05E711E015CF5A
:102620000DE511E012CF0FE511E00FCF01E611E04B
:102630000CCF03E611E009CF05E611E006CF08E66E
:1026400011E003CF0BE611E000CF0EE611E0FDCE66
:1026500001E711E0FACEF0E9CF2EDD24D394812FEB
:102660000E94BC01019729F421E0C21AD108B9F7F0
:10267000C3CFE8E2DE2E00E8C12C70E9A72EBB2410
:10268000B394812F0E94BC01892B29F431E0A31A55
:10269000B108B9F7B1CF0E9470022B013C0160E98B
:1026A000A62EBB24B394812F0E94BC01019729F46C
:1026B00061E0A61AB108B9F79FCF0E9470026419B1
:1026C000750986099709693271058105910538F008
:1026D000EC2DF0E0EF58F94F8081802B8083069538
:1026E00011F4C39400E8DA94D110C7CF8091760634
:1026F000882309F07894EF2809F4DCC080E090EC9E
:10270000A9E7B4EC8093770690937806A0937906B6
:10271000B0937A0680937B0690937C06A0937D0607
:10272000B0937E0662EA71E08F89988D0E94B91C91
:10273000892B11F560917B0670917C0680917D0656
:1027400090917E0642E00E94100867E971E084E9FA
:1027500095E00E94EC086091770670917806809170
:10276000790690917A0642E00E9410086CE771E0C9
:1027700084E995E00E948F076CEA71E08F89988D5B
:102780000E94B91C892B09F029C206E810E0C1019A
:102790000E945B187C018B8D9C8D0E945B180397B7
:1027A0009AA389A34C01092C000CAA08BB088B8EA4
:1027B0009C8EAD8EBE8E898D9A8D0E945B1898A3DB
:1027C0008F8F809100018E11C4C0F801049107FD24
:1027D000F4C161E08E2D0E943F02002319F0023007
:1027E00009F06DC32F8D38A14901B12CA12C60E0F7
:1027F00072E18AE790E0A5010E94AD1829013A0133
:102800007A01690131E0C31AD108E108F1086FEFDC
:10281000C616D104E104F10409F00CF4A5C160E48A
:1028200072E48FE090E0A50194010E94AD18690167
:102830007A0171E0C71AD108E108F108023009F005
:1028400004C18FEFC816D104E104F10409F00CF4BF
:1028500014C460E970ED83E090E0A50194010E944A
:10286000AD1869017A0191E0C91AD108E108F108AF
:1028700083E0AFEFCA16D104E104F10409F00CF4CF
:102880006CC168E478EE81E090E0A50194010E94BB
:10289000AD1869017A0171E0C71AD108E108F108A1
:1028A0008FEFC816D104E104F10411F00CF018C147
:1028B00084E053C16091720670E090E080E00E9475
:1028C0002C1A2DEC3CEC4CEC5DE30E94E11A6B0100
:1028D0007C016091710670E090E080E00E942C1A0B
:1028E0009B01AC01C701B6010E94111960937706E4
:1028F000709378068093790690937A061091730608
:102900006091740670E090E080E00E942C1A2DEC3B
:102910003CEC4CEC5DE30E94E11A6B017C01612F01
:102920006F7770E090E080E00E942C1A9B01AC0170
:10293000C701B6010E94111917FD09C060937B06FB
:1029400070937C0680937D0690937E06EBCE905824
:10295000F5CF8F3F09F031C1E0920001F8010491F9
:102960000F3F09F42AC1013041F150F0023009F45F
:1029700046C007FD22C161E08E2D0E943F022FCF8D
:1029800014BC15BC84B5826084BD85B5816085BDED
:10299000C7019927FC01E556FF4FE491F0E0EE0FE7
:1029A000FF1FEF56FF4F25913491FC01E155FF4F7A
:1029B000E491E093020300E00CCF109280001092AB
:1029C00081008091810088608093810080918100E6
:1029D000816080938100C7019927FC01E556FF4F74
:1029E000E491F0E0EE0FFF1FEF56FF4F2591349179
:1029F000FC01E155FF4FE491E0930103EACE109210
:102A0000B0001092B1008091B00082608093B0005D
:102A10008091B10081608093B100C7019927FC01CA
:102A2000E556FF4FE491F0E0EE0FFF1FEF56FF4F2A
:102A300025913491309300032093FF02FC01E1556E
:102A4000FF4FE491E093FE02C4CEBFEFCB16D1045A
:102A5000E104F10409F00CF430C268E478EE81E09E
:102A600090E0A50194010E94AD1869017A01E1E0AE
:102A7000CE1AD108E108F10884E0011141C083E0D9
:102A80009FEFC916D104E104F10409F00CF46FC002
:102A900062E17AE780E090E0A50194010E94AD1820
:102AA00069017A0111E0C11AD108E108F10884E056
:102AB0002FEFC216D104E104F10409F008F457C065
:102AC000730162019AE0F594E794D794C7949A95BC
:102AD000D1F731E0C31AD108E108F10885E047C019
:102AE00064E274EF80E090E0A50194010E94AD18CB
:102AF00069017A01F1E0CF1AD108E108F10885E017
:102B0000EFEFCE16D104E104F10439F130F162E1C6
:102B10007AE780E090E0A50194010E94AD18690178
:102B20007A01A1E0CA1AD108E108F10886E0BFEFF6
:102B3000CB16D104E104F10481F078F07301620155
:102B40008AE0F594E794D794C7948A95D1F761E029
:102B5000C61AD108E108F10887E09091B100987F8A
:102B6000892B8093B10007C081E00111F6CF95B5A4
:102B7000987F892B85BD8B8C9C8CAD8CBE8C2FEF68
:102B80003FEFA90189288A288B2809F0D7C1013095
:102B900009F4E3C1023009F4F2C101110EC0C7BC4F
:102BA00020930B0330930C0340930D0350930E03BB
:102BB00080916E00826080936E006B8D7C8D8D8D18
:102BC0009E8D0E949502C1010E945B180E94130213
:102BD00062E070E080E090E00E94950265EB71E0B9
:102BE0008F89988D0E94B91C892B09F0DAC0C10128
:102BF0000E945B18182F80916E068C3008F053C02D
:102C000061E0812F0E943F0280916E06282F30E004
:102C1000F901EE0FFF1FE20FF31FE35CF94F912F55
:102C20009F731081107C192B108310926F061092E5
:102C300070062CE0622F0E94531B829FB00111246A
:102C400030E020E0AB01420F531FFA01EE0FFF1FEF
:102C5000E40FF51FE35CF94F908196FD16C02F5FDE
:102C60003F4F2C30310571F781110FC01092800059
:102C700082E0809381001092850010928400B19AC6
:102C800080916F00826080936F00E0916E068E2FBE
:102C900090E0FC01EE0FFF1FE80FF91FE35CF94F16
:102CA00080818064808310916E06898D9A8D0E9448
:102CB0005B18DC0180329240DCF580916F06E8E819
:102CC000CE2ED12CC81AD10887FDD394CC0CDD1C94
:102CD000CC0CDD1C0D2C000CEE08FF08809170065A
:102CE00028E532E0281B310987FD3395220F331F79
:102CF000220F331F032E000C440B550B2C193D09DA
:102D00004E095F09A53BB10514F0A4EBB0E0B7FF95
:102D100002C0B0E0A0E00E94D71824EB30E040E011
:102D200050E00E94AD18C20ED31EE41EF51ED6015F
:102D30001C3088F580916F0648E850E0481B510927
:102D400087FD5395440F551F440F551FA417B50712
:102D500084F08091700648E552E0481B510987FDD8
:102D60005395440F551F440F551FA417B5070CF476
:102D7000AD0142505109440F551F2FB7F894812FD0
:102D800090E0FC01EE0FFF1FE80FF91FE35CF94F25
:102D9000528341832FBF64E670E080E090E00E94A0
:102DA000950260EC71E08F89988D0E94B91C892B87
:102DB000C1F56BEC71E084E995E00E94EC08C1017B
:102DC0000E945B18BC01990F880B990B0E94E407C5
:102DD0006DEC71E084E995E00E94EC08C1010E946D
:102DE0005B188E3008F08E508770806480937C0072
:102DF00080917A00806480937A0080917A0086FDC9
:102E0000FCCF6091780070917900072E000C880B40
:102E1000990B0E94E4076CE771E084E995E00E9459
:102E20008F076FEC71E08F89988D0E94B91C892BF8
:102E300031F56BED71E084E995E00E94EC08C10189
:102E40000E945B18BC01990F880B990B0E94E40744
:102E50006DEC71E084E995E00E94EC08C1010E94EC
:102E60005B180E94BC01BC01990F880B990B0E9452
:102E7000E4076CE771E084E995E00E948F076DED4F
:102E800071E08F89988D0E94B91C892B09F0B3C01D
:102E9000898D9A8D0E945B188C01C1010E945B187C
:102EA0007C0161E00E943F020115110509F077C025
:102EB00060E08E2D0E94E5019EC082E056CE6F8DAF
:102EC00078A14B01B12CA12C60E072E18AE790E07F
:102ED000A50194010E94AD1869017A0171E0C71A39
:102EE000D108E108F10891E0C114D10481E0E806BD
:102EF000F10484F068E478EE81E090E0A5019401AB
:102F00000E94AD1869017A0191E0C91AD108E1085F
:102F1000F10893E0013009F02ECE80918100887F86
:102F2000892B809381008B8C9C8CAD8CBE8C2FEF79
:102F30003FEFA90189288A288B2879F02F8D38A1A5
:102F4000220F331FA9A1BAA10E94871B28EE33E0EC
:102F500040E050E00E94DF181ACED0928900C09263
:102F6000880020930703309308034093090350938C
:102F70000A0380916F00826080936F001ECEC09222
:102F8000B30020930303309304034093050350934D
:102F90000603809170008260809370000ECE0F3F18
:102FA000110511F461E085CFF701FF27EE58FF4FBF
:102FB000E491E33009F447C040F4E130C1F0E2307D
:102FC000E9F10038110574F773CFE73009F445C013
:102FD000E83009F44AC0E430A1F7809180008062B3
:102FE0008093800010938B0000938A0004C084B506
:102FF000806884BD07BD69EE71E08F89988D0E945D
:10300000B91C892B89F4C1010E945B1861E00E9400
:103010003F02898D9A8D0E945B18182FC1010E9472
:103020005B18612F0E94E5010E94FA00882311F4C9
:103030000C94580F0E94CF060C94580F84B58062F0
:1030400084BD08BDD8CF80918000806880938000C7
:103050001093890000938800CECF8091B0008068E3
:103060008093B0000093B300C6CF8091B00080621F
:103070008093B0000093B400BECF82E06ECD83E4B5
:1030800091E09093800680937F068091F402909166
:10309000F5028F57964071F4E0919206F0919306F5
:1030A0009081809194068095892380831092F50207
:1030B0001092F4020895FC0188279927E894219141
:1030C0002032E9F3293010F02E30C8F32B3241F0D2
:1030D0002D3239F4689404C00E94A518820F911D06
:1030E000219120532A30C0F31EF4909581959F4F73
:1030F00008954EE956E00E947E180895FA01A191C4
:10310000B081009719F41097E1F0CD01DC01CD01F9
:103110000D90002011F4C00113C0FB012191222366
:1031200019F02015D9F7F3CFFB012191201519F4DF
:103130001E92119606C02223C1F70D900020A1F720
:10314000D001FA01A193B08308957AE0979F902D62
:10315000879F802D910D11240895052E97FB1EF455
:1031600000940E94C41857FD07D00E94DF1807FC86
:1031700003D04EF40C94C418509540953095219589
:103180003F4F4F4F5F4F0895909580957095619593
:103190007F4F8F4F9F4F08950E940119A59F900D5B
:1031A000B49F900DA49F800D911D11240895B7FF29
:1031B0000C94CC180E94CC18821B930B0895A1E2AA
:1031C0001A2EAA1BBB1BFD010DC0AA1FBB1FEE1FA1
:1031D000FF1FA217B307E407F50720F0A21BB30BEC
:1031E000E40BF50B661F771F881F991F1A9469F768
:1031F00060957095809590959B01AC01BD01CF01C4
:103200000895A29FB001B39FC001A39F700D811DBF
:103210001124911DB29F700D811D1124911D0895DF
:103220005058BB27AA270E9428190C94A21A0E9462
:10323000941A38F00E949B1A20F039F49F3F19F439
:1032400026F40C94911A0EF4E095E7FB0C948B1A7B
:10325000E92F0E94B31A58F3BA176207730784075D
:10326000950720F079F4A6F50C94D51A0EF4E095A4
:103270000B2EBA2FA02D0B01B90190010C01CA0130
:10328000A0011124FF27591B99F0593F50F4503EDB
:1032900068F11A16F040A22F232F342F4427585FCD
:1032A000F3CF469537952795A795F0405395C9F7E5
:1032B0007EF41F16BA0B620B730B840BBAF091509D
:1032C000A1F0FF0FBB1F661F771F881FC2F70EC03C
:1032D000BA0F621F731F841F48F48795779567950F
:1032E000B795F7959E3F08F0B0CF9395880F08F0FB
:1032F0009927EE0F9795879508950E94671A08F40D
:1033000081E008950E9496190C94A21A0E949B1ABB
:1033100058F00E94941A40F029F45F3F29F00C9471
:103320008B1A51110C94D61A0C94911A0E94B31A4C
:1033300068F39923B1F3552391F3951B550BBB27E4
:10334000AA2762177307840738F09F5F5F4F220F29
:10335000331F441FAA1FA9F335D00E2E3AF0E0E820
:1033600032D091505040E695001CCAF72BD0FE2F6A
:1033700029D0660F771F881FBB1F261737074807FE
:10338000AB07B0E809F0BB0B802DBF01FF279358B6
:103390005F4F3AF09E3F510578F00C948B1A0C94D5
:1033A000D61A5F3FE4F3983ED4F3869577956795F8
:1033B000B795F7959F5FC9F7880F911D96958795EB
:1033C00097F90895E1E0660F771F881FBB1F62170A
:1033D00073078407BA0720F0621B730B840BBA0BC8
:1033E000EE1F88F7E09508950E94FB196894B111CB
:1033F0000C94D61A08950E94BB1A88F09F5798F033
:10340000B92F9927B751B0F0E1F0660F771F881FE9
:10341000991F1AF0BA95C9F714C0B13091F00E9403
:10342000D51AB1E008950C94D51A672F782F882704
:10343000B85F39F0B93FCCF3869577956795B3952A
:10344000D9F73EF490958095709561957F4F8F4F99
:103450009F4F0895E89409C097FB3EF4909580959E
:10346000709561957F4F8F4F9F4F9923A9F0F92F4A
:1034700096E9BB279395F695879577956795B795C8
:10348000F111F8CFFAF4BB0F11F460FF1BC06F5FAE
:103490007F4F8F4F9F4F16C0882311F096E911C0C0
:1034A000772321F09EE8872F762F05C0662371F0E1
:1034B00096E8862F70E060E02AF09A95660F771FF5
:1034C000881FDAF7880F9695879597F90895990FD1
:1034D0000008550FAA0BE0E8FEEF16161706E807DE
:1034E000F907C0F012161306E407F50798F0621BFF
:1034F000730B840B950B39F40A2661F0232B242BD4
:10350000252B21F408950A2609F4A140A6958FEFF2
:10351000811D811D089597F99F6780E870E060E044
:1035200008959FEF80EC089500240A94161617065C
:1035300018060906089500240A94121613061406A4
:1035400005060895092E0394000C11F4882352F007
:10355000BB0F40F4BF2B11F460FF04C06F5F7F4FBF
:103560008F4F9F4F089557FD9058440F551F59F0A6
:103570005F3F71F04795880F97FB991F61F09F3F60
:1035800079F087950895121613061406551FF2CF89
:103590004695F1DF08C0161617061806991FF1CFD9
:1035A00086957105610508940895E894BB27662700
:1035B0007727CB0197F908950E94671A08F48FEFD7
:1035C00008950E94F41A0C94A21A0E94941A38F0DA
:1035D0000E949B1A20F0952311F00C948B1A0C94E6
:1035E000911A11240C94D61A0E94B31A70F3959F65
:1035F000C1F3950F50E0551F629FF001729FBB27EA
:10360000F00DB11D639FAA27F00DB11DAA1F649F85
:103610006627B00DA11D661F829F2227B00DA11D38
:10362000621F739FB00DA11D621F839FA00D611DBE
:10363000221F749F3327A00D611D231F849F600DDF
:10364000211D822F762F6A2F11249F5750409AF008
:10365000F1F088234AF0EE0FFF1FBB1F661F771F94
:10366000881F91505040A9F79E3F510580F00C945F
:103670008B1A0C94D61A5F3FE4F3983ED4F38695E8
:1036800077956795B795F795E7959F5FC1F7FE2BFF
:10369000880F911D9695879597F908950E94671A4E
:1036A000880B990B0895991B79E004C0991F961710
:1036B00008F0961B881F7A95C9F780950895AA1B74
:1036C000BB1B51E107C0AA1FBB1FA617B70710F00D
:1036D000A61BB70B881F991F5A95A9F7809590953F
:1036E000BC01CD01089597FB072E16F4009407D076
:1036F00077FD09D00E945F1B07FC05D03EF4909532
:1037000081959F4F0895709561957F4F08950E9410
:103710000119B7FF0895821B930B0895EE0FFF1F49
:103720000590F491E02D09940F931F93CF93DF93AD
:103730008230910510F482E090E0E091A206F091D1
:10374000A30630E020E0B0E0A0E0309799F4211526
:10375000310509F44AC0281B390B24303105D8F54E
:103760008A819B816115710589F1FB0193838283B5
:10377000FE0111C040815181028113814817590710
:10378000E0F04817590799F4109761F012960C93DE
:10379000129713961C933296CF01DF91CF911F9110
:1037A0000F9108950093A2061093A306F4CF21155C
:1037B000310551F04217530738F0A901DB019A0196
:1037C000BD01DF01F801C1CFEF01F9CF9093A3064E
:1037D0008093A206CDCFFE01E20FF31F8193919358
:1037E0002250310939832883D7CF2091A006309108
:1037F000A106232B41F42091030130910401309361
:10380000A1062093A006209101013091020121150B
:10381000310541F42DB73EB74091050150910601A5
:10382000241B350BE091A006F091A106E217F307E7
:10383000A0F42E1B3F0B2817390778F0AC014E5F20
:103840005F4F2417350748F04E0F5F1F5093A106B6
:103850004093A006819391939FCFF0E0E0E09CCF4E
:10386000CF93DF930097E9F0FC0132971382128225
:10387000A091A206B091A306ED0130E020E01097E0
:10388000A1F420813181820F931F2091A0063091F5
:10389000A1062817390709F061C0F093A106E0934B
:1038A000A006DF91CF910895EA01CE17DF07E8F572
:1038B0004A815B819E0141155105B1F7E901FB8306
:1038C000EA8349915991C40FD51FEC17FD0761F4A4
:1038D000808191810296840F951FE90199838883E5
:1038E000828193819B838A83F0E0E0E012968D9140
:1038F0009C9113970097B9F52D913C911197CD01AB
:103900000296820F931F2091A0063091A1062817DE
:10391000390739F6309751F51092A3061092A20696
:10392000B093A106A093A006BCCFD383C2834081ED
:103930005181840F951FC817D90761F44E5F5F4FFF
:1039400088819981480F591F518340838A819B81C7
:10395000938382832115310509F0B0CFF093A3063C
:10396000E093A2069ECFFD01DC01C0CF138212823C
:10397000D7CFFB01DC018D91019080190110D9F3A3
:10398000990B089510E0C3E6D0E004C0FE010E9448
:0E3990008E1B2196C436D107C9F7F894FFCFDD
:10399E00FF0000A406800000004000140054000048
:1039AE0000000026019000BD007301EE00CC00E087
:1039BE000000000000800553059606E0024C053914
:1039CE00052A0500000000C90690009606C30400F3
:1039DE00000000E10290009606E0023D035303C88A
:1039EE00026E616E00696E66006F76660036003795
:1039FE0000380039003130003131003132003133BE
:103A0E00003134003135002300706D000D0A006C5A
:103A1E0000636C6561720073680077730048432D14
:103A2E00535230340048432C00646874313153656E
:103A3E00740064687431315265616400746F6E6530
:103A4E00506C617900736572766F57726974650098
:103A5E00616E616C6F67526561640041003A00648B
:103A6E0069676974616C52656164004400616E61DE
:103A7E006C6F675772697465006469676974616C0D
:063A8E0057726974650027
:00000001FF
