:100000000C9464000C948C000C948C000C94930C55
:100010000C94930C0C94930C0C948C000C94950BF6
:100020000C948C000C948C000C948C000C942A0E74
:100030000C948C000C948C000C948C000C948C0010
:100040000C94490C0C948C000C94170C0C94F10B30
:100050000C948C000C948C000C948C000C948C00F0
:100060000C940B0D0C948C00000000002400270061
:100070002A0002000000080002010000030407003B
:1000800000000000000000000000002300260029FE
:100090000000000000250028002B000404040404D4
:1000A0000404040202020202020303030303030125
:1000B00002040810204080010204081020010204FC
:1000C000081020002B0F3D1E11241FBECFEFD8E0DB
:1000D000DEBFCDBF12E0A0E0B1E0E0E2F8E402C094
:1000E00005900D92AE30B107D9F726E0AEE0B2E050
:1000F00001C01D92AF38B207E1F710E0C3E6D0E0CF
:1001000004C02197FE010E94A821C236D107C9F779
:100110000E9455100C9403240C9400003F924F92BF
:100120005F926F927F928F929F92AF92BF92CF9287
:10013000DF92EF92FF920F931F93CF93DF937C0197
:10014000062F6C0184E0C80ED11C11E01017A0F539
:10015000F60181909190A190B1906F01312EC32D45
:10016000D0E0C150D04CCC0FDD1FCC0FDD1FF7010C
:10017000EC0FFD1F40805180628073802496CE0D6D
:10018000DF1DA3019201C501B4010E94AB1E87FFD0
:1001900007C0488259826A827B823A943110DFCF4D
:1001A00084E0389EF0011124EE0DFF1D80829182C3
:1001B000A282B3821F5FCACFDF91CF911F910F91AF
:1001C000FF90EF90DF90CF90BF90AF909F908F9077
:1001D0007F906F905F904F903F900895089508959D
:1001E000AF92BF92CF92DF92EF92FF920F931F9345
:1001F000CF93DF936C017B018B01040F151FEB0183
:100200005E01AE18BF08C017D10759F06991D60139
:10021000ED91FC910190F081E02DC6010995892BAB
:1002200079F7C501DF91CF911F910F91FF90EF906A
:10023000DF90CF90BF90AF900895FC01538D448D17
:10024000252F30E0842F90E0821B930B541710F081
:10025000CF96089501970895FC01918D828D98178E
:1002600061F0A28DAE0FBF2FB11D5D968C91928D66
:100270009F5F9F73928F90E008958FEF9FEF089597
:10028000FC01918D828D981731F0828DE80FF11D60
:10029000858D90E008958FEF9FEF0895FC01918D7B
:1002A000228D892F90E0805C9F4F821B91098F7374
:1002B000992708958BE695E00E944E0121E0892B55
:1002C00009F420E0822F089580E090E0892B29F046
:1002D0000E945A0181110C9400000895FC01A48D24
:1002E000A80FB92FB11DA35ABF4F2C91848D90E058
:1002F00001968F739927848FA689B7892C93A0893B
:10030000B1898C91837080648C93938D848D9813C4
:1003100006C00288F389E02D80818F7D8083089557
:10032000EF92FF920F931F93CF93DF93EC0181E045
:10033000888F9B8D8C8D98131AC0E889F9898081EC
:1003400085FF15C09FB7F894EE89FF896083E8891F
:10035000F98980818370806480839FBF81E090E011
:10036000DF91CF911F910F91FF90EF900895F62E9E
:100370000B8D10E00F5F1F4F0F731127E02E8C8D38
:100380008E110CC00FB607FCFACFE889F98980817D
:1003900085FFF5CFCE010E946E01F1CFEB8DEC0F02
:1003A000FD2FF11DE35AFF4FF0829FB7F8940B8F9A
:1003B000EA89FB8980818062CFCFCF93DF93EC0104
:1003C000888D8823B9F0AA89BB89E889F9898C913D
:1003D00085FD03C0808186FD0DC00FB607FCF7CFF9
:1003E0008C9185FFF2CF808185FFEDCFCE010E94F9
:1003F0006E01E9CFDF91CF910895833081F028F429
:10040000813099F08230A9F008958730A9F08830C2
:10041000C9F08430B1F4809180008F7D03C0809159
:1004200080008F7780938000089584B58F7784BD96
:10043000089584B58F7DFBCF8091B0008F77809336
:10044000B00008958091B0008F7DF9CFCF93DF93F6
:10045000282F30E0F901ED58FF4F8491F901E15563
:10046000FF4FD491F901E556FF4FC491CC23A1F081
:1004700081110E94FD01EC2FF0E0EE0FFF1FE95704
:10048000FF4FA591B491EC91ED2381E090E009F448
:1004900080E0DF91CF91089580E090E0FACF1F9344
:1004A000CF93DF93282F30E0F901ED58FF4F84916F
:1004B000F901E155FF4FD491F901E556FF4FC49181
:1004C000CC23A9F0162F81110E94FD01EC2FF0E042
:1004D000EE0FFF1FEF56FF4FA591B4918FB7F89421
:1004E000EC91111108C0D095DE23DC938FBFDF9112
:1004F000CF911F910895DE2BF8CFCF93DF93C5E402
:10050000D6E061E089810E944F028BEF90E0019775
:10051000F1F760E089810E944F021B821C821D82DC
:100520001E8280E090E0A0E8BFE38F839887A987D0
:10053000BA8780E88A831B861C861D861E861B8AD6
:10054000DF91CF9108959091000189130BC0E2E7EC
:10055000F0E0E4919FEF90930001E13049F028F042
:10056000E23061F060E00C944F0210926E00FACF1E
:1005700090916F009D7F90936F00F4CF90917000E9
:100580009D7F9093700091E09093B0009091B100A6
:10059000987F94609093B1001092B300E3CFCF9313
:1005A000DF9390E0FC01E155FF4F249185569F4F6A
:1005B000FC0184918823D1F090E0880F991FFC0101
:1005C000E859FF4FA591B491FC01EF56FF4FC5913B
:1005D000D49161110EC09FB7F8948C91E22FE095F1
:1005E0008E238C932881E223E8839FBFDF91CF91F4
:1005F00008958FB7F894EC91E22BEC938FBFF6CF70
:100600003FB7F8948091020390910303A0910403F3
:10061000B091050326B5A89B05C02F3F19F00196A0
:10062000A11DB11D3FBFBA2FA92F982F8827BC014C
:10063000CD01620F711D811D911D42E0660F771F74
:10064000881F991F4A95D1F708958F929F92AF9274
:10065000BF92CF92DF92EF92FF926B017C010E94DA
:1006600000034B015C01C114D104E104F104B9F0B1
:100670000E940003681979098A099B09683E734042
:100680008105910580F321E0C21AD108E108F10843
:1006900088EE880E83E0981EA11CB11CE4CFFF9069
:1006A000EF90DF90CF90BF90AF909F908F90089584
:1006B00020910803309109032817390771F49091AC
:1006C000060380910703981741F0E0910603F0E0DC
:1006D000EF53FD4F808190E008958FEF9FEF0895D5
:1006E0000895EF92FF920F931F93CF93DF93DC0156
:1006F0005C96ED90FC905D97E114F10479F481E053
:1007000090E013969C938E93129790E080E0DF9197
:10071000CF911F910F91FF90EF9008955196ED9119
:10072000FC91529750968C915097982F90950FB7B7
:100730005E962C915E97122F127021FD6095F894B1
:100740002081112319F1282B2083E7012197F1F74C
:1007500028E0462F50E0308160FF1AC0382B3083EC
:10076000E7012197F1F7BA0175956795215089F74F
:10077000112381F08081892380830FBF5C968D9146
:100780009C910197F1F781E090E0C1CF2923DCCF64
:100790003923E5CF9081892BEFCF20910803309149
:1007A00009032817390761F4809107032091060394
:1007B00090E0805C9F4F821B91098F739927089569
:1007C00090E080E0089520910803309109032817F4
:1007D0003907B9F49091060380910703981789F0BF
:1007E000E0910603F0E0EF53FD4F80812091060376
:1007F00030E02F5F3F4F2F7333272093060390E0A5
:1008000008958FEF9FEF08958F929F92AF92BF92BE
:10081000CF92DF92EF92FF92CF93DF93FC01828120
:10082000938168177907D8F54A01AA24BB24C32EFF
:10083000D42EE52EFF24DC2DC22F8085982D882311
:1008400091F0C82FD0E0C89DD001C99DB00DD89DB2
:10085000B00D11249B2F8C9D60011124DD2D829FF2
:1008600090011124C32FA685218532858385A81385
:1008700021C0AB01440F551F640F751F620F731F1A
:10088000A385A60FB72FB11D9C93A485A60FB72FE4
:10089000B11DDC938585680F711DFB01C083DF915D
:1008A000CF91FF90EF90DF90CF90BF90AF909F904F
:1008B0008F900895660F771F660F771F620F731F63
:1008C000A60FB72FB11D1C92DBCFCF92DF92EF9214
:1008D000FF920F931F93CF93DF93CDB7DEB7299786
:1008E0000FB6F894DEBF0FBECDBF8C01DC011996A8
:1008F0008D919C91892B09F47AC0F801C784D08826
:10090000E188F2880E9400036C157D058E059F0525
:1009100048F40E940003D8011F966D937D938D9338
:100920009C9352970E940003F801C784D088E18805
:10093000F2886C197D098E099F096C32714081051E
:100940009105D8F2F894D80114968D919C91159741
:100950009A8389831996ED91FC917F01BFEFEB1A81
:10096000FB0A80818987F80190810388F489E02D52
:10097000D80155968C91992309F448C09081982B01
:1009800098879081809589238F838F818C8388E0DD
:100990008B8358856F8149853B812C8189819A8120
:1009A000D701508347FD252F3A952083262F39F014
:1009B000441F00C000006083000000C0F2CF38E098
:1009C0004D9160830000019761F7D8015496FC9324
:1009D000EE93539749873B832C839A83898378943A
:1009E0000E940003F8016787708B818B928B299698
:1009F0000FB6F894DEBF0FBECDBFDF91CF911F9130
:100A00000F91FF90EF90DF90CF9008959081982BF9
:100A100098879081809589238F838F818E8388E04A
:100A20008D8358856F8149853D812E8189819A8189
:100A3000D701508347FD252F00C000C0208300C090
:100A400000C000C000C000C060830000262F3A959F
:100A500041F0441F000000C000C000C000C000C042
:100A6000E8CF38E04D9100C0608300C0019709F7DE
:100A7000D8015496FC93EE93539749873D832E8378
:100A8000ACCFCF93DF93EC018E819F8197FD07C0A0
:100A900061E00E94CF0260E08E810E944F0281E0FF
:100AA0008983DF91CF910895089520915002260FF8
:100AB0003327331F21323105ECF420919902FC01D8
:100AC00090E080E0243069F082E00895A091500227
:100AD0002191AC01405D5D4FA40FB52FB11D2C934A
:100AE0000196861798F380915002680F6093500228
:100AF00080E0089581E008951092990281E080934A
:100B000098021092730261E082E10E944F0261E05C
:100B100083E10E944F02E9EBF0E080818E7F8083C9
:100B200080818D7F808388E48093B80085E4809302
:100B3000BC000895CF93DF9391E090932F02882318
:100B4000B9F0C091B800D091BA008091BC008A7B06
:100B50008093BC0060E082E10E944F0260E083E18C
:100B60000E944F020E947C05D093BA00C093B80047
:100B7000DF91CF910895E091110380911003E81760
:100B800030F4F0E0E15FFD4F808190E008958FEF59
:100B90009FEF089590911103809110032FEF3FEF85
:100BA000981748F4E92FF0E0E15FFD4F208130E035
:100BB0009F5F90931103C901089580911003909154
:100BC0001103891B990B0895CF92DF92EF92FF9248
:100BD0000F931F93CF93DF937C01CB018A01209168
:100BE0009F02222389F0EB016B01C40ED51ECC15A8
:100BF000DD0569F06991D701ED91FC910190F081DB
:100C0000E02DC7010995F3CF642F0E945505C80157
:100C1000DF91CF911F910F91FF90EF90DF90CF90D8
:100C20000895CF93DF931F92CDB7DEB769832091EC
:100C30009F022223F9F020910E03203258F021E088
:100C400030E0FC013383228390E080E00F90DF915D
:100C5000CF91089580910F03E82FF0E0E056FD4F0B
:100C6000998190838F5F80930F0380930E0381E0BF
:100C700090E0ECCF61E0CE0101960E945505F7CFE0
:100C8000CF92DF92EF92FF920F931F93CF93DF9358
:100C9000FC01C48121E020939F02C093C002109206
:100CA0000F0310920E038385682B88E096E00E9464
:100CB0001106D0910E03D13208F092C00E940003B9
:100CC0006B017C0180919902811165C082E0809363
:100CD000990281E0809398028FEF8093970210929F
:100CE0009602D0939502A0EAB2E0E5E7F2E080E058
:100CF000D81385C01092740280917402CC0FC82B57
:100D0000C093740280917302813009F07CC010920C
:100D100073020E9400036B017C0180917402809336
:100D2000BB0080919B0290919C02A0919D02B0918A
:100D30009E02892B8A2B8B2B99F00E940003009135
:100D40009B0210919C0220919D0230919E026C1991
:100D50007D098E099F090617170728073907E0F153
:100D60008091BC0083FDD9CF85EC8093BC000E94AC
:100D700000036B017C0180919902823009F445C027
:100D8000809197028F3F61F180919702803241F10B
:100D90008091970225C080919B0290919C02A09126
:100DA0009D02B0919E02892B8A2B8B2B09F48ACF4E
:100DB0000E94000300919B0210919C0220919D02D1
:100DC00030919E026C197D098E099F09061717073D
:100DD0002807390708F076CF80919A020E949A0579
:100DE00010920F0310920E0310929F02DF91CF9189
:100DF0001F910F91FF90EF90DF90CF9008959D91FC
:100E000091938F5F75CF85EEB0CF80919B029091CB
:100E10009C02A0919D02B0919E02892B8A2B8B2B64
:100E200009F4A9CF0E94000300919B0210919C023B
:100E300020919D0230919E026C197D098E099F09B7
:100E4000061717072807390708F095CFC5CF90E098
:100E500080E00895EF92FF920F931F93CF93DF935B
:100E6000F0904606E090450608E010E0C0E0D0E8CB
:100E700061E08F2D0E944F028E2D0E942602019765
:100E800009F4CD2B60E08F2D0E944F02D6950150C2
:100E9000110971F78C2FDF91CF911F910F91FF9066
:100EA000EF900895FF920F931F93CF93DF9380915C
:100EB00045060E9426020197D1F310E0F8940E94A3
:100EC0002A07D82F0E942A07F82E0E942A07082FE7
:100ED00080914706803829F0803471F0C2E080327A
:100EE00061F061E0809146060E944F0260E08091CF
:100EF00046060E944F020DC0C3E061E080914606A5
:100F00000E944F0260E0809146060E944F02C1504D
:100F1000A1F77894D7FD1FEF2FB7F894809167055C
:100F200090916805A0916905B0916A052FBF8093E3
:100F3000500690935106A0935206B0935306602F2B
:100F40007F2D8D2F912F0E94B21EDF91CF911F9187
:100F50000F91FF9008958F929F92AF92BF92CF9280
:100F6000DF92EF92FF920F931F93CF93DF93CDB752
:100F7000DEB7EC970FB6F894DEBF0FBECDBFB82E2C
:100F800080915806823009F472C0F8F4813009F477
:100F9000B8C0C12CD12C760110E00E9452079B01F1
:100FA000AC01C701B6010E946A206B017C011F5F82
:100FB000B112F3CF6B2D70E090E080E00E94B21E82
:100FC0009B01AC01C701B60199C0833039F0843070
:100FD00001F70E9452076B017C011CC00E9452075E
:100FE0006B017C0111E00E945207A70196010E944B
:100FF000692020E030E040E05FE30E94111F9B0188
:10100000AC01C701B6010E946A206B017C011F5F21
:10101000B112E9CF609148067091490680914A0665
:1010200090914B060E94B21E9B01AC01C701B60114
:101030000E94692020914C0630914D0640914E0649
:1010400050914F060E94111FEC960FB6F894DEBF28
:101050000FBECDBFDF91CF911F910F91FF90EF9009
:10106000DF90CF90BF90AF909F908F900895CE016A
:1010700001966C01E12C8C010E945207D6016D9300
:101080007D938D939D936D0181E08E0DB8122AC0E2
:101090006B2DC8010E948E006B2D70E06E5F7F4F3C
:1010A0007595679575956795D62EE61A660F771F25
:1010B000660F771F060F171FF12C812C912C5401FE
:1010C0008D2D8F0DE81680F0F8012191319141911D
:1010D00051918F01C501B4010E946A204B015C014E
:1010E000F394EECFE82EC8CF6F2D70E090E080E053
:1010F0000E94B21E9B01AC01C501B4010E94D62022
:101100006ACFCE0101966C01F12C8C010E9452072E
:10111000D6016D937D938D939D936D01F394BF10D4
:10112000F5CF6B2DC8010E948E002B2D2695E22F46
:10113000F0E0CF01880F991F880F991FB0FE08C0FB
:10114000080F191FF801C080D180E280F38062CFC0
:101150003196EE0FFF1FEE0FFF1FE00FF11F080F7C
:10116000191FD8012D913D914D915C916081718144
:10117000828193810E946A2020E030E040E05FE3BA
:101180000E94111F28CF4F925F926F927F928F9291
:101190009F92AF92BF92CF92DF92EF92FF920F9306
:1011A0001F93CF93DF9300D0CDB7DEB78C01498377
:1011B0002A83660F771FF801EA5AFF4FE080F1801B
:1011C000EE0CFF1CF801CF01801B910B8E159F05C3
:1011D00014F41192F8CF8981F801E60FF71F81838B
:1011E0008A818083680184E5C80ED11C60E0F60125
:1011F00080810E944F025801F2E5AF0EB11C4801F8
:1012000080E5880E911C1E141F040CF5E1E0EE1A17
:10121000F108F801EE0DFF1D6080F5015080F4012A
:10122000408088E0782E662D661F6627661F842D15
:101230000E944F02660C61E0852D0E944F0260E023
:10124000852D0E944F027A947110EDCFDCCF61E0C2
:10125000F60180810F900F90DF91CF911F910F9138
:10126000FF90EF90DF90CF90BF90AF909F908F90C6
:101270007F906F905F904F900C944F02CF92DF92CF
:10128000EF92FF921F93CF93DF937C016B01EB01F1
:1012900083E0CC0FDD1F8A95E1F76096CE0DDF1D50
:1012A00011E0199220E0412FB601C7010E94C30846
:1012B0001F5F1930B1F7DF91CF911F91FF90EF9031
:1012C000DF90CF9008950F931F93CF938C01C62F7B
:1012D0000E9440066C2F6460C8010E9440066C2F7B
:1012E0006B7FC8010E94400683EC90E00197F1F704
:1012F000CF911F910F9108950F931F93CF93DF9379
:101300008C01D62FC42F607F642B0E94630980E17B
:10131000D89FB00111246C2BC801DF91CF911F9190
:101320000F910C94630941E00E947C0981E090E0F8
:1013300008950F931F93CF93DF93EC018B011982D4
:1013400018861F86188A198A1A8A81E08E878B87E9
:101350001C8692E09D87888384E290E09D838C8345
:101360000E9408229A878987009769F124E2FC018C
:1013700011922A95E9F78CE090E09B838A831F8382
:101380000E838981882341F061E0802F0E94CF0283
:1013900060E0802F0E944F02F801E556FF4FE49174
:1013A000F0E0EE0FFF1FEF56FF4F859194919C8B5D
:1013B0008B8BF801E155FF4FE491ED8BDF91CF91DD
:1013C0001F910F9108951D821C821B821A82D7CF14
:1013D000FB0101900020E9F73197AF01461B570B45
:1013E000DC01ED91FC910280F381E02D09948F9254
:1013F0009F92AF92BF920F931F93CF93DF93CDB77E
:10140000DEB7A1970FB6F894DEBF0FBECDBF19A20D
:10141000423008F44AE08E010F5D1F4F842E912C5C
:10142000B12CA12CA50194010E943820E62FB9010E
:10143000CA01EA3004F5E05DD801EE938D01232B5B
:10144000242B252B79F790E080E0109729F0BD013F
:101450008BE695E00E94E809A1960FB6F894DEBFEE
:101460000FBECDBFDF91CF911F910F91BF90AF9075
:101470009F908F900895E95CDFCFCF92DF92EF923B
:10148000FF92CF93DF9397FF1BC06B017C016DE24E
:101490008BE695E00E949001EC0166277727CB014F
:1014A0006C197D098E099F094AE00E94F7098C0F8B
:1014B0009D1FDF91CF91FF90EF90DF90CF90089527
:1014C0004AE0DF91CF91FF90EF90DF90CF900C94A6
:1014D000F7094F925F926F927F928F929F92AF9295
:1014E000BF92CF92DF92EF92FF920F931F93CF9311
:1014F0006B017C01742EAC019B010E94832162E58B
:1015000071E0811126C046015701E894B7F82FEF2A
:101510003FEF4FE75FE7C501B4010E9483218111CE
:101520000CC02FEF3FEF4FE75FE7C501B4010E940A
:10153000AB1E66E571E0181664F02FEF3FEF4FE742
:101540005FE4C701B6010E947E211816ACF46AE57B
:1015500071E08BE695E0CF911F910F91FF90EF9096
:10156000DF90CF90BF90AF909F908F907F906F90C3
:101570005F904F900C94E8092FEF3FEF4FE75FEC3F
:10158000C701B6010E94AB1E87FDE1CF20E030E02D
:10159000A901C701B6010E94AB1E10E000E087FF61
:1015A0000AC06DE28BE695E00E9490018C01F7FA8B
:1015B000F094F7F8F094C0E060E070E080E09FE322
:1015C0007C1641F020E030E040E251E40E94D62059
:1015D000CF5FF6CFA70196010E946A202B013C0144
:1015E0000E944F214B015C014AE00E94F7097C01F7
:1015F000E00EF11ECC23C1F1C501B4010E94B01E62
:101600009B01AC01C301B2010E9469204B015C0146
:101610006EE28BE695E00E949001E80EF91EC15043
:1016200018F120E030E040E251E4C501B4010E942D
:10163000111F2B013C010E944F214B01B12CA12C09
:101640004AE0C501B4010E94F709E80EF91EC50180
:10165000B4010E94B01E9B01AC01C301B2010E9403
:1016600069204B015C01DBCFC701CF911F910F9126
:10167000FF90EF90DF90CF90BF90AF909F908F90B2
:101680007F906F905F904F900895CF93DF930E946B
:10169000690AEC016EE571E08BE695E00E94E809CD
:1016A0008C0F9D1FDF91CF9108956115710511F089
:1016B0000C94E80990E080E0089585ED8093BC00EB
:1016C00080919B0290919C02A0919D02B0919E02FC
:1016D0000796A11DB11D23E0B695A795979587950F
:1016E0002A95D1F72091BC0024FD03C010929902E5
:1016F000089540919B0250919C0260919D027091CF
:101700009E02452B462B472B69F30097A105B10597
:1017100041F02AE22A95F1F700C00197A109B10929
:10172000E1CF80919A020C949A051F920F920FB606
:101730000F9211242F933F934F935F936F937F9357
:101740008F939F93AF93BF93EF93FF9380914D053A
:1017500090914E05A0914F05B0915005892B8A2B91
:101760008B2BD1F190914805E0914905F0914A0504
:1017700080818927808380914D0590914E05A091AD
:101780004F05B0915005181619061A061B069CF451
:1017900080914D0590914E05A0914F05B091500557
:1017A0000197A109B10980934D0590934E05A0932F
:1017B0004F05B0935005FF91EF91BF91AF919F916D
:1017C0008F917F916F915F914F913F912F910F90EA
:1017D0000FBE0F901F901895809100010E94A302E8
:1017E000EACF1F920F920FB60F9211242F933F93BF
:1017F0004F935F936F937F938F939F93AF93BF9319
:10180000EF93FF938BE695E00E946E01FF91EF91BD
:10181000BF91AF919F918F917F916F915F914F9108
:101820003F912F910F900FBE0F901F9018951F9210
:101830000F920FB60F9211242F938F939F93EF93D4
:10184000FF93E0917B05F0917C058081E09181051B
:10185000F091820582FD1BC09081809184058F5F8D
:101860008F7320918505821741F0E0918405F0E0A7
:10187000E559FA4F958F80938405FF91EF919F91E1
:101880008F912F910F900FBE0F901F901895808110
:10189000F4CF1F920F920FB60F9211242F933F9304
:1018A0008F939F93AF93BF93809167059091680545
:1018B000A0916905B0916A053091010323E0230FDF
:1018C0002D3758F50196A11DB11D2093010380937A
:1018D000670590936805A0936905B0936A058091A8
:1018E000020390910303A0910403B09105030196B4
:1018F000A11DB11D8093020390930303A0930403E1
:10190000B0930503BF91AF919F918F913F912F911C
:101910000F900FBE0F901F90189526E8230F029688
:10192000A11DB11DD2CF1F920F920FB60F9211249D
:101930002F933F934F935F936F937F938F939F93D7
:10194000AF93BF93EF93FF93E0910803F0910903E6
:10195000309749F0A685B7858585968D91FF14C08F
:101960009C918923A1F4FF91EF91BF91AF919F9139
:101970008F917F916F915F914F913F912F910F9038
:101980000FBE0F901F9018959C91892361F7A38932
:10199000B4899C918589809589238C9386899789C0
:1019A0000197F1F7608D718DA685B785558538E073
:1019B00020E0CB010197F1F7822F90E09595879574
:1019C000282F4C91452309F02068315091F7868DDE
:1019D00081FD20958091070390E001968F739927F0
:1019E00030910603381799F0A0910703B0E0AF5388
:1019F000BD4F2C9380930703828D938D0197F1F750
:101A0000A389B4898C919589892B8C93ACCF868DD1
:101A10008160868FF1CF1F920F920FB60F92112423
:101A20002F933F934F935F936F937F938F939F93E6
:101A3000AF93BF93EF93FF938091B900887F803677
:101A400009F44AC0F0F5883209F4A7C018F58031CE
:101A500009F49BC0B8F4882309F4F9C0883009F46C
:101A600094C0FF91EF91BF91AF919F918F917F9122
:101A70006F915F914F913F912F910F900FBE0F90FB
:101A80001F901895883109F488C0803251F78093EF
:101A9000970214C0803409F49DC040F48033B9F338
:101AA0008833F9F68093970285ECB0C0803509F44D
:101AB00085C0883509F496C0883499F60E945D0B7C
:101AC000D0CF883909F48CC038F5883729F050F424
:101AD000883611F0803729F683E0809399021092BE
:101AE000720257C0883809F47BC0803919F08038F9
:101AF00009F0B7CF80917202803208F071C0E09196
:101B0000720281E08E0F809372028091BB00F0E040
:101B1000EE5AFD4F80833DC0803B39F0E0F4803ABF
:101B200009F479C0883A09F09CCF84E08093990247
:101B30001092510210925002E0910C03F0910D03AB
:101B400009958091500281110FC081E0809350026D
:101B50001092300209C0803C09F4A6CF883C09F4F9
:101B6000A3CF883B09F07DCFE091510281E08E0F39
:101B700080935102F0E0E05DFD4F80818093BB00D7
:101B8000909151028091500229C0809174028093FB
:101B9000BB0085EC8093BC0064CF9091960280914D
:101BA0009502981758F5E091960281E08E0F809388
:101BB0009602F0E0EB58FD4F8081E9CFE09196026C
:101BC00081E08E0F809396028091BB00F0E0EB588D
:101BD000FD4F808390919602809195029817C8F2EC
:101BE00085E8D8CFE091960281E08E0F809396022F
:101BF0008091BB00F0E0EB58FD4F8083809198020C
:101C000081115CCF81E08093730284EA8093BC00F1
:101C10001092990226CF85EC8093BC001092990215
:101C200080917202803230F4E0917202F0E0EE5A5C
:101C3000FD4F10826091720270E0E0910A03F09112
:101C40000B0382E592E00995109272020ACF10927E
:101C5000970234CF1F920F920FB60F9211242F9339
:101C60003F934F935F936F937F938F939F93AF9324
:101C7000BF93CF93DF93EF93FF9380910E02C091B8
:101C80003806D0E087FF24C01092850010928400AF
:101C900080910E028F5F80930E0280910E02082EBB
:101CA000000C990B8C179D0724F480910E028C3048
:101CB000C4F18091840090918500049680349C4901
:101CC00008F47AC08091840090918500049676C0D3
:101CD00080910E02082E000C990B8C179D07C4F6FC
:101CE000E0910E028E2FEE0F990BFC01EE0FFF1FFD
:101CF000E80FF91FEC5EF94F808186FFC9CFE091B4
:101D00000E028E2FEE0F990BFC01EE0FFF1FE80F56
:101D1000F91FEC5EF94F808160E08F730E944F02E3
:101D2000B7CF2091840030918500E0910E028E2F74
:101D3000EE0F990BFC01EE0FFF1FE80FF91FEC5E91
:101D4000F94F81819281820F931F90938900809334
:101D50008800E0910E028E2FEE0F990BFC01EE0F22
:101D6000FF1FE80FF91FEC5EF94F808186FF11C05D
:101D7000E0910E028E2FEE0F990BFC01EE0FFF1F6C
:101D8000E80FF91FEC5EF94F808161E08F730E94CC
:101D90004F02FF91EF91DF91CF91BF91AF919F9152
:101DA0008F917F916F915F914F913F912F910F9004
:101DB0000FBE0F901F90189580E49CE990938900C6
:101DC000809388008FEF80930E02E3CFCF92DF9253
:101DD000EF92FF920F931F93E82FF92F05C0015048
:101DE00011092109310961F1908196239417B9F302
:101DF00005C0015011092109310911F19081962383
:101E00009413F7CFC12CD12CE12CF12C0AC08FEF09
:101E1000C81AD80AE80AF80A0C151D052E053F0550
:101E200079F080818623841791F36C2D7D2D8E2D82
:101E30009F2D1F910F91FF90EF90DF90CF9008950D
:101E400060E070E080E090E01F910F91FF90EF90D4
:101E5000DF90CF90089510926E0510926D0588EE78
:101E600093E0A0E0B0E080936F0590937005A0939D
:101E70007105B093720524E131E030936C05209335
:101E80006B0525EC30E0309378052093770524EC42
:101E900030E030937A052093790520EC30E03093E0
:101EA0007C0520937B0521EC30E030937E05209368
:101EB0007D0522EC30E03093800520937F0526ECF1
:101EC00030E03093820520938105109284051092B2
:101ED0008505109286051092870510920B061092C8
:101EE0000A0680930C0690930D06A0930E06B093FD
:101EF0000F0626E231E0309309062093080610927F
:101F00006D0610926C0680936E0690936F06A093F8
:101F10007006B093710684E491E090936B06809311
:101F20006A06109281061092800610928306109223
:101F300082061092850610928406109287061092EF
:101F40008606609188066E7F6D7F60938806669531
:101F5000617081E0682783E00E944F0261E083E0C6
:101F60000E94CF02E2EBF0E0E491E0937A06EEE922
:101F7000F0E0E491F0E0EE0FFF1FEF56FF4F859188
:101F8000949190937C0680937B0660E082E00E94AF
:101F9000CF028091880681FD04C061E082E00E944A
:101FA0004F0282E080937606E1EBF0E0E491E0936B
:101FB0007706EDE9F0E0E491F0E0EE0FFF1FE9575E
:101FC000FF4F8591949190937906809378061092B3
:101FD00061061092660610926706109268061092CB
:101FE00069061092620610926306109264061092BF
:101FF0006506809138068C3008F053C091E0980F48
:10200000909338068093590690E0FC01EE0FFF1F75
:10201000E80FF91FEC5EF94F88EB9BE09283818318
:1020200080E8809347061092480610924906109265
:102030004A0610924B0680E090E0A0E8BFE3809350
:102040004C0690934D06A0934E06B0934F06109207
:10205000500610925106109252061092530610929A
:10206000540610925506109256061092570610927A
:1020700058060E947D0210923C0610923B0688E3AF
:1020800091E090933A068093390687E280933D066B
:1020900080E18093420682E08093430610924406DA
:1020A00008958FEF80935906BBCFCF93DF93CDB7C1
:1020B000DEB7CC58D1090FB6F894DEBF0FBECDBF46
:1020C000789484B5826084BD84B5816084BD85B513
:1020D000826085BD85B5816085BD80916E0081601F
:1020E00080936E00109281008091810082608093C5
:1020F00081008091810081608093810080918000C7
:102100008160809380008091B10084608093B100F1
:102110008091B00081608093B00080917A008460EB
:1021200080937A0080917A00826080937A00809117
:102130007A00816080937A0080917A008068809331
:102140007A001092C100E0917B05F0917C0582E05D
:102150008083E0917705F09178051082E091790510
:10216000F0917A0580E1808310928305E0917F05EC
:10217000F091800586E08083E0917D05F0917E05F9
:10218000808180618083E0917D05F0917E05808172
:1021900088608083E0917D05F0917E058081806874
:1021A0008083E0917D05F0917E0580818F7D808325
:1021B0001092850610928406109283061092820671
:1021C00010928106109280068DE991E09093870627
:1021D0008093860690917606963108F047C02DEBE5
:1021E00030E030938106209380062BE931E0309374
:1021F0008306209382062CE231E0309385062093FB
:1022000084062091680084E0983048F031E09E30E8
:1022100008F430E081E001C0880F3A95EAF7822B9C
:10222000809368002DE630E0983050F02BE630E0E7
:102230009E3030F02CE630E0963110F030E020E0B7
:1022400030937E0620937D06292F30E0983008F0E9
:10225000F9C081E001C0880F9A95EAF780937F0664
:1022600080918606909187060197F1F78091840608
:1022700090918506892B49F1E0910803F0910903BB
:1022800026E0EA36F20709F1309739F0A389B489DC
:102290009C918589809589238C93809188068E7F77
:1022A0008093880610920703109206038AE696E050
:1022B0009093090380930803E0917D06F0917E06D8
:1022C000808190917F06892B808310921103109258
:1022D000100310920F0310920E030E947C058EEEE5
:1022E00090E090930D0380930C038FEE90E0909319
:1022F0000B0380930A0310923E06809143068230BE
:1023000018F098E090933E068093410662E370E0F7
:1023100080E090E00E9425036091440689E396E006
:102320000E94400668EE73E080E090E00E94250382
:1023300060E389E396E00E9463090BE416E4C801B8
:102340000197F1F760E389E396E00E946309C80111
:102350000197F1F760E389E396E00E94630983E562
:1023600092E00197F1F760E289E396E00E94630949
:1023700060913E06606240E089E396E00E947C093D
:1023800084E080933F0640E06CE089E396E00E94A1
:102390007C0940E061E089E396E00E947C090BE360
:1023A0001FE1C8010197F1F782E08093400640E009
:1023B00066E089E396E00E947C0940E062E089E300
:1023C00096E00E947C09C8010197F1F788E08093AC
:1023D000440660E089E396E00E944006CE018F5AF1
:1023E0009F4FE3969FAF8EAFE397809101018111DC
:1023F000109201018BE695E00E944E01892B11F4A9
:102400000C940E1E66E070E080E090E00E942503D0
:10241000E2E1F3E080E4DF011D928A95E9F7F12C17
:102420008BE695E00E944E010F2D10E00E5E1C4FD2
:10243000892BA9F08BE695E00E942C01F80180839E
:10244000F394EECF9E3040F42850310981E001C072
:10245000880F2A95EAF702CF2E503109F7CFD8011D
:102460001C9263E771E082E193E00E94771E1C01F9
:1024700063E771E090E080E00E94771E2C0163E743
:1024800071E090E080E00E94771E3C0163E771E01C
:1024900090E080E00E94771EC158DF4F99838883C7
:1024A000CF57D04065E771E0C1010E94F323892B2B
:1024B00061F469E771E08BE695E00E94E8096EE55A
:1024C00071E08BE695E00E94E80961E871E0C101E6
:1024D0000E94F323892B09F027C264EA71E0C3014B
:1024E0000E94771E6C0164EA71E090E080E00E9437
:1024F000771E7C0164EA71E090E080E00E94771E24
:102500000E94591E8C01C7010E94591E7C01C60100
:102510000E94591ED82EC92E62968FAF629763967D
:102520009FAF63976596FFAEEEAE659767961FAF58
:102530000EAF679781E090E069969FAF8EAF699785
:1025400061E08D2D0E94CF0261E064968FAD6497AB
:102550000E94CF0261E066968FAD66970E94CF021F
:1025600061E066968FAD66970E944F026296DFAE7D
:1025700062976396CFAE6397FE0171969E012F5FBF
:102580003F4FE7963FAF2EAFE7971192E3968EADA0
:102590009FADE3978E179F07C1F710E000E06996A3
:1025A0008EAD9FAD699708171907CCF520E04FE075
:1025B000B801CE0101960E94C30869968EAD9FAD09
:1025C0006997081719073CF427E04BE0B801CE01E2
:1025D00001960E94C30820E049E0B801CE010196AF
:1025E0000E94C30869968EAD9FAD699708171907B9
:1025F0002CF4B801CE0101960E943E0969968EAD79
:102600009FAD6997081719073CF420E04CE0B8012A
:10261000CE0101960E94C3080F5F1F4FC0CF18164E
:10262000190634F470E060E0CE0101960E943E0984
:1026300069968EAD9FAD69971816190644F421E08E
:102640004CE070E060E0CE0101960E94C3086996FC
:102650008EAD9FAD69971816190644F425E04AE03F
:1026600070E060E0CE0101960E94C308F20131964D
:10267000DE01A75ABF4FC201439621912D938E17B9
:102680009F07D9F7CF57DF4F19821882C158D04022
:1026900091E0EC969FAFEC97DE01A75ABF4FE19611
:1026A000BFAFAEAFE197E196EEADFFADE197019020
:1026B0000020E9F731979F01E1968EAD9FADE1973C
:1026C000281B390BEB963FAF2EAFEB97B9016F5F2D
:1026D0007F4F90E080E00E942D234C01009709F489
:1026E0006EC0DC011C92BE01675A7F4F0E94FC2322
:1026F000B0E0A0E020E030E040E050E060E070E0DA
:1027000080E090E0EB96EEADFFADEB97AE17BF0724
:102710000CF0A2C004E00E94B52159016A017B01BE
:102720008C01AE17BF0708F065C08114910409F44D
:1027300061C0F401EA0FFB1FE081E053E73308F0CA
:1027400059C00E2E000CFF0BE855FC4E0C94A8212E
:102750002814E413E913EE13F3130C1411141614D4
:1027600018141A14FA13FA13FA13FA13FA13FA13C1
:10277000FA131C141E142014221424142614FA1301
:10278000FA13FA13FA13FA13FA13FA13FA13FA13E1
:10279000FA13FA13FA13FA13FA13FA13FA13FA13D1
:1027A000FA13FA13FA13FA13FA13FA13FA13FA13C1
:1027B000FA131C141E142014221424142614EB964D
:1027C0001FAE1EAEEB9794CFF1E0E596FFAFE59715
:1027D0000EC022E0E5962FAFE59709C033E0E596FD
:1027E0003FAFE59704C084E0E5968FAFE597E496A8
:1027F0001FAEE497E5962FADE597E4963FADE497DD
:10280000932F990F990B492F592F692F792F892FC2
:102810000E94EB21119676CF95E0E5969FAFE59764
:10282000E6CFE6E0E596EFAFE597E1CFF7E0CDCF75
:1028300028E0D0CF39E0D3CF8AE0D6CF9BE0EDCFF0
:10284000ECE0F0CFFDE0C1CF2EE0C4CF3FE0C7CF3A
:10285000E5961FAEE597CBCFCF57DF4F0881C15824
:10286000D0400E94D021E22E8114910419F0C401BD
:102870000E94A42210E000E0F12C69968EAD9FAD7D
:1028800069971816190654F580E890E0002E02C0EA
:10289000959587950A94E2F7E796AEADBFADE797B9
:1028A00050962C915097A701002E02C05595479540
:1028B0000A94E2F740FF73C0822B50968C93E79600
:1028C000AEADBFADE79750962C91EC964FADEC971F
:1028D00070E060E0CE0101960E94C3080F5F1F4FB9
:1028E0000830110551F6E796EEADFFADE79731964A
:1028F000E796FFAFEEAFE797EC96FFADEC97FF5F83
:10290000EC96FFAFEC97CF57DF4F28813981C15844
:10291000D040285F3F4FCF57DF4F39832883C158BE
:10292000D040F93009F0BFCE69E871E0C1010E94E2
:10293000F323892B09F02FC10AE010E08AE696E024
:102940000E94CD03892B09F4DCC08AE696E00E9440
:10295000E3032091460530914705A9014F5F5F4F82
:102960005093470540934605220F331FF901EE5A55
:10297000FC4F992791838083809152039091530358
:1029800082349105A1F080915403909155038D34C8
:10299000910569F01092470510924605CFCF8095BA
:1029A0008223E796EEADFFADE797808B88CF473265
:1029B000510520F230915A03CC57DF4F3883C45869
:1029C000D040CD57DF4F1882C358D04080915C0370
:1029D00090915D03CD57DF4FA881B981C358D04096
:1029E0008A0F9B1F9093660580936505B0915E03E7
:1029F000CA57DF4FB883C658D040CB57DF4F188235
:102A0000C558D0408091600390916103CB57DF4F50
:102A1000E881F981C558D0408E0F9F1F90936405BF
:102A200080936305F0916203C857DF4FF883C8585D
:102A3000D040C957DF4F1882C758D04080916403F7
:102A400090916503C957DF4F28813981C758D0401D
:102A5000820F931F909362058093610530918203EA
:102A6000C657DF4F3883CA58D040C757DF4F188248
:102A7000C958D0408091840390918503C757DF4F98
:102A8000A881B981C958D0408A0F9B1FB8010E9404
:102A90009421072E000C880B990B0E94B21E6093A4
:102AA0005D0570935E0580935F0590936005B0911E
:102AB0008603C457DF4FB883CC58D040C557DF4F8B
:102AC0001882CB58D0408091880390918903C557D4
:102AD000DF4FE881F981CB58D0408E0F9F1FB8019E
:102AE0000E949421072E000C880B990B0E94B21EA5
:102AF0006093590570935A0580935B0590935C052C
:102B000049CF609165057091660590E080E04AE0EC
:102B10000E94F70964EA71E08BE695E00E94550B8C
:102B2000609163057091640590E080E04AE00E9446
:102B3000F70964EA71E08BE695E00E94550B60911D
:102B400061057091620590E080E04AE00E94F7091B
:102B500064EA71E08BE695E00E94550B60915D059B
:102B600070915E0580915F059091600542E00E9442
:102B7000690A64EA71E08BE695E00E94550B60916A
:102B8000590570915A0580915B0590915C0542E072
:102B900050E00E94450B6CE871E0C1010E94F323F4
:102BA000892B89F46EE871E0C2010E94F323892B1E
:102BB000A1F540E061E089E396E00E947C098BE3A7
:102BC0009FE10197F1F764E971E0C1010E94F323ED
:102BD000892B09F0CFC08E010D5F1F4F8EE3D80106
:102BE0001D928A95E9F764EA71E0C3010E94771E9D
:102BF0007C010E94591E9A838983EF28B9F164EA07
:102C000071E090E080E00E94771E7C010E94591ED6
:102C1000F801819391938F01F0CFC3010E94591E57
:102C200098E0E8E0F1E0DE01119601900D929A95AE
:102C3000E1F790914106981710F48FEF890FE82F74
:102C4000F0E0EE0FFF1F21E030E02C0F3D1FE20F00
:102C5000F31F6081606840E089E396E00E947C0990
:102C6000B20189E396E00E94550BADCFC2010E94EC
:102C7000591E8E01075A1F4FBC01C8010E949909B5
:102C8000C8010E944105E12CC12CF12C90E080E0AC
:102C9000B02EA12EFC01EE0FFF1F21E030E02C0F23
:102CA0003D1FE20FF31F608171818C010E5F1F4F8A
:102CB000161617060CF044C0615071098C010F5FA5
:102CC0001F4FF801EE0FFF1FE20FF31F208131812C
:102CD0002115310579F40F5F1F4FF801EE0FFF1F2B
:102CE00081E090E08C0F9D1FE80FF91FF080E12C30
:102CF000C12C18C02130310509F0A9C08C010E5F2C
:102D00001F4FF801EE0FFF1FA1E0B0E0AC0FBD1F99
:102D1000EA0FFB1FC080D180C601880F991FF82ED3
:102D2000FC0CE12C2C2D30E050E040E0542F432FE0
:102D3000322F22274F292E298B2D9A2D0E940404F1
:102D4000C8010196803291050CF4A4CFCE01875AB8
:102D50009F4F0E946504A4968EAD9FADA4970E94DC
:102D6000A422A1968EAD9FADA19797FD03C060E010
:102D70000E94CF0267E971E0C1010E94F323892B11
:102D800009F0F5C064EA71E0C3010E94771E0E9459
:102D9000591E082F64EA71E090E080E00E94771EDF
:102DA0000E94591E882E64EA71E090E080E00E9443
:102DB000771E0E94591E182FC2010E94591EBC0185
:102DC000CE0101960E949909CE0101960E9441050B
:102DD000912CB12CA12CBA2CA92C982C8824A02A97
:102DE000812AC158DF4FE880F980CF57D040670172
:102DF000BCE0CB0ED11C00E611E0F70181917F0110
:102E0000813309F495C0823309F46EC1833309F428
:102E10006EC1843309F46EC1853309F46EC1863303
:102E200009F46EC1873309F46EC1883309F46EC1A9
:102E3000893309F46EC1813609F46EC1823609F412
:102E40006EC1833609F076C000E711E073C022300E
:102E5000310581F48C010E5F1F4FF801EE0FFF1F4B
:102E600021E030E02C0F3D1FE20FF31FF080E12C3A
:102E7000CF2C58CF2330310589F48C010E5F1F4FC2
:102E8000F801EE0FFF1F81E090E08C0F9D1FE80F0F
:102E9000F91FC080D180E12CF12C44CF24303105C2
:102EA00079F48C010E5F1F4FF801EE0FFF1FA1E0B8
:102EB000B0E0AC0FBD1FEA0FFB1FE080C12CECCFD0
:102EC0002530310581F48C010E5F1F4FF801EE0FA4
:102ED000FF1F21E030E02C0F3D1FE20FF31FC080E9
:102EE000D180EC2CD9CF2630310579F48C010E5FDE
:102EF0001F4FF801EE0FFF1F81E090E08C0F9D1F28
:102F0000E80FF91FF080EF2CF3CE2730310509F0E0
:102F100009CF8C010E5F1F4FF801EE0FFF1FA1E0DC
:102F2000B0E0AC0FBD1FEA0FFB1FF080EF2CA0CF6D
:102F30000EE611E0C8010E94591EA5019401BC01D2
:102F4000CE0101960E940404CE14DF0409F055CF8F
:102F5000CE0101960E9465048A859B850E94A42269
:102F60008F81988597FD03C060E00E94CF026AE9D7
:102F700071E0C1010E94F323892B09F06BC0C201EB
:102F80000E94591EF82EC3010E94591E8C0161E057
:102F90008F2D0E94CF0260E0802F0E94CF0260E060
:102FA0008F2D0E944F028FE090E00197F1F761E0D2
:102FB0008F2D0E944F0283E290E00197F1F760E0CD
:102FC0008F2D0E944F0260E0802F0E94CF021127B8
:102FD000F801E155FF4F6491F801E556FF4FE49188
:102FE000F0E0EE0FFF1FE957FF4F8591949100E449
:102FF00012E42FE030E0462F0E94E60E6B017C01C8
:10300000C114D104E104F10439F0FFEFCF1ADF0A53
:10301000EF0AFF0A2FE0F22262EA71E08BE695E008
:103020000E94550BC701B6019595879577956795D1
:103030000E94B21E2DEC3CEC48EE51E40E94D620DA
:103040000E9448210E943D0A6EE571E08BE695E002
:103050000E94E80966EA71E0C1010E94F3237C0145
:10306000892B09F0CFC0C2010E94591E60E00E9466
:10307000CF02C2010E94591E182F80916106882339
:1030800009F0F89410925C0610925D0610925E06AC
:1030900010925F061092600661E0812F0E94CF02BD
:1030A00060E0812F0E944F0262E170E080E090E0DA
:1030B0000E94250360E0812F0E94CF028BE990E0FF
:1030C0000197F1F7F0E9CF2EDD24D394812F0E94F0
:1030D0002602892B39F531E0C31AD108B9F75EEF22
:1030E000E52EFF24FA9472C001E711E023CF01E638
:1030F00011E020CF03E611E01DCF00EA11E01ACF66
:1031000005E611E017CF07E611E014CF09E611E05C
:1031100011CF0BE611E00ECF0FE711E00BCF0DE65C
:1031200011E008CFE0E9CE2EDD24D394812F0E9458
:103130002602019729F481E0C81AD108B9F7CFCF48
:1031400078E2D72E00E8C12C60E9A62EBB24B39408
:10315000812F0E942602892B29F491E0A91AB10837
:10316000B9F7BDCF0E9400034B015C01A0E9B1E0BB
:10317000E796BFAFAEAFE797812F0E942602019777
:1031800061F4E796EEADFFADE7973197E796FFAFB5
:10319000EEAFE797EF2B81F7A2CF0E9400036819EB
:1031A00079098A099B09693271058105910538F011
:1031B000EC2DF0E0E45AF94F8081802B8083069556
:1031C00011F4C39400E8DA94D110BECF8091610667
:1031D000882309F07894EF2809F42DC180E090EC61
:1031E000A9E7B4EC8093620690936306A09364060B
:1031F000B09365068093660690936706A093680671
:10320000B09369066FEA71E0C1010E94F323892B34
:10321000E9F4609166067091670680916806909166
:10322000690642E00E94690A64EA71E08BE695E073
:103230000E94550B6091620670916306809164064E
:103240009091650642E050E00E94450B69EB71E009
:10325000C1010E94F323892B09F044C2C2010E94DC
:10326000591E7C01C158DF4F88819981CF57D040CA
:103270000E94591E0397C158DF4F99838883CF5707
:10328000D040092E000CAA0BBB0BE9968CAF9DAF6A
:10329000AEAFBFAFE997C3010E94591EEB969FAF37
:1032A0008EAFEB97809100018E1114C1E2E7F0E040
:1032B000149117FD04C261E08E2D0E94CF021123EC
:1032C00019F0123009F0E9C3EB96AEADBFADEB9744
:1032D0004D01B12CA12C60E072E18AE790E0A501DC
:1032E0009D010E94CF1FEF962CAF3DAF4EAF5FAF59
:1032F000EF9769017A01B1E0CB1AD108E108F10832
:10330000EFEFCE16D104E104F10409F00CF4ACC1E6
:1033100060E472E48FE090E0A50194010E94CF1F69
:1033200069017A01F1E0CF1AD108E108F108123001
:1033300009F04DC182E02FEFC216D104E104F1047F
:1033400009F00CF471C060E970ED83E090E0A50134
:1033500094010E94CF1F69017A0181E0C81AD10847
:10336000E108F10883E09FEFC916D104E104F104FC
:1033700009F00CF459C068E478EE81E090E0A50112
:1033800094010E94CF1F69017A01B1E0CB1AD108E4
:10339000E108F10884E0EFEFCE16D104E104F10476
:1033A00009F00CF441C064E274EF80E090E0A50104
:1033B00094010E94CF1F69017A01E1E0CE1AD10881
:1033C000E108F10885E0AFEFCA16D104E104F10489
:1033D00059F150F162E17AE780E090E0A5019401B3
:1033E0000E94CF1F69017A0181E0C81AD108E10863
:1033F000F10886E09FEFC916D104E104F104A1F0C1
:1034000098F0EF96CCACDDACEEACFFACEF979AE069
:10341000F594E794D794C7949A95D1F791E0C91A97
:10342000D108E108F10887E09091B100987F892BDD
:103430008093B10020C160915D0670E090E080E073
:103440000E94B21E2DEC3CEC4CEC5DE30E94111F7F
:103450006B017C0160915C0670E090E080E00E946E
:10346000B21E9B01AC01C701B6010E946A206093A5
:1034700062067093630680936406909365061091CC
:103480005E0660915F0670E090E080E00E94B21EF0
:103490002DEC3CEC4CEC5DE30E94111F6B017C01B8
:1034A000612F6F7770E090E080E00E94B21E9B0178
:1034B000AC01C701B6010E946A2017FD09C06093E4
:1034C00066067093670680936806909369069ACEA5
:1034D0009058F5CF8F3F09F0F2C0E0920001E2E78B
:1034E000F0E014911F3F09F4EAC0113041F150F0AF
:1034F000123009F446C017FDE2C061E08E2D0E9433
:10350000CF02DFCE14BC15BC84B5826084BD85B506
:10351000816085BDC7019927FC01E556FF4FE49105
:10352000F0E0EE0FFF1FEF56FF4F25913491FC01A5
:10353000E155FF4FE491E0934C0510E0BCCE1092B2
:1035400080001092810080918100886080938100CA
:1035500080918100816080938100C7019927FC01DF
:10356000E556FF4FE491F0E0EE0FFF1FEF56FF4FDF
:1035700025913491FC01E155FF4FE491E0934B0517
:103580009ACE1092B0001092B1008091B00082608B
:103590008093B0008091B10081608093B100C70139
:1035A0009927FC01E556FF4FE491F0E0EE0FFF1F75
:1035B000EF56FF4F2591349130934A0520934905EA
:1035C000FC01E155FF4FE491E093480574CEAFEF65
:1035D000CA16D104E104F10409F00CF45CC268E4F9
:1035E00078EE81E090E0A50194010E94CF1F69016F
:1035F0007A01B1E0CB1AD108E108F10884E0111199
:10360000E2CE83E0FFEFCF16D104E104F10479F1BB
:1036100074F162E17AE780E090E0A50194010E94F4
:10362000CF1F69017A01F1E0CF1AD108E108F10852
:1036300084E02FEFC216D104E104F104C1F0B8F028
:10364000EF96CCACDDACEEACFFACEF978AE0F59436
:10365000E794D794C7948A95D1F7A1E0CA1AD10804
:10366000E108F10885E003C081E01111DDCE95B5D8
:10367000987F892B85BDE9968CAD9DADAEADBFAD74
:10368000E9972FEF3FEFA901892B8A2B8B2B09F0AC
:1036900047C2113009F459C2123009F468C211113D
:1036A0000EC0C7BC2093550530935605409357056F
:1036B0005093580580916E00826080936E00E99669
:1036C0006CAD7DAD8EAD9FADE9970E942503C20123
:1036D0000E94591E0E94A30262E070E080E090E028
:1036E0000E94250362EC71E0C1010E94F323892B43
:1036F00009F0DBC0C2010E94591E182F80915906A3
:103700008C3008F052C061E0812F0E94CF0280917E
:103710005906282F30E0F901EE0FFF1FE20FF31FCB
:10372000EC5EF94F1F739081907C912B90831092E7
:103730005A0610925B062CE0622F0E948821829F1D
:10374000B001112430E020E0AB01420F531FFA0119
:10375000EE0FFF1FE40FF51FEC5EF94F908196FD11
:1037600016C02F5F3F4F2C30310571F781110FC00C
:103770001092800082E08093810010928500109268
:103780008400B19A80916F00826080936F00E09115
:1037900059068E2F90E0FC01EE0FFF1FE80FF91F76
:1037A000EC5EF94F80818064808310915906C301DB
:1037B0000E94591E8032A2E09A070CF03DC0209171
:1037C0005A06E8E8CE2ED12CC21AD10827FDD39490
:1037D000CC0CDD1CCC0CDD1C0D2C000CEE08FF0805
:1037E00040915B0628E532E0241B310947FD339503
:1037F000220F331F220F331F032E000C440B550BD7
:103800002C193D094E095F09DC01853B910514F037
:10381000A4EBB0E0B7FF02C0B0E0A0E00E94F91F47
:1038200024EB30E040E050E00E94CF1FDA01C901F4
:103830008C0D9D1DAE1DBF1D1C3088F520915A06B4
:1038400048E850E0421B510927FD5395440F551F8E
:10385000440F551F8417950784F020915B0648E5B7
:1038600052E0421B510927FD5395440F551F440F49
:10387000551F841795070CF4AC0142505109440FB1
:10388000551F2FB7F894812F90E0FC01EE0FFF1F1A
:10389000E80FF91FEC5EF94F528341832FBF64E6B6
:1038A00070E080E090E00E9425036DEC71E0C101C2
:1038B0000E94F323892BC1F568ED71E08BE695E05A
:1038C0000E94550BC2010E94591EBC01990F880B22
:1038D000990B0E943D0A62EF71E08BE695E00E9431
:1038E000550BC2010E94591E8E3008F08E50877011
:1038F000806480937C0080917A00806480937A0059
:1039000080917A0086FDFCCF6091780070917900FB
:10391000072E000C880B990B0E943D0A6EE571E0A2
:103920008BE695E00E94E8096AED71E0C1010E9412
:10393000F323892B61F5C2010E94591E60E00E94A9
:10394000CF0266EE71E08BE695E00E94550BC20156
:103950000E94591EBC01990F880B990B0E943D0AC9
:1039600062EF71E08BE695E00E94550BC2010E9468
:10397000591E0E942602BC01990F880B990B0E94C8
:103980003D0A6EE571E08BE695E00E94E80968EE7D
:1039900071E0C1010E94F323892B09F04CC0C301DF
:1039A0000E94591E182FC2010E94591E809345067D
:1039B0001093460660E00E94CF0261E080914606C7
:1039C0000E94CF0260E0809146060E944F020E9452
:1039D0007D0285E00E94AB078DEE98E9ACE1BAEB81
:1039E00080934C0690934D06A0934E06B0934F06DD
:1039F0001AE0C12CD12C76010E9452079B01AC0128
:103A0000C701B6010E946A206B017C011150A1F729
:103A100020E030E040E251E40E94D6200E9448219C
:103A2000609348067093490680934A0690934B062C
:103A300085E00E94AB076CEE71E0C1010E94F323A8
:103A4000892B69F460EF71E08BE695E00E94550BDD
:103A50008AE00E94AB0750E040E00E94450B64EF13
:103A600071E0C1010E94F323892B09F0BDC0C3019D
:103A70000E94591E8C01C2010E94591E7C0161E006
:103A80000E94CF020115110509F081C060E08E2D62
:103A90000E944F02A9C082E0E8CDEB968EAD9FADAB
:103AA000EB974C01B12CA12C60E072E18AE790E029
:103AB000A50194010E94CF1F69017A0191E0C91A02
:103AC000D108E108F10891E0C114D104A1E0EA06AF
:103AD000F10484F068E478EE81E090E0A5019401BF
:103AE0000E94CF1F69017A01B1E0CB1AD108E10829
:103AF000F10893E0113009F0BECD80918100887FFC
:103B0000892B80938100E9968CAD9DADAEADBFADA4
:103B1000E9972FEF3FEFA901892B8A2B8B2BA9F077
:103B2000EB962EAD3FADEB97220F331FC158DF4F01
:103B3000A881B981CF57D0400E94AE2128EE33E052
:103B400040E050E00E943820A4CDD0928900C0927D
:103B500088002093510530935205409353055093AC
:103B6000540580916F00826080936F00A8CDC09251
:103B7000B30020934D0530934E0540934F0550936D
:103B800050058091700082608093700098CD0F3F47
:103B9000110511F461E07BCFF701FF27ED58FF4FCE
:103BA000E491E33009F44FC048F4E130C9F0E23069
:103BB00009F444C0003811056CF768CFE73009F408
:103BC0004CC0E83009F451C0E430A1F78091800086
:103BD00080628093800010938B0000938A0004C061
:103BE00084B5806884BD07BD60E072E0C1010E94B9
:103BF000F323892B81F4C2010E94591E61E00E94C7
:103C0000CF02C3010E94591E182FC2010E94591EE3
:103C1000612F0E944F0281E08093010180E090E0DB
:103C2000892B11F40C94F5110E945A01882311F488
:103C30000C94F5110E9400000C94F51184B580627B
:103C400084BD08BDD1CF80918000806880938000C2
:103C50001093890000938800C7CF8091B0008068DE
:103C60008093B0000093B300BFCF8091B00080621A
:103C70008093B0000093B400B7CF84E491E09093B8
:103C80006B0680936A0680910803909109038A5617
:103C9000964071F4E0917D06F0917E0690818091CE
:103CA0007F06809589238083109209031092080370
:103CB0000895FC0188279927E89421912032E9F39F
:103CC000293010F02E30C8F32B3241F02D3239F468
:103CD000689404C00E94A31E820F911D219120535D
:103CE0002A30C0F31EF4909581959F4F089549E8BE
:103CF00056E00E947C1E0895FA01A191B0810097C0
:103D000019F41097E1F0CD01DC01CD010D900020F8
:103D100011F4C00113C0FB012191222319F02015D9
:103D2000D9F7F3CFFB012191201519F41E921196BA
:103D300006C02223C1F70D900020A1F7D001FA019F
:103D4000A193B08308957AE0979F902D879F802D4F
:103D5000910D112408950E94ED1E08F481E008954C
:103D6000E89409C097FB3EF4909580957095619515
:103D70007F4F8F4F9F4F9923A9F0F92F96E9BB27CB
:103D80009395F695879577956795B795F111F8CF47
:103D9000FAF4BB0F11F460FF1BC06F5F7F4F8F4FB2
:103DA0009F4F16C0882311F096E911C0772321F0A8
:103DB0009EE8872F762F05C0662371F096E8862F40
:103DC00070E060E02AF09A95660F771F881FDAF797
:103DD000880F9695879597F90895990F0008550FC4
:103DE000AA0BE0E8FEEF16161706E807F907C0F081
:103DF00012161306E407F50798F0621B730B840B89
:103E0000950B39F40A2661F0232B242B252B21F462
:103E100008950A2609F4A140A6958FEF811D811D02
:103E200008950E94241F0C94951F0E94871F38F04C
:103E30000E948E1F20F0952311F00C947E1F0C948D
:103E4000841F11240C94C91F0E94A61F70F3959F14
:103E5000C1F3950F50E0551F629FF001729FBB2781
:103E6000F00DB11D639FAA27F00DB11DAA1F649F1D
:103E70006627B00DA11D661F829F2227B00DA11DD0
:103E8000621F739FB00DA11D621F839FA00D611D56
:103E9000221F749F3327A00D611D231F849F600D77
:103EA000211D822F762F6A2F11249F5750409AF0A0
:103EB000F1F088234AF0EE0FFF1FBB1F661F771F2C
:103EC000881F91505040A9F79E3F510580F00C94F7
:103ED0007E1F0C94C91F5F3FE4F3983ED4F3869590
:103EE00077956795B795F795E7959F5FC1F7FE2B97
:103EF000880F911D9695879597F9089597F99F6773
:103F000080E870E060E008959FEF80EC0895002461
:103F10000A941616170618060906089500240A942E
:103F200012161306140605060895092E0394000CB4
:103F300011F4882352F0BB0F40F4BF2B11F460FF43
:103F400004C06F5F7F4F8F4F9F4F089557FD90586C
:103F5000440F551F59F05F3F71F04795880F97FB4D
:103F6000991F61F09F3F79F0879508951216130607
:103F70001406551FF2CF4695F1DF08C01616170636
:103F80001806991FF1CF869571056105089408956B
:103F9000E894BB2766277727CB0197F90895052E6C
:103FA00097FB1EF400940E94E61F57FD07D00E9465
:103FB000382007FC03D04EF40C94E61F5095409532
:103FC000309521953F4F4F4F5F4F089590958095C5
:103FD000709561957F4F8F4F9F4F08950E945A2093
:103FE000A59F900DB49F900DA49F800D911D11244D
:103FF0000895B7FF0C94EE1F0E94EE1F821B930BD7
:1040000008952F923F924F925F926F927F928F927C
:104010009F92AF92BF92CF92DF92EF92FF920F9357
:104020001F93CF93DF93CDB7DEB7CA1BDB0B0FB661
:10403000F894DEBF0FBECDBF09942A88398848881E
:104040005F846E847D848C849B84AA84B984C884B4
:10405000DF80EE80FD800C811B81AA81B981CE0FAB
:10406000D11D0FB6F894DEBF0FBECDBFED01089590
:10407000A1E21A2EAA1BBB1BFD010DC0AA1FBB1F6C
:10408000EE1FFF1FA217B307E407F50720F0A21BDE
:10409000B30BE40BF50B661F771F881F991F1A944B
:1040A00069F760957095809590959B01AC01BD0175
:1040B000CF010895A29FB001B39FC001A39F700DCF
:1040C000811D1124911DB29F700D811D1124911D20
:1040D00008955058BB27AA270E9481200C94951F51
:1040E0000E94871F38F00E948E1F20F039F49F3FF6
:1040F00019F426F40C94841F0EF4E095E7FB0C945D
:104100007E1FE92F0E94A61F58F3BA176207730794
:104110008407950720F079F4A6F50C94C81F0EF4D7
:10412000E0950B2EBA2FA02D0B01B90190010C01C7
:10413000CA01A0011124FF27591B99F0593F50F4DF
:10414000503E68F11A16F040A22F232F342F442737
:10415000585FF3CF469537952795A795F04053952F
:10416000C9F77EF41F16BA0B620B730B840BBAF0FF
:104170009150A1F0FF0FBB1F661F771F881FC2F76A
:104180000EC0BA0F621F731F841F48F4879577957E
:104190006795B795F7959E3F08F0B0CF9395880F38
:1041A00008F09927EE0F9795879508950E94EA20C9
:1041B0000C94951F0E948E1F58F00E94871F40F09C
:1041C00029F45F3F29F00C947E1F51110C94C91FF4
:1041D0000C94841F0E94A61F68F39923B1F3552302
:1041E00091F3951B550BBB27AA276217730784070A
:1041F00038F09F5F5F4F220F331F441FAA1FA9F3A0
:1042000035D00E2E3AF0E0E832D091505040E6958D
:10421000001CCAF72BD0FE2F29D0660F771F881FEE
:10422000BB1F261737074807AB07B0E809F0BB0BE1
:10423000802DBF01FF2793585F4F3AF09E3F5105F5
:1042400078F00C947E1F0C94C91F5F3FE4F3983EF6
:10425000D4F3869577956795B795F7959F5FC9F7DE
:10426000880F911D9695879597F90895E1E0660F5F
:10427000771F881FBB1F621773078407BA0720F0D8
:10428000621B730B840BBA0BEE1F88F7E095089541
:104290000E944F216894B1110C94C91F08950E9487
:1042A000AE1F88F09F5798F0B92F9927B751B0F0FB
:1042B000E1F0660F771F881F991F1AF0BA95C9F7AA
:1042C00014C0B13091F00E94C81FB1E008950C9461
:1042D000C81F672F782F8827B85F39F0B93FCCF314
:1042E000869577956795B395D9F73EF49095809527
:1042F000709561957F4F8F4F9F4F08950E94ED1EDF
:1043000008F48FEF08950E94ED1E880B990B089515
:10431000991B79E004C0991F961708F0961B881F17
:104320007A95C9F78095089597FB072E16F40094A7
:1043300007D077FD09D00E94F42107FC05D03EF498
:10434000909581959F4F0895709561957F4F089541
:10435000EE0FFF1F0590F491E02D09940E945A2062
:10436000B7FF0895821B930B0895002E083090F03C
:10437000982F872F762F652F542F432F322F2227E8
:104380000850F4CF220F331F441F551F661F771F9D
:10439000881F991F0A95B2F7002D089597FD109474
:1043A000002E083098F00850232F342F452F562F19
:1043B000672F782F892F912DF4CF15949795879596
:1043C0007795679557954795379527950A95AAF755
:1043D0001124002D08952A0D3B1D4C1D5D1D6E1DE1
:1043E0007F1D801F911F0895AA1BBB1B51E107C0B1
:1043F000AA1FBB1FA617B70710F0A61BB70B881F75
:10440000991F5A95A9F780959095BC01CD01089503
:104410000F931F93CF93DF938230910510F482E0C6
:1044200090E0E0918D06F0918E0630E020E0B0E063
:10443000A0E0309799F42115310509F44AC0281BF2
:10444000390B24303105D8F58A819B8161157105BE
:1044500089F1FB0193838283FE0111C04081518168
:104460000281138148175907E0F04817590799F45A
:10447000109761F012960C93129713961C93329634
:10448000CF01DF91CF911F910F91089500938D0679
:1044900010938E06F4CF2115310551F042175307C2
:1044A00038F0A901DB019A01BD01DF01F801C1CF9C
:1044B000EF01F9CF90938E0680938D06CDCFFE014C
:1044C000E20FF31F8193919322503109398328839E
:1044D000D7CF20918B0630918C06232B41F420916D
:1044E00004013091050130938C0620938B062091B6
:1044F0000201309103012115310541F42DB73EB77A
:104500004091060150910701241B350BE0918B0669
:10451000F0918C06E217F307A0F42E1B3F0B28172F
:10452000390778F0AC014E5F5F4F2417350748F02C
:104530004E0F5F1F50938C0640938B06819391938F
:104540009FCFF0E0E0E09CCFCF93DF930097E9F0BE
:10455000FC01329713821282A0918D06B0918E06D3
:10456000ED0130E020E01097A1F420813181820F2D
:10457000931F20918B0630918C062817390709F07C
:1045800061C0F0938C06E0938B06DF91CF91089584
:10459000EA01CE17DF07E8F54A815B819E014115EC
:1045A0005105B1F7E901FB83EA8349915991C40FA1
:1045B000D51FEC17FD0761F4808191810296840F6D
:1045C000951FE90199838883828193819B838A83E4
:1045D000F0E0E0E012968D919C9113970097B9F569
:1045E0002D913C911197CD010296820F931F20913E
:1045F0008B0630918C062817390739F6309751F51C
:1046000010928E0610928D06B0938C06A0938B06A6
:10461000BCCFD383C28340815181840F951FC817BB
:10462000D90761F44E5F5F4F88819981480F591F08
:10463000518340838A819B81938382832115310535
:1046400009F0B0CFF0938E06E0938D069ECFFD016A
:10465000DC01C0CF13821282D7CFB0E0A0E0E3E349
:10466000F3E20C9403208C01009751F4CB010E94DB
:1046700008228C01C801CDB7DEB7E0E10C941F2001
:10468000FC01E60FF71F9C0122503109E217F307E6
:1046900008F49DC0D901CD91DC911197C617D707B9
:1046A00098F0C530D10530F3CE01049786179707EF
:1046B00008F3C61BD70B2297C193D1936D937C93BC
:1046C000CF010E94A422D6CF5B01AC1ABD0A4C01D7
:1046D0008C0E9D1EA0918D06B0918E06512C412C02
:1046E000F12CE12C109731F580918B0690918C067E
:1046F0008815990509F05CC04616570608F058C0A1
:104700008091020190910301009741F48DB79EB70B
:104710004091060150910701841B950BE817F9079A
:1047200008F055C0F0938C06E0938B06F901718375
:104730006083A0CF8D919C91119712966C901297E7
:1047400013967C901397A815B90559F56C0142E0B2
:10475000C40ED11CCA14DB0420F1AC014A195B0958
:10476000DA011296159780F062827382518340833A
:10477000D9016D937C93E114F10471F0D701139684
:10478000FC93EE93129776CF22968C0F9D1FF90122
:1047900091838083F301EFCFF0938E06E0938D0633
:1047A00069CF4816590608F42C017D01D3019ACF30
:1047B000CB010E9408227C01009749F0AE01B801AC
:1047C0000E94EA23C8010E94A422870153CF10E06F
:1047D00000E050CFFB01DC0102C001900D9241507E
:1047E0005040D8F70895FB01DC018D9101908019AC
:1047F0000110D9F3990B0895FB01DC0101900D9292
:104800000020E1F7089510E0C3E6D0E004C0FE0107
:104810000E94A8212196C436D107C9F7F894FFCF8A
:10482000FF0100008F0680000000400014005400CB
:10483000000000009001F0001D01DD014E012C017F
:104840004001000000001106E40527077003DD05A4
:10485000CA05BB05000000009309F00027075405B6
:10486000000000007103F00027077003CD03E3038D
:1048700058036E616E00696E66006F7666000D0A01
:104880000032003300350036003700380031300088
:1048900031310023007665720031313230333239E4
:1048A000006D617873686F7700706D006C00636CE9
:1048B0006561720073680077730048432D5352306E
:1048C000340048432C0064687431315365740064CB
:1048D000687431315265616400746F6E65506C614B
:1048E0007900736572766F577269746500616E61E5
:1048F0006C6F675265616400410064696769746147
:104900006C5265616400440068783000687831005A
:1049100068783A00616E616C6F6757726974650000
:0E4920006469676974616C57726974650000A0
:00000001FF
