:100000000C9464000C948C000C948C000C946E0A7C
:100010000C946E0A0C946E0A0C948C000C9470096B
:100020000C948C000C948C000C948C000C94050C9B
:100030000C948C000C948C000C948C000C948C0010
:100040000C94240A0C948C000C94F2090C94CC09A6
:100050000C948C000C948C000C948C000C948C00F0
:100060000C94E60A0C948C00000000002400270089
:100070002A0002000000080002010000030407003B
:1000800000000000000000000000002300260029FE
:100090000000000000250028002B000404040404D4
:1000A0000404040202020202020303030303030125
:1000B00002040810204080010204081020010204FC
:1000C00008102000060D631811241FBECFEFD8E0E2
:1000D000DEBFCDBF11E0A0E0B1E0E6EEF9E302C083
:1000E00005900D92A03FB107D9F724E0A0EFB1E051
:1000F00001C01D92A337B207E1F710E0C3E6D0E0DC
:1001000004C02197FE010E94B21BC236D107C9F775
:100110000E94030E0C94E61C0C94000008950895B0
:10012000AF92BF92CF92DF92EF92FF920F931F9305
:10013000CF93DF936C017B018B01040F151FEB0143
:100140005E01AE18BF08C017D10759F06991D601FA
:10015000ED91FC910190F081E02DC6010995892B6C
:1001600079F7C501DF91CF911F910F91FF90EF902B
:10017000DF90CF90BF90AF900895FC01538D448DD8
:10018000252F30E0842F90E0821B930B541710F042
:10019000CF96089501970895FC01918D828D98174F
:1001A00061F0A28DAE0FBF2FB11D5D968C91928D27
:1001B0009F5F9F73928F90E008958FEF9FEF089558
:1001C000FC01918D828D981731F0828DE80FF11D21
:1001D000858D90E008958FEF9FEF0895FC01918D3C
:1001E000228D892F90E0805C9F4F821B91098F7335
:1001F0009927089583E693E00E94EE0021E0892B81
:1002000009F420E0822F089580E090E0892B29F006
:100210000E94FA0081110C9400000895FC01A48D45
:10022000A80FB92FB11DA35ABF4F2C91848D90E018
:1002300001968F739927848FA689B7892C93A089FB
:10024000B1898C91837080648C93938D848D981385
:1002500006C00288F389E02D80818F7D8083089518
:10026000EF92FF920F931F93CF93DF93EC0181E006
:10027000888F9B8D8C8D98131AC0E889F9898081AD
:1002800085FF15C09FB7F894EE89FF896083E889E0
:10029000F98980818370806480839FBF81E090E0D2
:1002A000DF91CF911F910F91FF90EF900895F62E5F
:1002B0000B8D10E00F5F1F4F0F731127E02E8C8DF9
:1002C0008E110CC00FB607FCFACFE889F98980813E
:1002D00085FFF5CFCE010E940E01F1CFEB8DEC0F23
:1002E000FD2FF11DE35AFF4FF0829FB7F8940B8F5B
:1002F000EA89FB8980818062CFCFCF93DF93EC01C5
:10030000888D8823B9F0AA89BB89E889F9898C91FD
:1003100085FD03C0808186FD0DC00FB607FCF7CFB9
:100320008C9185FFF2CF808185FFEDCFCE010E94B9
:100330000E01E9CFDF91CF910895833081F028F449
:10034000813099F08230A9F008958730A9F0883083
:10035000C9F08430B1F4809180008F7D03C080911A
:1003600080008F7780938000089584B58F7784BD57
:10037000089584B58F7DFBCF8091B0008F778093F7
:10038000B00008958091B0008F7DF9CFCF93DF93B7
:10039000282F30E0F901ED58FF4F8491F901E15524
:1003A000FF4FD491F901E556FF4FC491CC23A1F042
:1003B00081110E949D01EC2FF0E0EE0FFF1FE95725
:1003C000FF4FA591B491EC91ED2381E090E009F409
:1003D00080E0DF91CF91089580E090E0FACF1F9305
:1003E000CF93DF93282F30E0F901ED58FF4F849130
:1003F000F901E155FF4FD491F901E556FF4FC49142
:10040000CC23A9F0162F81110E949D01EC2FF0E062
:10041000EE0FFF1FEF56FF4FA591B4918FB7F894E1
:10042000EC91111108C0D095DE23DC938FBFDF91D2
:10043000CF911F910895DE2BF8CF90910001891381
:100440000BC0E2E7F0E0E4919FEF90930001E13010
:1004500049F028F0E23061F060E00C94EF01109276
:100460006E00FACF90916F009D7F90936F00F4CF54
:10047000909170009D7F9093700091E09093B000F8
:100480009091B100987F94609093B1001092B30066
:10049000E3CFCF93DF9390E0FC01E155FF4F249130
:1004A00085569F4FFC0184918823D1F090E0880FFE
:1004B000991FFC01E859FF4FA591B491FC01EF563B
:1004C000FF4FC591D49161110EC09FB7F8948C91E4
:1004D000E22FE0958E238C932881E223E8839FBF4F
:1004E000DF91CF9108958FB7F894EC91E22BEC93C4
:1004F0008FBFF6CF3FB7F8948091E4029091E50268
:10050000A091E602B091E70226B5A89B05C02F3F57
:1005100019F00196A11DB11D3FBFBA2FA92F982F29
:100520008827BC01CD01620F711D811D911D42E024
:10053000660F771F881F991F4A95D1F708958F92EC
:100540009F92AF92BF92CF92DF92EF92FF926B0198
:100550007C010E947A024B015C01C114D104E104C8
:10056000F104B9F00E947A02681979098A099B0995
:10057000683E73408105910580F321E0C21AD108DD
:10058000E108F10888EE880E83E0981EA11CB11CDA
:10059000E4CFFF90EF90DF90CF90BF90AF909F900F
:1005A0008F9008952091F2023091F30228173907B5
:1005B00071F49091F0028091F102981741F0E0916E
:1005C000F002F0E0ED55FD4F808190E008958FEF4F
:1005D0009FEF08950895EF92FF920F931F93CF938B
:1005E000DF93DC015C96ED90FC905D97E114F104E3
:1005F00079F481E090E013969C938E93129790E0AB
:1006000080E0DF91CF911F910F91FF90EF900895BF
:100610005196ED91FC91529750968C915097982F4E
:1006200090950FB75E962C915E97122F127021FD58
:100630006095F8942081112319F1282B2083E7017C
:100640002197F1F728E0462F50E0308160FF1AC073
:10065000382B3083E7012197F1F7BA01759567953B
:10066000215089F7112381F08081892380830FBF76
:100670005C968D919C910197F1F781E090E0C1CF5C
:100680002923DCCF3923E5CF9081892BEFCF20912F
:10069000F2023091F3022817390771F48091F102C8
:1006A0002091F00290E0805C9F4F821B910960E4F2
:1006B00070E00E94831B089590E080E008952091EF
:1006C000F2023091F30228173907B9F49091F00241
:1006D0008091F102981789F0E091F002F0E0ED5579
:1006E000FD4F80812091F00230E02F5F3F4F2F734C
:1006F00033272093F00290E008958FEF9FEF089545
:1007000008958F929F92AF92BF92CF92DF92EF9215
:10071000FF92CF93DF93FC014A01AA24BB24C32E8E
:10072000D42EE52EFF24DC2DC22F8085982D882322
:1007300091F0C82FD0E0C89DD001C99DB00DD89DC3
:10074000B00D11249B2F8C9D60011124DD2D829F03
:1007500090011124C32FA685218532858385A81396
:1007600021C0AB01440F551F640F751F620F731F2B
:10077000A385A60FB72FB11D9C93A485A60FB72FF5
:10078000B11DDC938585680F711DFB01C083DF916E
:10079000CF91FF90EF90DF90CF90BF90AF909F9060
:1007A0008F900895660F771F660F771F620F731F74
:1007B000A60FB72FB11D1C92DBCFCF92DF92EF9225
:1007C000FF920F931F93CF93DF93CDB7DEB7299797
:1007D0000FB6F894DEBF0FBECDBF8C01DC011996B9
:1007E0008D919C91892B09F473C00E947A02F801C3
:1007F000C784D088E188F2886C157D058E059F0539
:1008000020F46787708B818B928BF801C784D08826
:10081000E188F2886C197D098E099F096C3271405C
:100820008105910510F3F894D80114968D919C914F
:1008300015979A8389831996ED91FC917F01BFEFFB
:10084000EB1AFB0A80818987F80190810388F4897B
:10085000E02DD80155968C91992309F448C09081D8
:10086000982B98879081809589238F838F818C83A3
:1008700088E08B8358856F8149853B812C818981F4
:100880009A81D701508347FD252F3A952083262F43
:1008900039F0441F00C000006083000000C0F2CFA8
:1008A00038E04D9160830000019761F7D8015496BC
:1008B000FC93EE93539749873B832C839A838983D8
:1008C00078940E947A02F8016787708B818B928BF3
:1008D00029960FB6F894DEBF0FBECDBFDF91CF9142
:1008E0001F910F91FF90EF90DF90CF90089590812E
:1008F000982B98879081809589238F838F818E8311
:1009000088E08D8358856F8149853D812E8189815D
:100910009A81D701508347FD252F00C000C0208356
:1009200000C000C000C000C000C060830000262FCF
:100930003A9541F0441F000000C000C000C000C054
:1009400000C0E8CF38E04D9100C0608300C001973F
:1009500009F7D8015496FC93EE93539749873D834A
:100960002E83ACCFCF93DF93EC018E819F8197FDD7
:1009700007C061E00E94490260E08E810E94EF01A1
:1009800081E08983DF91CF91089520913202260F73
:100990003327331F21323105ECF420917B02FC0117
:1009A00090E080E0243069F082E00895A091320266
:1009B0002191AC014E5E5D4FA40FB52FB11D2C935C
:1009C0000196861798F380913202680F6093320285
:1009D00080E0089581E0089510927B0281E0809389
:1009E0007A021092550261E082E10E94EF0161E01B
:1009F00083E10E94EF01E9EBF0E080818E7F80834C
:100A000080818D7F808388E48093B80085E4809323
:100A1000BC000895CF93DF9391E090931102882357
:100A2000B9F0C091B800D091BA008091BC008A7B27
:100A30008093BC0060E082E10E94EF0160E083E10E
:100A40000E94EF010E94EC04D093BA00C093B8005A
:100A5000DF91CF910895E091EF028091EE02E817C7
:100A600030F4F0E0EF50FE4F808190E008958FEF7A
:100A70009FEF08959091EF028091EE022FEF3FEFEC
:100A8000981748F4E92FF0E0EF50FE4F208130E056
:100A90009F5F9093EF02C90108958091EE029091BB
:100AA000EF02891B990B0895CF92DF92EF92FF928C
:100AB0000F931F93CF93DF937C01CB018A01209189
:100AC0008102222389F0EB016B01C40ED51ECC15E7
:100AD000DD0569F06991D701ED91FC910190F081FC
:100AE000E02DC7010995F3CF642F0E94C504C8010A
:100AF000DF91CF911F910F91FF90EF90DF90CF90FA
:100B00000895CF93DF931F92CDB7DEB7698320910D
:100B100081022223F9F02091EC02203258F021E0EA
:100B200030E0FC013383228390E080E00F90DF917E
:100B3000CF9108958091ED02E82FF0E0EE57FD4F40
:100B4000998190838F5F8093ED028093EC0281E026
:100B500090E0ECCF61E0CE0101960E94C504F7CF92
:100B6000CF92DF92EF92FF920F931F93CF93DF9379
:100B7000FC01C48121E020938102C093A202109263
:100B8000ED021092EC028385682B80E094E00E94D5
:100B90008105D091EC02D13208F092C00E947A0215
:100BA0006B017C0180917B02811165C082E08093A2
:100BB0007B0281E080937A028FEF8093790210921A
:100BC0007802D0937702A2E8B2E0E7E5F2E080E0B5
:100BD000D81385C01092560280915602CC0FC82BB4
:100BE000C093560280915502813009F07CC010926A
:100BF00055020E947A026B017C018091560280931B
:100C0000BB0080917D0290917E02A0917F02B09105
:100C10008002892B8A2B8B2B99F00E947A020091FB
:100C20007D0210917E0220917F02309180026C192A
:100C30007D098E099F090617170728073907E0F174
:100C40008091BC0083FDD9CF85EC8093BC000E94CD
:100C50007A026B017C0180917B02823009F445C0ED
:100C6000809179028F3F61F180917902803241F168
:100C70008091790225C080917D0290917E02A091A1
:100C80007F02B0918002892B8A2B8B2B09F48ACFAB
:100C90000E947A0200917D0210917E0220917F02D3
:100CA000309180026C197D098E099F09061717077C
:100CB0002807390708F076CF80917C020E940A0548
:100CC0001092ED021092EC0210928102DF91CF910E
:100CD0001F910F91FF90EF90DF90CF9008959D911D
:100CE00091938F5F75CF85EEB0CF80917D0290910B
:100CF0007E02A0917F02B0918002892B8A2B8B2BE0
:100D000009F4A9CF0E947A0200917D0210917E021F
:100D100020917F02309180026C197D098E099F0914
:100D2000061717072807390708F095CFC5CF90E0B9
:100D300080E008950F931F93CF938C01C62F0E94DC
:100D4000B0056C2F6460C8010E94B0056C2F6B7FEA
:100D5000C8010E94B00583EC90E00197F1F7CF91B4
:100D60001F910F9108950F931F93CF93DF938C01E1
:100D7000D62FC42F607F642B0E949A0680E1D89FF3
:100D8000B00111246C2BC801DF91CF911F910F91FD
:100D90000C949A06CF93DF93823028F09091470409
:100DA00098609093470480934A0462E370E080E087
:100DB00090E00E949F0260914D0482E494E00E94C2
:100DC000B00568EE73E080E090E00E949F0260E36F
:100DD00082E494E00E949A06CBE4D6E4CE01019727
:100DE000F1F760E382E494E00E949A062197F1F71C
:100DF00060E382E494E00E949A0683E592E0019722
:100E0000F1F760E282E494E00E949A066091470460
:100E1000606240E082E494E00E94B30684E0809344
:100E2000480440E06CE082E494E00E94B30640E0B5
:100E300061E082E494E00E94B306CBE3DFE1CE01FF
:100E40000197F1F782E08093490440E066E082E494
:100E500094E00E94B30640E062E082E494E00E94E5
:100E6000B3062197F1F7DF91CF910895CF93DF93E8
:100E7000CDB7DEB728970FB6F894DEBF0FBECDBF53
:100E800098E0E8E0F1E0DE01119601900D929A956C
:100E9000E1F790914A04981708F48FEF90E0880FDB
:100EA000991F21E030E02C0F3D1F820F931FFC01A2
:100EB0006081606840E082E494E028960FB6F89480
:100EC000DEBF0FBECDBFDF91CF910C94B30641E0E2
:100ED0000E94B30681E090E008950F931F93CF9393
:100EE000DF93EC01162F072F198218861F86188AA8
:100EF000198A1A8A81E08E878B871C8692E09D87EB
:100F0000888384E290E09D838C830E94B81B9A873B
:100F10008987009779F124E2FC0111922A95E9F77B
:100F20008CE090E09B838A831E830F8389818823D2
:100F300041F061E0812F0E94490260E0812F0E9410
:100F4000EF01812F902FFC01E556FF4FE491F0E077
:100F5000EE0FFF1FEF56FF4F259134913C8B2B8BEB
:100F6000FC01E155FF4FE491ED8BDF91CF911F9193
:100F70000F9108951D821C821B821A82D5CFFB011E
:100F800001900020E9F73197AF01461B570BDC01B8
:100F9000ED91FC910280F381E02D09948F929F9254
:100FA000AF92BF920F931F93CF93DF93CDB7DEB76E
:100FB000A1970FB6F894DEBF0FBECDBF19A2423085
:100FC00008F44AE08E010F5D1F4F842E912CB12C46
:100FD000A12CA50194010E94271AE62FB901CA018C
:100FE000EA3004F5E05DD801EE938D01232B242B2C
:100FF000252B79F790E080E0109729F0BD0183E67A
:1010000093E00E94BF07A1960FB6F894DEBF0FBE13
:10101000CDBFDF91CF911F910F91BF90AF909F9067
:101020008F900895E95CDFCFCF92DF92EF92FF922D
:10103000CF93DF9397FF1BC06B017C016DE283E6CA
:1010400093E00E943001EC0166277727CB016C19F1
:101050007D098E099F094AE00E94CE078C0F9D1FD3
:10106000DF91CF91FF90EF90DF90CF9008954AE00D
:10107000DF91CF91FF90EF90DF90CF900C94CE074F
:10108000CF93DF93BC01990F880B990B0E94140832
:10109000EC0162E571E083E693E00E94BF078C0FEC
:1010A0009D1FDF91CF9108954F925F926F927F9233
:1010B0008F929F92AF92BF92CF92DF92EF92FF9268
:1010C0000F931F93CF936B017C01742EAC019B0196
:1010D0000E94721B65E571E0811126C0460157012F
:1010E000E894B7F82FEF3FEF4FE75FE7C501B40192
:1010F0000E94721B81110CC02FEF3FEF4FE75FE79B
:10110000C501B4010E94D11869E571E0181664F0B8
:101110002FEF3FEF4FE75FE4C701B6010E946D1B61
:101120001816ACF46DE571E083E693E0CF911F9162
:101130000F91FF90EF90DF90CF90BF90AF909F9076
:101140008F907F906F905F904F900C94BF072FEF20
:101150003FEF4FE75FECC701B6010E94D11887FD52
:10116000E1CF20E030E0A901C701B6010E94D1180B
:1011700010E000E087FF0AC06DE283E693E00E9482
:1011800030018C01F7FAF094F7F8F094C0E060E0D9
:1011900070E080E09FE37C1641F020E030E040E228
:1011A00051E40E94C51ACF5FF6CFA70196010E94B5
:1011B000591A2B013C010E943E1B4B015C014AE085
:1011C0000E94CE077C01E00EF11ECC23C1F1C501C7
:1011D000B4010E94D6189B01AC01C301B2010E9468
:1011E000581A4B015C016EE283E693E00E943001E5
:1011F000E80EF91EC15018F120E030E040E251E461
:10120000C501B4010E9437192B013C010E943E1B0D
:101210004B01B12CA12C4AE0C501B4010E94CE07BC
:10122000E80EF91EC501B4010E94D6189B01AC015D
:10123000C301B2010E94581A4B015C01DBCFC70108
:10124000CF911F910F91FF90EF90DF90CF90BF90C3
:10125000AF909F908F907F906F905F904F90089588
:101260006115710511F00C94BF0790E080E00895BE
:1012700085ED8093BC0080917D0290917E02A091CB
:101280007F02B09180020796A11DB11D23E0B695A3
:10129000A795979587952A95D1F72091BC0024FDB5
:1012A00003C010927B02089540917D0250917E020E
:1012B00060917F0270918002452B462B472B69F38A
:1012C0000097A105B10541F025E32A95F1F700004B
:1012D0000197A109B109E1CF80917C020C940A0524
:1012E0001F920F920FB60F9211242F933F934F939B
:1012F0005F936F937F938F939F93AF93BF93EF937E
:10130000FF938091310390913203A0913303B09108
:101310003403892B8A2B8B2BD1F190912C03E091F4
:101320002D03F0912E0380818927808380913103E2
:1013300090913203A0913303B0913403181619062B
:101340001A061B069CF48091310390913203A09100
:101350003303B09134030197A109B109809331039C
:1013600090933203A0933303B0933403FF91EF9132
:10137000BF91AF919F918F917F916F915F914F91AD
:101380003F912F910F900FBE0F901F901895809155
:1013900000010E941D02EACF1F920F920FB60F921A
:1013A00011242F933F934F935F936F937F938F936A
:1013B0009F93AF93BF93EF93FF9383E693E00E94D5
:1013C0000E01FF91EF91BF91AF919F918F917F910E
:1013D0006F915F914F913F912F910F900FBE0F90A2
:1013E0001F9018951F920F920FB60F9211242F93F2
:1013F0008F939F93EF93FF93E0917303F0917403A6
:101400008081E0917903F0917A0382FD1BC0908185
:1014100080917C038F5F8F7320917D03821741F051
:10142000E0917C03F0E0ED59FC4F958F80937C03B5
:10143000FF91EF919F918F912F910F900FBE0F9081
:101440001F9018958081F4CF1F920F920FB60F92C4
:1014500011242F933F938F939F93AF93BF938091CA
:10146000280390912903A0912A03B0912B03309176
:10147000E30223E0230F2D3758F50196A11DB11D7E
:101480002093E3028093280390932903A0932A03D7
:10149000B0932B038091E4029091E502A091E602C3
:1014A000B091E7020196A11DB11D8093E4029093D3
:1014B000E502A093E602B093E702BF91AF919F913E
:1014C0008F913F912F910F900FBE0F901F90189505
:1014D00026E8230F0296A11DB11DD2CF1F920F92B5
:1014E0000FB60F9211242F933F934F935F936F93F7
:1014F0007F938F939F93AF93BF93EF93FF93E0916D
:10150000F202F091F302309749F0A685B785858500
:10151000968D91FF14C09C918923A1F4FF91EF91C6
:10152000BF91AF919F918F917F916F915F914F91FB
:101530003F912F910F900FBE0F901F9018959C9187
:10154000892361F7A389B4899C9185898095892332
:101550008C93868997890197F1F7608D718DA685A7
:10156000B785558538E020E0CB010197F1F7822F50
:1015700090E095958795282F4C91452309F0206898
:10158000315091F7868D81FD20958091F10290E098
:1015900001968F7399273091F002381799F0A09136
:1015A000F102B0E0AD55BD4F2C938093F102828DD6
:1015B000938D0197F1F7A389B4898C919589892B33
:1015C0008C93ACCF868D8160868FF1CF1F920F9266
:1015D0000FB60F9211242F933F934F935F936F9306
:1015E0007F938F939F93AF93BF93EF93FF938091DC
:1015F000B900887F803609F44AC0F0F5883209F4D2
:10160000A7C018F5803109F49BC0B8F4882309F409
:10161000F9C0883009F494C0FF91EF91BF91AF9168
:101620009F918F917F916F915F914F913F912F91FA
:101630000F900FBE0F901F901895883109F488C045
:10164000803251F78093790214C0803409F49DC030
:1016500040F48033B9F38833F9F68093790285EC4E
:10166000B0C0803509F485C0883509F496C0883447
:1016700099F60E943809D0CF883909F48CC038F522
:10168000883729F050F4883611F0803729F683E046
:1016900080937B021092540257C0883809F47BC0B3
:1016A000803919F0803809F0B7CF80915402803228
:1016B00008F071C0E091540281E08E0F80935402D3
:1016C0008091BB00F0E0EC5CFD4F80833DC0803B2F
:1016D00039F0E0F4803A09F479C0883A09F09CCFF7
:1016E00084E080937B021092330210923202E091E8
:1016F000EA02F091EB0209958091320281110FC04C
:1017000081E0809332021092120209C0803C09F4F9
:10171000A6CF883C09F4A3CF883B09F07DCFE091A8
:10172000330281E08E0F80933302F0E0EE5EFD4FD6
:1017300080818093BB00909133028091320229C056
:10174000809156028093BB0085EC8093BC0064CFEF
:101750009091780280917702981758F5E09178027D
:1017600081E08E0F80937802F0E0E95AFD4F80818E
:10177000E9CFE091780281E08E0F8093780280912A
:10178000BB00F0E0E95AFD4F808390917802809190
:1017900077029817C8F285E8D8CFE091780281E007
:1017A0008E0F809378028091BB00F0E0E95AFD4FE4
:1017B000808380917A0281115CCF81E08093550211
:1017C00084EA8093BC0010927B0226CF85EC809344
:1017D000BC0010927B0280915402803230F4E09180
:1017E0005402F0E0EC5CFD4F10826091540270E016
:1017F000E091E802F091E90284E392E00995109209
:1018000054020ACF1092790234CF1F920F920FB672
:101810000F9211242F933F934F935F936F937F9376
:101820008F939F93AF93BF93CF93DF93EF93FF93E8
:101830008091F001C0913004D0E087FF24C0109265
:101840008500109284008091F0018F5F8093F001F9
:101850008091F001082E000C990B8C179D0724F441
:101860008091F0018C30C4F18091840090918500CA
:10187000049680349C4908F47AC080918400909149
:101880008500049676C08091F001082E000C990B1B
:101890008C179D07C4F6E091F0018E2FEE0F990B87
:1018A000FC01EE0FFF1FE80FF91FE45FFB4F808183
:1018B00086FFC9CFE091F0018E2FEE0F990BFC014E
:1018C000EE0FFF1FE80FF91FE45FFB4F808160E020
:1018D0008F730E94EF01B7CF209184003091850073
:1018E000E091F0018E2FEE0F990BFC01EE0FFF1F20
:1018F000E80FF91FE45FFB4F81819281820F931FF4
:101900009093890080938800E091F0018E2FEE0F74
:10191000990BFC01EE0FFF1FE80FF91FE45FFB4F6F
:10192000808186FF11C0E091F0018E2FEE0F990BA0
:10193000FC01EE0FFF1FE80FF91FE45FFB4F8081F2
:1019400061E08F730E94EF01FF91EF91DF91CF91E2
:10195000BF91AF919F918F917F916F915F914F91C7
:101960003F912F910F900FBE0F901F90189580E41C
:101970009CE990938900809388008FEF8093F00119
:10198000E3CFCF92DF92EF92FF920F931F93E82F56
:10199000F92F05C0015011092109310961F1908128
:1019A00096239417B9F305C0015011092109310993
:1019B00011F1908196239413F7CFC12CD12CE12CF7
:1019C000F12C0AC08FEFC81AD80AE80AF80A0C15D9
:1019D0001D052E053F0579F080818623841791F33C
:1019E0006C2D7D2D8E2D9F2D1F910F91FF90EF90CF
:1019F000DF90CF90089560E070E080E090E01F916C
:101A00000F91FF90EF90DF90CF90089510926603B2
:101A10001092650388EE93E0A0E0B0E08093670346
:101A200090936803A0936903B0936A0324E131E0C3
:101A3000309364032093630325EC30E0309370030C
:101A400020936F0324EC30E03093720320937103F2
:101A500020EC30E0309374032093730321EC30E0EA
:101A6000309376032093750322EC30E030937803B3
:101A70002093770326EC30E030937A0320937903A8
:101A800010927C0310927D0310927E0310927F03CC
:101A900010920304109202048093040490930504AE
:101AA000A0930604B093070426E231E030930104CA
:101AB0002093000410925104109250048093520419
:101AC00090935304A0935404B093550484E491E09C
:101AD00090934F0480934E04109265041092640416
:101AE00010926704109266041092690410926804C0
:101AF00010926B0410926A0460916C046E7F6D7F8B
:101B000060936C046695617081E0682783E00E94B1
:101B1000EF0161E083E00E944902E2EBF0E0E49132
:101B2000E0935E04EEE9F0E0E491F0E0EE0FFF1FD9
:101B3000EF56FF4F859194919093600480935F04DA
:101B400060E082E00E94490280916C0481FD04C043
:101B500061E082E00E94EF0182E080935A04E1EBB1
:101B6000F0E0E491E0935B04EDE9F0E0E491F0E073
:101B7000EE0FFF1FE957FF4F2591349130935D041D
:101B800020935C04109245041092440428E331E051
:101B9000309343042093420497E29093460490E1EB
:101BA00090934B0480934C0410924D04109239048E
:101BB00010923E0410923F0410924004109241048F
:101BC00010923A0410923B0410923C0410923D048F
:101BD000809130048C3098F491E0980F9093300409
:101BE0008093310490E0FC01EE0FFF1FE80FF91F16
:101BF000E45FFB4F88EB9BE09283818308958FEF36
:101C0000809331040895CF93DF93CDB7DEB7CC55E1
:101C1000D1090FB6F894DEBF0FBECDBF789484B55E
:101C2000826084BD84B5816084BD85B5826085BDD8
:101C300085B5816085BD80916E00816080936E0066
:101C40001092810080918100826080938100809158
:101C50008100816080938100809180008160809309
:101C600080008091B10084608093B1008091B000C9
:101C700081608093B00080917A00846080937A00C4
:101C800080917A00826080937A0080917A008160EE
:101C900080937A0080917A00806880937A00109215
:101CA000C100E0917303F091740382E08083E091BE
:101CB0006F03F09170031082E0917103F091720351
:101CC00080E1808310927B03E0917703F0917803A9
:101CD00086E08083E0917503F091760380818061D6
:101CE0008083E0917503F091760380818860808322
:101CF000E0917503F0917603808180688083E091A4
:101D00007503F091760380818F7D80831092EF02BE
:101D10001092EE021092ED021092EC020E94EC047E
:101D20008EE890E09093EB028093EA028FE890E0D7
:101D30009093E9028093E8021092470480914C044A
:101D40000E94CA0682E00E94CA0688E080934D0481
:101D500060E082E494E00E94B00510926904109261
:101D60006804109267041092660410926504109241
:101D700064048DE991E090936B0480936A049091E0
:101D80005A04963108F047C02DEB30E030936504DB
:101D9000209364042BE931E03093670420936604B8
:101DA0002CE231E0309369042093680420916800AC
:101DB00084E0983048F031E09E3008F430E081E073
:101DC00001C0880F3A95EAF7822B809368002DE6D0
:101DD00030E0983050F02BE630E09E3030F02CE6CA
:101DE00030E0963110F030E020E030936204209330
:101DF0006104292F30E0983008F06FC081E001C005
:101E0000880F9A95EAF78093630480916A04909111
:101E10006B040197F1F78091680490916904892B14
:101E200049F1E091F202F091F30224E0EE34F2077E
:101E300009F1309739F0A389B4899C9185898095FF
:101E400089238C9380916C048E7F80936C04109214
:101E5000F1021092F0028EE494E09093F3028093EA
:101E6000F202E0916104F091620480819091630438
:101E7000892B8083CE01819661969FAF8EAF61974B
:101E80008091010181111092010183E693E00E948B
:101E9000EE00892B11F40C94261860E170E080E0CC
:101EA00090E00E949F02E4EFF2E084E3DF011D92E4
:101EB0008A95E9F7F12C83E693E00E94EE000F2D5E
:101EC00010E00C501D4F892BA9F083E693E00E948F
:101ED000CC00F8018083F394EECF9E3040F428507C
:101EE000310981E001C0880F2A95EAF78CCF2E5086
:101EF0003109F7CFD8011C9265E771E084EF92E0D9
:101F00000E949D183C0165E771E090E080E00E942E
:101F10009D181C0165E771E090E080E00E949D182B
:101F20002C0165E771E090E080E00E949D186396C7
:101F30009FAF8EAF639767E771E0C3010E94DD1C1E
:101F4000892B09F0DDC08EE494E00E944703892BC1
:101F5000D1F38EE494E00E94D2028234910529F0FC
:101F60008EE494E00E945F03EECF8EE494E00E9442
:101F70004703809744F38E010F5F1F4F78012FB7FF
:101F8000F8948091280390912903A0912A03B0919D
:101F90002B032FBF8093560490935704A0935804AB
:101FA000B09359048EE494E00E945F0397FD02C051
:101FB0000C9455182FB7F894809128039091290319
:101FC000A0912A03B0912B032FBF4091560450914A
:101FD00057046091580470915904841B950BA60B0B
:101FE000B70B409152045091530460915404709186
:101FF000550484179507A607B707A0F2C8014E96A7
:10200000F80130E020E04191240F311D8E179F0729
:10201000D1F7BE016F5C7F4FD80112968C91129759
:1020200090E0982F882713964C91840F911DDB0127
:102030008D939D93BD010E5F1F4FE017F10761F770
:102040008EE1FE01F196ADE3B3E001900D928A9529
:10205000E1F78091590390915A032817390709F045
:1020600072CF60913F037091400390E080E04AE0BE
:102070000E94CE076AE771E083E693E00E94300990
:10208000609141037091420390E080E04AE00E9439
:10209000CE076AE771E083E693E00E943009609121
:1020A00043037091440390E080E04AE00E94CE0731
:1020B0006AE771E083E693E00E94300960915B0378
:1020C00070915C0380915D0390915E0342E00E94F9
:1020D00054086AE771E083E693E00E94300960915A
:1020E0005F0370916003809161039091620342E00D
:1020F0000E94540862E571E083E693E00E94BF0706
:102100006CE771E0C3010E94DD1C892B09F0A5C0BA
:102110008E010D5F1F4F8EE2F80111928A95E9F74B
:102120006AE771E0C2010E949D187C010E947F183D
:102130009A8389830E944008EF2871F06AE771E072
:1021400090E080E00E949D187C010E947F18D801D9
:102150008D939D938D01F0CFC1010E947F18BC012A
:10216000CE01C1960E946D07CE01C1960E94B204B5
:10217000C12CE12CD12C90E080E0FC01EE0FFF1F80
:1021800021E030E02C0F3D1FE20FF31F60817181D1
:102190008C010E5F1F4F161617060CF049C06150D8
:1021A00071098C010F5F1F4FF801EE0FFF1FE20F47
:1021B000F31F208131812115310579F40F5F1F4F05
:1021C000F801EE0FFF1F81E090E08C0F9D1FE80FDC
:1021D000F91FD080C12CE12C18C02130310509F045
:1021E000A7C08C010E5F1F4FF801EE0FFF1FA1E08B
:1021F000B0E0AC0FBD1FEA0FFB1FE080F180C7010C
:10220000880F991FD82EDE0CC12C8BA99CA96817AA
:10221000790770F42E2D30E050E040E0542F432F2A
:10222000322F22274D292C29CE01C1960E948103ED
:10223000C8010196883191050CF49FCFCE01C1965B
:102240000E94DD038AAD9BAD0E94541C8FA998ADFE
:1022500097FD03C060E00E9449026FE771E0C3018F
:102260000E94DD1C892B09F0F8C06AE771E0C20109
:102270000E949D180E947F18082F6AE771E090E085
:1022800080E00E949D180E947F18882E6AE771E006
:1022900090E080E00E949D180E947F18182FC101D5
:1022A0000E947F18BC01CE0101960E946D07CE01ED
:1022B00001960E94B204912CB12CA12CBA2CA92C0D
:1022C000982C8824A02A812A6396EEACFFAC6397F1
:1022D0006701BCE0CB0ED11C04E511E0F701819150
:1022E0007F01813309F495C0823309F47BC18333C4
:1022F00009F47BC1843309F47BC1853309F47BC1C4
:10230000863309F47BC1873309F47BC1883309F430
:102310007BC1893309F47BC1813609F47BC18236E4
:1023200009F47BC1833609F076C002E711E073C07F
:102330002230310581F48C010E5F1F4FF801EE0F42
:10234000FF1F21E030E02C0F3D1FE20FF31FD08074
:10235000C12CED2C5ACF2330310589F48C010E5F4E
:102360001F4FF801EE0FFF1F81E090E08C0F9D1FC3
:10237000E80FF91FE080F180C12CD12C46CF24302A
:10238000310579F48C010E5F1F4FF801EE0FFF1F2E
:10239000A1E0B0E0AC0FBD1FEA0FFB1FC080E12C35
:1023A000ECCF2530310581F48C010E5F1F4FF80111
:1023B000EE0FFF1F21E030E02C0F3D1FE20FF31F57
:1023C000E080F180CE2CD9CF2630310579F48C0114
:1023D0000E5F1F4FF801EE0FFF1F81E090E08C0FA2
:1023E0009D1FE80FF91FD080CD2CF5CE2730310589
:1023F00009F00BCF8C010E5F1F4FF801EE0FFF1F8E
:10240000A1E0B0E0AC0FBD1FEA0FFB1FD080CD2CC8
:10241000A0CF00E711E0C8010E947F182B813C810A
:102420008217930738F4A5019401BC01CE010196EF
:102430000E948103CE14DF0409F050CFCE01019633
:102440000E94DD038A859B850E94541C8F8198859C
:1024500097FD03C060E00E94490262E871E0C30199
:102460000E94DD1C892B91F464E871E0C1010E9497
:10247000DD1C892B09F0D4C040E061E082E494E0E7
:102480000E94B3068BE39FE10197F1F76AE871E0E0
:10249000C3010E94DD1C892B09F05FC0C1010E94AD
:1024A0007F18F82EC2010E947F188C0161E08F2DE9
:1024B0000E94490260E0802F0E94490260E08F2D57
:1024C0000E94EF018FE090E00197F1F761E08F2D1E
:1024D0000E94EF0183E290E00197F1F760E08F2D19
:1024E0000E94EF0160E0802F0E9449021127F8014D
:1024F000E155FF4F6491F801E556FF4FE491F0E09C
:10250000EE0FFF1FE957FF4F8591949100E412E40D
:102510002FE030E0462F0E94C10C61157105810546
:10252000910529F06F5F7F4F8F4F9F4F9F7095955B
:102530008795779567950E94D8182DEC3CEC48EE6E
:1025400051E40E94C51A0E94371B0E94140862E5DC
:1025500071E083E693E00E94BF0762E971E0C30186
:102560000E94DD1C7C01892B09F0E8C0C1010E949A
:102570007F18182F80913904882309F0F89410925D
:1025800034041092350410923604109237041092DD
:10259000380461E0812F0E94490260E0812F0E948F
:1025A000EF0162E170E080E090E00E949F0260E055
:1025B000812F0E9449028BE990E00197F1F7F0E941
:1025C000CF2EDD24D394812F0E94C601892B09F0E0
:1025D00045C0F1E0CF1AD108B1F75EEFE52EFF2438
:1025E000FA9490C003E711E016CF01E611E013CF93
:1025F00003E611E010CF00E911E00DCF05E611E090
:102600000ACF07E611E007CF09E611E004CF0BE699
:1026100011E001CF0DE611E0FECE0FE611E0FBCE9A
:102620002114310429F0B10183E693E00E94BF0731
:1026300062E571E083E693E00E94BF07C2010E9459
:102640007F18892B49F480E00E943607B10182E4AB
:1026500094E00E9430091ACF81E0F6CFE0E9CE2E57
:10266000DD24D394812F0E94C601019729F421E033
:10267000C21AD108B9F7B1CF78E2D72E00E8C12C41
:1026800060E9A62EBB24B394812F0E94C601892B3A
:1026900029F431E0A31AB108B9F79FCF0E947A025A
:1026A0004B015C0180E991E067969FAF8EAF679721
:1026B000812F0E94C601019761F46796AEADBFAD50
:1026C000679711976796BFAFAEAF6797AB2B81F750
:1026D00084CF0E947A02681979098A099B096932B4
:1026E00071058105910538F0EC2DF0E0EC5CFB4FB5
:1026F0008081802B8083069511F4C39400E8DA94DE
:10270000D110BECF80913904882309F07894EF2846
:1027100009F42EC180E090ECA9E7B4EC80933A0470
:1027200090933B04A0933C04B0933D0480933E04FB
:1027300090933F04A0934004B09341046BE971E08F
:10274000C3010E94DD1C892B11F560913E0470913C
:102750003F04809140049091410442E00E9454085B
:102760006AE771E083E693E00E94300960913A04E1
:1027700070913B0480913C0490913D0442E00E94A2
:10278000540862E571E083E693E00E94BF0765EAC2
:1027900071E0C3010E94DD1C892B09F040C2C10118
:1027A0000E947F187C0163968EAD9FAD63970E9457
:1027B0007F1803976D969FAF8EAF6D97092E000C13
:1027C000AA0BBB0B65968CAF9DAFAEAFBFAF659745
:1027D000C2010E947F1867969FAF8EAF6797809166
:1027E00000018E1114C1E2E7F0E0149117FD04C25C
:1027F00061E08E2D0E944902112319F0123009F078
:1028000066C36796AEADBFAD67974D01B12CA12CE5
:1028100060E072E18AE790E0A5019D010E94F51950
:102820006B962CAF3DAF4EAF5FAF6B9769017A01EE
:10283000B1E0CB1AD108E108F108EFEFCE16D104D0
:10284000E104F10409F00CF4ACC160E472E48FE03F
:1028500090E0A50194010E94F51969017A01F1E067
:10286000CF1AD108E108F108123009F04DC182E019
:102870002FEFC216D104E104F10409F00CF471C089
:1028800060E970ED83E090E0A50194010E94F519E4
:1028900069017A0181E0C81AD108E108F10883E0F2
:1028A0009FEFC916D104E104F10409F00CF459C0FA
:1028B00068E478EE81E090E0A50194010E94F519AA
:1028C00069017A0181E0C81AD108E108F10884E0C1
:1028D0009FEFC916D104E104F10409F00CF441C0E2
:1028E00064E274EF80E090E0A50194010E94F51984
:1028F00069017A01E1E0CE1AD108E108F10885E02A
:10290000FFEFCF16D104E104F10459F150F162E177
:102910007AE780E090E0A50194010E94F519690131
:102920007A01B1E0CB1AD108E108F10886E0EFEFB7
:10293000CE16D104E104F104A1F098F06B96CCAC72
:10294000DDACEEACFFAC6B979AE0F594E794D794CE
:10295000C7949A95D1F7F1E0CF1AD108E108F108B0
:1029600087E09091B100987F892B8093B10020C1BE
:102970006091350470E090E080E00E94D8182DEC62
:102980003CEC4CEC5DE30E9437196B017C016091DB
:10299000340470E090E080E00E94D8189B01AC0104
:1029A000C701B6010E94591A60933A0470933B0420
:1029B00080933C0490933D04109136046091370459
:1029C00070E090E080E00E94D8182DEC3CEC4CECDC
:1029D0005DE30E9437196B017C01612F6F7770E016
:1029E00090E080E00E94D8189B01AC01C701B601BD
:1029F0000E94591A17FD09C060933E0470933F046A
:102A0000809340049093410499CE9058F5CF8F3F26
:102A100009F0F2C0E0920001E2E7F0E014911F3FFC
:102A200009F4EAC0113041F150F0123009F446C007
:102A300017FDE2C061E08E2D0E944902DFCE14BC7A
:102A400015BC84B5826084BD85B5816085BDC70134
:102A50009927FC01E556FF4FE491F0E0EE0FFF1FD0
:102A6000EF56FF4F25913491FC01E155FF4FE49162
:102A7000E093300310E0BCCE1092800010928100F1
:102A800080918100886080938100809181008160C5
:102A900080938100C7019927FC01E556FF4FE4911F
:102AA000F0E0EE0FFF1FEF56FF4F25913491FC0130
:102AB000E155FF4FE491E0932F039ACE1092B000BE
:102AC0001092B1008091B00082608093B00080913C
:102AD000B10081608093B100C7019927FC01E556E0
:102AE000FF4FE491F0E0EE0FFF1FEF56FF4F2591EF
:102AF000349130932E0320932D03FC01E155FF4FB9
:102B0000E491E0932C0374CEAFEFCA16D104E10434
:102B1000F10409F00CF4D9C168E478EE81E090E0AA
:102B2000A50194010E94F51969017A01B1E0CB1A5F
:102B3000D108E108F10884E01111E2CE83E0AFEFA3
:102B4000CA16D104E104F10479F174F162E17AE783
:102B500080E090E0A50194010E94F51969017A01D5
:102B6000F1E0CF1AD108E108F10884E02FEFC21696
:102B7000D104E104F104C1F0B8F06B96CCACDDAC4B
:102B8000EEACFFAC6B978AE0F594E794D794C794CA
:102B90008A95D1F721E0C21AD108E108F10885E051
:102BA00003C081E01111DDCE95B5987F892B85BDDD
:102BB00065968CAD9DADAEADBFAD65972FEF3FEF88
:102BC000A901892B8A2B8B2B09F0C4C1113009F480
:102BD000D4C1123009F4E3C111110EC0C7BC209357
:102BE000390330933A0340933B0350933C03809165
:102BF0006E00826080936E0065966CAD7DAD8EAD8B
:102C00009FAD65970E949F02C1010E947F180E949C
:102C10001D0262E070E080E090E00E949F026EEA98
:102C200071E0C3010E94DD1C892B09F0DAC0C101EB
:102C30000E947F18182F809131048C3008F053C007
:102C400061E0812F0E94490280913104282F30E0F9
:102C5000F901EE0FFF1FE20FF31FE45FFB4F912F0F
:102C60009F731081107C192B1083109232041092E4
:102C700033042CE0622F0E94771B829FB001112445
:102C800030E020E0AB01420F531FFA01EE0FFF1FAF
:102C9000E40FF51FE45FFB4F908196FD16C02F5F98
:102CA0003F4F2C30310571F781110FC01092800019
:102CB00082E0809381001092850010928400B19A86
:102CC00080916F00826080936F00E09131048E2FBD
:102CD00090E0FC01EE0FFF1FE80FF91FE45FFB4FD0
:102CE00080818064808310913104C2010E947F182A
:102CF000DC01A03292E0B907DCF580913204E8E80B
:102D0000CE2ED12CC81AD10887FDD394CC0CDD1C53
:102D1000CC0CDD1C0D2C000CEE08FF088091330458
:102D200028E532E0281B310987FD3395220F331F38
:102D3000220F331F032E000C440B550B2C193D0999
:102D40004E095F09A53BB10514F0A4EBB0E0B7FF55
:102D500002C0B0E0A0E00E941F1A24EB30E040E087
:102D600050E00E94F519C20ED31EE41EF51ED601D6
:102D70001C3088F58091320448E850E0481B510926
:102D800087FD5395440F551F440F551FA417B507D2
:102D900084F08091330448E552E0481B510987FDD7
:102DA0005395440F551F440F551FA417B5070CF436
:102DB000AD0142505109440F551F2FB7F894812F90
:102DC00090E0FC01EE0FFF1FE80FF91FE45FFB4FDF
:102DD000528341832FBF64E670E080E090E00E9460
:102DE0009F0269EB71E0C3010E94DD1C892B71F524
:102DF00064EC71E083E693E00E943009C1010E9417
:102E00007F18BC01990F880B990B0E94140866EC7F
:102E100071E083E693E00E943009C1010E947F18AF
:102E20008E3008F08E508770806480937C00809193
:102E30007A00806480937A0080917A0086FDFCCFCE
:102E400080917800909179000E94400868EC71E0D0
:102E5000C3010E94DD1C892BE1F464ED71E083E67F
:102E600093E00E943009C1010E947F18BC01990FB4
:102E7000880B990B0E94140866EC71E083E693E0DE
:102E80000E943009C1010E947F180E94C6010E9461
:102E9000400866ED71E0C3010E94DD1C892B09F03A
:102EA000BBC0C2010E947F188C01C1010E947F1823
:102EB0007C0161E00E9449020115110509F07FC003
:102EC00060E08E2D0E94EF01A7C082E06BCE679676
:102ED0008EAD9FAD67974C01B12CA12C60E072E1E3
:102EE0008AE790E0A50194010E94F51969017A0131
:102EF00091E0C91AD108E108F10891E0C114D104A8
:102F0000A1E0EA06F10484F068E478EE81E090E064
:102F1000A50194010E94F51969017A01B1E0CB1A6B
:102F2000D108E108F10893E0113009F041CE809119
:102F30008100887F892B8093810065968CAD9DAD43
:102F4000AEADBFAD65972FEF3FEFA901892B8A2B5F
:102F50008B2B99F067962EAD3FAD6797220F331FED
:102F60006D96AEADBFAD6D970E94971B28EE33E016
:102F700040E050E00E94271A29CED0928900C092EA
:102F800088002093350330933603409337035093E2
:102F9000380380916F00826080936F002DCEC092C5
:102FA000B3002093310330933203409333035093A3
:102FB0003403809170008260809370001DCE0F3FBB
:102FC000110511F461E07DCFF701FF27ED58FF4FA8
:102FD000E491E33009F44FC048F4E130C9F0E23045
:102FE00009F444C0003811056CF76ACFE73009F4E2
:102FF0004CC0E83009F451C0E430A1F78091800062
:1030000080628093800010938B0000938A0004C03C
:1030100084B5806884BD07BD62EE71E0C3010E9483
:10302000DD1C892B81F4C1010E947F1861E00E94A0
:103030004902C2010E947F18182FC1010E947F1807
:10304000612F0E94EF0181E08093010180E090E018
:10305000892B11F40C94400F0E94FA00882311F47C
:103060000C943A0F0E9400000C943A0F84B58062D1
:1030700084BD08BDD1CF809180008068809380009E
:103080001093890000938800C7CF8091B0008068BA
:103090008093B0000093B300BFCF8091B0008062F6
:1030A0008093B0000093B400B7CFD7018D937D011A
:1030B0006196EEADFFAD6197EA17FB0711F00C9436
:1030C000BF0F0C94FE0F84E491E090934F04809323
:1030D0004E048091F2029091F3028E54944071F468
:1030E000E0916104F0916204908180916304809585
:1030F000892380831092F3021092F2020895FC015A
:1031000088279927E89421912032E9F3293010F09B
:103110002E30C8F32B3241F02D3239F4689404C0BC
:103120000E94C918820F911D219120532A30C0F3AB
:103130001EF4909581959F4F08954DE654E00E94AE
:10314000A2180895FA01A191B081009719F410977F
:10315000E1F0CD01DC01CD010D90002011F4C001A2
:1031600013C0FB012191222319F02015D9F7F3CFC9
:10317000FB012191201519F41E92119606C02223FD
:10318000C1F70D900020A1F7D001FA01A193B083FF
:1031900008957AE0979F902D879F802D910D11249F
:1031A00008950E94131908F481E00895E89409C075
:1031B00097FB3EF490958095709561957F4F8F4F6A
:1031C0009F4F9923A9F0F92F96E9BB279395F69580
:1031D000879577956795B795F111F8CFFAF4BB0FFE
:1031E00011F460FF1BC06F5F7F4F8F4F9F4F16C062
:1031F000882311F096E911C0772321F09EE8872FEC
:10320000762F05C0662371F096E8862F70E060E0A7
:103210002AF09A95660F771F881FDAF7880F969520
:10322000879597F90895990F0008550FAA0BE0E8C4
:10323000FEEF16161706E807F907C0F01216130678
:10324000E407F50798F0621B730B840B950B39F4B8
:103250000A2661F0232B242B252B21F408950A261E
:1032600009F4A140A6958FEF811D811D08950E944C
:103270004A190C94BB190E94AD1938F00E94B41978
:1032800020F0952311F00C94A4190C94AA19112480
:103290000C94EF190E94CC1970F3959FC1F3950F10
:1032A00050E0551F629FF001729FBB27F00DB11DCA
:1032B000639FAA27F00DB11DAA1F649F6627B00D5A
:1032C000A11D661F829F2227B00DA11D621F739F43
:1032D000B00DA11D621F839FA00D611D221F749F51
:1032E0003327A00D611D231F849F600D211D822F98
:1032F000762F6A2F11249F5750409AF0F1F08823BF
:103300004AF0EE0FFF1FBB1F661F771F881F9150EB
:103310005040A9F79E3F510580F00C94A4190C94DD
:10332000EF195F3FE4F3983ED4F386957795679560
:10333000B795F795E7959F5FC1F7FE2B880F911D15
:103340009695879597F9089597F99F6780E870E0BB
:1033500060E008959FEF80EC089500240A9416160B
:10336000170618060906089500240A941216130673
:10337000140605060895092E0394000C11F4882301
:1033800052F0BB0F40F4BF2B11F460FF04C06F5F1D
:103390007F4F8F4F9F4F089557FD9058440F551FF3
:1033A00059F05F3F71F04795880F97FB991F61F0C7
:1033B0009F3F79F087950895121613061406551F3E
:1033C000F2CF4695F1DF08C0161617061806991FAA
:1033D000F1CF86957105610508940895E894BB279F
:1033E00066277727CB0197F90895052E97FB1EF4E2
:1033F00000940E940C1A57FD07D00E94271A07FC60
:1034000003D04EF40C940C1A5095409530952195AC
:103410003F4F4F4F5F4F0895909580957095619500
:103420007F4F8F4F9F4F08950E94491AA59F900D7F
:10343000B49F900DA49F800D911D11240895B7FF96
:103440000C94141A0E94141A821B930B0895A1E283
:103450001A2EAA1BBB1BFD010DC0AA1FBB1FEE1F0E
:10346000FF1FA217B307E407F50720F0A21BB30B59
:10347000E40BF50B661F771F881F991F1A9469F7D5
:1034800060957095809590959B01AC01BD01CF0131
:103490000895A29FB001B39FC001A39F700D811D2D
:1034A0001124911DB29F700D811D1124911D08954D
:1034B0005058BB27AA270E94701A0C94BB190E946F
:1034C000AD1938F00E94B41920F039F49F3F19F477
:1034D00026F40C94AA190EF4E095E7FB0C94A419B9
:1034E000E92F0E94CC1958F3BA17620773078407B3
:1034F000950720F079F4A6F50C94EE190EF4E095FA
:103500000B2EBA2FA02D0B01B90190010C01CA019D
:10351000A0011124FF27591B99F0593F50F4503E48
:1035200068F11A16F040A22F232F342F4427585F3A
:10353000F3CF469537952795A795F0405395C9F752
:103540007EF41F16BA0B620B730B840BBAF091500A
:10355000A1F0FF0FBB1F661F771F881FC2F70EC0A9
:10356000BA0F621F731F841F48F48795779567957C
:10357000B795F7959E3F08F0B0CF9395880F08F068
:103580009927EE0F9795879508950E94D91A0C9464
:10359000BB190E94B41958F00E94AD1940F029F4EB
:1035A0005F3F29F00C94A41951110C94EF190C945D
:1035B000AA190E94CC1968F39923B1F3552391F30A
:1035C000951B550BBB27AA2762177307840738F092
:1035D0009F5F5F4F220F331F441FAA1FA9F335D0EF
:1035E0000E2E3AF0E0E832D091505040E695001CA3
:1035F000CAF72BD0FE2F29D0660F771F881FBB1F5D
:10360000261737074807AB07B0E809F0BB0B802D3A
:10361000BF01FF2793585F4F3AF09E3F510578F066
:103620000C94A4190C94EF195F3FE4F3983ED4F383
:10363000869577956795B795F7959F5FC9F7880F3A
:10364000911D9695879597F90895E1E0660F771F8C
:10365000881FBB1F621773078407BA0720F0621B1D
:10366000730B840BBA0BEE1F88F7E09508950E9448
:103670003E1B6894B1110C94EF1908950E94D4195F
:1036800088F09F5798F0B92F9927B751B0F0E1F023
:10369000660F771F881F991F1AF0BA95C9F714C0D3
:1036A000B13091F00E94EE19B1E008950C94EE193A
:1036B000672F782F8827B85F39F0B93FCCF386950C
:1036C00077956795B395D9F73EF490958095709569
:1036D00061957F4F8F4F9F4F08950E94131908F4F3
:1036E0008FEF08950E941319880B990B0895991B69
:1036F00079E004C0991F961708F0961B881F7A95E9
:10370000C9F78095089597FB072E16F4009407D00B
:1037100077FD09D00E949E1B07FC05D03EF49095D2
:1037200081959F4F0895709561957F4F08950E94F0
:10373000491AB7FF0895821B930B0895AA1BBB1B60
:1037400051E107C0AA1FBB1FA617B70710F0A61BA1
:10375000B70B881F991F5A95A9F780959095BC01C2
:10376000CD010895EE0FFF1F0590F491E02D09940F
:103770000F931F93CF93DF938230910510F482E073
:1037800090E0E0917104F091720430E020E0B0E04C
:10379000A0E0309799F42115310509F44AC0281B9F
:1037A000390B24303105D8F58A819B81611571056B
:1037B00089F1FB0193838283FE0111C04081518115
:1037C0000281138148175907E0F04817590799F407
:1037D000109761F012960C93129713961C933296E1
:1037E000CF01DF91CF911F910F9108950093710444
:1037F00010937204F4CF2115310551F0421753078D
:1038000038F0A901DB019A01BD01DF01F801C1CF48
:10381000EF01F9CF9093720480937104CDCFFE0134
:10382000E20FF31F8193919322503109398328834A
:10383000D7CF20916F0430917004232B41F4209155
:103840000401309105013093700420936F0420919E
:103850000201309103012115310541F42DB73EB726
:103860004091060150910701241B350BE0916F0434
:10387000F0917004E217F307A0F42E1B3F0B2817FA
:10388000390778F0AC014E5F5F4F2417350748F0D9
:103890004E0F5F1F5093700440936F048193919378
:1038A0009FCFF0E0E0E09CCFCF93DF930097E9F06B
:1038B000FC01329713821282A0917104B0917204BC
:1038C000ED0130E020E01097A1F420813181820FDA
:1038D000931F20916F04309170042817390709F065
:1038E00061C0F0937004E0936F04DF91CF9108956D
:1038F000EA01CE17DF07E8F54A815B819E01411599
:103900005105B1F7E901FB83EA8349915991C40F4D
:10391000D51FEC17FD0761F4808191810296840F19
:10392000951FE90199838883828193819B838A8390
:10393000F0E0E0E012968D919C9113970097B9F515
:103940002D913C911197CD010296820F931F2091EA
:103950006F04309170042817390739F6309751F504
:103960001092720410927104B0937004A0936F04CB
:10397000BCCFD383C28340815181840F951FC81768
:10398000D90761F44E5F5F4F88819981480F591FB5
:10399000518340838A819B819383828321153105E2
:1039A00009F0B0CFF0937204E09371049ECFFD0153
:1039B000DC01C0CF13821282D7CFFB01DC018D91D5
:1039C000019080190110D9F3990B089510E0C3E616
:1039D000D0E004C0FE010E94B21B2196C436D1077C
:0639E000C9F7F894FFCFC7
:1039E600FF01000073048000000040001400540032
:1039F6000000000030019000BD007D01EE00CC000B
:103A0600E00000000000810554059706EA024D0516
:103A16003A052B0500000000670790009706800313
:103A260000000000EB0290009706EA0247035F03DE
:103A3600D2020D0A006E616E00696E66006F7666D0
:103A460000320033003500360037003800390031C7
:103A560030003131002300706D002C007368007750
:103A660073006C00636C6561720048432D535230DD
:103A7600340064687431315365740064687431319C
:103A86005265616400746F6E65506C617900736590
:103A960072766F577269746500616E616C6F6752FA
:103AA6006561640041003A006469676974616C523B
:103AB600656164004400616E616C6F67577269747A
:103AC60065006469676974616C57726974650000A2
:00000001FF
