:1000000000400020AD330000ED330000EF3300006E
:1000100000000000000000000000000000000000E0
:10002000000000000000000000000000F1330000AC
:100030000000000000000000F3330000F533000072
:10004000F7330000F7330000913E0000F733000063
:10005000F733000000000000F7330000F733000022
:10006000F7330000C936000025130000F733000005
:10007000F7330000F7330000F7330000F7330000D8
:10008000F733000089340000F7330000F733000035
:10009000F7330000F7330000F7330000F7330000B8
:1000A000F7330000F73300000000000000000000FC
:1000B0000000000000000000000000000000000040
:1000C000054B0648033310B51B1A062B03D9044B06
:1000D000002B00D0984710BD54010020540100208F
:1000E000000000000648074910B5091A8910CB0F17
:1000F0005918491003D0044B002B00D0984710BD6D
:1001000054010020540100200000000010B5074CED
:100110002378002B09D1FFF7D3FF054B002B02D02A
:10012000044800E000BF0123237010BD54010020EB
:1001300000000000A01E0300094B10B5002B03D0E7
:100140000849094800E000BF08480368002B02D1B5
:10015000FFF7C8FF10BD064B002BF9D09847F7E713
:100160000000000058010020A01E030050010020E4
:1001700000000000164B002B00D1144B9D4640227E
:1001800092029A1A924600218B460F461348144A4F
:10019000121A06F04EF90F4B002B00D098470E4B69
:1001A000002B00D098470020002104000D000D48CE
:1001B000002802D00C4800E000BF06F0F7F820004D
:1001C000290003F051FF06F0CBF8C04600000800FC
:1001D000004000200000000000000000540100204A
:1001E000880400200000000000000000F8B50700AF
:1001F0000C0000258E18B44207D03B6821781B689C
:100200003800984701342D18F5E72800F8BD0000A4
:10021000F8B5070003000837B4331B680400380042
:100220009847124A031E93421ED825002600BA356D
:10023000B8362A883188380002F04CFC903403002C
:100240002078032810D803F07BFF0205080C3288C1
:100250009B1804E02A889B1805E03288D31A338063
:1002600002E02A88D31A2B800120F8BDFDFF000090
:1002700070B50223102227211F4801F071FE1F488C
:1002800001F014FF1E4C1F4A1F4922602200B432A5
:10029000116022000023B8321380250022000835A7
:1002A000BA3263601380280002F07EFE174B2800EC
:1002B0002360174A174B184902F018FAFF23280049
:1002C0001A00190002F047F9144C200000F054FF06
:1002D000134D14492A00200006F006F8124801F0D8
:1002E00001FD124C1249200003F02FFE2A00114993
:1002F000200005F0F9FF70BD980200207802002070
:1003000078010020A48E0000152F0000B48E00009C
:100310006D25000077240000E81903003802002052
:1003200000000020A1110000700100208C020020BC
:10033000E21A0300BD3E000010B5114C0E21200052
:1003400000F04EFE1121200000F057FD802120001A
:1003500000F053FD200000F0ADFE0F2003F086F802
:1003600020000E2100F03CFE1021200000F045FD91
:100370000121200000F041FD200000F09BFE10BD97
:10038000A8020020E12170B5214C4902200003F0B1
:1003900005FC2000052103F0E8FB0021052003F007
:1003A000D9F900210B2003F0D5F91A49200003F0F8
:1003B0004BFA194D280000F059FD2800174900F0AC
:1003C00087FD174C012220230221200001F063FD4C
:1003D0000221200001F032FD200001F0F3FC114C5D
:1003E00026000836300002F09BFF300002F06BF967
:1003F0000021300002F09BFF0B4BB4342800236037
:1004000000F034FDFFF798FF084800F02DFF70BDA5
:1004100014040020CD0E0300A8020020801A06005C
:100420007001002078010020292F000038020020F0
:1004300070B50500154C0E21200000F0D1FDE9B289
:10044000200000F0DAFC200000F034FE0220013829
:10045000C046C046C046C046C046C046C046C0466C
:10046000C046C046C046C046F1D101220E21200040
:1004700000F0B1FD200000F0B6FC002804D0200000
:1004800000F0B6FC0600F5E7300070BDA8020020C1
:1004900070B50D00FFF7CCFF040002200138C04604
:1004A000C046C046C046C046C046C046C046C0461C
:1004B000C046C046C046F1D12800FFF7B9FF24026C
:1004C000204370BD10B502210120FFF7E1FF10BDF0
:1004D00010B504210320FFF7DBFF10BD10B5062186
:1004E0000520FFF7D5FF10BD20221823F0B5B1B0CD
:1004F00002AFCD4EBA18D018310003F039FB2022DC
:100500001823CA4CBA18D118200003F04FFD20223E
:100510001823BA18D01803F0D1FC6A46A36820004B
:100520005D1C0833DB08DB00D31A9D4602ABFB6180
:100530002A000023F96903F07AFD0021FB692000FD
:10054000595503F05EFD3400051E01D000F011FC8A
:10055000B74EF869310006F009FE3100B861280095
:1005600006F004FE3100F861280006F0FFFD3100BE
:100570003861280006F0FAFDAE49F860B86906F067
:10058000C9FD002808D1AC49200003F04BF9AB4B62
:100590002000196803F058F9A949B86906F0BAFDB6
:1005A000051E19D10121172003F0D4F801211A20CA
:1005B00003F0D0F82900032003F0CCF8032002F068
:1005C00073FF05009F49200003F02CF99E490A2281
:1005D000491B200003F0A7F99C49B86906F09AFD71
:1005E000002817D19A49200003F01CF9052003F0D8
:1005F000E5F80A220100200003F091F99549200056
:1006000003F010F90B2003F0D9F80A2201002000B2
:1006100003F089F99049B86906F07CFD041E29D1E0
:10062000F86905F089FE210003F094F8F86905F0F7
:1006300083FE8A4DC1B2280001F0BEFD7A4C884984
:10064000200003F0EFF8E86805F050FD02260200F4
:100650000B000096200003F019FA7E49200003F0F9
:10066000E1F8A86805F042FD009602000B002000AA
:1006700003F015FA7B49B86906F04CFD002800D05C
:1006800016E17949F86906F045FD784E002807D152
:10069000300000F0E9FD0121300000F01DFD07E110
:1006A0007349F86906F036FD002804D1300000F0E7
:1006B000DBFD70492AE07049F86906F02BFD00283F
:1006C00004D1300000F0D0FD6C491FE06C49F8699E
:1006D00006F020FD002804D1300000F0C5FD694976
:1006E00014E06949F86906F015FD002804D13000CE
:1006F00000F0BAFD654909E06549F86906F00AFDB0
:10070000002807D1300000F0AFFD6249300000F052
:1007100013FECDE06049F86906F0FCFC002803D127
:10072000300000F003FEC3E05C49F86906F0F2FC1B
:10073000041E21D1474D3869290006F017FD290014
:100740007861200006F012FD2900B860200006F054
:100750000DFD7860786905F0EFFD0400B86805F0DC
:10076000EBFD0500786805F0E7FD2AB283B221B2FF
:10077000300000F0BFFC9BE04949F86906F0CAFC74
:10078000002832D1300000F06FFD324D3869290069
:1007900006F0ECFC29000400002006F0E7FC29002C
:1007A0007861002006F0E2FC2900B860002006F025
:1007B000DDFC7860200005F0BFFD3860786905F049
:1007C000BBFD0400B86805F0B7FD0500786805F0CA
:1007D000B3FD22B20024395F012400B200902BB295
:1007E0000194300000F007FF62E02E49F86906F03E
:1007F00091FC041E58D1300000F036FD052600257E
:1008000066433B699E19735D312B05D122B229B233
:10081000303B164800F06EFC0135052DF3D1013454
:10082000052CEBD144E0C046140400208C020020CB
:10083000E80E0300EA0E0300EE0E030004000020A1
:10084000F30E0300F90E0300FF030000FC0E03008B
:10085000FE0E0300010F0300030F030078020020C7
:10086000090F0300100F0300140F030038020020CB
:100870001B0F0300CA130300210F0300C013030062
:10088000240F0300C5130300280F0300900F03007B
:100890002E0F0300BC8E0000320F0300380F030040
:1008A000420F03004B0F0300F969300000F084FD94
:1008B000B849B86906F02EFC002828D1B64DB74ECD
:1008C000B74B32002900B74801F000FBB64CB749DE
:1008D000200002F0A7FF0023E95E0A22200003F0B7
:1008E0001EF8B34D2000290002F09CFF0023F15EAA
:1008F0000A22200003F013F82900200002F092FFE2
:10090000A74B0A220021595E200003F00CF8A949E8
:10091000B86906F0FFFB002822D1A34CA6492000AD
:1009200002F080FFFFF7CEFD0A220100200002F056
:10093000F6FF9F4D2000290002F074FFFFF7C8FD6D
:100940000A220100200002F0EAFF2900200002F044
:1009500069FFFFF7C3FD0A220100200002F0E3FF58
:100960009649B86906F0D6FB041E1CD1F86905F05B
:10097000E3FC210002F0EEFE8B4C9149200002F0D6
:1009800051FFF969200002F04DFF8E49200002F06E
:1009900049FFF86905F0D0FC02F010FF0A220100BF
:1009A000200002F0C0FF8849B86906F0B3FB0028B8
:1009B00016D17D4C8549200002F034FFF9692000F2
:1009C00002F030FF7F49200002F02CFFF86905F0AB
:1009D000B3FC02F069FD0A220100200002F075FF5D
:1009E0007B49B86906F096FB002810D1F86905F03C
:1009F000A3FC012102F0AEFEF86905F09DFC0400A5
:100A0000386905F099FC0100200002F0C1FE71492F
:100A1000B86906F07FFB00280AD1F86905F08CFC64
:100A20000400386905F088FC0100200002F0CAFDCE
:100A30006949B86906F06EFB011E00D099E02020DC
:100A4000182338188022C01805F0F3FC584D386977
:100A5000290006F08BFB040005F06EFC20221C230D
:100A6000BA18B863D618002C08D02900002006F068
:100A70007DFB040005F060FC01C6F4E7F86905F0B1
:100A80005BFC02B2202052230C21381801F0A4FC98
:100A90002023F81801F0FCFB260023007C612021B4
:100AA000182279188A18990089589D1C002955DD4B
:100AB0005D1CA80080580139002805D19D1CAB00A1
:100AC0009E587861040039E0012805D103269D1C59
:100AD000AB009C58664305E0022806D19D1CAB0084
:100AE0009E58340000237B6128E0032806D19D1C1A
:100AF000AB009C5800237B611E001FE0042806D138
:100B000000249D1CAB009B5826007B6116E0052845
:100B100005D19D1CAB009C5800267C610EE0062888
:100B200005D19D1CAB009E5800247E6106E007287D
:100B300004D19D1CAB009E5834007E61FF23FF2032
:100B40001B0432041A400002230203401A433B7D77
:100B500089B21A432023F81801F054FC6B1C1F2B98
:100B60009DDD2023F81801F0E7FB2023F81801F0A1
:100B700081FB1A49B86906F0CDFA051E40D1184923
:100B8000F86906F0C7FA174C00282DD1200001F0B3
:100B900059FA35E0520F030074010020880200204A
:100BA000340200207001002014040020560F0300BE
:100BB000010F03005B0F03005F0F0300640F0300CE
:100BC000700F03000E0F03006B0F0300540F0300A0
:100BD000720F03007A0F0300820F0300400F03001F
:100BE000320F030098020020386905F0A5FB2900A8
:100BF000C2B2200001F03CFAF969200002F012FEB6
:100C00005D49B86906F086FA051E00D081E05B4EAA
:100C10003869310006F0AAFA05F08EFB31007861E0
:100C2000280006F0A3FA05F087FB31000400280035
:100C300006F09CFA05F080FB0500F86905F07CFBE6
:100C4000202602B21820BE1952230C21301801F0C0
:100C5000C3FB1823F01801F01BFB7B6924021E0460
:100C6000FF231B041E40FF231B021C403443EEB233
:100C7000FD6826432B00424C0C337B612B78312BD3
:100C800017D0322B17D0332B17D0342B17D0352B4E
:100C900017D0362B17D0372B17D0382B17D0392B2E
:100CA00017D0612B17D0622B17D0632B16D1354C80
:100CB00014E0354C12E0354C10E0354C0EE0354C6C
:100CC0000CE0354C0AE0354C08E0354C06E0354C7C
:100CD00004E0354C02E0354C00E0354C200005F0D6
:100CE0002BFB81B2202018233818C018320001F0E5
:100CF00089FB7B690135AB42C0D120221823BA1889
:100D0000D01801F019FB20221823BA18D01801F0CE
:100D1000B1FA2849B86906F0FDF9051E29D1264C1B
:100D2000264926000836300001F040FF300001F06F
:100D30009AFC124E3869310006F018FA05F0FCFAF8
:100D40003100B861280006F011FA05F0F5FA050047
:100D500023003A8BB8331A802300BA331D80F96917
:100D6000200002F05FFD2000083001F08AFC00281E
:100D7000EED1BD462FB0F0BD850F0300010F03007B
:100D8000E21A0300060F0300E60E0300070F03003C
:100D90008E0F0300D70E0300D90E0300DB0E0300F5
:100DA000DD0E0300DF0E0300E10E0300E30E03007F
:100DB000E50E0300220F030078010020C18E000021
:100DC000F8B505000E0017000024BC4208D02B68BF
:100DD000315D1B6828009847002801D00134F4E7F2
:100DE0002000F8BD704710B51C3002F090FE10BD19
:100DF00010B51C3002F07DFE10BD70B5437E0D00B5
:100E0000002B05D06430040002F090FE002801D0D1
:100E1000002004E02000290002F05CFE012070BDEB
:100E200010B51C3002F079FE10BD0000F7B501933B
:100E3000FA23002504009B0083600B4B45600833B8
:100E400003601C300F00160002F039FE20006430F1
:100E500002F035FE6B461B79276166756576A576CF
:100E60002000A375FEBDC046980F0300012330B5D6
:100E7000A024C375837D12499B005A58437DC1321B
:100E80009B005B580F4DC133FF32FF33E4059200E6
:100E90009B0015511D51CC2403690B4A64049C50DE
:100EA0000524243A9C50827D92005458A122D200FD
:100EB0009C50427D92005158044A995030BDC04622
:100EC0005C1A03000C060000240500000C0500005D
:100ED000A02302690020DB00D0500948814204D9D8
:100EE0000848814204D9CD2103E0CC21490401E026
:100EF0008021C904044811500521D1507047C046D3
:100F0000A086010090D0030024050000F7B505007D
:100F100000200C00019382425CD0161E402E00D9A6
:100F200040262F001C37380002F0DFFDB1222B696C
:100F3000D20080219C50012289005A50A97E0029AC
:100F400001D11A621A600024731E2A69A34206D1D5
:100F5000019B002B03D0802302219B00D150012351
:100F600013621300FC33D968002902D1996A002961
:100F7000F9D0996A00290AD1D960A323DB00D1589E
:100F80003800C9B2013402F0A5FDA642DCD8019AAE
:100F90002B69002A04D11A00FC32916A00290AD078
:100FA00001210022AA7659611900FC3188680028C5
:100FB000FCD08A6007E00121A976D961D16C0029B3
:100FC000FCD00021D164FC339A6A002A01D00022AF
:100FD0009A62E0B2FEBD10B50123FFF797FF10BD86
:100FE0000300AC3310B504001970643002F07DFDCD
:100FF0000123637610BD0000F8B500220D0001004A
:101000004276AC31036904000878B121C900585018
:10101000802189005A5001321A629A602600643693
:10102000300002F074FD00280ED03000276902F075
:1010300060FD1E4BF8502369FC331A6A002A0CD15C
:101040009A6A002AF9D008E02369002D0AD11A0013
:10105000FC32916A002905D10EE09A6A002AF3D188
:101060001A62DBE701225A611A00FC3291680029FA
:10107000FCD00021916006E00121D961D16C0029EA
:10108000FCD00021D1641A000020FC32916A814218
:101090000BD0074990625A5802305A50824204D00D
:1010A000043A534253410230C01AF8BD1C050000F7
:1010B000C404000010B50121FFF79EFF10BD000021
:1010C00010B51323142202490248FFF7AFFE10BDEA
:1010D00000400040A8020020020010B51B3200238F
:1010E0001C00013324340155092BF9D10930824207
:1010F000F5D110BD30B5002939DB002A37DB0C25CE
:10110000445F8C4233DD0E25445F94422FDD847EA4
:10111000022C09D0032C10D0012C13D10489013CDE
:10112000A41A0A0021B20DE00489013C611A448925
:1011300009B2013CA21A12B204E04489013C641ACB
:10114000110022B2052462435118094AC9B2525C07
:10115000013AD4B2074A525C013AD1B209224A4359
:10116000821812190532002B00D00123D37730BD2D
:101170002D0000200B000020052210B504001100F6
:1011800000F0CAFA2000054B1B220833236000211F
:10119000243005F04EF9200010BDC0467013030046
:1011A00070470000F7B50025194C1A4F2378060048
:1011B0000021F85C02F0ECFA0097174F0121E85D7E
:1011C000013502F0E5FA0197092DF6D123780133B4
:1011D000DBB22370022B01D90023237000250927DD
:1011E00023787B43F3185B190533DB7F002B04D096
:1011F000019B0021585D02F0CBFA0135092DEFD19A
:101200002378009A0121D05C02F0C2FAF7BDC046F3
:1012100064030020080000202400002000220E4B60
:101220000E49A22010B55A5004240121C000D960F3
:101230001C50FA2408381A50A40038301C500848B2
:101240001A508020C1224002920098508020054A06
:10125000C0001060196010BD00A00040040500002F
:101260004405000000E100E070B505000024194BC2
:101270001860194E0121A05D02F06CFAA05D0121F9
:10128000013402F085FA092CF3D10024134E012118
:10129000A05D02F05FFAA05D0021013402F078FA4F
:1012A000032CF3D128002B0000241B300022110056
:1012B0002431591801320C70092AF8D109339842A7
:1012C000F4D10022064B28001A70FFF7A7FF012077
:1012D00070BDC046600300202400002008000020EC
:1012E000640300200C4B10B55A6C0C4C002A11D032
:1012F000C1229200A258D2030CD500225A64084B96
:101300001868FFF74FFFA822FA21D200A3588900DE
:101310005B18A35010BDC046FCA0004000A00040D8
:101320006003002010B5FFF7DDFF10BD10B50368A6
:101330000021DB6B984710BD30B585B00D0004006F
:10134000FFF7F4FF012303210293043301930333D6
:10135000009300222B004942200000F053FA05B010
:1013600030BD0000F7B50E0012490400019200F0F4
:101370006DFC002305270525E3760133E382A38274
:101380007F42300005F0D8FE00B201387843854234
:101390000EDD0523258263822000FFF7C7FF3100A1
:1013A000200002F03FFA019802F060F8013DE8E702
:1013B000F7BDC0466810030070B50D000F4904006A
:1013C000002600F043FC0123E676E382A382280096
:1013D00005F0B2FE012805D9962229002000FFF76A
:1013E000C1FF09E02000FFF7A1FF052326826382E9
:1013F0002900200002F016FA70BDC04668100300F4
:10140000F0B515000C001E0089B00EAB00229B5EEB
:101410000FAA1288019006925A1BD11752184A40FF
:101420000292321BD11752184A4003920399029A32
:101430008A4205DD32001E00130022002C00150038
:10144000B44205DD2A001D001300220034001600FE
:10145000321B92B205925A1BD11752184A4007927A
:101460006A461421525ED10F8A18521092B200922D
:10147000012204929D4201DB154B0493B44224DC0B
:10148000019B029A1B6803991B691F00069B8A42F5
:1014900002DD2200290001E02A0021000198B8475E
:1014A000009A079BD31A9BB29AB200926A4612889E
:1014B00012B2002A06DA049AAD18059A2DB2D31892
:1014C0009BB20093013424B2D8E709B0F0BDC04606
:1014D000FFFF000010B50468A468A04710BD37B531
:1014E00006AC258804680095246BA04737BD37B546
:1014F00006AC258804680095646BA04737BD73B5BA
:1015000006AC0025655F07AC268804680196009547
:10151000A46BA04773BD7047F0B5160004000D0022
:1015200085B003930AAB1F880368DB689847039B69
:101530002268013B9B191BB200930197176A2B008D
:10154000320029002000B847236820005B6A9847D2
:1015500005B0F0BDF0B505001C000E00170085B009
:101560000AAB1B88013C03930368A419DB68984706
:1015700003992A680191009723B23100146A280068
:101580003A00A0472B6828005B6A984705B0F0BD79
:10159000F0B50E0087B003930CAB029200229B5E65
:1015A000050004930DAB1B88340005930368DB68CA
:1015B0009847039B2A68F3189C420ADA059B21008E
:1015C00000939769049B029A28000134B84724B21B
:1015D000EFE7536A2800984707B0F0BD13B50191B3
:1015E0000E24015F0C22835E02680091946B00223E
:1015F0001100A04713BDF0B585B002930AAB0024DB
:101600001C5F0BAB1B8817000393029B05000E1E8B
:1016100002689E420BD1A74202DD3B0027001C005E
:1016200003990134E31B00911BB2146B0DE0A74238
:1016300010D1029B994201DD029E0291029B039907
:10164000013300919B1B546B1BB23A003100280000
:10165000A0470FE0D3689847039A2B680192009443
:101660001C6A2800029B3A003100A0472B68280022
:101670005B6A984705B0F0BDF0B5040016000D0098
:1016800087B004930CAB00229B5E05930DAB1B88C7
:1016900003930368DB689847039A23680092DF6925
:1016A0003200049B29002000B847059B03995A1E6D
:1016B000236800919219DF692900049B200012B26F
:1016C000B847039A236800929F693200059B29005E
:1016D0002000B8470499039A2368013900924D19F4
:1016E00029B29F693200059B2000B847236820007B
:1016F0005B6A984707B0F0BD7047032319408176B5
:1017000003894289012904D0032902D08381C2813F
:1017100001E08281C3817047018181810121002321
:101720004281C281012210B5074C4942083443600E
:10173000046083760382438242760276C18281828C
:10174000C2760377036210BDD0130300F0B5002703
:101750008DB0099312AB049200229B5E0891059311
:1017600013AB00229B5E04000A9314AB1B883D0060
:101770000B930368DB6898470721059B06910733A5
:10178000DA170A40D318DB100793049B01936B46CA
:10179000049A9B8803939B1A0A9A1BB29A422BDDE8
:1017A000002302936B461989059A0BB293421CDA07
:1017B000069A6D00EDB2114207D10698DA17024081
:1017C000D318099ADB10D219D55C6BB2002B09DA59
:1017D000089B019AC918236809B21B6920001E00E2
:1017E0000B9BB047029B0133DBE7039B01331BB22A
:1017F0000193079BFF18CAE7236820005B6A98479C
:101800000DB0F0BD7FB508AC0025645F09AD0026C2
:10181000AD5F0AAE3688019502960094FFF796FFF9
:101820007FBD0000F0B595B01E001AAB1B88040008
:1018300004931BAB1D881CAB1F781DAB1B78069156
:101840000293036A0392002B00D0D1E00C22835E46
:101850008B4200DC77E10E22835E039A934200DC28
:1018600071E106237B435B18002B00DC6BE1029BDC
:10187000039ADB009B18002B00DC64E1037F002B44
:1018800003D1AF2E01D90136F6B223682000DB6800
:10189000984705235E430B9300230E960A93282254
:1018A0006B469B181B78A94A0E995BB25218D25C02
:1018B0009BB20893BBB20F936B461B8B09920593A7
:1018C000089BBAB25343059AD3189BB20D930823D1
:1018D0000C93002307930122099B134220D06B46EF
:1018E0001C229A56012F0DD1029B012B0AD1039B7A
:1018F0000599D218089B12B25918236809B21E69BB
:10190000049B22E00299049E4A4303993BB2521879
:1019100069463420095E206812B21090019623E0D7
:10192000049BAB4228D06B461C229A56012F0FD144
:10193000029B012B0CD1039B0599D218089B12B274
:101940005918236809B21E692B002000B04713E024
:1019500002993BB24A430399521869463420095E02
:10196000206812B21090019568460826865F10988C
:10197000009646692000B047079B0133DBB207930E
:10198000099B5B0809930C9B013BDBB20C93002B7A
:10199000A1D10A9B0133DBB20A930B9B013BDBB263
:1019A0000B93002B00D07AE7049BAB4200D1C6E03A
:1019B0002268012F0CD1029B012B09D1059F0095B4
:1019C0000537956939B20733039A2000A847B6E076
:1019D00005210F983BB2414305980195471802989D
:1019E00039B2C000009055692000039AA847A6E0CC
:1019F0001A7AB61AF6B25A68F6001B68961913934B
:101A000033880893B3780C93F378109373790D931C
:101A1000B3790E93012F02D8029B012B0ED93422E9
:101A20006B469B181B7804325BB29BB20A936B46E1
:101A30009B181B785BB29BB20B9302E000230B93C5
:101A40000A93002523682000DB68984709950795CD
:101A5000109AEBB2934272D26B469B89029A0F9313
:101A60000B9BEB1853430F9AD31800229BB212938F
:101A7000099B05920C9A0599914257D25A1CD2B2F1
:101A800011920722134207D1089B0899139A013338
:101A9000525C9BB2079208936B461B7F5BB2002B94
:101AA0003ADA012F1ED1029B012B1BD16B46382243
:101AB0009B1800229A560F9B34219A18FF232B4023
:101AC000D2186B465B1800215956069B12B2C918F2
:101AD000059B2000C918236809B21B691E00049BDE
:101AE000B04719E048216A4652180021525E694603
:101AF0002820095E05983BB2091879430698091811
:101B0000049809B2019068460826805F009020681A
:101B1000406906002000B047079B059E5B00DBB2D2
:101B200001360793F3B20593119BA3E70C9A099B27
:101B300094466344DBB201350993ADB288E723686C
:101B400020005B6A984715B0F0BDC0462014030022
:101B5000F0B5026A85B004000B00002A2AD10A29D8
:101B600003D1437E0282DB002BE00D296BD0C17EC6
:101B7000457E007E00290DD0062141431027E65FF7
:101B800089190C27E65FB14204DD618A2282EA00EE
:101B9000521862820290E08A1221625E0190A08A4D
:101BA0001026A15F009003952000FFF73BFE237EE7
:101BB000062244E00A2908D100230382127B437ED7
:101BC0005343628A9B1863823DE00D293BD0157A0E
:101BD000A94238D3917A994235D35D1B5168EDB251
:101BE000ED004D19A978002927D0E878002824D0E5
:101BF000E77E667E207E002F12D00527EF577918EA
:101C000041438C461021675EBC440C21675EBC4595
:101C100006DD00212182127B618A724352186282A2
:101C20000290E08A1221625E0190A08A1027E15F93
:101C3000009003962000FFF7F5FD2B79227E534399
:101C4000228A9B182382012005B0F0BD036A002977
:101C500004D0002B07D1438A063303E0002B02D0C7
:101C6000438A063B438201627047000070B500253D
:101C700004AC24780573A94205D10A4B0A4A2521F0
:101C80000A4804F039FB01600949920052589B0050
:101C900002715B588371A3005B5885604371022316
:101CA000C37170BD5D190300201903006B19030097
:101CB0005C1A030007B58022074BD2051A60002288
:101CC0009A6002321A710F230C3200930349023BCF
:101CD0000348FFF7CBFF07BD68030020003000403A
:101CE00074030020002303704370704770B50E002A
:101CF0001500084C01002000FFF772F931002000A8
:101D0000FFF77BF829002000FFF777F82000FFF7A6
:101D1000D1F970BDA8020020002310B54022037045
:101D20002B211D20FFF7E2FF0A2001F09FFB10BDD1
:101D3000F8B50F0006000F4C010020001500FFF75A
:101D40004FF939002000FFF758F800212000FFF775
:101D500053F9012231002000FFF73DF92000FFF781
:101D600042F803000020834203D02000FFF740F830
:101D70002840F8BDA8020020F8B51700FF22050092
:101D80000E001C00FFF7D4FF0200BA4314433100D9
:101D90002800E2B2FFF7AAFFF8BD002310B5012228
:101DA00003702A21FE331D20FFF7E6FF10BD01233B
:101DB00010B51A0004002A211D20FFF7DDFF0123C2
:101DC000237010BD10B5FFF7F2FF10BD037810B5FA
:101DD000002B04D001234370FFF7DFFF05E04278BA
:101DE000002A02D04370FFF7E2FF10BD70B50C006F
:101DF0000500FFF7EBFF022C05D0042C05D0082CC2
:101E000004D1063C02E0002400E0012422000E215F
:101E10001D20FFF76BFF2800FFF7D8FF70BD70B5DE
:101E20000D000400FFF7D2FF2B0038222A211D20CD
:101E3000FFF7A2FF2000FFF7C9FF70BD70B50D00CE
:101E40000400FFF7C3FF2B0003222B211D20FFF707
:101E500093FF2000FFF7BAFF70BD70B505000C00BE
:101E6000FFF7B4FF0123AC705C409C400222E3B258
:101E70002A211D20FFF780FF2800FFF7A7FF70BD74
:101E800010B5FF220D211D20FFF752FF5A384342A3
:101E90005841C0B210BDF7B50400019116001F00F3
:101EA000FFF7EEFF051E0ED02000FFF735FF01996A
:101EB0002000FFF79BFF39002000FFF7B0FF310043
:101EC0002000FFF7CAFF2800FEBD0000F0B587B074
:101ED00003930378060001910292002B3BD01F4C24
:101EE0001D212000FFF77CF801212000FEF785FF6F
:101EF00000212000FFF780F8B3780622002B00D1E4
:101F0000032220001D21FFF766F80024134F38003C
:101F1000FEF76EFF04AB85B2E552B378002B08D014
:101F20003800FEF765FF2DB22D02284300B2801164
:101F300000E040B204ABE05204AB1B88019A0234CB
:101F4000138004AB5B88029A138004AB9B88039ACE
:101F50001380062CDAD107B0F0BDC046A8020020DD
:101F600030B50024034D44600560017242738373F1
:101F7000C47330BDD019030070B505000E00074CC6
:101F8000017A2000FFF72CF8E97B20003143FEF7AF
:101F900034FF2000FFF78EF870BDC046A802002075
:101FA00070B504260C00310021430500FFF7E4FF63
:101FB00001200138C046C046C046C046C046C046A3
:101FC000C046C046C046C046C046C046F1D121000A
:101FD0002800B143FFF7D0FF32200138C046C04689
:101FE000C046C046C046C046C046C046C046C046C1
:101FF000C046C046F1D170BD70B50D000400FFF7BA
:10200000BBFF29002000FFF7CBFF70BD0F2370B589
:1020100016000C00994311430500FFF7EDFF210165
:1020200034000C432800E1B2FFF7E6FF70BD10B5A5
:102030000122FFF7EBFF012010BD10B50022FFF7D2
:10204000E5FF10BD10B50121FFF7F7FFFA20C00032
:102050000138C046C046C046C046C046C046C0461D
:10206000C046C046C046C046C046F1D110BD0000C3
:10207000F0B585B06D460C4B8C46C2CBC2C51B6813
:102080006C462B60037B934201D2013BDAB2920093
:10209000A3586344190080235B421943C9B2FFF778
:1020A000CCFF05B0F0BDC046D81903000023437132
:1020B0000023C36083607047F0B500260D00170051
:1020C00085B0067046708670C670067104000121E6
:1020D000280001F03FFB3100280001F059FB3800D7
:1020E00001F0C4F92800310001F034FB2820013848
:1020F000C046C046C046C046C046C046C046C046B0
:10210000C046C046C046C046F1D19136FF362800D1
:1021100001F054FB002806D1013EB6B2002EF6D1E4
:102120000220404245E0C8267600280001F046FB28
:10213000012804D1013EB6B2002EF6D1F0E72823E3
:102140000026019358330293C8277F00280001F02E
:1021500035FB002804D1013FBFB2002FF6D1DFE7E5
:1021600001F06AF9C82703907F00280001F026FBE0
:10217000012804D1013FBFB2002FF6D1D0E701F012
:102180005BF9039BC01A282803D9A35D029A134365
:10219000A355029B5B1001D0DBB202E08023013625
:1021A000F6B2019802930138C3B20193002BCBD150
:1021B000180005B0F0BD0000F0B5437985B004000B
:1021C000002B00D072B612222000FFF775FF637952
:1021D000002B00D062B6002803D0234BA360E3603D
:1021E0003FE0637825781800019303F005FF1F4A4C
:1021F0001F4B03F0FDF8060028000F0003F0FCFE63
:1022000002000B003000390002F0A2F903F0C2FF17
:10221000A0607F20A678E778304003F0EDFE0290C2
:102220000391380003F0E8FE104A114B03F0E0F888
:102230000B0002000298039902F08AF903F0AAFF4A
:1022400073B2002B02DA80231B06C018019BE060EA
:10225000E81830183F182379F8B2181A471EB84109
:10226000404205B0F0BDC04600C079C49A99999922
:102270009999B93F10B50400C06804F0C7F8062367
:10228000E05E002802DB002101F064FA200010BDAE
:1022900010B504000623C05E002807DB012101F011
:1022A00059FA0623E05E002101F072FA01236370FF
:1022B00010BD70B50500C0680E0004F0A7F8EB7CF7
:1022C0002C7C1C1B63425C4104231C1B7443A4B282
:1022D000AC80200004F090F8E860002805D02200CF
:1022E000002104F0A6F86E8001E0A880688070BD2F
:1022F000C37C027C70B59A1A54425441E2B2032462
:102300008B110D118E102640234025400C40467441
:102310008474FF2600248E426441C168C37405742E
:102320000470002907D05B1B5C425C41944202D0E0
:102330004188FFF7BEFF70BDF8B5C3680400002BED
:102340002BD001F079F86369984200D2606163692B
:10235000C01A2C23FF339842F3D972B60621635E6C
:102360000E499B005B580121A28899400C48E36804
:1023700008E001702F4200D101717F0807D10133BD
:10238000013A05D38027C04601711D78F1E7FBE7CC
:10239000017162B601F050F86061F8BD5C1A03008B
:1023A0000805005070B5437804000D00002B06D0DE
:1023B0000623C05E002802DB002101F0CBF9637820
:1023C000E580002B07D00121280001F0C3F900218E
:1023D000280001F0DDF970BD70B515000022040081
:1023E0000E0042700272C26042611900FFF780FF66
:1023F00031002000FFF75DFF29002000FFF7D2FF2A
:10240000200070BD4388F7B58B4233D9037A150C91
:10241000140A002B04D1E4B2EDB20194D6B20AE062
:10242000FF26344035405C4316405D435E43240A3A
:102430002D0A0194360A077CB446C67C3C1EC76848
:10244000B44203D1032359437F180AE089007F185F
:10245000120EBE19002B01D1D3B201E053431B0A67
:1024600033706A46037C1279FD54437CFA54624609
:10247000837CFA54F7BD70B5060015002B290AD8E5
:1024800001202A2966D228290DD0292945D11000FA
:1024900000F0ECFF5DE02D2919D014D30B004C3B6C
:1024A000012B27D939E0002423002C33F05CFF28CE
:1024B00005D001210F2C00D9022101F04BF9013484
:1024C000162CF1D145E00120002A04D141E005207D
:1024D000022A00D903380138C046C046C046C0466B
:1024E000C046C046C046C046C046C046C046C046BC
:1024F000F1D12EE03F20084030182C30002A07D1BF
:1025000004000121007801F025F92078290012E06B
:102510000078022101F01EF91BE000203F2919D9A3
:102520003F30084033182C331C78FF2C11D00F2873
:1025300004D82900200001F02BF90AE0102801D16D
:1025400000F0B0FF200001F039F9431E9841083631
:10255000F077012070BD10B5040037342170010000
:10256000393038310A70037010BD0000143970B56D
:102570000400081E0C282AD801F0E2FD0C292907C6
:102580001825292929292929230019001148FEF78E
:1025900017FC16E0A369002B04D123685A7B0E4B6D
:1025A0005343A3610B48FEF761FC0AE0094DA169A2
:1025B00028000534FEF78CFCE17F28004908FEF76F
:1025C0000FFD012004E00348FEF774FDF9E7002049
:1025D00070BDC046A8020020A08601000300F0B52F
:1025E00050331B7885B00293030005000026513359
:1025F0001F7803685B7C03932B68B1B21B7CF4B239
:10260000D8004143E86C89B241183A190091D2B21E
:102610000021280000F070FE0134029BE4B2A342C6
:1026200005D90136BB19039ADBB29A42E4D805B04A
:10263000F0BD020010B5036850321B7C1278C06CEC
:102640005A430021D20003F0F4FE10BD030010B580
:10265000040051331970836C1B689847A36C2000E9
:102660005B68984710BD030010B5AB331B780400BE
:10267000002B01D0FFF7DDFF00212000FFF7E6FF70
:1026800010BD70B50400FFF7A9FF230051331D787A
:10269000013B1B78ED182368EDB25B7CAB4204D89C
:1026A000200000F04BFE00200CE02300AB331B7831
:1026B000002B02D02000FFF7BCFF20002900FFF70D
:1026C000C5FF012070BD10B50400FFF7CCFF20004E
:1026D000FFF7D7FF011EFAD12000FFF7B7FF10BDAB
:1026E0000123037000487047880300207FB50F2541
:1026F0000E006D44009308491300084A040000F0DE
:1027000045FE2800FFF7ECFF2A7801000096044BF5
:10271000200000F0DCFB7FBD55320000B930000026
:102720000D2D0000411808784B780002C01880B2C7
:1027300070470020704770B50B780D0003704B7820
:10274000040043708B788370CB78C3700B7903716E
:102750004B7943718B798371CB79C3710B7A037297
:102760004B7A43728B7A8372CB7AC3720B7B03737F
:102770004B7B43738B7B8373CB7BC3730B7C1121AC
:1027800003742800FFF7CEFF132160822800FFF7B3
:10279000C9FF1521A0822800FFF7C4FFE08270BDA9
:1027A00070B50468067B23787218D2B23341072AC9
:1027B00001D8DBB20AE0651C056065780824A41B1B
:1027C000E4B2A540083A2B43DBB2D2B20273012037
:1027D00088400138184070BD70B50400002378347B
:1027E0008167237303000500903319782000FFF7F9
:1027F000D7FF2B00A072913319782000FFF7D0FF8C
:10280000AA35E0722B78A3735A425341E37370BD2B
:1028100010B50C00FFF7C4FF0123013CE4B2A34054
:10282000C01A40B210BD012B07D0002B03D0022BE1
:1028300005D1801A04E0801802E0401800E0401A38
:1028400080B27047012B07D0002B03D0022B05D19B
:10285000401A04E0401802E0801A00E0801880B2BC
:1028600070470300F0B504000E008DB00B92783372
:102870001F7A5B7A049325007835AB7ADB1BDBB2D9
:102880000293029A331C964201D96B461B7ADBB243
:102890000693EB88A8880A936B461B7C79B2059354
:1028A0002B7C089103936B461B7D5BB20793079AC1
:1028B000039BFFF7C7FF039B0990079A08990A98A3
:1028C000FFF7B1FF0B9B0200002B01D0A97B03E0B7
:1028D0006B7B002B0BD1E97B2300AA3319706B466D
:1028E00003991B8B20000091099900F078F9029B55
:1028F0009E4207D3F31ADEB2049B00270133DBB2FA
:102900000493B8E77834F31923726B461B7D637226
:102910000DB0F0BDF0B5040089B00500FFF75CFF15
:10292000230083331B78783505932300923319787D
:102930002800FFF76DFF23000690933319782800D5
:10294000FFF766FF23009433197807002800FFF78C
:102950005FFF0A230790EB560293002B00DC82E016
:10296000059B0699DF192B7C7F4203937FB2A888D1
:102970003A00FFF767FF0490A880039B3A0006998E
:102980000600E888FFF74FFF039B02000100E88084
:10299000032B30D8180014276B46DF5701F0D0FB0B
:1029A000020A1422029833008446D11963449BB270
:1029B00089B222E0049B0298DF1B01370133111812
:1029C0009BB289B2BEB218E00122029BD61A049BC8
:1029D0009E199B18D21B8A1801319BB289B292B200
:1029E000B6B20AE0029AF7198A1A01320131BBB273
:1029F00089B292B201E00100330000912000310061
:102A000000F06BF900282ED02300002278331A72D0
:102A10005A7223008E3319782800FFF7C1FE230075
:102A20008F33070019782800FFF7BAFE060000224E
:102A300039002000FFF715FF310020000122FFF7C9
:102A400010FF01212800FFF7ABFE0028EFD1230083
:102A50006A4609217833127D595652B29142D8DB29
:102A60009B7BAA342370079809B0F0BD026F70B544
:102A700017320C1EFF2C10D8602901D9A03002E0BB
:102A8000402902D99E300388D2185378181E20D0CE
:102A90001178901CA142F7D11BE0A23000881518D4
:102AA0002E0000213000FFF73DFE02212D183000DE
:102AB000FFF738FE04368442F3D828786B7800029A
:102AC000184306D0844201D1E81C02E0AB78ED182F
:102AD000F3E770BDF8B51F000300883304001878D1
:102AE0000E001500032815D8636F01F029FB0206BC
:102AF0000A0F200098472D1806E020009847361A44
:102B000007E0200098472D1AADB203E02000984757
:102B10003618B6B223007C3339001E805D80200059
:102B2000FFF7A4FF011E03D02000FFF7F3FE80B2E1
:102B3000F8BD036FF0B5002B30D003000500040092
:102B4000010099331A78A6352A7001331B78A7340F
:102B50002370A5310978002920D052B25BB2012937
:102B60000DD101009B3109784EB2B24200DA2970D2
:102B70009C30027851B28B4210DD22700EE00100D1
:102B800098309631097800784EB247B2F619B242C1
:102B900001DA09182970BB4200DD2070F0BD000089
:102BA000014B43677047C04633270000036F10B5E1
:102BB00004008B4206D001678C30FFF7BCFD20007B
:102BC000FFF7B7FF10BD37B5050056352D8806ACA9
:102BD0002478521B009492B2446CA04737BDF7B5DD
:102BE0000500A4352D7808AC2478002D66D0002B84
:102BF00064D0012B0AD9022C03D10131C91A89B240
:102C000004E0032C02D10132D21A92B201252540F0
:102C10000400002D27D16434248894424ED8040047
:102C200066342488944249D904000600CB186034E5
:102C300062369BB2248836888B4205D28E4202D9F6
:102C4000731E9BB202E021008E4237D99C4235D2DE
:102C5000271C8C4200D20F1CB9B2341C9E4200D9F2
:102C60001C1C631A25E0603424888C4226D804009A
:102C7000623424888C4221D90400D3186434268815
:102C80009BB202342488934205D2944202D9631E37
:102C90009BB202E03200944210D99E420ED2371C01
:102CA000964200D2171CBAB2261C9C4200D91E1CA8
:102CB000B31A846C00959BB2A468A047F7BD8A4202
:102CC00006D20121834206D893429B41594202E039
:102CD0008342F9D800210800704770B50D0001004B
:102CE00004001E00663104AB64301B88098800882C
:102CF000FFF7E5FF002808D023006034623319880D
:102D0000208833002A00FFF7DAFF70BDF7B5050011
:102D100008AC2478AA3500942D7807271600AC4615
:102D200001243E40B44001976746E4B20025012FDC
:102D300004D801D0250001E025000024019FBA43FA
:102D400007683F7C7A4392B25118C26C5118009ABE
:102D5000002A09D10A78013B2A4362409BB20A70DB
:102D60000131002BF6D121E05222944607278444FA
:102D7000AA300A7801362A436240013B0A703E407D
:102D80009BB2002E0AD16246128889180278012A65
:102D900009D80125AA4207D02C0005E06D00640087
:102DA000EDB2E4B200E00124002BE2D1F7BD030054
:102DB0000100F0B550331E785431B3B2DC00026824
:102DC0000C800400117C5234C90021800100513173
:102DD0000C780531A7B2FD000D80517C34198C426E
:102DE00001DDC91B8BB20100DB00EB1858314B80B1
:102DF00003000D80918A5C331980D38A5E30038092
:102E0000F0BD13B504AC24780094FFF7DCFE13BDCD
:102E1000F0B5060005000700040085B06E306A3684
:102E20006C35683733882A88398803900088009089
:102E30002000FFF752FF2300A433002801D11870AF
:102E40001DE001221A70230060333A8819889142EC
:102E500000D21A802300623332881988914200D947
:102E60001A80230064332A881988914200D21A807C
:102E7000039B66341B8822889A4200D9238005B0C0
:102E8000F0BD03000022603310B51A8002005C32EE
:102E900012885A800200583212889A8002005A32F0
:102EA0001288DA80FFF7B4FF10BD10B5FFF77FFF7F
:102EB00010BD0200002310B56832138093800232E7
:102EC000013B13809380836C5B68984710BD70B59D
:102ED00004006364230000255033E16425671A7001
:102EE0005D7035331D7024331D702200043B1D704E
:102EF0000123AA320498137053700368A064200061
:102F000098472000FFF7D5FF20008834FFF748FEE0
:102F1000257070BD002902D088B20A2900D101486D
:102F20007047C046FFFF000010B50200002933D0F3
:102F30000A2931D0C31DDC7F002C20D1FB2903D905
:102F40000520D877012317E0F72903D90420D87783
:102F5000032311E0EF2903D90320D87707230BE0DF
:102F6000DF2903D90220D8770F2305E088B2BF29D3
:102F700015D90120D8771F23194011840EE0013C98
:102F8000E4B2DC77038C3F209B010140194388B2F7
:102F90001084002C02D102E0014800E0014810BD7D
:102FA000FFFF0000FEFF000000230730C3777047DB
:102FB00010B5130004690A001721A04710BD07B51A
:102FC0006B46DA1D11700121FFF7F2FF0EBD0023E1
:102FD00010B51A0004691821A04710BD002310B5D0
:102FE0001A0004691921A04710BD70B5040016002D
:102FF0000D00FFF7ECFF40212000FFF7E0FF33005A
:103000002A00172125692000A8472000FFF7E6FFC6
:1030100070BD10B50A00C46800231521A04710BD7B
:1030200010B50A00C46800231621A04710BD10B5D2
:103030001300C4680A001721A04710BD002310B573
:103040001A00C4681821A04710BD002310B51A004B
:10305000C4681921A04710BD73B505000C00217884
:10306000172916D009D8152925D36B466278280070
:10307000DA71EE680023B0471BE0192912D9FE2946
:1030800019D16B46627829212800DA7100F05DF9C8
:103090000FE06B46DA1D6378012128001370FFF7FB
:1030A000C6FF06E0002328001A00EE680134B0478E
:1030B000D5E70234D3E773BD1439F8B50400150021
:1030C0001E000020052956D8080001F039F8380301
:1030D000191E4549284B1A781E00002A02D02000EC
:1030E000FFF77CFF2000FFF772FF00212000FFF7B1
:1030F00066FF29002000FFF762FF012030703AE0F0
:1031000011002000FFF75BFF34E01B4B1A781F0013
:10311000002A02D02000FFF761FF3200182D07D9E6
:1031200018212000183DFFF760FFEDB21836F4E7D4
:1031300029002000FFF759FF00233B701AE0631DB0
:10314000DA7FFF2A01D1873ADA77276933002A002C
:1031500014212000B8470EE00022074B1A7009E046
:10316000054B1A781D00002A02D02000FFF736FF19
:1031700000232B700120F8BD080400200B39F8B59E
:10318000040015001F00081E042858D800F0D8FFBE
:1031900003570B1D2D002B49002A00D02A4920007F
:1031A000FFF75AFF1FE0E61C002A06D1274920003E
:1031B000FFF752FF23689B7C05E025492000FFF7BD
:1031C0004BFF2368DB7CF3770DE02000FFF736FF31
:1031D00081212000FFF71DFF29002000FFF720FFBD
:1031E0002000FFF732FF01202AE02000FFF726FF32
:1031F0007E79E31CDB7F4021F6002000F618FFF704
:1032000008FF1021F6B2330919432000FFF701FF30
:103210000F2120003140FFF703FFB023B9792000D0
:103220001943FFF7FDFE3979013DC900C9B23A687B
:103230002000EDB2FFF7FBFE002DF4D1D0E7002017
:10324000F8BDC046F4190300F9190300181A030069
:10325000541A030070B504000D00FFF78FFF00281B
:103260000FD1092D09D00A2D0CD1200000F015F83E
:1032700005492000FFF7F0FE03E00449200000F0BC
:1032800007F8012070BDC0461F1A0300001A030092
:1032900001608B7C0330C3777047002370B51A0040
:1032A000282145690400A8470023E5681A00142175
:1032B0002000A847200001224B2100F046F8236897
:1032C00020001A79292100F040F8200000224B212B
:1032D00000F03BF8236820001A79292100F035F826
:1032E000200001224B2100F030F8236829215A796F
:1032F000200000F02AF870BD13B56C462371049BC2
:103300006171A271009384686B4601220F21A0476E
:1033100016BD002310B51A0084680921A04710BD0E
:10332000002310B51A0084680A21A04710BD10B50B
:103330000A00846800230B21A04710BD002310B5AC
:103340001A0084681021A04710BD10B500234469FD
:10335000A04710BD0020704700230B4A0360826025
:10336000C26002614261021DD377C21DD3778361BF
:10337000421DFF33D377233213704230043213706F
:1033800001328242FBD1704755330000F8B504008A
:103390000F0016001D00FFF7DFFF069BA760E66029
:1033A000256163612000FFF7B4FFF8BD03210A48DF
:1033B00002680A430260094802680A430260084939
:1033C000084A094B9B1A03DD043BC858D050FBDC6C
:1033D00000F012F8FCF7CEFE240500405405004032
:1033E000AC1E03000000002054010020FEE7FEE7B1
:1033F000FEE7FEE7FEE7FEE7014A024B1A60704770
:103400000024F40048000020084A0949094B10B57F
:103410001B688858FA22190A1B06184392000023D9
:1034200001F04CF84904C00B084310BD040500002E
:10343000001001400C040020084B094A09491B6890
:103440008858190A1B0610B51843074A002301F0D3
:1034500035F84904C00B084310BDC0460C040020D9
:10346000040500000010014040420F0070B5041E2A
:1034700009D0FFF7C9FF050000F014F8FFF7C4FFFB
:10348000401B8442F8D870BD0022044B9A60044A65
:1034900013680133DBB213607047C046FC10014073
:1034A0000C04002070470000F7B50023202877D8CF
:1034B0003C4B8000C258042A14D006D8022A0DD0F2
:1034C0000ED80423012A14D069E0062A0ED00BD3AB
:1034D0001A2A0DD002231B2A0BD060E0082308E033
:1034E000102306E0202304E0402302E0802300E0D4
:1034F00001232D4A1268082A04D9092A05D00A2175
:10350000022404E00821002401E011000124A02588
:1035100001261C272548ED004651254D254E2D68D6
:103520001B02AD003D400195234D2D680095855946
:10353000AC466746214D3D401D4385518359C0250A
:103540009C46009BAD021D40FF2367461B023B408B
:103550002B43019D1D43009B5F0160231F402B00F7
:103560003B431C4301238451154C036063680F489F
:10357000002BFBD00024124B01255C60A123DB0053
:10358000C3584560A025ED0044511BB2914207D0BD
:1035900002D98A1AD34003E0521A934000E0002374
:1035A0001800FEBD5C1A03005800002000700040A7
:1035B00050000020040500004C000020FF00FFFF29
:1035C000FC700040F0B520286CD8374B8000C25802
:1035D000364B1E68002E2ED1C2243548A400075950
:1035E000344B03253B40C0273F023B43035180231C
:1035F000893C9B00FF3C03512F4F03602F4B803CC5
:10360000D859FF3CA043D8510437D859A843204388
:10361000D8510837D8590C35A843083D2843D8510C
:10362000A820C0001E508026C120760280001E50B7
:103630001C601E4B1C6000231426214834005C4390
:10364000255804006F1C0FD1142058432250A0208D
:103650000325C132FF329200C0051550194A0800F7
:103660001268082A03D10BE0AA4218D1ECE7082A15
:1036700002D9083AD14002E00820821A914008009D
:1036800014225343E3189A680C495132FF329200D6
:1036900058605050DA68C1239B00CA5002E00133E1
:1036A000032BCBD1F0BDC0465C1A030010040020F0
:1036B00000E100E0FF00FFFF040500000090004073
:1036C0005C000020540000201E4BF0B5596C18001F
:1036D0001D4A002914D0A025A12600230124ED05B0
:1036E000F600D1584F1C06D0D7187F68002F02D0A3
:1036F00027008F40AF5114333C2BF2D10023436499
:10370000131DA02540329446002001240F4EED05E4
:10371000DA680F49920057180A495218526C002A69
:103720000CD01A1F1268511C05D01968FF2902D04D
:1037300021009140A9513A00FC32506414339C4559
:10374000E6D1F0BDFC9000405C0000200C050000BC
:103750000090004000B5202816D80C4A83009B58E2
:10376000032911D8A0220800C133FF33D2059B00E2
:1037700000F0E6FC02080406002104E00C2102E04F
:10378000042100E00321D15000BDC0465C1A0300B3
:1037900020280DD8074B8000C25801239340A02257
:1037A000D205002901D1044901E0A121C9005350EB
:1037B0007047C0465C1A03000C050000030000209F
:1037C000202B0AD8A222A021D200C9058858034A7A
:1037D0009B009B58D8400123184070475C1A030097
:1037E000F7B506000D000C008B180193019B671BB9
:1037F0009C4207D0336821781B6830009847013419
:103800000028F3D13800FEBD70B505000C00081E7D
:1038100007D003F091FC2B6802005B6821002800B0
:10382000984770BD10B5FFF7EFFF10BD10B50368E6
:103830001B68984710BD000010B50249FFF7E4FF70
:1038400010BDC046E01A030070B50500FFF7DCFFAD
:1038500004002800FFF7F0FF001970BDF0B5160056
:1038600000228DB002AB053301900D00DA77012EF6
:1038700000D80A260BAC2800310000F0F1FC0F0044
:10388000CBB228003100009300F064FCFBB2373368
:103890000500013CDBB2092F02D8009B3033DBB2BC
:1038A0002370002DE7D121000198FFF7ADFF0DB087
:1038B000F0BD10B5002A04D10368C9B21B6898474F
:1038C00002E0D2B2FFF7CAFF10BD70B50400FFF7E7
:1038D000F0FF05002000FFF7AFFF281870BDF8B516
:1038E00006000C00151E04D10368C9B21B68984776
:1038F00014E0D2B20A2D0DD12A0000290ADA2D21B6
:10390000FFF794FF614207002A003000FFF7A6FF8F
:10391000381803E021003000FFF7A0FFF8BD10B514
:10392000FFF7DDFF10BD70B50500FFF7D8FF0400FD
:103930002800FFF781FF001970BD0000F0B51E00E0
:1039400085B00AAB1B783100050010001700029308
:1039500000F0C8FB4549002806D03800310000F0CF
:10396000C1FB012804D142492800FFF74DFF7BE04D
:10397000E022404B12063800310000F08BFD002899
:1039800001D03D49F0E7E0223C4B120638003100FF
:1039900000F06CFD0028F4D1002200233800310033
:1039A00000F064FD002808D02D212800FFF73EFF1D
:1039B00080231B060190F61800E0019000240020EF
:1039C0002F49029BA34206D000222E4B013401F066
:1039D000EBF8E4B2F5E733003A0000F0B9FD0F0070
:1039E000060000F097FD0A22039001002800FFF76F
:1039F00035FF019BC418029B2000002B34D0039894
:103A000002F03CFB0B0002003900300001F06AFFBD
:103A100006000F0028001C49FFF7F6FE2318029C41
:103A20000193184B00223000390001F0E1FC0F0037
:103A3000060002F0ABFA0A22010002902800FFF70C
:103A40004EFF019B013C1B180298019302F0D4FA2F
:103A500002000B003000390001F044FFE4B2060020
:103A60000F00002CDDD1019805B0F0BDE31A030072
:103A7000E71A0300FFFFEF41EB1A0300FFFFEFC15E
:103A80000000E03F00002440EF1A030037B51D009E
:103A9000069BDBB200932B00FFF750FF3EBD37B50E
:103AA00019000500069B2800DBB200930B00FFF70E
:103AB00045FF04002800FFF7BFFE00193EBD10B50A
:103AC00040220021040002F0B4FC00232000236403
:103AD000636410BD3F23026C10B5541C2340446C3A
:103AE0009C4201D08154036410BD002303644364ED
:103AF0007047436C026C934206D03F21C25C013395
:103B00000B404364100001E0012040427047036C09
:103B1000406C181A00D540307047436C026C9342D9
:103B200001D0C05C01E0012040427047036C406C52
:103B30005A1C3F231340181A42424241D0B27047E8
:103B400010B50400FFF760FCE06023682000DB682C
:103B50009847002808DAFFF757FCE368C01AA36803
:103B60009842F2D30120404210BD816070470000AE
:103B700070B50D000749040000F0E7F92800FFF7D1
:103B8000DFFF002804DBC1B2200000F030FAF5E7C7
:103B9000200070BDE21A03000120704710B50368D1
:103BA0001322DB69984710BD704700000369054A7E
:103BB0009950FC331A6A002AFCD0002201201A62B4
:103BC0007047C0461C050000030010B55C331A782E
:103BD0001F2313400122110099400D4B0424D96783
:103BE000C221036989005C505A60DA60A02200217A
:103BF000D20099500122074952425A5006491430C6
:103C00005A500C395A5008315A50FFF76EFF10BD08
:103C100004E100E00C0500001405000010B51430AC
:103C2000FFF775FF10BD10B51430FFF776FF10BD1C
:103C300010B51430FFF75DFF10BD0000030070B534
:103C40005E331C780269604BD45003005D331C78EE
:103C50005E4BD450030061331C785D4B012C0CD1BA
:103C600005005F352E78A225ED0056510500603520
:103C70002E78A125ED00565100E00024D450962363
:103C8000DB00994238D996231B01994237D99623F4
:103C90005B01994236D996239B01994234D9E1239D
:103CA0009B01994232D99623DB01994231D9E12314
:103CB000DB0199422FD996231B0299422DD9E1238A
:103CC0001B0299422BD996235B02994229D9E12301
:103CD0005B02994227D9E1239B02994225D93D4BAA
:103CE000994224D9E123DB02994223D9E1231B0322
:103CF000994221D8384B21E09E23DB021EE09D2310
:103D00001B031BE0354B19E0354B17E0EC239B03FD
:103D100014E0344B12E0344B10E0344B0EE0344BE3
:103D20000CE0344B0AE0344B08E0344B06E08023CF
:103D3000DB0403E0324B01E080235B0531490024C2
:103D400053500423243953501100FC31CC600C62D1
:103D5000C1210134890014605C30946053500378B1
:103D60001F202200D9B20840824080342648FF3408
:103D70005BB20251002B13DA0F230B40083B234C9C
:103D80009B089B001B1903242140A140FC348C405C
:103D9000DD69A543C0248C4021002943D96111E08D
:103DA000194C9B089B001B1903242140A140C025EE
:103DB000FC348C40AD005E59A643C0248C402100E9
:103DC00031435951026070BD0C050000140500001C
:103DD0006C05000090D0030000D0BE0E00B01300B0
:103DE0000050270000A04E0000F0750000509D001C
:103DF00000F0EB0000903A0100E0D70100B0AF0303
:103E000000705F072405000000E100E000ED00E025
:103E1000F7B5009308AB1B7800250193FA23040043
:103E20009B0083600E4B45600833036014300F0025
:103E30001600FFF744FE23005C3327611E70009BD1
:103E4000084A9B00995823005D331970019B20009C
:103E50009B009A5823005E33DD701A70FEBDC04689
:103E6000F41A03005C1A0300036910B51A00FC324F
:103E7000D2680400002A0AD0A322D2009958143034
:103E8000C9B2FFF727FE00222369FC33DA6010BDB8
:103E900010B50248FFF7E8FF10BDC046140400202B
:103EA000162307B5022200930249013B0248FFF79F
:103EB000AFFF07BD002000401404002010B504002F
:103EC000006802F0A3FA200010BD10B504000068DD
:103ED000002801D002F09AFA00232360A3606360F7
:103EE00010BD70B504000D000068013103F0F6F854
:103EF000031E01D0012028C470BD036810B5040062
:103F0000002B02D043688B4209D22000FFF7E9FF63
:103F1000002805D0A368002B01D12268137001206E
:103F200010BD70B50E00110004001500FFF7E5FF8D
:103F3000002803D12000FFF7C8FF04E0A56031008E
:103F4000206803F0F1F8200070BD002370B5040074
:103F50000D1E0360436083609D4207D0080003F09C
:103F6000EBF8290002002000FFF7DBFF200070BD06
:103F700070B5050000680C0000280CD06B688A68DA
:103F8000934206D3096803F0CFF8A368AB6000231F
:103F90000AE002F03BFA23682B6063686B60A36859
:103FA000AB60002323606360A36070BD10B5041E86
:103FB0008C4201D0FFF7DCFF200010BDF8B50400F3
:103FC0000F1E01D1002610E00126002A0DD08368C3
:103FD000D5182900FFF791FF0028F3D02368A268C5
:103FE0003900981803F0A0F8A5603000F8BD07B5B7
:103FF000002201AB19705A7019000132FFF7DEFF81
:104000000EBD836810B5002B04D1012000290DD00E
:104010000B7808E0002902D103681B7803E00068F0
:1040200003F078F8030058425841C0B210BD70B593
:104030000D00002A14D0002912D08168994202D8BC
:1040400000232B700CE0541EC91A8C4200D90C00BE
:1040500001682200C918280003F075F800232B55C9
:1040600070BDFEE77047000010B500F011F8FFF7D3
:10407000F9FF0120FFF7FAF9FCF784F9FCF734FAAD
:10408000024B002BFAD000E000BFF7E70000000071
:10409000C421114A89005058104B0340C02000022F
:1040A00003435350802391399B02FF3953501360CF
:1040B0008023A3220021DB05D20099500122A120F8
:1040C0009A60074BC0001950C1200231800019507E
:1040D000403019501A60704700E100E0FF00FFFF18
:1040E000001001400A000300024330B50220002AFC
:1040F00000D130BD80221206914216D00C4A0D4CE0
:104100008A180420A242F4D90B4A8A18A242F0D994
:104110000A4A4900490803209142EAD9064A002088
:104120009142E6D158425841E3E7002BE1D0EFE756
:104130000000F0FFFFFFDF7F0000F07FFFFF0F00B8
:1041400002B4714649084900095C49008E4402BC2A
:104150007047C046002243088B4274D303098B4248
:104160005FD3030A8B4244D3030B8B4228D3030C47
:104170008B420DD3FF22090212BA030C8B4202D3E9
:104180001212090265D0030B8B4219D300E0090A11
:10419000C30B8B4201D3CB03C01A5241830B8B421A
:1041A00001D38B03C01A5241430B8B4201D34B0303
:1041B000C01A5241030B8B4201D30B03C01A524168
:1041C000C30A8B4201D3CB02C01A5241830A8B42ED
:1041D00001D38B02C01A5241430A8B4201D34B02D6
:1041E000C01A5241030A8B4201D30B02C01A52413A
:1041F000CDD2C3098B4201D3CB01C01A52418309EE
:104200008B4201D38B01C01A524143098B4201D327
:104210004B01C01A524103098B4201D30B01C01A52
:104220005241C3088B4201D3CB00C01A52418308CC
:104230008B4201D38B00C01A524143088B4201D3F9
:104240004B00C01A5241411A00D201465241104659
:104250007047FFE701B5002000F0F0F802BDC0464E
:104260000029F7D076E7704703460B437FD400223E
:1042700043088B4274D303098B425FD3030A8B42FA
:1042800044D3030B8B4228D3030C8B420DD3FF2264
:10429000090212BA030C8B4202D31212090265D032
:1042A000030B8B4219D300E0090AC30B8B4201D3E5
:1042B000CB03C01A5241830B8B4201D38B03C01A2C
:1042C0005241430B8B4201D34B03C01A5241030BA3
:1042D0008B4201D30B03C01A5241C30A8B4201D354
:1042E000CB02C01A5241830A8B4201D38B02C01AFF
:1042F0005241430A8B4201D34B02C01A5241030A76
:104300008B4201D30B02C01A5241CDD2C3098B425A
:1043100001D3CB01C01A524183098B4201D38B01D7
:10432000C01A524143098B4201D34B01C01A52417A
:1043300003098B4201D30B01C01A5241C3088B42BF
:1043400001D3CB00C01A524183088B4201D38B00AA
:10435000C01A524143088B4201D34B00C01A52414C
:10436000411A00D201465241104670475DE0CA0F23
:1043700000D04942031000D34042534000229C46E3
:1043800003098B422DD3030A8B4212D3FC228901ED
:1043900012BA030A8B420CD3890192118B4208D3C3
:1043A000890192118B4204D389013AD0921100E025
:1043B0008909C3098B4201D3CB01C01A5241830939
:1043C0008B4201D38B01C01A524143098B4201D366
:1043D0004B01C01A524103098B4201D30B01C01A91
:1043E0005241C3088B4201D3CB00C01A524183080B
:1043F0008B4201D38B00C01A5241D9D243088B4261
:1044000001D34B00C01A5241411A00D20146634603
:1044100052415B10104601D34042002B00D5494267
:10442000704763465B1000D3404201B5002000F0A6
:1044300005F802BD0029F8D016E770477047C0465E
:104440008446101C62468C46191C634600E0C04638
:104450001FB500F063FF002801D40021C8421FBD32
:1044600010B500F0B7FE4042013010BD10B500F0AD
:1044700055FF002801DB002010BD012010BDC04603
:1044800010B500F04BFF002801DD002010BD012019
:1044900010BDC04610B500F0DDFE002801DC002094
:1044A00010BD012010BDC04610B500F0D3FE00289D
:1044B00001DA002010BD012010BDC046F0B54F4606
:1044C0004646C0B41604360C9946330005042C0C3D
:1044D000070C150C63437E436F4365431C0CAD19F9
:1044E00064199C46A64203D980235B029846474440
:1044F0006346250CEF191D044B464A4343432D0CDC
:10450000240464199918C91920000CBC90469946D6
:10451000F0BDC04670B500220C4B04000D00FFF743
:10452000C3FF002804D12000290001F02FFD70BD39
:10453000064B00222000290001F0D4F901F026FDED
:1045400080231B069C466044F1E7C0460000E04122
:10455000F8B556465F464D464446F0B40F00FD0F91
:10456000AA4609037C002E005F00450F490A7F0D13
:104570002943C5001803BC46400A570F640DDB0FE2
:104580003843D2009A4500D1AAE06646A61B002E09
:1045900000DCFFE06346002B39D10300134300D059
:1045A000D9E06B0709D00F232B40042B05D02B1D1E
:1045B000AB42AD416D4249191D000B0200D482E0AF
:1045C000CA4B01349C4200D1FEE00A005646C84B5B
:1045D000ED081A405007640552020543120B640DA2
:1045E000002112030B0D1B056405120B1A4363080F
:1045F000C04CF60714401C43640064083443280090
:1046000021003CBC90469946A246AB46F8BDB74B4C
:104610009C42C6D080231B041843382E00DDEBE0FB
:104620001F2E00DD1EE120239B1B9C4603006746D6
:10463000BB40984613004746F3403B436746BA40A9
:10464000571EBA4113430200F240EB1A9D42B64195
:104650001D008A1A7642911B0B0231D54A02560A76
:10466000002E00D1B4E0300001F020FE0300083B32
:104670001F2B00DDB5E020222900D21AD1409E4038
:104680000A009D4032439C4200DDB1E01C1B631CCC
:104690001F2B00DDD5E0202114002800C91A8C4012
:1046A000D8408D400443DA40681E854111002543FF
:1046B000002476E74146314300D134E231004546DB
:1046C0006B0700D06FE756464807ED08C908054359
:1046D000864B9C4235D00A036405120B640D7FE7BC
:1046E0006346E31A9B46002B00DC8BE06746002FF5
:1046F0003CD07E4FBC4200D153E780273F04384373
:104700005B46382B00DCF7E00243501E824100205C
:10471000D2B253194218AB4289411D00494289184F
:104720000B02CDD5714B01349C4200D13DE10120FB
:104730006F4A6B080A4028401843D50705435108C3
:104740002FE72B000B4300D1CBE180231B030B434E
:104750001A03120B44E7013E002E6DD1AE1AB5428A
:104760009B41091A5B42C91A350075E707001743D8
:1047700000D116E701235B429C46E3445B46002BD5
:1047800000D0E0E0AA18AA429B4109185B425918E0
:104790001500C5E7002E75D1661C7605760D012E35
:1047A00000DCF3E0AE1AB0464545BF410E1A7F4229
:1047B000F61B370200D48FE0551BAA42B641411ABE
:1047C00076428E1B9A464BE756460022002507E7A5
:1047D000280001F06BFD20300300083B1F2B00DC9C
:1047E00049E72A002838824000259C4200DC4DE73A
:1047F0003F49E41A1140D4E60243501E8241D3B22D
:10480000002222E7002B00D0F3E0631C9C465B05EE
:104810005B0D012B00DC9FE0344B9C4500D1C3E0D5
:10482000AA180918AA42804140424118CD075208EF
:10483000154349086446B4E62C4B9C4200D0ECE694
:10484000AFE611001F3CE1400C00202B00D17FE0BF
:104850004021CB1A9A4015436A1E954100212543F9
:1048600000242DE733000700203BDF403B00202ED3
:1048700070D04027BE1BB0400243501E82411343FC
:104880000022E2E6002C4FD0184CA44500D1ABE04A
:104890008024240476422143382E00DDDFE01F2EE1
:1048A00000DD43E12027BC1BA1460C004F46BC4065
:1048B000A0462C004746F4403C434F46BD406F1E87
:1048C000BD41F1402C43151BAA429241411A52426C
:1048D000891A64469A46BFE641464546314300D0B0
:1048E000BEE6002600240025F2E6C046FF070000D1
:1048F000FFFF7FFFFFFF0F801F2B59DC2027FF1AD0
:10490000BC46070063469F405B46B9461700DF4040
:10491000B8464F4643461F4363469A40531E9A414A
:104920005B463A43D840F4E60C002C435CD0F64397
:10493000002E55D1551BAA42A441411A6442091BBD
:104940009A46644688E6964FBC4200D0D8E628E6F0
:10495000002280E700208FE70B002B43002C00D0C3
:10496000C2E0002B00D101E10300134300D118E69F
:10497000AB18AB42B6410918764271180A0200D44E
:1049800009E1884A1D00114064460AE6002C5BD10B
:104990000E002E4300D08AE00100114300D1C2E096
:1049A000010015009A46FCE56446002100258FE6CB
:1049B00020235B429C46DC4463460700DF405B46A5
:1049C000BC46202B00D1ACE040235F46DB1B984067
:1049D0000243501E8241634613431A00002098E6AA
:1049E0006F4CA44500D057E70100150064469A4675
:1049F000D7E5002C39D10C002C436ED0DB43002BC3
:104A00001AD0674CA44568D0382B00DDA4E01F2BDA
:104A100000DDAEE020240F00E41AA740B9462F00C5
:104A2000DF40B846A3464F46444627435C46A54070
:104A30006C1EA541D9403D43AD1895429B410918D4
:104A40005B42591864466BE60C002C4315D10100FB
:104A500011437BD0010015009A46514CA1E50D434E
:104A6000691E8D410021ECB22DE74D4CA44534D098
:104A7000802424045B422143C6E7040014434ED043
:104A8000ED084C072C438025C9082D03294208D086
:104A9000C6082E4205D1D208410711430C009A46A0
:104AA0003100620FC900E50011433D4C79E5060075
:104AB000164300D175E5AE1AB0464545BF410E1A02
:104AC0007F42F61B370200D4F4E5551BAA42B641DB
:104AD000411A7642891B9A4663E501001500644637
:104AE0005FE5002200257BE5002B3BD0030013434C
:104AF00015D0ED084B072B438025C9082D0329420B
:104B000007D0C4082C4204D141070B002100D20871
:104B10001343C9005A0F1143DD00214C41E5204CDD
:104B20003FE5002054E700260025D1E534000F00C2
:104B3000203CE7403C00202E2BD04027BE1BB1403C
:104B40000D43691E8D4100212C43BCE680210026C7
:104B50000903134C0025BBE50D43691E8D4100215F
:104B6000EDB269E7010015000D4C1AE501001500D2
:104B700017E51C000F00203CE7403C00202B0CD028
:104B80004027FB1A99400D43691E8D4100212543A2
:104B900052E70021D4E71D0092E50021F3E7C0466B
:104BA000FF070000FFFF7FFFF0B556464D46444625
:104BB0005F46F0B41D000E034C00CB0F87B007001A
:104BC00092468146360B640D98466AD06D4B9C42E6
:104BD00035D08022430F12041343F6001E43C30056
:104BE0009946694B00279C460023644402932B039B
:104BF00068001B0BED0F51469B46400D009500D100
:104C000078E0604B98426CD05B46DA004B0F802115
:104C100009040B4313439B465346D9005A4B9C4609
:104C2000002360444246201A6A40924601901F4386
:104C30000F2F00D9B0E05548BF00C0598746374311
:104C400000D088E00023994602330827002602930B
:104C5000CDE74346B34649460093029B009A9246ED
:104C6000022B00D0BFE100215346012200268946D5
:104C70001A40444B002136030C0D2405360B264305
:104C8000434C1B0526401E437600D2077608164388
:104C90004846310007B03CBC90469946A246AB4618
:104CA000F0BD330003434FD0002E00D1BCE13000F3
:104CB00001F0FCFA03000B3B1C2B00DDADE11D22D3
:104CC0000100D31A08393A008F408E40DA40B946C5
:104CD0001643304B00279C46002360444442029315
:104CE00085E753465A4613432CD1002300219B46A7
:104CF000023397E70B4320D05B46002B00D19EE1A7
:104D0000584601F0D3FA03000B3B1C2B00DD8FE16A
:104D100002005946083A91408B461D21CB1A514654
:104D2000D9400B0059460B4351469B469140194BC5
:104D30009C4660444042002374E7002300219B46C8
:104D400001336FE703236DE70023994601330427FE
:104D5000002602934BE703230C27029347E7012227
:104D6000D51A382D00DCB0E153461A40002100234B
:104D7000002689467EE700238026994600223603D6
:104D8000004B77E7FF07000001FCFFFF241B030037
:104D9000FFFF0F80F30300005E4500D972E100D1F0
:104DA0006DE1019B4D46013B0193002334000293CA
:104DB0005B461E020B0E1E430B020393330C9946F7
:104DC00033041B0C494620000093FFF7C3F9009BF6
:104DD000370043430600494620009846FFF740FA53
:104DE0002C0C09040C43A04509D9E419731EA742F1
:104DF00000D95CE1A04500D859E1023EE4194346E0
:104E0000E41A49462000FFF7A5F90300009A8046FE
:104E10005343494620009B46FFF722FA2A0409041F
:104E2000120C0A4393450DD94346D219013B9742D0
:104E300000D93AE1934500D837E102235B429C4612
:104E4000D219E0445B46D21A4346360433439B46AC
:104E50000399180C0B0C1D00059309045B46090C03
:104E60000C001B041B0C4443049159436B436843DF
:104E70001B190D0CEB189C4203D980246402A44634
:104E800060441C0C09041B04090C20185D188242A4
:104E900000D2DEE000D1D7E0161A029B9C465D1BD3
:104EA000AC459B415B42F61AB74200D106E1494648
:104EB0003000FFF74FF9009B0400434349463000A0
:104EC0009846FFF7CDF92E0C09040E43B04509D9D9
:104ED000F619631EB74200D9F3E0B04500D8F0E000
:104EE000023CF6194346F31A494618000293FFF7AD
:104EF00031F9009B06004343494602989846FFF764
:104F0000AFF92D0409042D0C0D43A84509D9ED195D
:104F1000731EAF4200D9D6E0A84500D8D3E0023EC8
:104F2000ED192404210043463143049E059A3000C4
:104F3000ED1A0B040C0C1B0C5843664353435443AB
:104F40009A19030C9B189E4203D980225202944660
:104F500064441A0C00041B04000C14191B18A5420D
:104F600050D34DD001231943964A019B9446634484
:104F7000002B00DCF3E64A0709D00F220A40042A7E
:104F800005D00A1D8A42894149428B4411005A4684
:104F9000D20108D55A468C4B1A4093468022D20043
:104FA0009446019B6344894A934200DD5BE65A467E
:104FB000C908500708435602514601225B05814645
:104FC000360B5B0D0A4055E680231B031E4211D0B1
:104FD0005A461A420ED15E461E433603360B2A004D
:104FE00089467B4B46E6032B00D1E1E0012BBBD188
:104FF0001A40BBE61E433603360B4246744B39E675
:10500000002BB1D07D194A1EAF4252D91100A542E2
:10501000A8D1039A9A42A5D1A6E703003E00283BF7
:105020009E400023994654E601F040F9203041E6C5
:1050300003005246283B9A400021934677E65046AB
:1050400001F034F920305EE6029B0026AB4200D32B
:1050500023E7039E0299B44661448846B045B641B1
:105060005B467642F619B218013B0291974213D281
:1050700090424FD800D18EE0161A9B460DE7894525
:1050800000D28EE674084B46F60735005B081D43D8
:105090004B46DB0702938BE69742EDD10399029CC6
:1050A000A142E5D93E1A9B46F7E69846CAE61E009D
:1050B000A5E6AC423ED874D0110053E70121494225
:1050C00052E71C000EE71E002BE71F2D3CDC2023BF
:1050D0000A0058465B1B9840EA4099400243481E2C
:1050E00081415E461143EE404B0709D00F230B4030
:1050F000042B05D00B00191D99429B415B42F61809
:1051000033023CD55346012200211A4000260123D8
:105110008946AFE502235B429C46039CE344A446D8
:10512000029B63449846A045B6417642F619029325
:10513000B218B1E603988A1E41008142B641764218
:10514000F619AD19039161E71F225242D31A5A464C
:10515000DA401300202D29D040225846551BA84084
:105160000143481E814107200B43184000260028B8
:1051700009D00F2200261A401900042ABBD10B00C7
:1051800070077602360BDB0803439946012253462B
:105190001A4000236EE502998D42BBD89B4600263B
:1051A0007BE603989842C5D3110032E70020D7E789
:1051B00080265B4636031E433603360B009A89462B
:1051C000034B57E5FF030000FFFFFFFEFE07000053
:1051D000FF070000F0B55F4656464D464446F0B422
:1051E0001F035C00DB0F9A46194B0E034D00C90FDD
:1051F0008046360B6D0D8B4691463F0B640D9D42EC
:1052000019D0134B9C421BD00123A54206D0180095
:105210003CBC90469946A246AB46F0BDBE42F6D194
:10522000C845F4D1D34510D0002DF0D13043030050
:105230005A1E9341EBE7310001230143E7D1E0E738
:105240003A430123002AE2D1DEE70023DFE7C0462C
:10525000FF070000F0B55F46444656464D46F0B4A1
:105260001F033C0B2C4F0E034D00A3465C008446ED
:10527000360B6D0DC90F9046640DDB0FBD422BD070
:10528000254FBC422ED0002D0ED130430700814661
:1052900078427841002C17D15F463A4314D14B46EF
:1052A0000020002B0AD006E0002C02D15846024311
:1052B00001D099421AD00123484218433CBC904681
:1052C0009946A246AB46F0BD0028F2D0584258415C
:1052D000012240421043F1E737000743D0D00220BB
:1052E0004042EBE75F461743CDD0F8E7A542E2DC4A
:1052F00005DB5E45DFD808D000205E45DED248429F
:105300004841012340421843D8E7C445D3D8002080
:10531000C445F4D3D2E7C046FF070000F0B55F46AE
:105320004D4644465646F0B41C03240BA4462F4C6D
:105330000F034D005E00C90F80463F0B6D0D8B467D
:105340009146760DDB0FA54220D0284CA64222D0F4
:10535000002D12D1384344424441002E20D0002C6D
:105360000DD05C42634101245B421C4320003CBCE5
:1053700090469946A246AB46F0BD002E17D05B453D
:1053800019D05B465C4201231C43EFE7390002243D
:105390000143EBD1D9E7614602241143E6D1D7E7B7
:1053A00061460A43DBD100240028DFD0E9E76146EB
:1053B0000A43E4D1E5E7B54203DD01225C42144330
:1053C000D4E7B542CDDB6745DBD809D0002467457B
:1053D000CCD259464C426141012449420C43C5E7B5
:1053E000C845CED80024C845F3D3BFE7FF07000067
:1053F000F0B55F4656464D464446F0B40D03994617
:105400004E002B0B87B00700924680469B46760DD8
:10541000CC0F002E69D06D4B9E4235D05B4680226A
:10542000DD001204430F13432B439B46C3009846F1
:10543000674B00279C460023664401934A461503A8
:105440005000D20F53462D0B400D914600D176E00F
:105450005E4A90426CD080225B0F120413435C4A78
:10546000ED0094461D4353460022DB00604449464C
:105470003618701C6140029017430F2F00D9AFE01F
:105480005448BF00C759BF465B461F4300D088E061
:1054900000239B469846023308270193CEE74946EE
:1054A000022A6AD0032A00D109E2012A00D0BBE116
:1054B00011400022002300259046CCB200212D038C
:1054C0000A0D12052D0B1543434A1B0515401D43BC
:1054D0006D00E4076D0825434046290007B03CBC39
:1054E00090469946A246AB46F0BD034352D05B4678
:1054F000002B00D18AE1584600F0D8FE03000B3B98
:105500001C2B00DD7BE11D22D31A3A0001005D4611
:10551000DA4008398D4013008F402B439B46B84634
:105520002E4B00279C46002360444642019385E7AA
:1055300052462A432CD100250023022297E75246E7
:105540002A4321D0002D00D154E1280000F0AEFE06
:1055500003000B3B1C2B00DD46E11D21CB1A5146FD
:105560000200D9405346083A954093400D431B4AE8
:10557000944660444042002279E7012400220C4016
:10558000124B0025904699E70025002301226EE783
:1055900003226CE700239B469846013304270193BE
:1055A0004CE703230C27019348E700238025984606
:1055B00000242D03054B81E75D464346019A6FE7C2
:1055C0005D4643462100019A6AE7C046FF07000096
:1055D00001FCFFFF641B0300FFFF0F80F3030000CB
:1055E0004246120C91461A0C9446424617044A460B
:1055F0001B041B0C5A43604690464A464243100027
:10560000039262461C003F0C7A437C434244019261
:10561000220C9246019A5244904506D98246802037
:1056200040028046C24450460390100C0490484605
:105630002404240C1204121905922A0C2D042D0C9A
:1056400068432C00824648467C4350438146200CE8
:105650008046574357444744BA4503D98020400207
:105660008046C144380C3F04B84648442404240C06
:1056700001900498A044404404905846000C814690
:1056800058460404200C8246070048465F434C46B7
:105690004343604660436446834650464443380C67
:1056A0008446E4186444A34203D980235B029C46E9
:1056B000E34448463F04230C3F0C2404E4195746B6
:1056C00068436F4384464D46504655434243380C29
:1056D000814662444A445B44944503D98020400299
:1056E0008446654403983F04834604983F0C8446EF
:1056F000E344C345804140428246100484460198F9
:10570000674484466744A344BC46A345A4419946E4
:10571000D44464428742BF41D4458041E144A0461D
:1057200099459B417F424042C8440743120CBA1836
:10573000A045A4415F423B0064422343D71843463F
:105740007D19DB0D6D021D435B465A02059B1A4312
:10575000531E9A415B46DB0D1A4343465B021343DB
:10576000EA0107D501225C0813402343EA07029EA1
:1057700013436D08574AB218002A4BDD580709D069
:105780000F201840042805D0181D98429B415B4209
:10579000ED180300E80104D54F4A15408022D200DD
:1057A000B2184E48824200DDE7E60124DB086807B4
:1057B00018436D02530580462D0B5B0D0C407DE6B2
:1057C000802259461203114208D0154206D11543D2
:1057D0002D0398462D0B4C46414B6FE65D46154315
:1057E0002D032D0B3E4B69E603005546283B9D409B
:1057F0000023BCE6504600F059FD2030A8E6030027
:10580000283B9F400023BB46984689E600F04EFDAA
:10581000203073E60124A61A382E07DD00220C4042
:1058200000230025904649E6029EA3E71F2E20DCB8
:1058300020222C001800921BF04094409340044317
:10584000581E83411C43F540630709D00F232340B2
:10585000042B05D023001C1D9C4292415242AD18DE
:105860002B021FD5012400220C4001230025904665
:1058700024E61F202C004042821AD440202E1CD047
:105880004022961BB5402B43581E834107202343DB
:1058900018400025002809D00F2200251A401C00BE
:1058A000042AD8D1230068076D022D0B0124DB08E0
:1058B000034398460C40002300E60025E3E78022DE
:1058C0000124120315432D0398462D0B0C40044B65
:1058D000F4E5C046FF030000FFFFFFFEFE070000E7
:1058E000FF070000F0B557464E464546E0B40E00AF
:1058F0001100F20F9246C500420F180337037400DF
:10590000400A4E0F7F0A3043CF4E17435A00640DB2
:10591000520DDB0FC900B24200D1E5E00126734011
:10592000A61AB446534500D1AFE0002E00DC0DE1CD
:10593000002A3AD103000B4300D0E4E06B0709D002
:105940000F232B40042B05D02B1DAB42AD416D42E4
:105950007F191D003B0200D488E0BB4B01349C4200
:1059600000D110E13A00B94B51461A4001235007CB
:10597000ED08520264050543120B640D0B40002133
:10598000280012030D0D120B64052D051543620846
:10599000AF4CDB072C401443640064081C43210017
:1059A0001CBC90469946A246F0BDA74B9C42C5D070
:1059B00080231B0418436346382B00DDFDE01F2BBA
:1059C00000DD30E1624620239B1A02009A406646C1
:1059D00090460A009940F24046464B1E9941324398
:1059E000114363460200DA40691A8D429B410D0063
:1059F000BA1A5B42D71A3B0235D57A02530A984647
:105A00004346002B00D1C4E0404600F04FFC0300A9
:105A1000083B1F2B00DDC5E020222900D21A474693
:105A2000D1409F400A009D403A439C4200DDC0E0C7
:105A30001C1B631C1F2B00DDE4E020211400280048
:105A4000C91AD8408C408D400443DA40681E854115
:105A500017002543002471E7424663461A4300D1EC
:105A60004CE2674645466B0700D069E70123514683
:105A70007807ED08FA080B40054373498C4238D08B
:105A800012036405120B640D79E7002E00DC9AE026
:105A9000002A47D06C4A944200D14FE7802212047A
:105AA00010436246382A00DC08E10143481E814168
:105AB0000022C9B24919D219A942BF410D007F4243
:105AC000BF183A0200D442E15F4A0134944200D147
:105AD0004EE101205D4A69083A4028400843D50755
